{
	"BlockChainElection.sol": {
		"Voting": {
			"abi": [
				{
					"inputs": [],
					"stateMutability": "nonpayable",
					"type": "constructor"
				},
				{
					"anonymous": false,
					"inputs": [
						{
							"indexed": false,
							"internalType": "uint256",
							"name": "",
							"type": "uint256"
						}
					],
					"name": "Approved",
					"type": "event"
				},
				{
					"anonymous": false,
					"inputs": [
						{
							"indexed": false,
							"internalType": "uint256",
							"name": "",
							"type": "uint256"
						}
					],
					"name": "Rejected_or_Banned",
					"type": "event"
				},
				{
					"anonymous": false,
					"inputs": [
						{
							"indexed": false,
							"internalType": "address",
							"name": "",
							"type": "address"
						},
						{
							"indexed": false,
							"internalType": "string",
							"name": "",
							"type": "string"
						}
					],
					"name": "Request_For_Registration",
					"type": "event"
				},
				{
					"anonymous": false,
					"inputs": [
						{
							"indexed": false,
							"internalType": "address",
							"name": "",
							"type": "address"
						},
						{
							"indexed": false,
							"internalType": "string",
							"name": "",
							"type": "string"
						}
					],
					"name": "candidate_registration",
					"type": "event"
				},
				{
					"anonymous": false,
					"inputs": [
						{
							"indexed": false,
							"internalType": "address",
							"name": "",
							"type": "address"
						},
						{
							"indexed": false,
							"internalType": "string",
							"name": "",
							"type": "string"
						}
					],
					"name": "voter_registration",
					"type": "event"
				},
				{
					"inputs": [
						{
							"internalType": "string",
							"name": "_voter_name",
							"type": "string"
						},
						{
							"internalType": "string",
							"name": "_voter_address",
							"type": "string"
						},
						{
							"internalType": "uint8",
							"name": "_voter_age",
							"type": "uint8"
						},
						{
							"internalType": "string",
							"name": "_voter_aadhaar_number",
							"type": "string"
						}
					],
					"name": "add_voter",
					"outputs": [],
					"stateMutability": "nonpayable",
					"type": "function"
				},
				{
					"inputs": [
						{
							"internalType": "uint256",
							"name": "_candidate_id",
							"type": "uint256"
						}
					],
					"name": "approve_or_unBan_candidate",
					"outputs": [],
					"stateMutability": "nonpayable",
					"type": "function"
				},
				{
					"inputs": [
						{
							"internalType": "uint256",
							"name": "_voter_id",
							"type": "uint256"
						}
					],
					"name": "approve_or_unBan_voter",
					"outputs": [],
					"stateMutability": "nonpayable",
					"type": "function"
				},
				{
					"inputs": [
						{
							"internalType": "uint256",
							"name": "_voter_id",
							"type": "uint256"
						},
						{
							"internalType": "enum Voting.DelegatedRelationship",
							"name": "_relationship",
							"type": "uint8"
						}
					],
					"name": "delegate_my_vote",
					"outputs": [],
					"stateMutability": "nonpayable",
					"type": "function"
				},
				{
					"inputs": [],
					"name": "endElection",
					"outputs": [],
					"stateMutability": "nonpayable",
					"type": "function"
				},
				{
					"inputs": [
						{
							"internalType": "uint256",
							"name": "_candidate_id",
							"type": "uint256"
						}
					],
					"name": "get_candidate_detail",
					"outputs": [
						{
							"components": [
								{
									"internalType": "uint256",
									"name": "candidate_id",
									"type": "uint256"
								},
								{
									"internalType": "string",
									"name": "candidate_name",
									"type": "string"
								},
								{
									"internalType": "string",
									"name": "candidate_address",
									"type": "string"
								},
								{
									"internalType": "string",
									"name": "candidate_age",
									"type": "string"
								},
								{
									"internalType": "string",
									"name": "candidate_promise",
									"type": "string"
								}
							],
							"internalType": "struct Voting.Candidate_List",
							"name": "",
							"type": "tuple"
						}
					],
					"stateMutability": "view",
					"type": "function"
				},
				{
					"inputs": [
						{
							"internalType": "uint256",
							"name": "_candidate_id",
							"type": "uint256"
						}
					],
					"name": "get_candidate_eligibility",
					"outputs": [
						{
							"internalType": "bool",
							"name": "",
							"type": "bool"
						}
					],
					"stateMutability": "view",
					"type": "function"
				},
				{
					"inputs": [],
					"name": "get_candidate_list",
					"outputs": [
						{
							"components": [
								{
									"internalType": "uint256",
									"name": "candidate_id",
									"type": "uint256"
								},
								{
									"internalType": "string",
									"name": "candidate_name",
									"type": "string"
								},
								{
									"internalType": "string",
									"name": "candidate_address",
									"type": "string"
								},
								{
									"internalType": "string",
									"name": "candidate_age",
									"type": "string"
								},
								{
									"internalType": "string",
									"name": "candidate_promise",
									"type": "string"
								}
							],
							"internalType": "struct Voting.Candidate_List[]",
							"name": "",
							"type": "tuple[]"
						}
					],
					"stateMutability": "view",
					"type": "function"
				},
				{
					"inputs": [
						{
							"internalType": "uint256",
							"name": "_candidate_id",
							"type": "uint256"
						}
					],
					"name": "get_candidate_result",
					"outputs": [
						{
							"internalType": "uint256",
							"name": "",
							"type": "uint256"
						}
					],
					"stateMutability": "view",
					"type": "function"
				},
				{
					"inputs": [],
					"name": "get_election_result",
					"outputs": [
						{
							"internalType": "string",
							"name": "",
							"type": "string"
						},
						{
							"internalType": "uint256",
							"name": "",
							"type": "uint256"
						},
						{
							"internalType": "uint256",
							"name": "",
							"type": "uint256"
						}
					],
					"stateMutability": "view",
					"type": "function"
				},
				{
					"inputs": [
						{
							"internalType": "uint256",
							"name": "_voter_id",
							"type": "uint256"
						}
					],
					"name": "get_voter_detail",
					"outputs": [
						{
							"components": [
								{
									"internalType": "uint256",
									"name": "voter_id",
									"type": "uint256"
								},
								{
									"internalType": "string",
									"name": "voter_name",
									"type": "string"
								},
								{
									"internalType": "string",
									"name": "voter_address",
									"type": "string"
								},
								{
									"internalType": "uint8",
									"name": "voter_age",
									"type": "uint8"
								},
								{
									"internalType": "string",
									"name": "voter_aadhaar_number",
									"type": "string"
								}
							],
							"internalType": "struct Voting.Voters_List",
							"name": "",
							"type": "tuple"
						}
					],
					"stateMutability": "view",
					"type": "function"
				},
				{
					"inputs": [
						{
							"internalType": "uint256",
							"name": "_voter_id",
							"type": "uint256"
						}
					],
					"name": "get_voter_eligibility",
					"outputs": [
						{
							"internalType": "bool",
							"name": "",
							"type": "bool"
						}
					],
					"stateMutability": "view",
					"type": "function"
				},
				{
					"inputs": [],
					"name": "get_voters_list",
					"outputs": [
						{
							"components": [
								{
									"internalType": "uint256",
									"name": "voter_id",
									"type": "uint256"
								},
								{
									"internalType": "string",
									"name": "voter_name",
									"type": "string"
								},
								{
									"internalType": "string",
									"name": "voter_address",
									"type": "string"
								},
								{
									"internalType": "uint8",
									"name": "voter_age",
									"type": "uint8"
								},
								{
									"internalType": "string",
									"name": "voter_aadhaar_number",
									"type": "string"
								}
							],
							"internalType": "struct Voting.Voters_List[]",
							"name": "",
							"type": "tuple[]"
						}
					],
					"stateMutability": "view",
					"type": "function"
				},
				{
					"inputs": [
						{
							"internalType": "uint256",
							"name": "_candidate_id",
							"type": "uint256"
						}
					],
					"name": "registerVote",
					"outputs": [],
					"stateMutability": "nonpayable",
					"type": "function"
				},
				{
					"inputs": [
						{
							"internalType": "string",
							"name": "_candidate_name",
							"type": "string"
						},
						{
							"internalType": "string",
							"name": "_candidate_address",
							"type": "string"
						},
						{
							"internalType": "string",
							"name": "_candidate_age",
							"type": "string"
						},
						{
							"internalType": "string",
							"name": "_candidate_promise",
							"type": "string"
						}
					],
					"name": "register_candidate",
					"outputs": [],
					"stateMutability": "nonpayable",
					"type": "function"
				},
				{
					"inputs": [
						{
							"internalType": "uint256",
							"name": "_delegated_voter_id",
							"type": "uint256"
						},
						{
							"internalType": "uint256",
							"name": "_candidate_id",
							"type": "uint256"
						}
					],
					"name": "register_delegated_vote",
					"outputs": [],
					"stateMutability": "nonpayable",
					"type": "function"
				},
				{
					"inputs": [
						{
							"internalType": "uint256",
							"name": "_candidate_id",
							"type": "uint256"
						}
					],
					"name": "reject_or_ban_candidate",
					"outputs": [],
					"stateMutability": "nonpayable",
					"type": "function"
				},
				{
					"inputs": [
						{
							"internalType": "uint256",
							"name": "_voter_id",
							"type": "uint256"
						}
					],
					"name": "reject_or_ban_voter",
					"outputs": [],
					"stateMutability": "nonpayable",
					"type": "function"
				},
				{
					"inputs": [],
					"name": "show_my_vote",
					"outputs": [
						{
							"internalType": "uint256",
							"name": "",
							"type": "uint256"
						}
					],
					"stateMutability": "view",
					"type": "function"
				},
				{
					"inputs": [],
					"name": "startElection",
					"outputs": [],
					"stateMutability": "nonpayable",
					"type": "function"
				}
			],
			"devdoc": {
				"kind": "dev",
				"methods": {},
				"version": 1
			},
			"evm": {
				"assembly": "    /* \"BlockChainElection.sol\":190:12277  contract Voting{... */\n  mstore(0x40, 0x80)\n    /* \"BlockChainElection.sol\":2183:2457  constructor(){... */\n  callvalue\n  dup1\n  iszero\n  tag_1\n  jumpi\n  0x00\n  dup1\n  revert\ntag_1:\n  pop\n    /* \"BlockChainElection.sol\":2207:2226  election_commission */\n  0x02\n    /* \"BlockChainElection.sol\":2207:2239  election_commission = msg.sender */\n  dup1\n  sload\n  not(sub(shl(0xa0, 0x01), 0x01))\n  and\n    /* \"BlockChainElection.sol\":2229:2239  msg.sender */\n  caller\n    /* \"BlockChainElection.sol\":2207:2239  election_commission = msg.sender */\n  or\n  swap1\n  sstore\n    /* \"BlockChainElection.sol\":2207:2226  election_commission */\n  0x00\n    /* \"BlockChainElection.sol\":2250:2273  total_active_voters = 0 */\n  dup1\n  dup1\n  sstore\n    /* \"BlockChainElection.sol\":2207:2239  election_commission = msg.sender */\n  0x01\n    /* \"BlockChainElection.sol\":2284:2305  active_candidates = 0 */\n  dup2\n  dup2\n  sstore\n    /* \"BlockChainElection.sol\":2316:2324  id_voter */\n  0x03\n    /* \"BlockChainElection.sol\":2316:2328  id_voter = 1 */\n  dup2\n  swap1\n  sstore\n    /* \"BlockChainElection.sol\":2339:2351  id_candidate */\n  0x04\n    /* \"BlockChainElection.sol\":2339:2355  id_candidate = 1 */\n  sstore\n    /* \"BlockChainElection.sol\":2366:2377  total_votes */\n  0x05\n    /* \"BlockChainElection.sol\":2366:2381  total_votes = 0 */\n  sstore\n    /* \"BlockChainElection.sol\":2392:2408  election_started */\n  0x06\n    /* \"BlockChainElection.sol\":2392:2416  election_started = false */\n  dup1\n  sload\n  not(0xffff)\n    /* \"BlockChainElection.sol\":2427:2449  election_ended = false */\n  and\n  swap1\n  sstore\n    /* \"BlockChainElection.sol\":190:12277  contract Voting{... */\n  dataSize(sub_0)\n  dup1\n  dataOffset(sub_0)\n  0x00\n  codecopy\n  0x00\n  return\nstop\n\nsub_0: assembly {\n        /* \"BlockChainElection.sol\":190:12277  contract Voting{... */\n      mstore(0x40, 0x80)\n      callvalue\n      dup1\n      iszero\n      tag_1\n      jumpi\n      0x00\n      dup1\n      revert\n    tag_1:\n      pop\n      jumpi(tag_2, lt(calldatasize, 0x04))\n      shr(0xe0, calldataload(0x00))\n      dup1\n      0xa589ac5c\n      gt\n      tag_23\n      jumpi\n      dup1\n      0xcdd11b64\n      gt\n      tag_24\n      jumpi\n      dup1\n      0xcdd11b64\n      eq\n      tag_18\n      jumpi\n      dup1\n      0xd1b9fb3f\n      eq\n      tag_19\n      jumpi\n      dup1\n      0xe9b52668\n      eq\n      tag_20\n      jumpi\n      dup1\n      0xeca88ca6\n      eq\n      tag_21\n      jumpi\n      dup1\n      0xfc864716\n      eq\n      tag_22\n      jumpi\n      0x00\n      dup1\n      revert\n    tag_24:\n      dup1\n      0xa589ac5c\n      eq\n      tag_13\n      jumpi\n      dup1\n      0xb2cdae46\n      eq\n      tag_14\n      jumpi\n      dup1\n      0xbb30d88e\n      eq\n      tag_15\n      jumpi\n      dup1\n      0xbd0c7009\n      eq\n      tag_16\n      jumpi\n      dup1\n      0xc2b33e6e\n      eq\n      tag_17\n      jumpi\n      0x00\n      dup1\n      revert\n    tag_23:\n      dup1\n      0x464d4a92\n      gt\n      tag_25\n      jumpi\n      dup1\n      0x464d4a92\n      eq\n      tag_8\n      jumpi\n      dup1\n      0x54155fbf\n      eq\n      tag_9\n      jumpi\n      dup1\n      0x59f78468\n      eq\n      tag_10\n      jumpi\n      dup1\n      0x5b8ebb64\n      eq\n      tag_11\n      jumpi\n      dup1\n      0x62d73eb8\n      eq\n      tag_12\n      jumpi\n      0x00\n      dup1\n      revert\n    tag_25:\n      dup1\n      0x0318e0ac\n      eq\n      tag_3\n      jumpi\n      dup1\n      0x0340851d\n      eq\n      tag_4\n      jumpi\n      dup1\n      0x1d529aa4\n      eq\n      tag_5\n      jumpi\n      dup1\n      0x2802ce59\n      eq\n      tag_6\n      jumpi\n      dup1\n      0x3c209877\n      eq\n      tag_7\n      jumpi\n    tag_2:\n      0x00\n      dup1\n      revert\n        /* \"BlockChainElection.sol\":11918:12081  function get_voter_eligibility(uint _voter_id) public view validId(_voter_id, false) returns(bool){... */\n    tag_3:\n      tag_26\n      tag_27\n      calldatasize\n      0x04\n      tag_28\n      jump\t// in\n    tag_27:\n      tag_29\n      jump\t// in\n    tag_26:\n      mload(0x40)\n        /* \"#utility.yul\":364:378   */\n      swap1\n      iszero\n        /* \"#utility.yul\":357:379   */\n      iszero\n        /* \"#utility.yul\":339:380   */\n      dup2\n      mstore\n        /* \"#utility.yul\":327:329   */\n      0x20\n        /* \"#utility.yul\":312:330   */\n      add\n        /* \"BlockChainElection.sol\":11918:12081  function get_voter_eligibility(uint _voter_id) public view validId(_voter_id, false) returns(bool){... */\n    tag_30:\n      mload(0x40)\n      dup1\n      swap2\n      sub\n      swap1\n      return\n        /* \"BlockChainElection.sol\":12089:12274  function get_candidate_eligibility(uint _candidate_id) public view validId(_candidate_id, true) returns(bool){... */\n    tag_4:\n      tag_26\n      tag_33\n      calldatasize\n      0x04\n      tag_28\n      jump\t// in\n    tag_33:\n      tag_34\n      jump\t// in\n        /* \"BlockChainElection.sol\":6750:7179  function approve_or_unBan_candidate(uint _candidate_id) public onlyElectionCommission validId(_candidate_id, true){... */\n    tag_5:\n      tag_36\n      tag_37\n      calldatasize\n      0x04\n      tag_28\n      jump\t// in\n    tag_37:\n      tag_38\n      jump\t// in\n    tag_36:\n      stop\n        /* \"BlockChainElection.sol\":8880:9924  function register_delegated_vote(uint _delegated_voter_id, uint _candidate_id) public election_in_progress validId(_candidate_id, true) validId(_delegated_voter_id, false){... */\n    tag_6:\n      tag_36\n      tag_40\n      calldatasize\n      0x04\n      tag_41\n      jump\t// in\n    tag_40:\n      tag_42\n      jump\t// in\n        /* \"BlockChainElection.sol\":10393:10521  function get_voters_list() public view onlyElectionCommission returns (Voters_List[] memory){... */\n    tag_7:\n      tag_43\n      tag_44\n      jump\t// in\n    tag_43:\n      mload(0x40)\n      tag_30\n      swap2\n      swap1\n      tag_46\n      jump\t// in\n        /* \"BlockChainElection.sol\":8427:8872  function registerVote(uint _candidate_id) public votePolling(_candidate_id) election_in_progress{... */\n    tag_8:\n      tag_36\n      tag_48\n      calldatasize\n      0x04\n      tag_28\n      jump\t// in\n    tag_48:\n      tag_49\n      jump\t// in\n        /* \"BlockChainElection.sol\":5957:6742  function register_candidate(string memory _candidate_name, string memory _candidate_address, string memory _candidate_age, string memory _candidate_promise) public OneTimeRegistrationCandidate{... */\n    tag_9:\n      tag_36\n      tag_51\n      calldatasize\n      0x04\n      tag_52\n      jump\t// in\n    tag_51:\n      tag_53\n      jump\t// in\n        /* \"BlockChainElection.sol\":7879:8109  function endElection() public onlyElectionCommission{... */\n    tag_10:\n      tag_36\n      tag_55\n      jump\t// in\n        /* \"BlockChainElection.sol\":4453:5136  function add_voter(string memory _voter_name, string memory _voter_address, uint8 _voter_age, string memory _voter_aadhaar_number) public OneTimeRegistrationVoter{... */\n    tag_11:\n      tag_36\n      tag_57\n      calldatasize\n      0x04\n      tag_58\n      jump\t// in\n    tag_57:\n      tag_59\n      jump\t// in\n        /* \"BlockChainElection.sol\":7641:7871  function startElection() public onlyElectionCommission{... */\n    tag_12:\n      tag_36\n      tag_61\n      jump\t// in\n        /* \"BlockChainElection.sol\":10091:10263  function get_candidate_detail(uint _candidate_id) public view validId(_candidate_id, true) returns (Candidate_List memory){... */\n    tag_13:\n      tag_62\n      tag_63\n      calldatasize\n      0x04\n      tag_28\n      jump\t// in\n    tag_63:\n      tag_64\n      jump\t// in\n    tag_62:\n      mload(0x40)\n      tag_30\n      swap2\n      swap1\n      tag_66\n      jump\t// in\n        /* \"BlockChainElection.sol\":11533:11658  function show_my_vote() public view returns(uint){... */\n    tag_14:\n        /* \"BlockChainElection.sol\":11625:11635  msg.sender */\n      caller\n        /* \"BlockChainElection.sol\":11577:11581  uint */\n      0x00\n        /* \"BlockChainElection.sol\":11610:11636  voterIdManager[msg.sender] */\n      swap1\n      dup2\n      mstore\n        /* \"BlockChainElection.sol\":11610:11624  voterIdManager */\n      0x08\n        /* \"BlockChainElection.sol\":11610:11636  voterIdManager[msg.sender] */\n      0x20\n      swap1\n      dup2\n      mstore\n      0x40\n      dup1\n      dup4\n      keccak256\n        /* \"BlockChainElection.sol\":11610:11639  voterIdManager[msg.sender].id */\n      sload\n        /* \"BlockChainElection.sol\":11600:11640  vote_list[voterIdManager[msg.sender].id] */\n      dup4\n      mstore\n        /* \"BlockChainElection.sol\":11600:11609  vote_list */\n      0x10\n        /* \"BlockChainElection.sol\":11600:11640  vote_list[voterIdManager[msg.sender].id] */\n      swap1\n      swap2\n      mstore\n      swap1\n      keccak256\n        /* \"BlockChainElection.sol\":11600:11649  vote_list[voterIdManager[msg.sender].id].voted_id */\n      sload\n        /* \"BlockChainElection.sol\":11533:11658  function show_my_vote() public view returns(uint){... */\n    tag_67:\n      mload(0x40)\n        /* \"#utility.yul\":6583:6608   */\n      swap1\n      dup2\n      mstore\n        /* \"#utility.yul\":6571:6573   */\n      0x20\n        /* \"#utility.yul\":6556:6574   */\n      add\n        /* \"BlockChainElection.sol\":11533:11658  function show_my_vote() public view returns(uint){... */\n      tag_30\n        /* \"#utility.yul\":6437:6614   */\n      jump\n        /* \"BlockChainElection.sol\":5144:5534  function approve_or_unBan_voter(uint _voter_id) public onlyElectionCommission validId(_voter_id, false){... */\n    tag_15:\n      tag_36\n      tag_72\n      calldatasize\n      0x04\n      tag_28\n      jump\t// in\n    tag_72:\n      tag_73\n      jump\t// in\n        /* \"BlockChainElection.sol\":8117:8419  function delegate_my_vote(uint _voter_id, DelegatedRelationship _relationship) public delegateMyVote(_voter_id) validId(_voter_id, false) {... */\n    tag_16:\n      tag_36\n      tag_75\n      calldatasize\n      0x04\n      tag_76\n      jump\t// in\n    tag_75:\n      tag_77\n      jump\t// in\n        /* \"BlockChainElection.sol\":11666:11910  function get_candidate_result(uint _candidate_id) public view validId(_candidate_id, true) returns (uint){... */\n    tag_17:\n      tag_67\n      tag_79\n      calldatasize\n      0x04\n      tag_28\n      jump\t// in\n    tag_79:\n      tag_80\n      jump\t// in\n        /* \"BlockChainElection.sol\":7187:7633  function reject_or_ban_candidate(uint _candidate_id) public onlyElectionCommission validId(_candidate_id, true){... */\n    tag_18:\n      tag_36\n      tag_83\n      calldatasize\n      0x04\n      tag_28\n      jump\t// in\n    tag_83:\n      tag_84\n      jump\t// in\n        /* \"BlockChainElection.sol\":10529:11525  function get_election_result() public view returns (string memory, uint, uint){... */\n    tag_19:\n      tag_85\n      tag_86\n      jump\t// in\n    tag_85:\n      mload(0x40)\n      tag_30\n      swap4\n      swap3\n      swap2\n      swap1\n      tag_88\n      jump\t// in\n        /* \"BlockChainElection.sol\":10271:10385  function get_candidate_list() public view returns (Candidate_List[] memory){... */\n    tag_20:\n      tag_89\n      tag_90\n      jump\t// in\n    tag_89:\n      mload(0x40)\n      tag_30\n      swap2\n      swap1\n      tag_92\n      jump\t// in\n        /* \"BlockChainElection.sol\":5542:5949  function reject_or_ban_voter(uint _voter_id) public onlyElectionCommission validId(_voter_id, false){... */\n    tag_21:\n      tag_36\n      tag_94\n      calldatasize\n      0x04\n      tag_28\n      jump\t// in\n    tag_94:\n      tag_95\n      jump\t// in\n        /* \"BlockChainElection.sol\":9932:10083  function get_voter_detail(uint _voter_id) public view validId(_voter_id, false) returns (Voters_List memory){... */\n    tag_22:\n      tag_96\n      tag_97\n      calldatasize\n      0x04\n      tag_28\n      jump\t// in\n    tag_97:\n      tag_98\n      jump\t// in\n    tag_96:\n      mload(0x40)\n      tag_30\n      swap2\n      swap1\n      tag_100\n      jump\t// in\n        /* \"BlockChainElection.sol\":11918:12081  function get_voter_eligibility(uint _voter_id) public view validId(_voter_id, false) returns(bool){... */\n    tag_29:\n        /* \"BlockChainElection.sol\":12011:12015  bool */\n      0x00\n        /* \"BlockChainElection.sol\":11985:11994  _voter_id */\n      dup2\n        /* \"BlockChainElection.sol\":12011:12015  bool */\n      dup2\n        /* \"BlockChainElection.sol\":4002:4198  if(is_candidate){... */\n      jump(tag_102)\n        /* \"BlockChainElection.sol\":4033:4093  require(id > 0 && id < id_candidate, \"Invalid Candidate Id\") */\n    tag_105:\n      mload(0x40)\n      dup1\n      swap2\n      sub\n      swap1\n      revert\n        /* \"BlockChainElection.sol\":4002:4198  if(is_candidate){... */\n    tag_102:\n        /* \"BlockChainElection.sol\":4147:4148  0 */\n      0x00\n        /* \"BlockChainElection.sol\":4142:4144  id */\n      dup3\n        /* \"BlockChainElection.sol\":4142:4148  id > 0 */\n      gt\n        /* \"BlockChainElection.sol\":4142:4165  id > 0 && id < id_voter */\n      dup1\n      iszero\n      tag_108\n      jumpi\n      pop\n        /* \"BlockChainElection.sol\":4157:4165  id_voter */\n      sload(0x03)\n        /* \"BlockChainElection.sol\":4152:4154  id */\n      dup3\n        /* \"BlockChainElection.sol\":4152:4165  id < id_voter */\n      lt\n        /* \"BlockChainElection.sol\":4142:4165  id > 0 && id < id_voter */\n    tag_108:\n        /* \"BlockChainElection.sol\":4134:4186  require(id > 0 && id < id_voter, \"Invalid Voter Id\") */\n      tag_109\n      jumpi\n      mload(0x40)\n      shl(0xe5, 0x461bcd)\n      dup2\n      mstore\n      0x04\n      add\n      tag_105\n      swap1\n      tag_111\n      jump\t// in\n    tag_109:\n      pop\n      pop\n      pop\n        /* \"BlockChainElection.sol\":12034:12058  voterEligible[_voter_id] */\n      0x00\n      swap1\n      dup2\n      mstore\n        /* \"BlockChainElection.sol\":12034:12047  voterEligible */\n      0x0d\n        /* \"BlockChainElection.sol\":12034:12058  voterEligible[_voter_id] */\n      0x20\n      mstore\n      0x40\n      swap1\n      keccak256\n        /* \"BlockChainElection.sol\":12034:12073  voterEligible[_voter_id].voter_eligible */\n      sload\n      0xff\n      and\n      swap1\n        /* \"BlockChainElection.sol\":11918:12081  function get_voter_eligibility(uint _voter_id) public view validId(_voter_id, false) returns(bool){... */\n      jump\t// out\n        /* \"BlockChainElection.sol\":12089:12274  function get_candidate_eligibility(uint _candidate_id) public view validId(_candidate_id, true) returns(bool){... */\n    tag_34:\n        /* \"BlockChainElection.sol\":12193:12197  bool */\n      0x00\n        /* \"BlockChainElection.sol\":12164:12177  _candidate_id */\n      dup2\n        /* \"BlockChainElection.sol\":12179:12183  true */\n      0x01\n        /* \"BlockChainElection.sol\":4046:4047  0 */\n      0x00\n        /* \"BlockChainElection.sol\":4041:4043  id */\n      dup3\n        /* \"BlockChainElection.sol\":4041:4047  id > 0 */\n      gt\n        /* \"BlockChainElection.sol\":4041:4068  id > 0 && id < id_candidate */\n      dup1\n      iszero\n      tag_115\n      jumpi\n      pop\n        /* \"BlockChainElection.sol\":4056:4068  id_candidate */\n      sload(0x04)\n        /* \"BlockChainElection.sol\":4051:4053  id */\n      dup3\n        /* \"BlockChainElection.sol\":4051:4068  id < id_candidate */\n      lt\n        /* \"BlockChainElection.sol\":4041:4068  id > 0 && id < id_candidate */\n    tag_115:\n        /* \"BlockChainElection.sol\":4033:4093  require(id > 0 && id < id_candidate, \"Invalid Candidate Id\") */\n      tag_116\n      jumpi\n      mload(0x40)\n      shl(0xe5, 0x461bcd)\n      dup2\n      mstore\n      0x04\n      add\n      tag_105\n      swap1\n      tag_106\n      jump\t// in\n    tag_116:\n      pop\n      pop\n      pop\n        /* \"BlockChainElection.sol\":12216:12248  candidateEligible[_candidate_id] */\n      0x00\n      swap1\n      dup2\n      mstore\n        /* \"BlockChainElection.sol\":12216:12233  candidateEligible */\n      0x0e\n        /* \"BlockChainElection.sol\":12216:12248  candidateEligible[_candidate_id] */\n      0x20\n      mstore\n      0x40\n      swap1\n      keccak256\n        /* \"BlockChainElection.sol\":12216:12266  candidateEligible[_candidate_id].candiate_eligible */\n      sload\n      0xff\n      and\n      swap1\n        /* \"BlockChainElection.sol\":12089:12274  function get_candidate_eligibility(uint _candidate_id) public view validId(_candidate_id, true) returns(bool){... */\n      jump\t// out\n        /* \"BlockChainElection.sol\":6750:7179  function approve_or_unBan_candidate(uint _candidate_id) public onlyElectionCommission validId(_candidate_id, true){... */\n    tag_38:\n        /* \"BlockChainElection.sol\":2529:2548  election_commission */\n      and(sub(shl(0xa0, 0x01), 0x01), sload(0x02))\n        /* \"BlockChainElection.sol\":2515:2525  msg.sender */\n      caller\n        /* \"BlockChainElection.sol\":2515:2548  msg.sender == election_commission */\n      eq\n        /* \"BlockChainElection.sol\":2507:2572  require(msg.sender == election_commission, \"Unauthorized access\") */\n      tag_124\n      jumpi\n      mload(0x40)\n      shl(0xe5, 0x461bcd)\n      dup2\n      mstore\n      0x04\n      add\n      tag_105\n      swap1\n      tag_126\n      jump\t// in\n    tag_124:\n        /* \"BlockChainElection.sol\":6844:6857  _candidate_id */\n      dup1\n        /* \"BlockChainElection.sol\":6859:6863  true */\n      0x01\n        /* \"BlockChainElection.sol\":4046:4047  0 */\n      0x00\n        /* \"BlockChainElection.sol\":4041:4043  id */\n      dup3\n        /* \"BlockChainElection.sol\":4041:4047  id > 0 */\n      gt\n        /* \"BlockChainElection.sol\":4041:4068  id > 0 && id < id_candidate */\n      dup1\n      iszero\n      tag_129\n      jumpi\n      pop\n        /* \"BlockChainElection.sol\":4056:4068  id_candidate */\n      sload(0x04)\n        /* \"BlockChainElection.sol\":4051:4053  id */\n      dup3\n        /* \"BlockChainElection.sol\":4051:4068  id < id_candidate */\n      lt\n        /* \"BlockChainElection.sol\":4041:4068  id > 0 && id < id_candidate */\n    tag_129:\n        /* \"BlockChainElection.sol\":4033:4093  require(id > 0 && id < id_candidate, \"Invalid Candidate Id\") */\n      tag_130\n      jumpi\n      mload(0x40)\n      shl(0xe5, 0x461bcd)\n      dup2\n      mstore\n      0x04\n      add\n      tag_105\n      swap1\n      tag_106\n      jump\t// in\n    tag_130:\n        /* \"BlockChainElection.sol\":6879:6911  candidateEligible[_candidate_id] */\n      0x00\n      dup4\n      dup2\n      mstore\n        /* \"BlockChainElection.sol\":6879:6896  candidateEligible */\n      0x0e\n        /* \"BlockChainElection.sol\":6879:6911  candidateEligible[_candidate_id] */\n      0x20\n      mstore\n      0x40\n      swap1\n      keccak256\n        /* \"BlockChainElection.sol\":6879:6929  candidateEligible[_candidate_id].candiate_eligible */\n      sload\n      0xff\n      and\n        /* \"BlockChainElection.sol\":6875:7172  if(!candidateEligible[_candidate_id].candiate_eligible){... */\n      tag_137\n      jumpi\n        /* \"BlockChainElection.sol\":6945:6977  candidateEligible[_candidate_id] */\n      0x00\n      dup4\n      dup2\n      mstore\n        /* \"BlockChainElection.sol\":6945:6962  candidateEligible */\n      0x0e\n        /* \"BlockChainElection.sol\":6945:6977  candidateEligible[_candidate_id] */\n      0x20\n      mstore\n      0x40\n      dup2\n      keccak256\n        /* \"BlockChainElection.sol\":6945:7002  candidateEligible[_candidate_id].candiate_eligible = true */\n      dup1\n      sload\n      not(0xff)\n      and\n        /* \"BlockChainElection.sol\":6998:7002  true */\n      0x01\n        /* \"BlockChainElection.sol\":6945:7002  candidateEligible[_candidate_id].candiate_eligible = true */\n      swap1\n      dup2\n      or\n      swap1\n      swap2\n      sstore\n        /* \"BlockChainElection.sol\":7017:7036  active_candidates++ */\n      dup1\n      sload\n      swap2\n      tag_138\n      dup4\n      tag_139\n      jump\t// in\n    tag_138:\n      swap1\n      swap2\n      sstore\n      pop\n      pop\n        /* \"BlockChainElection.sol\":7056:7079  Approved(_candidate_id) */\n      mload(0x40)\n        /* \"#utility.yul\":6583:6608   */\n      dup4\n      dup2\n      mstore\n        /* \"BlockChainElection.sol\":7056:7079  Approved(_candidate_id) */\n      0x3ad93af63cb7967b23e4fb500b7d7d28b07516325dcf341f88bebf959d82c1cb\n      swap1\n        /* \"#utility.yul\":6571:6573   */\n      0x20\n        /* \"#utility.yul\":6556:6574   */\n      add\n        /* \"BlockChainElection.sol\":7056:7079  Approved(_candidate_id) */\n    tag_140:\n      mload(0x40)\n      dup1\n      swap2\n      sub\n      swap1\n      log1\n        /* \"BlockChainElection.sol\":2583:2584  _ */\n      pop\n      pop\n        /* \"BlockChainElection.sol\":6750:7179  function approve_or_unBan_candidate(uint _candidate_id) public onlyElectionCommission validId(_candidate_id, true){... */\n      pop\n      jump\t// out\n        /* \"BlockChainElection.sol\":6875:7172  if(!candidateEligible[_candidate_id].candiate_eligible){... */\n    tag_137:\n        /* \"BlockChainElection.sol\":7110:7160  revert(\"The candidate has already been approved.\") */\n      mload(0x40)\n      shl(0xe5, 0x461bcd)\n      dup2\n      mstore\n        /* \"#utility.yul\":9994:9996   */\n      0x20\n        /* \"BlockChainElection.sol\":7110:7160  revert(\"The candidate has already been approved.\") */\n      0x04\n      dup3\n      add\n        /* \"#utility.yul\":9976:9997   */\n      mstore\n        /* \"#utility.yul\":10033:10035   */\n      0x28\n        /* \"#utility.yul\":10013:10031   */\n      0x24\n      dup3\n      add\n        /* \"#utility.yul\":10006:10036   */\n      mstore\n        /* \"#utility.yul\":10072:10106   */\n      0x5468652063616e6469646174652068617320616c7265616479206265656e2061\n        /* \"#utility.yul\":10052:10070   */\n      0x44\n      dup3\n      add\n        /* \"#utility.yul\":10045:10107   */\n      mstore\n      shl(0xc1, 0x38383937bb32b217)\n        /* \"#utility.yul\":10123:10141   */\n      0x64\n      dup3\n      add\n        /* \"#utility.yul\":10116:10154   */\n      mstore\n        /* \"#utility.yul\":10171:10190   */\n      0x84\n      add\n        /* \"BlockChainElection.sol\":7110:7160  revert(\"The candidate has already been approved.\") */\n      tag_105\n        /* \"#utility.yul\":9792:10196   */\n      jump\n        /* \"BlockChainElection.sol\":6875:7172  if(!candidateEligible[_candidate_id].candiate_eligible){... */\n    tag_141:\n        /* \"BlockChainElection.sol\":2583:2584  _ */\n      pop\n      pop\n        /* \"BlockChainElection.sol\":6750:7179  function approve_or_unBan_candidate(uint _candidate_id) public onlyElectionCommission validId(_candidate_id, true){... */\n      pop\n      jump\t// out\n        /* \"BlockChainElection.sol\":8880:9924  function register_delegated_vote(uint _delegated_voter_id, uint _candidate_id) public election_in_progress validId(_candidate_id, true) validId(_delegated_voter_id, false){... */\n    tag_42:\n        /* \"BlockChainElection.sol\":3803:3819  election_started */\n      and(0xff, sload(0x06))\n        /* \"BlockChainElection.sol\":3795:3852  require(election_started, \"Election is not in progress.\") */\n      tag_145\n      jumpi\n      mload(0x40)\n      shl(0xe5, 0x461bcd)\n      dup2\n      mstore\n      0x04\n      add\n      tag_105\n      swap1\n      tag_147\n      jump\t// in\n    tag_145:\n        /* \"BlockChainElection.sol\":3872:3886  election_ended */\n      sload(0x06)\n      0x0100\n      swap1\n      div\n      0xff\n      and\n        /* \"BlockChainElection.sol\":3871:3886  !election_ended */\n      iszero\n        /* \"BlockChainElection.sol\":3863:3919  require(!election_ended, \"Election is not in progress.\") */\n      tag_148\n      jumpi\n      mload(0x40)\n      shl(0xe5, 0x461bcd)\n      dup2\n      mstore\n      0x04\n      add\n      tag_105\n      swap1\n      tag_147\n      jump\t// in\n    tag_148:\n        /* \"BlockChainElection.sol\":8995:9008  _candidate_id */\n      dup1\n        /* \"BlockChainElection.sol\":9010:9014  true */\n      0x01\n        /* \"BlockChainElection.sol\":4046:4047  0 */\n      0x00\n        /* \"BlockChainElection.sol\":4041:4043  id */\n      dup3\n        /* \"BlockChainElection.sol\":4041:4047  id > 0 */\n      gt\n        /* \"BlockChainElection.sol\":4041:4068  id > 0 && id < id_candidate */\n      dup1\n      iszero\n      tag_152\n      jumpi\n      pop\n        /* \"BlockChainElection.sol\":4056:4068  id_candidate */\n      sload(0x04)\n        /* \"BlockChainElection.sol\":4051:4053  id */\n      dup3\n        /* \"BlockChainElection.sol\":4051:4068  id < id_candidate */\n      lt\n        /* \"BlockChainElection.sol\":4041:4068  id > 0 && id < id_candidate */\n    tag_152:\n        /* \"BlockChainElection.sol\":4033:4093  require(id > 0 && id < id_candidate, \"Invalid Candidate Id\") */\n      tag_153\n      jumpi\n      mload(0x40)\n      shl(0xe5, 0x461bcd)\n      dup2\n      mstore\n      0x04\n      add\n      tag_105\n      swap1\n      tag_106\n      jump\t// in\n    tag_153:\n        /* \"BlockChainElection.sol\":9024:9043  _delegated_voter_id */\n      dup4\n        /* \"BlockChainElection.sol\":9045:9050  false */\n      0x00\n        /* \"BlockChainElection.sol\":4147:4148  0 */\n      dup1\n        /* \"BlockChainElection.sol\":4142:4144  id */\n      dup3\n        /* \"BlockChainElection.sol\":4142:4148  id > 0 */\n      gt\n        /* \"BlockChainElection.sol\":4142:4165  id > 0 && id < id_voter */\n      dup1\n      iszero\n      tag_165\n      jumpi\n      pop\n        /* \"BlockChainElection.sol\":4157:4165  id_voter */\n      sload(0x03)\n        /* \"BlockChainElection.sol\":4152:4154  id */\n      dup3\n        /* \"BlockChainElection.sol\":4152:4165  id < id_voter */\n      lt\n        /* \"BlockChainElection.sol\":4142:4165  id > 0 && id < id_voter */\n    tag_165:\n        /* \"BlockChainElection.sol\":4134:4186  require(id > 0 && id < id_voter, \"Invalid Voter Id\") */\n      tag_166\n      jumpi\n      mload(0x40)\n      shl(0xe5, 0x461bcd)\n      dup2\n      mstore\n      0x04\n      add\n      tag_105\n      swap1\n      tag_111\n      jump\t// in\n    tag_166:\n        /* \"BlockChainElection.sol\":9069:9101  candidateEligible[_candidate_id] */\n      0x00\n      dup6\n      dup2\n      mstore\n        /* \"BlockChainElection.sol\":9069:9086  candidateEligible */\n      0x0e\n        /* \"BlockChainElection.sol\":9069:9101  candidateEligible[_candidate_id] */\n      0x20\n      mstore\n      0x40\n      swap1\n      keccak256\n        /* \"BlockChainElection.sol\":9069:9119  candidateEligible[_candidate_id].candiate_eligible */\n      sload\n      0xff\n      and\n        /* \"BlockChainElection.sol\":9061:9154  require(candidateEligible[_candidate_id].candiate_eligible, \"The candidate is not eligible.\") */\n      tag_169\n      jumpi\n      mload(0x40)\n      shl(0xe5, 0x461bcd)\n      dup2\n      mstore\n        /* \"#utility.yul\":10760:10762   */\n      0x20\n        /* \"BlockChainElection.sol\":9061:9154  require(candidateEligible[_candidate_id].candiate_eligible, \"The candidate is not eligible.\") */\n      0x04\n      dup3\n      add\n        /* \"#utility.yul\":10742:10763   */\n      mstore\n        /* \"#utility.yul\":10799:10801   */\n      0x1e\n        /* \"#utility.yul\":10779:10797   */\n      0x24\n      dup3\n      add\n        /* \"#utility.yul\":10772:10802   */\n      mstore\n        /* \"#utility.yul\":10838:10870   */\n      0x5468652063616e646964617465206973206e6f7420656c696769626c652e0000\n        /* \"#utility.yul\":10818:10836   */\n      0x44\n      dup3\n      add\n        /* \"#utility.yul\":10811:10871   */\n      mstore\n        /* \"#utility.yul\":10888:10906   */\n      0x64\n      add\n        /* \"BlockChainElection.sol\":9061:9154  require(candidateEligible[_candidate_id].candiate_eligible, \"The candidate is not eligible.\") */\n      tag_105\n        /* \"#utility.yul\":10558:10912   */\n      jump\n        /* \"BlockChainElection.sol\":9061:9154  require(candidateEligible[_candidate_id].candiate_eligible, \"The candidate is not eligible.\") */\n    tag_169:\n        /* \"BlockChainElection.sol\":9165:9175  bool voted */\n      0x00\n        /* \"BlockChainElection.sol\":9198:9204  uint i */\n      dup1\n        /* \"BlockChainElection.sol\":9194:9824  for(uint i = 0; i < delegatedVotes[voterIdManager[msg.sender].id].length; i++){... */\n    tag_172:\n        /* \"BlockChainElection.sol\":9244:9254  msg.sender */\n      caller\n        /* \"BlockChainElection.sol\":9214:9259  delegatedVotes[voterIdManager[msg.sender].id] */\n      0x00\n        /* \"BlockChainElection.sol\":9229:9255  voterIdManager[msg.sender] */\n      swap1\n      dup2\n      mstore\n        /* \"BlockChainElection.sol\":9229:9243  voterIdManager */\n      0x08\n        /* \"BlockChainElection.sol\":9229:9255  voterIdManager[msg.sender] */\n      0x20\n      swap1\n      dup2\n      mstore\n      0x40\n      dup1\n      dup4\n      keccak256\n        /* \"BlockChainElection.sol\":9229:9258  voterIdManager[msg.sender].id */\n      sload\n        /* \"BlockChainElection.sol\":9214:9259  delegatedVotes[voterIdManager[msg.sender].id] */\n      dup4\n      mstore\n        /* \"BlockChainElection.sol\":9214:9228  delegatedVotes */\n      0x0f\n        /* \"BlockChainElection.sol\":9214:9259  delegatedVotes[voterIdManager[msg.sender].id] */\n      swap1\n      swap2\n      mstore\n      swap1\n      keccak256\n        /* \"BlockChainElection.sol\":9214:9266  delegatedVotes[voterIdManager[msg.sender].id].length */\n      sload\n        /* \"BlockChainElection.sol\":9210:9266  i < delegatedVotes[voterIdManager[msg.sender].id].length */\n      dup2\n      lt\n        /* \"BlockChainElection.sol\":9194:9824  for(uint i = 0; i < delegatedVotes[voterIdManager[msg.sender].id].length; i++){... */\n      iszero\n      tag_173\n      jumpi\n        /* \"BlockChainElection.sol\":9321:9331  msg.sender */\n      caller\n        /* \"BlockChainElection.sol\":9291:9336  delegatedVotes[voterIdManager[msg.sender].id] */\n      0x00\n        /* \"BlockChainElection.sol\":9306:9332  voterIdManager[msg.sender] */\n      swap1\n      dup2\n      mstore\n        /* \"BlockChainElection.sol\":9306:9320  voterIdManager */\n      0x08\n        /* \"BlockChainElection.sol\":9306:9332  voterIdManager[msg.sender] */\n      0x20\n      swap1\n      dup2\n      mstore\n      0x40\n      dup1\n      dup4\n      keccak256\n        /* \"BlockChainElection.sol\":9306:9335  voterIdManager[msg.sender].id */\n      sload\n        /* \"BlockChainElection.sol\":9291:9336  delegatedVotes[voterIdManager[msg.sender].id] */\n      dup4\n      mstore\n        /* \"BlockChainElection.sol\":9291:9305  delegatedVotes */\n      0x0f\n        /* \"BlockChainElection.sol\":9291:9336  delegatedVotes[voterIdManager[msg.sender].id] */\n      swap1\n      swap2\n      mstore\n      swap1\n      keccak256\n        /* \"BlockChainElection.sol\":9291:9339  delegatedVotes[voterIdManager[msg.sender].id][i] */\n      dup1\n      sload\n        /* \"BlockChainElection.sol\":9362:9381  _delegated_voter_id */\n      dup10\n      swap2\n        /* \"BlockChainElection.sol\":9291:9336  delegatedVotes[voterIdManager[msg.sender].id] */\n      swap1\n        /* \"BlockChainElection.sol\":9337:9338  i */\n      dup4\n      swap1\n        /* \"BlockChainElection.sol\":9291:9339  delegatedVotes[voterIdManager[msg.sender].id][i] */\n      dup2\n      lt\n      tag_176\n      jumpi\n      tag_176\n      tag_177\n      jump\t// in\n    tag_176:\n      swap1\n      0x00\n      mstore\n      keccak256(0x00, 0x20)\n      swap1\n      0x02\n      mul\n      add\n        /* \"BlockChainElection.sol\":9291:9358  delegatedVotes[voterIdManager[msg.sender].id][i].delegated_voter_id */\n      0x00\n      add\n      sload\n        /* \"BlockChainElection.sol\":9291:9381  delegatedVotes[voterIdManager[msg.sender].id][i].delegated_voter_id == _delegated_voter_id */\n      eq\n        /* \"BlockChainElection.sol\":9290:9471  (delegatedVotes[voterIdManager[msg.sender].id][i].delegated_voter_id == _delegated_voter_id) && ... */\n      dup1\n      iszero\n      tag_179\n      jumpi\n      pop\n        /* \"BlockChainElection.sol\":9435:9445  msg.sender */\n      caller\n        /* \"BlockChainElection.sol\":9405:9450  delegatedVotes[voterIdManager[msg.sender].id] */\n      0x00\n        /* \"BlockChainElection.sol\":9420:9446  voterIdManager[msg.sender] */\n      swap1\n      dup2\n      mstore\n        /* \"BlockChainElection.sol\":9420:9434  voterIdManager */\n      0x08\n        /* \"BlockChainElection.sol\":9420:9446  voterIdManager[msg.sender] */\n      0x20\n      swap1\n      dup2\n      mstore\n      0x40\n      dup1\n      dup4\n      keccak256\n        /* \"BlockChainElection.sol\":9420:9449  voterIdManager[msg.sender].id */\n      sload\n        /* \"BlockChainElection.sol\":9405:9450  delegatedVotes[voterIdManager[msg.sender].id] */\n      dup4\n      mstore\n        /* \"BlockChainElection.sol\":9405:9419  delegatedVotes */\n      0x0f\n        /* \"BlockChainElection.sol\":9405:9450  delegatedVotes[voterIdManager[msg.sender].id] */\n      swap1\n      swap2\n      mstore\n      swap1\n      keccak256\n        /* \"BlockChainElection.sol\":9405:9453  delegatedVotes[voterIdManager[msg.sender].id][i] */\n      dup1\n      sload\n        /* \"BlockChainElection.sol\":9451:9452  i */\n      dup3\n      swap1\n        /* \"BlockChainElection.sol\":9405:9453  delegatedVotes[voterIdManager[msg.sender].id][i] */\n      dup2\n      lt\n      tag_181\n      jumpi\n      tag_181\n      tag_177\n      jump\t// in\n    tag_181:\n      0x00\n      swap2\n      dup3\n      mstore\n      0x20\n      swap1\n      swap2\n      keccak256\n        /* \"BlockChainElection.sol\":9405:9462  delegatedVotes[voterIdManager[msg.sender].id][i].can_vote */\n      0x01\n        /* \"BlockChainElection.sol\":9405:9453  delegatedVotes[voterIdManager[msg.sender].id][i] */\n      0x02\n      swap1\n      swap3\n      mul\n      add\n        /* \"BlockChainElection.sol\":9405:9462  delegatedVotes[voterIdManager[msg.sender].id][i].can_vote */\n      dup2\n      add\n      sload\n      0xff\n      0x0100\n      swap1\n      swap2\n      div\n      and\n        /* \"BlockChainElection.sol\":9405:9470  delegatedVotes[voterIdManager[msg.sender].id][i].can_vote == true */\n      iszero\n      iszero\n      eq\n        /* \"BlockChainElection.sol\":9290:9471  (delegatedVotes[voterIdManager[msg.sender].id][i].delegated_voter_id == _delegated_voter_id) && ... */\n    tag_179:\n        /* \"BlockChainElection.sol\":9287:9813  if((delegatedVotes[voterIdManager[msg.sender].id][i].delegated_voter_id == _delegated_voter_id) && ... */\n      iszero\n      tag_183\n      jumpi\n        /* \"BlockChainElection.sol\":9495:9517  results[_candidate_id] */\n      0x00\n      dup8\n      dup2\n      mstore\n        /* \"BlockChainElection.sol\":9495:9502  results */\n      0x0c\n        /* \"BlockChainElection.sol\":9495:9517  results[_candidate_id] */\n      0x20\n      mstore\n      0x40\n      dup2\n      keccak256\n        /* \"BlockChainElection.sol\":9495:9528  results[_candidate_id].vote_count */\n      0x01\n      add\n        /* \"BlockChainElection.sol\":9495:9530  results[_candidate_id].vote_count++ */\n      dup1\n      sload\n      swap2\n      tag_184\n      dup4\n      tag_139\n      jump\t// in\n    tag_184:\n      swap1\n      swap2\n      sstore\n      pop\n      pop\n        /* \"BlockChainElection.sol\":9553:9564  total_votes */\n      0x05\n        /* \"BlockChainElection.sol\":9553:9566  total_votes++ */\n      dup1\n      sload\n      swap1\n        /* \"BlockChainElection.sol\":9553:9564  total_votes */\n      0x00\n        /* \"BlockChainElection.sol\":9553:9566  total_votes++ */\n      tag_185\n      dup4\n      tag_139\n      jump\t// in\n    tag_185:\n      swap1\n      swap2\n      sstore\n      pop\n      pop\n        /* \"BlockChainElection.sol\":9619:9629  msg.sender */\n      caller\n        /* \"BlockChainElection.sol\":9649:9654  false */\n      0x00\n        /* \"BlockChainElection.sol\":9604:9630  voterIdManager[msg.sender] */\n      swap1\n      dup2\n      mstore\n        /* \"BlockChainElection.sol\":9604:9618  voterIdManager */\n      0x08\n        /* \"BlockChainElection.sol\":9604:9630  voterIdManager[msg.sender] */\n      0x20\n      swap1\n      dup2\n      mstore\n      0x40\n      dup1\n      dup4\n      keccak256\n        /* \"BlockChainElection.sol\":9604:9633  voterIdManager[msg.sender].id */\n      sload\n        /* \"BlockChainElection.sol\":9589:9634  delegatedVotes[voterIdManager[msg.sender].id] */\n      dup4\n      mstore\n        /* \"BlockChainElection.sol\":9589:9603  delegatedVotes */\n      0x0f\n        /* \"BlockChainElection.sol\":9589:9634  delegatedVotes[voterIdManager[msg.sender].id] */\n      swap1\n      swap2\n      mstore\n      dup2\n      keccak256\n        /* \"BlockChainElection.sol\":9589:9637  delegatedVotes[voterIdManager[msg.sender].id][i] */\n      dup1\n      sload\n        /* \"BlockChainElection.sol\":9635:9636  i */\n      dup4\n      swap1\n        /* \"BlockChainElection.sol\":9589:9637  delegatedVotes[voterIdManager[msg.sender].id][i] */\n      dup2\n      lt\n      tag_187\n      jumpi\n      tag_187\n      tag_177\n      jump\t// in\n    tag_187:\n      0x00\n      swap2\n      dup3\n      mstore\n      0x20\n      dup1\n      dup4\n      keccak256\n        /* \"BlockChainElection.sol\":9589:9646  delegatedVotes[voterIdManager[msg.sender].id][i].can_vote */\n      0x01\n        /* \"BlockChainElection.sol\":9589:9637  delegatedVotes[voterIdManager[msg.sender].id][i] */\n      0x02\n      swap1\n      swap4\n      mul\n      add\n        /* \"BlockChainElection.sol\":9589:9646  delegatedVotes[voterIdManager[msg.sender].id][i].can_vote */\n      dup3\n      add\n        /* \"BlockChainElection.sol\":9589:9654  delegatedVotes[voterIdManager[msg.sender].id][i].can_vote = false */\n      dup1\n      sload\n      swap5\n      iszero\n      iszero\n      0x0100\n      mul\n      not(0xff00)\n      swap1\n      swap6\n      and\n      swap5\n      swap1\n      swap5\n      or\n      swap1\n      swap4\n      sstore\n        /* \"BlockChainElection.sol\":9745:9769  Vote_List(_candidate_id) */\n      0x40\n      dup1\n      mload\n      dup1\n      dup6\n      add\n      dup3\n      mstore\n      dup12\n      dup2\n      mstore\n        /* \"BlockChainElection.sol\":9712:9742  vote_list[_delegated_voter_id] */\n      dup13\n      dup5\n      mstore\n        /* \"BlockChainElection.sol\":9712:9721  vote_list */\n      0x10\n        /* \"BlockChainElection.sol\":9712:9742  vote_list[_delegated_voter_id] */\n      swap1\n      swap5\n      mstore\n      swap1\n      swap2\n      keccak256\n        /* \"BlockChainElection.sol\":9712:9769  vote_list[_delegated_voter_id] = Vote_List(_candidate_id) */\n      swap2\n      mload\n      swap1\n      swap2\n      sstore\n        /* \"BlockChainElection.sol\":9589:9646  delegatedVotes[voterIdManager[msg.sender].id][i].can_vote */\n      swap2\n      pop\n        /* \"BlockChainElection.sol\":9792:9797  break */\n      jump(tag_173)\n        /* \"BlockChainElection.sol\":9287:9813  if((delegatedVotes[voterIdManager[msg.sender].id][i].delegated_voter_id == _delegated_voter_id) && ... */\n    tag_183:\n        /* \"BlockChainElection.sol\":9268:9271  i++ */\n      dup1\n      tag_189\n      dup2\n      tag_139\n      jump\t// in\n    tag_189:\n      swap2\n      pop\n      pop\n        /* \"BlockChainElection.sol\":9194:9824  for(uint i = 0; i < delegatedVotes[voterIdManager[msg.sender].id].length; i++){... */\n      jump(tag_172)\n    tag_173:\n      pop\n        /* \"BlockChainElection.sol\":9838:9843  voted */\n      dup1\n        /* \"BlockChainElection.sol\":9834:9917  if(!voted){... */\n      tag_190\n      jumpi\n        /* \"BlockChainElection.sol\":9859:9905  revert(\"You are not delegated by this person\") */\n      mload(0x40)\n      shl(0xe5, 0x461bcd)\n      dup2\n      mstore\n        /* \"#utility.yul\":11251:11253   */\n      0x20\n        /* \"BlockChainElection.sol\":9859:9905  revert(\"You are not delegated by this person\") */\n      0x04\n      dup3\n      add\n        /* \"#utility.yul\":11233:11254   */\n      mstore\n        /* \"#utility.yul\":11290:11292   */\n      0x24\n        /* \"#utility.yul\":11270:11288   */\n      dup1\n      dup3\n      add\n        /* \"#utility.yul\":11263:11293   */\n      mstore\n        /* \"#utility.yul\":11329:11363   */\n      0x596f7520617265206e6f742064656c6567617465642062792074686973207065\n        /* \"#utility.yul\":11309:11327   */\n      0x44\n      dup3\n      add\n        /* \"#utility.yul\":11302:11364   */\n      mstore\n      shl(0xe1, 0x3939b7b7)\n        /* \"#utility.yul\":11380:11398   */\n      0x64\n      dup3\n      add\n        /* \"#utility.yul\":11373:11407   */\n      mstore\n        /* \"#utility.yul\":11424:11443   */\n      0x84\n      add\n        /* \"BlockChainElection.sol\":9859:9905  revert(\"You are not delegated by this person\") */\n      tag_105\n        /* \"#utility.yul\":11049:11449   */\n      jump\n        /* \"BlockChainElection.sol\":9834:9917  if(!voted){... */\n    tag_190:\n        /* \"BlockChainElection.sol\":9051:9924  {... */\n      pop\n        /* \"BlockChainElection.sol\":4208:4209  _ */\n      pop\n      pop\n        /* \"BlockChainElection.sol\":3930:3931  _ */\n      pop\n      pop\n        /* \"BlockChainElection.sol\":8880:9924  function register_delegated_vote(uint _delegated_voter_id, uint _candidate_id) public election_in_progress validId(_candidate_id, true) validId(_delegated_voter_id, false){... */\n      pop\n      pop\n      jump\t// out\n        /* \"BlockChainElection.sol\":10393:10521  function get_voters_list() public view onlyElectionCommission returns (Voters_List[] memory){... */\n    tag_44:\n        /* \"BlockChainElection.sol\":2529:2548  election_commission */\n      sload(0x02)\n        /* \"BlockChainElection.sol\":10464:10484  Voters_List[] memory */\n      0x60\n      swap1\n      sub(shl(0xa0, 0x01), 0x01)\n        /* \"BlockChainElection.sol\":2529:2548  election_commission */\n      and\n        /* \"BlockChainElection.sol\":2515:2525  msg.sender */\n      caller\n        /* \"BlockChainElection.sol\":2515:2548  msg.sender == election_commission */\n      eq\n        /* \"BlockChainElection.sol\":2507:2572  require(msg.sender == election_commission, \"Unauthorized access\") */\n      tag_194\n      jumpi\n      mload(0x40)\n      shl(0xe5, 0x461bcd)\n      dup2\n      mstore\n      0x04\n      add\n      tag_105\n      swap1\n      tag_126\n      jump\t// in\n    tag_194:\n        /* \"BlockChainElection.sol\":10503:10513  votersList */\n      0x12\n        /* \"BlockChainElection.sol\":10496:10513  return votersList */\n      dup1\n      sload\n      dup1\n      0x20\n      mul\n      0x20\n      add\n      mload(0x40)\n      swap1\n      dup2\n      add\n      0x40\n      mstore\n      dup1\n      swap3\n      swap2\n      swap1\n      dup2\n      dup2\n      mstore\n      0x20\n      add\n      0x00\n      swap1\n    tag_197:\n      dup3\n      dup3\n      lt\n      iszero\n      tag_198\n      jumpi\n      dup4\n      dup3\n      swap1\n      0x00\n      mstore\n      keccak256(0x00, 0x20)\n      swap1\n      0x05\n      mul\n      add\n      mload(0x40)\n      dup1\n      0xa0\n      add\n      0x40\n      mstore\n      swap1\n      dup2\n      0x00\n      dup3\n      add\n      sload\n      dup2\n      mstore\n      0x20\n      add\n      0x01\n      dup3\n      add\n      dup1\n      sload\n      tag_200\n      swap1\n      tag_201\n      jump\t// in\n    tag_200:\n      dup1\n      0x1f\n      add\n      0x20\n      dup1\n      swap2\n      div\n      mul\n      0x20\n      add\n      mload(0x40)\n      swap1\n      dup2\n      add\n      0x40\n      mstore\n      dup1\n      swap3\n      swap2\n      swap1\n      dup2\n      dup2\n      mstore\n      0x20\n      add\n      dup3\n      dup1\n      sload\n      tag_202\n      swap1\n      tag_201\n      jump\t// in\n    tag_202:\n      dup1\n      iszero\n      tag_203\n      jumpi\n      dup1\n      0x1f\n      lt\n      tag_204\n      jumpi\n      0x0100\n      dup1\n      dup4\n      sload\n      div\n      mul\n      dup4\n      mstore\n      swap2\n      0x20\n      add\n      swap2\n      jump(tag_203)\n    tag_204:\n      dup3\n      add\n      swap2\n      swap1\n      0x00\n      mstore\n      keccak256(0x00, 0x20)\n      swap1\n    tag_205:\n      dup2\n      sload\n      dup2\n      mstore\n      swap1\n      0x01\n      add\n      swap1\n      0x20\n      add\n      dup1\n      dup4\n      gt\n      tag_205\n      jumpi\n      dup3\n      swap1\n      sub\n      0x1f\n      and\n      dup3\n      add\n      swap2\n    tag_203:\n      pop\n      pop\n      pop\n      pop\n      pop\n      dup2\n      mstore\n      0x20\n      add\n      0x02\n      dup3\n      add\n      dup1\n      sload\n      tag_206\n      swap1\n      tag_201\n      jump\t// in\n    tag_206:\n      dup1\n      0x1f\n      add\n      0x20\n      dup1\n      swap2\n      div\n      mul\n      0x20\n      add\n      mload(0x40)\n      swap1\n      dup2\n      add\n      0x40\n      mstore\n      dup1\n      swap3\n      swap2\n      swap1\n      dup2\n      dup2\n      mstore\n      0x20\n      add\n      dup3\n      dup1\n      sload\n      tag_207\n      swap1\n      tag_201\n      jump\t// in\n    tag_207:\n      dup1\n      iszero\n      tag_208\n      jumpi\n      dup1\n      0x1f\n      lt\n      tag_209\n      jumpi\n      0x0100\n      dup1\n      dup4\n      sload\n      div\n      mul\n      dup4\n      mstore\n      swap2\n      0x20\n      add\n      swap2\n      jump(tag_208)\n    tag_209:\n      dup3\n      add\n      swap2\n      swap1\n      0x00\n      mstore\n      keccak256(0x00, 0x20)\n      swap1\n    tag_210:\n      dup2\n      sload\n      dup2\n      mstore\n      swap1\n      0x01\n      add\n      swap1\n      0x20\n      add\n      dup1\n      dup4\n      gt\n      tag_210\n      jumpi\n      dup3\n      swap1\n      sub\n      0x1f\n      and\n      dup3\n      add\n      swap2\n    tag_208:\n      pop\n      pop\n      pop\n      swap2\n      dup4\n      mstore\n      pop\n      pop\n      0x03\n      dup3\n      add\n      sload\n      0xff\n      and\n      0x20\n      dup3\n      add\n      mstore\n      0x04\n      dup3\n      add\n      dup1\n      sload\n      0x40\n      swap1\n      swap3\n      add\n      swap2\n      tag_211\n      swap1\n      tag_201\n      jump\t// in\n    tag_211:\n      dup1\n      0x1f\n      add\n      0x20\n      dup1\n      swap2\n      div\n      mul\n      0x20\n      add\n      mload(0x40)\n      swap1\n      dup2\n      add\n      0x40\n      mstore\n      dup1\n      swap3\n      swap2\n      swap1\n      dup2\n      dup2\n      mstore\n      0x20\n      add\n      dup3\n      dup1\n      sload\n      tag_212\n      swap1\n      tag_201\n      jump\t// in\n    tag_212:\n      dup1\n      iszero\n      tag_213\n      jumpi\n      dup1\n      0x1f\n      lt\n      tag_214\n      jumpi\n      0x0100\n      dup1\n      dup4\n      sload\n      div\n      mul\n      dup4\n      mstore\n      swap2\n      0x20\n      add\n      swap2\n      jump(tag_213)\n    tag_214:\n      dup3\n      add\n      swap2\n      swap1\n      0x00\n      mstore\n      keccak256(0x00, 0x20)\n      swap1\n    tag_215:\n      dup2\n      sload\n      dup2\n      mstore\n      swap1\n      0x01\n      add\n      swap1\n      0x20\n      add\n      dup1\n      dup4\n      gt\n      tag_215\n      jumpi\n      dup3\n      swap1\n      sub\n      0x1f\n      and\n      dup3\n      add\n      swap2\n    tag_213:\n      pop\n      pop\n      pop\n      pop\n      pop\n      dup2\n      mstore\n      pop\n      pop\n      dup2\n      mstore\n      0x20\n      add\n      swap1\n      0x01\n      add\n      swap1\n      jump(tag_197)\n    tag_198:\n      pop\n      pop\n      pop\n      pop\n      swap1\n      pop\n        /* \"BlockChainElection.sol\":10393:10521  function get_voters_list() public view onlyElectionCommission returns (Voters_List[] memory){... */\n      swap1\n      jump\t// out\n        /* \"BlockChainElection.sol\":8427:8872  function registerVote(uint _candidate_id) public votePolling(_candidate_id) election_in_progress{... */\n    tag_49:\n        /* \"BlockChainElection.sol\":2976:2992  election_started */\n      sload(0x06)\n        /* \"BlockChainElection.sol\":8488:8501  _candidate_id */\n      dup2\n      swap1\n        /* \"BlockChainElection.sol\":2976:2992  election_started */\n      0xff\n      and\n        /* \"BlockChainElection.sol\":2968:3025  require(election_started, \"Election is not in progress.\") */\n      tag_217\n      jumpi\n      mload(0x40)\n      shl(0xe5, 0x461bcd)\n      dup2\n      mstore\n      0x04\n      add\n      tag_105\n      swap1\n      tag_147\n      jump\t// in\n    tag_217:\n        /* \"BlockChainElection.sol\":3045:3059  election_ended */\n      sload(0x06)\n      0x0100\n      swap1\n      div\n      0xff\n      and\n        /* \"BlockChainElection.sol\":3044:3059  !election_ended */\n      iszero\n        /* \"BlockChainElection.sol\":3036:3092  require(!election_ended, \"Election is not in progress.\") */\n      tag_219\n      jumpi\n      mload(0x40)\n      shl(0xe5, 0x461bcd)\n      dup2\n      mstore\n      0x04\n      add\n      tag_105\n      swap1\n      tag_147\n      jump\t// in\n    tag_219:\n        /* \"BlockChainElection.sol\":3126:3136  msg.sender */\n      caller\n        /* \"BlockChainElection.sol\":3111:3137  voterIdManager[msg.sender] */\n      0x00\n      swap1\n      dup2\n      mstore\n        /* \"BlockChainElection.sol\":3111:3125  voterIdManager */\n      0x08\n        /* \"BlockChainElection.sol\":3111:3137  voterIdManager[msg.sender] */\n      0x20\n      mstore\n      0x40\n      dup2\n      keccak256\n        /* \"BlockChainElection.sol\":3111:3140  voterIdManager[msg.sender].id */\n      sload\n        /* \"BlockChainElection.sol\":3111:3145  voterIdManager[msg.sender].id != 0 */\n      swap1\n      sub\n        /* \"BlockChainElection.sol\":3103:3179  require(voterIdManager[msg.sender].id != 0, \"You are not eligible to vote.\") */\n      tag_221\n      jumpi\n      mload(0x40)\n      shl(0xe5, 0x461bcd)\n      dup2\n      mstore\n        /* \"#utility.yul\":12041:12043   */\n      0x20\n        /* \"BlockChainElection.sol\":3103:3179  require(voterIdManager[msg.sender].id != 0, \"You are not eligible to vote.\") */\n      0x04\n      dup3\n      add\n        /* \"#utility.yul\":12023:12044   */\n      mstore\n        /* \"#utility.yul\":12080:12082   */\n      0x1d\n        /* \"#utility.yul\":12060:12078   */\n      0x24\n      dup3\n      add\n        /* \"#utility.yul\":12053:12083   */\n      mstore\n        /* \"#utility.yul\":12119:12150   */\n      0x596f7520617265206e6f7420656c696769626c6520746f20766f74652e000000\n        /* \"#utility.yul\":12099:12117   */\n      0x44\n      dup3\n      add\n        /* \"#utility.yul\":12092:12151   */\n      mstore\n        /* \"#utility.yul\":12168:12186   */\n      0x64\n      add\n        /* \"BlockChainElection.sol\":3103:3179  require(voterIdManager[msg.sender].id != 0, \"You are not eligible to vote.\") */\n      tag_105\n        /* \"#utility.yul\":11839:12192   */\n      jump\n        /* \"BlockChainElection.sol\":3103:3179  require(voterIdManager[msg.sender].id != 0, \"You are not eligible to vote.\") */\n    tag_221:\n        /* \"BlockChainElection.sol\":3208:3218  msg.sender */\n      caller\n        /* \"BlockChainElection.sol\":3199:3219  is_voted[msg.sender] */\n      0x00\n      swap1\n      dup2\n      mstore\n        /* \"BlockChainElection.sol\":3199:3207  is_voted */\n      0x0b\n        /* \"BlockChainElection.sol\":3199:3219  is_voted[msg.sender] */\n      0x20\n      mstore\n      0x40\n      swap1\n      keccak256\n        /* \"BlockChainElection.sol\":3199:3225  is_voted[msg.sender].voted */\n      sload\n      0xff\n      and\n        /* \"BlockChainElection.sol\":3198:3225  !is_voted[msg.sender].voted */\n      iszero\n        /* \"BlockChainElection.sol\":3190:3253  require(!is_voted[msg.sender].voted, \"You have already voted.\") */\n      tag_224\n      jumpi\n      mload(0x40)\n      shl(0xe5, 0x461bcd)\n      dup2\n      mstore\n        /* \"#utility.yul\":12399:12401   */\n      0x20\n        /* \"BlockChainElection.sol\":3190:3253  require(!is_voted[msg.sender].voted, \"You have already voted.\") */\n      0x04\n      dup3\n      add\n        /* \"#utility.yul\":12381:12402   */\n      mstore\n        /* \"#utility.yul\":12438:12440   */\n      0x17\n        /* \"#utility.yul\":12418:12436   */\n      0x24\n      dup3\n      add\n        /* \"#utility.yul\":12411:12441   */\n      mstore\n        /* \"#utility.yul\":12477:12502   */\n      0x596f75206861766520616c726561647920766f7465642e000000000000000000\n        /* \"#utility.yul\":12457:12475   */\n      0x44\n      dup3\n      add\n        /* \"#utility.yul\":12450:12503   */\n      mstore\n        /* \"#utility.yul\":12520:12538   */\n      0x64\n      add\n        /* \"BlockChainElection.sol\":3190:3253  require(!is_voted[msg.sender].voted, \"You have already voted.\") */\n      tag_105\n        /* \"#utility.yul\":12197:12544   */\n      jump\n        /* \"BlockChainElection.sol\":3190:3253  require(!is_voted[msg.sender].voted, \"You have already voted.\") */\n    tag_224:\n        /* \"BlockChainElection.sol\":3272:3304  candidateEligible[_candidate_id] */\n      0x00\n      dup2\n      dup2\n      mstore\n        /* \"BlockChainElection.sol\":3272:3289  candidateEligible */\n      0x0e\n        /* \"BlockChainElection.sol\":3272:3304  candidateEligible[_candidate_id] */\n      0x20\n      mstore\n      0x40\n      swap1\n      keccak256\n        /* \"BlockChainElection.sol\":3272:3322  candidateEligible[_candidate_id].candiate_eligible */\n      sload\n      0xff\n      and\n        /* \"BlockChainElection.sol\":3264:3357  require(candidateEligible[_candidate_id].candiate_eligible, \"The candidate is not eligible.\") */\n      tag_227\n      jumpi\n      mload(0x40)\n      shl(0xe5, 0x461bcd)\n      dup2\n      mstore\n        /* \"#utility.yul\":10760:10762   */\n      0x20\n        /* \"BlockChainElection.sol\":3264:3357  require(candidateEligible[_candidate_id].candiate_eligible, \"The candidate is not eligible.\") */\n      0x04\n      dup3\n      add\n        /* \"#utility.yul\":10742:10763   */\n      mstore\n        /* \"#utility.yul\":10799:10801   */\n      0x1e\n        /* \"#utility.yul\":10779:10797   */\n      0x24\n      dup3\n      add\n        /* \"#utility.yul\":10772:10802   */\n      mstore\n        /* \"#utility.yul\":10838:10870   */\n      0x5468652063616e646964617465206973206e6f7420656c696769626c652e0000\n        /* \"#utility.yul\":10818:10836   */\n      0x44\n      dup3\n      add\n        /* \"#utility.yul\":10811:10871   */\n      mstore\n        /* \"#utility.yul\":10888:10906   */\n      0x64\n      add\n        /* \"BlockChainElection.sol\":3264:3357  require(candidateEligible[_candidate_id].candiate_eligible, \"The candidate is not eligible.\") */\n      tag_105\n        /* \"#utility.yul\":10558:10912   */\n      jump\n        /* \"BlockChainElection.sol\":3264:3357  require(candidateEligible[_candidate_id].candiate_eligible, \"The candidate is not eligible.\") */\n    tag_227:\n        /* \"BlockChainElection.sol\":3803:3819  election_started */\n      and(0xff, sload(0x06))\n        /* \"BlockChainElection.sol\":3795:3852  require(election_started, \"Election is not in progress.\") */\n      tag_230\n      jumpi\n      mload(0x40)\n      shl(0xe5, 0x461bcd)\n      dup2\n      mstore\n      0x04\n      add\n      tag_105\n      swap1\n      tag_147\n      jump\t// in\n    tag_230:\n        /* \"BlockChainElection.sol\":3872:3886  election_ended */\n      sload(0x06)\n      0x0100\n      swap1\n      div\n      0xff\n      and\n        /* \"BlockChainElection.sol\":3871:3886  !election_ended */\n      iszero\n        /* \"BlockChainElection.sol\":3863:3919  require(!election_ended, \"Election is not in progress.\") */\n      tag_232\n      jumpi\n      mload(0x40)\n      shl(0xe5, 0x461bcd)\n      dup2\n      mstore\n      0x04\n      add\n      tag_105\n      swap1\n      tag_147\n      jump\t// in\n    tag_232:\n        /* \"BlockChainElection.sol\":8571:8581  msg.sender */\n      caller\n        /* \"BlockChainElection.sol\":8542:8586  voterEligible[voterIdManager[msg.sender].id] */\n      0x00\n        /* \"BlockChainElection.sol\":8556:8582  voterIdManager[msg.sender] */\n      swap1\n      dup2\n      mstore\n        /* \"BlockChainElection.sol\":8556:8570  voterIdManager */\n      0x08\n        /* \"BlockChainElection.sol\":8556:8582  voterIdManager[msg.sender] */\n      0x20\n      swap1\n      dup2\n      mstore\n      0x40\n      dup1\n      dup4\n      keccak256\n        /* \"BlockChainElection.sol\":8556:8585  voterIdManager[msg.sender].id */\n      sload\n        /* \"BlockChainElection.sol\":8542:8586  voterEligible[voterIdManager[msg.sender].id] */\n      dup4\n      mstore\n        /* \"BlockChainElection.sol\":8542:8555  voterEligible */\n      0x0d\n        /* \"BlockChainElection.sol\":8542:8586  voterEligible[voterIdManager[msg.sender].id] */\n      swap1\n      swap2\n      mstore\n      swap1\n      keccak256\n        /* \"BlockChainElection.sol\":8542:8601  voterEligible[voterIdManager[msg.sender].id].voter_eligible */\n      sload\n      0xff\n      and\n        /* \"BlockChainElection.sol\":8534:8672  require(voterEligible[voterIdManager[msg.sender].id].voter_eligible, \"You are not authorized to vote. Please contact Election Commission\") */\n      tag_235\n      jumpi\n      mload(0x40)\n      shl(0xe5, 0x461bcd)\n      dup2\n      mstore\n        /* \"#utility.yul\":12751:12753   */\n      0x20\n        /* \"BlockChainElection.sol\":8534:8672  require(voterEligible[voterIdManager[msg.sender].id].voter_eligible, \"You are not authorized to vote. Please contact Election Commission\") */\n      0x04\n      dup3\n      add\n        /* \"#utility.yul\":12733:12754   */\n      mstore\n        /* \"#utility.yul\":12790:12792   */\n      0x42\n        /* \"#utility.yul\":12770:12788   */\n      0x24\n      dup3\n      add\n        /* \"#utility.yul\":12763:12793   */\n      mstore\n        /* \"#utility.yul\":12829:12863   */\n      0x596f7520617265206e6f7420617574686f72697a656420746f20766f74652e20\n        /* \"#utility.yul\":12809:12827   */\n      0x44\n      dup3\n      add\n        /* \"#utility.yul\":12802:12864   */\n      mstore\n        /* \"#utility.yul\":12900:12934   */\n      0x506c6561736520636f6e7461637420456c656374696f6e20436f6d6d69737369\n        /* \"#utility.yul\":12880:12898   */\n      0x64\n      dup3\n      add\n        /* \"#utility.yul\":12873:12935   */\n      mstore\n      shl(0xf1, 0x37b7)\n        /* \"#utility.yul\":12951:12970   */\n      0x84\n      dup3\n      add\n        /* \"#utility.yul\":12944:12977   */\n      mstore\n        /* \"#utility.yul\":12994:13013   */\n      0xa4\n      add\n        /* \"BlockChainElection.sol\":8534:8672  require(voterEligible[voterIdManager[msg.sender].id].voter_eligible, \"You are not authorized to vote. Please contact Election Commission\") */\n      tag_105\n        /* \"#utility.yul\":12549:13019   */\n      jump\n        /* \"BlockChainElection.sol\":8534:8672  require(voterEligible[voterIdManager[msg.sender].id].voter_eligible, \"You are not authorized to vote. Please contact Election Commission\") */\n    tag_235:\n        /* \"BlockChainElection.sol\":8683:8705  results[_candidate_id] */\n      0x00\n      dup3\n      dup2\n      mstore\n        /* \"BlockChainElection.sol\":8683:8690  results */\n      0x0c\n        /* \"BlockChainElection.sol\":8683:8705  results[_candidate_id] */\n      0x20\n      mstore\n      0x40\n      dup2\n      keccak256\n        /* \"BlockChainElection.sol\":8683:8716  results[_candidate_id].vote_count */\n      0x01\n      add\n        /* \"BlockChainElection.sol\":8683:8718  results[_candidate_id].vote_count++ */\n      dup1\n      sload\n      swap2\n      tag_238\n      dup4\n      tag_139\n      jump\t// in\n    tag_238:\n      swap1\n      swap2\n      sstore\n      pop\n      pop\n        /* \"BlockChainElection.sol\":8729:8740  total_votes */\n      0x05\n        /* \"BlockChainElection.sol\":8729:8742  total_votes++ */\n      dup1\n      sload\n      swap1\n        /* \"BlockChainElection.sol\":8729:8740  total_votes */\n      0x00\n        /* \"BlockChainElection.sol\":8729:8742  total_votes++ */\n      tag_239\n      dup4\n      tag_139\n      jump\t// in\n    tag_239:\n      swap1\n      swap2\n      sstore\n      pop\n      pop\n        /* \"BlockChainElection.sol\":8796:8820  Vote_List(_candidate_id) */\n      0x40\n      dup1\n      mload\n      0x20\n      dup1\n      dup3\n      add\n      dup4\n      mstore\n      swap4\n      dup2\n      mstore\n        /* \"BlockChainElection.sol\":8778:8788  msg.sender */\n      caller\n      0x00\n        /* \"BlockChainElection.sol\":8763:8789  voterIdManager[msg.sender] */\n      dup2\n      dup2\n      mstore\n        /* \"BlockChainElection.sol\":8763:8777  voterIdManager */\n      0x08\n        /* \"BlockChainElection.sol\":8763:8789  voterIdManager[msg.sender] */\n      dup7\n      mstore\n      dup4\n      dup2\n      keccak256\n        /* \"BlockChainElection.sol\":8763:8792  voterIdManager[msg.sender].id */\n      sload\n        /* \"BlockChainElection.sol\":8753:8793  vote_list[voterIdManager[msg.sender].id] */\n      dup2\n      mstore\n        /* \"BlockChainElection.sol\":8753:8762  vote_list */\n      0x10\n        /* \"BlockChainElection.sol\":8753:8793  vote_list[voterIdManager[msg.sender].id] */\n      dup7\n      mstore\n      dup4\n      dup2\n      keccak256\n        /* \"BlockChainElection.sol\":8753:8820  vote_list[voterIdManager[msg.sender].id] = Vote_List(_candidate_id) */\n      swap3\n      mload\n      swap1\n      swap3\n      sstore\n        /* \"BlockChainElection.sol\":8831:8851  is_voted[msg.sender] */\n      dup2\n      mstore\n        /* \"BlockChainElection.sol\":8831:8839  is_voted */\n      0x0b\n        /* \"BlockChainElection.sol\":8831:8851  is_voted[msg.sender] */\n      swap1\n      swap4\n      mstore\n      swap1\n      swap2\n      keccak256\n        /* \"BlockChainElection.sol\":8831:8864  is_voted[msg.sender].voted = true */\n      dup1\n      sload\n      not(0xff)\n      and\n        /* \"BlockChainElection.sol\":8860:8864  true */\n      0x01\n        /* \"BlockChainElection.sol\":8831:8864  is_voted[msg.sender].voted = true */\n      or\n      swap1\n      sstore\n      pop\n        /* \"BlockChainElection.sol\":8427:8872  function registerVote(uint _candidate_id) public votePolling(_candidate_id) election_in_progress{... */\n      jump\t// out\n        /* \"BlockChainElection.sol\":5957:6742  function register_candidate(string memory _candidate_name, string memory _candidate_address, string memory _candidate_age, string memory _candidate_promise) public OneTimeRegistrationCandidate{... */\n    tag_53:\n        /* \"BlockChainElection.sol\":2828:2838  msg.sender */\n      caller\n        /* \"BlockChainElection.sol\":2809:2839  candidateIdManager[msg.sender] */\n      0x00\n      swap1\n      dup2\n      mstore\n        /* \"BlockChainElection.sol\":2809:2827  candidateIdManager */\n      0x0a\n        /* \"BlockChainElection.sol\":2809:2839  candidateIdManager[msg.sender] */\n      0x20\n      mstore\n      0x40\n      swap1\n      keccak256\n        /* \"BlockChainElection.sol\":2809:2842  candidateIdManager[msg.sender].id */\n      sload\n        /* \"BlockChainElection.sol\":2809:2847  candidateIdManager[msg.sender].id == 0 */\n      iszero\n        /* \"BlockChainElection.sol\":2801:2885  require(candidateIdManager[msg.sender].id == 0, \"You have already been registered.\") */\n      tag_241\n      jumpi\n      mload(0x40)\n      shl(0xe5, 0x461bcd)\n      dup2\n      mstore\n      0x04\n      add\n      tag_105\n      swap1\n      tag_243\n      jump\t// in\n    tag_241:\n        /* \"BlockChainElection.sol\":6186:6287  Candidate_List(id_candidate, _candidate_name, _candidate_address, _candidate_age, _candidate_promise) */\n      0x40\n      dup1\n      mload\n      0xa0\n      dup2\n      add\n      dup3\n      mstore\n        /* \"BlockChainElection.sol\":6201:6213  id_candidate */\n      sload(0x04)\n        /* \"BlockChainElection.sol\":6186:6287  Candidate_List(id_candidate, _candidate_name, _candidate_address, _candidate_age, _candidate_promise) */\n      dup1\n      dup3\n      mstore\n      0x20\n      dup1\n      dup4\n      add\n      dup9\n      dup2\n      mstore\n      dup4\n      dup6\n      add\n      dup9\n      swap1\n      mstore\n      0x60\n      dup5\n      add\n      dup8\n      swap1\n      mstore\n      0x80\n      dup5\n      add\n      dup7\n      swap1\n      mstore\n      0x00\n        /* \"BlockChainElection.sol\":6160:6183  candidate[id_candidate] */\n      swap3\n      dup4\n      mstore\n        /* \"BlockChainElection.sol\":6160:6169  candidate */\n      0x09\n        /* \"BlockChainElection.sol\":6160:6183  candidate[id_candidate] */\n      swap1\n      swap2\n      mstore\n      swap3\n      swap1\n      keccak256\n        /* \"BlockChainElection.sol\":6160:6287  candidate[id_candidate] = Candidate_List(id_candidate, _candidate_name, _candidate_address, _candidate_age, _candidate_promise) */\n      dup2\n      mload\n      dup2\n      sstore\n      swap2\n      mload\n        /* \"BlockChainElection.sol\":6186:6287  Candidate_List(id_candidate, _candidate_name, _candidate_address, _candidate_age, _candidate_promise) */\n      swap1\n      swap2\n        /* \"BlockChainElection.sol\":6160:6183  candidate[id_candidate] */\n      swap1\n        /* \"BlockChainElection.sol\":6160:6287  candidate[id_candidate] = Candidate_List(id_candidate, _candidate_name, _candidate_address, _candidate_age, _candidate_promise) */\n      0x01\n      dup3\n      add\n      swap1\n      tag_245\n      swap1\n      dup3\n      tag_246\n      jump\t// in\n    tag_245:\n      pop\n      0x40\n      dup3\n      add\n      mload\n      0x02\n      dup3\n      add\n      swap1\n      tag_247\n      swap1\n      dup3\n      tag_246\n      jump\t// in\n    tag_247:\n      pop\n      0x60\n      dup3\n      add\n      mload\n      0x03\n      dup3\n      add\n      swap1\n      tag_248\n      swap1\n      dup3\n      tag_246\n      jump\t// in\n    tag_248:\n      pop\n      0x80\n      dup3\n      add\n      mload\n      0x04\n      dup3\n      add\n      swap1\n      tag_249\n      swap1\n      dup3\n      tag_246\n      jump\t// in\n    tag_249:\n      pop\n      pop\n        /* \"BlockChainElection.sol\":6331:6365  Candidate_Id_Manager(id_candidate) */\n      0x40\n      dup1\n      mload\n      0x20\n      dup1\n      dup3\n      add\n      dup4\n      mstore\n        /* \"BlockChainElection.sol\":6352:6364  id_candidate */\n      0x04\n      dup1\n      sload\n        /* \"BlockChainElection.sol\":6331:6365  Candidate_Id_Manager(id_candidate) */\n      dup4\n      mstore\n        /* \"BlockChainElection.sol\":6317:6327  msg.sender */\n      caller\n      0x00\n        /* \"BlockChainElection.sol\":6298:6328  candidateIdManager[msg.sender] */\n      swap1\n      dup2\n      mstore\n        /* \"BlockChainElection.sol\":6298:6316  candidateIdManager */\n      0x0a\n        /* \"BlockChainElection.sol\":6298:6328  candidateIdManager[msg.sender] */\n      dup4\n      mstore\n      dup5\n      dup2\n      keccak256\n        /* \"BlockChainElection.sol\":6298:6365  candidateIdManager[msg.sender] = Candidate_Id_Manager(id_candidate) */\n      swap4\n      mload\n      swap1\n      swap4\n      sstore\n        /* \"BlockChainElection.sol\":6411:6436  Candidate_Eligible(false) */\n      dup4\n      mload\n      dup1\n      dup4\n      add\n      dup6\n      mstore\n      dup4\n      dup2\n      mstore\n        /* \"BlockChainElection.sol\":6394:6406  id_candidate */\n      dup2\n      sload\n        /* \"BlockChainElection.sol\":6376:6407  candidateEligible[id_candidate] */\n      dup5\n      mstore\n        /* \"BlockChainElection.sol\":6376:6393  candidateEligible */\n      0x0e\n        /* \"BlockChainElection.sol\":6376:6407  candidateEligible[id_candidate] */\n      dup4\n      mstore\n      dup5\n      dup5\n      keccak256\n        /* \"BlockChainElection.sol\":6376:6436  candidateEligible[id_candidate]  = Candidate_Eligible(false) */\n      swap1\n      mload\n      dup2\n      sload\n      not(0xff)\n      and\n      swap1\n      iszero\n      iszero\n      or\n      swap1\n      sstore\n        /* \"BlockChainElection.sol\":6455:6467  id_candidate */\n      dup1\n      sload\n        /* \"BlockChainElection.sol\":6447:6468  results[id_candidate] */\n      dup4\n      mstore\n        /* \"BlockChainElection.sol\":6447:6454  results */\n      0x0c\n        /* \"BlockChainElection.sol\":6447:6468  results[id_candidate] */\n      dup3\n      mstore\n      dup4\n      dup4\n      keccak256\n      0x01\n        /* \"BlockChainElection.sol\":6447:6479  results[id_candidate].vote_count */\n      swap1\n      dup2\n      add\n        /* \"BlockChainElection.sol\":6447:6483  results[id_candidate].vote_count = 0 */\n      dup5\n      swap1\n      sstore\n        /* \"BlockChainElection.sol\":6523:6535  id_candidate */\n      swap1\n      sload\n        /* \"BlockChainElection.sol\":6513:6536  candidate[id_candidate] */\n      dup4\n      mstore\n        /* \"BlockChainElection.sol\":6513:6522  candidate */\n      0x09\n        /* \"BlockChainElection.sol\":6513:6536  candidate[id_candidate] */\n      swap1\n      swap2\n      mstore\n      swap2\n      dup2\n      keccak256\n        /* \"BlockChainElection.sol\":6494:6507  candidateList */\n      0x11\n        /* \"BlockChainElection.sol\":6494:6537  candidateList.push(candidate[id_candidate]) */\n      dup1\n      sload\n      dup1\n      dup6\n      add\n      dup3\n      sstore\n      swap3\n      mstore\n      dup1\n      sload\n      0x31ecc21a745e3968a04e9570e4425bc18fa8019c68028196b546d1669c200c68\n      0x05\n      swap1\n      swap4\n      mul\n      swap3\n      dup4\n      add\n      swap1\n      dup2\n      sstore\n        /* \"BlockChainElection.sol\":6513:6536  candidate[id_candidate] */\n      swap1\n      swap4\n      pop\n        /* \"BlockChainElection.sol\":6494:6537  candidateList.push(candidate[id_candidate]) */\n      swap2\n      0x31ecc21a745e3968a04e9570e4425bc18fa8019c68028196b546d1669c200c69\n      swap1\n      swap2\n      add\n      swap1\n      tag_251\n      swap1\n      dup5\n      add\n      dup3\n      tag_252\n      jump\t// in\n    tag_251:\n      pop\n      0x02\n      dup2\n      dup2\n      add\n      swap1\n      tag_253\n      swap1\n      dup5\n      add\n      dup3\n      tag_252\n      jump\t// in\n    tag_253:\n      pop\n      0x03\n      dup2\n      dup2\n      add\n      swap1\n      tag_254\n      swap1\n      dup5\n      add\n      dup3\n      tag_252\n      jump\t// in\n    tag_254:\n      pop\n      0x04\n      dup2\n      dup2\n      add\n      swap1\n      tag_255\n      swap1\n      dup5\n      add\n      dup3\n      tag_252\n      jump\t// in\n    tag_255:\n      pop\n      pop\n        /* \"BlockChainElection.sol\":6548:6560  id_candidate */\n      0x04\n        /* \"BlockChainElection.sol\":6548:6562  id_candidate++ */\n      dup1\n      sload\n      swap2\n      pop\n        /* \"BlockChainElection.sol\":6548:6560  id_candidate */\n      0x00\n        /* \"BlockChainElection.sol\":6548:6562  id_candidate++ */\n      tag_256\n      dup4\n      tag_139\n      jump\t// in\n    tag_256:\n      swap2\n      swap1\n      pop\n      sstore\n      pop\n        /* \"BlockChainElection.sol\":6578:6635  candidate_registration(msg.sender , registration_message) */\n      0x11d7002257ca02e998e3d17112a6298cf2bb8b3b44ece5e8a02e1e78c7d2dc2b\n        /* \"BlockChainElection.sol\":6601:6611  msg.sender */\n      caller\n        /* \"BlockChainElection.sol\":6614:6634  registration_message */\n      mload(0x40)\n      dup1\n      0x40\n      add\n      0x40\n      mstore\n      dup1\n      0x17\n      dup2\n      mstore\n      0x20\n      add\n      shl(0x4a, 0x149959da5cdd1c985d1a5bdb8814dd58d8d95cdcd99d5b)\n      dup2\n      mstore\n      pop\n        /* \"BlockChainElection.sol\":6578:6635  candidate_registration(msg.sender , registration_message) */\n      mload(0x40)\n      tag_257\n      swap3\n      swap2\n      swap1\n      tag_258\n      jump\t// in\n    tag_257:\n      mload(0x40)\n      dup1\n      swap2\n      sub\n      swap1\n      log1\n        /* \"BlockChainElection.sol\":6676:6695  election_commission */\n      sload(0x02)\n        /* \"BlockChainElection.sol\":6651:6734  Request_For_Registration(election_commission, \"Request for Candidate Registration\") */\n      0x40\n      dup1\n      mload\n      sub(shl(0xa0, 0x01), 0x01)\n        /* \"BlockChainElection.sol\":6676:6695  election_commission */\n      swap1\n      swap3\n      and\n        /* \"#utility.yul\":17600:17651   */\n      dup3\n      mstore\n        /* \"#utility.yul\":17682:17684   */\n      0x20\n        /* \"#utility.yul\":17667:17685   */\n      dup3\n      add\n        /* \"#utility.yul\":17660:17690   */\n      dup2\n      swap1\n      mstore\n        /* \"#utility.yul\":17726:17728   */\n      0x22\n        /* \"#utility.yul\":17706:17724   */\n      swap1\n      dup3\n      add\n        /* \"#utility.yul\":17699:17729   */\n      mstore\n        /* \"#utility.yul\":17765:17799   */\n      0x5265717565737420666f722043616e6469646174652052656769737472617469\n        /* \"#utility.yul\":17760:17762   */\n      0x60\n        /* \"#utility.yul\":17745:17763   */\n      dup3\n      add\n        /* \"#utility.yul\":17738:17800   */\n      mstore\n      shl(0xf1, 0x37b7)\n        /* \"#utility.yul\":17831:17834   */\n      0x80\n        /* \"#utility.yul\":17816:17835   */\n      dup3\n      add\n        /* \"#utility.yul\":17809:17842   */\n      mstore\n        /* \"BlockChainElection.sol\":6651:6734  Request_For_Registration(election_commission, \"Request for Candidate Registration\") */\n      0x73ea8b385cde3d60501d54bccc28c7ccff4841ff66eae0201cbb1fafe237fce6\n      swap1\n        /* \"#utility.yul\":17638:17641   */\n      0xa0\n        /* \"#utility.yul\":17859:17878   */\n      add\n        /* \"BlockChainElection.sol\":6651:6734  Request_For_Registration(election_commission, \"Request for Candidate Registration\") */\n    tag_259:\n      mload(0x40)\n      dup1\n      swap2\n      sub\n      swap1\n      log1\n        /* \"BlockChainElection.sol\":5957:6742  function register_candidate(string memory _candidate_name, string memory _candidate_address, string memory _candidate_age, string memory _candidate_promise) public OneTimeRegistrationCandidate{... */\n      pop\n      pop\n      pop\n      pop\n      jump\t// out\n        /* \"BlockChainElection.sol\":7879:8109  function endElection() public onlyElectionCommission{... */\n    tag_55:\n        /* \"BlockChainElection.sol\":2529:2548  election_commission */\n      and(sub(shl(0xa0, 0x01), 0x01), sload(0x02))\n        /* \"BlockChainElection.sol\":2515:2525  msg.sender */\n      caller\n        /* \"BlockChainElection.sol\":2515:2548  msg.sender == election_commission */\n      eq\n        /* \"BlockChainElection.sol\":2507:2572  require(msg.sender == election_commission, \"Unauthorized access\") */\n      tag_262\n      jumpi\n      mload(0x40)\n      shl(0xe5, 0x461bcd)\n      dup2\n      mstore\n      0x04\n      add\n      tag_105\n      swap1\n      tag_126\n      jump\t// in\n    tag_262:\n        /* \"BlockChainElection.sol\":7945:7961  election_started */\n      and(0xff, sload(0x06))\n        /* \"BlockChainElection.sol\":7945:7980  election_started && !election_ended */\n      dup1\n      iszero\n      tag_265\n      jumpi\n      pop\n        /* \"BlockChainElection.sol\":7966:7980  election_ended */\n      sload(0x06)\n      0x0100\n      swap1\n      div\n      0xff\n      and\n        /* \"BlockChainElection.sol\":7965:7980  !election_ended */\n      iszero\n        /* \"BlockChainElection.sol\":7945:7980  election_started && !election_ended */\n    tag_265:\n        /* \"BlockChainElection.sol\":7942:8102  if(election_started && !election_ended){... */\n      iszero\n      tag_266\n      jumpi\n        /* \"BlockChainElection.sol\":7996:8010  election_ended */\n      0x06\n        /* \"BlockChainElection.sol\":7996:8017  election_ended = true */\n      dup1\n      sload\n      not(0xff00)\n      and\n      0x0100\n      or\n      swap1\n      sstore\n        /* \"BlockChainElection.sol\":7879:8109  function endElection() public onlyElectionCommission{... */\n      jump\t// out\n        /* \"BlockChainElection.sol\":7942:8102  if(election_started && !election_ended){... */\n    tag_266:\n        /* \"BlockChainElection.sol\":8048:8090  revert(\"The election is not started yet.\") */\n      mload(0x40)\n      shl(0xe5, 0x461bcd)\n      dup2\n      mstore\n        /* \"#utility.yul\":18091:18093   */\n      0x20\n        /* \"BlockChainElection.sol\":8048:8090  revert(\"The election is not started yet.\") */\n      0x04\n      dup3\n      add\n        /* \"#utility.yul\":18073:18094   */\n      dup2\n      swap1\n      mstore\n        /* \"#utility.yul\":18110:18128   */\n      0x24\n      dup3\n      add\n        /* \"#utility.yul\":18103:18133   */\n      mstore\n        /* \"#utility.yul\":18169:18203   */\n      0x54686520656c656374696f6e206973206e6f742073746172746564207965742e\n        /* \"#utility.yul\":18149:18167   */\n      0x44\n      dup3\n      add\n        /* \"#utility.yul\":18142:18204   */\n      mstore\n        /* \"#utility.yul\":18221:18239   */\n      0x64\n      add\n        /* \"BlockChainElection.sol\":8048:8090  revert(\"The election is not started yet.\") */\n      tag_105\n        /* \"#utility.yul\":17889:18245   */\n      jump\n        /* \"BlockChainElection.sol\":4453:5136  function add_voter(string memory _voter_name, string memory _voter_address, uint8 _voter_age, string memory _voter_aadhaar_number) public OneTimeRegistrationVoter{... */\n    tag_59:\n        /* \"BlockChainElection.sol\":2667:2677  msg.sender */\n      caller\n        /* \"BlockChainElection.sol\":2652:2678  voterIdManager[msg.sender] */\n      0x00\n      swap1\n      dup2\n      mstore\n        /* \"BlockChainElection.sol\":2652:2666  voterIdManager */\n      0x08\n        /* \"BlockChainElection.sol\":2652:2678  voterIdManager[msg.sender] */\n      0x20\n      mstore\n      0x40\n      swap1\n      keccak256\n        /* \"BlockChainElection.sol\":2652:2681  voterIdManager[msg.sender].id */\n      sload\n        /* \"BlockChainElection.sol\":2652:2686  voterIdManager[msg.sender].id == 0 */\n      iszero\n        /* \"BlockChainElection.sol\":2644:2724  require(voterIdManager[msg.sender].id == 0, \"You have already been registered.\") */\n      tag_271\n      jumpi\n      mload(0x40)\n      shl(0xe5, 0x461bcd)\n      dup2\n      mstore\n      0x04\n      add\n      tag_105\n      swap1\n      tag_243\n      jump\t// in\n    tag_271:\n        /* \"BlockChainElection.sol\":4645:4730  Voters_List(id_voter, _voter_name, _voter_address, _voter_age, _voter_aadhaar_number) */\n      0x40\n      dup1\n      mload\n      0xa0\n      dup2\n      add\n      dup3\n      mstore\n        /* \"BlockChainElection.sol\":4657:4665  id_voter */\n      sload(0x03)\n        /* \"BlockChainElection.sol\":4645:4730  Voters_List(id_voter, _voter_name, _voter_address, _voter_age, _voter_aadhaar_number) */\n      dup1\n      dup3\n      mstore\n      0x20\n      dup1\n      dup4\n      add\n      dup9\n      dup2\n      mstore\n      dup4\n      dup6\n      add\n      dup9\n      swap1\n      mstore\n      0xff\n      dup8\n      and\n      0x60\n      dup6\n      add\n      mstore\n      0x80\n      dup5\n      add\n      dup7\n      swap1\n      mstore\n      0x00\n        /* \"BlockChainElection.sol\":4626:4642  voters[id_voter] */\n      swap3\n      dup4\n      mstore\n        /* \"BlockChainElection.sol\":4626:4632  voters */\n      0x07\n        /* \"BlockChainElection.sol\":4626:4642  voters[id_voter] */\n      swap1\n      swap2\n      mstore\n      swap3\n      swap1\n      keccak256\n        /* \"BlockChainElection.sol\":4626:4730  voters[id_voter] = Voters_List(id_voter, _voter_name, _voter_address, _voter_age, _voter_aadhaar_number) */\n      dup2\n      mload\n      dup2\n      sstore\n      swap2\n      mload\n        /* \"BlockChainElection.sol\":4645:4730  Voters_List(id_voter, _voter_name, _voter_address, _voter_age, _voter_aadhaar_number) */\n      swap1\n      swap2\n        /* \"BlockChainElection.sol\":4626:4642  voters[id_voter] */\n      swap1\n        /* \"BlockChainElection.sol\":4626:4730  voters[id_voter] = Voters_List(id_voter, _voter_name, _voter_address, _voter_age, _voter_aadhaar_number) */\n      0x01\n      dup3\n      add\n      swap1\n      tag_274\n      swap1\n      dup3\n      tag_246\n      jump\t// in\n    tag_274:\n      pop\n      0x40\n      dup3\n      add\n      mload\n      0x02\n      dup3\n      add\n      swap1\n      tag_275\n      swap1\n      dup3\n      tag_246\n      jump\t// in\n    tag_275:\n      pop\n      0x60\n      dup3\n      add\n      mload\n      0x03\n      dup3\n      add\n      dup1\n      sload\n      not(0xff)\n      and\n      0xff\n      swap1\n      swap3\n      and\n      swap2\n      swap1\n      swap2\n      or\n      swap1\n      sstore\n      0x80\n      dup3\n      add\n      mload\n      0x04\n      dup3\n      add\n      swap1\n      tag_276\n      swap1\n      dup3\n      tag_246\n      jump\t// in\n    tag_276:\n      pop\n      pop\n        /* \"BlockChainElection.sol\":4770:4796  Voter_Id_Manager(id_voter) */\n      0x40\n      dup1\n      mload\n      0x20\n      dup1\n      dup3\n      add\n      dup4\n      mstore\n        /* \"BlockChainElection.sol\":4787:4795  id_voter */\n      0x03\n      dup1\n      sload\n        /* \"BlockChainElection.sol\":4770:4796  Voter_Id_Manager(id_voter) */\n      dup4\n      mstore\n        /* \"BlockChainElection.sol\":4756:4766  msg.sender */\n      caller\n      0x00\n        /* \"BlockChainElection.sol\":4741:4767  voterIdManager[msg.sender] */\n      dup2\n      dup2\n      mstore\n        /* \"BlockChainElection.sol\":4741:4755  voterIdManager */\n      0x08\n        /* \"BlockChainElection.sol\":4741:4767  voterIdManager[msg.sender] */\n      dup5\n      mstore\n      dup6\n      dup2\n      keccak256\n        /* \"BlockChainElection.sol\":4741:4796  voterIdManager[msg.sender] = Voter_Id_Manager(id_voter) */\n      swap5\n      mload\n      swap1\n      swap5\n      sstore\n        /* \"BlockChainElection.sol\":4833:4855  Voter_Eligible (false) */\n      dup5\n      mload\n      dup1\n      dup5\n      add\n      dup7\n      mstore\n      dup5\n      dup2\n      mstore\n        /* \"BlockChainElection.sol\":4821:4829  id_voter */\n      dup3\n      sload\n        /* \"BlockChainElection.sol\":4807:4830  voterEligible[id_voter] */\n      dup6\n      mstore\n        /* \"BlockChainElection.sol\":4807:4820  voterEligible */\n      0x0d\n        /* \"BlockChainElection.sol\":4807:4830  voterEligible[id_voter] */\n      dup5\n      mstore\n      dup6\n      dup6\n      keccak256\n        /* \"BlockChainElection.sol\":4807:4855  voterEligible[id_voter] = Voter_Eligible (false) */\n      swap1\n      mload\n      dup2\n      sload\n      swap1\n      iszero\n      iszero\n      not(0xff)\n      swap2\n      dup3\n      and\n      or\n      swap1\n      swap2\n      sstore\n        /* \"BlockChainElection.sol\":4866:4886  is_voted[msg.sender] */\n      swap1\n      dup5\n      mstore\n        /* \"BlockChainElection.sol\":4866:4874  is_voted */\n      0x0b\n        /* \"BlockChainElection.sol\":4866:4886  is_voted[msg.sender] */\n      dup4\n      mstore\n      dup5\n      dup5\n      keccak256\n        /* \"BlockChainElection.sol\":4866:4900  is_voted[msg.sender].voted = false */\n      dup1\n      sload\n      swap1\n      swap2\n      and\n      swap1\n      sstore\n        /* \"BlockChainElection.sol\":4934:4942  id_voter */\n      sload\n        /* \"BlockChainElection.sol\":4927:4943  voters[id_voter] */\n      dup3\n      mstore\n        /* \"BlockChainElection.sol\":4927:4933  voters */\n      0x07\n        /* \"BlockChainElection.sol\":4927:4943  voters[id_voter] */\n      swap1\n      mstore\n      swap1\n      dup2\n      keccak256\n        /* \"BlockChainElection.sol\":4911:4921  votersList */\n      0x12\n        /* \"BlockChainElection.sol\":4911:4944  votersList.push(voters[id_voter]) */\n      dup1\n      sload\n        /* \"BlockChainElection.sol\":4833:4855  Voter_Eligible (false) */\n      0x01\n        /* \"BlockChainElection.sol\":4911:4944  votersList.push(voters[id_voter]) */\n      dup2\n      dup2\n      add\n      dup4\n      sstore\n      swap2\n      swap1\n      swap4\n      mstore\n      dup2\n      sload\n      0x05\n      swap1\n      swap4\n      mul\n      0xbb8a6a4669ba250d26cd7a459eca9d215f8307e33aebe50379bc5a3617ec3444\n      dup2\n      add\n      swap4\n      dup5\n      sstore\n        /* \"BlockChainElection.sol\":4927:4943  voters[id_voter] */\n      swap2\n      swap4\n      pop\n        /* \"BlockChainElection.sol\":4911:4944  votersList.push(voters[id_voter]) */\n      0xbb8a6a4669ba250d26cd7a459eca9d215f8307e33aebe50379bc5a3617ec3445\n      swap1\n      swap2\n      add\n      swap1\n      tag_278\n      swap1\n      dup5\n      add\n      dup3\n      tag_252\n      jump\t// in\n    tag_278:\n      pop\n      0x02\n      dup2\n      dup2\n      add\n      swap1\n      tag_279\n      swap1\n      dup5\n      add\n      dup3\n      tag_252\n      jump\t// in\n    tag_279:\n      pop\n      0x03\n      dup3\n      dup2\n      add\n      sload\n      swap1\n      dup3\n      add\n      dup1\n      sload\n      not(0xff)\n      and\n      0xff\n      swap1\n      swap3\n      and\n      swap2\n      swap1\n      swap2\n      or\n      swap1\n      sstore\n      0x04\n      dup1\n      dup3\n      add\n      swap1\n      tag_280\n      swap1\n      dup5\n      add\n      dup3\n      tag_252\n      jump\t// in\n    tag_280:\n      pop\n      pop\n        /* \"BlockChainElection.sol\":4955:4963  id_voter */\n      0x03\n        /* \"BlockChainElection.sol\":4955:4965  id_voter++ */\n      dup1\n      sload\n      swap2\n      pop\n        /* \"BlockChainElection.sol\":4955:4963  id_voter */\n      0x00\n        /* \"BlockChainElection.sol\":4955:4965  id_voter++ */\n      tag_281\n      dup4\n      tag_139\n      jump\t// in\n    tag_281:\n      swap2\n      swap1\n      pop\n      sstore\n      pop\n        /* \"BlockChainElection.sol\":4981:5033  voter_registration(msg.sender, registration_message) */\n      0xe54fed3d6f8ea8d23d023956c25fefd884a7258386b09ac1c4783ef5d1c51b06\n        /* \"BlockChainElection.sol\":5000:5010  msg.sender */\n      caller\n        /* \"BlockChainElection.sol\":5012:5032  registration_message */\n      mload(0x40)\n      dup1\n      0x40\n      add\n      0x40\n      mstore\n      dup1\n      0x17\n      dup2\n      mstore\n      0x20\n      add\n      shl(0x4a, 0x149959da5cdd1c985d1a5bdb8814dd58d8d95cdcd99d5b)\n      dup2\n      mstore\n      pop\n        /* \"BlockChainElection.sol\":4981:5033  voter_registration(msg.sender, registration_message) */\n      mload(0x40)\n      tag_282\n      swap3\n      swap2\n      swap1\n      tag_258\n      jump\t// in\n    tag_282:\n      mload(0x40)\n      dup1\n      swap2\n      sub\n      swap1\n      log1\n        /* \"BlockChainElection.sol\":5074:5093  election_commission */\n      sload(0x02)\n        /* \"BlockChainElection.sol\":5049:5128  Request_For_Registration(election_commission, \"Request for Voter Registration\") */\n      0x40\n      dup1\n      mload\n      sub(shl(0xa0, 0x01), 0x01)\n        /* \"BlockChainElection.sol\":5074:5093  election_commission */\n      swap1\n      swap3\n      and\n        /* \"#utility.yul\":18462:18513   */\n      dup3\n      mstore\n        /* \"#utility.yul\":18544:18546   */\n      0x20\n        /* \"#utility.yul\":18529:18547   */\n      dup3\n      add\n        /* \"#utility.yul\":18522:18552   */\n      dup2\n      swap1\n      mstore\n        /* \"#utility.yul\":18588:18590   */\n      0x1e\n        /* \"#utility.yul\":18568:18586   */\n      swap1\n      dup3\n      add\n        /* \"#utility.yul\":18561:18591   */\n      mstore\n        /* \"#utility.yul\":18627:18659   */\n      0x5265717565737420666f7220566f74657220526567697374726174696f6e0000\n        /* \"#utility.yul\":18622:18624   */\n      0x60\n        /* \"#utility.yul\":18607:18625   */\n      dup3\n      add\n        /* \"#utility.yul\":18600:18660   */\n      mstore\n        /* \"BlockChainElection.sol\":5049:5128  Request_For_Registration(election_commission, \"Request for Voter Registration\") */\n      0x73ea8b385cde3d60501d54bccc28c7ccff4841ff66eae0201cbb1fafe237fce6\n      swap1\n        /* \"#utility.yul\":18692:18695   */\n      0x80\n        /* \"#utility.yul\":18677:18696   */\n      add\n        /* \"BlockChainElection.sol\":5049:5128  Request_For_Registration(election_commission, \"Request for Voter Registration\") */\n      tag_259\n        /* \"#utility.yul\":18250:18702   */\n      jump\n        /* \"BlockChainElection.sol\":7641:7871  function startElection() public onlyElectionCommission{... */\n    tag_61:\n        /* \"BlockChainElection.sol\":2529:2548  election_commission */\n      and(sub(shl(0xa0, 0x01), 0x01), sload(0x02))\n        /* \"BlockChainElection.sol\":2515:2525  msg.sender */\n      caller\n        /* \"BlockChainElection.sol\":2515:2548  msg.sender == election_commission */\n      eq\n        /* \"BlockChainElection.sol\":2507:2572  require(msg.sender == election_commission, \"Unauthorized access\") */\n      tag_286\n      jumpi\n      mload(0x40)\n      shl(0xe5, 0x461bcd)\n      dup2\n      mstore\n      0x04\n      add\n      tag_105\n      swap1\n      tag_126\n      jump\t// in\n    tag_286:\n        /* \"BlockChainElection.sol\":7710:7726  election_started */\n      and(0xff, sload(0x06))\n        /* \"BlockChainElection.sol\":7706:7864  if(!election_started){... */\n      tag_289\n      jumpi\n        /* \"BlockChainElection.sol\":7742:7758  election_started */\n      0x06\n        /* \"BlockChainElection.sol\":7742:7765  election_started = true */\n      dup1\n      sload\n      not(0xff)\n      and\n        /* \"BlockChainElection.sol\":7761:7765  true */\n      0x01\n        /* \"BlockChainElection.sol\":7742:7765  election_started = true */\n      or\n      swap1\n      sstore\n        /* \"BlockChainElection.sol\":7879:8109  function endElection() public onlyElectionCommission{... */\n      jump\t// out\n        /* \"BlockChainElection.sol\":7706:7864  if(!election_started){... */\n    tag_289:\n        /* \"BlockChainElection.sol\":7806:7852  revert(\"The election is already in progress.\") */\n      mload(0x40)\n      shl(0xe5, 0x461bcd)\n      dup2\n      mstore\n        /* \"#utility.yul\":18909:18911   */\n      0x20\n        /* \"BlockChainElection.sol\":7806:7852  revert(\"The election is already in progress.\") */\n      0x04\n      dup3\n      add\n        /* \"#utility.yul\":18891:18912   */\n      mstore\n        /* \"#utility.yul\":18948:18950   */\n      0x24\n        /* \"#utility.yul\":18928:18946   */\n      dup1\n      dup3\n      add\n        /* \"#utility.yul\":18921:18951   */\n      mstore\n        /* \"#utility.yul\":18987:19021   */\n      0x54686520656c656374696f6e20697320616c726561647920696e2070726f6772\n        /* \"#utility.yul\":18967:18985   */\n      0x44\n      dup3\n      add\n        /* \"#utility.yul\":18960:19022   */\n      mstore\n      shl(0xe1, 0x32b9b997)\n        /* \"#utility.yul\":19038:19056   */\n      0x64\n      dup3\n      add\n        /* \"#utility.yul\":19031:19065   */\n      mstore\n        /* \"#utility.yul\":19082:19101   */\n      0x84\n      add\n        /* \"BlockChainElection.sol\":7806:7852  revert(\"The election is already in progress.\") */\n      tag_105\n        /* \"#utility.yul\":18707:19107   */\n      jump\n        /* \"BlockChainElection.sol\":10091:10263  function get_candidate_detail(uint _candidate_id) public view validId(_candidate_id, true) returns (Candidate_List memory){... */\n    tag_64:\n        /* \"BlockChainElection.sol\":10191:10212  Candidate_List memory */\n      tag_293\n      mload(0x40)\n      dup1\n      0xa0\n      add\n      0x40\n      mstore\n      dup1\n      0x00\n      dup2\n      mstore\n      0x20\n      add\n      0x60\n      dup2\n      mstore\n      0x20\n      add\n      0x60\n      dup2\n      mstore\n      0x20\n      add\n      0x60\n      dup2\n      mstore\n      0x20\n      add\n      0x60\n      dup2\n      mstore\n      pop\n      swap1\n      jump\n    tag_293:\n        /* \"BlockChainElection.sol\":10161:10174  _candidate_id */\n      dup2\n        /* \"BlockChainElection.sol\":10176:10180  true */\n      0x01\n        /* \"BlockChainElection.sol\":4046:4047  0 */\n      0x00\n        /* \"BlockChainElection.sol\":4041:4043  id */\n      dup3\n        /* \"BlockChainElection.sol\":4041:4047  id > 0 */\n      gt\n        /* \"BlockChainElection.sol\":4041:4068  id > 0 && id < id_candidate */\n      dup1\n      iszero\n      tag_297\n      jumpi\n      pop\n        /* \"BlockChainElection.sol\":4056:4068  id_candidate */\n      sload(0x04)\n        /* \"BlockChainElection.sol\":4051:4053  id */\n      dup3\n        /* \"BlockChainElection.sol\":4051:4068  id < id_candidate */\n      lt\n        /* \"BlockChainElection.sol\":4041:4068  id > 0 && id < id_candidate */\n    tag_297:\n        /* \"BlockChainElection.sol\":4033:4093  require(id > 0 && id < id_candidate, \"Invalid Candidate Id\") */\n      tag_298\n      jumpi\n      mload(0x40)\n      shl(0xe5, 0x461bcd)\n      dup2\n      mstore\n      0x04\n      add\n      tag_105\n      swap1\n      tag_106\n      jump\t// in\n    tag_298:\n        /* \"BlockChainElection.sol\":10231:10240  candidate */\n      0x09\n        /* \"BlockChainElection.sol\":10231:10255  candidate[_candidate_id] */\n      0x00\n        /* \"BlockChainElection.sol\":10241:10254  _candidate_id */\n      dup6\n        /* \"BlockChainElection.sol\":10231:10255  candidate[_candidate_id] */\n      dup2\n      mstore\n      0x20\n      add\n      swap1\n      dup2\n      mstore\n      0x20\n      add\n      0x00\n      keccak256\n        /* \"BlockChainElection.sol\":10224:10255  return candidate[_candidate_id] */\n      mload(0x40)\n      dup1\n      0xa0\n      add\n      0x40\n      mstore\n      swap1\n      dup2\n      0x00\n      dup3\n      add\n      sload\n      dup2\n      mstore\n      0x20\n      add\n      0x01\n      dup3\n      add\n      dup1\n      sload\n      tag_305\n      swap1\n      tag_201\n      jump\t// in\n    tag_305:\n      dup1\n      0x1f\n      add\n      0x20\n      dup1\n      swap2\n      div\n      mul\n      0x20\n      add\n      mload(0x40)\n      swap1\n      dup2\n      add\n      0x40\n      mstore\n      dup1\n      swap3\n      swap2\n      swap1\n      dup2\n      dup2\n      mstore\n      0x20\n      add\n      dup3\n      dup1\n      sload\n      tag_306\n      swap1\n      tag_201\n      jump\t// in\n    tag_306:\n      dup1\n      iszero\n      tag_307\n      jumpi\n      dup1\n      0x1f\n      lt\n      tag_308\n      jumpi\n      0x0100\n      dup1\n      dup4\n      sload\n      div\n      mul\n      dup4\n      mstore\n      swap2\n      0x20\n      add\n      swap2\n      jump(tag_307)\n    tag_308:\n      dup3\n      add\n      swap2\n      swap1\n      0x00\n      mstore\n      keccak256(0x00, 0x20)\n      swap1\n    tag_309:\n      dup2\n      sload\n      dup2\n      mstore\n      swap1\n      0x01\n      add\n      swap1\n      0x20\n      add\n      dup1\n      dup4\n      gt\n      tag_309\n      jumpi\n      dup3\n      swap1\n      sub\n      0x1f\n      and\n      dup3\n      add\n      swap2\n    tag_307:\n      pop\n      pop\n      pop\n      pop\n      pop\n      dup2\n      mstore\n      0x20\n      add\n      0x02\n      dup3\n      add\n      dup1\n      sload\n      tag_310\n      swap1\n      tag_201\n      jump\t// in\n    tag_310:\n      dup1\n      0x1f\n      add\n      0x20\n      dup1\n      swap2\n      div\n      mul\n      0x20\n      add\n      mload(0x40)\n      swap1\n      dup2\n      add\n      0x40\n      mstore\n      dup1\n      swap3\n      swap2\n      swap1\n      dup2\n      dup2\n      mstore\n      0x20\n      add\n      dup3\n      dup1\n      sload\n      tag_311\n      swap1\n      tag_201\n      jump\t// in\n    tag_311:\n      dup1\n      iszero\n      tag_312\n      jumpi\n      dup1\n      0x1f\n      lt\n      tag_313\n      jumpi\n      0x0100\n      dup1\n      dup4\n      sload\n      div\n      mul\n      dup4\n      mstore\n      swap2\n      0x20\n      add\n      swap2\n      jump(tag_312)\n    tag_313:\n      dup3\n      add\n      swap2\n      swap1\n      0x00\n      mstore\n      keccak256(0x00, 0x20)\n      swap1\n    tag_314:\n      dup2\n      sload\n      dup2\n      mstore\n      swap1\n      0x01\n      add\n      swap1\n      0x20\n      add\n      dup1\n      dup4\n      gt\n      tag_314\n      jumpi\n      dup3\n      swap1\n      sub\n      0x1f\n      and\n      dup3\n      add\n      swap2\n    tag_312:\n      pop\n      pop\n      pop\n      pop\n      pop\n      dup2\n      mstore\n      0x20\n      add\n      0x03\n      dup3\n      add\n      dup1\n      sload\n      tag_315\n      swap1\n      tag_201\n      jump\t// in\n    tag_315:\n      dup1\n      0x1f\n      add\n      0x20\n      dup1\n      swap2\n      div\n      mul\n      0x20\n      add\n      mload(0x40)\n      swap1\n      dup2\n      add\n      0x40\n      mstore\n      dup1\n      swap3\n      swap2\n      swap1\n      dup2\n      dup2\n      mstore\n      0x20\n      add\n      dup3\n      dup1\n      sload\n      tag_316\n      swap1\n      tag_201\n      jump\t// in\n    tag_316:\n      dup1\n      iszero\n      tag_317\n      jumpi\n      dup1\n      0x1f\n      lt\n      tag_318\n      jumpi\n      0x0100\n      dup1\n      dup4\n      sload\n      div\n      mul\n      dup4\n      mstore\n      swap2\n      0x20\n      add\n      swap2\n      jump(tag_317)\n    tag_318:\n      dup3\n      add\n      swap2\n      swap1\n      0x00\n      mstore\n      keccak256(0x00, 0x20)\n      swap1\n    tag_319:\n      dup2\n      sload\n      dup2\n      mstore\n      swap1\n      0x01\n      add\n      swap1\n      0x20\n      add\n      dup1\n      dup4\n      gt\n      tag_319\n      jumpi\n      dup3\n      swap1\n      sub\n      0x1f\n      and\n      dup3\n      add\n      swap2\n    tag_317:\n      pop\n      pop\n      pop\n      pop\n      pop\n      dup2\n      mstore\n      0x20\n      add\n      0x04\n      dup3\n      add\n      dup1\n      sload\n      tag_320\n      swap1\n      tag_201\n      jump\t// in\n    tag_320:\n      dup1\n      0x1f\n      add\n      0x20\n      dup1\n      swap2\n      div\n      mul\n      0x20\n      add\n      mload(0x40)\n      swap1\n      dup2\n      add\n      0x40\n      mstore\n      dup1\n      swap3\n      swap2\n      swap1\n      dup2\n      dup2\n      mstore\n      0x20\n      add\n      dup3\n      dup1\n      sload\n      tag_321\n      swap1\n      tag_201\n      jump\t// in\n    tag_321:\n      dup1\n      iszero\n      tag_322\n      jumpi\n      dup1\n      0x1f\n      lt\n      tag_323\n      jumpi\n      0x0100\n      dup1\n      dup4\n      sload\n      div\n      mul\n      dup4\n      mstore\n      swap2\n      0x20\n      add\n      swap2\n      jump(tag_322)\n    tag_323:\n      dup3\n      add\n      swap2\n      swap1\n      0x00\n      mstore\n      keccak256(0x00, 0x20)\n      swap1\n    tag_324:\n      dup2\n      sload\n      dup2\n      mstore\n      swap1\n      0x01\n      add\n      swap1\n      0x20\n      add\n      dup1\n      dup4\n      gt\n      tag_324\n      jumpi\n      dup3\n      swap1\n      sub\n      0x1f\n      and\n      dup3\n      add\n      swap2\n    tag_322:\n      pop\n      pop\n      pop\n      pop\n      pop\n      dup2\n      mstore\n      pop\n      pop\n      swap3\n      pop\n        /* \"BlockChainElection.sol\":10091:10263  function get_candidate_detail(uint _candidate_id) public view validId(_candidate_id, true) returns (Candidate_List memory){... */\n      pop\n      pop\n      swap2\n      swap1\n      pop\n      jump\t// out\n        /* \"BlockChainElection.sol\":5144:5534  function approve_or_unBan_voter(uint _voter_id) public onlyElectionCommission validId(_voter_id, false){... */\n    tag_73:\n        /* \"BlockChainElection.sol\":2529:2548  election_commission */\n      and(sub(shl(0xa0, 0x01), 0x01), sload(0x02))\n        /* \"BlockChainElection.sol\":2515:2525  msg.sender */\n      caller\n        /* \"BlockChainElection.sol\":2515:2548  msg.sender == election_commission */\n      eq\n        /* \"BlockChainElection.sol\":2507:2572  require(msg.sender == election_commission, \"Unauthorized access\") */\n      tag_327\n      jumpi\n      mload(0x40)\n      shl(0xe5, 0x461bcd)\n      dup2\n      mstore\n      0x04\n      add\n      tag_105\n      swap1\n      tag_126\n      jump\t// in\n    tag_327:\n        /* \"BlockChainElection.sol\":5230:5239  _voter_id */\n      dup1\n        /* \"BlockChainElection.sol\":5241:5246  false */\n      0x00\n        /* \"BlockChainElection.sol\":4147:4148  0 */\n      dup1\n        /* \"BlockChainElection.sol\":4142:4144  id */\n      dup3\n        /* \"BlockChainElection.sol\":4142:4148  id > 0 */\n      gt\n        /* \"BlockChainElection.sol\":4142:4165  id > 0 && id < id_voter */\n      dup1\n      iszero\n      tag_335\n      jumpi\n      pop\n        /* \"BlockChainElection.sol\":4157:4165  id_voter */\n      sload(0x03)\n        /* \"BlockChainElection.sol\":4152:4154  id */\n      dup3\n        /* \"BlockChainElection.sol\":4152:4165  id < id_voter */\n      lt\n        /* \"BlockChainElection.sol\":4142:4165  id > 0 && id < id_voter */\n    tag_335:\n        /* \"BlockChainElection.sol\":4134:4186  require(id > 0 && id < id_voter, \"Invalid Voter Id\") */\n      tag_336\n      jumpi\n      mload(0x40)\n      shl(0xe5, 0x461bcd)\n      dup2\n      mstore\n      0x04\n      add\n      tag_105\n      swap1\n      tag_111\n      jump\t// in\n    tag_336:\n        /* \"BlockChainElection.sol\":5262:5286  voterEligible[_voter_id] */\n      0x00\n      dup4\n      dup2\n      mstore\n        /* \"BlockChainElection.sol\":5262:5275  voterEligible */\n      0x0d\n        /* \"BlockChainElection.sol\":5262:5286  voterEligible[_voter_id] */\n      0x20\n      mstore\n      0x40\n      swap1\n      keccak256\n        /* \"BlockChainElection.sol\":5262:5301  voterEligible[_voter_id].voter_eligible */\n      sload\n      0xff\n      and\n        /* \"BlockChainElection.sol\":5258:5527  if(!voterEligible[_voter_id].voter_eligible){... */\n      tag_339\n      jumpi\n        /* \"BlockChainElection.sol\":5317:5341  voterEligible[_voter_id] */\n      0x00\n      dup4\n      dup2\n      mstore\n        /* \"BlockChainElection.sol\":5317:5330  voterEligible */\n      0x0d\n        /* \"BlockChainElection.sol\":5317:5341  voterEligible[_voter_id] */\n      0x20\n      mstore\n      0x40\n      dup2\n      keccak256\n        /* \"BlockChainElection.sol\":5317:5363  voterEligible[_voter_id].voter_eligible = true */\n      dup1\n      sload\n      not(0xff)\n      and\n        /* \"BlockChainElection.sol\":5359:5363  true */\n      0x01\n        /* \"BlockChainElection.sol\":5317:5363  voterEligible[_voter_id].voter_eligible = true */\n      or\n      swap1\n      sstore\n        /* \"BlockChainElection.sol\":5378:5399  total_active_voters++ */\n      dup1\n      sload\n      swap1\n        /* \"BlockChainElection.sol\":5317:5341  voterEligible[_voter_id] */\n      dup1\n        /* \"BlockChainElection.sol\":5378:5399  total_active_voters++ */\n      tag_138\n      dup4\n      tag_139\n      jump\t// in\n        /* \"BlockChainElection.sol\":5258:5527  if(!voterEligible[_voter_id].voter_eligible){... */\n    tag_339:\n        /* \"BlockChainElection.sol\":5469:5515  revert(\"The voter has already been approved.\") */\n      mload(0x40)\n      shl(0xe5, 0x461bcd)\n      dup2\n      mstore\n        /* \"#utility.yul\":19314:19316   */\n      0x20\n        /* \"BlockChainElection.sol\":5469:5515  revert(\"The voter has already been approved.\") */\n      0x04\n      dup3\n      add\n        /* \"#utility.yul\":19296:19317   */\n      mstore\n        /* \"#utility.yul\":19353:19355   */\n      0x24\n        /* \"#utility.yul\":19333:19351   */\n      dup1\n      dup3\n      add\n        /* \"#utility.yul\":19326:19356   */\n      mstore\n        /* \"#utility.yul\":19392:19426   */\n      0x54686520766f7465722068617320616c7265616479206265656e20617070726f\n        /* \"#utility.yul\":19372:19390   */\n      0x44\n      dup3\n      add\n        /* \"#utility.yul\":19365:19427   */\n      mstore\n      shl(0xe1, 0x3b32b217)\n        /* \"#utility.yul\":19443:19461   */\n      0x64\n      dup3\n      add\n        /* \"#utility.yul\":19436:19470   */\n      mstore\n        /* \"#utility.yul\":19487:19506   */\n      0x84\n      add\n        /* \"BlockChainElection.sol\":5469:5515  revert(\"The voter has already been approved.\") */\n      tag_105\n        /* \"#utility.yul\":19112:19512   */\n      jump\n        /* \"BlockChainElection.sol\":8117:8419  function delegate_my_vote(uint _voter_id, DelegatedRelationship _relationship) public delegateMyVote(_voter_id) validId(_voter_id, false) {... */\n    tag_77:\n        /* \"BlockChainElection.sol\":3458:3468  msg.sender */\n      caller\n        /* \"BlockChainElection.sol\":3443:3469  voterIdManager[msg.sender] */\n      0x00\n      swap1\n      dup2\n      mstore\n        /* \"BlockChainElection.sol\":3443:3457  voterIdManager */\n      0x08\n        /* \"BlockChainElection.sol\":3443:3469  voterIdManager[msg.sender] */\n      0x20\n      mstore\n      0x40\n      dup2\n      keccak256\n        /* \"BlockChainElection.sol\":3443:3472  voterIdManager[msg.sender].id */\n      sload\n        /* \"BlockChainElection.sol\":8218:8227  _voter_id */\n      dup4\n      swap2\n        /* \"BlockChainElection.sol\":3443:3477  voterIdManager[msg.sender].id != 0 */\n      sub\n        /* \"BlockChainElection.sol\":3435:3514  require(voterIdManager[msg.sender].id != 0, \"You are not an authorized voter.\") */\n      tag_346\n      jumpi\n      mload(0x40)\n      shl(0xe5, 0x461bcd)\n      dup2\n      mstore\n        /* \"#utility.yul\":19719:19721   */\n      0x20\n        /* \"BlockChainElection.sol\":3435:3514  require(voterIdManager[msg.sender].id != 0, \"You are not an authorized voter.\") */\n      0x04\n      dup3\n      add\n        /* \"#utility.yul\":19701:19722   */\n      dup2\n      swap1\n      mstore\n        /* \"#utility.yul\":19738:19756   */\n      0x24\n      dup3\n      add\n        /* \"#utility.yul\":19731:19761   */\n      mstore\n        /* \"#utility.yul\":19797:19831   */\n      0x596f7520617265206e6f7420616e20617574686f72697a656420766f7465722e\n        /* \"#utility.yul\":19777:19795   */\n      0x44\n      dup3\n      add\n        /* \"#utility.yul\":19770:19832   */\n      mstore\n        /* \"#utility.yul\":19849:19867   */\n      0x64\n      add\n        /* \"BlockChainElection.sol\":3435:3514  require(voterIdManager[msg.sender].id != 0, \"You are not an authorized voter.\") */\n      tag_105\n        /* \"#utility.yul\":19517:19873   */\n      jump\n        /* \"BlockChainElection.sol\":3435:3514  require(voterIdManager[msg.sender].id != 0, \"You are not an authorized voter.\") */\n    tag_346:\n        /* \"BlockChainElection.sol\":3562:3572  msg.sender */\n      caller\n        /* \"BlockChainElection.sol\":3533:3577  voterEligible[voterIdManager[msg.sender].id] */\n      0x00\n        /* \"BlockChainElection.sol\":3547:3573  voterIdManager[msg.sender] */\n      swap1\n      dup2\n      mstore\n        /* \"BlockChainElection.sol\":3547:3561  voterIdManager */\n      0x08\n        /* \"BlockChainElection.sol\":3547:3573  voterIdManager[msg.sender] */\n      0x20\n      swap1\n      dup2\n      mstore\n      0x40\n      dup1\n      dup4\n      keccak256\n        /* \"BlockChainElection.sol\":3547:3576  voterIdManager[msg.sender].id */\n      sload\n        /* \"BlockChainElection.sol\":3533:3577  voterEligible[voterIdManager[msg.sender].id] */\n      dup4\n      mstore\n        /* \"BlockChainElection.sol\":3533:3546  voterEligible */\n      0x0d\n        /* \"BlockChainElection.sol\":3533:3577  voterEligible[voterIdManager[msg.sender].id] */\n      swap1\n      swap2\n      mstore\n      swap1\n      keccak256\n        /* \"BlockChainElection.sol\":3533:3592  voterEligible[voterIdManager[msg.sender].id].voter_eligible */\n      sload\n      0xff\n      and\n        /* \"BlockChainElection.sol\":3525:3629  require(voterEligible[voterIdManager[msg.sender].id].voter_eligible, \"You are not an authorized voter.\") */\n      tag_349\n      jumpi\n      mload(0x40)\n      shl(0xe5, 0x461bcd)\n      dup2\n      mstore\n        /* \"#utility.yul\":19719:19721   */\n      0x20\n        /* \"BlockChainElection.sol\":3525:3629  require(voterEligible[voterIdManager[msg.sender].id].voter_eligible, \"You are not an authorized voter.\") */\n      0x04\n      dup3\n      add\n        /* \"#utility.yul\":19701:19722   */\n      dup2\n      swap1\n      mstore\n        /* \"#utility.yul\":19738:19756   */\n      0x24\n      dup3\n      add\n        /* \"#utility.yul\":19731:19761   */\n      mstore\n        /* \"#utility.yul\":19797:19831   */\n      0x596f7520617265206e6f7420616e20617574686f72697a656420766f7465722e\n        /* \"#utility.yul\":19777:19795   */\n      0x44\n      dup3\n      add\n        /* \"#utility.yul\":19770:19832   */\n      mstore\n        /* \"#utility.yul\":19849:19867   */\n      0x64\n      add\n        /* \"BlockChainElection.sol\":3525:3629  require(voterEligible[voterIdManager[msg.sender].id].voter_eligible, \"You are not an authorized voter.\") */\n      tag_105\n        /* \"#utility.yul\":19517:19873   */\n      jump\n        /* \"BlockChainElection.sol\":3525:3629  require(voterEligible[voterIdManager[msg.sender].id].voter_eligible, \"You are not an authorized voter.\") */\n    tag_349:\n        /* \"BlockChainElection.sol\":3648:3672  voterEligible[_voter_id] */\n      0x00\n      dup2\n      dup2\n      mstore\n        /* \"BlockChainElection.sol\":3648:3661  voterEligible */\n      0x0d\n        /* \"BlockChainElection.sol\":3648:3672  voterEligible[_voter_id] */\n      0x20\n      mstore\n      0x40\n      swap1\n      keccak256\n        /* \"BlockChainElection.sol\":3648:3687  voterEligible[_voter_id].voter_eligible */\n      sload\n      0xff\n      and\n        /* \"BlockChainElection.sol\":3640:3725  require(voterEligible[_voter_id].voter_eligible, \"They are not an authorized voter.\") */\n      tag_351\n      jumpi\n      mload(0x40)\n      shl(0xe5, 0x461bcd)\n      dup2\n      mstore\n        /* \"#utility.yul\":20080:20082   */\n      0x20\n        /* \"BlockChainElection.sol\":3640:3725  require(voterEligible[_voter_id].voter_eligible, \"They are not an authorized voter.\") */\n      0x04\n      dup3\n      add\n        /* \"#utility.yul\":20062:20083   */\n      mstore\n        /* \"#utility.yul\":20119:20121   */\n      0x21\n        /* \"#utility.yul\":20099:20117   */\n      0x24\n      dup3\n      add\n        /* \"#utility.yul\":20092:20122   */\n      mstore\n        /* \"#utility.yul\":20158:20192   */\n      0x5468657920617265206e6f7420616e20617574686f72697a656420766f746572\n        /* \"#utility.yul\":20138:20156   */\n      0x44\n      dup3\n      add\n        /* \"#utility.yul\":20131:20193   */\n      mstore\n      shl(0xf9, 0x17)\n        /* \"#utility.yul\":20209:20227   */\n      0x64\n      dup3\n      add\n        /* \"#utility.yul\":20202:20233   */\n      mstore\n        /* \"#utility.yul\":20250:20269   */\n      0x84\n      add\n        /* \"BlockChainElection.sol\":3640:3725  require(voterEligible[_voter_id].voter_eligible, \"They are not an authorized voter.\") */\n      tag_105\n        /* \"#utility.yul\":19878:20275   */\n      jump\n        /* \"BlockChainElection.sol\":3640:3725  require(voterEligible[_voter_id].voter_eligible, \"They are not an authorized voter.\") */\n    tag_351:\n        /* \"BlockChainElection.sol\":8237:8246  _voter_id */\n      dup3\n        /* \"BlockChainElection.sol\":8248:8253  false */\n      0x00\n        /* \"BlockChainElection.sol\":4147:4148  0 */\n      dup1\n        /* \"BlockChainElection.sol\":4142:4144  id */\n      dup3\n        /* \"BlockChainElection.sol\":4142:4148  id > 0 */\n      gt\n        /* \"BlockChainElection.sol\":4142:4165  id > 0 && id < id_voter */\n      dup1\n      iszero\n      tag_360\n      jumpi\n      pop\n        /* \"BlockChainElection.sol\":4157:4165  id_voter */\n      sload(0x03)\n        /* \"BlockChainElection.sol\":4152:4154  id */\n      dup3\n        /* \"BlockChainElection.sol\":4152:4165  id < id_voter */\n      lt\n        /* \"BlockChainElection.sol\":4142:4165  id > 0 && id < id_voter */\n    tag_360:\n        /* \"BlockChainElection.sol\":4134:4186  require(id > 0 && id < id_voter, \"Invalid Voter Id\") */\n      tag_361\n      jumpi\n      mload(0x40)\n      shl(0xe5, 0x461bcd)\n      dup2\n      mstore\n      0x04\n      add\n      tag_105\n      swap1\n      tag_111\n      jump\t// in\n    tag_361:\n        /* \"BlockChainElection.sol\":8266:8291  delegatedVotes[_voter_id] */\n      0x00\n      dup6\n      dup2\n      mstore\n        /* \"BlockChainElection.sol\":8266:8280  delegatedVotes */\n      0x0f\n        /* \"BlockChainElection.sol\":8266:8291  delegatedVotes[_voter_id] */\n      0x20\n      swap1\n      dup2\n      mstore\n      0x40\n      dup1\n      dup4\n      keccak256\n        /* \"BlockChainElection.sol\":8298:8365  Delegated_Votes(voterIdManager[msg.sender].id, _relationship, true) */\n      dup2\n      mload\n      0x60\n      dup2\n      add\n      dup4\n      mstore\n        /* \"BlockChainElection.sol\":8329:8339  msg.sender */\n      caller\n        /* \"BlockChainElection.sol\":8314:8340  voterIdManager[msg.sender] */\n      dup6\n      mstore\n        /* \"BlockChainElection.sol\":8314:8328  voterIdManager */\n      0x08\n        /* \"BlockChainElection.sol\":8314:8340  voterIdManager[msg.sender] */\n      dup5\n      mstore\n      swap2\n      swap1\n      swap4\n      keccak256\n        /* \"BlockChainElection.sol\":8314:8343  voterIdManager[msg.sender].id */\n      sload\n        /* \"BlockChainElection.sol\":8298:8365  Delegated_Votes(voterIdManager[msg.sender].id, _relationship, true) */\n      dup2\n      mstore\n      swap1\n      dup2\n      add\n        /* \"BlockChainElection.sol\":8345:8358  _relationship */\n      dup7\n        /* \"BlockChainElection.sol\":8298:8365  Delegated_Votes(voterIdManager[msg.sender].id, _relationship, true) */\n      0x05\n      dup2\n      gt\n      iszero\n      tag_365\n      jumpi\n      tag_365\n      tag_366\n      jump\t// in\n    tag_365:\n      dup2\n      mstore\n        /* \"BlockChainElection.sol\":8360:8364  true */\n      0x01\n        /* \"BlockChainElection.sol\":8298:8365  Delegated_Votes(voterIdManager[msg.sender].id, _relationship, true) */\n      0x20\n      swap2\n      dup3\n      add\n      dup2\n      swap1\n      mstore\n        /* \"BlockChainElection.sol\":8266:8367  delegatedVotes[_voter_id].push( Delegated_Votes(voterIdManager[msg.sender].id, _relationship, true) ) */\n      dup4\n      sload\n      dup1\n      dup3\n      add\n      dup6\n      sstore\n        /* \"BlockChainElection.sol\":8298:8365  Delegated_Votes(voterIdManager[msg.sender].id, _relationship, true) */\n      0x00\n        /* \"BlockChainElection.sol\":8266:8367  delegatedVotes[_voter_id].push( Delegated_Votes(voterIdManager[msg.sender].id, _relationship, true) ) */\n      swap5\n      dup6\n      mstore\n      swap4\n      dup3\n      swap1\n      keccak256\n      dup4\n      mload\n      0x02\n      swap1\n      swap6\n      mul\n      add\n      swap4\n      dup5\n      sstore\n      swap1\n      dup3\n      add\n      mload\n      dup4\n      dup3\n      add\n      dup1\n      sload\n      swap4\n      swap5\n      swap4\n      swap2\n      swap3\n      swap1\n      swap2\n      not(0xff)\n      and\n      swap1\n      dup4\n      0x05\n      dup2\n      gt\n      iszero\n      tag_369\n      jumpi\n      tag_369\n      tag_366\n      jump\t// in\n    tag_369:\n      mul\n      or\n      swap1\n      sstore\n      pop\n      0x40\n      swap2\n      dup3\n      add\n      mload\n      0x01\n      swap2\n      dup3\n      add\n      dup1\n      sload\n      swap2\n      iszero\n      iszero\n      0x0100\n      mul\n      not(0xff00)\n      swap1\n      swap3\n      and\n      swap2\n      swap1\n      swap2\n      or\n      swap1\n      sstore\n        /* \"BlockChainElection.sol\":8387:8397  msg.sender */\n      caller\n      0x00\n        /* \"BlockChainElection.sol\":8378:8398  is_voted[msg.sender] */\n      swap1\n      dup2\n      mstore\n        /* \"BlockChainElection.sol\":8378:8386  is_voted */\n      0x0b\n        /* \"BlockChainElection.sol\":8378:8398  is_voted[msg.sender] */\n      0x20\n      mstore\n      swap2\n      swap1\n      swap2\n      keccak256\n        /* \"BlockChainElection.sol\":8378:8411  is_voted[msg.sender].voted = true */\n      dup1\n      sload\n      not(0xff)\n      and\n      swap1\n      swap2\n      or\n      swap1\n      sstore\n      pop\n      pop\n      pop\n      pop\n      pop\n        /* \"BlockChainElection.sol\":8117:8419  function delegate_my_vote(uint _voter_id, DelegatedRelationship _relationship) public delegateMyVote(_voter_id) validId(_voter_id, false) {... */\n      jump\t// out\n        /* \"BlockChainElection.sol\":11666:11910  function get_candidate_result(uint _candidate_id) public view validId(_candidate_id, true) returns (uint){... */\n    tag_80:\n        /* \"BlockChainElection.sol\":11766:11770  uint */\n      0x00\n        /* \"BlockChainElection.sol\":11736:11749  _candidate_id */\n      dup2\n        /* \"BlockChainElection.sol\":11751:11755  true */\n      0x01\n        /* \"BlockChainElection.sol\":4046:4047  0 */\n      0x00\n        /* \"BlockChainElection.sol\":4041:4043  id */\n      dup3\n        /* \"BlockChainElection.sol\":4041:4047  id > 0 */\n      gt\n        /* \"BlockChainElection.sol\":4041:4068  id > 0 && id < id_candidate */\n      dup1\n      iszero\n      tag_372\n      jumpi\n      pop\n        /* \"BlockChainElection.sol\":4056:4068  id_candidate */\n      sload(0x04)\n        /* \"BlockChainElection.sol\":4051:4053  id */\n      dup3\n        /* \"BlockChainElection.sol\":4051:4068  id < id_candidate */\n      lt\n        /* \"BlockChainElection.sol\":4041:4068  id > 0 && id < id_candidate */\n    tag_372:\n        /* \"BlockChainElection.sol\":4033:4093  require(id > 0 && id < id_candidate, \"Invalid Candidate Id\") */\n      tag_373\n      jumpi\n      mload(0x40)\n      shl(0xe5, 0x461bcd)\n      dup2\n      mstore\n      0x04\n      add\n      tag_105\n      swap1\n      tag_106\n      jump\t// in\n    tag_373:\n        /* \"BlockChainElection.sol\":11790:11804  election_ended */\n      sload(0x06)\n      0x0100\n      swap1\n      div\n      0xff\n      and\n        /* \"BlockChainElection.sol\":11782:11851  require(election_ended, \"You cannot view the results at the moment.\") */\n      tag_380\n      jumpi\n      mload(0x40)\n      shl(0xe5, 0x461bcd)\n      dup2\n      mstore\n      0x04\n      add\n      tag_105\n      swap1\n      tag_382\n      jump\t// in\n    tag_380:\n      pop\n      pop\n      pop\n        /* \"BlockChainElection.sol\":11869:11891  results[_candidate_id] */\n      0x00\n      swap1\n      dup2\n      mstore\n        /* \"BlockChainElection.sol\":11869:11876  results */\n      0x0c\n        /* \"BlockChainElection.sol\":11869:11891  results[_candidate_id] */\n      0x20\n      mstore\n      0x40\n      swap1\n      keccak256\n        /* \"BlockChainElection.sol\":11869:11902  results[_candidate_id].vote_count */\n      0x01\n      add\n      sload\n      swap1\n        /* \"BlockChainElection.sol\":11666:11910  function get_candidate_result(uint _candidate_id) public view validId(_candidate_id, true) returns (uint){... */\n      jump\t// out\n        /* \"BlockChainElection.sol\":7187:7633  function reject_or_ban_candidate(uint _candidate_id) public onlyElectionCommission validId(_candidate_id, true){... */\n    tag_84:\n        /* \"BlockChainElection.sol\":2529:2548  election_commission */\n      and(sub(shl(0xa0, 0x01), 0x01), sload(0x02))\n        /* \"BlockChainElection.sol\":2515:2525  msg.sender */\n      caller\n        /* \"BlockChainElection.sol\":2515:2548  msg.sender == election_commission */\n      eq\n        /* \"BlockChainElection.sol\":2507:2572  require(msg.sender == election_commission, \"Unauthorized access\") */\n      tag_384\n      jumpi\n      mload(0x40)\n      shl(0xe5, 0x461bcd)\n      dup2\n      mstore\n      0x04\n      add\n      tag_105\n      swap1\n      tag_126\n      jump\t// in\n    tag_384:\n        /* \"BlockChainElection.sol\":7278:7291  _candidate_id */\n      dup1\n        /* \"BlockChainElection.sol\":7293:7297  true */\n      0x01\n        /* \"BlockChainElection.sol\":4046:4047  0 */\n      0x00\n        /* \"BlockChainElection.sol\":4041:4043  id */\n      dup3\n        /* \"BlockChainElection.sol\":4041:4047  id > 0 */\n      gt\n        /* \"BlockChainElection.sol\":4041:4068  id > 0 && id < id_candidate */\n      dup1\n      iszero\n      tag_388\n      jumpi\n      pop\n        /* \"BlockChainElection.sol\":4056:4068  id_candidate */\n      sload(0x04)\n        /* \"BlockChainElection.sol\":4051:4053  id */\n      dup3\n        /* \"BlockChainElection.sol\":4051:4068  id < id_candidate */\n      lt\n        /* \"BlockChainElection.sol\":4041:4068  id > 0 && id < id_candidate */\n    tag_388:\n        /* \"BlockChainElection.sol\":4033:4093  require(id > 0 && id < id_candidate, \"Invalid Candidate Id\") */\n      tag_389\n      jumpi\n      mload(0x40)\n      shl(0xe5, 0x461bcd)\n      dup2\n      mstore\n      0x04\n      add\n      tag_105\n      swap1\n      tag_106\n      jump\t// in\n    tag_389:\n        /* \"BlockChainElection.sol\":7312:7344  candidateEligible[_candidate_id] */\n      0x00\n      dup4\n      dup2\n      mstore\n        /* \"BlockChainElection.sol\":7312:7329  candidateEligible */\n      0x0e\n        /* \"BlockChainElection.sol\":7312:7344  candidateEligible[_candidate_id] */\n      0x20\n      mstore\n      0x40\n      swap1\n      keccak256\n        /* \"BlockChainElection.sol\":7312:7362  candidateEligible[_candidate_id].candiate_eligible */\n      sload\n      0xff\n      and\n        /* \"BlockChainElection.sol\":7309:7626  if(candidateEligible[_candidate_id].candiate_eligible){... */\n      iszero\n      tag_396\n      jumpi\n        /* \"BlockChainElection.sol\":7431:7436  false */\n      0x00\n        /* \"BlockChainElection.sol\":7378:7410  candidateEligible[_candidate_id] */\n      dup4\n      dup2\n      mstore\n        /* \"BlockChainElection.sol\":7378:7395  candidateEligible */\n      0x0e\n        /* \"BlockChainElection.sol\":7378:7410  candidateEligible[_candidate_id] */\n      0x20\n      mstore\n      0x40\n      dup2\n      keccak256\n        /* \"BlockChainElection.sol\":7378:7436  candidateEligible[_candidate_id].candiate_eligible = false */\n      dup1\n      sload\n      not(0xff)\n      and\n      swap1\n      sstore\n      0x01\n        /* \"BlockChainElection.sol\":7451:7470  active_candidates-- */\n      dup1\n      sload\n      swap2\n      tag_397\n      dup4\n      tag_398\n      jump\t// in\n    tag_397:\n      swap1\n      swap2\n      sstore\n      pop\n      pop\n        /* \"BlockChainElection.sol\":7490:7523  Rejected_or_Banned(_candidate_id) */\n      mload(0x40)\n        /* \"#utility.yul\":6583:6608   */\n      dup4\n      dup2\n      mstore\n        /* \"BlockChainElection.sol\":7490:7523  Rejected_or_Banned(_candidate_id) */\n      0xfb0048bb5704410776033bb8355286fb6922cc0623412bd454152bac55397f35\n      swap1\n        /* \"#utility.yul\":6571:6573   */\n      0x20\n        /* \"#utility.yul\":6556:6574   */\n      add\n        /* \"BlockChainElection.sol\":7490:7523  Rejected_or_Banned(_candidate_id) */\n      tag_140\n        /* \"#utility.yul\":6437:6614   */\n      jump\n        /* \"BlockChainElection.sol\":7309:7626  if(candidateEligible[_candidate_id].candiate_eligible){... */\n    tag_396:\n        /* \"BlockChainElection.sol\":7554:7614  revert(\"The candidate has already been declined or banned.\") */\n      mload(0x40)\n      shl(0xe5, 0x461bcd)\n      dup2\n      mstore\n        /* \"#utility.yul\":21166:21168   */\n      0x20\n        /* \"BlockChainElection.sol\":7554:7614  revert(\"The candidate has already been declined or banned.\") */\n      0x04\n      dup3\n      add\n        /* \"#utility.yul\":21148:21169   */\n      mstore\n        /* \"#utility.yul\":21205:21207   */\n      0x32\n        /* \"#utility.yul\":21185:21203   */\n      0x24\n      dup3\n      add\n        /* \"#utility.yul\":21178:21208   */\n      mstore\n        /* \"#utility.yul\":21244:21278   */\n      0x5468652063616e6469646174652068617320616c7265616479206265656e2064\n        /* \"#utility.yul\":21224:21242   */\n      0x44\n      dup3\n      add\n        /* \"#utility.yul\":21217:21279   */\n      mstore\n      shl(0x71, 0x32b1b634b732b21037b9103130b73732b217)\n        /* \"#utility.yul\":21295:21313   */\n      0x64\n      dup3\n      add\n        /* \"#utility.yul\":21288:21336   */\n      mstore\n        /* \"#utility.yul\":21353:21372   */\n      0x84\n      add\n        /* \"BlockChainElection.sol\":7554:7614  revert(\"The candidate has already been declined or banned.\") */\n      tag_105\n        /* \"#utility.yul\":20964:21378   */\n      jump\n        /* \"BlockChainElection.sol\":10529:11525  function get_election_result() public view returns (string memory, uint, uint){... */\n    tag_86:\n        /* \"BlockChainElection.sol\":10581:10594  string memory */\n      0x60\n        /* \"BlockChainElection.sol\":10596:10600  uint */\n      0x00\n        /* \"BlockChainElection.sol\":10602:10606  uint */\n      dup1\n        /* \"BlockChainElection.sol\":10626:10640  election_ended */\n      0x06\n      0x01\n      swap1\n      sload\n      swap1\n      0x0100\n      exp\n      swap1\n      div\n      0xff\n      and\n        /* \"BlockChainElection.sol\":10618:10687  require(election_ended, \"You cannot view the results at the moment.\") */\n      tag_404\n      jumpi\n      mload(0x40)\n      shl(0xe5, 0x461bcd)\n      dup2\n      mstore\n      0x04\n      add\n      tag_105\n      swap1\n      tag_382\n      jump\t// in\n    tag_404:\n        /* \"BlockChainElection.sol\":10724:10725  1 */\n      0x01\n        /* \"BlockChainElection.sol\":10700:10713  uint max_vote */\n      0x00\n        /* \"BlockChainElection.sol\":10716:10726  results[1] */\n      swap1\n      dup2\n      mstore\n        /* \"BlockChainElection.sol\":10716:10737  results[1].vote_count */\n      sload(0xd421a5181c571bba3f01190c922c3b2a896fc1d84e86c9f17ac10e67ebef8b5d)\n        /* \"BlockChainElection.sol\":10788:10797  candidate */\n      0x09\n        /* \"BlockChainElection.sol\":10716:10726  results[1] */\n      0x20\n        /* \"BlockChainElection.sol\":10788:10800  candidate[1] */\n      mstore\n      0x92e85d02570a8092d09a6e3a57665bc3815a2699a4074001bf1ccabf660f5a36\n        /* \"BlockChainElection.sol\":10788:10813  candidate[1].candidate_id */\n      sload\n        /* \"BlockChainElection.sol\":10852:10879  candidate[1].candidate_name */\n      0x92e85d02570a8092d09a6e3a57665bc3815a2699a4074001bf1ccabf660f5a37\n        /* \"BlockChainElection.sol\":10824:10879  string memory winner_name = candidate[1].candidate_name */\n      dup1\n      sload\n        /* \"BlockChainElection.sol\":10716:10737  results[1].vote_count */\n      swap3\n      swap4\n        /* \"BlockChainElection.sol\":10700:10713  uint max_vote */\n      swap3\n      dup4\n      swap2\n        /* \"BlockChainElection.sol\":10852:10879  candidate[1].candidate_name */\n      swap1\n        /* \"BlockChainElection.sol\":10824:10879  string memory winner_name = candidate[1].candidate_name */\n      tag_406\n      swap1\n      tag_201\n      jump\t// in\n    tag_406:\n      dup1\n      0x1f\n      add\n      0x20\n      dup1\n      swap2\n      div\n      mul\n      0x20\n      add\n      mload(0x40)\n      swap1\n      dup2\n      add\n      0x40\n      mstore\n      dup1\n      swap3\n      swap2\n      swap1\n      dup2\n      dup2\n      mstore\n      0x20\n      add\n      dup3\n      dup1\n      sload\n      tag_407\n      swap1\n      tag_201\n      jump\t// in\n    tag_407:\n      dup1\n      iszero\n      tag_408\n      jumpi\n      dup1\n      0x1f\n      lt\n      tag_409\n      jumpi\n      0x0100\n      dup1\n      dup4\n      sload\n      div\n      mul\n      dup4\n      mstore\n      swap2\n      0x20\n      add\n      swap2\n      jump(tag_408)\n    tag_409:\n      dup3\n      add\n      swap2\n      swap1\n      0x00\n      mstore\n      keccak256(0x00, 0x20)\n      swap1\n    tag_410:\n      dup2\n      sload\n      dup2\n      mstore\n      swap1\n      0x01\n      add\n      swap1\n      0x20\n      add\n      dup1\n      dup4\n      gt\n      tag_410\n      jumpi\n      dup3\n      swap1\n      sub\n      0x1f\n      and\n      dup3\n      add\n      swap2\n    tag_408:\n      pop\n      swap4\n      swap5\n      pop\n        /* \"BlockChainElection.sol\":10905:10906  2 */\n      0x02\n      swap4\n      pop\n      pop\n      pop\n      pop\n        /* \"BlockChainElection.sol\":10892:11296  for(uint i = 2; i <= active_candidates; i++){... */\n    tag_411:\n        /* \"BlockChainElection.sol\":10913:10930  active_candidates */\n      sload(0x01)\n        /* \"BlockChainElection.sol\":10908:10909  i */\n      dup2\n        /* \"BlockChainElection.sol\":10908:10930  i <= active_candidates */\n      gt\n        /* \"BlockChainElection.sol\":10892:11296  for(uint i = 2; i <= active_candidates; i++){... */\n      tag_412\n      jumpi\n        /* \"BlockChainElection.sol\":10954:10964  results[i] */\n      0x00\n      dup2\n      dup2\n      mstore\n        /* \"BlockChainElection.sol\":10954:10961  results */\n      0x0c\n        /* \"BlockChainElection.sol\":10954:10964  results[i] */\n      0x20\n      mstore\n      0x40\n      swap1\n      keccak256\n        /* \"BlockChainElection.sol\":10954:10975  results[i].vote_count */\n      0x01\n      add\n      sload\n        /* \"BlockChainElection.sol\":10954:10986  results[i].vote_count > max_vote */\n      dup6\n      lt\n        /* \"BlockChainElection.sol\":10951:11285  if(results[i].vote_count > max_vote) {... */\n      iszero\n      tag_414\n      jumpi\n        /* \"BlockChainElection.sol\":11018:11028  results[i] */\n      0x00\n      dup2\n      dup2\n      mstore\n        /* \"BlockChainElection.sol\":11018:11025  results */\n      0x0c\n        /* \"BlockChainElection.sol\":11018:11028  results[i] */\n      0x20\n      swap1\n      dup2\n      mstore\n      0x40\n      dup1\n      dup4\n      keccak256\n        /* \"BlockChainElection.sol\":11018:11039  results[i].vote_count */\n      0x01\n      swap1\n      dup2\n      add\n      sload\n        /* \"BlockChainElection.sol\":11067:11076  candidate */\n      0x09\n        /* \"BlockChainElection.sol\":11067:11079  candidate[i] */\n      swap1\n      swap4\n      mstore\n      swap3\n      keccak256\n        /* \"BlockChainElection.sol\":11067:11092  candidate[i].candidate_id */\n      dup1\n      sload\n        /* \"BlockChainElection.sol\":11125:11152  candidate[i].candidate_name */\n      swap3\n      add\n        /* \"BlockChainElection.sol\":11111:11152  winner_name = candidate[i].candidate_name */\n      dup1\n      sload\n        /* \"BlockChainElection.sol\":11018:11039  results[i].vote_count */\n      swap2\n      swap8\n      pop\n        /* \"BlockChainElection.sol\":11067:11092  candidate[i].candidate_id */\n      swap2\n      swap5\n      pop\n        /* \"BlockChainElection.sol\":11111:11152  winner_name = candidate[i].candidate_name */\n      tag_415\n      swap1\n      tag_201\n      jump\t// in\n    tag_415:\n      dup1\n      0x1f\n      add\n      0x20\n      dup1\n      swap2\n      div\n      mul\n      0x20\n      add\n      mload(0x40)\n      swap1\n      dup2\n      add\n      0x40\n      mstore\n      dup1\n      swap3\n      swap2\n      swap1\n      dup2\n      dup2\n      mstore\n      0x20\n      add\n      dup3\n      dup1\n      sload\n      tag_416\n      swap1\n      tag_201\n      jump\t// in\n    tag_416:\n      dup1\n      iszero\n      tag_417\n      jumpi\n      dup1\n      0x1f\n      lt\n      tag_418\n      jumpi\n      0x0100\n      dup1\n      dup4\n      sload\n      div\n      mul\n      dup4\n      mstore\n      swap2\n      0x20\n      add\n      swap2\n      jump(tag_417)\n    tag_418:\n      dup3\n      add\n      swap2\n      swap1\n      0x00\n      mstore\n      keccak256(0x00, 0x20)\n      swap1\n    tag_419:\n      dup2\n      sload\n      dup2\n      mstore\n      swap1\n      0x01\n      add\n      swap1\n      0x20\n      add\n      dup1\n      dup4\n      gt\n      tag_419\n      jumpi\n      dup3\n      swap1\n      sub\n      0x1f\n      and\n      dup3\n      add\n      swap2\n    tag_417:\n      pop\n      pop\n      pop\n      pop\n      pop\n      swap2\n      pop\n        /* \"BlockChainElection.sol\":11180:11181  0 */\n      0x00\n        /* \"BlockChainElection.sol\":11171:11181  tie_id = 0 */\n      swap4\n      pop\n        /* \"BlockChainElection.sol\":10951:11285  if(results[i].vote_count > max_vote) {... */\n      jump(tag_421)\n    tag_414:\n        /* \"BlockChainElection.sol\":11205:11215  results[i] */\n      0x00\n      dup2\n      dup2\n      mstore\n        /* \"BlockChainElection.sol\":11205:11212  results */\n      0x0c\n        /* \"BlockChainElection.sol\":11205:11215  results[i] */\n      0x20\n      mstore\n      0x40\n      swap1\n      keccak256\n        /* \"BlockChainElection.sol\":11205:11226  results[i].vote_count */\n      0x01\n      add\n      sload\n        /* \"BlockChainElection.sol\":11205:11238  results[i].vote_count == max_vote */\n      dup6\n      swap1\n      sub\n        /* \"BlockChainElection.sol\":11202:11285  if(results[i].vote_count == max_vote) {... */\n      tag_421\n      jumpi\n        /* \"BlockChainElection.sol\":11268:11269  i */\n      dup1\n        /* \"BlockChainElection.sol\":11259:11269  tie_id = i */\n      swap4\n      pop\n        /* \"BlockChainElection.sol\":11202:11285  if(results[i].vote_count == max_vote) {... */\n    tag_421:\n        /* \"BlockChainElection.sol\":10932:10935  i++ */\n      dup1\n      tag_422\n      dup2\n      tag_139\n      jump\t// in\n    tag_422:\n      swap2\n      pop\n      pop\n        /* \"BlockChainElection.sol\":10892:11296  for(uint i = 2; i <= active_candidates; i++){... */\n      jump(tag_411)\n    tag_412:\n      pop\n        /* \"BlockChainElection.sol\":11311:11317  tie_id */\n      dup3\n        /* \"BlockChainElection.sol\":11321:11322  0 */\n      0x00\n        /* \"BlockChainElection.sol\":11311:11322  tie_id == 0 */\n      sub\n        /* \"BlockChainElection.sol\":11308:11518  if(tie_id == 0) {... */\n      tag_423\n      jumpi\n        /* \"BlockChainElection.sol\":11389:11400  winner_name */\n      dup1\n        /* \"BlockChainElection.sol\":11354:11401  abi.encodePacked(\"The winner is \", winner_name) */\n      add(0x20, mload(0x40))\n      tag_424\n      swap2\n      swap1\n      tag_425\n      jump\t// in\n    tag_424:\n      0x40\n      dup1\n      mload\n      not(0x1f)\n      dup2\n      dup5\n      sub\n      add\n      dup2\n      mstore\n      swap2\n      swap1\n      mstore\n      swap8\n        /* \"BlockChainElection.sol\":11404:11410  winner */\n      swap2\n      swap7\n      pop\n        /* \"BlockChainElection.sol\":11412:11420  max_vote */\n      swap3\n      swap5\n      pop\n        /* \"BlockChainElection.sol\":10529:11525  function get_election_result() public view returns (string memory, uint, uint){... */\n      swap3\n      pop\n      pop\n      pop\n      jump\t// out\n        /* \"BlockChainElection.sol\":11308:11518  if(tie_id == 0) {... */\n    tag_423:\n      pop\n        /* \"BlockChainElection.sol\":11454:11506  return (\"The result is Tie Between\", winner, tie_id) */\n      0x40\n      dup1\n      mload\n      dup1\n      dup3\n      add\n      swap1\n      swap2\n      mstore\n      0x19\n      dup2\n      mstore\n      0x54686520726573756c7420697320546965204265747765656e00000000000000\n      0x20\n      dup3\n      add\n      mstore\n      swap7\n        /* \"BlockChainElection.sol\":11491:11497  winner */\n      swap1\n      swap6\n      pop\n        /* \"BlockChainElection.sol\":11499:11505  tie_id */\n      swap1\n      swap4\n      pop\n        /* \"BlockChainElection.sol\":10529:11525  function get_election_result() public view returns (string memory, uint, uint){... */\n      swap2\n      pop\n      pop\n      jump\t// out\n        /* \"BlockChainElection.sol\":10271:10385  function get_candidate_list() public view returns (Candidate_List[] memory){... */\n    tag_90:\n        /* \"BlockChainElection.sol\":10322:10345  Candidate_List[] memory */\n      0x60\n        /* \"BlockChainElection.sol\":10364:10377  candidateList */\n      0x11\n        /* \"BlockChainElection.sol\":10357:10377  return candidateList */\n      dup1\n      sload\n      dup1\n      0x20\n      mul\n      0x20\n      add\n      mload(0x40)\n      swap1\n      dup2\n      add\n      0x40\n      mstore\n      dup1\n      swap3\n      swap2\n      swap1\n      dup2\n      dup2\n      mstore\n      0x20\n      add\n      0x00\n      swap1\n    tag_428:\n      dup3\n      dup3\n      lt\n      iszero\n      tag_198\n      jumpi\n      dup4\n      dup3\n      swap1\n      0x00\n      mstore\n      keccak256(0x00, 0x20)\n      swap1\n      0x05\n      mul\n      add\n      mload(0x40)\n      dup1\n      0xa0\n      add\n      0x40\n      mstore\n      swap1\n      dup2\n      0x00\n      dup3\n      add\n      sload\n      dup2\n      mstore\n      0x20\n      add\n      0x01\n      dup3\n      add\n      dup1\n      sload\n      tag_431\n      swap1\n      tag_201\n      jump\t// in\n    tag_431:\n      dup1\n      0x1f\n      add\n      0x20\n      dup1\n      swap2\n      div\n      mul\n      0x20\n      add\n      mload(0x40)\n      swap1\n      dup2\n      add\n      0x40\n      mstore\n      dup1\n      swap3\n      swap2\n      swap1\n      dup2\n      dup2\n      mstore\n      0x20\n      add\n      dup3\n      dup1\n      sload\n      tag_432\n      swap1\n      tag_201\n      jump\t// in\n    tag_432:\n      dup1\n      iszero\n      tag_433\n      jumpi\n      dup1\n      0x1f\n      lt\n      tag_434\n      jumpi\n      0x0100\n      dup1\n      dup4\n      sload\n      div\n      mul\n      dup4\n      mstore\n      swap2\n      0x20\n      add\n      swap2\n      jump(tag_433)\n    tag_434:\n      dup3\n      add\n      swap2\n      swap1\n      0x00\n      mstore\n      keccak256(0x00, 0x20)\n      swap1\n    tag_435:\n      dup2\n      sload\n      dup2\n      mstore\n      swap1\n      0x01\n      add\n      swap1\n      0x20\n      add\n      dup1\n      dup4\n      gt\n      tag_435\n      jumpi\n      dup3\n      swap1\n      sub\n      0x1f\n      and\n      dup3\n      add\n      swap2\n    tag_433:\n      pop\n      pop\n      pop\n      pop\n      pop\n      dup2\n      mstore\n      0x20\n      add\n      0x02\n      dup3\n      add\n      dup1\n      sload\n      tag_436\n      swap1\n      tag_201\n      jump\t// in\n    tag_436:\n      dup1\n      0x1f\n      add\n      0x20\n      dup1\n      swap2\n      div\n      mul\n      0x20\n      add\n      mload(0x40)\n      swap1\n      dup2\n      add\n      0x40\n      mstore\n      dup1\n      swap3\n      swap2\n      swap1\n      dup2\n      dup2\n      mstore\n      0x20\n      add\n      dup3\n      dup1\n      sload\n      tag_437\n      swap1\n      tag_201\n      jump\t// in\n    tag_437:\n      dup1\n      iszero\n      tag_438\n      jumpi\n      dup1\n      0x1f\n      lt\n      tag_439\n      jumpi\n      0x0100\n      dup1\n      dup4\n      sload\n      div\n      mul\n      dup4\n      mstore\n      swap2\n      0x20\n      add\n      swap2\n      jump(tag_438)\n    tag_439:\n      dup3\n      add\n      swap2\n      swap1\n      0x00\n      mstore\n      keccak256(0x00, 0x20)\n      swap1\n    tag_440:\n      dup2\n      sload\n      dup2\n      mstore\n      swap1\n      0x01\n      add\n      swap1\n      0x20\n      add\n      dup1\n      dup4\n      gt\n      tag_440\n      jumpi\n      dup3\n      swap1\n      sub\n      0x1f\n      and\n      dup3\n      add\n      swap2\n    tag_438:\n      pop\n      pop\n      pop\n      pop\n      pop\n      dup2\n      mstore\n      0x20\n      add\n      0x03\n      dup3\n      add\n      dup1\n      sload\n      tag_441\n      swap1\n      tag_201\n      jump\t// in\n    tag_441:\n      dup1\n      0x1f\n      add\n      0x20\n      dup1\n      swap2\n      div\n      mul\n      0x20\n      add\n      mload(0x40)\n      swap1\n      dup2\n      add\n      0x40\n      mstore\n      dup1\n      swap3\n      swap2\n      swap1\n      dup2\n      dup2\n      mstore\n      0x20\n      add\n      dup3\n      dup1\n      sload\n      tag_442\n      swap1\n      tag_201\n      jump\t// in\n    tag_442:\n      dup1\n      iszero\n      tag_443\n      jumpi\n      dup1\n      0x1f\n      lt\n      tag_444\n      jumpi\n      0x0100\n      dup1\n      dup4\n      sload\n      div\n      mul\n      dup4\n      mstore\n      swap2\n      0x20\n      add\n      swap2\n      jump(tag_443)\n    tag_444:\n      dup3\n      add\n      swap2\n      swap1\n      0x00\n      mstore\n      keccak256(0x00, 0x20)\n      swap1\n    tag_445:\n      dup2\n      sload\n      dup2\n      mstore\n      swap1\n      0x01\n      add\n      swap1\n      0x20\n      add\n      dup1\n      dup4\n      gt\n      tag_445\n      jumpi\n      dup3\n      swap1\n      sub\n      0x1f\n      and\n      dup3\n      add\n      swap2\n    tag_443:\n      pop\n      pop\n      pop\n      pop\n      pop\n      dup2\n      mstore\n      0x20\n      add\n      0x04\n      dup3\n      add\n      dup1\n      sload\n      tag_446\n      swap1\n      tag_201\n      jump\t// in\n    tag_446:\n      dup1\n      0x1f\n      add\n      0x20\n      dup1\n      swap2\n      div\n      mul\n      0x20\n      add\n      mload(0x40)\n      swap1\n      dup2\n      add\n      0x40\n      mstore\n      dup1\n      swap3\n      swap2\n      swap1\n      dup2\n      dup2\n      mstore\n      0x20\n      add\n      dup3\n      dup1\n      sload\n      tag_447\n      swap1\n      tag_201\n      jump\t// in\n    tag_447:\n      dup1\n      iszero\n      tag_448\n      jumpi\n      dup1\n      0x1f\n      lt\n      tag_449\n      jumpi\n      0x0100\n      dup1\n      dup4\n      sload\n      div\n      mul\n      dup4\n      mstore\n      swap2\n      0x20\n      add\n      swap2\n      jump(tag_448)\n    tag_449:\n      dup3\n      add\n      swap2\n      swap1\n      0x00\n      mstore\n      keccak256(0x00, 0x20)\n      swap1\n    tag_450:\n      dup2\n      sload\n      dup2\n      mstore\n      swap1\n      0x01\n      add\n      swap1\n      0x20\n      add\n      dup1\n      dup4\n      gt\n      tag_450\n      jumpi\n      dup3\n      swap1\n      sub\n      0x1f\n      and\n      dup3\n      add\n      swap2\n    tag_448:\n      pop\n      pop\n      pop\n      pop\n      pop\n      dup2\n      mstore\n      pop\n      pop\n      dup2\n      mstore\n      0x20\n      add\n      swap1\n      0x01\n      add\n      swap1\n      jump(tag_428)\n        /* \"BlockChainElection.sol\":5542:5949  function reject_or_ban_voter(uint _voter_id) public onlyElectionCommission validId(_voter_id, false){... */\n    tag_95:\n        /* \"BlockChainElection.sol\":2529:2548  election_commission */\n      and(sub(shl(0xa0, 0x01), 0x01), sload(0x02))\n        /* \"BlockChainElection.sol\":2515:2525  msg.sender */\n      caller\n        /* \"BlockChainElection.sol\":2515:2548  msg.sender == election_commission */\n      eq\n        /* \"BlockChainElection.sol\":2507:2572  require(msg.sender == election_commission, \"Unauthorized access\") */\n      tag_452\n      jumpi\n      mload(0x40)\n      shl(0xe5, 0x461bcd)\n      dup2\n      mstore\n      0x04\n      add\n      tag_105\n      swap1\n      tag_126\n      jump\t// in\n    tag_452:\n        /* \"BlockChainElection.sol\":5625:5634  _voter_id */\n      dup1\n        /* \"BlockChainElection.sol\":5636:5641  false */\n      0x00\n        /* \"BlockChainElection.sol\":4147:4148  0 */\n      dup1\n        /* \"BlockChainElection.sol\":4142:4144  id */\n      dup3\n        /* \"BlockChainElection.sol\":4142:4148  id > 0 */\n      gt\n        /* \"BlockChainElection.sol\":4142:4165  id > 0 && id < id_voter */\n      dup1\n      iszero\n      tag_460\n      jumpi\n      pop\n        /* \"BlockChainElection.sol\":4157:4165  id_voter */\n      sload(0x03)\n        /* \"BlockChainElection.sol\":4152:4154  id */\n      dup3\n        /* \"BlockChainElection.sol\":4152:4165  id < id_voter */\n      lt\n        /* \"BlockChainElection.sol\":4142:4165  id > 0 && id < id_voter */\n    tag_460:\n        /* \"BlockChainElection.sol\":4134:4186  require(id > 0 && id < id_voter, \"Invalid Voter Id\") */\n      tag_461\n      jumpi\n      mload(0x40)\n      shl(0xe5, 0x461bcd)\n      dup2\n      mstore\n      0x04\n      add\n      tag_105\n      swap1\n      tag_111\n      jump\t// in\n    tag_461:\n        /* \"BlockChainElection.sol\":5656:5680  voterEligible[_voter_id] */\n      0x00\n      dup4\n      dup2\n      mstore\n        /* \"BlockChainElection.sol\":5656:5669  voterEligible */\n      0x0d\n        /* \"BlockChainElection.sol\":5656:5680  voterEligible[_voter_id] */\n      0x20\n      mstore\n      0x40\n      swap1\n      keccak256\n        /* \"BlockChainElection.sol\":5656:5695  voterEligible[_voter_id].voter_eligible */\n      sload\n      0xff\n      and\n        /* \"BlockChainElection.sol\":5653:5942  if(voterEligible[_voter_id].voter_eligible){... */\n      iszero\n      tag_464\n      jumpi\n        /* \"BlockChainElection.sol\":5753:5758  false */\n      0x00\n        /* \"BlockChainElection.sol\":5711:5735  voterEligible[_voter_id] */\n      dup4\n      dup2\n      mstore\n        /* \"BlockChainElection.sol\":5711:5724  voterEligible */\n      0x0d\n        /* \"BlockChainElection.sol\":5711:5735  voterEligible[_voter_id] */\n      0x20\n      mstore\n      0x40\n      dup2\n      keccak256\n        /* \"BlockChainElection.sol\":5711:5758  voterEligible[_voter_id].voter_eligible = false */\n      dup1\n      sload\n      not(0xff)\n      and\n      swap1\n      sstore\n        /* \"BlockChainElection.sol\":5773:5794  total_active_voters-- */\n      dup1\n      sload\n      swap1\n        /* \"BlockChainElection.sol\":5753:5758  false */\n      dup1\n        /* \"BlockChainElection.sol\":5773:5794  total_active_voters-- */\n      tag_397\n      dup4\n      tag_398\n      jump\t// in\n        /* \"BlockChainElection.sol\":5653:5942  if(voterEligible[_voter_id].voter_eligible){... */\n    tag_464:\n        /* \"BlockChainElection.sol\":5874:5930  revert(\"The voter has already been declined or banned.\") */\n      mload(0x40)\n      shl(0xe5, 0x461bcd)\n      dup2\n      mstore\n        /* \"#utility.yul\":22036:22038   */\n      0x20\n        /* \"BlockChainElection.sol\":5874:5930  revert(\"The voter has already been declined or banned.\") */\n      0x04\n      dup3\n      add\n        /* \"#utility.yul\":22018:22039   */\n      mstore\n        /* \"#utility.yul\":22075:22077   */\n      0x2e\n        /* \"#utility.yul\":22055:22073   */\n      0x24\n      dup3\n      add\n        /* \"#utility.yul\":22048:22078   */\n      mstore\n        /* \"#utility.yul\":22114:22148   */\n      0x54686520766f7465722068617320616c7265616479206265656e206465636c69\n        /* \"#utility.yul\":22094:22112   */\n      0x44\n      dup3\n      add\n        /* \"#utility.yul\":22087:22149   */\n      mstore\n      shl(0x91, 0x3732b21037b9103130b73732b217)\n        /* \"#utility.yul\":22165:22183   */\n      0x64\n      dup3\n      add\n        /* \"#utility.yul\":22158:22202   */\n      mstore\n        /* \"#utility.yul\":22219:22238   */\n      0x84\n      add\n        /* \"BlockChainElection.sol\":5874:5930  revert(\"The voter has already been declined or banned.\") */\n      tag_105\n        /* \"#utility.yul\":21834:22244   */\n      jump\n        /* \"BlockChainElection.sol\":9932:10083  function get_voter_detail(uint _voter_id) public view validId(_voter_id, false) returns (Voters_List memory){... */\n    tag_98:\n        /* \"BlockChainElection.sol\":10021:10039  Voters_List memory */\n      tag_470\n      mload(0x40)\n      dup1\n      0xa0\n      add\n      0x40\n      mstore\n      dup1\n      0x00\n      dup2\n      mstore\n      0x20\n      add\n      0x60\n      dup2\n      mstore\n      0x20\n      add\n      0x60\n      dup2\n      mstore\n      0x20\n      add\n      and(0xff, 0x00)\n      dup2\n      mstore\n      0x20\n      add\n      0x60\n      dup2\n      mstore\n      pop\n      swap1\n      jump\n    tag_470:\n        /* \"BlockChainElection.sol\":9994:10003  _voter_id */\n      dup2\n        /* \"BlockChainElection.sol\":10005:10010  false */\n      0x00\n        /* \"BlockChainElection.sol\":4147:4148  0 */\n      dup1\n        /* \"BlockChainElection.sol\":4142:4144  id */\n      dup3\n        /* \"BlockChainElection.sol\":4142:4148  id > 0 */\n      gt\n        /* \"BlockChainElection.sol\":4142:4165  id > 0 && id < id_voter */\n      dup1\n      iszero\n      tag_478\n      jumpi\n      pop\n        /* \"BlockChainElection.sol\":4157:4165  id_voter */\n      sload(0x03)\n        /* \"BlockChainElection.sol\":4152:4154  id */\n      dup3\n        /* \"BlockChainElection.sol\":4152:4165  id < id_voter */\n      lt\n        /* \"BlockChainElection.sol\":4142:4165  id > 0 && id < id_voter */\n    tag_478:\n        /* \"BlockChainElection.sol\":4134:4186  require(id > 0 && id < id_voter, \"Invalid Voter Id\") */\n      tag_479\n      jumpi\n      mload(0x40)\n      shl(0xe5, 0x461bcd)\n      dup2\n      mstore\n      0x04\n      add\n      tag_105\n      swap1\n      tag_111\n      jump\t// in\n    tag_479:\n        /* \"BlockChainElection.sol\":10058:10064  voters */\n      0x07\n        /* \"BlockChainElection.sol\":10058:10075  voters[_voter_id] */\n      0x00\n        /* \"BlockChainElection.sol\":10065:10074  _voter_id */\n      dup6\n        /* \"BlockChainElection.sol\":10058:10075  voters[_voter_id] */\n      dup2\n      mstore\n      0x20\n      add\n      swap1\n      dup2\n      mstore\n      0x20\n      add\n      0x00\n      keccak256\n        /* \"BlockChainElection.sol\":10051:10075  return voters[_voter_id] */\n      mload(0x40)\n      dup1\n      0xa0\n      add\n      0x40\n      mstore\n      swap1\n      dup2\n      0x00\n      dup3\n      add\n      sload\n      dup2\n      mstore\n      0x20\n      add\n      0x01\n      dup3\n      add\n      dup1\n      sload\n      tag_482\n      swap1\n      tag_201\n      jump\t// in\n    tag_482:\n      dup1\n      0x1f\n      add\n      0x20\n      dup1\n      swap2\n      div\n      mul\n      0x20\n      add\n      mload(0x40)\n      swap1\n      dup2\n      add\n      0x40\n      mstore\n      dup1\n      swap3\n      swap2\n      swap1\n      dup2\n      dup2\n      mstore\n      0x20\n      add\n      dup3\n      dup1\n      sload\n      tag_483\n      swap1\n      tag_201\n      jump\t// in\n    tag_483:\n      dup1\n      iszero\n      tag_484\n      jumpi\n      dup1\n      0x1f\n      lt\n      tag_485\n      jumpi\n      0x0100\n      dup1\n      dup4\n      sload\n      div\n      mul\n      dup4\n      mstore\n      swap2\n      0x20\n      add\n      swap2\n      jump(tag_484)\n    tag_485:\n      dup3\n      add\n      swap2\n      swap1\n      0x00\n      mstore\n      keccak256(0x00, 0x20)\n      swap1\n    tag_486:\n      dup2\n      sload\n      dup2\n      mstore\n      swap1\n      0x01\n      add\n      swap1\n      0x20\n      add\n      dup1\n      dup4\n      gt\n      tag_486\n      jumpi\n      dup3\n      swap1\n      sub\n      0x1f\n      and\n      dup3\n      add\n      swap2\n    tag_484:\n      pop\n      pop\n      pop\n      pop\n      pop\n      dup2\n      mstore\n      0x20\n      add\n      0x02\n      dup3\n      add\n      dup1\n      sload\n      tag_487\n      swap1\n      tag_201\n      jump\t// in\n    tag_487:\n      dup1\n      0x1f\n      add\n      0x20\n      dup1\n      swap2\n      div\n      mul\n      0x20\n      add\n      mload(0x40)\n      swap1\n      dup2\n      add\n      0x40\n      mstore\n      dup1\n      swap3\n      swap2\n      swap1\n      dup2\n      dup2\n      mstore\n      0x20\n      add\n      dup3\n      dup1\n      sload\n      tag_488\n      swap1\n      tag_201\n      jump\t// in\n    tag_488:\n      dup1\n      iszero\n      tag_489\n      jumpi\n      dup1\n      0x1f\n      lt\n      tag_490\n      jumpi\n      0x0100\n      dup1\n      dup4\n      sload\n      div\n      mul\n      dup4\n      mstore\n      swap2\n      0x20\n      add\n      swap2\n      jump(tag_489)\n    tag_490:\n      dup3\n      add\n      swap2\n      swap1\n      0x00\n      mstore\n      keccak256(0x00, 0x20)\n      swap1\n    tag_491:\n      dup2\n      sload\n      dup2\n      mstore\n      swap1\n      0x01\n      add\n      swap1\n      0x20\n      add\n      dup1\n      dup4\n      gt\n      tag_491\n      jumpi\n      dup3\n      swap1\n      sub\n      0x1f\n      and\n      dup3\n      add\n      swap2\n    tag_489:\n      pop\n      pop\n      pop\n      swap2\n      dup4\n      mstore\n      pop\n      pop\n      0x03\n      dup3\n      add\n      sload\n      0xff\n      and\n      0x20\n      dup3\n      add\n      mstore\n      0x04\n      dup3\n      add\n      dup1\n      sload\n      0x40\n      swap1\n      swap3\n      add\n      swap2\n      tag_320\n      swap1\n      tag_201\n      jump\t// in\n        /* \"#utility.yul\":14:194   */\n    tag_28:\n        /* \"#utility.yul\":73:79   */\n      0x00\n        /* \"#utility.yul\":126:128   */\n      0x20\n        /* \"#utility.yul\":114:123   */\n      dup3\n        /* \"#utility.yul\":105:112   */\n      dup5\n        /* \"#utility.yul\":101:124   */\n      sub\n        /* \"#utility.yul\":97:129   */\n      slt\n        /* \"#utility.yul\":94:146   */\n      iszero\n      tag_509\n      jumpi\n        /* \"#utility.yul\":142:143   */\n      0x00\n        /* \"#utility.yul\":139:140   */\n      dup1\n        /* \"#utility.yul\":132:144   */\n      revert\n        /* \"#utility.yul\":94:146   */\n    tag_509:\n      pop\n        /* \"#utility.yul\":165:188   */\n      calldataload\n      swap2\n        /* \"#utility.yul\":14:194   */\n      swap1\n      pop\n      jump\t// out\n        /* \"#utility.yul\":391:639   */\n    tag_41:\n        /* \"#utility.yul\":459:465   */\n      0x00\n        /* \"#utility.yul\":467:473   */\n      dup1\n        /* \"#utility.yul\":520:522   */\n      0x40\n        /* \"#utility.yul\":508:517   */\n      dup4\n        /* \"#utility.yul\":499:506   */\n      dup6\n        /* \"#utility.yul\":495:518   */\n      sub\n        /* \"#utility.yul\":491:523   */\n      slt\n        /* \"#utility.yul\":488:540   */\n      iszero\n      tag_512\n      jumpi\n        /* \"#utility.yul\":536:537   */\n      0x00\n        /* \"#utility.yul\":533:534   */\n      dup1\n        /* \"#utility.yul\":526:538   */\n      revert\n        /* \"#utility.yul\":488:540   */\n    tag_512:\n      pop\n      pop\n        /* \"#utility.yul\":559:582   */\n      dup1\n      calldataload\n      swap3\n        /* \"#utility.yul\":629:631   */\n      0x20\n        /* \"#utility.yul\":614:632   */\n      swap1\n      swap2\n      add\n        /* \"#utility.yul\":601:633   */\n      calldataload\n      swap2\n      pop\n        /* \"#utility.yul\":391:639   */\n      jump\t// out\n        /* \"#utility.yul\":644:894   */\n    tag_497:\n        /* \"#utility.yul\":729:730   */\n      0x00\n        /* \"#utility.yul\":739:852   */\n    tag_514:\n        /* \"#utility.yul\":753:759   */\n      dup4\n        /* \"#utility.yul\":750:751   */\n      dup2\n        /* \"#utility.yul\":747:760   */\n      lt\n        /* \"#utility.yul\":739:852   */\n      iszero\n      tag_516\n      jumpi\n        /* \"#utility.yul\":829:840   */\n      dup2\n      dup2\n      add\n        /* \"#utility.yul\":823:841   */\n      mload\n        /* \"#utility.yul\":810:821   */\n      dup4\n      dup3\n      add\n        /* \"#utility.yul\":803:842   */\n      mstore\n        /* \"#utility.yul\":775:777   */\n      0x20\n        /* \"#utility.yul\":768:778   */\n      add\n        /* \"#utility.yul\":739:852   */\n      jump(tag_514)\n    tag_516:\n      pop\n      pop\n        /* \"#utility.yul\":886:887   */\n      0x00\n        /* \"#utility.yul\":868:884   */\n      swap2\n      add\n        /* \"#utility.yul\":861:888   */\n      mstore\n        /* \"#utility.yul\":644:894   */\n      jump\t// out\n        /* \"#utility.yul\":899:1170   */\n    tag_498:\n        /* \"#utility.yul\":941:944   */\n      0x00\n        /* \"#utility.yul\":979:984   */\n      dup2\n        /* \"#utility.yul\":973:985   */\n      mload\n        /* \"#utility.yul\":1006:1012   */\n      dup1\n        /* \"#utility.yul\":1001:1004   */\n      dup5\n        /* \"#utility.yul\":994:1013   */\n      mstore\n        /* \"#utility.yul\":1022:1098   */\n      tag_518\n        /* \"#utility.yul\":1091:1097   */\n      dup2\n        /* \"#utility.yul\":1084:1088   */\n      0x20\n        /* \"#utility.yul\":1079:1082   */\n      dup7\n        /* \"#utility.yul\":1075:1089   */\n      add\n        /* \"#utility.yul\":1068:1072   */\n      0x20\n        /* \"#utility.yul\":1061:1066   */\n      dup7\n        /* \"#utility.yul\":1057:1073   */\n      add\n        /* \"#utility.yul\":1022:1098   */\n      tag_497\n      jump\t// in\n    tag_518:\n        /* \"#utility.yul\":1152:1154   */\n      0x1f\n        /* \"#utility.yul\":1131:1146   */\n      add\n      not(0x1f)\n        /* \"#utility.yul\":1127:1156   */\n      and\n        /* \"#utility.yul\":1118:1157   */\n      swap3\n      swap1\n      swap3\n      add\n        /* \"#utility.yul\":1159:1163   */\n      0x20\n        /* \"#utility.yul\":1114:1164   */\n      add\n      swap3\n        /* \"#utility.yul\":899:1170   */\n      swap2\n      pop\n      pop\n      jump\t// out\n        /* \"#utility.yul\":1175:1825   */\n    tag_499:\n        /* \"#utility.yul\":1265:1270   */\n      dup1\n        /* \"#utility.yul\":1259:1271   */\n      mload\n        /* \"#utility.yul\":1254:1257   */\n      dup3\n        /* \"#utility.yul\":1247:1272   */\n      mstore\n        /* \"#utility.yul\":1229:1232   */\n      0x00\n        /* \"#utility.yul\":1318:1322   */\n      0x20\n        /* \"#utility.yul\":1311:1316   */\n      dup3\n        /* \"#utility.yul\":1307:1323   */\n      add\n        /* \"#utility.yul\":1301:1324   */\n      mload\n        /* \"#utility.yul\":1356:1360   */\n      0xa0\n        /* \"#utility.yul\":1349:1353   */\n      0x20\n        /* \"#utility.yul\":1344:1347   */\n      dup6\n        /* \"#utility.yul\":1340:1354   */\n      add\n        /* \"#utility.yul\":1333:1361   */\n      mstore\n        /* \"#utility.yul\":1382:1429   */\n      tag_520\n        /* \"#utility.yul\":1423:1427   */\n      0xa0\n        /* \"#utility.yul\":1418:1421   */\n      dup6\n        /* \"#utility.yul\":1414:1428   */\n      add\n        /* \"#utility.yul\":1400:1412   */\n      dup3\n        /* \"#utility.yul\":1382:1429   */\n      tag_498\n      jump\t// in\n    tag_520:\n        /* \"#utility.yul\":1370:1429   */\n      swap1\n      pop\n        /* \"#utility.yul\":1477:1481   */\n      0x40\n        /* \"#utility.yul\":1470:1475   */\n      dup4\n        /* \"#utility.yul\":1466:1482   */\n      add\n        /* \"#utility.yul\":1460:1483   */\n      mload\n        /* \"#utility.yul\":1525:1528   */\n      dup5\n        /* \"#utility.yul\":1519:1523   */\n      dup3\n        /* \"#utility.yul\":1515:1529   */\n      sub\n        /* \"#utility.yul\":1508:1512   */\n      0x40\n        /* \"#utility.yul\":1503:1506   */\n      dup7\n        /* \"#utility.yul\":1499:1513   */\n      add\n        /* \"#utility.yul\":1492:1530   */\n      mstore\n        /* \"#utility.yul\":1553:1592   */\n      tag_521\n        /* \"#utility.yul\":1587:1591   */\n      dup3\n        /* \"#utility.yul\":1571:1585   */\n      dup3\n        /* \"#utility.yul\":1553:1592   */\n      tag_498\n      jump\t// in\n    tag_521:\n        /* \"#utility.yul\":1539:1592   */\n      swap2\n      pop\n      pop\n        /* \"#utility.yul\":1653:1657   */\n      0xff\n        /* \"#utility.yul\":1645:1649   */\n      0x60\n        /* \"#utility.yul\":1638:1643   */\n      dup5\n        /* \"#utility.yul\":1634:1650   */\n      add\n        /* \"#utility.yul\":1628:1651   */\n      mload\n        /* \"#utility.yul\":1624:1658   */\n      and\n        /* \"#utility.yul\":1617:1621   */\n      0x60\n        /* \"#utility.yul\":1612:1615   */\n      dup6\n        /* \"#utility.yul\":1608:1622   */\n      add\n        /* \"#utility.yul\":1601:1659   */\n      mstore\n        /* \"#utility.yul\":1707:1711   */\n      0x80\n        /* \"#utility.yul\":1700:1705   */\n      dup4\n        /* \"#utility.yul\":1696:1712   */\n      add\n        /* \"#utility.yul\":1690:1713   */\n      mload\n        /* \"#utility.yul\":1757:1760   */\n      dup5\n        /* \"#utility.yul\":1749:1755   */\n      dup3\n        /* \"#utility.yul\":1745:1761   */\n      sub\n        /* \"#utility.yul\":1738:1742   */\n      0x80\n        /* \"#utility.yul\":1733:1736   */\n      dup7\n        /* \"#utility.yul\":1729:1743   */\n      add\n        /* \"#utility.yul\":1722:1762   */\n      mstore\n        /* \"#utility.yul\":1778:1819   */\n      tag_522\n        /* \"#utility.yul\":1812:1818   */\n      dup3\n        /* \"#utility.yul\":1796:1810   */\n      dup3\n        /* \"#utility.yul\":1778:1819   */\n      tag_498\n      jump\t// in\n    tag_522:\n        /* \"#utility.yul\":1771:1819   */\n      swap6\n        /* \"#utility.yul\":1175:1825   */\n      swap5\n      pop\n      pop\n      pop\n      pop\n      pop\n      jump\t// out\n        /* \"#utility.yul\":1830:2681   */\n    tag_46:\n        /* \"#utility.yul\":2028:2032   */\n      0x00\n        /* \"#utility.yul\":2057:2059   */\n      0x20\n        /* \"#utility.yul\":2097:2099   */\n      dup1\n        /* \"#utility.yul\":2086:2095   */\n      dup4\n        /* \"#utility.yul\":2082:2100   */\n      add\n        /* \"#utility.yul\":2127:2129   */\n      dup2\n        /* \"#utility.yul\":2116:2125   */\n      dup5\n        /* \"#utility.yul\":2109:2130   */\n      mstore\n        /* \"#utility.yul\":2150:2156   */\n      dup1\n        /* \"#utility.yul\":2185:2191   */\n      dup6\n        /* \"#utility.yul\":2179:2192   */\n      mload\n        /* \"#utility.yul\":2216:2222   */\n      dup1\n        /* \"#utility.yul\":2208:2214   */\n      dup4\n        /* \"#utility.yul\":2201:2223   */\n      mstore\n        /* \"#utility.yul\":2254:2256   */\n      0x40\n        /* \"#utility.yul\":2243:2252   */\n      dup7\n        /* \"#utility.yul\":2239:2257   */\n      add\n        /* \"#utility.yul\":2232:2257   */\n      swap2\n      pop\n        /* \"#utility.yul\":2316:2318   */\n      0x40\n        /* \"#utility.yul\":2306:2312   */\n      dup2\n        /* \"#utility.yul\":2303:2304   */\n      0x05\n        /* \"#utility.yul\":2299:2313   */\n      shl\n        /* \"#utility.yul\":2288:2297   */\n      dup8\n        /* \"#utility.yul\":2284:2314   */\n      add\n        /* \"#utility.yul\":2280:2319   */\n      add\n        /* \"#utility.yul\":2266:2319   */\n      swap3\n      pop\n        /* \"#utility.yul\":2354:2356   */\n      dup4\n        /* \"#utility.yul\":2346:2352   */\n      dup8\n        /* \"#utility.yul\":2342:2357   */\n      add\n        /* \"#utility.yul\":2375:2376   */\n      0x00\n        /* \"#utility.yul\":2385:2652   */\n    tag_524:\n        /* \"#utility.yul\":2399:2405   */\n      dup3\n        /* \"#utility.yul\":2396:2397   */\n      dup2\n        /* \"#utility.yul\":2393:2406   */\n      lt\n        /* \"#utility.yul\":2385:2652   */\n      iszero\n      tag_526\n      jumpi\n        /* \"#utility.yul\":2492:2494   */\n      0x3f\n        /* \"#utility.yul\":2488:2495   */\n      not\n        /* \"#utility.yul\":2476:2485   */\n      dup9\n        /* \"#utility.yul\":2468:2474   */\n      dup7\n        /* \"#utility.yul\":2464:2486   */\n      sub\n        /* \"#utility.yul\":2460:2496   */\n      add\n        /* \"#utility.yul\":2455:2458   */\n      dup5\n        /* \"#utility.yul\":2448:2497   */\n      mstore\n        /* \"#utility.yul\":2520:2572   */\n      tag_527\n        /* \"#utility.yul\":2565:2571   */\n      dup6\n        /* \"#utility.yul\":2556:2562   */\n      dup4\n        /* \"#utility.yul\":2550:2563   */\n      mload\n        /* \"#utility.yul\":2520:2572   */\n      tag_499\n      jump\t// in\n    tag_527:\n        /* \"#utility.yul\":2510:2572   */\n      swap5\n      pop\n        /* \"#utility.yul\":2630:2642   */\n      swap3\n      dup6\n      add\n      swap3\n        /* \"#utility.yul\":2595:2610   */\n      swap1\n      dup6\n      add\n      swap1\n        /* \"#utility.yul\":2421:2422   */\n      0x01\n        /* \"#utility.yul\":2414:2423   */\n      add\n        /* \"#utility.yul\":2385:2652   */\n      jump(tag_524)\n    tag_526:\n      pop\n        /* \"#utility.yul\":2669:2675   */\n      swap3\n      swap8\n        /* \"#utility.yul\":1830:2681   */\n      swap7\n      pop\n      pop\n      pop\n      pop\n      pop\n      pop\n      pop\n      jump\t// out\n        /* \"#utility.yul\":2686:2813   */\n    tag_500:\n        /* \"#utility.yul\":2747:2757   */\n      0x4e487b71\n        /* \"#utility.yul\":2742:2745   */\n      0xe0\n        /* \"#utility.yul\":2738:2758   */\n      shl\n        /* \"#utility.yul\":2735:2736   */\n      0x00\n        /* \"#utility.yul\":2728:2759   */\n      mstore\n        /* \"#utility.yul\":2778:2782   */\n      0x41\n        /* \"#utility.yul\":2775:2776   */\n      0x04\n        /* \"#utility.yul\":2768:2783   */\n      mstore\n        /* \"#utility.yul\":2802:2806   */\n      0x24\n        /* \"#utility.yul\":2799:2800   */\n      0x00\n        /* \"#utility.yul\":2792:2807   */\n      revert\n        /* \"#utility.yul\":2818:3537   */\n    tag_501:\n        /* \"#utility.yul\":2861:2866   */\n      0x00\n        /* \"#utility.yul\":2914:2917   */\n      dup3\n        /* \"#utility.yul\":2907:2911   */\n      0x1f\n        /* \"#utility.yul\":2899:2905   */\n      dup4\n        /* \"#utility.yul\":2895:2912   */\n      add\n        /* \"#utility.yul\":2891:2918   */\n      slt\n        /* \"#utility.yul\":2881:2936   */\n      tag_530\n      jumpi\n        /* \"#utility.yul\":2932:2933   */\n      0x00\n        /* \"#utility.yul\":2929:2930   */\n      dup1\n        /* \"#utility.yul\":2922:2934   */\n      revert\n        /* \"#utility.yul\":2881:2936   */\n    tag_530:\n        /* \"#utility.yul\":2968:2974   */\n      dup2\n        /* \"#utility.yul\":2955:2975   */\n      calldataload\n        /* \"#utility.yul\":2994:3012   */\n      0xffffffffffffffff\n        /* \"#utility.yul\":3031:3033   */\n      dup1\n        /* \"#utility.yul\":3027:3029   */\n      dup3\n        /* \"#utility.yul\":3024:3034   */\n      gt\n        /* \"#utility.yul\":3021:3057   */\n      iszero\n      tag_532\n      jumpi\n        /* \"#utility.yul\":3037:3055   */\n      tag_532\n      tag_500\n      jump\t// in\n    tag_532:\n        /* \"#utility.yul\":3112:3114   */\n      0x40\n        /* \"#utility.yul\":3106:3115   */\n      mload\n        /* \"#utility.yul\":3080:3082   */\n      0x1f\n        /* \"#utility.yul\":3166:3179   */\n      dup4\n      add\n      not(0x1f)\n        /* \"#utility.yul\":3162:3184   */\n      swap1\n      dup2\n      and\n        /* \"#utility.yul\":3186:3188   */\n      0x3f\n        /* \"#utility.yul\":3158:3189   */\n      add\n        /* \"#utility.yul\":3154:3194   */\n      and\n        /* \"#utility.yul\":3142:3195   */\n      dup2\n      add\n      swap1\n        /* \"#utility.yul\":3210:3228   */\n      dup3\n      dup3\n      gt\n        /* \"#utility.yul\":3230:3252   */\n      dup2\n      dup4\n      lt\n        /* \"#utility.yul\":3207:3253   */\n      or\n        /* \"#utility.yul\":3204:3276   */\n      iszero\n      tag_534\n      jumpi\n        /* \"#utility.yul\":3256:3274   */\n      tag_534\n      tag_500\n      jump\t// in\n    tag_534:\n        /* \"#utility.yul\":3296:3306   */\n      dup2\n        /* \"#utility.yul\":3292:3294   */\n      0x40\n        /* \"#utility.yul\":3285:3307   */\n      mstore\n        /* \"#utility.yul\":3331:3333   */\n      dup4\n        /* \"#utility.yul\":3323:3329   */\n      dup2\n        /* \"#utility.yul\":3316:3334   */\n      mstore\n        /* \"#utility.yul\":3377:3380   */\n      dup7\n        /* \"#utility.yul\":3370:3374   */\n      0x20\n        /* \"#utility.yul\":3365:3367   */\n      dup6\n        /* \"#utility.yul\":3357:3363   */\n      dup9\n        /* \"#utility.yul\":3353:3368   */\n      add\n        /* \"#utility.yul\":3349:3375   */\n      add\n        /* \"#utility.yul\":3346:3381   */\n      gt\n        /* \"#utility.yul\":3343:3398   */\n      iszero\n      tag_535\n      jumpi\n        /* \"#utility.yul\":3394:3395   */\n      0x00\n        /* \"#utility.yul\":3391:3392   */\n      dup1\n        /* \"#utility.yul\":3384:3396   */\n      revert\n        /* \"#utility.yul\":3343:3398   */\n    tag_535:\n        /* \"#utility.yul\":3458:3460   */\n      dup4\n        /* \"#utility.yul\":3451:3455   */\n      0x20\n        /* \"#utility.yul\":3443:3449   */\n      dup8\n        /* \"#utility.yul\":3439:3456   */\n      add\n        /* \"#utility.yul\":3432:3436   */\n      0x20\n        /* \"#utility.yul\":3424:3430   */\n      dup4\n        /* \"#utility.yul\":3420:3437   */\n      add\n        /* \"#utility.yul\":3407:3461   */\n      calldatacopy\n        /* \"#utility.yul\":3505:3506   */\n      0x00\n        /* \"#utility.yul\":3498:3502   */\n      0x20\n        /* \"#utility.yul\":3493:3495   */\n      dup6\n        /* \"#utility.yul\":3485:3491   */\n      dup4\n        /* \"#utility.yul\":3481:3496   */\n      add\n        /* \"#utility.yul\":3477:3503   */\n      add\n        /* \"#utility.yul\":3470:3507   */\n      mstore\n        /* \"#utility.yul\":3525:3531   */\n      dup1\n        /* \"#utility.yul\":3516:3531   */\n      swap5\n      pop\n      pop\n      pop\n      pop\n      pop\n        /* \"#utility.yul\":2818:3537   */\n      swap3\n      swap2\n      pop\n      pop\n      jump\t// out\n        /* \"#utility.yul\":3542:4486   */\n    tag_52:\n        /* \"#utility.yul\":3668:3674   */\n      0x00\n        /* \"#utility.yul\":3676:3682   */\n      dup1\n        /* \"#utility.yul\":3684:3690   */\n      0x00\n        /* \"#utility.yul\":3692:3698   */\n      dup1\n        /* \"#utility.yul\":3745:3748   */\n      0x80\n        /* \"#utility.yul\":3733:3742   */\n      dup6\n        /* \"#utility.yul\":3724:3731   */\n      dup8\n        /* \"#utility.yul\":3720:3743   */\n      sub\n        /* \"#utility.yul\":3716:3749   */\n      slt\n        /* \"#utility.yul\":3713:3766   */\n      iszero\n      tag_537\n      jumpi\n        /* \"#utility.yul\":3762:3763   */\n      0x00\n        /* \"#utility.yul\":3759:3760   */\n      dup1\n        /* \"#utility.yul\":3752:3764   */\n      revert\n        /* \"#utility.yul\":3713:3766   */\n    tag_537:\n        /* \"#utility.yul\":3802:3811   */\n      dup5\n        /* \"#utility.yul\":3789:3812   */\n      calldataload\n        /* \"#utility.yul\":3831:3849   */\n      0xffffffffffffffff\n        /* \"#utility.yul\":3872:3874   */\n      dup1\n        /* \"#utility.yul\":3864:3870   */\n      dup3\n        /* \"#utility.yul\":3861:3875   */\n      gt\n        /* \"#utility.yul\":3858:3892   */\n      iszero\n      tag_538\n      jumpi\n        /* \"#utility.yul\":3888:3889   */\n      0x00\n        /* \"#utility.yul\":3885:3886   */\n      dup1\n        /* \"#utility.yul\":3878:3890   */\n      revert\n        /* \"#utility.yul\":3858:3892   */\n    tag_538:\n        /* \"#utility.yul\":3911:3961   */\n      tag_539\n        /* \"#utility.yul\":3953:3960   */\n      dup9\n        /* \"#utility.yul\":3944:3950   */\n      dup4\n        /* \"#utility.yul\":3933:3942   */\n      dup10\n        /* \"#utility.yul\":3929:3951   */\n      add\n        /* \"#utility.yul\":3911:3961   */\n      tag_501\n      jump\t// in\n    tag_539:\n        /* \"#utility.yul\":3901:3961   */\n      swap6\n      pop\n        /* \"#utility.yul\":4014:4016   */\n      0x20\n        /* \"#utility.yul\":4003:4012   */\n      dup8\n        /* \"#utility.yul\":3999:4017   */\n      add\n        /* \"#utility.yul\":3986:4018   */\n      calldataload\n        /* \"#utility.yul\":3970:4018   */\n      swap2\n      pop\n        /* \"#utility.yul\":4043:4045   */\n      dup1\n        /* \"#utility.yul\":4033:4041   */\n      dup3\n        /* \"#utility.yul\":4030:4046   */\n      gt\n        /* \"#utility.yul\":4027:4063   */\n      iszero\n      tag_540\n      jumpi\n        /* \"#utility.yul\":4059:4060   */\n      0x00\n        /* \"#utility.yul\":4056:4057   */\n      dup1\n        /* \"#utility.yul\":4049:4061   */\n      revert\n        /* \"#utility.yul\":4027:4063   */\n    tag_540:\n        /* \"#utility.yul\":4082:4134   */\n      tag_541\n        /* \"#utility.yul\":4126:4133   */\n      dup9\n        /* \"#utility.yul\":4115:4123   */\n      dup4\n        /* \"#utility.yul\":4104:4113   */\n      dup10\n        /* \"#utility.yul\":4100:4124   */\n      add\n        /* \"#utility.yul\":4082:4134   */\n      tag_501\n      jump\t// in\n    tag_541:\n        /* \"#utility.yul\":4072:4134   */\n      swap5\n      pop\n        /* \"#utility.yul\":4187:4189   */\n      0x40\n        /* \"#utility.yul\":4176:4185   */\n      dup8\n        /* \"#utility.yul\":4172:4190   */\n      add\n        /* \"#utility.yul\":4159:4191   */\n      calldataload\n        /* \"#utility.yul\":4143:4191   */\n      swap2\n      pop\n        /* \"#utility.yul\":4216:4218   */\n      dup1\n        /* \"#utility.yul\":4206:4214   */\n      dup3\n        /* \"#utility.yul\":4203:4219   */\n      gt\n        /* \"#utility.yul\":4200:4236   */\n      iszero\n      tag_542\n      jumpi\n        /* \"#utility.yul\":4232:4233   */\n      0x00\n        /* \"#utility.yul\":4229:4230   */\n      dup1\n        /* \"#utility.yul\":4222:4234   */\n      revert\n        /* \"#utility.yul\":4200:4236   */\n    tag_542:\n        /* \"#utility.yul\":4255:4307   */\n      tag_543\n        /* \"#utility.yul\":4299:4306   */\n      dup9\n        /* \"#utility.yul\":4288:4296   */\n      dup4\n        /* \"#utility.yul\":4277:4286   */\n      dup10\n        /* \"#utility.yul\":4273:4297   */\n      add\n        /* \"#utility.yul\":4255:4307   */\n      tag_501\n      jump\t// in\n    tag_543:\n        /* \"#utility.yul\":4245:4307   */\n      swap4\n      pop\n        /* \"#utility.yul\":4360:4362   */\n      0x60\n        /* \"#utility.yul\":4349:4358   */\n      dup8\n        /* \"#utility.yul\":4345:4363   */\n      add\n        /* \"#utility.yul\":4332:4364   */\n      calldataload\n        /* \"#utility.yul\":4316:4364   */\n      swap2\n      pop\n        /* \"#utility.yul\":4389:4391   */\n      dup1\n        /* \"#utility.yul\":4379:4387   */\n      dup3\n        /* \"#utility.yul\":4376:4392   */\n      gt\n        /* \"#utility.yul\":4373:4409   */\n      iszero\n      tag_544\n      jumpi\n        /* \"#utility.yul\":4405:4406   */\n      0x00\n        /* \"#utility.yul\":4402:4403   */\n      dup1\n        /* \"#utility.yul\":4395:4407   */\n      revert\n        /* \"#utility.yul\":4373:4409   */\n    tag_544:\n      pop\n        /* \"#utility.yul\":4428:4480   */\n      tag_545\n        /* \"#utility.yul\":4472:4479   */\n      dup8\n        /* \"#utility.yul\":4461:4469   */\n      dup3\n        /* \"#utility.yul\":4450:4459   */\n      dup9\n        /* \"#utility.yul\":4446:4470   */\n      add\n        /* \"#utility.yul\":4428:4480   */\n      tag_501\n      jump\t// in\n    tag_545:\n        /* \"#utility.yul\":4418:4480   */\n      swap2\n      pop\n      pop\n        /* \"#utility.yul\":3542:4486   */\n      swap3\n      swap6\n      swap2\n      swap5\n      pop\n      swap3\n      pop\n      jump\t// out\n        /* \"#utility.yul\":4491:5392   */\n    tag_58:\n        /* \"#utility.yul\":4605:4611   */\n      0x00\n        /* \"#utility.yul\":4613:4619   */\n      dup1\n        /* \"#utility.yul\":4621:4627   */\n      0x00\n        /* \"#utility.yul\":4629:4635   */\n      dup1\n        /* \"#utility.yul\":4682:4685   */\n      0x80\n        /* \"#utility.yul\":4670:4679   */\n      dup6\n        /* \"#utility.yul\":4661:4668   */\n      dup8\n        /* \"#utility.yul\":4657:4680   */\n      sub\n        /* \"#utility.yul\":4653:4686   */\n      slt\n        /* \"#utility.yul\":4650:4703   */\n      iszero\n      tag_547\n      jumpi\n        /* \"#utility.yul\":4699:4700   */\n      0x00\n        /* \"#utility.yul\":4696:4697   */\n      dup1\n        /* \"#utility.yul\":4689:4701   */\n      revert\n        /* \"#utility.yul\":4650:4703   */\n    tag_547:\n        /* \"#utility.yul\":4739:4748   */\n      dup5\n        /* \"#utility.yul\":4726:4749   */\n      calldataload\n        /* \"#utility.yul\":4768:4786   */\n      0xffffffffffffffff\n        /* \"#utility.yul\":4809:4811   */\n      dup1\n        /* \"#utility.yul\":4801:4807   */\n      dup3\n        /* \"#utility.yul\":4798:4812   */\n      gt\n        /* \"#utility.yul\":4795:4829   */\n      iszero\n      tag_548\n      jumpi\n        /* \"#utility.yul\":4825:4826   */\n      0x00\n        /* \"#utility.yul\":4822:4823   */\n      dup1\n        /* \"#utility.yul\":4815:4827   */\n      revert\n        /* \"#utility.yul\":4795:4829   */\n    tag_548:\n        /* \"#utility.yul\":4848:4898   */\n      tag_549\n        /* \"#utility.yul\":4890:4897   */\n      dup9\n        /* \"#utility.yul\":4881:4887   */\n      dup4\n        /* \"#utility.yul\":4870:4879   */\n      dup10\n        /* \"#utility.yul\":4866:4888   */\n      add\n        /* \"#utility.yul\":4848:4898   */\n      tag_501\n      jump\t// in\n    tag_549:\n        /* \"#utility.yul\":4838:4898   */\n      swap6\n      pop\n        /* \"#utility.yul\":4951:4953   */\n      0x20\n        /* \"#utility.yul\":4940:4949   */\n      dup8\n        /* \"#utility.yul\":4936:4954   */\n      add\n        /* \"#utility.yul\":4923:4955   */\n      calldataload\n        /* \"#utility.yul\":4907:4955   */\n      swap2\n      pop\n        /* \"#utility.yul\":4980:4982   */\n      dup1\n        /* \"#utility.yul\":4970:4978   */\n      dup3\n        /* \"#utility.yul\":4967:4983   */\n      gt\n        /* \"#utility.yul\":4964:5000   */\n      iszero\n      tag_550\n      jumpi\n        /* \"#utility.yul\":4996:4997   */\n      0x00\n        /* \"#utility.yul\":4993:4994   */\n      dup1\n        /* \"#utility.yul\":4986:4998   */\n      revert\n        /* \"#utility.yul\":4964:5000   */\n    tag_550:\n        /* \"#utility.yul\":5019:5071   */\n      tag_551\n        /* \"#utility.yul\":5063:5070   */\n      dup9\n        /* \"#utility.yul\":5052:5060   */\n      dup4\n        /* \"#utility.yul\":5041:5050   */\n      dup10\n        /* \"#utility.yul\":5037:5061   */\n      add\n        /* \"#utility.yul\":5019:5071   */\n      tag_501\n      jump\t// in\n    tag_551:\n        /* \"#utility.yul\":5009:5071   */\n      swap5\n      pop\n        /* \"#utility.yul\":5121:5123   */\n      0x40\n        /* \"#utility.yul\":5110:5119   */\n      dup8\n        /* \"#utility.yul\":5106:5124   */\n      add\n        /* \"#utility.yul\":5093:5125   */\n      calldataload\n        /* \"#utility.yul\":5080:5125   */\n      swap2\n      pop\n        /* \"#utility.yul\":5165:5169   */\n      0xff\n        /* \"#utility.yul\":5158:5163   */\n      dup3\n        /* \"#utility.yul\":5154:5170   */\n      and\n        /* \"#utility.yul\":5147:5152   */\n      dup3\n        /* \"#utility.yul\":5144:5171   */\n      eq\n        /* \"#utility.yul\":5134:5189   */\n      tag_552\n      jumpi\n        /* \"#utility.yul\":5185:5186   */\n      0x00\n        /* \"#utility.yul\":5182:5183   */\n      dup1\n        /* \"#utility.yul\":5175:5187   */\n      revert\n        /* \"#utility.yul\":5134:5189   */\n    tag_552:\n        /* \"#utility.yul\":5208:5213   */\n      swap1\n      swap3\n      pop\n        /* \"#utility.yul\":5266:5268   */\n      0x60\n        /* \"#utility.yul\":5251:5269   */\n      dup7\n      add\n        /* \"#utility.yul\":5238:5270   */\n      calldataload\n      swap1\n        /* \"#utility.yul\":5282:5298   */\n      dup1\n      dup3\n      gt\n        /* \"#utility.yul\":5279:5315   */\n      iszero\n      tag_544\n      jumpi\n        /* \"#utility.yul\":5311:5312   */\n      0x00\n        /* \"#utility.yul\":5308:5309   */\n      dup1\n        /* \"#utility.yul\":5301:5313   */\n      revert\n        /* \"#utility.yul\":5397:6150   */\n    tag_502:\n        /* \"#utility.yul\":5490:5495   */\n      dup1\n        /* \"#utility.yul\":5484:5496   */\n      mload\n        /* \"#utility.yul\":5479:5482   */\n      dup3\n        /* \"#utility.yul\":5472:5497   */\n      mstore\n        /* \"#utility.yul\":5454:5457   */\n      0x00\n        /* \"#utility.yul\":5543:5547   */\n      0x20\n        /* \"#utility.yul\":5536:5541   */\n      dup3\n        /* \"#utility.yul\":5532:5548   */\n      add\n        /* \"#utility.yul\":5526:5549   */\n      mload\n        /* \"#utility.yul\":5581:5585   */\n      0xa0\n        /* \"#utility.yul\":5574:5578   */\n      0x20\n        /* \"#utility.yul\":5569:5572   */\n      dup6\n        /* \"#utility.yul\":5565:5579   */\n      add\n        /* \"#utility.yul\":5558:5586   */\n      mstore\n        /* \"#utility.yul\":5607:5654   */\n      tag_556\n        /* \"#utility.yul\":5648:5652   */\n      0xa0\n        /* \"#utility.yul\":5643:5646   */\n      dup6\n        /* \"#utility.yul\":5639:5653   */\n      add\n        /* \"#utility.yul\":5625:5637   */\n      dup3\n        /* \"#utility.yul\":5607:5654   */\n      tag_498\n      jump\t// in\n    tag_556:\n        /* \"#utility.yul\":5595:5654   */\n      swap1\n      pop\n        /* \"#utility.yul\":5702:5706   */\n      0x40\n        /* \"#utility.yul\":5695:5700   */\n      dup4\n        /* \"#utility.yul\":5691:5707   */\n      add\n        /* \"#utility.yul\":5685:5708   */\n      mload\n        /* \"#utility.yul\":5750:5753   */\n      dup5\n        /* \"#utility.yul\":5744:5748   */\n      dup3\n        /* \"#utility.yul\":5740:5754   */\n      sub\n        /* \"#utility.yul\":5733:5737   */\n      0x40\n        /* \"#utility.yul\":5728:5731   */\n      dup7\n        /* \"#utility.yul\":5724:5738   */\n      add\n        /* \"#utility.yul\":5717:5755   */\n      mstore\n        /* \"#utility.yul\":5778:5817   */\n      tag_557\n        /* \"#utility.yul\":5812:5816   */\n      dup3\n        /* \"#utility.yul\":5796:5810   */\n      dup3\n        /* \"#utility.yul\":5778:5817   */\n      tag_498\n      jump\t// in\n    tag_557:\n        /* \"#utility.yul\":5764:5817   */\n      swap2\n      pop\n      pop\n        /* \"#utility.yul\":5865:5869   */\n      0x60\n        /* \"#utility.yul\":5858:5863   */\n      dup4\n        /* \"#utility.yul\":5854:5870   */\n      add\n        /* \"#utility.yul\":5848:5871   */\n      mload\n        /* \"#utility.yul\":5915:5918   */\n      dup5\n        /* \"#utility.yul\":5907:5913   */\n      dup3\n        /* \"#utility.yul\":5903:5919   */\n      sub\n        /* \"#utility.yul\":5896:5900   */\n      0x60\n        /* \"#utility.yul\":5891:5894   */\n      dup7\n        /* \"#utility.yul\":5887:5901   */\n      add\n        /* \"#utility.yul\":5880:5920   */\n      mstore\n        /* \"#utility.yul\":5943:5984   */\n      tag_558\n        /* \"#utility.yul\":5977:5983   */\n      dup3\n        /* \"#utility.yul\":5961:5975   */\n      dup3\n        /* \"#utility.yul\":5943:5984   */\n      tag_498\n      jump\t// in\n    tag_558:\n        /* \"#utility.yul\":5929:5984   */\n      swap2\n      pop\n      pop\n        /* \"#utility.yul\":6032:6036   */\n      0x80\n        /* \"#utility.yul\":6025:6030   */\n      dup4\n        /* \"#utility.yul\":6021:6037   */\n      add\n        /* \"#utility.yul\":6015:6038   */\n      mload\n        /* \"#utility.yul\":6082:6085   */\n      dup5\n        /* \"#utility.yul\":6074:6080   */\n      dup3\n        /* \"#utility.yul\":6070:6086   */\n      sub\n        /* \"#utility.yul\":6063:6067   */\n      0x80\n        /* \"#utility.yul\":6058:6061   */\n      dup7\n        /* \"#utility.yul\":6054:6068   */\n      add\n        /* \"#utility.yul\":6047:6087   */\n      mstore\n        /* \"#utility.yul\":6103:6144   */\n      tag_522\n        /* \"#utility.yul\":6137:6143   */\n      dup3\n        /* \"#utility.yul\":6121:6135   */\n      dup3\n        /* \"#utility.yul\":6103:6144   */\n      tag_498\n      jump\t// in\n        /* \"#utility.yul\":6155:6432   */\n    tag_66:\n        /* \"#utility.yul\":6346:6348   */\n      0x20\n        /* \"#utility.yul\":6335:6344   */\n      dup2\n        /* \"#utility.yul\":6328:6349   */\n      mstore\n        /* \"#utility.yul\":6309:6313   */\n      0x00\n        /* \"#utility.yul\":6366:6426   */\n      tag_561\n        /* \"#utility.yul\":6422:6424   */\n      0x20\n        /* \"#utility.yul\":6411:6420   */\n      dup4\n        /* \"#utility.yul\":6407:6425   */\n      add\n        /* \"#utility.yul\":6399:6405   */\n      dup5\n        /* \"#utility.yul\":6366:6426   */\n      tag_502\n      jump\t// in\n    tag_561:\n        /* \"#utility.yul\":6358:6426   */\n      swap4\n        /* \"#utility.yul\":6155:6432   */\n      swap3\n      pop\n      pop\n      pop\n      jump\t// out\n        /* \"#utility.yul\":6619:6968   */\n    tag_76:\n        /* \"#utility.yul\":6712:6718   */\n      0x00\n        /* \"#utility.yul\":6720:6726   */\n      dup1\n        /* \"#utility.yul\":6773:6775   */\n      0x40\n        /* \"#utility.yul\":6761:6770   */\n      dup4\n        /* \"#utility.yul\":6752:6759   */\n      dup6\n        /* \"#utility.yul\":6748:6771   */\n      sub\n        /* \"#utility.yul\":6744:6776   */\n      slt\n        /* \"#utility.yul\":6741:6793   */\n      iszero\n      tag_564\n      jumpi\n        /* \"#utility.yul\":6789:6790   */\n      0x00\n        /* \"#utility.yul\":6786:6787   */\n      dup1\n        /* \"#utility.yul\":6779:6791   */\n      revert\n        /* \"#utility.yul\":6741:6793   */\n    tag_564:\n        /* \"#utility.yul\":6825:6834   */\n      dup3\n        /* \"#utility.yul\":6812:6835   */\n      calldataload\n        /* \"#utility.yul\":6802:6835   */\n      swap2\n      pop\n        /* \"#utility.yul\":6885:6887   */\n      0x20\n        /* \"#utility.yul\":6874:6883   */\n      dup4\n        /* \"#utility.yul\":6870:6888   */\n      add\n        /* \"#utility.yul\":6857:6889   */\n      calldataload\n        /* \"#utility.yul\":6918:6919   */\n      0x06\n        /* \"#utility.yul\":6911:6916   */\n      dup2\n        /* \"#utility.yul\":6908:6920   */\n      lt\n        /* \"#utility.yul\":6898:6938   */\n      tag_565\n      jumpi\n        /* \"#utility.yul\":6934:6935   */\n      0x00\n        /* \"#utility.yul\":6931:6932   */\n      dup1\n        /* \"#utility.yul\":6924:6936   */\n      revert\n        /* \"#utility.yul\":6898:6938   */\n    tag_565:\n        /* \"#utility.yul\":6957:6962   */\n      dup1\n        /* \"#utility.yul\":6947:6962   */\n      swap2\n      pop\n      pop\n        /* \"#utility.yul\":6619:6968   */\n      swap3\n      pop\n      swap3\n      swap1\n      pop\n      jump\t// out\n        /* \"#utility.yul\":6973:7335   */\n    tag_88:\n        /* \"#utility.yul\":7178:7180   */\n      0x60\n        /* \"#utility.yul\":7167:7176   */\n      dup2\n        /* \"#utility.yul\":7160:7181   */\n      mstore\n        /* \"#utility.yul\":7141:7145   */\n      0x00\n        /* \"#utility.yul\":7198:7243   */\n      tag_567\n        /* \"#utility.yul\":7239:7241   */\n      0x60\n        /* \"#utility.yul\":7228:7237   */\n      dup4\n        /* \"#utility.yul\":7224:7242   */\n      add\n        /* \"#utility.yul\":7216:7222   */\n      dup7\n        /* \"#utility.yul\":7198:7243   */\n      tag_498\n      jump\t// in\n    tag_567:\n        /* \"#utility.yul\":7274:7276   */\n      0x20\n        /* \"#utility.yul\":7259:7277   */\n      dup4\n      add\n        /* \"#utility.yul\":7252:7286   */\n      swap5\n      swap1\n      swap5\n      mstore\n      pop\n        /* \"#utility.yul\":7317:7319   */\n      0x40\n        /* \"#utility.yul\":7302:7320   */\n      add\n        /* \"#utility.yul\":7295:7329   */\n      mstore\n        /* \"#utility.yul\":7190:7243   */\n      swap2\n        /* \"#utility.yul\":6973:7335   */\n      swap1\n      pop\n      jump\t// out\n        /* \"#utility.yul\":7340:8200   */\n    tag_92:\n        /* \"#utility.yul\":7544:7548   */\n      0x00\n        /* \"#utility.yul\":7573:7575   */\n      0x20\n        /* \"#utility.yul\":7613:7615   */\n      dup1\n        /* \"#utility.yul\":7602:7611   */\n      dup4\n        /* \"#utility.yul\":7598:7616   */\n      add\n        /* \"#utility.yul\":7643:7645   */\n      dup2\n        /* \"#utility.yul\":7632:7641   */\n      dup5\n        /* \"#utility.yul\":7625:7646   */\n      mstore\n        /* \"#utility.yul\":7666:7672   */\n      dup1\n        /* \"#utility.yul\":7701:7707   */\n      dup6\n        /* \"#utility.yul\":7695:7708   */\n      mload\n        /* \"#utility.yul\":7732:7738   */\n      dup1\n        /* \"#utility.yul\":7724:7730   */\n      dup4\n        /* \"#utility.yul\":7717:7739   */\n      mstore\n        /* \"#utility.yul\":7770:7772   */\n      0x40\n        /* \"#utility.yul\":7759:7768   */\n      dup7\n        /* \"#utility.yul\":7755:7773   */\n      add\n        /* \"#utility.yul\":7748:7773   */\n      swap2\n      pop\n        /* \"#utility.yul\":7832:7834   */\n      0x40\n        /* \"#utility.yul\":7822:7828   */\n      dup2\n        /* \"#utility.yul\":7819:7820   */\n      0x05\n        /* \"#utility.yul\":7815:7829   */\n      shl\n        /* \"#utility.yul\":7804:7813   */\n      dup8\n        /* \"#utility.yul\":7800:7830   */\n      add\n        /* \"#utility.yul\":7796:7835   */\n      add\n        /* \"#utility.yul\":7782:7835   */\n      swap3\n      pop\n        /* \"#utility.yul\":7870:7872   */\n      dup4\n        /* \"#utility.yul\":7862:7868   */\n      dup8\n        /* \"#utility.yul\":7858:7873   */\n      add\n        /* \"#utility.yul\":7891:7892   */\n      0x00\n        /* \"#utility.yul\":7901:8171   */\n    tag_569:\n        /* \"#utility.yul\":7915:7921   */\n      dup3\n        /* \"#utility.yul\":7912:7913   */\n      dup2\n        /* \"#utility.yul\":7909:7922   */\n      lt\n        /* \"#utility.yul\":7901:8171   */\n      iszero\n      tag_526\n      jumpi\n        /* \"#utility.yul\":8008:8010   */\n      0x3f\n        /* \"#utility.yul\":8004:8011   */\n      not\n        /* \"#utility.yul\":7992:8001   */\n      dup9\n        /* \"#utility.yul\":7984:7990   */\n      dup7\n        /* \"#utility.yul\":7980:8002   */\n      sub\n        /* \"#utility.yul\":7976:8012   */\n      add\n        /* \"#utility.yul\":7971:7974   */\n      dup5\n        /* \"#utility.yul\":7964:8013   */\n      mstore\n        /* \"#utility.yul\":8036:8091   */\n      tag_572\n        /* \"#utility.yul\":8084:8090   */\n      dup6\n        /* \"#utility.yul\":8075:8081   */\n      dup4\n        /* \"#utility.yul\":8069:8082   */\n      mload\n        /* \"#utility.yul\":8036:8091   */\n      tag_502\n      jump\t// in\n    tag_572:\n        /* \"#utility.yul\":8026:8091   */\n      swap5\n      pop\n        /* \"#utility.yul\":8149:8161   */\n      swap3\n      dup6\n      add\n      swap3\n        /* \"#utility.yul\":8114:8129   */\n      swap1\n      dup6\n      add\n      swap1\n        /* \"#utility.yul\":7937:7938   */\n      0x01\n        /* \"#utility.yul\":7930:7939   */\n      add\n        /* \"#utility.yul\":7901:8171   */\n      jump(tag_569)\n        /* \"#utility.yul\":8205:8473   */\n    tag_100:\n        /* \"#utility.yul\":8390:8392   */\n      0x20\n        /* \"#utility.yul\":8379:8388   */\n      dup2\n        /* \"#utility.yul\":8372:8393   */\n      mstore\n        /* \"#utility.yul\":8353:8357   */\n      0x00\n        /* \"#utility.yul\":8410:8467   */\n      tag_561\n        /* \"#utility.yul\":8463:8465   */\n      0x20\n        /* \"#utility.yul\":8452:8461   */\n      dup4\n        /* \"#utility.yul\":8448:8466   */\n      add\n        /* \"#utility.yul\":8440:8446   */\n      dup5\n        /* \"#utility.yul\":8410:8467   */\n      tag_499\n      jump\t// in\n        /* \"#utility.yul\":8478:8822   */\n    tag_106:\n        /* \"#utility.yul\":8680:8682   */\n      0x20\n        /* \"#utility.yul\":8662:8683   */\n      dup1\n      dup3\n      mstore\n        /* \"#utility.yul\":8719:8721   */\n      0x14\n        /* \"#utility.yul\":8699:8717   */\n      swap1\n      dup3\n      add\n        /* \"#utility.yul\":8692:8722   */\n      mstore\n      shl(0x62, 0x125b9d985b1a590810d85b991a59185d19481259)\n        /* \"#utility.yul\":8753:8755   */\n      0x40\n        /* \"#utility.yul\":8738:8756   */\n      dup3\n      add\n        /* \"#utility.yul\":8731:8781   */\n      mstore\n        /* \"#utility.yul\":8813:8815   */\n      0x60\n        /* \"#utility.yul\":8798:8816   */\n      add\n      swap1\n        /* \"#utility.yul\":8478:8822   */\n      jump\t// out\n        /* \"#utility.yul\":8827:9167   */\n    tag_111:\n        /* \"#utility.yul\":9029:9031   */\n      0x20\n        /* \"#utility.yul\":9011:9032   */\n      dup1\n      dup3\n      mstore\n        /* \"#utility.yul\":9068:9070   */\n      0x10\n        /* \"#utility.yul\":9048:9066   */\n      swap1\n      dup3\n      add\n        /* \"#utility.yul\":9041:9071   */\n      mstore\n      shl(0x82, 0x125b9d985b1a5908159bdd195c881259)\n        /* \"#utility.yul\":9102:9104   */\n      0x40\n        /* \"#utility.yul\":9087:9105   */\n      dup3\n      add\n        /* \"#utility.yul\":9080:9126   */\n      mstore\n        /* \"#utility.yul\":9158:9160   */\n      0x60\n        /* \"#utility.yul\":9143:9161   */\n      add\n      swap1\n        /* \"#utility.yul\":8827:9167   */\n      jump\t// out\n        /* \"#utility.yul\":9172:9515   */\n    tag_126:\n        /* \"#utility.yul\":9374:9376   */\n      0x20\n        /* \"#utility.yul\":9356:9377   */\n      dup1\n      dup3\n      mstore\n        /* \"#utility.yul\":9413:9415   */\n      0x13\n        /* \"#utility.yul\":9393:9411   */\n      swap1\n      dup3\n      add\n        /* \"#utility.yul\":9386:9416   */\n      mstore\n      shl(0x68, 0x556e617574686f72697a656420616363657373)\n        /* \"#utility.yul\":9447:9449   */\n      0x40\n        /* \"#utility.yul\":9432:9450   */\n      dup3\n      add\n        /* \"#utility.yul\":9425:9474   */\n      mstore\n        /* \"#utility.yul\":9506:9508   */\n      0x60\n        /* \"#utility.yul\":9491:9509   */\n      add\n      swap1\n        /* \"#utility.yul\":9172:9515   */\n      jump\t// out\n        /* \"#utility.yul\":9520:9647   */\n    tag_503:\n        /* \"#utility.yul\":9581:9591   */\n      0x4e487b71\n        /* \"#utility.yul\":9576:9579   */\n      0xe0\n        /* \"#utility.yul\":9572:9592   */\n      shl\n        /* \"#utility.yul\":9569:9570   */\n      0x00\n        /* \"#utility.yul\":9562:9593   */\n      mstore\n        /* \"#utility.yul\":9612:9616   */\n      0x11\n        /* \"#utility.yul\":9609:9610   */\n      0x04\n        /* \"#utility.yul\":9602:9617   */\n      mstore\n        /* \"#utility.yul\":9636:9640   */\n      0x24\n        /* \"#utility.yul\":9633:9634   */\n      0x00\n        /* \"#utility.yul\":9626:9641   */\n      revert\n        /* \"#utility.yul\":9652:9787   */\n    tag_139:\n        /* \"#utility.yul\":9691:9694   */\n      0x00\n        /* \"#utility.yul\":9712:9729   */\n      0x01\n      dup3\n      add\n        /* \"#utility.yul\":9709:9752   */\n      tag_581\n      jumpi\n        /* \"#utility.yul\":9732:9750   */\n      tag_581\n      tag_503\n      jump\t// in\n    tag_581:\n      pop\n        /* \"#utility.yul\":9779:9780   */\n      0x01\n        /* \"#utility.yul\":9768:9781   */\n      add\n      swap1\n        /* \"#utility.yul\":9652:9787   */\n      jump\t// out\n        /* \"#utility.yul\":10201:10553   */\n    tag_147:\n        /* \"#utility.yul\":10403:10405   */\n      0x20\n        /* \"#utility.yul\":10385:10406   */\n      dup1\n      dup3\n      mstore\n        /* \"#utility.yul\":10442:10444   */\n      0x1c\n        /* \"#utility.yul\":10422:10440   */\n      swap1\n      dup3\n      add\n        /* \"#utility.yul\":10415:10445   */\n      mstore\n        /* \"#utility.yul\":10481:10511   */\n      0x456c656374696f6e206973206e6f7420696e2070726f67726573732e00000000\n        /* \"#utility.yul\":10476:10478   */\n      0x40\n        /* \"#utility.yul\":10461:10479   */\n      dup3\n      add\n        /* \"#utility.yul\":10454:10512   */\n      mstore\n        /* \"#utility.yul\":10544:10546   */\n      0x60\n        /* \"#utility.yul\":10529:10547   */\n      add\n      swap1\n        /* \"#utility.yul\":10201:10553   */\n      jump\t// out\n        /* \"#utility.yul\":10917:11044   */\n    tag_177:\n        /* \"#utility.yul\":10978:10988   */\n      0x4e487b71\n        /* \"#utility.yul\":10973:10976   */\n      0xe0\n        /* \"#utility.yul\":10969:10989   */\n      shl\n        /* \"#utility.yul\":10966:10967   */\n      0x00\n        /* \"#utility.yul\":10959:10990   */\n      mstore\n        /* \"#utility.yul\":11009:11013   */\n      0x32\n        /* \"#utility.yul\":11006:11007   */\n      0x04\n        /* \"#utility.yul\":10999:11014   */\n      mstore\n        /* \"#utility.yul\":11033:11037   */\n      0x24\n        /* \"#utility.yul\":11030:11031   */\n      0x00\n        /* \"#utility.yul\":11023:11038   */\n      revert\n        /* \"#utility.yul\":11454:11834   */\n    tag_201:\n        /* \"#utility.yul\":11533:11534   */\n      0x01\n        /* \"#utility.yul\":11529:11541   */\n      dup2\n      dup2\n      shr\n      swap1\n        /* \"#utility.yul\":11576:11588   */\n      dup3\n      and\n      dup1\n        /* \"#utility.yul\":11597:11658   */\n      tag_588\n      jumpi\n        /* \"#utility.yul\":11651:11655   */\n      0x7f\n        /* \"#utility.yul\":11643:11649   */\n      dup3\n        /* \"#utility.yul\":11639:11656   */\n      and\n        /* \"#utility.yul\":11629:11656   */\n      swap2\n      pop\n        /* \"#utility.yul\":11597:11658   */\n    tag_588:\n        /* \"#utility.yul\":11704:11706   */\n      0x20\n        /* \"#utility.yul\":11696:11702   */\n      dup3\n        /* \"#utility.yul\":11693:11707   */\n      lt\n        /* \"#utility.yul\":11673:11691   */\n      dup2\n        /* \"#utility.yul\":11670:11708   */\n      sub\n        /* \"#utility.yul\":11667:11828   */\n      tag_589\n      jumpi\n        /* \"#utility.yul\":11750:11760   */\n      0x4e487b71\n        /* \"#utility.yul\":11745:11748   */\n      0xe0\n        /* \"#utility.yul\":11741:11761   */\n      shl\n        /* \"#utility.yul\":11738:11739   */\n      0x00\n        /* \"#utility.yul\":11731:11762   */\n      mstore\n        /* \"#utility.yul\":11785:11789   */\n      0x22\n        /* \"#utility.yul\":11782:11783   */\n      0x04\n        /* \"#utility.yul\":11775:11790   */\n      mstore\n        /* \"#utility.yul\":11813:11817   */\n      0x24\n        /* \"#utility.yul\":11810:11811   */\n      0x00\n        /* \"#utility.yul\":11803:11818   */\n      revert\n        /* \"#utility.yul\":11667:11828   */\n    tag_589:\n      pop\n        /* \"#utility.yul\":11454:11834   */\n      swap2\n      swap1\n      pop\n      jump\t// out\n        /* \"#utility.yul\":13024:13421   */\n    tag_243:\n        /* \"#utility.yul\":13226:13228   */\n      0x20\n        /* \"#utility.yul\":13208:13229   */\n      dup1\n      dup3\n      mstore\n        /* \"#utility.yul\":13265:13267   */\n      0x21\n        /* \"#utility.yul\":13245:13263   */\n      swap1\n      dup3\n      add\n        /* \"#utility.yul\":13238:13268   */\n      mstore\n        /* \"#utility.yul\":13304:13338   */\n      0x596f75206861766520616c7265616479206265656e2072656769737465726564\n        /* \"#utility.yul\":13299:13301   */\n      0x40\n        /* \"#utility.yul\":13284:13302   */\n      dup3\n      add\n        /* \"#utility.yul\":13277:13339   */\n      mstore\n      shl(0xf9, 0x17)\n        /* \"#utility.yul\":13370:13372   */\n      0x60\n        /* \"#utility.yul\":13355:13373   */\n      dup3\n      add\n        /* \"#utility.yul\":13348:13379   */\n      mstore\n        /* \"#utility.yul\":13411:13414   */\n      0x80\n        /* \"#utility.yul\":13396:13415   */\n      add\n      swap1\n        /* \"#utility.yul\":13024:13421   */\n      jump\t// out\n        /* \"#utility.yul\":13552:14097   */\n    tag_505:\n        /* \"#utility.yul\":13654:13656   */\n      0x1f\n        /* \"#utility.yul\":13649:13652   */\n      dup3\n        /* \"#utility.yul\":13646:13657   */\n      gt\n        /* \"#utility.yul\":13643:14091   */\n      iszero\n      tag_141\n      jumpi\n        /* \"#utility.yul\":13690:13691   */\n      0x00\n        /* \"#utility.yul\":13715:13720   */\n      dup2\n        /* \"#utility.yul\":13711:13713   */\n      dup2\n        /* \"#utility.yul\":13704:13721   */\n      mstore\n        /* \"#utility.yul\":13760:13764   */\n      0x20\n        /* \"#utility.yul\":13756:13758   */\n      dup2\n        /* \"#utility.yul\":13746:13765   */\n      keccak256\n        /* \"#utility.yul\":13830:13832   */\n      0x1f\n        /* \"#utility.yul\":13818:13828   */\n      dup6\n        /* \"#utility.yul\":13814:13833   */\n      add\n        /* \"#utility.yul\":13811:13812   */\n      0x05\n        /* \"#utility.yul\":13807:13834   */\n      shr\n        /* \"#utility.yul\":13801:13805   */\n      dup2\n        /* \"#utility.yul\":13797:13835   */\n      add\n        /* \"#utility.yul\":13866:13870   */\n      0x20\n        /* \"#utility.yul\":13854:13864   */\n      dup7\n        /* \"#utility.yul\":13851:13871   */\n      lt\n        /* \"#utility.yul\":13848:13895   */\n      iszero\n      tag_597\n      jumpi\n      pop\n        /* \"#utility.yul\":13889:13893   */\n      dup1\n        /* \"#utility.yul\":13848:13895   */\n    tag_597:\n        /* \"#utility.yul\":13944:13946   */\n      0x1f\n        /* \"#utility.yul\":13939:13942   */\n      dup6\n        /* \"#utility.yul\":13935:13947   */\n      add\n        /* \"#utility.yul\":13932:13933   */\n      0x05\n        /* \"#utility.yul\":13928:13948   */\n      shr\n        /* \"#utility.yul\":13922:13926   */\n      dup3\n        /* \"#utility.yul\":13918:13949   */\n      add\n        /* \"#utility.yul\":13908:13949   */\n      swap2\n      pop\n        /* \"#utility.yul\":13999:14081   */\n    tag_598:\n        /* \"#utility.yul\":14017:14019   */\n      dup2\n        /* \"#utility.yul\":14010:14015   */\n      dup2\n        /* \"#utility.yul\":14007:14020   */\n      lt\n        /* \"#utility.yul\":13999:14081   */\n      iszero\n      tag_600\n      jumpi\n        /* \"#utility.yul\":14062:14079   */\n      dup3\n      dup2\n      sstore\n        /* \"#utility.yul\":14043:14044   */\n      0x01\n        /* \"#utility.yul\":14032:14045   */\n      add\n        /* \"#utility.yul\":13999:14081   */\n      jump(tag_598)\n    tag_600:\n        /* \"#utility.yul\":14003:14006   */\n      pop\n      pop\n      pop\n        /* \"#utility.yul\":13552:14097   */\n      pop\n      pop\n      pop\n      jump\t// out\n        /* \"#utility.yul\":14273:15625   */\n    tag_246:\n        /* \"#utility.yul\":14399:14402   */\n      dup2\n        /* \"#utility.yul\":14393:14403   */\n      mload\n        /* \"#utility.yul\":14426:14444   */\n      0xffffffffffffffff\n        /* \"#utility.yul\":14418:14424   */\n      dup2\n        /* \"#utility.yul\":14415:14445   */\n      gt\n        /* \"#utility.yul\":14412:14468   */\n      iszero\n      tag_604\n      jumpi\n        /* \"#utility.yul\":14448:14466   */\n      tag_604\n      tag_500\n      jump\t// in\n    tag_604:\n        /* \"#utility.yul\":14477:14574   */\n      tag_605\n        /* \"#utility.yul\":14567:14573   */\n      dup2\n        /* \"#utility.yul\":14527:14565   */\n      tag_606\n        /* \"#utility.yul\":14559:14563   */\n      dup5\n        /* \"#utility.yul\":14553:14564   */\n      sload\n        /* \"#utility.yul\":14527:14565   */\n      tag_201\n      jump\t// in\n    tag_606:\n        /* \"#utility.yul\":14521:14525   */\n      dup5\n        /* \"#utility.yul\":14477:14574   */\n      tag_505\n      jump\t// in\n    tag_605:\n        /* \"#utility.yul\":14629:14633   */\n      0x20\n      dup1\n        /* \"#utility.yul\":14693:14695   */\n      0x1f\n        /* \"#utility.yul\":14682:14696   */\n      dup4\n      gt\n        /* \"#utility.yul\":14710:14711   */\n      0x01\n        /* \"#utility.yul\":14705:15368   */\n      dup2\n      eq\n      tag_608\n      jumpi\n        /* \"#utility.yul\":15412:15413   */\n      0x00\n        /* \"#utility.yul\":15429:15435   */\n      dup5\n        /* \"#utility.yul\":15426:15515   */\n      iszero\n      tag_609\n      jumpi\n      pop\n        /* \"#utility.yul\":15481:15500   */\n      dup6\n      dup4\n      add\n        /* \"#utility.yul\":15475:15501   */\n      mload\n        /* \"#utility.yul\":15426:15515   */\n    tag_609:\n      not(0x00)\n        /* \"#utility.yul\":14230:14231   */\n      0x03\n        /* \"#utility.yul\":14226:14237   */\n      dup7\n      swap1\n      shl\n        /* \"#utility.yul\":14222:14246   */\n      shr\n        /* \"#utility.yul\":14218:14247   */\n      not\n        /* \"#utility.yul\":14208:14248   */\n      and\n        /* \"#utility.yul\":14254:14255   */\n      0x01\n        /* \"#utility.yul\":14250:14261   */\n      dup6\n      swap1\n      shl\n        /* \"#utility.yul\":14205:14262   */\n      or\n        /* \"#utility.yul\":15528:15609   */\n      dup6\n      sstore\n        /* \"#utility.yul\":14675:15619   */\n      jump(tag_600)\n        /* \"#utility.yul\":14705:15368   */\n    tag_608:\n        /* \"#utility.yul\":13499:13500   */\n      0x00\n        /* \"#utility.yul\":13492:13506   */\n      dup6\n      dup2\n      mstore\n        /* \"#utility.yul\":13536:13540   */\n      0x20\n        /* \"#utility.yul\":13523:13541   */\n      dup2\n      keccak256\n      not(0x1f)\n        /* \"#utility.yul\":14741:14761   */\n      dup7\n      and\n      swap2\n        /* \"#utility.yul\":14859:15095   */\n    tag_612:\n        /* \"#utility.yul\":14873:14880   */\n      dup3\n        /* \"#utility.yul\":14870:14871   */\n      dup2\n        /* \"#utility.yul\":14867:14881   */\n      lt\n        /* \"#utility.yul\":14859:15095   */\n      iszero\n      tag_614\n      jumpi\n        /* \"#utility.yul\":14962:14981   */\n      dup9\n      dup7\n      add\n        /* \"#utility.yul\":14956:14982   */\n      mload\n        /* \"#utility.yul\":14941:14983   */\n      dup3\n      sstore\n        /* \"#utility.yul\":15054:15081   */\n      swap5\n      dup5\n      add\n      swap5\n        /* \"#utility.yul\":15022:15023   */\n      0x01\n        /* \"#utility.yul\":15010:15024   */\n      swap1\n      swap2\n      add\n      swap1\n        /* \"#utility.yul\":14889:14908   */\n      dup5\n      add\n        /* \"#utility.yul\":14859:15095   */\n      jump(tag_612)\n    tag_614:\n        /* \"#utility.yul\":14863:14866   */\n      pop\n        /* \"#utility.yul\":15123:15129   */\n      dup6\n        /* \"#utility.yul\":15114:15121   */\n      dup3\n        /* \"#utility.yul\":15111:15130   */\n      lt\n        /* \"#utility.yul\":15108:15309   */\n      iszero\n      tag_615\n      jumpi\n        /* \"#utility.yul\":15184:15203   */\n      dup8\n      dup6\n      add\n        /* \"#utility.yul\":15178:15204   */\n      mload\n      not(0x00)\n        /* \"#utility.yul\":15267:15268   */\n      0x03\n        /* \"#utility.yul\":15263:15277   */\n      dup9\n      swap1\n      shl\n        /* \"#utility.yul\":15279:15282   */\n      0xf8\n        /* \"#utility.yul\":15259:15283   */\n      and\n        /* \"#utility.yul\":15255:15292   */\n      shr\n        /* \"#utility.yul\":15251:15293   */\n      not\n        /* \"#utility.yul\":15236:15294   */\n      and\n        /* \"#utility.yul\":15221:15295   */\n      dup2\n      sstore\n        /* \"#utility.yul\":15108:15309   */\n    tag_615:\n      pop\n      pop\n      pop\n      pop\n      pop\n        /* \"#utility.yul\":15355:15356   */\n      0x01\n        /* \"#utility.yul\":15339:15353   */\n      swap1\n      dup2\n      shl\n        /* \"#utility.yul\":15335:15357   */\n      add\n        /* \"#utility.yul\":15322:15358   */\n      swap1\n      sstore\n      pop\n        /* \"#utility.yul\":14273:15625   */\n      jump\t// out\n        /* \"#utility.yul\":15630:17061   */\n    tag_252:\n        /* \"#utility.yul\":15745:15748   */\n      dup2\n        /* \"#utility.yul\":15739:15743   */\n      dup2\n        /* \"#utility.yul\":15736:15749   */\n      sub\n        /* \"#utility.yul\":15733:15759   */\n      tag_617\n      jumpi\n        /* \"#utility.yul\":15752:15757   */\n      pop\n      pop\n        /* \"#utility.yul\":15630:17061   */\n      jump\t// out\n        /* \"#utility.yul\":15733:15759   */\n    tag_617:\n        /* \"#utility.yul\":15782:15819   */\n      tag_618\n        /* \"#utility.yul\":15814:15817   */\n      dup3\n        /* \"#utility.yul\":15808:15818   */\n      sload\n        /* \"#utility.yul\":15782:15819   */\n      tag_201\n      jump\t// in\n    tag_618:\n        /* \"#utility.yul\":15842:15860   */\n      0xffffffffffffffff\n        /* \"#utility.yul\":15834:15840   */\n      dup2\n        /* \"#utility.yul\":15831:15861   */\n      gt\n        /* \"#utility.yul\":15828:15884   */\n      iszero\n      tag_620\n      jumpi\n        /* \"#utility.yul\":15864:15882   */\n      tag_620\n      tag_500\n      jump\t// in\n    tag_620:\n        /* \"#utility.yul\":15893:15990   */\n      tag_621\n        /* \"#utility.yul\":15983:15989   */\n      dup2\n        /* \"#utility.yul\":15943:15981   */\n      tag_606\n        /* \"#utility.yul\":15975:15979   */\n      dup5\n        /* \"#utility.yul\":15969:15980   */\n      sload\n        /* \"#utility.yul\":15943:15981   */\n      tag_201\n      jump\t// in\n        /* \"#utility.yul\":15893:15990   */\n    tag_621:\n        /* \"#utility.yul\":16016:16017   */\n      0x00\n        /* \"#utility.yul\":16044:16046   */\n      0x1f\n        /* \"#utility.yul\":16036:16042   */\n      dup3\n        /* \"#utility.yul\":16033:16047   */\n      gt\n        /* \"#utility.yul\":16061:16062   */\n      0x01\n        /* \"#utility.yul\":16056:16804   */\n      dup2\n      eq\n      tag_624\n      jumpi\n        /* \"#utility.yul\":16848:16849   */\n      0x00\n        /* \"#utility.yul\":16865:16871   */\n      dup4\n        /* \"#utility.yul\":16862:16951   */\n      iszero\n      tag_625\n      jumpi\n      pop\n        /* \"#utility.yul\":16917:16936   */\n      dup5\n      dup3\n      add\n        /* \"#utility.yul\":16911:16937   */\n      sload\n        /* \"#utility.yul\":16862:16951   */\n    tag_625:\n      not(0x00)\n        /* \"#utility.yul\":14230:14231   */\n      0x03\n        /* \"#utility.yul\":14226:14237   */\n      dup6\n      swap1\n      shl\n        /* \"#utility.yul\":14222:14246   */\n      shr\n        /* \"#utility.yul\":14218:14247   */\n      not\n        /* \"#utility.yul\":14208:14248   */\n      and\n        /* \"#utility.yul\":14254:14255   */\n      0x01\n        /* \"#utility.yul\":14250:14261   */\n      dup5\n      swap1\n      shl\n        /* \"#utility.yul\":14205:14262   */\n      or\n        /* \"#utility.yul\":16964:17045   */\n      dup5\n      sstore\n        /* \"#utility.yul\":16026:17055   */\n      jump(tag_623)\n        /* \"#utility.yul\":16056:16804   */\n    tag_624:\n        /* \"#utility.yul\":13499:13500   */\n      0x00\n        /* \"#utility.yul\":13492:13506   */\n      dup6\n      dup2\n      mstore\n        /* \"#utility.yul\":13536:13540   */\n      0x20\n        /* \"#utility.yul\":13523:13541   */\n      swap1\n      keccak256\n      not(0x1f)\n        /* \"#utility.yul\":16092:16112   */\n      dup5\n      and\n      swap1\n        /* \"#utility.yul\":13499:13500   */\n      0x00\n        /* \"#utility.yul\":13492:13506   */\n      dup7\n      dup2\n      mstore\n        /* \"#utility.yul\":13536:13540   */\n      0x20\n        /* \"#utility.yul\":13523:13541   */\n      swap1\n      keccak256\n        /* \"#utility.yul\":16256:16265   */\n      dup5\n        /* \"#utility.yul\":16278:16529   */\n    tag_629:\n        /* \"#utility.yul\":16292:16299   */\n      dup4\n        /* \"#utility.yul\":16289:16290   */\n      dup2\n        /* \"#utility.yul\":16286:16300   */\n      lt\n        /* \"#utility.yul\":16278:16529   */\n      iszero\n      tag_631\n      jumpi\n        /* \"#utility.yul\":16374:16395   */\n      dup3\n      dup7\n      add\n        /* \"#utility.yul\":16368:16396   */\n      sload\n        /* \"#utility.yul\":16353:16397   */\n      dup3\n      sstore\n        /* \"#utility.yul\":16424:16425   */\n      0x01\n        /* \"#utility.yul\":16497:16515   */\n      swap6\n      dup7\n      add\n      swap6\n        /* \"#utility.yul\":16452:16467   */\n      swap1\n      swap2\n      add\n      swap1\n        /* \"#utility.yul\":16315:16319   */\n      0x20\n        /* \"#utility.yul\":16308:16320   */\n      add\n        /* \"#utility.yul\":16278:16529   */\n      jump(tag_629)\n    tag_631:\n        /* \"#utility.yul\":16282:16285   */\n      pop\n        /* \"#utility.yul\":16557:16563   */\n      dup6\n        /* \"#utility.yul\":16548:16555   */\n      dup4\n        /* \"#utility.yul\":16545:16564   */\n      lt\n        /* \"#utility.yul\":16542:16745   */\n      iszero\n      tag_632\n      jumpi\n        /* \"#utility.yul\":16618:16639   */\n      dup2\n      dup6\n      add\n        /* \"#utility.yul\":16612:16640   */\n      sload\n      not(0x00)\n        /* \"#utility.yul\":16703:16704   */\n      0x03\n        /* \"#utility.yul\":16699:16713   */\n      dup9\n      swap1\n      shl\n        /* \"#utility.yul\":16715:16718   */\n      0xf8\n        /* \"#utility.yul\":16695:16719   */\n      and\n        /* \"#utility.yul\":16691:16728   */\n      shr\n        /* \"#utility.yul\":16687:16729   */\n      not\n        /* \"#utility.yul\":16672:16730   */\n      and\n        /* \"#utility.yul\":16657:16731   */\n      dup2\n      sstore\n        /* \"#utility.yul\":16542:16745   */\n    tag_632:\n      pop\n      pop\n      pop\n        /* \"#utility.yul\":16791:16792   */\n      0x01\n        /* \"#utility.yul\":16782:16788   */\n      dup4\n        /* \"#utility.yul\":16779:16780   */\n      0x01\n        /* \"#utility.yul\":16775:16789   */\n      shl\n        /* \"#utility.yul\":16771:16793   */\n      add\n        /* \"#utility.yul\":16765:16769   */\n      dup5\n        /* \"#utility.yul\":16758:16794   */\n      sstore\n        /* \"#utility.yul\":16026:17055   */\n    tag_623:\n      pop\n      pop\n      pop\n        /* \"#utility.yul\":15630:17061   */\n      pop\n      pop\n      jump\t// out\n        /* \"#utility.yul\":17066:17383   */\n    tag_258:\n      sub(shl(0xa0, 0x01), 0x01)\n        /* \"#utility.yul\":17243:17275   */\n      dup4\n      and\n        /* \"#utility.yul\":17225:17276   */\n      dup2\n      mstore\n        /* \"#utility.yul\":17312:17314   */\n      0x40\n        /* \"#utility.yul\":17307:17309   */\n      0x20\n        /* \"#utility.yul\":17292:17310   */\n      dup3\n      add\n        /* \"#utility.yul\":17285:17315   */\n      dup2\n      swap1\n      mstore\n      0x00\n      swap1\n        /* \"#utility.yul\":17332:17377   */\n      tag_634\n      swap1\n        /* \"#utility.yul\":17358:17376   */\n      dup4\n      add\n        /* \"#utility.yul\":17350:17356   */\n      dup5\n        /* \"#utility.yul\":17332:17377   */\n      tag_498\n      jump\t// in\n    tag_634:\n        /* \"#utility.yul\":17324:17377   */\n      swap5\n        /* \"#utility.yul\":17066:17383   */\n      swap4\n      pop\n      pop\n      pop\n      pop\n      jump\t// out\n        /* \"#utility.yul\":20280:20407   */\n    tag_366:\n        /* \"#utility.yul\":20341:20351   */\n      0x4e487b71\n        /* \"#utility.yul\":20336:20339   */\n      0xe0\n        /* \"#utility.yul\":20332:20352   */\n      shl\n        /* \"#utility.yul\":20329:20330   */\n      0x00\n        /* \"#utility.yul\":20322:20353   */\n      mstore\n        /* \"#utility.yul\":20372:20376   */\n      0x21\n        /* \"#utility.yul\":20369:20370   */\n      0x04\n        /* \"#utility.yul\":20362:20377   */\n      mstore\n        /* \"#utility.yul\":20396:20400   */\n      0x24\n        /* \"#utility.yul\":20393:20394   */\n      0x00\n        /* \"#utility.yul\":20386:20401   */\n      revert\n        /* \"#utility.yul\":20412:20818   */\n    tag_382:\n        /* \"#utility.yul\":20614:20616   */\n      0x20\n        /* \"#utility.yul\":20596:20617   */\n      dup1\n      dup3\n      mstore\n        /* \"#utility.yul\":20653:20655   */\n      0x2a\n        /* \"#utility.yul\":20633:20651   */\n      swap1\n      dup3\n      add\n        /* \"#utility.yul\":20626:20656   */\n      mstore\n        /* \"#utility.yul\":20692:20726   */\n      0x596f752063616e6e6f7420766965772074686520726573756c74732061742074\n        /* \"#utility.yul\":20687:20689   */\n      0x40\n        /* \"#utility.yul\":20672:20690   */\n      dup3\n      add\n        /* \"#utility.yul\":20665:20727   */\n      mstore\n      shl(0xb1, 0x34329036b7b6b2b73a17)\n        /* \"#utility.yul\":20758:20760   */\n      0x60\n        /* \"#utility.yul\":20743:20761   */\n      dup3\n      add\n        /* \"#utility.yul\":20736:20776   */\n      mstore\n        /* \"#utility.yul\":20808:20811   */\n      0x80\n        /* \"#utility.yul\":20793:20812   */\n      add\n      swap1\n        /* \"#utility.yul\":20412:20818   */\n      jump\t// out\n        /* \"#utility.yul\":20823:20959   */\n    tag_398:\n        /* \"#utility.yul\":20862:20865   */\n      0x00\n        /* \"#utility.yul\":20890:20895   */\n      dup2\n        /* \"#utility.yul\":20880:20919   */\n      tag_646\n      jumpi\n        /* \"#utility.yul\":20899:20917   */\n      tag_646\n      tag_503\n      jump\t// in\n    tag_646:\n      pop\n      not(0x00)\n        /* \"#utility.yul\":20935:20953   */\n      add\n      swap1\n        /* \"#utility.yul\":20823:20959   */\n      jump\t// out\n        /* \"#utility.yul\":21383:21829   */\n    tag_425:\n      shl(0x95, 0x02a3432903bb4b73732b91034b99)\n        /* \"#utility.yul\":21640:21643   */\n      dup2\n        /* \"#utility.yul\":21633:21662   */\n      mstore\n        /* \"#utility.yul\":21615:21618   */\n      0x00\n        /* \"#utility.yul\":21691:21697   */\n      dup3\n        /* \"#utility.yul\":21685:21698   */\n      mload\n        /* \"#utility.yul\":21707:21782   */\n      tag_649\n        /* \"#utility.yul\":21775:21781   */\n      dup2\n        /* \"#utility.yul\":21770:21772   */\n      0x0e\n        /* \"#utility.yul\":21765:21768   */\n      dup6\n        /* \"#utility.yul\":21761:21773   */\n      add\n        /* \"#utility.yul\":21754:21758   */\n      0x20\n        /* \"#utility.yul\":21746:21752   */\n      dup8\n        /* \"#utility.yul\":21742:21759   */\n      add\n        /* \"#utility.yul\":21707:21782   */\n      tag_497\n      jump\t// in\n    tag_649:\n        /* \"#utility.yul\":21802:21818   */\n      swap2\n      swap1\n      swap2\n      add\n        /* \"#utility.yul\":21820:21822   */\n      0x0e\n        /* \"#utility.yul\":21798:21823   */\n      add\n      swap3\n        /* \"#utility.yul\":21383:21829   */\n      swap2\n      pop\n      pop\n      jump\t// out\n\n    auxdata: 0xa26469706673582212200333e5f684686725521fecaf580da4055a7770f5a03637fd32d1f722e69d4bcc64736f6c63430008120033\n}\n",
				"bytecode": {
					"linkReferences": {},
					"object": "608060405234801561001057600080fd5b50600280546001600160a01b031916331790556000808055600181815560038190556004556005556006805461ffff19169055612c54806100526000396000f3fe608060405234801561001057600080fd5b506004361061012c5760003560e01c8063a589ac5c116100ad578063cdd11b6411610071578063cdd11b6414610277578063d1b9fb3f1461028a578063e9b52668146102a1578063eca88ca6146102b6578063fc864716146102c957600080fd5b8063a589ac5c146101f2578063b2cdae4614610212578063bb30d88e1461023e578063bd0c700914610251578063c2b33e6e1461026457600080fd5b8063464d4a92116100f4578063464d4a92146101a957806354155fbf146101bc57806359f78468146101cf5780635b8ebb64146101d757806362d73eb8146101ea57600080fd5b80630318e0ac146101315780630340851d146101595780631d529aa41461016c5780632802ce59146101815780633c20987714610194575b600080fd5b61014461013f36600461236a565b6102e9565b60405190151581526020015b60405180910390f35b61014461016736600461236a565b610340565b61017f61017a36600461236a565b61038a565b005b61017f61018f366004612383565b6104be565b61019c6107b5565b604051610150919061245d565b61017f6101b736600461236a565b610a10565b61017f6101ca366004612562565b610cd8565b61017f610fa9565b61017f6101e536600461260f565b61104b565b61017f611316565b61020561020036600461236a565b6113ad565b6040516101509190612705565b33600090815260086020908152604080832054835260109091529020545b604051908152602001610150565b61017f61024c36600461236a565b611688565b61017f61025f36600461271f565b611771565b61023061027236600461236a565b6119a4565b61017f61028536600461236a565b611a15565b610292611b42565b60405161015093929190612753565b6102a9611dff565b6040516101509190612778565b61017f6102c436600461236a565b6120a7565b6102dc6102d736600461236a565b612199565b60405161015091906127cd565b600081816102fb565b60405180910390fd5b60008211801561030c575060035482105b6103285760405162461bcd60e51b81526004016102f29061280e565b5050506000908152600d602052604090205460ff1690565b6000816001600082118015610356575060045482105b6103725760405162461bcd60e51b81526004016102f2906127e0565b5050506000908152600e602052604090205460ff1690565b6002546001600160a01b031633146103b45760405162461bcd60e51b81526004016102f290612838565b8060016000821180156103c8575060045482105b6103e45760405162461bcd60e51b81526004016102f2906127e0565b6000838152600e602052604090205460ff16610460576000838152600e60205260408120805460ff191660019081179091558054916104228361287b565b90915550506040518381527f3ad93af63cb7967b23e4fb500b7d7d28b07516325dcf341f88bebf959d82c1cb906020015b60405180910390a1505050565b60405162461bcd60e51b815260206004820152602860248201527f5468652063616e6469646174652068617320616c7265616479206265656e206160448201526738383937bb32b21760c11b60648201526084016102f2565b505050565b60065460ff166104e05760405162461bcd60e51b81526004016102f290612894565b600654610100900460ff16156105085760405162461bcd60e51b81526004016102f290612894565b80600160008211801561051c575060045482105b6105385760405162461bcd60e51b81526004016102f2906127e0565b836000808211801561054b575060035482105b6105675760405162461bcd60e51b81526004016102f29061280e565b6000858152600e602052604090205460ff166105c55760405162461bcd60e51b815260206004820152601e60248201527f5468652063616e646964617465206973206e6f7420656c696769626c652e000060448201526064016102f2565b6000805b336000908152600860209081526040808320548352600f90915290205481101561075257336000908152600860209081526040808320548352600f909152902080548991908390811061061e5761061e6128cb565b9060005260206000209060020201600001541480156106885750336000908152600860209081526040808320548352600f9091529020805482908110610666576106666128cb565b60009182526020909120600160029092020181015460ff610100909104161515145b15610740576000878152600c602052604081206001018054916106aa8361287b565b9091555050600580549060006106bf8361287b565b9091555050336000908152600860209081526040808320548352600f90915281208054839081106106f2576106f26128cb565b600091825260208083206001600290930201820180549415156101000261ff0019909516949094179093556040805180850182528b81528c8452601090945290912091519091559150610752565b8061074a8161287b565b9150506105c9565b50806107ac5760405162461bcd60e51b8152602060048201526024808201527f596f7520617265206e6f742064656c65676174656420627920746869732070656044820152633939b7b760e11b60648201526084016102f2565b50505050505050565b6002546060906001600160a01b031633146107e25760405162461bcd60e51b81526004016102f290612838565b6012805480602002602001604051908101604052809291908181526020016000905b82821015610a0757838290600052602060002090600502016040518060a001604052908160008201548152602001600182018054610841906128e1565b80601f016020809104026020016040519081016040528092919081815260200182805461086d906128e1565b80156108ba5780601f1061088f576101008083540402835291602001916108ba565b820191906000526020600020905b81548152906001019060200180831161089d57829003601f168201915b505050505081526020016002820180546108d3906128e1565b80601f01602080910402602001604051908101604052809291908181526020018280546108ff906128e1565b801561094c5780601f106109215761010080835404028352916020019161094c565b820191906000526020600020905b81548152906001019060200180831161092f57829003601f168201915b5050509183525050600382015460ff166020820152600482018054604090920191610976906128e1565b80601f01602080910402602001604051908101604052809291908181526020018280546109a2906128e1565b80156109ef5780601f106109c4576101008083540402835291602001916109ef565b820191906000526020600020905b8154815290600101906020018083116109d257829003601f168201915b50505050508152505081526020019060010190610804565b50505050905090565b600654819060ff16610a345760405162461bcd60e51b81526004016102f290612894565b600654610100900460ff1615610a5c5760405162461bcd60e51b81526004016102f290612894565b336000908152600860205260408120549003610aba5760405162461bcd60e51b815260206004820152601d60248201527f596f7520617265206e6f7420656c696769626c6520746f20766f74652e00000060448201526064016102f2565b336000908152600b602052604090205460ff1615610b1a5760405162461bcd60e51b815260206004820152601760248201527f596f75206861766520616c726561647920766f7465642e00000000000000000060448201526064016102f2565b6000818152600e602052604090205460ff16610b785760405162461bcd60e51b815260206004820152601e60248201527f5468652063616e646964617465206973206e6f7420656c696769626c652e000060448201526064016102f2565b60065460ff16610b9a5760405162461bcd60e51b81526004016102f290612894565b600654610100900460ff1615610bc25760405162461bcd60e51b81526004016102f290612894565b336000908152600860209081526040808320548352600d90915290205460ff16610c5f5760405162461bcd60e51b815260206004820152604260248201527f596f7520617265206e6f7420617574686f72697a656420746f20766f74652e2060448201527f506c6561736520636f6e7461637420456c656374696f6e20436f6d6d6973736960648201526137b760f11b608482015260a4016102f2565b6000828152600c60205260408120600101805491610c7c8361287b565b909155505060058054906000610c918361287b565b90915550506040805160208082018352938152336000818152600886528381205481526010865283812092519092558152600b909352909120805460ff1916600117905550565b336000908152600a602052604090205415610d055760405162461bcd60e51b81526004016102f29061291b565b6040805160a08101825260045480825260208083018881528385018890526060840187905260808401869052600092835260099091529290208151815591519091906001820190610d5690826129aa565b5060408201516002820190610d6b90826129aa565b5060608201516003820190610d8090826129aa565b5060808201516004820190610d9590826129aa565b50506040805160208082018352600480548352336000908152600a835284812093519093558351808301855283815281548452600e83528484209051815460ff191690151517905580548352600c82528383206001908101849055905483526009909152918120601180548085018255925280547f31ecc21a745e3968a04e9570e4425bc18fa8019c68028196b546d1669c200c686005909302928301908155909350917f31ecc21a745e3968a04e9570e4425bc18fa8019c68028196b546d1669c200c6990910190610e6a90840182612a6a565b50600281810190610e7d90840182612a6a565b50600381810190610e9090840182612a6a565b50600481810190610ea390840182612a6a565b50506004805491506000610eb68361287b565b91905055507f11d7002257ca02e998e3d17112a6298cf2bb8b3b44ece5e8a02e1e78c7d2dc2b3360405180604001604052806017815260200176149959da5cdd1c985d1a5bdb8814dd58d8d95cdcd99d5b604a1b815250604051610f1b929190612b45565b60405180910390a1600254604080516001600160a01b039092168252602082018190526022908201527f5265717565737420666f722043616e646964617465205265676973747261746960608201526137b760f11b60808201527f73ea8b385cde3d60501d54bccc28c7ccff4841ff66eae0201cbb1fafe237fce69060a0015b60405180910390a150505050565b6002546001600160a01b03163314610fd35760405162461bcd60e51b81526004016102f290612838565b60065460ff168015610fed5750600654610100900460ff16155b15611003576006805461ff001916610100179055565b60405162461bcd60e51b815260206004820181905260248201527f54686520656c656374696f6e206973206e6f742073746172746564207965742e60448201526064016102f2565b33600090815260086020526040902054156110785760405162461bcd60e51b81526004016102f29061291b565b6040805160a081018252600354808252602080830188815283850188905260ff87166060850152608084018690526000928352600790915292902081518155915190919060018201906110cb90826129aa565b50604082015160028201906110e090826129aa565b50606082015160038201805460ff191660ff9092169190911790556080820151600482019061110f90826129aa565b505060408051602080820183526003805483523360008181526008845285812094519094558451808401865284815282548552600d84528585209051815490151560ff1991821617909155908452600b83528484208054909116905554825260079052908120601280546001818101835591909352815460059093027fbb8a6a4669ba250d26cd7a459eca9d215f8307e33aebe50379bc5a3617ec344481019384559193507fbb8a6a4669ba250d26cd7a459eca9d215f8307e33aebe50379bc5a3617ec3445909101906111e590840182612a6a565b506002818101906111f890840182612a6a565b50600382810154908201805460ff191660ff90921691909117905560048082019061122590840182612a6a565b505060038054915060006112388361287b565b91905055507fe54fed3d6f8ea8d23d023956c25fefd884a7258386b09ac1c4783ef5d1c51b063360405180604001604052806017815260200176149959da5cdd1c985d1a5bdb8814dd58d8d95cdcd99d5b604a1b81525060405161129d929190612b45565b60405180910390a1600254604080516001600160a01b03909216825260208201819052601e908201527f5265717565737420666f7220566f74657220526567697374726174696f6e000060608201527f73ea8b385cde3d60501d54bccc28c7ccff4841ff66eae0201cbb1fafe237fce690608001610f9b565b6002546001600160a01b031633146113405760405162461bcd60e51b81526004016102f290612838565b60065460ff16611359576006805460ff19166001179055565b60405162461bcd60e51b8152602060048201526024808201527f54686520656c656374696f6e20697320616c726561647920696e2070726f677260448201526332b9b99760e11b60648201526084016102f2565b6113df6040518060a0016040528060008152602001606081526020016060815260200160608152602001606081525090565b8160016000821180156113f3575060045482105b61140f5760405162461bcd60e51b81526004016102f2906127e0565b600960008581526020019081526020016000206040518060a001604052908160008201548152602001600182018054611447906128e1565b80601f0160208091040260200160405190810160405280929190818152602001828054611473906128e1565b80156114c05780601f10611495576101008083540402835291602001916114c0565b820191906000526020600020905b8154815290600101906020018083116114a357829003601f168201915b505050505081526020016002820180546114d9906128e1565b80601f0160208091040260200160405190810160405280929190818152602001828054611505906128e1565b80156115525780601f1061152757610100808354040283529160200191611552565b820191906000526020600020905b81548152906001019060200180831161153557829003601f168201915b5050505050815260200160038201805461156b906128e1565b80601f0160208091040260200160405190810160405280929190818152602001828054611597906128e1565b80156115e45780601f106115b9576101008083540402835291602001916115e4565b820191906000526020600020905b8154815290600101906020018083116115c757829003601f168201915b505050505081526020016004820180546115fd906128e1565b80601f0160208091040260200160405190810160405280929190818152602001828054611629906128e1565b80156116765780601f1061164b57610100808354040283529160200191611676565b820191906000526020600020905b81548152906001019060200180831161165957829003601f168201915b50505050508152505092505050919050565b6002546001600160a01b031633146116b25760405162461bcd60e51b81526004016102f290612838565b80600080821180156116c5575060035482105b6116e15760405162461bcd60e51b81526004016102f29061280e565b6000838152600d602052604090205460ff1661171d576000838152600d60205260408120805460ff19166001179055805490806104228361287b565b60405162461bcd60e51b8152602060048201526024808201527f54686520766f7465722068617320616c7265616479206265656e20617070726f6044820152633b32b21760e11b60648201526084016102f2565b336000908152600860205260408120548391036117d05760405162461bcd60e51b815260206004820181905260248201527f596f7520617265206e6f7420616e20617574686f72697a656420766f7465722e60448201526064016102f2565b336000908152600860209081526040808320548352600d90915290205460ff1661183c5760405162461bcd60e51b815260206004820181905260248201527f596f7520617265206e6f7420616e20617574686f72697a656420766f7465722e60448201526064016102f2565b6000818152600d602052604090205460ff166118a45760405162461bcd60e51b815260206004820152602160248201527f5468657920617265206e6f7420616e20617574686f72697a656420766f7465726044820152601760f91b60648201526084016102f2565b82600080821180156118b7575060035482105b6118d35760405162461bcd60e51b81526004016102f29061280e565b6000858152600f602090815260408083208151606081018352338552600884529190932054815290810186600581111561190f5761190f612b71565b8152600160209182018190528354808201855560009485529382902083516002909502019384559082015183820180549394939192909160ff19169083600581111561195d5761195d612b71565b0217905550604091820151600191820180549115156101000261ff0019909216919091179055336000908152600b60205291909120805460ff191690911790555050505050565b60008160016000821180156119ba575060045482105b6119d65760405162461bcd60e51b81526004016102f2906127e0565b600654610100900460ff166119fd5760405162461bcd60e51b81526004016102f290612b87565b5050506000908152600c602052604090206001015490565b6002546001600160a01b03163314611a3f5760405162461bcd60e51b81526004016102f290612838565b806001600082118015611a53575060045482105b611a6f5760405162461bcd60e51b81526004016102f2906127e0565b6000838152600e602052604090205460ff1615611adf576000838152600e60205260408120805460ff191690556001805491611aaa83612bd1565b90915550506040518381527ffb0048bb5704410776033bb8355286fb6922cc0623412bd454152bac55397f3590602001610453565b60405162461bcd60e51b815260206004820152603260248201527f5468652063616e6469646174652068617320616c7265616479206265656e206460448201527132b1b634b732b21037b9103130b73732b21760711b60648201526084016102f2565b6060600080600660019054906101000a900460ff16611b735760405162461bcd60e51b81526004016102f290612b87565b600160009081527fd421a5181c571bba3f01190c922c3b2a896fc1d84e86c9f17ac10e67ebef8b5d5460096020527f92e85d02570a8092d09a6e3a57665bc3815a2699a4074001bf1ccabf660f5a36547f92e85d02570a8092d09a6e3a57665bc3815a2699a4074001bf1ccabf660f5a378054929392839190611bf5906128e1565b80601f0160208091040260200160405190810160405280929190818152602001828054611c21906128e1565b8015611c6e5780601f10611c4357610100808354040283529160200191611c6e565b820191906000526020600020905b815481529060010190602001808311611c5157829003601f168201915b50939450600293505050505b6001548111611d87576000818152600c6020526040902060010154851015611d58576000818152600c6020908152604080832060019081015460099093529220805492018054919750919450611ccf906128e1565b80601f0160208091040260200160405190810160405280929190818152602001828054611cfb906128e1565b8015611d485780601f10611d1d57610100808354040283529160200191611d48565b820191906000526020600020905b815481529060010190602001808311611d2b57829003601f168201915b5050505050915060009350611d75565b6000818152600c6020526040902060010154859003611d75578093505b80611d7f8161287b565b915050611c7a565b5082600003611dbe5780604051602001611da19190612be8565b60408051601f198184030181529190529791965092945092505050565b5060408051808201909152601981527f54686520726573756c7420697320546965204265747765656e00000000000000602082015296909550909350915050565b60606011805480602002602001604051908101604052809291908181526020016000905b82821015610a0757838290600052602060002090600502016040518060a001604052908160008201548152602001600182018054611e60906128e1565b80601f0160208091040260200160405190810160405280929190818152602001828054611e8c906128e1565b8015611ed95780601f10611eae57610100808354040283529160200191611ed9565b820191906000526020600020905b815481529060010190602001808311611ebc57829003601f168201915b50505050508152602001600282018054611ef2906128e1565b80601f0160208091040260200160405190810160405280929190818152602001828054611f1e906128e1565b8015611f6b5780601f10611f4057610100808354040283529160200191611f6b565b820191906000526020600020905b815481529060010190602001808311611f4e57829003601f168201915b50505050508152602001600382018054611f84906128e1565b80601f0160208091040260200160405190810160405280929190818152602001828054611fb0906128e1565b8015611ffd5780601f10611fd257610100808354040283529160200191611ffd565b820191906000526020600020905b815481529060010190602001808311611fe057829003601f168201915b50505050508152602001600482018054612016906128e1565b80601f0160208091040260200160405190810160405280929190818152602001828054612042906128e1565b801561208f5780601f106120645761010080835404028352916020019161208f565b820191906000526020600020905b81548152906001019060200180831161207257829003601f168201915b50505050508152505081526020019060010190611e23565b6002546001600160a01b031633146120d15760405162461bcd60e51b81526004016102f290612838565b80600080821180156120e4575060035482105b6121005760405162461bcd60e51b81526004016102f29061280e565b6000838152600d602052604090205460ff161561213a576000838152600d60205260408120805460ff1916905580549080611aaa83612bd1565b60405162461bcd60e51b815260206004820152602e60248201527f54686520766f7465722068617320616c7265616479206265656e206465636c6960448201526d3732b21037b9103130b73732b21760911b60648201526084016102f2565b6121ce6040518060a00160405280600081526020016060815260200160608152602001600060ff168152602001606081525090565b81600080821180156121e1575060035482105b6121fd5760405162461bcd60e51b81526004016102f29061280e565b600760008581526020019081526020016000206040518060a001604052908160008201548152602001600182018054612235906128e1565b80601f0160208091040260200160405190810160405280929190818152602001828054612261906128e1565b80156122ae5780601f10612283576101008083540402835291602001916122ae565b820191906000526020600020905b81548152906001019060200180831161229157829003601f168201915b505050505081526020016002820180546122c7906128e1565b80601f01602080910402602001604051908101604052809291908181526020018280546122f3906128e1565b80156123405780601f1061231557610100808354040283529160200191612340565b820191906000526020600020905b81548152906001019060200180831161232357829003601f168201915b5050509183525050600382015460ff1660208201526004820180546040909201916115fd906128e1565b60006020828403121561237c57600080fd5b5035919050565b6000806040838503121561239657600080fd5b50508035926020909101359150565b60005b838110156123c05781810151838201526020016123a8565b50506000910152565b600081518084526123e18160208601602086016123a5565b601f01601f19169290920160200192915050565b805182526000602082015160a0602085015261241460a08501826123c9565b90506040830151848203604086015261242d82826123c9565b91505060ff60608401511660608501526080830151848203608086015261245482826123c9565b95945050505050565b6000602080830181845280855180835260408601915060408160051b870101925083870160005b828110156124b257603f198886030184526124a08583516123f5565b94509285019290850190600101612484565b5092979650505050505050565b634e487b7160e01b600052604160045260246000fd5b600082601f8301126124e657600080fd5b813567ffffffffffffffff80821115612501576125016124bf565b604051601f8301601f19908116603f01168101908282118183101715612529576125296124bf565b8160405283815286602085880101111561254257600080fd5b836020870160208301376000602085830101528094505050505092915050565b6000806000806080858703121561257857600080fd5b843567ffffffffffffffff8082111561259057600080fd5b61259c888389016124d5565b955060208701359150808211156125b257600080fd5b6125be888389016124d5565b945060408701359150808211156125d457600080fd5b6125e0888389016124d5565b935060608701359150808211156125f657600080fd5b50612603878288016124d5565b91505092959194509250565b6000806000806080858703121561262557600080fd5b843567ffffffffffffffff8082111561263d57600080fd5b612649888389016124d5565b9550602087013591508082111561265f57600080fd5b61266b888389016124d5565b94506040870135915060ff8216821461268357600080fd5b909250606086013590808211156125f657600080fd5b805182526000602082015160a060208501526126b860a08501826123c9565b9050604083015184820360408601526126d182826123c9565b915050606083015184820360608601526126eb82826123c9565b9150506080830151848203608086015261245482826123c9565b6020815260006127186020830184612699565b9392505050565b6000806040838503121561273257600080fd5b8235915060208301356006811061274857600080fd5b809150509250929050565b60608152600061276660608301866123c9565b60208301949094525060400152919050565b6000602080830181845280855180835260408601915060408160051b870101925083870160005b828110156124b257603f198886030184526127bb858351612699565b9450928501929085019060010161279f565b60208152600061271860208301846123f5565b602080825260149082015273125b9d985b1a590810d85b991a59185d1948125960621b604082015260600190565b60208082526010908201526f125b9d985b1a5908159bdd195c88125960821b604082015260600190565b602080825260139082015272556e617574686f72697a65642061636365737360681b604082015260600190565b634e487b7160e01b600052601160045260246000fd5b60006001820161288d5761288d612865565b5060010190565b6020808252601c908201527f456c656374696f6e206973206e6f7420696e2070726f67726573732e00000000604082015260600190565b634e487b7160e01b600052603260045260246000fd5b600181811c908216806128f557607f821691505b60208210810361291557634e487b7160e01b600052602260045260246000fd5b50919050565b60208082526021908201527f596f75206861766520616c7265616479206265656e20726567697374657265646040820152601760f91b606082015260800190565b601f8211156104b957600081815260208120601f850160051c810160208610156129835750805b601f850160051c820191505b818110156129a25782815560010161298f565b505050505050565b815167ffffffffffffffff8111156129c4576129c46124bf565b6129d8816129d284546128e1565b8461295c565b602080601f831160018114612a0d57600084156129f55750858301515b600019600386901b1c1916600185901b1785556129a2565b600085815260208120601f198616915b82811015612a3c57888601518255948401946001909101908401612a1d565b5085821015612a5a5787850151600019600388901b60f8161c191681555b5050505050600190811b01905550565b818103612a75575050565b612a7f82546128e1565b67ffffffffffffffff811115612a9757612a976124bf565b612aa5816129d284546128e1565b6000601f821160018114612ad95760008315612ac15750848201545b600019600385901b1c1916600184901b178455612b3e565b600085815260209020601f19841690600086815260209020845b83811015612b135782860154825560019586019590910190602001612af3565b5085831015612b315781850154600019600388901b60f8161c191681555b50505060018360011b0184555b5050505050565b6001600160a01b0383168152604060208201819052600090612b69908301846123c9565b949350505050565b634e487b7160e01b600052602160045260246000fd5b6020808252602a908201527f596f752063616e6e6f7420766965772074686520726573756c7473206174207460408201526934329036b7b6b2b73a1760b11b606082015260800190565b600081612be057612be0612865565b506000190190565b6d02a3432903bb4b73732b91034b9960951b815260008251612c1181600e8501602087016123a5565b91909101600e019291505056fea26469706673582212200333e5f684686725521fecaf580da4055a7770f5a03637fd32d1f722e69d4bcc64736f6c63430008120033",
					"opcodes": "PUSH1 0x80 PUSH1 0x40 MSTORE CALLVALUE DUP1 ISZERO PUSH2 0x10 JUMPI PUSH1 0x0 DUP1 REVERT JUMPDEST POP PUSH1 0x2 DUP1 SLOAD PUSH1 0x1 PUSH1 0x1 PUSH1 0xA0 SHL SUB NOT AND CALLER OR SWAP1 SSTORE PUSH1 0x0 DUP1 DUP1 SSTORE PUSH1 0x1 DUP2 DUP2 SSTORE PUSH1 0x3 DUP2 SWAP1 SSTORE PUSH1 0x4 SSTORE PUSH1 0x5 SSTORE PUSH1 0x6 DUP1 SLOAD PUSH2 0xFFFF NOT AND SWAP1 SSTORE PUSH2 0x2C54 DUP1 PUSH2 0x52 PUSH1 0x0 CODECOPY PUSH1 0x0 RETURN INVALID PUSH1 0x80 PUSH1 0x40 MSTORE CALLVALUE DUP1 ISZERO PUSH2 0x10 JUMPI PUSH1 0x0 DUP1 REVERT JUMPDEST POP PUSH1 0x4 CALLDATASIZE LT PUSH2 0x12C JUMPI PUSH1 0x0 CALLDATALOAD PUSH1 0xE0 SHR DUP1 PUSH4 0xA589AC5C GT PUSH2 0xAD JUMPI DUP1 PUSH4 0xCDD11B64 GT PUSH2 0x71 JUMPI DUP1 PUSH4 0xCDD11B64 EQ PUSH2 0x277 JUMPI DUP1 PUSH4 0xD1B9FB3F EQ PUSH2 0x28A JUMPI DUP1 PUSH4 0xE9B52668 EQ PUSH2 0x2A1 JUMPI DUP1 PUSH4 0xECA88CA6 EQ PUSH2 0x2B6 JUMPI DUP1 PUSH4 0xFC864716 EQ PUSH2 0x2C9 JUMPI PUSH1 0x0 DUP1 REVERT JUMPDEST DUP1 PUSH4 0xA589AC5C EQ PUSH2 0x1F2 JUMPI DUP1 PUSH4 0xB2CDAE46 EQ PUSH2 0x212 JUMPI DUP1 PUSH4 0xBB30D88E EQ PUSH2 0x23E JUMPI DUP1 PUSH4 0xBD0C7009 EQ PUSH2 0x251 JUMPI DUP1 PUSH4 0xC2B33E6E EQ PUSH2 0x264 JUMPI PUSH1 0x0 DUP1 REVERT JUMPDEST DUP1 PUSH4 0x464D4A92 GT PUSH2 0xF4 JUMPI DUP1 PUSH4 0x464D4A92 EQ PUSH2 0x1A9 JUMPI DUP1 PUSH4 0x54155FBF EQ PUSH2 0x1BC JUMPI DUP1 PUSH4 0x59F78468 EQ PUSH2 0x1CF JUMPI DUP1 PUSH4 0x5B8EBB64 EQ PUSH2 0x1D7 JUMPI DUP1 PUSH4 0x62D73EB8 EQ PUSH2 0x1EA JUMPI PUSH1 0x0 DUP1 REVERT JUMPDEST DUP1 PUSH4 0x318E0AC EQ PUSH2 0x131 JUMPI DUP1 PUSH4 0x340851D EQ PUSH2 0x159 JUMPI DUP1 PUSH4 0x1D529AA4 EQ PUSH2 0x16C JUMPI DUP1 PUSH4 0x2802CE59 EQ PUSH2 0x181 JUMPI DUP1 PUSH4 0x3C209877 EQ PUSH2 0x194 JUMPI JUMPDEST PUSH1 0x0 DUP1 REVERT JUMPDEST PUSH2 0x144 PUSH2 0x13F CALLDATASIZE PUSH1 0x4 PUSH2 0x236A JUMP JUMPDEST PUSH2 0x2E9 JUMP JUMPDEST PUSH1 0x40 MLOAD SWAP1 ISZERO ISZERO DUP2 MSTORE PUSH1 0x20 ADD JUMPDEST PUSH1 0x40 MLOAD DUP1 SWAP2 SUB SWAP1 RETURN JUMPDEST PUSH2 0x144 PUSH2 0x167 CALLDATASIZE PUSH1 0x4 PUSH2 0x236A JUMP JUMPDEST PUSH2 0x340 JUMP JUMPDEST PUSH2 0x17F PUSH2 0x17A CALLDATASIZE PUSH1 0x4 PUSH2 0x236A JUMP JUMPDEST PUSH2 0x38A JUMP JUMPDEST STOP JUMPDEST PUSH2 0x17F PUSH2 0x18F CALLDATASIZE PUSH1 0x4 PUSH2 0x2383 JUMP JUMPDEST PUSH2 0x4BE JUMP JUMPDEST PUSH2 0x19C PUSH2 0x7B5 JUMP JUMPDEST PUSH1 0x40 MLOAD PUSH2 0x150 SWAP2 SWAP1 PUSH2 0x245D JUMP JUMPDEST PUSH2 0x17F PUSH2 0x1B7 CALLDATASIZE PUSH1 0x4 PUSH2 0x236A JUMP JUMPDEST PUSH2 0xA10 JUMP JUMPDEST PUSH2 0x17F PUSH2 0x1CA CALLDATASIZE PUSH1 0x4 PUSH2 0x2562 JUMP JUMPDEST PUSH2 0xCD8 JUMP JUMPDEST PUSH2 0x17F PUSH2 0xFA9 JUMP JUMPDEST PUSH2 0x17F PUSH2 0x1E5 CALLDATASIZE PUSH1 0x4 PUSH2 0x260F JUMP JUMPDEST PUSH2 0x104B JUMP JUMPDEST PUSH2 0x17F PUSH2 0x1316 JUMP JUMPDEST PUSH2 0x205 PUSH2 0x200 CALLDATASIZE PUSH1 0x4 PUSH2 0x236A JUMP JUMPDEST PUSH2 0x13AD JUMP JUMPDEST PUSH1 0x40 MLOAD PUSH2 0x150 SWAP2 SWAP1 PUSH2 0x2705 JUMP JUMPDEST CALLER PUSH1 0x0 SWAP1 DUP2 MSTORE PUSH1 0x8 PUSH1 0x20 SWAP1 DUP2 MSTORE PUSH1 0x40 DUP1 DUP4 KECCAK256 SLOAD DUP4 MSTORE PUSH1 0x10 SWAP1 SWAP2 MSTORE SWAP1 KECCAK256 SLOAD JUMPDEST PUSH1 0x40 MLOAD SWAP1 DUP2 MSTORE PUSH1 0x20 ADD PUSH2 0x150 JUMP JUMPDEST PUSH2 0x17F PUSH2 0x24C CALLDATASIZE PUSH1 0x4 PUSH2 0x236A JUMP JUMPDEST PUSH2 0x1688 JUMP JUMPDEST PUSH2 0x17F PUSH2 0x25F CALLDATASIZE PUSH1 0x4 PUSH2 0x271F JUMP JUMPDEST PUSH2 0x1771 JUMP JUMPDEST PUSH2 0x230 PUSH2 0x272 CALLDATASIZE PUSH1 0x4 PUSH2 0x236A JUMP JUMPDEST PUSH2 0x19A4 JUMP JUMPDEST PUSH2 0x17F PUSH2 0x285 CALLDATASIZE PUSH1 0x4 PUSH2 0x236A JUMP JUMPDEST PUSH2 0x1A15 JUMP JUMPDEST PUSH2 0x292 PUSH2 0x1B42 JUMP JUMPDEST PUSH1 0x40 MLOAD PUSH2 0x150 SWAP4 SWAP3 SWAP2 SWAP1 PUSH2 0x2753 JUMP JUMPDEST PUSH2 0x2A9 PUSH2 0x1DFF JUMP JUMPDEST PUSH1 0x40 MLOAD PUSH2 0x150 SWAP2 SWAP1 PUSH2 0x2778 JUMP JUMPDEST PUSH2 0x17F PUSH2 0x2C4 CALLDATASIZE PUSH1 0x4 PUSH2 0x236A JUMP JUMPDEST PUSH2 0x20A7 JUMP JUMPDEST PUSH2 0x2DC PUSH2 0x2D7 CALLDATASIZE PUSH1 0x4 PUSH2 0x236A JUMP JUMPDEST PUSH2 0x2199 JUMP JUMPDEST PUSH1 0x40 MLOAD PUSH2 0x150 SWAP2 SWAP1 PUSH2 0x27CD JUMP JUMPDEST PUSH1 0x0 DUP2 DUP2 PUSH2 0x2FB JUMP JUMPDEST PUSH1 0x40 MLOAD DUP1 SWAP2 SUB SWAP1 REVERT JUMPDEST PUSH1 0x0 DUP3 GT DUP1 ISZERO PUSH2 0x30C JUMPI POP PUSH1 0x3 SLOAD DUP3 LT JUMPDEST PUSH2 0x328 JUMPI PUSH1 0x40 MLOAD PUSH3 0x461BCD PUSH1 0xE5 SHL DUP2 MSTORE PUSH1 0x4 ADD PUSH2 0x2F2 SWAP1 PUSH2 0x280E JUMP JUMPDEST POP POP POP PUSH1 0x0 SWAP1 DUP2 MSTORE PUSH1 0xD PUSH1 0x20 MSTORE PUSH1 0x40 SWAP1 KECCAK256 SLOAD PUSH1 0xFF AND SWAP1 JUMP JUMPDEST PUSH1 0x0 DUP2 PUSH1 0x1 PUSH1 0x0 DUP3 GT DUP1 ISZERO PUSH2 0x356 JUMPI POP PUSH1 0x4 SLOAD DUP3 LT JUMPDEST PUSH2 0x372 JUMPI PUSH1 0x40 MLOAD PUSH3 0x461BCD PUSH1 0xE5 SHL DUP2 MSTORE PUSH1 0x4 ADD PUSH2 0x2F2 SWAP1 PUSH2 0x27E0 JUMP JUMPDEST POP POP POP PUSH1 0x0 SWAP1 DUP2 MSTORE PUSH1 0xE PUSH1 0x20 MSTORE PUSH1 0x40 SWAP1 KECCAK256 SLOAD PUSH1 0xFF AND SWAP1 JUMP JUMPDEST PUSH1 0x2 SLOAD PUSH1 0x1 PUSH1 0x1 PUSH1 0xA0 SHL SUB AND CALLER EQ PUSH2 0x3B4 JUMPI PUSH1 0x40 MLOAD PUSH3 0x461BCD PUSH1 0xE5 SHL DUP2 MSTORE PUSH1 0x4 ADD PUSH2 0x2F2 SWAP1 PUSH2 0x2838 JUMP JUMPDEST DUP1 PUSH1 0x1 PUSH1 0x0 DUP3 GT DUP1 ISZERO PUSH2 0x3C8 JUMPI POP PUSH1 0x4 SLOAD DUP3 LT JUMPDEST PUSH2 0x3E4 JUMPI PUSH1 0x40 MLOAD PUSH3 0x461BCD PUSH1 0xE5 SHL DUP2 MSTORE PUSH1 0x4 ADD PUSH2 0x2F2 SWAP1 PUSH2 0x27E0 JUMP JUMPDEST PUSH1 0x0 DUP4 DUP2 MSTORE PUSH1 0xE PUSH1 0x20 MSTORE PUSH1 0x40 SWAP1 KECCAK256 SLOAD PUSH1 0xFF AND PUSH2 0x460 JUMPI PUSH1 0x0 DUP4 DUP2 MSTORE PUSH1 0xE PUSH1 0x20 MSTORE PUSH1 0x40 DUP2 KECCAK256 DUP1 SLOAD PUSH1 0xFF NOT AND PUSH1 0x1 SWAP1 DUP2 OR SWAP1 SWAP2 SSTORE DUP1 SLOAD SWAP2 PUSH2 0x422 DUP4 PUSH2 0x287B JUMP JUMPDEST SWAP1 SWAP2 SSTORE POP POP PUSH1 0x40 MLOAD DUP4 DUP2 MSTORE PUSH32 0x3AD93AF63CB7967B23E4FB500B7D7D28B07516325DCF341F88BEBF959D82C1CB SWAP1 PUSH1 0x20 ADD JUMPDEST PUSH1 0x40 MLOAD DUP1 SWAP2 SUB SWAP1 LOG1 POP POP POP JUMP JUMPDEST PUSH1 0x40 MLOAD PUSH3 0x461BCD PUSH1 0xE5 SHL DUP2 MSTORE PUSH1 0x20 PUSH1 0x4 DUP3 ADD MSTORE PUSH1 0x28 PUSH1 0x24 DUP3 ADD MSTORE PUSH32 0x5468652063616E6469646174652068617320616C7265616479206265656E2061 PUSH1 0x44 DUP3 ADD MSTORE PUSH8 0x38383937BB32B217 PUSH1 0xC1 SHL PUSH1 0x64 DUP3 ADD MSTORE PUSH1 0x84 ADD PUSH2 0x2F2 JUMP JUMPDEST POP POP POP JUMP JUMPDEST PUSH1 0x6 SLOAD PUSH1 0xFF AND PUSH2 0x4E0 JUMPI PUSH1 0x40 MLOAD PUSH3 0x461BCD PUSH1 0xE5 SHL DUP2 MSTORE PUSH1 0x4 ADD PUSH2 0x2F2 SWAP1 PUSH2 0x2894 JUMP JUMPDEST PUSH1 0x6 SLOAD PUSH2 0x100 SWAP1 DIV PUSH1 0xFF AND ISZERO PUSH2 0x508 JUMPI PUSH1 0x40 MLOAD PUSH3 0x461BCD PUSH1 0xE5 SHL DUP2 MSTORE PUSH1 0x4 ADD PUSH2 0x2F2 SWAP1 PUSH2 0x2894 JUMP JUMPDEST DUP1 PUSH1 0x1 PUSH1 0x0 DUP3 GT DUP1 ISZERO PUSH2 0x51C JUMPI POP PUSH1 0x4 SLOAD DUP3 LT JUMPDEST PUSH2 0x538 JUMPI PUSH1 0x40 MLOAD PUSH3 0x461BCD PUSH1 0xE5 SHL DUP2 MSTORE PUSH1 0x4 ADD PUSH2 0x2F2 SWAP1 PUSH2 0x27E0 JUMP JUMPDEST DUP4 PUSH1 0x0 DUP1 DUP3 GT DUP1 ISZERO PUSH2 0x54B JUMPI POP PUSH1 0x3 SLOAD DUP3 LT JUMPDEST PUSH2 0x567 JUMPI PUSH1 0x40 MLOAD PUSH3 0x461BCD PUSH1 0xE5 SHL DUP2 MSTORE PUSH1 0x4 ADD PUSH2 0x2F2 SWAP1 PUSH2 0x280E JUMP JUMPDEST PUSH1 0x0 DUP6 DUP2 MSTORE PUSH1 0xE PUSH1 0x20 MSTORE PUSH1 0x40 SWAP1 KECCAK256 SLOAD PUSH1 0xFF AND PUSH2 0x5C5 JUMPI PUSH1 0x40 MLOAD PUSH3 0x461BCD PUSH1 0xE5 SHL DUP2 MSTORE PUSH1 0x20 PUSH1 0x4 DUP3 ADD MSTORE PUSH1 0x1E PUSH1 0x24 DUP3 ADD MSTORE PUSH32 0x5468652063616E646964617465206973206E6F7420656C696769626C652E0000 PUSH1 0x44 DUP3 ADD MSTORE PUSH1 0x64 ADD PUSH2 0x2F2 JUMP JUMPDEST PUSH1 0x0 DUP1 JUMPDEST CALLER PUSH1 0x0 SWAP1 DUP2 MSTORE PUSH1 0x8 PUSH1 0x20 SWAP1 DUP2 MSTORE PUSH1 0x40 DUP1 DUP4 KECCAK256 SLOAD DUP4 MSTORE PUSH1 0xF SWAP1 SWAP2 MSTORE SWAP1 KECCAK256 SLOAD DUP2 LT ISZERO PUSH2 0x752 JUMPI CALLER PUSH1 0x0 SWAP1 DUP2 MSTORE PUSH1 0x8 PUSH1 0x20 SWAP1 DUP2 MSTORE PUSH1 0x40 DUP1 DUP4 KECCAK256 SLOAD DUP4 MSTORE PUSH1 0xF SWAP1 SWAP2 MSTORE SWAP1 KECCAK256 DUP1 SLOAD DUP10 SWAP2 SWAP1 DUP4 SWAP1 DUP2 LT PUSH2 0x61E JUMPI PUSH2 0x61E PUSH2 0x28CB JUMP JUMPDEST SWAP1 PUSH1 0x0 MSTORE PUSH1 0x20 PUSH1 0x0 KECCAK256 SWAP1 PUSH1 0x2 MUL ADD PUSH1 0x0 ADD SLOAD EQ DUP1 ISZERO PUSH2 0x688 JUMPI POP CALLER PUSH1 0x0 SWAP1 DUP2 MSTORE PUSH1 0x8 PUSH1 0x20 SWAP1 DUP2 MSTORE PUSH1 0x40 DUP1 DUP4 KECCAK256 SLOAD DUP4 MSTORE PUSH1 0xF SWAP1 SWAP2 MSTORE SWAP1 KECCAK256 DUP1 SLOAD DUP3 SWAP1 DUP2 LT PUSH2 0x666 JUMPI PUSH2 0x666 PUSH2 0x28CB JUMP JUMPDEST PUSH1 0x0 SWAP2 DUP3 MSTORE PUSH1 0x20 SWAP1 SWAP2 KECCAK256 PUSH1 0x1 PUSH1 0x2 SWAP1 SWAP3 MUL ADD DUP2 ADD SLOAD PUSH1 0xFF PUSH2 0x100 SWAP1 SWAP2 DIV AND ISZERO ISZERO EQ JUMPDEST ISZERO PUSH2 0x740 JUMPI PUSH1 0x0 DUP8 DUP2 MSTORE PUSH1 0xC PUSH1 0x20 MSTORE PUSH1 0x40 DUP2 KECCAK256 PUSH1 0x1 ADD DUP1 SLOAD SWAP2 PUSH2 0x6AA DUP4 PUSH2 0x287B JUMP JUMPDEST SWAP1 SWAP2 SSTORE POP POP PUSH1 0x5 DUP1 SLOAD SWAP1 PUSH1 0x0 PUSH2 0x6BF DUP4 PUSH2 0x287B JUMP JUMPDEST SWAP1 SWAP2 SSTORE POP POP CALLER PUSH1 0x0 SWAP1 DUP2 MSTORE PUSH1 0x8 PUSH1 0x20 SWAP1 DUP2 MSTORE PUSH1 0x40 DUP1 DUP4 KECCAK256 SLOAD DUP4 MSTORE PUSH1 0xF SWAP1 SWAP2 MSTORE DUP2 KECCAK256 DUP1 SLOAD DUP4 SWAP1 DUP2 LT PUSH2 0x6F2 JUMPI PUSH2 0x6F2 PUSH2 0x28CB JUMP JUMPDEST PUSH1 0x0 SWAP2 DUP3 MSTORE PUSH1 0x20 DUP1 DUP4 KECCAK256 PUSH1 0x1 PUSH1 0x2 SWAP1 SWAP4 MUL ADD DUP3 ADD DUP1 SLOAD SWAP5 ISZERO ISZERO PUSH2 0x100 MUL PUSH2 0xFF00 NOT SWAP1 SWAP6 AND SWAP5 SWAP1 SWAP5 OR SWAP1 SWAP4 SSTORE PUSH1 0x40 DUP1 MLOAD DUP1 DUP6 ADD DUP3 MSTORE DUP12 DUP2 MSTORE DUP13 DUP5 MSTORE PUSH1 0x10 SWAP1 SWAP5 MSTORE SWAP1 SWAP2 KECCAK256 SWAP2 MLOAD SWAP1 SWAP2 SSTORE SWAP2 POP PUSH2 0x752 JUMP JUMPDEST DUP1 PUSH2 0x74A DUP2 PUSH2 0x287B JUMP JUMPDEST SWAP2 POP POP PUSH2 0x5C9 JUMP JUMPDEST POP DUP1 PUSH2 0x7AC JUMPI PUSH1 0x40 MLOAD PUSH3 0x461BCD PUSH1 0xE5 SHL DUP2 MSTORE PUSH1 0x20 PUSH1 0x4 DUP3 ADD MSTORE PUSH1 0x24 DUP1 DUP3 ADD MSTORE PUSH32 0x596F7520617265206E6F742064656C6567617465642062792074686973207065 PUSH1 0x44 DUP3 ADD MSTORE PUSH4 0x3939B7B7 PUSH1 0xE1 SHL PUSH1 0x64 DUP3 ADD MSTORE PUSH1 0x84 ADD PUSH2 0x2F2 JUMP JUMPDEST POP POP POP POP POP POP POP JUMP JUMPDEST PUSH1 0x2 SLOAD PUSH1 0x60 SWAP1 PUSH1 0x1 PUSH1 0x1 PUSH1 0xA0 SHL SUB AND CALLER EQ PUSH2 0x7E2 JUMPI PUSH1 0x40 MLOAD PUSH3 0x461BCD PUSH1 0xE5 SHL DUP2 MSTORE PUSH1 0x4 ADD PUSH2 0x2F2 SWAP1 PUSH2 0x2838 JUMP JUMPDEST PUSH1 0x12 DUP1 SLOAD DUP1 PUSH1 0x20 MUL PUSH1 0x20 ADD PUSH1 0x40 MLOAD SWAP1 DUP2 ADD PUSH1 0x40 MSTORE DUP1 SWAP3 SWAP2 SWAP1 DUP2 DUP2 MSTORE PUSH1 0x20 ADD PUSH1 0x0 SWAP1 JUMPDEST DUP3 DUP3 LT ISZERO PUSH2 0xA07 JUMPI DUP4 DUP3 SWAP1 PUSH1 0x0 MSTORE PUSH1 0x20 PUSH1 0x0 KECCAK256 SWAP1 PUSH1 0x5 MUL ADD PUSH1 0x40 MLOAD DUP1 PUSH1 0xA0 ADD PUSH1 0x40 MSTORE SWAP1 DUP2 PUSH1 0x0 DUP3 ADD SLOAD DUP2 MSTORE PUSH1 0x20 ADD PUSH1 0x1 DUP3 ADD DUP1 SLOAD PUSH2 0x841 SWAP1 PUSH2 0x28E1 JUMP JUMPDEST DUP1 PUSH1 0x1F ADD PUSH1 0x20 DUP1 SWAP2 DIV MUL PUSH1 0x20 ADD PUSH1 0x40 MLOAD SWAP1 DUP2 ADD PUSH1 0x40 MSTORE DUP1 SWAP3 SWAP2 SWAP1 DUP2 DUP2 MSTORE PUSH1 0x20 ADD DUP3 DUP1 SLOAD PUSH2 0x86D SWAP1 PUSH2 0x28E1 JUMP JUMPDEST DUP1 ISZERO PUSH2 0x8BA JUMPI DUP1 PUSH1 0x1F LT PUSH2 0x88F JUMPI PUSH2 0x100 DUP1 DUP4 SLOAD DIV MUL DUP4 MSTORE SWAP2 PUSH1 0x20 ADD SWAP2 PUSH2 0x8BA JUMP JUMPDEST DUP3 ADD SWAP2 SWAP1 PUSH1 0x0 MSTORE PUSH1 0x20 PUSH1 0x0 KECCAK256 SWAP1 JUMPDEST DUP2 SLOAD DUP2 MSTORE SWAP1 PUSH1 0x1 ADD SWAP1 PUSH1 0x20 ADD DUP1 DUP4 GT PUSH2 0x89D JUMPI DUP3 SWAP1 SUB PUSH1 0x1F AND DUP3 ADD SWAP2 JUMPDEST POP POP POP POP POP DUP2 MSTORE PUSH1 0x20 ADD PUSH1 0x2 DUP3 ADD DUP1 SLOAD PUSH2 0x8D3 SWAP1 PUSH2 0x28E1 JUMP JUMPDEST DUP1 PUSH1 0x1F ADD PUSH1 0x20 DUP1 SWAP2 DIV MUL PUSH1 0x20 ADD PUSH1 0x40 MLOAD SWAP1 DUP2 ADD PUSH1 0x40 MSTORE DUP1 SWAP3 SWAP2 SWAP1 DUP2 DUP2 MSTORE PUSH1 0x20 ADD DUP3 DUP1 SLOAD PUSH2 0x8FF SWAP1 PUSH2 0x28E1 JUMP JUMPDEST DUP1 ISZERO PUSH2 0x94C JUMPI DUP1 PUSH1 0x1F LT PUSH2 0x921 JUMPI PUSH2 0x100 DUP1 DUP4 SLOAD DIV MUL DUP4 MSTORE SWAP2 PUSH1 0x20 ADD SWAP2 PUSH2 0x94C JUMP JUMPDEST DUP3 ADD SWAP2 SWAP1 PUSH1 0x0 MSTORE PUSH1 0x20 PUSH1 0x0 KECCAK256 SWAP1 JUMPDEST DUP2 SLOAD DUP2 MSTORE SWAP1 PUSH1 0x1 ADD SWAP1 PUSH1 0x20 ADD DUP1 DUP4 GT PUSH2 0x92F JUMPI DUP3 SWAP1 SUB PUSH1 0x1F AND DUP3 ADD SWAP2 JUMPDEST POP POP POP SWAP2 DUP4 MSTORE POP POP PUSH1 0x3 DUP3 ADD SLOAD PUSH1 0xFF AND PUSH1 0x20 DUP3 ADD MSTORE PUSH1 0x4 DUP3 ADD DUP1 SLOAD PUSH1 0x40 SWAP1 SWAP3 ADD SWAP2 PUSH2 0x976 SWAP1 PUSH2 0x28E1 JUMP JUMPDEST DUP1 PUSH1 0x1F ADD PUSH1 0x20 DUP1 SWAP2 DIV MUL PUSH1 0x20 ADD PUSH1 0x40 MLOAD SWAP1 DUP2 ADD PUSH1 0x40 MSTORE DUP1 SWAP3 SWAP2 SWAP1 DUP2 DUP2 MSTORE PUSH1 0x20 ADD DUP3 DUP1 SLOAD PUSH2 0x9A2 SWAP1 PUSH2 0x28E1 JUMP JUMPDEST DUP1 ISZERO PUSH2 0x9EF JUMPI DUP1 PUSH1 0x1F LT PUSH2 0x9C4 JUMPI PUSH2 0x100 DUP1 DUP4 SLOAD DIV MUL DUP4 MSTORE SWAP2 PUSH1 0x20 ADD SWAP2 PUSH2 0x9EF JUMP JUMPDEST DUP3 ADD SWAP2 SWAP1 PUSH1 0x0 MSTORE PUSH1 0x20 PUSH1 0x0 KECCAK256 SWAP1 JUMPDEST DUP2 SLOAD DUP2 MSTORE SWAP1 PUSH1 0x1 ADD SWAP1 PUSH1 0x20 ADD DUP1 DUP4 GT PUSH2 0x9D2 JUMPI DUP3 SWAP1 SUB PUSH1 0x1F AND DUP3 ADD SWAP2 JUMPDEST POP POP POP POP POP DUP2 MSTORE POP POP DUP2 MSTORE PUSH1 0x20 ADD SWAP1 PUSH1 0x1 ADD SWAP1 PUSH2 0x804 JUMP JUMPDEST POP POP POP POP SWAP1 POP SWAP1 JUMP JUMPDEST PUSH1 0x6 SLOAD DUP2 SWAP1 PUSH1 0xFF AND PUSH2 0xA34 JUMPI PUSH1 0x40 MLOAD PUSH3 0x461BCD PUSH1 0xE5 SHL DUP2 MSTORE PUSH1 0x4 ADD PUSH2 0x2F2 SWAP1 PUSH2 0x2894 JUMP JUMPDEST PUSH1 0x6 SLOAD PUSH2 0x100 SWAP1 DIV PUSH1 0xFF AND ISZERO PUSH2 0xA5C JUMPI PUSH1 0x40 MLOAD PUSH3 0x461BCD PUSH1 0xE5 SHL DUP2 MSTORE PUSH1 0x4 ADD PUSH2 0x2F2 SWAP1 PUSH2 0x2894 JUMP JUMPDEST CALLER PUSH1 0x0 SWAP1 DUP2 MSTORE PUSH1 0x8 PUSH1 0x20 MSTORE PUSH1 0x40 DUP2 KECCAK256 SLOAD SWAP1 SUB PUSH2 0xABA JUMPI PUSH1 0x40 MLOAD PUSH3 0x461BCD PUSH1 0xE5 SHL DUP2 MSTORE PUSH1 0x20 PUSH1 0x4 DUP3 ADD MSTORE PUSH1 0x1D PUSH1 0x24 DUP3 ADD MSTORE PUSH32 0x596F7520617265206E6F7420656C696769626C6520746F20766F74652E000000 PUSH1 0x44 DUP3 ADD MSTORE PUSH1 0x64 ADD PUSH2 0x2F2 JUMP JUMPDEST CALLER PUSH1 0x0 SWAP1 DUP2 MSTORE PUSH1 0xB PUSH1 0x20 MSTORE PUSH1 0x40 SWAP1 KECCAK256 SLOAD PUSH1 0xFF AND ISZERO PUSH2 0xB1A JUMPI PUSH1 0x40 MLOAD PUSH3 0x461BCD PUSH1 0xE5 SHL DUP2 MSTORE PUSH1 0x20 PUSH1 0x4 DUP3 ADD MSTORE PUSH1 0x17 PUSH1 0x24 DUP3 ADD MSTORE PUSH32 0x596F75206861766520616C726561647920766F7465642E000000000000000000 PUSH1 0x44 DUP3 ADD MSTORE PUSH1 0x64 ADD PUSH2 0x2F2 JUMP JUMPDEST PUSH1 0x0 DUP2 DUP2 MSTORE PUSH1 0xE PUSH1 0x20 MSTORE PUSH1 0x40 SWAP1 KECCAK256 SLOAD PUSH1 0xFF AND PUSH2 0xB78 JUMPI PUSH1 0x40 MLOAD PUSH3 0x461BCD PUSH1 0xE5 SHL DUP2 MSTORE PUSH1 0x20 PUSH1 0x4 DUP3 ADD MSTORE PUSH1 0x1E PUSH1 0x24 DUP3 ADD MSTORE PUSH32 0x5468652063616E646964617465206973206E6F7420656C696769626C652E0000 PUSH1 0x44 DUP3 ADD MSTORE PUSH1 0x64 ADD PUSH2 0x2F2 JUMP JUMPDEST PUSH1 0x6 SLOAD PUSH1 0xFF AND PUSH2 0xB9A JUMPI PUSH1 0x40 MLOAD PUSH3 0x461BCD PUSH1 0xE5 SHL DUP2 MSTORE PUSH1 0x4 ADD PUSH2 0x2F2 SWAP1 PUSH2 0x2894 JUMP JUMPDEST PUSH1 0x6 SLOAD PUSH2 0x100 SWAP1 DIV PUSH1 0xFF AND ISZERO PUSH2 0xBC2 JUMPI PUSH1 0x40 MLOAD PUSH3 0x461BCD PUSH1 0xE5 SHL DUP2 MSTORE PUSH1 0x4 ADD PUSH2 0x2F2 SWAP1 PUSH2 0x2894 JUMP JUMPDEST CALLER PUSH1 0x0 SWAP1 DUP2 MSTORE PUSH1 0x8 PUSH1 0x20 SWAP1 DUP2 MSTORE PUSH1 0x40 DUP1 DUP4 KECCAK256 SLOAD DUP4 MSTORE PUSH1 0xD SWAP1 SWAP2 MSTORE SWAP1 KECCAK256 SLOAD PUSH1 0xFF AND PUSH2 0xC5F JUMPI PUSH1 0x40 MLOAD PUSH3 0x461BCD PUSH1 0xE5 SHL DUP2 MSTORE PUSH1 0x20 PUSH1 0x4 DUP3 ADD MSTORE PUSH1 0x42 PUSH1 0x24 DUP3 ADD MSTORE PUSH32 0x596F7520617265206E6F7420617574686F72697A656420746F20766F74652E20 PUSH1 0x44 DUP3 ADD MSTORE PUSH32 0x506C6561736520636F6E7461637420456C656374696F6E20436F6D6D69737369 PUSH1 0x64 DUP3 ADD MSTORE PUSH2 0x37B7 PUSH1 0xF1 SHL PUSH1 0x84 DUP3 ADD MSTORE PUSH1 0xA4 ADD PUSH2 0x2F2 JUMP JUMPDEST PUSH1 0x0 DUP3 DUP2 MSTORE PUSH1 0xC PUSH1 0x20 MSTORE PUSH1 0x40 DUP2 KECCAK256 PUSH1 0x1 ADD DUP1 SLOAD SWAP2 PUSH2 0xC7C DUP4 PUSH2 0x287B JUMP JUMPDEST SWAP1 SWAP2 SSTORE POP POP PUSH1 0x5 DUP1 SLOAD SWAP1 PUSH1 0x0 PUSH2 0xC91 DUP4 PUSH2 0x287B JUMP JUMPDEST SWAP1 SWAP2 SSTORE POP POP PUSH1 0x40 DUP1 MLOAD PUSH1 0x20 DUP1 DUP3 ADD DUP4 MSTORE SWAP4 DUP2 MSTORE CALLER PUSH1 0x0 DUP2 DUP2 MSTORE PUSH1 0x8 DUP7 MSTORE DUP4 DUP2 KECCAK256 SLOAD DUP2 MSTORE PUSH1 0x10 DUP7 MSTORE DUP4 DUP2 KECCAK256 SWAP3 MLOAD SWAP1 SWAP3 SSTORE DUP2 MSTORE PUSH1 0xB SWAP1 SWAP4 MSTORE SWAP1 SWAP2 KECCAK256 DUP1 SLOAD PUSH1 0xFF NOT AND PUSH1 0x1 OR SWAP1 SSTORE POP JUMP JUMPDEST CALLER PUSH1 0x0 SWAP1 DUP2 MSTORE PUSH1 0xA PUSH1 0x20 MSTORE PUSH1 0x40 SWAP1 KECCAK256 SLOAD ISZERO PUSH2 0xD05 JUMPI PUSH1 0x40 MLOAD PUSH3 0x461BCD PUSH1 0xE5 SHL DUP2 MSTORE PUSH1 0x4 ADD PUSH2 0x2F2 SWAP1 PUSH2 0x291B JUMP JUMPDEST PUSH1 0x40 DUP1 MLOAD PUSH1 0xA0 DUP2 ADD DUP3 MSTORE PUSH1 0x4 SLOAD DUP1 DUP3 MSTORE PUSH1 0x20 DUP1 DUP4 ADD DUP9 DUP2 MSTORE DUP4 DUP6 ADD DUP9 SWAP1 MSTORE PUSH1 0x60 DUP5 ADD DUP8 SWAP1 MSTORE PUSH1 0x80 DUP5 ADD DUP7 SWAP1 MSTORE PUSH1 0x0 SWAP3 DUP4 MSTORE PUSH1 0x9 SWAP1 SWAP2 MSTORE SWAP3 SWAP1 KECCAK256 DUP2 MLOAD DUP2 SSTORE SWAP2 MLOAD SWAP1 SWAP2 SWAP1 PUSH1 0x1 DUP3 ADD SWAP1 PUSH2 0xD56 SWAP1 DUP3 PUSH2 0x29AA JUMP JUMPDEST POP PUSH1 0x40 DUP3 ADD MLOAD PUSH1 0x2 DUP3 ADD SWAP1 PUSH2 0xD6B SWAP1 DUP3 PUSH2 0x29AA JUMP JUMPDEST POP PUSH1 0x60 DUP3 ADD MLOAD PUSH1 0x3 DUP3 ADD SWAP1 PUSH2 0xD80 SWAP1 DUP3 PUSH2 0x29AA JUMP JUMPDEST POP PUSH1 0x80 DUP3 ADD MLOAD PUSH1 0x4 DUP3 ADD SWAP1 PUSH2 0xD95 SWAP1 DUP3 PUSH2 0x29AA JUMP JUMPDEST POP POP PUSH1 0x40 DUP1 MLOAD PUSH1 0x20 DUP1 DUP3 ADD DUP4 MSTORE PUSH1 0x4 DUP1 SLOAD DUP4 MSTORE CALLER PUSH1 0x0 SWAP1 DUP2 MSTORE PUSH1 0xA DUP4 MSTORE DUP5 DUP2 KECCAK256 SWAP4 MLOAD SWAP1 SWAP4 SSTORE DUP4 MLOAD DUP1 DUP4 ADD DUP6 MSTORE DUP4 DUP2 MSTORE DUP2 SLOAD DUP5 MSTORE PUSH1 0xE DUP4 MSTORE DUP5 DUP5 KECCAK256 SWAP1 MLOAD DUP2 SLOAD PUSH1 0xFF NOT AND SWAP1 ISZERO ISZERO OR SWAP1 SSTORE DUP1 SLOAD DUP4 MSTORE PUSH1 0xC DUP3 MSTORE DUP4 DUP4 KECCAK256 PUSH1 0x1 SWAP1 DUP2 ADD DUP5 SWAP1 SSTORE SWAP1 SLOAD DUP4 MSTORE PUSH1 0x9 SWAP1 SWAP2 MSTORE SWAP2 DUP2 KECCAK256 PUSH1 0x11 DUP1 SLOAD DUP1 DUP6 ADD DUP3 SSTORE SWAP3 MSTORE DUP1 SLOAD PUSH32 0x31ECC21A745E3968A04E9570E4425BC18FA8019C68028196B546D1669C200C68 PUSH1 0x5 SWAP1 SWAP4 MUL SWAP3 DUP4 ADD SWAP1 DUP2 SSTORE SWAP1 SWAP4 POP SWAP2 PUSH32 0x31ECC21A745E3968A04E9570E4425BC18FA8019C68028196B546D1669C200C69 SWAP1 SWAP2 ADD SWAP1 PUSH2 0xE6A SWAP1 DUP5 ADD DUP3 PUSH2 0x2A6A JUMP JUMPDEST POP PUSH1 0x2 DUP2 DUP2 ADD SWAP1 PUSH2 0xE7D SWAP1 DUP5 ADD DUP3 PUSH2 0x2A6A JUMP JUMPDEST POP PUSH1 0x3 DUP2 DUP2 ADD SWAP1 PUSH2 0xE90 SWAP1 DUP5 ADD DUP3 PUSH2 0x2A6A JUMP JUMPDEST POP PUSH1 0x4 DUP2 DUP2 ADD SWAP1 PUSH2 0xEA3 SWAP1 DUP5 ADD DUP3 PUSH2 0x2A6A JUMP JUMPDEST POP POP PUSH1 0x4 DUP1 SLOAD SWAP2 POP PUSH1 0x0 PUSH2 0xEB6 DUP4 PUSH2 0x287B JUMP JUMPDEST SWAP2 SWAP1 POP SSTORE POP PUSH32 0x11D7002257CA02E998E3D17112A6298CF2BB8B3B44ECE5E8A02E1E78C7D2DC2B CALLER PUSH1 0x40 MLOAD DUP1 PUSH1 0x40 ADD PUSH1 0x40 MSTORE DUP1 PUSH1 0x17 DUP2 MSTORE PUSH1 0x20 ADD PUSH23 0x149959DA5CDD1C985D1A5BDB8814DD58D8D95CDCD99D5B PUSH1 0x4A SHL DUP2 MSTORE POP PUSH1 0x40 MLOAD PUSH2 0xF1B SWAP3 SWAP2 SWAP1 PUSH2 0x2B45 JUMP JUMPDEST PUSH1 0x40 MLOAD DUP1 SWAP2 SUB SWAP1 LOG1 PUSH1 0x2 SLOAD PUSH1 0x40 DUP1 MLOAD PUSH1 0x1 PUSH1 0x1 PUSH1 0xA0 SHL SUB SWAP1 SWAP3 AND DUP3 MSTORE PUSH1 0x20 DUP3 ADD DUP2 SWAP1 MSTORE PUSH1 0x22 SWAP1 DUP3 ADD MSTORE PUSH32 0x5265717565737420666F722043616E6469646174652052656769737472617469 PUSH1 0x60 DUP3 ADD MSTORE PUSH2 0x37B7 PUSH1 0xF1 SHL PUSH1 0x80 DUP3 ADD MSTORE PUSH32 0x73EA8B385CDE3D60501D54BCCC28C7CCFF4841FF66EAE0201CBB1FAFE237FCE6 SWAP1 PUSH1 0xA0 ADD JUMPDEST PUSH1 0x40 MLOAD DUP1 SWAP2 SUB SWAP1 LOG1 POP POP POP POP JUMP JUMPDEST PUSH1 0x2 SLOAD PUSH1 0x1 PUSH1 0x1 PUSH1 0xA0 SHL SUB AND CALLER EQ PUSH2 0xFD3 JUMPI PUSH1 0x40 MLOAD PUSH3 0x461BCD PUSH1 0xE5 SHL DUP2 MSTORE PUSH1 0x4 ADD PUSH2 0x2F2 SWAP1 PUSH2 0x2838 JUMP JUMPDEST PUSH1 0x6 SLOAD PUSH1 0xFF AND DUP1 ISZERO PUSH2 0xFED JUMPI POP PUSH1 0x6 SLOAD PUSH2 0x100 SWAP1 DIV PUSH1 0xFF AND ISZERO JUMPDEST ISZERO PUSH2 0x1003 JUMPI PUSH1 0x6 DUP1 SLOAD PUSH2 0xFF00 NOT AND PUSH2 0x100 OR SWAP1 SSTORE JUMP JUMPDEST PUSH1 0x40 MLOAD PUSH3 0x461BCD PUSH1 0xE5 SHL DUP2 MSTORE PUSH1 0x20 PUSH1 0x4 DUP3 ADD DUP2 SWAP1 MSTORE PUSH1 0x24 DUP3 ADD MSTORE PUSH32 0x54686520656C656374696F6E206973206E6F742073746172746564207965742E PUSH1 0x44 DUP3 ADD MSTORE PUSH1 0x64 ADD PUSH2 0x2F2 JUMP JUMPDEST CALLER PUSH1 0x0 SWAP1 DUP2 MSTORE PUSH1 0x8 PUSH1 0x20 MSTORE PUSH1 0x40 SWAP1 KECCAK256 SLOAD ISZERO PUSH2 0x1078 JUMPI PUSH1 0x40 MLOAD PUSH3 0x461BCD PUSH1 0xE5 SHL DUP2 MSTORE PUSH1 0x4 ADD PUSH2 0x2F2 SWAP1 PUSH2 0x291B JUMP JUMPDEST PUSH1 0x40 DUP1 MLOAD PUSH1 0xA0 DUP2 ADD DUP3 MSTORE PUSH1 0x3 SLOAD DUP1 DUP3 MSTORE PUSH1 0x20 DUP1 DUP4 ADD DUP9 DUP2 MSTORE DUP4 DUP6 ADD DUP9 SWAP1 MSTORE PUSH1 0xFF DUP8 AND PUSH1 0x60 DUP6 ADD MSTORE PUSH1 0x80 DUP5 ADD DUP7 SWAP1 MSTORE PUSH1 0x0 SWAP3 DUP4 MSTORE PUSH1 0x7 SWAP1 SWAP2 MSTORE SWAP3 SWAP1 KECCAK256 DUP2 MLOAD DUP2 SSTORE SWAP2 MLOAD SWAP1 SWAP2 SWAP1 PUSH1 0x1 DUP3 ADD SWAP1 PUSH2 0x10CB SWAP1 DUP3 PUSH2 0x29AA JUMP JUMPDEST POP PUSH1 0x40 DUP3 ADD MLOAD PUSH1 0x2 DUP3 ADD SWAP1 PUSH2 0x10E0 SWAP1 DUP3 PUSH2 0x29AA JUMP JUMPDEST POP PUSH1 0x60 DUP3 ADD MLOAD PUSH1 0x3 DUP3 ADD DUP1 SLOAD PUSH1 0xFF NOT AND PUSH1 0xFF SWAP1 SWAP3 AND SWAP2 SWAP1 SWAP2 OR SWAP1 SSTORE PUSH1 0x80 DUP3 ADD MLOAD PUSH1 0x4 DUP3 ADD SWAP1 PUSH2 0x110F SWAP1 DUP3 PUSH2 0x29AA JUMP JUMPDEST POP POP PUSH1 0x40 DUP1 MLOAD PUSH1 0x20 DUP1 DUP3 ADD DUP4 MSTORE PUSH1 0x3 DUP1 SLOAD DUP4 MSTORE CALLER PUSH1 0x0 DUP2 DUP2 MSTORE PUSH1 0x8 DUP5 MSTORE DUP6 DUP2 KECCAK256 SWAP5 MLOAD SWAP1 SWAP5 SSTORE DUP5 MLOAD DUP1 DUP5 ADD DUP7 MSTORE DUP5 DUP2 MSTORE DUP3 SLOAD DUP6 MSTORE PUSH1 0xD DUP5 MSTORE DUP6 DUP6 KECCAK256 SWAP1 MLOAD DUP2 SLOAD SWAP1 ISZERO ISZERO PUSH1 0xFF NOT SWAP2 DUP3 AND OR SWAP1 SWAP2 SSTORE SWAP1 DUP5 MSTORE PUSH1 0xB DUP4 MSTORE DUP5 DUP5 KECCAK256 DUP1 SLOAD SWAP1 SWAP2 AND SWAP1 SSTORE SLOAD DUP3 MSTORE PUSH1 0x7 SWAP1 MSTORE SWAP1 DUP2 KECCAK256 PUSH1 0x12 DUP1 SLOAD PUSH1 0x1 DUP2 DUP2 ADD DUP4 SSTORE SWAP2 SWAP1 SWAP4 MSTORE DUP2 SLOAD PUSH1 0x5 SWAP1 SWAP4 MUL PUSH32 0xBB8A6A4669BA250D26CD7A459ECA9D215F8307E33AEBE50379BC5A3617EC3444 DUP2 ADD SWAP4 DUP5 SSTORE SWAP2 SWAP4 POP PUSH32 0xBB8A6A4669BA250D26CD7A459ECA9D215F8307E33AEBE50379BC5A3617EC3445 SWAP1 SWAP2 ADD SWAP1 PUSH2 0x11E5 SWAP1 DUP5 ADD DUP3 PUSH2 0x2A6A JUMP JUMPDEST POP PUSH1 0x2 DUP2 DUP2 ADD SWAP1 PUSH2 0x11F8 SWAP1 DUP5 ADD DUP3 PUSH2 0x2A6A JUMP JUMPDEST POP PUSH1 0x3 DUP3 DUP2 ADD SLOAD SWAP1 DUP3 ADD DUP1 SLOAD PUSH1 0xFF NOT AND PUSH1 0xFF SWAP1 SWAP3 AND SWAP2 SWAP1 SWAP2 OR SWAP1 SSTORE PUSH1 0x4 DUP1 DUP3 ADD SWAP1 PUSH2 0x1225 SWAP1 DUP5 ADD DUP3 PUSH2 0x2A6A JUMP JUMPDEST POP POP PUSH1 0x3 DUP1 SLOAD SWAP2 POP PUSH1 0x0 PUSH2 0x1238 DUP4 PUSH2 0x287B JUMP JUMPDEST SWAP2 SWAP1 POP SSTORE POP PUSH32 0xE54FED3D6F8EA8D23D023956C25FEFD884A7258386B09AC1C4783EF5D1C51B06 CALLER PUSH1 0x40 MLOAD DUP1 PUSH1 0x40 ADD PUSH1 0x40 MSTORE DUP1 PUSH1 0x17 DUP2 MSTORE PUSH1 0x20 ADD PUSH23 0x149959DA5CDD1C985D1A5BDB8814DD58D8D95CDCD99D5B PUSH1 0x4A SHL DUP2 MSTORE POP PUSH1 0x40 MLOAD PUSH2 0x129D SWAP3 SWAP2 SWAP1 PUSH2 0x2B45 JUMP JUMPDEST PUSH1 0x40 MLOAD DUP1 SWAP2 SUB SWAP1 LOG1 PUSH1 0x2 SLOAD PUSH1 0x40 DUP1 MLOAD PUSH1 0x1 PUSH1 0x1 PUSH1 0xA0 SHL SUB SWAP1 SWAP3 AND DUP3 MSTORE PUSH1 0x20 DUP3 ADD DUP2 SWAP1 MSTORE PUSH1 0x1E SWAP1 DUP3 ADD MSTORE PUSH32 0x5265717565737420666F7220566F74657220526567697374726174696F6E0000 PUSH1 0x60 DUP3 ADD MSTORE PUSH32 0x73EA8B385CDE3D60501D54BCCC28C7CCFF4841FF66EAE0201CBB1FAFE237FCE6 SWAP1 PUSH1 0x80 ADD PUSH2 0xF9B JUMP JUMPDEST PUSH1 0x2 SLOAD PUSH1 0x1 PUSH1 0x1 PUSH1 0xA0 SHL SUB AND CALLER EQ PUSH2 0x1340 JUMPI PUSH1 0x40 MLOAD PUSH3 0x461BCD PUSH1 0xE5 SHL DUP2 MSTORE PUSH1 0x4 ADD PUSH2 0x2F2 SWAP1 PUSH2 0x2838 JUMP JUMPDEST PUSH1 0x6 SLOAD PUSH1 0xFF AND PUSH2 0x1359 JUMPI PUSH1 0x6 DUP1 SLOAD PUSH1 0xFF NOT AND PUSH1 0x1 OR SWAP1 SSTORE JUMP JUMPDEST PUSH1 0x40 MLOAD PUSH3 0x461BCD PUSH1 0xE5 SHL DUP2 MSTORE PUSH1 0x20 PUSH1 0x4 DUP3 ADD MSTORE PUSH1 0x24 DUP1 DUP3 ADD MSTORE PUSH32 0x54686520656C656374696F6E20697320616C726561647920696E2070726F6772 PUSH1 0x44 DUP3 ADD MSTORE PUSH4 0x32B9B997 PUSH1 0xE1 SHL PUSH1 0x64 DUP3 ADD MSTORE PUSH1 0x84 ADD PUSH2 0x2F2 JUMP JUMPDEST PUSH2 0x13DF PUSH1 0x40 MLOAD DUP1 PUSH1 0xA0 ADD PUSH1 0x40 MSTORE DUP1 PUSH1 0x0 DUP2 MSTORE PUSH1 0x20 ADD PUSH1 0x60 DUP2 MSTORE PUSH1 0x20 ADD PUSH1 0x60 DUP2 MSTORE PUSH1 0x20 ADD PUSH1 0x60 DUP2 MSTORE PUSH1 0x20 ADD PUSH1 0x60 DUP2 MSTORE POP SWAP1 JUMP JUMPDEST DUP2 PUSH1 0x1 PUSH1 0x0 DUP3 GT DUP1 ISZERO PUSH2 0x13F3 JUMPI POP PUSH1 0x4 SLOAD DUP3 LT JUMPDEST PUSH2 0x140F JUMPI PUSH1 0x40 MLOAD PUSH3 0x461BCD PUSH1 0xE5 SHL DUP2 MSTORE PUSH1 0x4 ADD PUSH2 0x2F2 SWAP1 PUSH2 0x27E0 JUMP JUMPDEST PUSH1 0x9 PUSH1 0x0 DUP6 DUP2 MSTORE PUSH1 0x20 ADD SWAP1 DUP2 MSTORE PUSH1 0x20 ADD PUSH1 0x0 KECCAK256 PUSH1 0x40 MLOAD DUP1 PUSH1 0xA0 ADD PUSH1 0x40 MSTORE SWAP1 DUP2 PUSH1 0x0 DUP3 ADD SLOAD DUP2 MSTORE PUSH1 0x20 ADD PUSH1 0x1 DUP3 ADD DUP1 SLOAD PUSH2 0x1447 SWAP1 PUSH2 0x28E1 JUMP JUMPDEST DUP1 PUSH1 0x1F ADD PUSH1 0x20 DUP1 SWAP2 DIV MUL PUSH1 0x20 ADD PUSH1 0x40 MLOAD SWAP1 DUP2 ADD PUSH1 0x40 MSTORE DUP1 SWAP3 SWAP2 SWAP1 DUP2 DUP2 MSTORE PUSH1 0x20 ADD DUP3 DUP1 SLOAD PUSH2 0x1473 SWAP1 PUSH2 0x28E1 JUMP JUMPDEST DUP1 ISZERO PUSH2 0x14C0 JUMPI DUP1 PUSH1 0x1F LT PUSH2 0x1495 JUMPI PUSH2 0x100 DUP1 DUP4 SLOAD DIV MUL DUP4 MSTORE SWAP2 PUSH1 0x20 ADD SWAP2 PUSH2 0x14C0 JUMP JUMPDEST DUP3 ADD SWAP2 SWAP1 PUSH1 0x0 MSTORE PUSH1 0x20 PUSH1 0x0 KECCAK256 SWAP1 JUMPDEST DUP2 SLOAD DUP2 MSTORE SWAP1 PUSH1 0x1 ADD SWAP1 PUSH1 0x20 ADD DUP1 DUP4 GT PUSH2 0x14A3 JUMPI DUP3 SWAP1 SUB PUSH1 0x1F AND DUP3 ADD SWAP2 JUMPDEST POP POP POP POP POP DUP2 MSTORE PUSH1 0x20 ADD PUSH1 0x2 DUP3 ADD DUP1 SLOAD PUSH2 0x14D9 SWAP1 PUSH2 0x28E1 JUMP JUMPDEST DUP1 PUSH1 0x1F ADD PUSH1 0x20 DUP1 SWAP2 DIV MUL PUSH1 0x20 ADD PUSH1 0x40 MLOAD SWAP1 DUP2 ADD PUSH1 0x40 MSTORE DUP1 SWAP3 SWAP2 SWAP1 DUP2 DUP2 MSTORE PUSH1 0x20 ADD DUP3 DUP1 SLOAD PUSH2 0x1505 SWAP1 PUSH2 0x28E1 JUMP JUMPDEST DUP1 ISZERO PUSH2 0x1552 JUMPI DUP1 PUSH1 0x1F LT PUSH2 0x1527 JUMPI PUSH2 0x100 DUP1 DUP4 SLOAD DIV MUL DUP4 MSTORE SWAP2 PUSH1 0x20 ADD SWAP2 PUSH2 0x1552 JUMP JUMPDEST DUP3 ADD SWAP2 SWAP1 PUSH1 0x0 MSTORE PUSH1 0x20 PUSH1 0x0 KECCAK256 SWAP1 JUMPDEST DUP2 SLOAD DUP2 MSTORE SWAP1 PUSH1 0x1 ADD SWAP1 PUSH1 0x20 ADD DUP1 DUP4 GT PUSH2 0x1535 JUMPI DUP3 SWAP1 SUB PUSH1 0x1F AND DUP3 ADD SWAP2 JUMPDEST POP POP POP POP POP DUP2 MSTORE PUSH1 0x20 ADD PUSH1 0x3 DUP3 ADD DUP1 SLOAD PUSH2 0x156B SWAP1 PUSH2 0x28E1 JUMP JUMPDEST DUP1 PUSH1 0x1F ADD PUSH1 0x20 DUP1 SWAP2 DIV MUL PUSH1 0x20 ADD PUSH1 0x40 MLOAD SWAP1 DUP2 ADD PUSH1 0x40 MSTORE DUP1 SWAP3 SWAP2 SWAP1 DUP2 DUP2 MSTORE PUSH1 0x20 ADD DUP3 DUP1 SLOAD PUSH2 0x1597 SWAP1 PUSH2 0x28E1 JUMP JUMPDEST DUP1 ISZERO PUSH2 0x15E4 JUMPI DUP1 PUSH1 0x1F LT PUSH2 0x15B9 JUMPI PUSH2 0x100 DUP1 DUP4 SLOAD DIV MUL DUP4 MSTORE SWAP2 PUSH1 0x20 ADD SWAP2 PUSH2 0x15E4 JUMP JUMPDEST DUP3 ADD SWAP2 SWAP1 PUSH1 0x0 MSTORE PUSH1 0x20 PUSH1 0x0 KECCAK256 SWAP1 JUMPDEST DUP2 SLOAD DUP2 MSTORE SWAP1 PUSH1 0x1 ADD SWAP1 PUSH1 0x20 ADD DUP1 DUP4 GT PUSH2 0x15C7 JUMPI DUP3 SWAP1 SUB PUSH1 0x1F AND DUP3 ADD SWAP2 JUMPDEST POP POP POP POP POP DUP2 MSTORE PUSH1 0x20 ADD PUSH1 0x4 DUP3 ADD DUP1 SLOAD PUSH2 0x15FD SWAP1 PUSH2 0x28E1 JUMP JUMPDEST DUP1 PUSH1 0x1F ADD PUSH1 0x20 DUP1 SWAP2 DIV MUL PUSH1 0x20 ADD PUSH1 0x40 MLOAD SWAP1 DUP2 ADD PUSH1 0x40 MSTORE DUP1 SWAP3 SWAP2 SWAP1 DUP2 DUP2 MSTORE PUSH1 0x20 ADD DUP3 DUP1 SLOAD PUSH2 0x1629 SWAP1 PUSH2 0x28E1 JUMP JUMPDEST DUP1 ISZERO PUSH2 0x1676 JUMPI DUP1 PUSH1 0x1F LT PUSH2 0x164B JUMPI PUSH2 0x100 DUP1 DUP4 SLOAD DIV MUL DUP4 MSTORE SWAP2 PUSH1 0x20 ADD SWAP2 PUSH2 0x1676 JUMP JUMPDEST DUP3 ADD SWAP2 SWAP1 PUSH1 0x0 MSTORE PUSH1 0x20 PUSH1 0x0 KECCAK256 SWAP1 JUMPDEST DUP2 SLOAD DUP2 MSTORE SWAP1 PUSH1 0x1 ADD SWAP1 PUSH1 0x20 ADD DUP1 DUP4 GT PUSH2 0x1659 JUMPI DUP3 SWAP1 SUB PUSH1 0x1F AND DUP3 ADD SWAP2 JUMPDEST POP POP POP POP POP DUP2 MSTORE POP POP SWAP3 POP POP POP SWAP2 SWAP1 POP JUMP JUMPDEST PUSH1 0x2 SLOAD PUSH1 0x1 PUSH1 0x1 PUSH1 0xA0 SHL SUB AND CALLER EQ PUSH2 0x16B2 JUMPI PUSH1 0x40 MLOAD PUSH3 0x461BCD PUSH1 0xE5 SHL DUP2 MSTORE PUSH1 0x4 ADD PUSH2 0x2F2 SWAP1 PUSH2 0x2838 JUMP JUMPDEST DUP1 PUSH1 0x0 DUP1 DUP3 GT DUP1 ISZERO PUSH2 0x16C5 JUMPI POP PUSH1 0x3 SLOAD DUP3 LT JUMPDEST PUSH2 0x16E1 JUMPI PUSH1 0x40 MLOAD PUSH3 0x461BCD PUSH1 0xE5 SHL DUP2 MSTORE PUSH1 0x4 ADD PUSH2 0x2F2 SWAP1 PUSH2 0x280E JUMP JUMPDEST PUSH1 0x0 DUP4 DUP2 MSTORE PUSH1 0xD PUSH1 0x20 MSTORE PUSH1 0x40 SWAP1 KECCAK256 SLOAD PUSH1 0xFF AND PUSH2 0x171D JUMPI PUSH1 0x0 DUP4 DUP2 MSTORE PUSH1 0xD PUSH1 0x20 MSTORE PUSH1 0x40 DUP2 KECCAK256 DUP1 SLOAD PUSH1 0xFF NOT AND PUSH1 0x1 OR SWAP1 SSTORE DUP1 SLOAD SWAP1 DUP1 PUSH2 0x422 DUP4 PUSH2 0x287B JUMP JUMPDEST PUSH1 0x40 MLOAD PUSH3 0x461BCD PUSH1 0xE5 SHL DUP2 MSTORE PUSH1 0x20 PUSH1 0x4 DUP3 ADD MSTORE PUSH1 0x24 DUP1 DUP3 ADD MSTORE PUSH32 0x54686520766F7465722068617320616C7265616479206265656E20617070726F PUSH1 0x44 DUP3 ADD MSTORE PUSH4 0x3B32B217 PUSH1 0xE1 SHL PUSH1 0x64 DUP3 ADD MSTORE PUSH1 0x84 ADD PUSH2 0x2F2 JUMP JUMPDEST CALLER PUSH1 0x0 SWAP1 DUP2 MSTORE PUSH1 0x8 PUSH1 0x20 MSTORE PUSH1 0x40 DUP2 KECCAK256 SLOAD DUP4 SWAP2 SUB PUSH2 0x17D0 JUMPI PUSH1 0x40 MLOAD PUSH3 0x461BCD PUSH1 0xE5 SHL DUP2 MSTORE PUSH1 0x20 PUSH1 0x4 DUP3 ADD DUP2 SWAP1 MSTORE PUSH1 0x24 DUP3 ADD MSTORE PUSH32 0x596F7520617265206E6F7420616E20617574686F72697A656420766F7465722E PUSH1 0x44 DUP3 ADD MSTORE PUSH1 0x64 ADD PUSH2 0x2F2 JUMP JUMPDEST CALLER PUSH1 0x0 SWAP1 DUP2 MSTORE PUSH1 0x8 PUSH1 0x20 SWAP1 DUP2 MSTORE PUSH1 0x40 DUP1 DUP4 KECCAK256 SLOAD DUP4 MSTORE PUSH1 0xD SWAP1 SWAP2 MSTORE SWAP1 KECCAK256 SLOAD PUSH1 0xFF AND PUSH2 0x183C JUMPI PUSH1 0x40 MLOAD PUSH3 0x461BCD PUSH1 0xE5 SHL DUP2 MSTORE PUSH1 0x20 PUSH1 0x4 DUP3 ADD DUP2 SWAP1 MSTORE PUSH1 0x24 DUP3 ADD MSTORE PUSH32 0x596F7520617265206E6F7420616E20617574686F72697A656420766F7465722E PUSH1 0x44 DUP3 ADD MSTORE PUSH1 0x64 ADD PUSH2 0x2F2 JUMP JUMPDEST PUSH1 0x0 DUP2 DUP2 MSTORE PUSH1 0xD PUSH1 0x20 MSTORE PUSH1 0x40 SWAP1 KECCAK256 SLOAD PUSH1 0xFF AND PUSH2 0x18A4 JUMPI PUSH1 0x40 MLOAD PUSH3 0x461BCD PUSH1 0xE5 SHL DUP2 MSTORE PUSH1 0x20 PUSH1 0x4 DUP3 ADD MSTORE PUSH1 0x21 PUSH1 0x24 DUP3 ADD MSTORE PUSH32 0x5468657920617265206E6F7420616E20617574686F72697A656420766F746572 PUSH1 0x44 DUP3 ADD MSTORE PUSH1 0x17 PUSH1 0xF9 SHL PUSH1 0x64 DUP3 ADD MSTORE PUSH1 0x84 ADD PUSH2 0x2F2 JUMP JUMPDEST DUP3 PUSH1 0x0 DUP1 DUP3 GT DUP1 ISZERO PUSH2 0x18B7 JUMPI POP PUSH1 0x3 SLOAD DUP3 LT JUMPDEST PUSH2 0x18D3 JUMPI PUSH1 0x40 MLOAD PUSH3 0x461BCD PUSH1 0xE5 SHL DUP2 MSTORE PUSH1 0x4 ADD PUSH2 0x2F2 SWAP1 PUSH2 0x280E JUMP JUMPDEST PUSH1 0x0 DUP6 DUP2 MSTORE PUSH1 0xF PUSH1 0x20 SWAP1 DUP2 MSTORE PUSH1 0x40 DUP1 DUP4 KECCAK256 DUP2 MLOAD PUSH1 0x60 DUP2 ADD DUP4 MSTORE CALLER DUP6 MSTORE PUSH1 0x8 DUP5 MSTORE SWAP2 SWAP1 SWAP4 KECCAK256 SLOAD DUP2 MSTORE SWAP1 DUP2 ADD DUP7 PUSH1 0x5 DUP2 GT ISZERO PUSH2 0x190F JUMPI PUSH2 0x190F PUSH2 0x2B71 JUMP JUMPDEST DUP2 MSTORE PUSH1 0x1 PUSH1 0x20 SWAP2 DUP3 ADD DUP2 SWAP1 MSTORE DUP4 SLOAD DUP1 DUP3 ADD DUP6 SSTORE PUSH1 0x0 SWAP5 DUP6 MSTORE SWAP4 DUP3 SWAP1 KECCAK256 DUP4 MLOAD PUSH1 0x2 SWAP1 SWAP6 MUL ADD SWAP4 DUP5 SSTORE SWAP1 DUP3 ADD MLOAD DUP4 DUP3 ADD DUP1 SLOAD SWAP4 SWAP5 SWAP4 SWAP2 SWAP3 SWAP1 SWAP2 PUSH1 0xFF NOT AND SWAP1 DUP4 PUSH1 0x5 DUP2 GT ISZERO PUSH2 0x195D JUMPI PUSH2 0x195D PUSH2 0x2B71 JUMP JUMPDEST MUL OR SWAP1 SSTORE POP PUSH1 0x40 SWAP2 DUP3 ADD MLOAD PUSH1 0x1 SWAP2 DUP3 ADD DUP1 SLOAD SWAP2 ISZERO ISZERO PUSH2 0x100 MUL PUSH2 0xFF00 NOT SWAP1 SWAP3 AND SWAP2 SWAP1 SWAP2 OR SWAP1 SSTORE CALLER PUSH1 0x0 SWAP1 DUP2 MSTORE PUSH1 0xB PUSH1 0x20 MSTORE SWAP2 SWAP1 SWAP2 KECCAK256 DUP1 SLOAD PUSH1 0xFF NOT AND SWAP1 SWAP2 OR SWAP1 SSTORE POP POP POP POP POP JUMP JUMPDEST PUSH1 0x0 DUP2 PUSH1 0x1 PUSH1 0x0 DUP3 GT DUP1 ISZERO PUSH2 0x19BA JUMPI POP PUSH1 0x4 SLOAD DUP3 LT JUMPDEST PUSH2 0x19D6 JUMPI PUSH1 0x40 MLOAD PUSH3 0x461BCD PUSH1 0xE5 SHL DUP2 MSTORE PUSH1 0x4 ADD PUSH2 0x2F2 SWAP1 PUSH2 0x27E0 JUMP JUMPDEST PUSH1 0x6 SLOAD PUSH2 0x100 SWAP1 DIV PUSH1 0xFF AND PUSH2 0x19FD JUMPI PUSH1 0x40 MLOAD PUSH3 0x461BCD PUSH1 0xE5 SHL DUP2 MSTORE PUSH1 0x4 ADD PUSH2 0x2F2 SWAP1 PUSH2 0x2B87 JUMP JUMPDEST POP POP POP PUSH1 0x0 SWAP1 DUP2 MSTORE PUSH1 0xC PUSH1 0x20 MSTORE PUSH1 0x40 SWAP1 KECCAK256 PUSH1 0x1 ADD SLOAD SWAP1 JUMP JUMPDEST PUSH1 0x2 SLOAD PUSH1 0x1 PUSH1 0x1 PUSH1 0xA0 SHL SUB AND CALLER EQ PUSH2 0x1A3F JUMPI PUSH1 0x40 MLOAD PUSH3 0x461BCD PUSH1 0xE5 SHL DUP2 MSTORE PUSH1 0x4 ADD PUSH2 0x2F2 SWAP1 PUSH2 0x2838 JUMP JUMPDEST DUP1 PUSH1 0x1 PUSH1 0x0 DUP3 GT DUP1 ISZERO PUSH2 0x1A53 JUMPI POP PUSH1 0x4 SLOAD DUP3 LT JUMPDEST PUSH2 0x1A6F JUMPI PUSH1 0x40 MLOAD PUSH3 0x461BCD PUSH1 0xE5 SHL DUP2 MSTORE PUSH1 0x4 ADD PUSH2 0x2F2 SWAP1 PUSH2 0x27E0 JUMP JUMPDEST PUSH1 0x0 DUP4 DUP2 MSTORE PUSH1 0xE PUSH1 0x20 MSTORE PUSH1 0x40 SWAP1 KECCAK256 SLOAD PUSH1 0xFF AND ISZERO PUSH2 0x1ADF JUMPI PUSH1 0x0 DUP4 DUP2 MSTORE PUSH1 0xE PUSH1 0x20 MSTORE PUSH1 0x40 DUP2 KECCAK256 DUP1 SLOAD PUSH1 0xFF NOT AND SWAP1 SSTORE PUSH1 0x1 DUP1 SLOAD SWAP2 PUSH2 0x1AAA DUP4 PUSH2 0x2BD1 JUMP JUMPDEST SWAP1 SWAP2 SSTORE POP POP PUSH1 0x40 MLOAD DUP4 DUP2 MSTORE PUSH32 0xFB0048BB5704410776033BB8355286FB6922CC0623412BD454152BAC55397F35 SWAP1 PUSH1 0x20 ADD PUSH2 0x453 JUMP JUMPDEST PUSH1 0x40 MLOAD PUSH3 0x461BCD PUSH1 0xE5 SHL DUP2 MSTORE PUSH1 0x20 PUSH1 0x4 DUP3 ADD MSTORE PUSH1 0x32 PUSH1 0x24 DUP3 ADD MSTORE PUSH32 0x5468652063616E6469646174652068617320616C7265616479206265656E2064 PUSH1 0x44 DUP3 ADD MSTORE PUSH18 0x32B1B634B732B21037B9103130B73732B217 PUSH1 0x71 SHL PUSH1 0x64 DUP3 ADD MSTORE PUSH1 0x84 ADD PUSH2 0x2F2 JUMP JUMPDEST PUSH1 0x60 PUSH1 0x0 DUP1 PUSH1 0x6 PUSH1 0x1 SWAP1 SLOAD SWAP1 PUSH2 0x100 EXP SWAP1 DIV PUSH1 0xFF AND PUSH2 0x1B73 JUMPI PUSH1 0x40 MLOAD PUSH3 0x461BCD PUSH1 0xE5 SHL DUP2 MSTORE PUSH1 0x4 ADD PUSH2 0x2F2 SWAP1 PUSH2 0x2B87 JUMP JUMPDEST PUSH1 0x1 PUSH1 0x0 SWAP1 DUP2 MSTORE PUSH32 0xD421A5181C571BBA3F01190C922C3B2A896FC1D84E86C9F17AC10E67EBEF8B5D SLOAD PUSH1 0x9 PUSH1 0x20 MSTORE PUSH32 0x92E85D02570A8092D09A6E3A57665BC3815A2699A4074001BF1CCABF660F5A36 SLOAD PUSH32 0x92E85D02570A8092D09A6E3A57665BC3815A2699A4074001BF1CCABF660F5A37 DUP1 SLOAD SWAP3 SWAP4 SWAP3 DUP4 SWAP2 SWAP1 PUSH2 0x1BF5 SWAP1 PUSH2 0x28E1 JUMP JUMPDEST DUP1 PUSH1 0x1F ADD PUSH1 0x20 DUP1 SWAP2 DIV MUL PUSH1 0x20 ADD PUSH1 0x40 MLOAD SWAP1 DUP2 ADD PUSH1 0x40 MSTORE DUP1 SWAP3 SWAP2 SWAP1 DUP2 DUP2 MSTORE PUSH1 0x20 ADD DUP3 DUP1 SLOAD PUSH2 0x1C21 SWAP1 PUSH2 0x28E1 JUMP JUMPDEST DUP1 ISZERO PUSH2 0x1C6E JUMPI DUP1 PUSH1 0x1F LT PUSH2 0x1C43 JUMPI PUSH2 0x100 DUP1 DUP4 SLOAD DIV MUL DUP4 MSTORE SWAP2 PUSH1 0x20 ADD SWAP2 PUSH2 0x1C6E JUMP JUMPDEST DUP3 ADD SWAP2 SWAP1 PUSH1 0x0 MSTORE PUSH1 0x20 PUSH1 0x0 KECCAK256 SWAP1 JUMPDEST DUP2 SLOAD DUP2 MSTORE SWAP1 PUSH1 0x1 ADD SWAP1 PUSH1 0x20 ADD DUP1 DUP4 GT PUSH2 0x1C51 JUMPI DUP3 SWAP1 SUB PUSH1 0x1F AND DUP3 ADD SWAP2 JUMPDEST POP SWAP4 SWAP5 POP PUSH1 0x2 SWAP4 POP POP POP POP JUMPDEST PUSH1 0x1 SLOAD DUP2 GT PUSH2 0x1D87 JUMPI PUSH1 0x0 DUP2 DUP2 MSTORE PUSH1 0xC PUSH1 0x20 MSTORE PUSH1 0x40 SWAP1 KECCAK256 PUSH1 0x1 ADD SLOAD DUP6 LT ISZERO PUSH2 0x1D58 JUMPI PUSH1 0x0 DUP2 DUP2 MSTORE PUSH1 0xC PUSH1 0x20 SWAP1 DUP2 MSTORE PUSH1 0x40 DUP1 DUP4 KECCAK256 PUSH1 0x1 SWAP1 DUP2 ADD SLOAD PUSH1 0x9 SWAP1 SWAP4 MSTORE SWAP3 KECCAK256 DUP1 SLOAD SWAP3 ADD DUP1 SLOAD SWAP2 SWAP8 POP SWAP2 SWAP5 POP PUSH2 0x1CCF SWAP1 PUSH2 0x28E1 JUMP JUMPDEST DUP1 PUSH1 0x1F ADD PUSH1 0x20 DUP1 SWAP2 DIV MUL PUSH1 0x20 ADD PUSH1 0x40 MLOAD SWAP1 DUP2 ADD PUSH1 0x40 MSTORE DUP1 SWAP3 SWAP2 SWAP1 DUP2 DUP2 MSTORE PUSH1 0x20 ADD DUP3 DUP1 SLOAD PUSH2 0x1CFB SWAP1 PUSH2 0x28E1 JUMP JUMPDEST DUP1 ISZERO PUSH2 0x1D48 JUMPI DUP1 PUSH1 0x1F LT PUSH2 0x1D1D JUMPI PUSH2 0x100 DUP1 DUP4 SLOAD DIV MUL DUP4 MSTORE SWAP2 PUSH1 0x20 ADD SWAP2 PUSH2 0x1D48 JUMP JUMPDEST DUP3 ADD SWAP2 SWAP1 PUSH1 0x0 MSTORE PUSH1 0x20 PUSH1 0x0 KECCAK256 SWAP1 JUMPDEST DUP2 SLOAD DUP2 MSTORE SWAP1 PUSH1 0x1 ADD SWAP1 PUSH1 0x20 ADD DUP1 DUP4 GT PUSH2 0x1D2B JUMPI DUP3 SWAP1 SUB PUSH1 0x1F AND DUP3 ADD SWAP2 JUMPDEST POP POP POP POP POP SWAP2 POP PUSH1 0x0 SWAP4 POP PUSH2 0x1D75 JUMP JUMPDEST PUSH1 0x0 DUP2 DUP2 MSTORE PUSH1 0xC PUSH1 0x20 MSTORE PUSH1 0x40 SWAP1 KECCAK256 PUSH1 0x1 ADD SLOAD DUP6 SWAP1 SUB PUSH2 0x1D75 JUMPI DUP1 SWAP4 POP JUMPDEST DUP1 PUSH2 0x1D7F DUP2 PUSH2 0x287B JUMP JUMPDEST SWAP2 POP POP PUSH2 0x1C7A JUMP JUMPDEST POP DUP3 PUSH1 0x0 SUB PUSH2 0x1DBE JUMPI DUP1 PUSH1 0x40 MLOAD PUSH1 0x20 ADD PUSH2 0x1DA1 SWAP2 SWAP1 PUSH2 0x2BE8 JUMP JUMPDEST PUSH1 0x40 DUP1 MLOAD PUSH1 0x1F NOT DUP2 DUP5 SUB ADD DUP2 MSTORE SWAP2 SWAP1 MSTORE SWAP8 SWAP2 SWAP7 POP SWAP3 SWAP5 POP SWAP3 POP POP POP JUMP JUMPDEST POP PUSH1 0x40 DUP1 MLOAD DUP1 DUP3 ADD SWAP1 SWAP2 MSTORE PUSH1 0x19 DUP2 MSTORE PUSH32 0x54686520726573756C7420697320546965204265747765656E00000000000000 PUSH1 0x20 DUP3 ADD MSTORE SWAP7 SWAP1 SWAP6 POP SWAP1 SWAP4 POP SWAP2 POP POP JUMP JUMPDEST PUSH1 0x60 PUSH1 0x11 DUP1 SLOAD DUP1 PUSH1 0x20 MUL PUSH1 0x20 ADD PUSH1 0x40 MLOAD SWAP1 DUP2 ADD PUSH1 0x40 MSTORE DUP1 SWAP3 SWAP2 SWAP1 DUP2 DUP2 MSTORE PUSH1 0x20 ADD PUSH1 0x0 SWAP1 JUMPDEST DUP3 DUP3 LT ISZERO PUSH2 0xA07 JUMPI DUP4 DUP3 SWAP1 PUSH1 0x0 MSTORE PUSH1 0x20 PUSH1 0x0 KECCAK256 SWAP1 PUSH1 0x5 MUL ADD PUSH1 0x40 MLOAD DUP1 PUSH1 0xA0 ADD PUSH1 0x40 MSTORE SWAP1 DUP2 PUSH1 0x0 DUP3 ADD SLOAD DUP2 MSTORE PUSH1 0x20 ADD PUSH1 0x1 DUP3 ADD DUP1 SLOAD PUSH2 0x1E60 SWAP1 PUSH2 0x28E1 JUMP JUMPDEST DUP1 PUSH1 0x1F ADD PUSH1 0x20 DUP1 SWAP2 DIV MUL PUSH1 0x20 ADD PUSH1 0x40 MLOAD SWAP1 DUP2 ADD PUSH1 0x40 MSTORE DUP1 SWAP3 SWAP2 SWAP1 DUP2 DUP2 MSTORE PUSH1 0x20 ADD DUP3 DUP1 SLOAD PUSH2 0x1E8C SWAP1 PUSH2 0x28E1 JUMP JUMPDEST DUP1 ISZERO PUSH2 0x1ED9 JUMPI DUP1 PUSH1 0x1F LT PUSH2 0x1EAE JUMPI PUSH2 0x100 DUP1 DUP4 SLOAD DIV MUL DUP4 MSTORE SWAP2 PUSH1 0x20 ADD SWAP2 PUSH2 0x1ED9 JUMP JUMPDEST DUP3 ADD SWAP2 SWAP1 PUSH1 0x0 MSTORE PUSH1 0x20 PUSH1 0x0 KECCAK256 SWAP1 JUMPDEST DUP2 SLOAD DUP2 MSTORE SWAP1 PUSH1 0x1 ADD SWAP1 PUSH1 0x20 ADD DUP1 DUP4 GT PUSH2 0x1EBC JUMPI DUP3 SWAP1 SUB PUSH1 0x1F AND DUP3 ADD SWAP2 JUMPDEST POP POP POP POP POP DUP2 MSTORE PUSH1 0x20 ADD PUSH1 0x2 DUP3 ADD DUP1 SLOAD PUSH2 0x1EF2 SWAP1 PUSH2 0x28E1 JUMP JUMPDEST DUP1 PUSH1 0x1F ADD PUSH1 0x20 DUP1 SWAP2 DIV MUL PUSH1 0x20 ADD PUSH1 0x40 MLOAD SWAP1 DUP2 ADD PUSH1 0x40 MSTORE DUP1 SWAP3 SWAP2 SWAP1 DUP2 DUP2 MSTORE PUSH1 0x20 ADD DUP3 DUP1 SLOAD PUSH2 0x1F1E SWAP1 PUSH2 0x28E1 JUMP JUMPDEST DUP1 ISZERO PUSH2 0x1F6B JUMPI DUP1 PUSH1 0x1F LT PUSH2 0x1F40 JUMPI PUSH2 0x100 DUP1 DUP4 SLOAD DIV MUL DUP4 MSTORE SWAP2 PUSH1 0x20 ADD SWAP2 PUSH2 0x1F6B JUMP JUMPDEST DUP3 ADD SWAP2 SWAP1 PUSH1 0x0 MSTORE PUSH1 0x20 PUSH1 0x0 KECCAK256 SWAP1 JUMPDEST DUP2 SLOAD DUP2 MSTORE SWAP1 PUSH1 0x1 ADD SWAP1 PUSH1 0x20 ADD DUP1 DUP4 GT PUSH2 0x1F4E JUMPI DUP3 SWAP1 SUB PUSH1 0x1F AND DUP3 ADD SWAP2 JUMPDEST POP POP POP POP POP DUP2 MSTORE PUSH1 0x20 ADD PUSH1 0x3 DUP3 ADD DUP1 SLOAD PUSH2 0x1F84 SWAP1 PUSH2 0x28E1 JUMP JUMPDEST DUP1 PUSH1 0x1F ADD PUSH1 0x20 DUP1 SWAP2 DIV MUL PUSH1 0x20 ADD PUSH1 0x40 MLOAD SWAP1 DUP2 ADD PUSH1 0x40 MSTORE DUP1 SWAP3 SWAP2 SWAP1 DUP2 DUP2 MSTORE PUSH1 0x20 ADD DUP3 DUP1 SLOAD PUSH2 0x1FB0 SWAP1 PUSH2 0x28E1 JUMP JUMPDEST DUP1 ISZERO PUSH2 0x1FFD JUMPI DUP1 PUSH1 0x1F LT PUSH2 0x1FD2 JUMPI PUSH2 0x100 DUP1 DUP4 SLOAD DIV MUL DUP4 MSTORE SWAP2 PUSH1 0x20 ADD SWAP2 PUSH2 0x1FFD JUMP JUMPDEST DUP3 ADD SWAP2 SWAP1 PUSH1 0x0 MSTORE PUSH1 0x20 PUSH1 0x0 KECCAK256 SWAP1 JUMPDEST DUP2 SLOAD DUP2 MSTORE SWAP1 PUSH1 0x1 ADD SWAP1 PUSH1 0x20 ADD DUP1 DUP4 GT PUSH2 0x1FE0 JUMPI DUP3 SWAP1 SUB PUSH1 0x1F AND DUP3 ADD SWAP2 JUMPDEST POP POP POP POP POP DUP2 MSTORE PUSH1 0x20 ADD PUSH1 0x4 DUP3 ADD DUP1 SLOAD PUSH2 0x2016 SWAP1 PUSH2 0x28E1 JUMP JUMPDEST DUP1 PUSH1 0x1F ADD PUSH1 0x20 DUP1 SWAP2 DIV MUL PUSH1 0x20 ADD PUSH1 0x40 MLOAD SWAP1 DUP2 ADD PUSH1 0x40 MSTORE DUP1 SWAP3 SWAP2 SWAP1 DUP2 DUP2 MSTORE PUSH1 0x20 ADD DUP3 DUP1 SLOAD PUSH2 0x2042 SWAP1 PUSH2 0x28E1 JUMP JUMPDEST DUP1 ISZERO PUSH2 0x208F JUMPI DUP1 PUSH1 0x1F LT PUSH2 0x2064 JUMPI PUSH2 0x100 DUP1 DUP4 SLOAD DIV MUL DUP4 MSTORE SWAP2 PUSH1 0x20 ADD SWAP2 PUSH2 0x208F JUMP JUMPDEST DUP3 ADD SWAP2 SWAP1 PUSH1 0x0 MSTORE PUSH1 0x20 PUSH1 0x0 KECCAK256 SWAP1 JUMPDEST DUP2 SLOAD DUP2 MSTORE SWAP1 PUSH1 0x1 ADD SWAP1 PUSH1 0x20 ADD DUP1 DUP4 GT PUSH2 0x2072 JUMPI DUP3 SWAP1 SUB PUSH1 0x1F AND DUP3 ADD SWAP2 JUMPDEST POP POP POP POP POP DUP2 MSTORE POP POP DUP2 MSTORE PUSH1 0x20 ADD SWAP1 PUSH1 0x1 ADD SWAP1 PUSH2 0x1E23 JUMP JUMPDEST PUSH1 0x2 SLOAD PUSH1 0x1 PUSH1 0x1 PUSH1 0xA0 SHL SUB AND CALLER EQ PUSH2 0x20D1 JUMPI PUSH1 0x40 MLOAD PUSH3 0x461BCD PUSH1 0xE5 SHL DUP2 MSTORE PUSH1 0x4 ADD PUSH2 0x2F2 SWAP1 PUSH2 0x2838 JUMP JUMPDEST DUP1 PUSH1 0x0 DUP1 DUP3 GT DUP1 ISZERO PUSH2 0x20E4 JUMPI POP PUSH1 0x3 SLOAD DUP3 LT JUMPDEST PUSH2 0x2100 JUMPI PUSH1 0x40 MLOAD PUSH3 0x461BCD PUSH1 0xE5 SHL DUP2 MSTORE PUSH1 0x4 ADD PUSH2 0x2F2 SWAP1 PUSH2 0x280E JUMP JUMPDEST PUSH1 0x0 DUP4 DUP2 MSTORE PUSH1 0xD PUSH1 0x20 MSTORE PUSH1 0x40 SWAP1 KECCAK256 SLOAD PUSH1 0xFF AND ISZERO PUSH2 0x213A JUMPI PUSH1 0x0 DUP4 DUP2 MSTORE PUSH1 0xD PUSH1 0x20 MSTORE PUSH1 0x40 DUP2 KECCAK256 DUP1 SLOAD PUSH1 0xFF NOT AND SWAP1 SSTORE DUP1 SLOAD SWAP1 DUP1 PUSH2 0x1AAA DUP4 PUSH2 0x2BD1 JUMP JUMPDEST PUSH1 0x40 MLOAD PUSH3 0x461BCD PUSH1 0xE5 SHL DUP2 MSTORE PUSH1 0x20 PUSH1 0x4 DUP3 ADD MSTORE PUSH1 0x2E PUSH1 0x24 DUP3 ADD MSTORE PUSH32 0x54686520766F7465722068617320616C7265616479206265656E206465636C69 PUSH1 0x44 DUP3 ADD MSTORE PUSH14 0x3732B21037B9103130B73732B217 PUSH1 0x91 SHL PUSH1 0x64 DUP3 ADD MSTORE PUSH1 0x84 ADD PUSH2 0x2F2 JUMP JUMPDEST PUSH2 0x21CE PUSH1 0x40 MLOAD DUP1 PUSH1 0xA0 ADD PUSH1 0x40 MSTORE DUP1 PUSH1 0x0 DUP2 MSTORE PUSH1 0x20 ADD PUSH1 0x60 DUP2 MSTORE PUSH1 0x20 ADD PUSH1 0x60 DUP2 MSTORE PUSH1 0x20 ADD PUSH1 0x0 PUSH1 0xFF AND DUP2 MSTORE PUSH1 0x20 ADD PUSH1 0x60 DUP2 MSTORE POP SWAP1 JUMP JUMPDEST DUP2 PUSH1 0x0 DUP1 DUP3 GT DUP1 ISZERO PUSH2 0x21E1 JUMPI POP PUSH1 0x3 SLOAD DUP3 LT JUMPDEST PUSH2 0x21FD JUMPI PUSH1 0x40 MLOAD PUSH3 0x461BCD PUSH1 0xE5 SHL DUP2 MSTORE PUSH1 0x4 ADD PUSH2 0x2F2 SWAP1 PUSH2 0x280E JUMP JUMPDEST PUSH1 0x7 PUSH1 0x0 DUP6 DUP2 MSTORE PUSH1 0x20 ADD SWAP1 DUP2 MSTORE PUSH1 0x20 ADD PUSH1 0x0 KECCAK256 PUSH1 0x40 MLOAD DUP1 PUSH1 0xA0 ADD PUSH1 0x40 MSTORE SWAP1 DUP2 PUSH1 0x0 DUP3 ADD SLOAD DUP2 MSTORE PUSH1 0x20 ADD PUSH1 0x1 DUP3 ADD DUP1 SLOAD PUSH2 0x2235 SWAP1 PUSH2 0x28E1 JUMP JUMPDEST DUP1 PUSH1 0x1F ADD PUSH1 0x20 DUP1 SWAP2 DIV MUL PUSH1 0x20 ADD PUSH1 0x40 MLOAD SWAP1 DUP2 ADD PUSH1 0x40 MSTORE DUP1 SWAP3 SWAP2 SWAP1 DUP2 DUP2 MSTORE PUSH1 0x20 ADD DUP3 DUP1 SLOAD PUSH2 0x2261 SWAP1 PUSH2 0x28E1 JUMP JUMPDEST DUP1 ISZERO PUSH2 0x22AE JUMPI DUP1 PUSH1 0x1F LT PUSH2 0x2283 JUMPI PUSH2 0x100 DUP1 DUP4 SLOAD DIV MUL DUP4 MSTORE SWAP2 PUSH1 0x20 ADD SWAP2 PUSH2 0x22AE JUMP JUMPDEST DUP3 ADD SWAP2 SWAP1 PUSH1 0x0 MSTORE PUSH1 0x20 PUSH1 0x0 KECCAK256 SWAP1 JUMPDEST DUP2 SLOAD DUP2 MSTORE SWAP1 PUSH1 0x1 ADD SWAP1 PUSH1 0x20 ADD DUP1 DUP4 GT PUSH2 0x2291 JUMPI DUP3 SWAP1 SUB PUSH1 0x1F AND DUP3 ADD SWAP2 JUMPDEST POP POP POP POP POP DUP2 MSTORE PUSH1 0x20 ADD PUSH1 0x2 DUP3 ADD DUP1 SLOAD PUSH2 0x22C7 SWAP1 PUSH2 0x28E1 JUMP JUMPDEST DUP1 PUSH1 0x1F ADD PUSH1 0x20 DUP1 SWAP2 DIV MUL PUSH1 0x20 ADD PUSH1 0x40 MLOAD SWAP1 DUP2 ADD PUSH1 0x40 MSTORE DUP1 SWAP3 SWAP2 SWAP1 DUP2 DUP2 MSTORE PUSH1 0x20 ADD DUP3 DUP1 SLOAD PUSH2 0x22F3 SWAP1 PUSH2 0x28E1 JUMP JUMPDEST DUP1 ISZERO PUSH2 0x2340 JUMPI DUP1 PUSH1 0x1F LT PUSH2 0x2315 JUMPI PUSH2 0x100 DUP1 DUP4 SLOAD DIV MUL DUP4 MSTORE SWAP2 PUSH1 0x20 ADD SWAP2 PUSH2 0x2340 JUMP JUMPDEST DUP3 ADD SWAP2 SWAP1 PUSH1 0x0 MSTORE PUSH1 0x20 PUSH1 0x0 KECCAK256 SWAP1 JUMPDEST DUP2 SLOAD DUP2 MSTORE SWAP1 PUSH1 0x1 ADD SWAP1 PUSH1 0x20 ADD DUP1 DUP4 GT PUSH2 0x2323 JUMPI DUP3 SWAP1 SUB PUSH1 0x1F AND DUP3 ADD SWAP2 JUMPDEST POP POP POP SWAP2 DUP4 MSTORE POP POP PUSH1 0x3 DUP3 ADD SLOAD PUSH1 0xFF AND PUSH1 0x20 DUP3 ADD MSTORE PUSH1 0x4 DUP3 ADD DUP1 SLOAD PUSH1 0x40 SWAP1 SWAP3 ADD SWAP2 PUSH2 0x15FD SWAP1 PUSH2 0x28E1 JUMP JUMPDEST PUSH1 0x0 PUSH1 0x20 DUP3 DUP5 SUB SLT ISZERO PUSH2 0x237C JUMPI PUSH1 0x0 DUP1 REVERT JUMPDEST POP CALLDATALOAD SWAP2 SWAP1 POP JUMP JUMPDEST PUSH1 0x0 DUP1 PUSH1 0x40 DUP4 DUP6 SUB SLT ISZERO PUSH2 0x2396 JUMPI PUSH1 0x0 DUP1 REVERT JUMPDEST POP POP DUP1 CALLDATALOAD SWAP3 PUSH1 0x20 SWAP1 SWAP2 ADD CALLDATALOAD SWAP2 POP JUMP JUMPDEST PUSH1 0x0 JUMPDEST DUP4 DUP2 LT ISZERO PUSH2 0x23C0 JUMPI DUP2 DUP2 ADD MLOAD DUP4 DUP3 ADD MSTORE PUSH1 0x20 ADD PUSH2 0x23A8 JUMP JUMPDEST POP POP PUSH1 0x0 SWAP2 ADD MSTORE JUMP JUMPDEST PUSH1 0x0 DUP2 MLOAD DUP1 DUP5 MSTORE PUSH2 0x23E1 DUP2 PUSH1 0x20 DUP7 ADD PUSH1 0x20 DUP7 ADD PUSH2 0x23A5 JUMP JUMPDEST PUSH1 0x1F ADD PUSH1 0x1F NOT AND SWAP3 SWAP1 SWAP3 ADD PUSH1 0x20 ADD SWAP3 SWAP2 POP POP JUMP JUMPDEST DUP1 MLOAD DUP3 MSTORE PUSH1 0x0 PUSH1 0x20 DUP3 ADD MLOAD PUSH1 0xA0 PUSH1 0x20 DUP6 ADD MSTORE PUSH2 0x2414 PUSH1 0xA0 DUP6 ADD DUP3 PUSH2 0x23C9 JUMP JUMPDEST SWAP1 POP PUSH1 0x40 DUP4 ADD MLOAD DUP5 DUP3 SUB PUSH1 0x40 DUP7 ADD MSTORE PUSH2 0x242D DUP3 DUP3 PUSH2 0x23C9 JUMP JUMPDEST SWAP2 POP POP PUSH1 0xFF PUSH1 0x60 DUP5 ADD MLOAD AND PUSH1 0x60 DUP6 ADD MSTORE PUSH1 0x80 DUP4 ADD MLOAD DUP5 DUP3 SUB PUSH1 0x80 DUP7 ADD MSTORE PUSH2 0x2454 DUP3 DUP3 PUSH2 0x23C9 JUMP JUMPDEST SWAP6 SWAP5 POP POP POP POP POP JUMP JUMPDEST PUSH1 0x0 PUSH1 0x20 DUP1 DUP4 ADD DUP2 DUP5 MSTORE DUP1 DUP6 MLOAD DUP1 DUP4 MSTORE PUSH1 0x40 DUP7 ADD SWAP2 POP PUSH1 0x40 DUP2 PUSH1 0x5 SHL DUP8 ADD ADD SWAP3 POP DUP4 DUP8 ADD PUSH1 0x0 JUMPDEST DUP3 DUP2 LT ISZERO PUSH2 0x24B2 JUMPI PUSH1 0x3F NOT DUP9 DUP7 SUB ADD DUP5 MSTORE PUSH2 0x24A0 DUP6 DUP4 MLOAD PUSH2 0x23F5 JUMP JUMPDEST SWAP5 POP SWAP3 DUP6 ADD SWAP3 SWAP1 DUP6 ADD SWAP1 PUSH1 0x1 ADD PUSH2 0x2484 JUMP JUMPDEST POP SWAP3 SWAP8 SWAP7 POP POP POP POP POP POP POP JUMP JUMPDEST PUSH4 0x4E487B71 PUSH1 0xE0 SHL PUSH1 0x0 MSTORE PUSH1 0x41 PUSH1 0x4 MSTORE PUSH1 0x24 PUSH1 0x0 REVERT JUMPDEST PUSH1 0x0 DUP3 PUSH1 0x1F DUP4 ADD SLT PUSH2 0x24E6 JUMPI PUSH1 0x0 DUP1 REVERT JUMPDEST DUP2 CALLDATALOAD PUSH8 0xFFFFFFFFFFFFFFFF DUP1 DUP3 GT ISZERO PUSH2 0x2501 JUMPI PUSH2 0x2501 PUSH2 0x24BF JUMP JUMPDEST PUSH1 0x40 MLOAD PUSH1 0x1F DUP4 ADD PUSH1 0x1F NOT SWAP1 DUP2 AND PUSH1 0x3F ADD AND DUP2 ADD SWAP1 DUP3 DUP3 GT DUP2 DUP4 LT OR ISZERO PUSH2 0x2529 JUMPI PUSH2 0x2529 PUSH2 0x24BF JUMP JUMPDEST DUP2 PUSH1 0x40 MSTORE DUP4 DUP2 MSTORE DUP7 PUSH1 0x20 DUP6 DUP9 ADD ADD GT ISZERO PUSH2 0x2542 JUMPI PUSH1 0x0 DUP1 REVERT JUMPDEST DUP4 PUSH1 0x20 DUP8 ADD PUSH1 0x20 DUP4 ADD CALLDATACOPY PUSH1 0x0 PUSH1 0x20 DUP6 DUP4 ADD ADD MSTORE DUP1 SWAP5 POP POP POP POP POP SWAP3 SWAP2 POP POP JUMP JUMPDEST PUSH1 0x0 DUP1 PUSH1 0x0 DUP1 PUSH1 0x80 DUP6 DUP8 SUB SLT ISZERO PUSH2 0x2578 JUMPI PUSH1 0x0 DUP1 REVERT JUMPDEST DUP5 CALLDATALOAD PUSH8 0xFFFFFFFFFFFFFFFF DUP1 DUP3 GT ISZERO PUSH2 0x2590 JUMPI PUSH1 0x0 DUP1 REVERT JUMPDEST PUSH2 0x259C DUP9 DUP4 DUP10 ADD PUSH2 0x24D5 JUMP JUMPDEST SWAP6 POP PUSH1 0x20 DUP8 ADD CALLDATALOAD SWAP2 POP DUP1 DUP3 GT ISZERO PUSH2 0x25B2 JUMPI PUSH1 0x0 DUP1 REVERT JUMPDEST PUSH2 0x25BE DUP9 DUP4 DUP10 ADD PUSH2 0x24D5 JUMP JUMPDEST SWAP5 POP PUSH1 0x40 DUP8 ADD CALLDATALOAD SWAP2 POP DUP1 DUP3 GT ISZERO PUSH2 0x25D4 JUMPI PUSH1 0x0 DUP1 REVERT JUMPDEST PUSH2 0x25E0 DUP9 DUP4 DUP10 ADD PUSH2 0x24D5 JUMP JUMPDEST SWAP4 POP PUSH1 0x60 DUP8 ADD CALLDATALOAD SWAP2 POP DUP1 DUP3 GT ISZERO PUSH2 0x25F6 JUMPI PUSH1 0x0 DUP1 REVERT JUMPDEST POP PUSH2 0x2603 DUP8 DUP3 DUP9 ADD PUSH2 0x24D5 JUMP JUMPDEST SWAP2 POP POP SWAP3 SWAP6 SWAP2 SWAP5 POP SWAP3 POP JUMP JUMPDEST PUSH1 0x0 DUP1 PUSH1 0x0 DUP1 PUSH1 0x80 DUP6 DUP8 SUB SLT ISZERO PUSH2 0x2625 JUMPI PUSH1 0x0 DUP1 REVERT JUMPDEST DUP5 CALLDATALOAD PUSH8 0xFFFFFFFFFFFFFFFF DUP1 DUP3 GT ISZERO PUSH2 0x263D JUMPI PUSH1 0x0 DUP1 REVERT JUMPDEST PUSH2 0x2649 DUP9 DUP4 DUP10 ADD PUSH2 0x24D5 JUMP JUMPDEST SWAP6 POP PUSH1 0x20 DUP8 ADD CALLDATALOAD SWAP2 POP DUP1 DUP3 GT ISZERO PUSH2 0x265F JUMPI PUSH1 0x0 DUP1 REVERT JUMPDEST PUSH2 0x266B DUP9 DUP4 DUP10 ADD PUSH2 0x24D5 JUMP JUMPDEST SWAP5 POP PUSH1 0x40 DUP8 ADD CALLDATALOAD SWAP2 POP PUSH1 0xFF DUP3 AND DUP3 EQ PUSH2 0x2683 JUMPI PUSH1 0x0 DUP1 REVERT JUMPDEST SWAP1 SWAP3 POP PUSH1 0x60 DUP7 ADD CALLDATALOAD SWAP1 DUP1 DUP3 GT ISZERO PUSH2 0x25F6 JUMPI PUSH1 0x0 DUP1 REVERT JUMPDEST DUP1 MLOAD DUP3 MSTORE PUSH1 0x0 PUSH1 0x20 DUP3 ADD MLOAD PUSH1 0xA0 PUSH1 0x20 DUP6 ADD MSTORE PUSH2 0x26B8 PUSH1 0xA0 DUP6 ADD DUP3 PUSH2 0x23C9 JUMP JUMPDEST SWAP1 POP PUSH1 0x40 DUP4 ADD MLOAD DUP5 DUP3 SUB PUSH1 0x40 DUP7 ADD MSTORE PUSH2 0x26D1 DUP3 DUP3 PUSH2 0x23C9 JUMP JUMPDEST SWAP2 POP POP PUSH1 0x60 DUP4 ADD MLOAD DUP5 DUP3 SUB PUSH1 0x60 DUP7 ADD MSTORE PUSH2 0x26EB DUP3 DUP3 PUSH2 0x23C9 JUMP JUMPDEST SWAP2 POP POP PUSH1 0x80 DUP4 ADD MLOAD DUP5 DUP3 SUB PUSH1 0x80 DUP7 ADD MSTORE PUSH2 0x2454 DUP3 DUP3 PUSH2 0x23C9 JUMP JUMPDEST PUSH1 0x20 DUP2 MSTORE PUSH1 0x0 PUSH2 0x2718 PUSH1 0x20 DUP4 ADD DUP5 PUSH2 0x2699 JUMP JUMPDEST SWAP4 SWAP3 POP POP POP JUMP JUMPDEST PUSH1 0x0 DUP1 PUSH1 0x40 DUP4 DUP6 SUB SLT ISZERO PUSH2 0x2732 JUMPI PUSH1 0x0 DUP1 REVERT JUMPDEST DUP3 CALLDATALOAD SWAP2 POP PUSH1 0x20 DUP4 ADD CALLDATALOAD PUSH1 0x6 DUP2 LT PUSH2 0x2748 JUMPI PUSH1 0x0 DUP1 REVERT JUMPDEST DUP1 SWAP2 POP POP SWAP3 POP SWAP3 SWAP1 POP JUMP JUMPDEST PUSH1 0x60 DUP2 MSTORE PUSH1 0x0 PUSH2 0x2766 PUSH1 0x60 DUP4 ADD DUP7 PUSH2 0x23C9 JUMP JUMPDEST PUSH1 0x20 DUP4 ADD SWAP5 SWAP1 SWAP5 MSTORE POP PUSH1 0x40 ADD MSTORE SWAP2 SWAP1 POP JUMP JUMPDEST PUSH1 0x0 PUSH1 0x20 DUP1 DUP4 ADD DUP2 DUP5 MSTORE DUP1 DUP6 MLOAD DUP1 DUP4 MSTORE PUSH1 0x40 DUP7 ADD SWAP2 POP PUSH1 0x40 DUP2 PUSH1 0x5 SHL DUP8 ADD ADD SWAP3 POP DUP4 DUP8 ADD PUSH1 0x0 JUMPDEST DUP3 DUP2 LT ISZERO PUSH2 0x24B2 JUMPI PUSH1 0x3F NOT DUP9 DUP7 SUB ADD DUP5 MSTORE PUSH2 0x27BB DUP6 DUP4 MLOAD PUSH2 0x2699 JUMP JUMPDEST SWAP5 POP SWAP3 DUP6 ADD SWAP3 SWAP1 DUP6 ADD SWAP1 PUSH1 0x1 ADD PUSH2 0x279F JUMP JUMPDEST PUSH1 0x20 DUP2 MSTORE PUSH1 0x0 PUSH2 0x2718 PUSH1 0x20 DUP4 ADD DUP5 PUSH2 0x23F5 JUMP JUMPDEST PUSH1 0x20 DUP1 DUP3 MSTORE PUSH1 0x14 SWAP1 DUP3 ADD MSTORE PUSH20 0x125B9D985B1A590810D85B991A59185D19481259 PUSH1 0x62 SHL PUSH1 0x40 DUP3 ADD MSTORE PUSH1 0x60 ADD SWAP1 JUMP JUMPDEST PUSH1 0x20 DUP1 DUP3 MSTORE PUSH1 0x10 SWAP1 DUP3 ADD MSTORE PUSH16 0x125B9D985B1A5908159BDD195C881259 PUSH1 0x82 SHL PUSH1 0x40 DUP3 ADD MSTORE PUSH1 0x60 ADD SWAP1 JUMP JUMPDEST PUSH1 0x20 DUP1 DUP3 MSTORE PUSH1 0x13 SWAP1 DUP3 ADD MSTORE PUSH19 0x556E617574686F72697A656420616363657373 PUSH1 0x68 SHL PUSH1 0x40 DUP3 ADD MSTORE PUSH1 0x60 ADD SWAP1 JUMP JUMPDEST PUSH4 0x4E487B71 PUSH1 0xE0 SHL PUSH1 0x0 MSTORE PUSH1 0x11 PUSH1 0x4 MSTORE PUSH1 0x24 PUSH1 0x0 REVERT JUMPDEST PUSH1 0x0 PUSH1 0x1 DUP3 ADD PUSH2 0x288D JUMPI PUSH2 0x288D PUSH2 0x2865 JUMP JUMPDEST POP PUSH1 0x1 ADD SWAP1 JUMP JUMPDEST PUSH1 0x20 DUP1 DUP3 MSTORE PUSH1 0x1C SWAP1 DUP3 ADD MSTORE PUSH32 0x456C656374696F6E206973206E6F7420696E2070726F67726573732E00000000 PUSH1 0x40 DUP3 ADD MSTORE PUSH1 0x60 ADD SWAP1 JUMP JUMPDEST PUSH4 0x4E487B71 PUSH1 0xE0 SHL PUSH1 0x0 MSTORE PUSH1 0x32 PUSH1 0x4 MSTORE PUSH1 0x24 PUSH1 0x0 REVERT JUMPDEST PUSH1 0x1 DUP2 DUP2 SHR SWAP1 DUP3 AND DUP1 PUSH2 0x28F5 JUMPI PUSH1 0x7F DUP3 AND SWAP2 POP JUMPDEST PUSH1 0x20 DUP3 LT DUP2 SUB PUSH2 0x2915 JUMPI PUSH4 0x4E487B71 PUSH1 0xE0 SHL PUSH1 0x0 MSTORE PUSH1 0x22 PUSH1 0x4 MSTORE PUSH1 0x24 PUSH1 0x0 REVERT JUMPDEST POP SWAP2 SWAP1 POP JUMP JUMPDEST PUSH1 0x20 DUP1 DUP3 MSTORE PUSH1 0x21 SWAP1 DUP3 ADD MSTORE PUSH32 0x596F75206861766520616C7265616479206265656E2072656769737465726564 PUSH1 0x40 DUP3 ADD MSTORE PUSH1 0x17 PUSH1 0xF9 SHL PUSH1 0x60 DUP3 ADD MSTORE PUSH1 0x80 ADD SWAP1 JUMP JUMPDEST PUSH1 0x1F DUP3 GT ISZERO PUSH2 0x4B9 JUMPI PUSH1 0x0 DUP2 DUP2 MSTORE PUSH1 0x20 DUP2 KECCAK256 PUSH1 0x1F DUP6 ADD PUSH1 0x5 SHR DUP2 ADD PUSH1 0x20 DUP7 LT ISZERO PUSH2 0x2983 JUMPI POP DUP1 JUMPDEST PUSH1 0x1F DUP6 ADD PUSH1 0x5 SHR DUP3 ADD SWAP2 POP JUMPDEST DUP2 DUP2 LT ISZERO PUSH2 0x29A2 JUMPI DUP3 DUP2 SSTORE PUSH1 0x1 ADD PUSH2 0x298F JUMP JUMPDEST POP POP POP POP POP POP JUMP JUMPDEST DUP2 MLOAD PUSH8 0xFFFFFFFFFFFFFFFF DUP2 GT ISZERO PUSH2 0x29C4 JUMPI PUSH2 0x29C4 PUSH2 0x24BF JUMP JUMPDEST PUSH2 0x29D8 DUP2 PUSH2 0x29D2 DUP5 SLOAD PUSH2 0x28E1 JUMP JUMPDEST DUP5 PUSH2 0x295C JUMP JUMPDEST PUSH1 0x20 DUP1 PUSH1 0x1F DUP4 GT PUSH1 0x1 DUP2 EQ PUSH2 0x2A0D JUMPI PUSH1 0x0 DUP5 ISZERO PUSH2 0x29F5 JUMPI POP DUP6 DUP4 ADD MLOAD JUMPDEST PUSH1 0x0 NOT PUSH1 0x3 DUP7 SWAP1 SHL SHR NOT AND PUSH1 0x1 DUP6 SWAP1 SHL OR DUP6 SSTORE PUSH2 0x29A2 JUMP JUMPDEST PUSH1 0x0 DUP6 DUP2 MSTORE PUSH1 0x20 DUP2 KECCAK256 PUSH1 0x1F NOT DUP7 AND SWAP2 JUMPDEST DUP3 DUP2 LT ISZERO PUSH2 0x2A3C JUMPI DUP9 DUP7 ADD MLOAD DUP3 SSTORE SWAP5 DUP5 ADD SWAP5 PUSH1 0x1 SWAP1 SWAP2 ADD SWAP1 DUP5 ADD PUSH2 0x2A1D JUMP JUMPDEST POP DUP6 DUP3 LT ISZERO PUSH2 0x2A5A JUMPI DUP8 DUP6 ADD MLOAD PUSH1 0x0 NOT PUSH1 0x3 DUP9 SWAP1 SHL PUSH1 0xF8 AND SHR NOT AND DUP2 SSTORE JUMPDEST POP POP POP POP POP PUSH1 0x1 SWAP1 DUP2 SHL ADD SWAP1 SSTORE POP JUMP JUMPDEST DUP2 DUP2 SUB PUSH2 0x2A75 JUMPI POP POP JUMP JUMPDEST PUSH2 0x2A7F DUP3 SLOAD PUSH2 0x28E1 JUMP JUMPDEST PUSH8 0xFFFFFFFFFFFFFFFF DUP2 GT ISZERO PUSH2 0x2A97 JUMPI PUSH2 0x2A97 PUSH2 0x24BF JUMP JUMPDEST PUSH2 0x2AA5 DUP2 PUSH2 0x29D2 DUP5 SLOAD PUSH2 0x28E1 JUMP JUMPDEST PUSH1 0x0 PUSH1 0x1F DUP3 GT PUSH1 0x1 DUP2 EQ PUSH2 0x2AD9 JUMPI PUSH1 0x0 DUP4 ISZERO PUSH2 0x2AC1 JUMPI POP DUP5 DUP3 ADD SLOAD JUMPDEST PUSH1 0x0 NOT PUSH1 0x3 DUP6 SWAP1 SHL SHR NOT AND PUSH1 0x1 DUP5 SWAP1 SHL OR DUP5 SSTORE PUSH2 0x2B3E JUMP JUMPDEST PUSH1 0x0 DUP6 DUP2 MSTORE PUSH1 0x20 SWAP1 KECCAK256 PUSH1 0x1F NOT DUP5 AND SWAP1 PUSH1 0x0 DUP7 DUP2 MSTORE PUSH1 0x20 SWAP1 KECCAK256 DUP5 JUMPDEST DUP4 DUP2 LT ISZERO PUSH2 0x2B13 JUMPI DUP3 DUP7 ADD SLOAD DUP3 SSTORE PUSH1 0x1 SWAP6 DUP7 ADD SWAP6 SWAP1 SWAP2 ADD SWAP1 PUSH1 0x20 ADD PUSH2 0x2AF3 JUMP JUMPDEST POP DUP6 DUP4 LT ISZERO PUSH2 0x2B31 JUMPI DUP2 DUP6 ADD SLOAD PUSH1 0x0 NOT PUSH1 0x3 DUP9 SWAP1 SHL PUSH1 0xF8 AND SHR NOT AND DUP2 SSTORE JUMPDEST POP POP POP PUSH1 0x1 DUP4 PUSH1 0x1 SHL ADD DUP5 SSTORE JUMPDEST POP POP POP POP POP JUMP JUMPDEST PUSH1 0x1 PUSH1 0x1 PUSH1 0xA0 SHL SUB DUP4 AND DUP2 MSTORE PUSH1 0x40 PUSH1 0x20 DUP3 ADD DUP2 SWAP1 MSTORE PUSH1 0x0 SWAP1 PUSH2 0x2B69 SWAP1 DUP4 ADD DUP5 PUSH2 0x23C9 JUMP JUMPDEST SWAP5 SWAP4 POP POP POP POP JUMP JUMPDEST PUSH4 0x4E487B71 PUSH1 0xE0 SHL PUSH1 0x0 MSTORE PUSH1 0x21 PUSH1 0x4 MSTORE PUSH1 0x24 PUSH1 0x0 REVERT JUMPDEST PUSH1 0x20 DUP1 DUP3 MSTORE PUSH1 0x2A SWAP1 DUP3 ADD MSTORE PUSH32 0x596F752063616E6E6F7420766965772074686520726573756C74732061742074 PUSH1 0x40 DUP3 ADD MSTORE PUSH10 0x34329036B7B6B2B73A17 PUSH1 0xB1 SHL PUSH1 0x60 DUP3 ADD MSTORE PUSH1 0x80 ADD SWAP1 JUMP JUMPDEST PUSH1 0x0 DUP2 PUSH2 0x2BE0 JUMPI PUSH2 0x2BE0 PUSH2 0x2865 JUMP JUMPDEST POP PUSH1 0x0 NOT ADD SWAP1 JUMP JUMPDEST PUSH14 0x2A3432903BB4B73732B91034B99 PUSH1 0x95 SHL DUP2 MSTORE PUSH1 0x0 DUP3 MLOAD PUSH2 0x2C11 DUP2 PUSH1 0xE DUP6 ADD PUSH1 0x20 DUP8 ADD PUSH2 0x23A5 JUMP JUMPDEST SWAP2 SWAP1 SWAP2 ADD PUSH1 0xE ADD SWAP3 SWAP2 POP POP JUMP INVALID LOG2 PUSH5 0x6970667358 0x22 SLT KECCAK256 SUB CALLER 0xE5 0xF6 DUP5 PUSH9 0x6725521FECAF580DA4 SDIV GAS PUSH24 0x70F5A03637FD32D1F722E69D4BCC64736F6C634300081200 CALLER "
				},
				"gasEstimates": {
					"creation": {
						"codeDepositCost": "2269600",
						"executionCost": "110113",
						"totalCost": "2379713"
					},
					"external": {
						"add_voter(string,string,uint8,string)": "infinite",
						"approve_or_unBan_candidate(uint256)": "56420",
						"approve_or_unBan_voter(uint256)": "56413",
						"delegate_my_vote(uint256,uint8)": "132913",
						"endElection()": "30845",
						"get_candidate_detail(uint256)": "infinite",
						"get_candidate_eligibility(uint256)": "4666",
						"get_candidate_list()": "infinite",
						"get_candidate_result(uint256)": "6870",
						"get_election_result()": "infinite",
						"get_voter_detail(uint256)": "infinite",
						"get_voter_eligibility(uint256)": "4656",
						"get_voters_list()": "infinite",
						"registerVote(uint256)": "infinite",
						"register_candidate(string,string,string,string)": "infinite",
						"register_delegated_vote(uint256,uint256)": "infinite",
						"reject_or_ban_candidate(uint256)": "56373",
						"reject_or_ban_voter(uint256)": "56439",
						"show_my_vote()": "4566",
						"startElection()": "28741"
					}
				},
				"methodIdentifiers": {
					"add_voter(string,string,uint8,string)": "5b8ebb64",
					"approve_or_unBan_candidate(uint256)": "1d529aa4",
					"approve_or_unBan_voter(uint256)": "bb30d88e",
					"delegate_my_vote(uint256,uint8)": "bd0c7009",
					"endElection()": "59f78468",
					"get_candidate_detail(uint256)": "a589ac5c",
					"get_candidate_eligibility(uint256)": "0340851d",
					"get_candidate_list()": "e9b52668",
					"get_candidate_result(uint256)": "c2b33e6e",
					"get_election_result()": "d1b9fb3f",
					"get_voter_detail(uint256)": "fc864716",
					"get_voter_eligibility(uint256)": "0318e0ac",
					"get_voters_list()": "3c209877",
					"registerVote(uint256)": "464d4a92",
					"register_candidate(string,string,string,string)": "54155fbf",
					"register_delegated_vote(uint256,uint256)": "2802ce59",
					"reject_or_ban_candidate(uint256)": "cdd11b64",
					"reject_or_ban_voter(uint256)": "eca88ca6",
					"show_my_vote()": "b2cdae46",
					"startElection()": "62d73eb8"
				}
			},
			"storageLayout": {
				"storage": [
					{
						"astId": 316,
						"contract": "BlockChainElection.sol:Voting",
						"label": "total_active_voters",
						"offset": 0,
						"slot": "0",
						"type": "t_uint256"
					},
					{
						"astId": 318,
						"contract": "BlockChainElection.sol:Voting",
						"label": "active_candidates",
						"offset": 0,
						"slot": "1",
						"type": "t_uint256"
					},
					{
						"astId": 320,
						"contract": "BlockChainElection.sol:Voting",
						"label": "election_commission",
						"offset": 0,
						"slot": "2",
						"type": "t_address"
					},
					{
						"astId": 322,
						"contract": "BlockChainElection.sol:Voting",
						"label": "id_voter",
						"offset": 0,
						"slot": "3",
						"type": "t_uint256"
					},
					{
						"astId": 324,
						"contract": "BlockChainElection.sol:Voting",
						"label": "id_candidate",
						"offset": 0,
						"slot": "4",
						"type": "t_uint256"
					},
					{
						"astId": 329,
						"contract": "BlockChainElection.sol:Voting",
						"label": "total_votes",
						"offset": 0,
						"slot": "5",
						"type": "t_uint256"
					},
					{
						"astId": 331,
						"contract": "BlockChainElection.sol:Voting",
						"label": "election_started",
						"offset": 0,
						"slot": "6",
						"type": "t_bool"
					},
					{
						"astId": 333,
						"contract": "BlockChainElection.sol:Voting",
						"label": "election_ended",
						"offset": 1,
						"slot": "6",
						"type": "t_bool"
					},
					{
						"astId": 398,
						"contract": "BlockChainElection.sol:Voting",
						"label": "voters",
						"offset": 0,
						"slot": "7",
						"type": "t_mapping(t_uint256,t_struct(Voters_List)344_storage)"
					},
					{
						"astId": 403,
						"contract": "BlockChainElection.sol:Voting",
						"label": "voterIdManager",
						"offset": 0,
						"slot": "8",
						"type": "t_mapping(t_address,t_struct(Voter_Id_Manager)353_storage)"
					},
					{
						"astId": 408,
						"contract": "BlockChainElection.sol:Voting",
						"label": "candidate",
						"offset": 0,
						"slot": "9",
						"type": "t_mapping(t_uint256,t_struct(Candidate_List)364_storage)"
					},
					{
						"astId": 413,
						"contract": "BlockChainElection.sol:Voting",
						"label": "candidateIdManager",
						"offset": 0,
						"slot": "10",
						"type": "t_mapping(t_address,t_struct(Candidate_Id_Manager)370_storage)"
					},
					{
						"astId": 418,
						"contract": "BlockChainElection.sol:Voting",
						"label": "is_voted",
						"offset": 0,
						"slot": "11",
						"type": "t_mapping(t_address,t_struct(Voted)350_storage)"
					},
					{
						"astId": 423,
						"contract": "BlockChainElection.sol:Voting",
						"label": "results",
						"offset": 0,
						"slot": "12",
						"type": "t_mapping(t_uint256,t_struct(Votes)375_storage)"
					},
					{
						"astId": 428,
						"contract": "BlockChainElection.sol:Voting",
						"label": "voterEligible",
						"offset": 0,
						"slot": "13",
						"type": "t_mapping(t_uint256,t_struct(Voter_Eligible)347_storage)"
					},
					{
						"astId": 433,
						"contract": "BlockChainElection.sol:Voting",
						"label": "candidateEligible",
						"offset": 0,
						"slot": "14",
						"type": "t_mapping(t_uint256,t_struct(Candidate_Eligible)367_storage)"
					},
					{
						"astId": 439,
						"contract": "BlockChainElection.sol:Voting",
						"label": "delegatedVotes",
						"offset": 0,
						"slot": "15",
						"type": "t_mapping(t_uint256,t_array(t_struct(Delegated_Votes)383_storage)dyn_storage)"
					},
					{
						"astId": 444,
						"contract": "BlockChainElection.sol:Voting",
						"label": "vote_list",
						"offset": 0,
						"slot": "16",
						"type": "t_mapping(t_uint256,t_struct(Vote_List)386_storage)"
					},
					{
						"astId": 448,
						"contract": "BlockChainElection.sol:Voting",
						"label": "candidateList",
						"offset": 0,
						"slot": "17",
						"type": "t_array(t_struct(Candidate_List)364_storage)dyn_storage"
					},
					{
						"astId": 452,
						"contract": "BlockChainElection.sol:Voting",
						"label": "votersList",
						"offset": 0,
						"slot": "18",
						"type": "t_array(t_struct(Voters_List)344_storage)dyn_storage"
					}
				],
				"types": {
					"t_address": {
						"encoding": "inplace",
						"label": "address",
						"numberOfBytes": "20"
					},
					"t_array(t_struct(Candidate_List)364_storage)dyn_storage": {
						"base": "t_struct(Candidate_List)364_storage",
						"encoding": "dynamic_array",
						"label": "struct Voting.Candidate_List[]",
						"numberOfBytes": "32"
					},
					"t_array(t_struct(Delegated_Votes)383_storage)dyn_storage": {
						"base": "t_struct(Delegated_Votes)383_storage",
						"encoding": "dynamic_array",
						"label": "struct Voting.Delegated_Votes[]",
						"numberOfBytes": "32"
					},
					"t_array(t_struct(Voters_List)344_storage)dyn_storage": {
						"base": "t_struct(Voters_List)344_storage",
						"encoding": "dynamic_array",
						"label": "struct Voting.Voters_List[]",
						"numberOfBytes": "32"
					},
					"t_bool": {
						"encoding": "inplace",
						"label": "bool",
						"numberOfBytes": "1"
					},
					"t_enum(DelegatedRelationship)393": {
						"encoding": "inplace",
						"label": "enum Voting.DelegatedRelationship",
						"numberOfBytes": "1"
					},
					"t_mapping(t_address,t_struct(Candidate_Id_Manager)370_storage)": {
						"encoding": "mapping",
						"key": "t_address",
						"label": "mapping(address => struct Voting.Candidate_Id_Manager)",
						"numberOfBytes": "32",
						"value": "t_struct(Candidate_Id_Manager)370_storage"
					},
					"t_mapping(t_address,t_struct(Voted)350_storage)": {
						"encoding": "mapping",
						"key": "t_address",
						"label": "mapping(address => struct Voting.Voted)",
						"numberOfBytes": "32",
						"value": "t_struct(Voted)350_storage"
					},
					"t_mapping(t_address,t_struct(Voter_Id_Manager)353_storage)": {
						"encoding": "mapping",
						"key": "t_address",
						"label": "mapping(address => struct Voting.Voter_Id_Manager)",
						"numberOfBytes": "32",
						"value": "t_struct(Voter_Id_Manager)353_storage"
					},
					"t_mapping(t_uint256,t_array(t_struct(Delegated_Votes)383_storage)dyn_storage)": {
						"encoding": "mapping",
						"key": "t_uint256",
						"label": "mapping(uint256 => struct Voting.Delegated_Votes[])",
						"numberOfBytes": "32",
						"value": "t_array(t_struct(Delegated_Votes)383_storage)dyn_storage"
					},
					"t_mapping(t_uint256,t_struct(Candidate_Eligible)367_storage)": {
						"encoding": "mapping",
						"key": "t_uint256",
						"label": "mapping(uint256 => struct Voting.Candidate_Eligible)",
						"numberOfBytes": "32",
						"value": "t_struct(Candidate_Eligible)367_storage"
					},
					"t_mapping(t_uint256,t_struct(Candidate_List)364_storage)": {
						"encoding": "mapping",
						"key": "t_uint256",
						"label": "mapping(uint256 => struct Voting.Candidate_List)",
						"numberOfBytes": "32",
						"value": "t_struct(Candidate_List)364_storage"
					},
					"t_mapping(t_uint256,t_struct(Vote_List)386_storage)": {
						"encoding": "mapping",
						"key": "t_uint256",
						"label": "mapping(uint256 => struct Voting.Vote_List)",
						"numberOfBytes": "32",
						"value": "t_struct(Vote_List)386_storage"
					},
					"t_mapping(t_uint256,t_struct(Voter_Eligible)347_storage)": {
						"encoding": "mapping",
						"key": "t_uint256",
						"label": "mapping(uint256 => struct Voting.Voter_Eligible)",
						"numberOfBytes": "32",
						"value": "t_struct(Voter_Eligible)347_storage"
					},
					"t_mapping(t_uint256,t_struct(Voters_List)344_storage)": {
						"encoding": "mapping",
						"key": "t_uint256",
						"label": "mapping(uint256 => struct Voting.Voters_List)",
						"numberOfBytes": "32",
						"value": "t_struct(Voters_List)344_storage"
					},
					"t_mapping(t_uint256,t_struct(Votes)375_storage)": {
						"encoding": "mapping",
						"key": "t_uint256",
						"label": "mapping(uint256 => struct Voting.Votes)",
						"numberOfBytes": "32",
						"value": "t_struct(Votes)375_storage"
					},
					"t_string_storage": {
						"encoding": "bytes",
						"label": "string",
						"numberOfBytes": "32"
					},
					"t_struct(Candidate_Eligible)367_storage": {
						"encoding": "inplace",
						"label": "struct Voting.Candidate_Eligible",
						"members": [
							{
								"astId": 366,
								"contract": "BlockChainElection.sol:Voting",
								"label": "candiate_eligible",
								"offset": 0,
								"slot": "0",
								"type": "t_bool"
							}
						],
						"numberOfBytes": "32"
					},
					"t_struct(Candidate_Id_Manager)370_storage": {
						"encoding": "inplace",
						"label": "struct Voting.Candidate_Id_Manager",
						"members": [
							{
								"astId": 369,
								"contract": "BlockChainElection.sol:Voting",
								"label": "id",
								"offset": 0,
								"slot": "0",
								"type": "t_uint256"
							}
						],
						"numberOfBytes": "32"
					},
					"t_struct(Candidate_List)364_storage": {
						"encoding": "inplace",
						"label": "struct Voting.Candidate_List",
						"members": [
							{
								"astId": 355,
								"contract": "BlockChainElection.sol:Voting",
								"label": "candidate_id",
								"offset": 0,
								"slot": "0",
								"type": "t_uint256"
							},
							{
								"astId": 357,
								"contract": "BlockChainElection.sol:Voting",
								"label": "candidate_name",
								"offset": 0,
								"slot": "1",
								"type": "t_string_storage"
							},
							{
								"astId": 359,
								"contract": "BlockChainElection.sol:Voting",
								"label": "candidate_address",
								"offset": 0,
								"slot": "2",
								"type": "t_string_storage"
							},
							{
								"astId": 361,
								"contract": "BlockChainElection.sol:Voting",
								"label": "candidate_age",
								"offset": 0,
								"slot": "3",
								"type": "t_string_storage"
							},
							{
								"astId": 363,
								"contract": "BlockChainElection.sol:Voting",
								"label": "candidate_promise",
								"offset": 0,
								"slot": "4",
								"type": "t_string_storage"
							}
						],
						"numberOfBytes": "160"
					},
					"t_struct(Delegated_Votes)383_storage": {
						"encoding": "inplace",
						"label": "struct Voting.Delegated_Votes",
						"members": [
							{
								"astId": 377,
								"contract": "BlockChainElection.sol:Voting",
								"label": "delegated_voter_id",
								"offset": 0,
								"slot": "0",
								"type": "t_uint256"
							},
							{
								"astId": 380,
								"contract": "BlockChainElection.sol:Voting",
								"label": "delegated_voter_relationship",
								"offset": 0,
								"slot": "1",
								"type": "t_enum(DelegatedRelationship)393"
							},
							{
								"astId": 382,
								"contract": "BlockChainElection.sol:Voting",
								"label": "can_vote",
								"offset": 1,
								"slot": "1",
								"type": "t_bool"
							}
						],
						"numberOfBytes": "64"
					},
					"t_struct(Vote_List)386_storage": {
						"encoding": "inplace",
						"label": "struct Voting.Vote_List",
						"members": [
							{
								"astId": 385,
								"contract": "BlockChainElection.sol:Voting",
								"label": "voted_id",
								"offset": 0,
								"slot": "0",
								"type": "t_uint256"
							}
						],
						"numberOfBytes": "32"
					},
					"t_struct(Voted)350_storage": {
						"encoding": "inplace",
						"label": "struct Voting.Voted",
						"members": [
							{
								"astId": 349,
								"contract": "BlockChainElection.sol:Voting",
								"label": "voted",
								"offset": 0,
								"slot": "0",
								"type": "t_bool"
							}
						],
						"numberOfBytes": "32"
					},
					"t_struct(Voter_Eligible)347_storage": {
						"encoding": "inplace",
						"label": "struct Voting.Voter_Eligible",
						"members": [
							{
								"astId": 346,
								"contract": "BlockChainElection.sol:Voting",
								"label": "voter_eligible",
								"offset": 0,
								"slot": "0",
								"type": "t_bool"
							}
						],
						"numberOfBytes": "32"
					},
					"t_struct(Voter_Id_Manager)353_storage": {
						"encoding": "inplace",
						"label": "struct Voting.Voter_Id_Manager",
						"members": [
							{
								"astId": 352,
								"contract": "BlockChainElection.sol:Voting",
								"label": "id",
								"offset": 0,
								"slot": "0",
								"type": "t_uint256"
							}
						],
						"numberOfBytes": "32"
					},
					"t_struct(Voters_List)344_storage": {
						"encoding": "inplace",
						"label": "struct Voting.Voters_List",
						"members": [
							{
								"astId": 335,
								"contract": "BlockChainElection.sol:Voting",
								"label": "voter_id",
								"offset": 0,
								"slot": "0",
								"type": "t_uint256"
							},
							{
								"astId": 337,
								"contract": "BlockChainElection.sol:Voting",
								"label": "voter_name",
								"offset": 0,
								"slot": "1",
								"type": "t_string_storage"
							},
							{
								"astId": 339,
								"contract": "BlockChainElection.sol:Voting",
								"label": "voter_address",
								"offset": 0,
								"slot": "2",
								"type": "t_string_storage"
							},
							{
								"astId": 341,
								"contract": "BlockChainElection.sol:Voting",
								"label": "voter_age",
								"offset": 0,
								"slot": "3",
								"type": "t_uint8"
							},
							{
								"astId": 343,
								"contract": "BlockChainElection.sol:Voting",
								"label": "voter_aadhaar_number",
								"offset": 0,
								"slot": "4",
								"type": "t_string_storage"
							}
						],
						"numberOfBytes": "160"
					},
					"t_struct(Votes)375_storage": {
						"encoding": "inplace",
						"label": "struct Voting.Votes",
						"members": [
							{
								"astId": 372,
								"contract": "BlockChainElection.sol:Voting",
								"label": "id",
								"offset": 0,
								"slot": "0",
								"type": "t_uint256"
							},
							{
								"astId": 374,
								"contract": "BlockChainElection.sol:Voting",
								"label": "vote_count",
								"offset": 0,
								"slot": "1",
								"type": "t_uint256"
							}
						],
						"numberOfBytes": "64"
					},
					"t_uint256": {
						"encoding": "inplace",
						"label": "uint256",
						"numberOfBytes": "32"
					},
					"t_uint8": {
						"encoding": "inplace",
						"label": "uint8",
						"numberOfBytes": "1"
					}
				}
			},
			"userdoc": {
				"kind": "user",
				"methods": {},
				"version": 1
			}
		}
	}
}