{
	"BlockChainElection.sol": {
		"Voting": {
			"abi": [
				{
					"inputs": [],
					"stateMutability": "nonpayable",
					"type": "constructor"
				},
				{
					"anonymous": false,
					"inputs": [
						{
							"indexed": false,
							"internalType": "uint256",
							"name": "",
							"type": "uint256"
						}
					],
					"name": "Approved",
					"type": "event"
				},
				{
					"anonymous": false,
					"inputs": [
						{
							"indexed": false,
							"internalType": "uint256",
							"name": "",
							"type": "uint256"
						}
					],
					"name": "Rejected_or_Banned",
					"type": "event"
				},
				{
					"anonymous": false,
					"inputs": [
						{
							"indexed": false,
							"internalType": "address",
							"name": "",
							"type": "address"
						},
						{
							"indexed": false,
							"internalType": "string",
							"name": "",
							"type": "string"
						}
					],
					"name": "Request_For_Registration",
					"type": "event"
				},
				{
					"anonymous": false,
					"inputs": [
						{
							"indexed": false,
							"internalType": "address",
							"name": "",
							"type": "address"
						},
						{
							"indexed": false,
							"internalType": "string",
							"name": "",
							"type": "string"
						}
					],
					"name": "candidate_registration",
					"type": "event"
				},
				{
					"anonymous": false,
					"inputs": [
						{
							"indexed": false,
							"internalType": "address",
							"name": "",
							"type": "address"
						},
						{
							"indexed": false,
							"internalType": "string",
							"name": "",
							"type": "string"
						}
					],
					"name": "voter_registration",
					"type": "event"
				},
				{
					"inputs": [
						{
							"internalType": "string",
							"name": "_voter_name",
							"type": "string"
						},
						{
							"internalType": "string",
							"name": "_voter_address",
							"type": "string"
						},
						{
							"internalType": "uint8",
							"name": "_voter_age",
							"type": "uint8"
						},
						{
							"internalType": "string",
							"name": "_voter_aadhaar_number",
							"type": "string"
						}
					],
					"name": "add_voter",
					"outputs": [],
					"stateMutability": "nonpayable",
					"type": "function"
				},
				{
					"inputs": [
						{
							"internalType": "uint256",
							"name": "_candidate_id",
							"type": "uint256"
						}
					],
					"name": "approve_or_unBan_candidate",
					"outputs": [],
					"stateMutability": "nonpayable",
					"type": "function"
				},
				{
					"inputs": [
						{
							"internalType": "uint256",
							"name": "_voter_id",
							"type": "uint256"
						}
					],
					"name": "approve_or_unBan_voter",
					"outputs": [],
					"stateMutability": "nonpayable",
					"type": "function"
				},
				{
					"inputs": [
						{
							"internalType": "uint256",
							"name": "_voter_id",
							"type": "uint256"
						},
						{
							"internalType": "enum Voting.DelegatedRelationship",
							"name": "_relationship",
							"type": "uint8"
						}
					],
					"name": "delegate_my_vote",
					"outputs": [],
					"stateMutability": "nonpayable",
					"type": "function"
				},
				{
					"inputs": [],
					"name": "endElection",
					"outputs": [],
					"stateMutability": "nonpayable",
					"type": "function"
				},
				{
					"inputs": [
						{
							"internalType": "uint256",
							"name": "_candidate_id",
							"type": "uint256"
						}
					],
					"name": "get_candidate_detail",
					"outputs": [
						{
							"components": [
								{
									"internalType": "uint256",
									"name": "candidate_id",
									"type": "uint256"
								},
								{
									"internalType": "string",
									"name": "candidate_name",
									"type": "string"
								},
								{
									"internalType": "string",
									"name": "candidate_address",
									"type": "string"
								},
								{
									"internalType": "string",
									"name": "candidate_age",
									"type": "string"
								},
								{
									"internalType": "string",
									"name": "candidate_promise",
									"type": "string"
								}
							],
							"internalType": "struct Voting.Candidate_List",
							"name": "",
							"type": "tuple"
						}
					],
					"stateMutability": "view",
					"type": "function"
				},
				{
					"inputs": [
						{
							"internalType": "uint256",
							"name": "_candidate_id",
							"type": "uint256"
						}
					],
					"name": "get_candidate_eligibility",
					"outputs": [
						{
							"internalType": "bool",
							"name": "",
							"type": "bool"
						}
					],
					"stateMutability": "view",
					"type": "function"
				},
				{
					"inputs": [],
					"name": "get_candidate_list",
					"outputs": [
						{
							"components": [
								{
									"internalType": "uint256",
									"name": "candidate_id",
									"type": "uint256"
								},
								{
									"internalType": "string",
									"name": "candidate_name",
									"type": "string"
								},
								{
									"internalType": "string",
									"name": "candidate_address",
									"type": "string"
								},
								{
									"internalType": "string",
									"name": "candidate_age",
									"type": "string"
								},
								{
									"internalType": "string",
									"name": "candidate_promise",
									"type": "string"
								}
							],
							"internalType": "struct Voting.Candidate_List[]",
							"name": "",
							"type": "tuple[]"
						}
					],
					"stateMutability": "view",
					"type": "function"
				},
				{
					"inputs": [
						{
							"internalType": "uint256",
							"name": "_candidate_id",
							"type": "uint256"
						}
					],
					"name": "get_candidate_result",
					"outputs": [
						{
							"internalType": "uint256",
							"name": "",
							"type": "uint256"
						}
					],
					"stateMutability": "view",
					"type": "function"
				},
				{
					"inputs": [],
					"name": "get_election_result",
					"outputs": [
						{
							"internalType": "string",
							"name": "",
							"type": "string"
						},
						{
							"internalType": "uint256",
							"name": "",
							"type": "uint256"
						},
						{
							"internalType": "uint256",
							"name": "",
							"type": "uint256"
						}
					],
					"stateMutability": "view",
					"type": "function"
				},
				{
					"inputs": [
						{
							"internalType": "uint256",
							"name": "_voter_id",
							"type": "uint256"
						}
					],
					"name": "get_voter_detail",
					"outputs": [
						{
							"components": [
								{
									"internalType": "uint256",
									"name": "voter_id",
									"type": "uint256"
								},
								{
									"internalType": "string",
									"name": "voter_name",
									"type": "string"
								},
								{
									"internalType": "string",
									"name": "voter_address",
									"type": "string"
								},
								{
									"internalType": "uint8",
									"name": "voter_age",
									"type": "uint8"
								},
								{
									"internalType": "string",
									"name": "voter_aadhaar_number",
									"type": "string"
								}
							],
							"internalType": "struct Voting.Voters_List",
							"name": "",
							"type": "tuple"
						}
					],
					"stateMutability": "view",
					"type": "function"
				},
				{
					"inputs": [
						{
							"internalType": "uint256",
							"name": "_voter_id",
							"type": "uint256"
						}
					],
					"name": "get_voter_eligibility",
					"outputs": [
						{
							"internalType": "bool",
							"name": "",
							"type": "bool"
						}
					],
					"stateMutability": "view",
					"type": "function"
				},
				{
					"inputs": [
						{
							"internalType": "uint256",
							"name": "_candidate_id",
							"type": "uint256"
						}
					],
					"name": "registerVote",
					"outputs": [],
					"stateMutability": "nonpayable",
					"type": "function"
				},
				{
					"inputs": [
						{
							"internalType": "string",
							"name": "_candidate_name",
							"type": "string"
						},
						{
							"internalType": "string",
							"name": "_candidate_address",
							"type": "string"
						},
						{
							"internalType": "string",
							"name": "_candidate_age",
							"type": "string"
						},
						{
							"internalType": "string",
							"name": "_candidate_promise",
							"type": "string"
						}
					],
					"name": "register_candidate",
					"outputs": [],
					"stateMutability": "nonpayable",
					"type": "function"
				},
				{
					"inputs": [
						{
							"internalType": "uint256",
							"name": "_delegated_voter_id",
							"type": "uint256"
						},
						{
							"internalType": "uint256",
							"name": "_candidate_id",
							"type": "uint256"
						}
					],
					"name": "register_delegated_vote",
					"outputs": [],
					"stateMutability": "nonpayable",
					"type": "function"
				},
				{
					"inputs": [
						{
							"internalType": "uint256",
							"name": "_candidate_id",
							"type": "uint256"
						}
					],
					"name": "reject_or_ban_candidate",
					"outputs": [],
					"stateMutability": "nonpayable",
					"type": "function"
				},
				{
					"inputs": [
						{
							"internalType": "uint256",
							"name": "_voter_id",
							"type": "uint256"
						}
					],
					"name": "reject_or_ban_voter",
					"outputs": [],
					"stateMutability": "nonpayable",
					"type": "function"
				},
				{
					"inputs": [],
					"name": "startElection",
					"outputs": [],
					"stateMutability": "nonpayable",
					"type": "function"
				}
			],
			"devdoc": {
				"kind": "dev",
				"methods": {},
				"version": 1
			},
			"evm": {
				"assembly": "    /* \"BlockChainElection.sol\":129:10772  contract Voting{... */\n  mstore(0x40, 0x80)\n    /* \"BlockChainElection.sol\":1983:2257  constructor(){... */\n  callvalue\n  dup1\n  iszero\n  tag_1\n  jumpi\n  0x00\n  dup1\n  revert\ntag_1:\n  pop\n    /* \"BlockChainElection.sol\":2007:2026  election_commission */\n  0x02\n    /* \"BlockChainElection.sol\":2007:2039  election_commission = msg.sender */\n  dup1\n  sload\n  not(sub(shl(0xa0, 0x01), 0x01))\n  and\n    /* \"BlockChainElection.sol\":2029:2039  msg.sender */\n  caller\n    /* \"BlockChainElection.sol\":2007:2039  election_commission = msg.sender */\n  or\n  swap1\n  sstore\n    /* \"BlockChainElection.sol\":2007:2026  election_commission */\n  0x00\n    /* \"BlockChainElection.sol\":2050:2073  total_active_voters = 0 */\n  dup1\n  dup1\n  sstore\n    /* \"BlockChainElection.sol\":2007:2039  election_commission = msg.sender */\n  0x01\n    /* \"BlockChainElection.sol\":2084:2105  active_candidates = 0 */\n  dup2\n  dup2\n  sstore\n    /* \"BlockChainElection.sol\":2116:2124  id_voter */\n  0x03\n    /* \"BlockChainElection.sol\":2116:2128  id_voter = 1 */\n  dup2\n  swap1\n  sstore\n    /* \"BlockChainElection.sol\":2139:2151  id_candidate */\n  0x04\n    /* \"BlockChainElection.sol\":2139:2155  id_candidate = 1 */\n  sstore\n    /* \"BlockChainElection.sol\":2166:2177  total_votes */\n  0x05\n    /* \"BlockChainElection.sol\":2166:2181  total_votes = 0 */\n  sstore\n    /* \"BlockChainElection.sol\":2192:2208  election_started */\n  0x06\n    /* \"BlockChainElection.sol\":2192:2216  election_started = false */\n  dup1\n  sload\n  not(0xffff)\n    /* \"BlockChainElection.sol\":2227:2249  election_ended = false */\n  and\n  swap1\n  sstore\n    /* \"BlockChainElection.sol\":129:10772  contract Voting{... */\n  dataSize(sub_0)\n  dup1\n  dataOffset(sub_0)\n  0x00\n  codecopy\n  0x00\n  return\nstop\n\nsub_0: assembly {\n        /* \"BlockChainElection.sol\":129:10772  contract Voting{... */\n      mstore(0x40, 0x80)\n      callvalue\n      dup1\n      iszero\n      tag_1\n      jumpi\n      0x00\n      dup1\n      revert\n    tag_1:\n      pop\n      jumpi(tag_2, lt(calldatasize, 0x04))\n      shr(0xe0, calldataload(0x00))\n      dup1\n      0xa589ac5c\n      gt\n      tag_21\n      jumpi\n      dup1\n      0xcdd11b64\n      gt\n      tag_22\n      jumpi\n      dup1\n      0xcdd11b64\n      eq\n      tag_16\n      jumpi\n      dup1\n      0xd1b9fb3f\n      eq\n      tag_17\n      jumpi\n      dup1\n      0xe9b52668\n      eq\n      tag_18\n      jumpi\n      dup1\n      0xeca88ca6\n      eq\n      tag_19\n      jumpi\n      dup1\n      0xfc864716\n      eq\n      tag_20\n      jumpi\n      0x00\n      dup1\n      revert\n    tag_22:\n      dup1\n      0xa589ac5c\n      eq\n      tag_12\n      jumpi\n      dup1\n      0xbb30d88e\n      eq\n      tag_13\n      jumpi\n      dup1\n      0xbd0c7009\n      eq\n      tag_14\n      jumpi\n      dup1\n      0xc2b33e6e\n      eq\n      tag_15\n      jumpi\n      0x00\n      dup1\n      revert\n    tag_21:\n      dup1\n      0x464d4a92\n      gt\n      tag_23\n      jumpi\n      dup1\n      0x464d4a92\n      eq\n      tag_7\n      jumpi\n      dup1\n      0x54155fbf\n      eq\n      tag_8\n      jumpi\n      dup1\n      0x59f78468\n      eq\n      tag_9\n      jumpi\n      dup1\n      0x5b8ebb64\n      eq\n      tag_10\n      jumpi\n      dup1\n      0x62d73eb8\n      eq\n      tag_11\n      jumpi\n      0x00\n      dup1\n      revert\n    tag_23:\n      dup1\n      0x0318e0ac\n      eq\n      tag_3\n      jumpi\n      dup1\n      0x0340851d\n      eq\n      tag_4\n      jumpi\n      dup1\n      0x1d529aa4\n      eq\n      tag_5\n      jumpi\n      dup1\n      0x2802ce59\n      eq\n      tag_6\n      jumpi\n    tag_2:\n      0x00\n      dup1\n      revert\n        /* \"BlockChainElection.sol\":10468:10605  function get_voter_eligibility(uint _voter_id) public view returns(bool){... */\n    tag_3:\n      tag_24\n      tag_25\n      calldatasize\n      0x04\n      tag_26\n      jump\t// in\n    tag_25:\n        /* \"BlockChainElection.sol\":10535:10539  bool */\n      0x00\n        /* \"BlockChainElection.sol\":10558:10582  voterEligible[_voter_id] */\n      swap1\n      dup2\n      mstore\n        /* \"BlockChainElection.sol\":10558:10571  voterEligible */\n      0x0d\n        /* \"BlockChainElection.sol\":10558:10582  voterEligible[_voter_id] */\n      0x20\n      mstore\n      0x40\n      swap1\n      keccak256\n        /* \"BlockChainElection.sol\":10558:10597  voterEligible[_voter_id].voter_eligible */\n      sload\n      0xff\n      and\n      swap1\n        /* \"BlockChainElection.sol\":10468:10605  function get_voter_eligibility(uint _voter_id) public view returns(bool){... */\n      jump\n    tag_24:\n      mload(0x40)\n        /* \"#utility.yul\":364:378   */\n      swap1\n      iszero\n        /* \"#utility.yul\":357:379   */\n      iszero\n        /* \"#utility.yul\":339:380   */\n      dup2\n      mstore\n        /* \"#utility.yul\":327:329   */\n      0x20\n        /* \"#utility.yul\":312:330   */\n      add\n        /* \"BlockChainElection.sol\":10468:10605  function get_voter_eligibility(uint _voter_id) public view returns(bool){... */\n    tag_28:\n      mload(0x40)\n      dup1\n      swap2\n      sub\n      swap1\n      return\n        /* \"BlockChainElection.sol\":10613:10769  function get_candidate_eligibility(uint _candidate_id) public view returns(bool){... */\n    tag_4:\n      tag_24\n      tag_31\n      calldatasize\n      0x04\n      tag_26\n      jump\t// in\n    tag_31:\n        /* \"BlockChainElection.sol\":10688:10692  bool */\n      0x00\n        /* \"BlockChainElection.sol\":10711:10743  candidateEligible[_candidate_id] */\n      swap1\n      dup2\n      mstore\n        /* \"BlockChainElection.sol\":10711:10728  candidateEligible */\n      0x0e\n        /* \"BlockChainElection.sol\":10711:10743  candidateEligible[_candidate_id] */\n      0x20\n      mstore\n      0x40\n      swap1\n      keccak256\n        /* \"BlockChainElection.sol\":10711:10761  candidateEligible[_candidate_id].candiate_eligible */\n      sload\n      0xff\n      and\n      swap1\n        /* \"BlockChainElection.sol\":10613:10769  function get_candidate_eligibility(uint _candidate_id) public view returns(bool){... */\n      jump\n        /* \"BlockChainElection.sol\":6176:6577  function approve_or_unBan_candidate(uint _candidate_id) public onlyElectionCommission {... */\n    tag_5:\n      tag_34\n      tag_35\n      calldatasize\n      0x04\n      tag_26\n      jump\t// in\n    tag_35:\n      tag_36\n      jump\t// in\n    tag_34:\n      stop\n        /* \"BlockChainElection.sol\":8179:8967  function register_delegated_vote(uint _delegated_voter_id, uint _candidate_id) public election_in_progress{... */\n    tag_6:\n      tag_34\n      tag_38\n      calldatasize\n      0x04\n      tag_39\n      jump\t// in\n    tag_38:\n      tag_40\n      jump\t// in\n        /* \"BlockChainElection.sol\":7804:8171  function registerVote(uint _candidate_id) public votePolling(_candidate_id) election_in_progress{... */\n    tag_7:\n      tag_34\n      tag_42\n      calldatasize\n      0x04\n      tag_26\n      jump\t// in\n    tag_42:\n      tag_43\n      jump\t// in\n        /* \"BlockChainElection.sol\":5383:6168  function register_candidate(string memory _candidate_name, string memory _candidate_address, string memory _candidate_age, string memory _candidate_promise) public OneTimeRegistrationCandidate{... */\n    tag_8:\n      tag_34\n      tag_45\n      calldatasize\n      0x04\n      tag_46\n      jump\t// in\n    tag_45:\n      tag_47\n      jump\t// in\n        /* \"BlockChainElection.sol\":7248:7512  function endElection() public onlyElectionCommission{... */\n    tag_9:\n      tag_34\n      tag_49\n      jump\t// in\n        /* \"BlockChainElection.sol\":3975:4614  function add_voter(string memory _voter_name, string memory _voter_address, uint8 _voter_age, string memory _voter_aadhaar_number) public OneTimeRegistrationVoter{... */\n    tag_10:\n      tag_34\n      tag_51\n      calldatasize\n      0x04\n      tag_52\n      jump\t// in\n    tag_51:\n      tag_53\n      jump\t// in\n        /* \"BlockChainElection.sol\":7010:7240  function startElection() public onlyElectionCommission{... */\n    tag_11:\n      tag_34\n      tag_55\n      jump\t// in\n        /* \"BlockChainElection.sol\":9108:9251  function get_candidate_detail(uint _candidate_id) public view returns (Candidate_List memory){... */\n    tag_12:\n      tag_56\n      tag_57\n      calldatasize\n      0x04\n      tag_26\n      jump\t// in\n    tag_57:\n      tag_58\n      jump\t// in\n    tag_56:\n      mload(0x40)\n      tag_28\n      swap2\n      swap1\n      tag_60\n      jump\t// in\n        /* \"BlockChainElection.sol\":4622:4986  function approve_or_unBan_voter(uint _voter_id) public onlyElectionCommission{... */\n    tag_13:\n      tag_34\n      tag_62\n      calldatasize\n      0x04\n      tag_26\n      jump\t// in\n    tag_62:\n      tag_63\n      jump\t// in\n        /* \"BlockChainElection.sol\":7520:7796  function delegate_my_vote(uint _voter_id, DelegatedRelationship _relationship) public delegateMyVote(_voter_id) {... */\n    tag_14:\n      tag_34\n      tag_65\n      calldatasize\n      0x04\n      tag_66\n      jump\t// in\n    tag_65:\n      tag_67\n      jump\t// in\n        /* \"BlockChainElection.sol\":10245:10460  function get_candidate_result(uint _candidate_id) public view returns (uint){... */\n    tag_15:\n      tag_68\n      tag_69\n      calldatasize\n      0x04\n      tag_26\n      jump\t// in\n    tag_69:\n      tag_70\n      jump\t// in\n    tag_68:\n      mload(0x40)\n        /* \"#utility.yul\":5320:5345   */\n      swap1\n      dup2\n      mstore\n        /* \"#utility.yul\":5308:5310   */\n      0x20\n        /* \"#utility.yul\":5293:5311   */\n      add\n        /* \"BlockChainElection.sol\":10245:10460  function get_candidate_result(uint _candidate_id) public view returns (uint){... */\n      tag_28\n        /* \"#utility.yul\":5174:5351   */\n      jump\n        /* \"BlockChainElection.sol\":6585:7002  function reject_or_ban_candidate(uint _candidate_id) public onlyElectionCommission{... */\n    tag_16:\n      tag_34\n      tag_74\n      calldatasize\n      0x04\n      tag_26\n      jump\t// in\n    tag_74:\n      tag_75\n      jump\t// in\n        /* \"BlockChainElection.sol\":9381:10237  function get_election_result() public view returns (string memory, uint, uint){... */\n    tag_17:\n      tag_76\n      tag_77\n      jump\t// in\n    tag_76:\n      mload(0x40)\n      tag_28\n      swap4\n      swap3\n      swap2\n      swap1\n      tag_79\n      jump\t// in\n        /* \"BlockChainElection.sol\":9259:9373  function get_candidate_list() public view returns (Candidate_List[] memory){... */\n    tag_18:\n      tag_80\n      tag_81\n      jump\t// in\n    tag_80:\n      mload(0x40)\n      tag_28\n      swap2\n      swap1\n      tag_83\n      jump\t// in\n        /* \"BlockChainElection.sol\":4994:5375  function reject_or_ban_voter(uint _voter_id) public onlyElectionCommission{... */\n    tag_19:\n      tag_34\n      tag_85\n      calldatasize\n      0x04\n      tag_26\n      jump\t// in\n    tag_85:\n      tag_86\n      jump\t// in\n        /* \"BlockChainElection.sol\":8975:9100  function get_voter_detail(uint _voter_id) public view returns (Voters_List memory){... */\n    tag_20:\n      tag_87\n      tag_88\n      calldatasize\n      0x04\n      tag_26\n      jump\t// in\n    tag_88:\n      tag_89\n      jump\t// in\n    tag_87:\n      mload(0x40)\n      tag_28\n      swap2\n      swap1\n      tag_91\n      jump\t// in\n        /* \"BlockChainElection.sol\":6176:6577  function approve_or_unBan_candidate(uint _candidate_id) public onlyElectionCommission {... */\n    tag_36:\n        /* \"BlockChainElection.sol\":2329:2348  election_commission */\n      and(sub(shl(0xa0, 0x01), 0x01), sload(0x02))\n        /* \"BlockChainElection.sol\":2315:2325  msg.sender */\n      caller\n        /* \"BlockChainElection.sol\":2315:2348  msg.sender == election_commission */\n      eq\n        /* \"BlockChainElection.sol\":2307:2372  require(msg.sender == election_commission, \"Unauthorized access\") */\n      tag_95\n      jumpi\n      mload(0x40)\n      shl(0xe5, 0x461bcd)\n      dup2\n      mstore\n      0x04\n      add\n      tag_96\n      swap1\n      tag_97\n      jump\t// in\n    tag_96:\n      mload(0x40)\n      dup1\n      swap2\n      sub\n      swap1\n      revert\n    tag_95:\n        /* \"BlockChainElection.sol\":6277:6309  candidateEligible[_candidate_id] */\n      0x00\n      dup2\n      dup2\n      mstore\n        /* \"BlockChainElection.sol\":6277:6294  candidateEligible */\n      0x0e\n        /* \"BlockChainElection.sol\":6277:6309  candidateEligible[_candidate_id] */\n      0x20\n      mstore\n      0x40\n      swap1\n      keccak256\n        /* \"BlockChainElection.sol\":6277:6327  candidateEligible[_candidate_id].candiate_eligible */\n      sload\n      0xff\n      and\n        /* \"BlockChainElection.sol\":6273:6570  if(!candidateEligible[_candidate_id].candiate_eligible){... */\n      tag_99\n      jumpi\n        /* \"BlockChainElection.sol\":6343:6375  candidateEligible[_candidate_id] */\n      0x00\n      dup2\n      dup2\n      mstore\n        /* \"BlockChainElection.sol\":6343:6360  candidateEligible */\n      0x0e\n        /* \"BlockChainElection.sol\":6343:6375  candidateEligible[_candidate_id] */\n      0x20\n      mstore\n      0x40\n      dup2\n      keccak256\n        /* \"BlockChainElection.sol\":6343:6400  candidateEligible[_candidate_id].candiate_eligible = true */\n      dup1\n      sload\n      not(0xff)\n      and\n        /* \"BlockChainElection.sol\":6396:6400  true */\n      0x01\n        /* \"BlockChainElection.sol\":6343:6400  candidateEligible[_candidate_id].candiate_eligible = true */\n      swap1\n      dup2\n      or\n      swap1\n      swap2\n      sstore\n        /* \"BlockChainElection.sol\":6415:6434  active_candidates++ */\n      dup1\n      sload\n      swap2\n      tag_100\n      dup4\n      tag_101\n      jump\t// in\n    tag_100:\n      swap1\n      swap2\n      sstore\n      pop\n      pop\n        /* \"BlockChainElection.sol\":6454:6477  Approved(_candidate_id) */\n      mload(0x40)\n        /* \"#utility.yul\":5320:5345   */\n      dup2\n      dup2\n      mstore\n        /* \"BlockChainElection.sol\":6454:6477  Approved(_candidate_id) */\n      0x3ad93af63cb7967b23e4fb500b7d7d28b07516325dcf341f88bebf959d82c1cb\n      swap1\n        /* \"#utility.yul\":5308:5310   */\n      0x20\n        /* \"#utility.yul\":5293:5311   */\n      add\n        /* \"BlockChainElection.sol\":6454:6477  Approved(_candidate_id) */\n    tag_102:\n      mload(0x40)\n      dup1\n      swap2\n      sub\n      swap1\n      log1\n        /* \"BlockChainElection.sol\":6176:6577  function approve_or_unBan_candidate(uint _candidate_id) public onlyElectionCommission {... */\n      pop\n      jump\t// out\n        /* \"BlockChainElection.sol\":6273:6570  if(!candidateEligible[_candidate_id].candiate_eligible){... */\n    tag_99:\n        /* \"BlockChainElection.sol\":6508:6558  revert(\"The candidate has already been approved.\") */\n      mload(0x40)\n      shl(0xe5, 0x461bcd)\n      dup2\n      mstore\n        /* \"#utility.yul\":8286:8288   */\n      0x20\n        /* \"BlockChainElection.sol\":6508:6558  revert(\"The candidate has already been approved.\") */\n      0x04\n      dup3\n      add\n        /* \"#utility.yul\":8268:8289   */\n      mstore\n        /* \"#utility.yul\":8325:8327   */\n      0x28\n        /* \"#utility.yul\":8305:8323   */\n      0x24\n      dup3\n      add\n        /* \"#utility.yul\":8298:8328   */\n      mstore\n        /* \"#utility.yul\":8364:8398   */\n      0x5468652063616e6469646174652068617320616c7265616479206265656e2061\n        /* \"#utility.yul\":8344:8362   */\n      0x44\n      dup3\n      add\n        /* \"#utility.yul\":8337:8399   */\n      mstore\n      shl(0xc1, 0x38383937bb32b217)\n        /* \"#utility.yul\":8415:8433   */\n      0x64\n      dup3\n      add\n        /* \"#utility.yul\":8408:8446   */\n      mstore\n        /* \"#utility.yul\":8463:8482   */\n      0x84\n      add\n        /* \"BlockChainElection.sol\":6508:6558  revert(\"The candidate has already been approved.\") */\n      tag_96\n        /* \"#utility.yul\":8084:8488   */\n      jump\n        /* \"BlockChainElection.sol\":8179:8967  function register_delegated_vote(uint _delegated_voter_id, uint _candidate_id) public election_in_progress{... */\n    tag_40:\n        /* \"BlockChainElection.sol\":3603:3619  election_started */\n      and(0xff, sload(0x06))\n        /* \"BlockChainElection.sol\":3595:3652  require(election_started, \"Election is not in progress.\") */\n      tag_107\n      jumpi\n      mload(0x40)\n      shl(0xe5, 0x461bcd)\n      dup2\n      mstore\n      0x04\n      add\n      tag_96\n      swap1\n      tag_109\n      jump\t// in\n    tag_107:\n        /* \"BlockChainElection.sol\":3672:3686  election_ended */\n      sload(0x06)\n      0x0100\n      swap1\n      div\n      0xff\n      and\n        /* \"BlockChainElection.sol\":3671:3686  !election_ended */\n      iszero\n        /* \"BlockChainElection.sol\":3663:3719  require(!election_ended, \"Election is not in progress.\") */\n      tag_110\n      jumpi\n      mload(0x40)\n      shl(0xe5, 0x461bcd)\n      dup2\n      mstore\n      0x04\n      add\n      tag_96\n      swap1\n      tag_109\n      jump\t// in\n    tag_110:\n        /* \"BlockChainElection.sol\":8303:8335  candidateEligible[_candidate_id] */\n      0x00\n      dup2\n      dup2\n      mstore\n        /* \"BlockChainElection.sol\":8303:8320  candidateEligible */\n      0x0e\n        /* \"BlockChainElection.sol\":8303:8335  candidateEligible[_candidate_id] */\n      0x20\n      mstore\n      0x40\n      swap1\n      keccak256\n        /* \"BlockChainElection.sol\":8303:8353  candidateEligible[_candidate_id].candiate_eligible */\n      sload\n      0xff\n      and\n        /* \"BlockChainElection.sol\":8295:8388  require(candidateEligible[_candidate_id].candiate_eligible, \"The candidate is not eligible.\") */\n      tag_113\n      jumpi\n      mload(0x40)\n      shl(0xe5, 0x461bcd)\n      dup2\n      mstore\n        /* \"#utility.yul\":9052:9054   */\n      0x20\n        /* \"BlockChainElection.sol\":8295:8388  require(candidateEligible[_candidate_id].candiate_eligible, \"The candidate is not eligible.\") */\n      0x04\n      dup3\n      add\n        /* \"#utility.yul\":9034:9055   */\n      mstore\n        /* \"#utility.yul\":9091:9093   */\n      0x1e\n        /* \"#utility.yul\":9071:9089   */\n      0x24\n      dup3\n      add\n        /* \"#utility.yul\":9064:9094   */\n      mstore\n        /* \"#utility.yul\":9130:9162   */\n      0x5468652063616e646964617465206973206e6f7420656c696769626c652e0000\n        /* \"#utility.yul\":9110:9128   */\n      0x44\n      dup3\n      add\n        /* \"#utility.yul\":9103:9163   */\n      mstore\n        /* \"#utility.yul\":9180:9198   */\n      0x64\n      add\n        /* \"BlockChainElection.sol\":8295:8388  require(candidateEligible[_candidate_id].candiate_eligible, \"The candidate is not eligible.\") */\n      tag_96\n        /* \"#utility.yul\":8850:9204   */\n      jump\n        /* \"BlockChainElection.sol\":8295:8388  require(candidateEligible[_candidate_id].candiate_eligible, \"The candidate is not eligible.\") */\n    tag_113:\n        /* \"BlockChainElection.sol\":8399:8409  bool voted */\n      0x00\n        /* \"BlockChainElection.sol\":8432:8438  uint i */\n      dup1\n        /* \"BlockChainElection.sol\":8428:8867  for(uint i = 0; i < delegatedVotes[voterIdManager[msg.sender].id].length; i++){... */\n    tag_116:\n        /* \"BlockChainElection.sol\":8478:8488  msg.sender */\n      caller\n        /* \"BlockChainElection.sol\":8448:8493  delegatedVotes[voterIdManager[msg.sender].id] */\n      0x00\n        /* \"BlockChainElection.sol\":8463:8489  voterIdManager[msg.sender] */\n      swap1\n      dup2\n      mstore\n        /* \"BlockChainElection.sol\":8463:8477  voterIdManager */\n      0x08\n        /* \"BlockChainElection.sol\":8463:8489  voterIdManager[msg.sender] */\n      0x20\n      swap1\n      dup2\n      mstore\n      0x40\n      dup1\n      dup4\n      keccak256\n        /* \"BlockChainElection.sol\":8463:8492  voterIdManager[msg.sender].id */\n      sload\n        /* \"BlockChainElection.sol\":8448:8493  delegatedVotes[voterIdManager[msg.sender].id] */\n      dup4\n      mstore\n        /* \"BlockChainElection.sol\":8448:8462  delegatedVotes */\n      0x0f\n        /* \"BlockChainElection.sol\":8448:8493  delegatedVotes[voterIdManager[msg.sender].id] */\n      swap1\n      swap2\n      mstore\n      swap1\n      keccak256\n        /* \"BlockChainElection.sol\":8448:8500  delegatedVotes[voterIdManager[msg.sender].id].length */\n      sload\n        /* \"BlockChainElection.sol\":8444:8500  i < delegatedVotes[voterIdManager[msg.sender].id].length */\n      dup2\n      lt\n        /* \"BlockChainElection.sol\":8428:8867  for(uint i = 0; i < delegatedVotes[voterIdManager[msg.sender].id].length; i++){... */\n      iszero\n      tag_117\n      jumpi\n        /* \"BlockChainElection.sol\":8554:8564  msg.sender */\n      caller\n        /* \"BlockChainElection.sol\":8524:8569  delegatedVotes[voterIdManager[msg.sender].id] */\n      0x00\n        /* \"BlockChainElection.sol\":8539:8565  voterIdManager[msg.sender] */\n      swap1\n      dup2\n      mstore\n        /* \"BlockChainElection.sol\":8539:8553  voterIdManager */\n      0x08\n        /* \"BlockChainElection.sol\":8539:8565  voterIdManager[msg.sender] */\n      0x20\n      swap1\n      dup2\n      mstore\n      0x40\n      dup1\n      dup4\n      keccak256\n        /* \"BlockChainElection.sol\":8539:8568  voterIdManager[msg.sender].id */\n      sload\n        /* \"BlockChainElection.sol\":8524:8569  delegatedVotes[voterIdManager[msg.sender].id] */\n      dup4\n      mstore\n        /* \"BlockChainElection.sol\":8524:8538  delegatedVotes */\n      0x0f\n        /* \"BlockChainElection.sol\":8524:8569  delegatedVotes[voterIdManager[msg.sender].id] */\n      swap1\n      swap2\n      mstore\n      swap1\n      keccak256\n        /* \"BlockChainElection.sol\":8524:8572  delegatedVotes[voterIdManager[msg.sender].id][i] */\n      dup1\n      sload\n        /* \"BlockChainElection.sol\":8595:8614  _delegated_voter_id */\n      dup6\n      swap2\n        /* \"BlockChainElection.sol\":8524:8569  delegatedVotes[voterIdManager[msg.sender].id] */\n      swap1\n        /* \"BlockChainElection.sol\":8570:8571  i */\n      dup4\n      swap1\n        /* \"BlockChainElection.sol\":8524:8572  delegatedVotes[voterIdManager[msg.sender].id][i] */\n      dup2\n      lt\n      tag_120\n      jumpi\n      tag_120\n      tag_121\n      jump\t// in\n    tag_120:\n      swap1\n      0x00\n      mstore\n      keccak256(0x00, 0x20)\n      swap1\n      0x02\n      mul\n      add\n        /* \"BlockChainElection.sol\":8524:8591  delegatedVotes[voterIdManager[msg.sender].id][i].delegated_voter_id */\n      0x00\n      add\n      sload\n        /* \"BlockChainElection.sol\":8524:8614  delegatedVotes[voterIdManager[msg.sender].id][i].delegated_voter_id == _delegated_voter_id */\n      sub\n        /* \"BlockChainElection.sol\":8521:8856  if(delegatedVotes[voterIdManager[msg.sender].id][i].delegated_voter_id == _delegated_voter_id){... */\n      tag_123\n      jumpi\n        /* \"BlockChainElection.sol\":8634:8656  results[_candidate_id] */\n      0x00\n      dup4\n      dup2\n      mstore\n        /* \"BlockChainElection.sol\":8634:8641  results */\n      0x0c\n        /* \"BlockChainElection.sol\":8634:8656  results[_candidate_id] */\n      0x20\n      mstore\n      0x40\n      dup2\n      keccak256\n        /* \"BlockChainElection.sol\":8634:8667  results[_candidate_id].vote_count */\n      0x01\n      add\n        /* \"BlockChainElection.sol\":8634:8669  results[_candidate_id].vote_count++ */\n      dup1\n      sload\n      swap2\n      tag_124\n      dup4\n      tag_101\n      jump\t// in\n    tag_124:\n      swap1\n      swap2\n      sstore\n      pop\n      pop\n        /* \"BlockChainElection.sol\":8688:8699  total_votes */\n      0x05\n        /* \"BlockChainElection.sol\":8688:8701  total_votes++ */\n      dup1\n      sload\n      swap1\n        /* \"BlockChainElection.sol\":8688:8699  total_votes */\n      0x00\n        /* \"BlockChainElection.sol\":8688:8701  total_votes++ */\n      tag_125\n      dup4\n      tag_101\n      jump\t// in\n    tag_125:\n      swap1\n      swap2\n      sstore\n      pop\n      pop\n        /* \"BlockChainElection.sol\":8750:8760  msg.sender */\n      caller\n        /* \"BlockChainElection.sol\":8780:8785  false */\n      0x00\n        /* \"BlockChainElection.sol\":8735:8761  voterIdManager[msg.sender] */\n      swap1\n      dup2\n      mstore\n        /* \"BlockChainElection.sol\":8735:8749  voterIdManager */\n      0x08\n        /* \"BlockChainElection.sol\":8735:8761  voterIdManager[msg.sender] */\n      0x20\n      swap1\n      dup2\n      mstore\n      0x40\n      dup1\n      dup4\n      keccak256\n        /* \"BlockChainElection.sol\":8735:8764  voterIdManager[msg.sender].id */\n      sload\n        /* \"BlockChainElection.sol\":8720:8765  delegatedVotes[voterIdManager[msg.sender].id] */\n      dup4\n      mstore\n        /* \"BlockChainElection.sol\":8720:8734  delegatedVotes */\n      0x0f\n        /* \"BlockChainElection.sol\":8720:8765  delegatedVotes[voterIdManager[msg.sender].id] */\n      swap1\n      swap2\n      mstore\n      dup2\n      keccak256\n        /* \"BlockChainElection.sol\":8720:8768  delegatedVotes[voterIdManager[msg.sender].id][i] */\n      dup1\n      sload\n        /* \"BlockChainElection.sol\":8766:8767  i */\n      dup4\n      swap1\n        /* \"BlockChainElection.sol\":8720:8768  delegatedVotes[voterIdManager[msg.sender].id][i] */\n      dup2\n      lt\n      tag_127\n      jumpi\n      tag_127\n      tag_121\n      jump\t// in\n    tag_127:\n      swap1\n      0x00\n      mstore\n      keccak256(0x00, 0x20)\n      swap1\n      0x02\n      mul\n      add\n        /* \"BlockChainElection.sol\":8720:8777  delegatedVotes[voterIdManager[msg.sender].id][i].can_vote */\n      0x01\n      add\n      0x01\n        /* \"BlockChainElection.sol\":8720:8785  delegatedVotes[voterIdManager[msg.sender].id][i].can_vote = false */\n      0x0100\n      exp\n      dup2\n      sload\n      dup2\n      0xff\n      mul\n      not\n      and\n      swap1\n      dup4\n      iszero\n      iszero\n      mul\n      or\n      swap1\n      sstore\n      pop\n        /* \"BlockChainElection.sol\":8812:8816  true */\n      0x01\n        /* \"BlockChainElection.sol\":8804:8816  voted = true */\n      swap2\n      pop\n        /* \"BlockChainElection.sol\":8835:8840  break */\n      jump(tag_117)\n        /* \"BlockChainElection.sol\":8521:8856  if(delegatedVotes[voterIdManager[msg.sender].id][i].delegated_voter_id == _delegated_voter_id){... */\n    tag_123:\n        /* \"BlockChainElection.sol\":8502:8505  i++ */\n      dup1\n      tag_129\n      dup2\n      tag_101\n      jump\t// in\n    tag_129:\n      swap2\n      pop\n      pop\n        /* \"BlockChainElection.sol\":8428:8867  for(uint i = 0; i < delegatedVotes[voterIdManager[msg.sender].id].length; i++){... */\n      jump(tag_116)\n    tag_117:\n      pop\n        /* \"BlockChainElection.sol\":8881:8886  voted */\n      dup1\n        /* \"BlockChainElection.sol\":8877:8960  if(!voted){... */\n      tag_130\n      jumpi\n        /* \"BlockChainElection.sol\":8902:8948  revert(\"You are not delegated by this person\") */\n      mload(0x40)\n      shl(0xe5, 0x461bcd)\n      dup2\n      mstore\n        /* \"#utility.yul\":9543:9545   */\n      0x20\n        /* \"BlockChainElection.sol\":8902:8948  revert(\"You are not delegated by this person\") */\n      0x04\n      dup3\n      add\n        /* \"#utility.yul\":9525:9546   */\n      mstore\n        /* \"#utility.yul\":9582:9584   */\n      0x24\n        /* \"#utility.yul\":9562:9580   */\n      dup1\n      dup3\n      add\n        /* \"#utility.yul\":9555:9585   */\n      mstore\n        /* \"#utility.yul\":9621:9655   */\n      0x596f7520617265206e6f742064656c6567617465642062792074686973207065\n        /* \"#utility.yul\":9601:9619   */\n      0x44\n      dup3\n      add\n        /* \"#utility.yul\":9594:9656   */\n      mstore\n      shl(0xe1, 0x3939b7b7)\n        /* \"#utility.yul\":9672:9690   */\n      0x64\n      dup3\n      add\n        /* \"#utility.yul\":9665:9699   */\n      mstore\n        /* \"#utility.yul\":9716:9735   */\n      0x84\n      add\n        /* \"BlockChainElection.sol\":8902:8948  revert(\"You are not delegated by this person\") */\n      tag_96\n        /* \"#utility.yul\":9341:9741   */\n      jump\n        /* \"BlockChainElection.sol\":8877:8960  if(!voted){... */\n    tag_130:\n        /* \"BlockChainElection.sol\":8285:8967  {... */\n      pop\n        /* \"BlockChainElection.sol\":8179:8967  function register_delegated_vote(uint _delegated_voter_id, uint _candidate_id) public election_in_progress{... */\n      pop\n      pop\n      jump\t// out\n        /* \"BlockChainElection.sol\":7804:8171  function registerVote(uint _candidate_id) public votePolling(_candidate_id) election_in_progress{... */\n    tag_43:\n        /* \"BlockChainElection.sol\":2776:2792  election_started */\n      sload(0x06)\n        /* \"BlockChainElection.sol\":7865:7878  _candidate_id */\n      dup2\n      swap1\n        /* \"BlockChainElection.sol\":2776:2792  election_started */\n      0xff\n      and\n        /* \"BlockChainElection.sol\":2768:2825  require(election_started, \"Election is not in progress.\") */\n      tag_134\n      jumpi\n      mload(0x40)\n      shl(0xe5, 0x461bcd)\n      dup2\n      mstore\n      0x04\n      add\n      tag_96\n      swap1\n      tag_109\n      jump\t// in\n    tag_134:\n        /* \"BlockChainElection.sol\":2845:2859  election_ended */\n      sload(0x06)\n      0x0100\n      swap1\n      div\n      0xff\n      and\n        /* \"BlockChainElection.sol\":2844:2859  !election_ended */\n      iszero\n        /* \"BlockChainElection.sol\":2836:2892  require(!election_ended, \"Election is not in progress.\") */\n      tag_136\n      jumpi\n      mload(0x40)\n      shl(0xe5, 0x461bcd)\n      dup2\n      mstore\n      0x04\n      add\n      tag_96\n      swap1\n      tag_109\n      jump\t// in\n    tag_136:\n        /* \"BlockChainElection.sol\":2926:2936  msg.sender */\n      caller\n        /* \"BlockChainElection.sol\":2911:2937  voterIdManager[msg.sender] */\n      0x00\n      swap1\n      dup2\n      mstore\n        /* \"BlockChainElection.sol\":2911:2925  voterIdManager */\n      0x08\n        /* \"BlockChainElection.sol\":2911:2937  voterIdManager[msg.sender] */\n      0x20\n      mstore\n      0x40\n      dup2\n      keccak256\n        /* \"BlockChainElection.sol\":2911:2940  voterIdManager[msg.sender].id */\n      sload\n        /* \"BlockChainElection.sol\":2911:2945  voterIdManager[msg.sender].id != 0 */\n      swap1\n      sub\n        /* \"BlockChainElection.sol\":2903:2979  require(voterIdManager[msg.sender].id != 0, \"You are not eligible to vote.\") */\n      tag_138\n      jumpi\n      mload(0x40)\n      shl(0xe5, 0x461bcd)\n      dup2\n      mstore\n        /* \"#utility.yul\":9948:9950   */\n      0x20\n        /* \"BlockChainElection.sol\":2903:2979  require(voterIdManager[msg.sender].id != 0, \"You are not eligible to vote.\") */\n      0x04\n      dup3\n      add\n        /* \"#utility.yul\":9930:9951   */\n      mstore\n        /* \"#utility.yul\":9987:9989   */\n      0x1d\n        /* \"#utility.yul\":9967:9985   */\n      0x24\n      dup3\n      add\n        /* \"#utility.yul\":9960:9990   */\n      mstore\n        /* \"#utility.yul\":10026:10057   */\n      0x596f7520617265206e6f7420656c696769626c6520746f20766f74652e000000\n        /* \"#utility.yul\":10006:10024   */\n      0x44\n      dup3\n      add\n        /* \"#utility.yul\":9999:10058   */\n      mstore\n        /* \"#utility.yul\":10075:10093   */\n      0x64\n      add\n        /* \"BlockChainElection.sol\":2903:2979  require(voterIdManager[msg.sender].id != 0, \"You are not eligible to vote.\") */\n      tag_96\n        /* \"#utility.yul\":9746:10099   */\n      jump\n        /* \"BlockChainElection.sol\":2903:2979  require(voterIdManager[msg.sender].id != 0, \"You are not eligible to vote.\") */\n    tag_138:\n        /* \"BlockChainElection.sol\":3008:3018  msg.sender */\n      caller\n        /* \"BlockChainElection.sol\":2999:3019  is_voted[msg.sender] */\n      0x00\n      swap1\n      dup2\n      mstore\n        /* \"BlockChainElection.sol\":2999:3007  is_voted */\n      0x0b\n        /* \"BlockChainElection.sol\":2999:3019  is_voted[msg.sender] */\n      0x20\n      mstore\n      0x40\n      swap1\n      keccak256\n        /* \"BlockChainElection.sol\":2999:3025  is_voted[msg.sender].voted */\n      sload\n      0xff\n      and\n        /* \"BlockChainElection.sol\":2998:3025  !is_voted[msg.sender].voted */\n      iszero\n        /* \"BlockChainElection.sol\":2990:3053  require(!is_voted[msg.sender].voted, \"You have already voted.\") */\n      tag_141\n      jumpi\n      mload(0x40)\n      shl(0xe5, 0x461bcd)\n      dup2\n      mstore\n        /* \"#utility.yul\":10306:10308   */\n      0x20\n        /* \"BlockChainElection.sol\":2990:3053  require(!is_voted[msg.sender].voted, \"You have already voted.\") */\n      0x04\n      dup3\n      add\n        /* \"#utility.yul\":10288:10309   */\n      mstore\n        /* \"#utility.yul\":10345:10347   */\n      0x17\n        /* \"#utility.yul\":10325:10343   */\n      0x24\n      dup3\n      add\n        /* \"#utility.yul\":10318:10348   */\n      mstore\n        /* \"#utility.yul\":10384:10409   */\n      0x596f75206861766520616c726561647920766f7465642e000000000000000000\n        /* \"#utility.yul\":10364:10382   */\n      0x44\n      dup3\n      add\n        /* \"#utility.yul\":10357:10410   */\n      mstore\n        /* \"#utility.yul\":10427:10445   */\n      0x64\n      add\n        /* \"BlockChainElection.sol\":2990:3053  require(!is_voted[msg.sender].voted, \"You have already voted.\") */\n      tag_96\n        /* \"#utility.yul\":10104:10451   */\n      jump\n        /* \"BlockChainElection.sol\":2990:3053  require(!is_voted[msg.sender].voted, \"You have already voted.\") */\n    tag_141:\n        /* \"BlockChainElection.sol\":3072:3104  candidateEligible[_candidate_id] */\n      0x00\n      dup2\n      dup2\n      mstore\n        /* \"BlockChainElection.sol\":3072:3089  candidateEligible */\n      0x0e\n        /* \"BlockChainElection.sol\":3072:3104  candidateEligible[_candidate_id] */\n      0x20\n      mstore\n      0x40\n      swap1\n      keccak256\n        /* \"BlockChainElection.sol\":3072:3122  candidateEligible[_candidate_id].candiate_eligible */\n      sload\n      0xff\n      and\n        /* \"BlockChainElection.sol\":3064:3157  require(candidateEligible[_candidate_id].candiate_eligible, \"The candidate is not eligible.\") */\n      tag_144\n      jumpi\n      mload(0x40)\n      shl(0xe5, 0x461bcd)\n      dup2\n      mstore\n        /* \"#utility.yul\":9052:9054   */\n      0x20\n        /* \"BlockChainElection.sol\":3064:3157  require(candidateEligible[_candidate_id].candiate_eligible, \"The candidate is not eligible.\") */\n      0x04\n      dup3\n      add\n        /* \"#utility.yul\":9034:9055   */\n      mstore\n        /* \"#utility.yul\":9091:9093   */\n      0x1e\n        /* \"#utility.yul\":9071:9089   */\n      0x24\n      dup3\n      add\n        /* \"#utility.yul\":9064:9094   */\n      mstore\n        /* \"#utility.yul\":9130:9162   */\n      0x5468652063616e646964617465206973206e6f7420656c696769626c652e0000\n        /* \"#utility.yul\":9110:9128   */\n      0x44\n      dup3\n      add\n        /* \"#utility.yul\":9103:9163   */\n      mstore\n        /* \"#utility.yul\":9180:9198   */\n      0x64\n      add\n        /* \"BlockChainElection.sol\":3064:3157  require(candidateEligible[_candidate_id].candiate_eligible, \"The candidate is not eligible.\") */\n      tag_96\n        /* \"#utility.yul\":8850:9204   */\n      jump\n        /* \"BlockChainElection.sol\":3064:3157  require(candidateEligible[_candidate_id].candiate_eligible, \"The candidate is not eligible.\") */\n    tag_144:\n        /* \"BlockChainElection.sol\":3603:3619  election_started */\n      and(0xff, sload(0x06))\n        /* \"BlockChainElection.sol\":3595:3652  require(election_started, \"Election is not in progress.\") */\n      tag_147\n      jumpi\n      mload(0x40)\n      shl(0xe5, 0x461bcd)\n      dup2\n      mstore\n      0x04\n      add\n      tag_96\n      swap1\n      tag_109\n      jump\t// in\n    tag_147:\n        /* \"BlockChainElection.sol\":3672:3686  election_ended */\n      sload(0x06)\n      0x0100\n      swap1\n      div\n      0xff\n      and\n        /* \"BlockChainElection.sol\":3671:3686  !election_ended */\n      iszero\n        /* \"BlockChainElection.sol\":3663:3719  require(!election_ended, \"Election is not in progress.\") */\n      tag_149\n      jumpi\n      mload(0x40)\n      shl(0xe5, 0x461bcd)\n      dup2\n      mstore\n      0x04\n      add\n      tag_96\n      swap1\n      tag_109\n      jump\t// in\n    tag_149:\n        /* \"BlockChainElection.sol\":7948:7958  msg.sender */\n      caller\n        /* \"BlockChainElection.sol\":7919:7963  voterEligible[voterIdManager[msg.sender].id] */\n      0x00\n        /* \"BlockChainElection.sol\":7933:7959  voterIdManager[msg.sender] */\n      swap1\n      dup2\n      mstore\n        /* \"BlockChainElection.sol\":7933:7947  voterIdManager */\n      0x08\n        /* \"BlockChainElection.sol\":7933:7959  voterIdManager[msg.sender] */\n      0x20\n      swap1\n      dup2\n      mstore\n      0x40\n      dup1\n      dup4\n      keccak256\n        /* \"BlockChainElection.sol\":7933:7962  voterIdManager[msg.sender].id */\n      sload\n        /* \"BlockChainElection.sol\":7919:7963  voterEligible[voterIdManager[msg.sender].id] */\n      dup4\n      mstore\n        /* \"BlockChainElection.sol\":7919:7932  voterEligible */\n      0x0d\n        /* \"BlockChainElection.sol\":7919:7963  voterEligible[voterIdManager[msg.sender].id] */\n      swap1\n      swap2\n      mstore\n      swap1\n      keccak256\n        /* \"BlockChainElection.sol\":7919:7978  voterEligible[voterIdManager[msg.sender].id].voter_eligible */\n      sload\n      0xff\n      and\n        /* \"BlockChainElection.sol\":7911:8049  require(voterEligible[voterIdManager[msg.sender].id].voter_eligible, \"You are not authorized to vote. Please contact Election Commission\") */\n      tag_152\n      jumpi\n      mload(0x40)\n      shl(0xe5, 0x461bcd)\n      dup2\n      mstore\n        /* \"#utility.yul\":10658:10660   */\n      0x20\n        /* \"BlockChainElection.sol\":7911:8049  require(voterEligible[voterIdManager[msg.sender].id].voter_eligible, \"You are not authorized to vote. Please contact Election Commission\") */\n      0x04\n      dup3\n      add\n        /* \"#utility.yul\":10640:10661   */\n      mstore\n        /* \"#utility.yul\":10697:10699   */\n      0x42\n        /* \"#utility.yul\":10677:10695   */\n      0x24\n      dup3\n      add\n        /* \"#utility.yul\":10670:10700   */\n      mstore\n        /* \"#utility.yul\":10736:10770   */\n      0x596f7520617265206e6f7420617574686f72697a656420746f20766f74652e20\n        /* \"#utility.yul\":10716:10734   */\n      0x44\n      dup3\n      add\n        /* \"#utility.yul\":10709:10771   */\n      mstore\n        /* \"#utility.yul\":10807:10841   */\n      0x506c6561736520636f6e7461637420456c656374696f6e20436f6d6d69737369\n        /* \"#utility.yul\":10787:10805   */\n      0x64\n      dup3\n      add\n        /* \"#utility.yul\":10780:10842   */\n      mstore\n      shl(0xf1, 0x37b7)\n        /* \"#utility.yul\":10858:10877   */\n      0x84\n      dup3\n      add\n        /* \"#utility.yul\":10851:10884   */\n      mstore\n        /* \"#utility.yul\":10901:10920   */\n      0xa4\n      add\n        /* \"BlockChainElection.sol\":7911:8049  require(voterEligible[voterIdManager[msg.sender].id].voter_eligible, \"You are not authorized to vote. Please contact Election Commission\") */\n      tag_96\n        /* \"#utility.yul\":10456:10926   */\n      jump\n        /* \"BlockChainElection.sol\":7911:8049  require(voterEligible[voterIdManager[msg.sender].id].voter_eligible, \"You are not authorized to vote. Please contact Election Commission\") */\n    tag_152:\n        /* \"BlockChainElection.sol\":8060:8082  results[_candidate_id] */\n      0x00\n      dup3\n      dup2\n      mstore\n        /* \"BlockChainElection.sol\":8060:8067  results */\n      0x0c\n        /* \"BlockChainElection.sol\":8060:8082  results[_candidate_id] */\n      0x20\n      mstore\n      0x40\n      dup2\n      keccak256\n        /* \"BlockChainElection.sol\":8060:8093  results[_candidate_id].vote_count */\n      0x01\n      add\n        /* \"BlockChainElection.sol\":8060:8095  results[_candidate_id].vote_count++ */\n      dup1\n      sload\n      swap2\n      tag_155\n      dup4\n      tag_101\n      jump\t// in\n    tag_155:\n      swap1\n      swap2\n      sstore\n      pop\n      pop\n        /* \"BlockChainElection.sol\":8106:8117  total_votes */\n      0x05\n        /* \"BlockChainElection.sol\":8106:8119  total_votes++ */\n      dup1\n      sload\n      swap1\n        /* \"BlockChainElection.sol\":8106:8117  total_votes */\n      0x00\n        /* \"BlockChainElection.sol\":8106:8119  total_votes++ */\n      tag_156\n      dup4\n      tag_101\n      jump\t// in\n    tag_156:\n      swap1\n      swap2\n      sstore\n      pop\n      pop\n        /* \"BlockChainElection.sol\":8139:8149  msg.sender */\n      caller\n        /* \"BlockChainElection.sol\":8130:8150  is_voted[msg.sender] */\n      0x00\n      swap1\n      dup2\n      mstore\n        /* \"BlockChainElection.sol\":8130:8138  is_voted */\n      0x0b\n        /* \"BlockChainElection.sol\":8130:8150  is_voted[msg.sender] */\n      0x20\n      mstore\n      0x40\n      swap1\n      keccak256\n        /* \"BlockChainElection.sol\":8130:8163  is_voted[msg.sender].voted = true */\n      dup1\n      sload\n      not(0xff)\n      and\n        /* \"BlockChainElection.sol\":8159:8163  true */\n      0x01\n        /* \"BlockChainElection.sol\":8130:8163  is_voted[msg.sender].voted = true */\n      or\n      swap1\n      sstore\n      pop\n      pop\n        /* \"BlockChainElection.sol\":7804:8171  function registerVote(uint _candidate_id) public votePolling(_candidate_id) election_in_progress{... */\n      jump\t// out\n        /* \"BlockChainElection.sol\":5383:6168  function register_candidate(string memory _candidate_name, string memory _candidate_address, string memory _candidate_age, string memory _candidate_promise) public OneTimeRegistrationCandidate{... */\n    tag_47:\n        /* \"BlockChainElection.sol\":2628:2638  msg.sender */\n      caller\n        /* \"BlockChainElection.sol\":2609:2639  candidateIdManager[msg.sender] */\n      0x00\n      swap1\n      dup2\n      mstore\n        /* \"BlockChainElection.sol\":2609:2627  candidateIdManager */\n      0x0a\n        /* \"BlockChainElection.sol\":2609:2639  candidateIdManager[msg.sender] */\n      0x20\n      mstore\n      0x40\n      swap1\n      keccak256\n        /* \"BlockChainElection.sol\":2609:2642  candidateIdManager[msg.sender].id */\n      sload\n        /* \"BlockChainElection.sol\":2609:2647  candidateIdManager[msg.sender].id == 0 */\n      iszero\n        /* \"BlockChainElection.sol\":2601:2685  require(candidateIdManager[msg.sender].id == 0, \"You have already been registered.\") */\n      tag_158\n      jumpi\n      mload(0x40)\n      shl(0xe5, 0x461bcd)\n      dup2\n      mstore\n      0x04\n      add\n      tag_96\n      swap1\n      tag_160\n      jump\t// in\n    tag_158:\n        /* \"BlockChainElection.sol\":5612:5713  Candidate_List(id_candidate, _candidate_name, _candidate_address, _candidate_age, _candidate_promise) */\n      0x40\n      dup1\n      mload\n      0xa0\n      dup2\n      add\n      dup3\n      mstore\n        /* \"BlockChainElection.sol\":5627:5639  id_candidate */\n      sload(0x04)\n        /* \"BlockChainElection.sol\":5612:5713  Candidate_List(id_candidate, _candidate_name, _candidate_address, _candidate_age, _candidate_promise) */\n      dup1\n      dup3\n      mstore\n      0x20\n      dup1\n      dup4\n      add\n      dup9\n      dup2\n      mstore\n      dup4\n      dup6\n      add\n      dup9\n      swap1\n      mstore\n      0x60\n      dup5\n      add\n      dup8\n      swap1\n      mstore\n      0x80\n      dup5\n      add\n      dup7\n      swap1\n      mstore\n      0x00\n        /* \"BlockChainElection.sol\":5586:5609  candidate[id_candidate] */\n      swap3\n      dup4\n      mstore\n        /* \"BlockChainElection.sol\":5586:5595  candidate */\n      0x09\n        /* \"BlockChainElection.sol\":5586:5609  candidate[id_candidate] */\n      swap1\n      swap2\n      mstore\n      swap3\n      swap1\n      keccak256\n        /* \"BlockChainElection.sol\":5586:5713  candidate[id_candidate] = Candidate_List(id_candidate, _candidate_name, _candidate_address, _candidate_age, _candidate_promise) */\n      dup2\n      mload\n      dup2\n      sstore\n      swap2\n      mload\n        /* \"BlockChainElection.sol\":5612:5713  Candidate_List(id_candidate, _candidate_name, _candidate_address, _candidate_age, _candidate_promise) */\n      swap1\n      swap2\n        /* \"BlockChainElection.sol\":5586:5609  candidate[id_candidate] */\n      swap1\n        /* \"BlockChainElection.sol\":5586:5713  candidate[id_candidate] = Candidate_List(id_candidate, _candidate_name, _candidate_address, _candidate_age, _candidate_promise) */\n      0x01\n      dup3\n      add\n      swap1\n      tag_162\n      swap1\n      dup3\n      tag_163\n      jump\t// in\n    tag_162:\n      pop\n      0x40\n      dup3\n      add\n      mload\n      0x02\n      dup3\n      add\n      swap1\n      tag_164\n      swap1\n      dup3\n      tag_163\n      jump\t// in\n    tag_164:\n      pop\n      0x60\n      dup3\n      add\n      mload\n      0x03\n      dup3\n      add\n      swap1\n      tag_165\n      swap1\n      dup3\n      tag_163\n      jump\t// in\n    tag_165:\n      pop\n      0x80\n      dup3\n      add\n      mload\n      0x04\n      dup3\n      add\n      swap1\n      tag_166\n      swap1\n      dup3\n      tag_163\n      jump\t// in\n    tag_166:\n      pop\n      pop\n        /* \"BlockChainElection.sol\":5757:5791  Candidate_Id_Manager(id_candidate) */\n      0x40\n      dup1\n      mload\n      0x20\n      dup1\n      dup3\n      add\n      dup4\n      mstore\n        /* \"BlockChainElection.sol\":5778:5790  id_candidate */\n      0x04\n      dup1\n      sload\n        /* \"BlockChainElection.sol\":5757:5791  Candidate_Id_Manager(id_candidate) */\n      dup4\n      mstore\n        /* \"BlockChainElection.sol\":5743:5753  msg.sender */\n      caller\n      0x00\n        /* \"BlockChainElection.sol\":5724:5754  candidateIdManager[msg.sender] */\n      swap1\n      dup2\n      mstore\n        /* \"BlockChainElection.sol\":5724:5742  candidateIdManager */\n      0x0a\n        /* \"BlockChainElection.sol\":5724:5754  candidateIdManager[msg.sender] */\n      dup4\n      mstore\n      dup5\n      dup2\n      keccak256\n        /* \"BlockChainElection.sol\":5724:5791  candidateIdManager[msg.sender] = Candidate_Id_Manager(id_candidate) */\n      swap4\n      mload\n      swap1\n      swap4\n      sstore\n        /* \"BlockChainElection.sol\":5837:5862  Candidate_Eligible(false) */\n      dup4\n      mload\n      dup1\n      dup4\n      add\n      dup6\n      mstore\n      dup4\n      dup2\n      mstore\n        /* \"BlockChainElection.sol\":5820:5832  id_candidate */\n      dup2\n      sload\n        /* \"BlockChainElection.sol\":5802:5833  candidateEligible[id_candidate] */\n      dup5\n      mstore\n        /* \"BlockChainElection.sol\":5802:5819  candidateEligible */\n      0x0e\n        /* \"BlockChainElection.sol\":5802:5833  candidateEligible[id_candidate] */\n      dup4\n      mstore\n      dup5\n      dup5\n      keccak256\n        /* \"BlockChainElection.sol\":5802:5862  candidateEligible[id_candidate]  = Candidate_Eligible(false) */\n      swap1\n      mload\n      dup2\n      sload\n      not(0xff)\n      and\n      swap1\n      iszero\n      iszero\n      or\n      swap1\n      sstore\n        /* \"BlockChainElection.sol\":5881:5893  id_candidate */\n      dup1\n      sload\n        /* \"BlockChainElection.sol\":5873:5894  results[id_candidate] */\n      dup4\n      mstore\n        /* \"BlockChainElection.sol\":5873:5880  results */\n      0x0c\n        /* \"BlockChainElection.sol\":5873:5894  results[id_candidate] */\n      dup3\n      mstore\n      dup4\n      dup4\n      keccak256\n      0x01\n        /* \"BlockChainElection.sol\":5873:5905  results[id_candidate].vote_count */\n      swap1\n      dup2\n      add\n        /* \"BlockChainElection.sol\":5873:5909  results[id_candidate].vote_count = 0 */\n      dup5\n      swap1\n      sstore\n        /* \"BlockChainElection.sol\":5949:5961  id_candidate */\n      swap1\n      sload\n        /* \"BlockChainElection.sol\":5939:5962  candidate[id_candidate] */\n      dup4\n      mstore\n        /* \"BlockChainElection.sol\":5939:5948  candidate */\n      0x09\n        /* \"BlockChainElection.sol\":5939:5962  candidate[id_candidate] */\n      swap1\n      swap2\n      mstore\n      swap2\n      dup2\n      keccak256\n        /* \"BlockChainElection.sol\":5920:5933  candidateList */\n      0x10\n        /* \"BlockChainElection.sol\":5920:5963  candidateList.push(candidate[id_candidate]) */\n      dup1\n      sload\n      dup1\n      dup6\n      add\n      dup3\n      sstore\n      swap3\n      mstore\n      dup1\n      sload\n      0x1b6847dc741a1b0cd08d278845f9d819d87b734759afb55fe2de5cb82a9ae672\n      0x05\n      swap1\n      swap4\n      mul\n      swap3\n      dup4\n      add\n      swap1\n      dup2\n      sstore\n        /* \"BlockChainElection.sol\":5939:5962  candidate[id_candidate] */\n      swap1\n      swap4\n      pop\n        /* \"BlockChainElection.sol\":5920:5963  candidateList.push(candidate[id_candidate]) */\n      swap2\n      0x1b6847dc741a1b0cd08d278845f9d819d87b734759afb55fe2de5cb82a9ae673\n      swap1\n      swap2\n      add\n      swap1\n      tag_168\n      swap1\n      dup5\n      add\n      dup3\n      tag_169\n      jump\t// in\n    tag_168:\n      pop\n      0x02\n      dup2\n      dup2\n      add\n      swap1\n      tag_170\n      swap1\n      dup5\n      add\n      dup3\n      tag_169\n      jump\t// in\n    tag_170:\n      pop\n      0x03\n      dup2\n      dup2\n      add\n      swap1\n      tag_171\n      swap1\n      dup5\n      add\n      dup3\n      tag_169\n      jump\t// in\n    tag_171:\n      pop\n      0x04\n      dup2\n      dup2\n      add\n      swap1\n      tag_172\n      swap1\n      dup5\n      add\n      dup3\n      tag_169\n      jump\t// in\n    tag_172:\n      pop\n      pop\n        /* \"BlockChainElection.sol\":5974:5986  id_candidate */\n      0x04\n        /* \"BlockChainElection.sol\":5974:5988  id_candidate++ */\n      dup1\n      sload\n      swap2\n      pop\n        /* \"BlockChainElection.sol\":5974:5986  id_candidate */\n      0x00\n        /* \"BlockChainElection.sol\":5974:5988  id_candidate++ */\n      tag_173\n      dup4\n      tag_101\n      jump\t// in\n    tag_173:\n      swap2\n      swap1\n      pop\n      sstore\n      pop\n        /* \"BlockChainElection.sol\":6004:6061  candidate_registration(msg.sender , registration_message) */\n      0x11d7002257ca02e998e3d17112a6298cf2bb8b3b44ece5e8a02e1e78c7d2dc2b\n        /* \"BlockChainElection.sol\":6027:6037  msg.sender */\n      caller\n        /* \"BlockChainElection.sol\":6040:6060  registration_message */\n      mload(0x40)\n      dup1\n      0x40\n      add\n      0x40\n      mstore\n      dup1\n      0x17\n      dup2\n      mstore\n      0x20\n      add\n      shl(0x4a, 0x149959da5cdd1c985d1a5bdb8814dd58d8d95cdcd99d5b)\n      dup2\n      mstore\n      pop\n        /* \"BlockChainElection.sol\":6004:6061  candidate_registration(msg.sender , registration_message) */\n      mload(0x40)\n      tag_174\n      swap3\n      swap2\n      swap1\n      tag_175\n      jump\t// in\n    tag_174:\n      mload(0x40)\n      dup1\n      swap2\n      sub\n      swap1\n      log1\n        /* \"BlockChainElection.sol\":6102:6121  election_commission */\n      sload(0x02)\n        /* \"BlockChainElection.sol\":6077:6160  Request_For_Registration(election_commission, \"Request for Candidate Registration\") */\n      0x40\n      dup1\n      mload\n      sub(shl(0xa0, 0x01), 0x01)\n        /* \"BlockChainElection.sol\":6102:6121  election_commission */\n      swap1\n      swap3\n      and\n        /* \"#utility.yul\":15892:15943   */\n      dup3\n      mstore\n        /* \"#utility.yul\":15974:15976   */\n      0x20\n        /* \"#utility.yul\":15959:15977   */\n      dup3\n      add\n        /* \"#utility.yul\":15952:15982   */\n      dup2\n      swap1\n      mstore\n        /* \"#utility.yul\":16018:16020   */\n      0x22\n        /* \"#utility.yul\":15998:16016   */\n      swap1\n      dup3\n      add\n        /* \"#utility.yul\":15991:16021   */\n      mstore\n        /* \"#utility.yul\":16057:16091   */\n      0x5265717565737420666f722043616e6469646174652052656769737472617469\n        /* \"#utility.yul\":16052:16054   */\n      0x60\n        /* \"#utility.yul\":16037:16055   */\n      dup3\n      add\n        /* \"#utility.yul\":16030:16092   */\n      mstore\n      shl(0xf1, 0x37b7)\n        /* \"#utility.yul\":16123:16126   */\n      0x80\n        /* \"#utility.yul\":16108:16127   */\n      dup3\n      add\n        /* \"#utility.yul\":16101:16134   */\n      mstore\n        /* \"BlockChainElection.sol\":6077:6160  Request_For_Registration(election_commission, \"Request for Candidate Registration\") */\n      0x73ea8b385cde3d60501d54bccc28c7ccff4841ff66eae0201cbb1fafe237fce6\n      swap1\n        /* \"#utility.yul\":15930:15933   */\n      0xa0\n        /* \"#utility.yul\":16151:16170   */\n      add\n        /* \"BlockChainElection.sol\":6077:6160  Request_For_Registration(election_commission, \"Request for Candidate Registration\") */\n    tag_176:\n      mload(0x40)\n      dup1\n      swap2\n      sub\n      swap1\n      log1\n        /* \"BlockChainElection.sol\":5383:6168  function register_candidate(string memory _candidate_name, string memory _candidate_address, string memory _candidate_age, string memory _candidate_promise) public OneTimeRegistrationCandidate{... */\n      pop\n      pop\n      pop\n      pop\n      jump\t// out\n        /* \"BlockChainElection.sol\":7248:7512  function endElection() public onlyElectionCommission{... */\n    tag_49:\n        /* \"BlockChainElection.sol\":2329:2348  election_commission */\n      and(sub(shl(0xa0, 0x01), 0x01), sload(0x02))\n        /* \"BlockChainElection.sol\":2315:2325  msg.sender */\n      caller\n        /* \"BlockChainElection.sol\":2315:2348  msg.sender == election_commission */\n      eq\n        /* \"BlockChainElection.sol\":2307:2372  require(msg.sender == election_commission, \"Unauthorized access\") */\n      tag_179\n      jumpi\n      mload(0x40)\n      shl(0xe5, 0x461bcd)\n      dup2\n      mstore\n      0x04\n      add\n      tag_96\n      swap1\n      tag_97\n      jump\t// in\n    tag_179:\n        /* \"BlockChainElection.sol\":7314:7330  election_started */\n      and(0xff, sload(0x06))\n        /* \"BlockChainElection.sol\":7311:7505  if(election_started){... */\n      iszero\n      tag_182\n      jumpi\n        /* \"BlockChainElection.sol\":7350:7364  election_ended */\n      sload(0x06)\n      0x0100\n      swap1\n      div\n      0xff\n      and\n        /* \"BlockChainElection.sol\":7346:7421  if(!election_ended){... */\n      tag_183\n      jumpi\n        /* \"BlockChainElection.sol\":7384:7398  election_ended */\n      0x06\n        /* \"BlockChainElection.sol\":7384:7405  election_ended = true */\n      dup1\n      sload\n      not(0xff00)\n      and\n      0x0100\n      or\n      swap1\n      sstore\n        /* \"BlockChainElection.sol\":7346:7421  if(!election_ended){... */\n    tag_183:\n        /* \"BlockChainElection.sol\":7248:7512  function endElection() public onlyElectionCommission{... */\n      jump\t// out\n        /* \"BlockChainElection.sol\":7311:7505  if(election_started){... */\n    tag_182:\n        /* \"BlockChainElection.sol\":7451:7493  revert(\"The election is not started yet.\") */\n      mload(0x40)\n      shl(0xe5, 0x461bcd)\n      dup2\n      mstore\n        /* \"#utility.yul\":16383:16385   */\n      0x20\n        /* \"BlockChainElection.sol\":7451:7493  revert(\"The election is not started yet.\") */\n      0x04\n      dup3\n      add\n        /* \"#utility.yul\":16365:16386   */\n      dup2\n      swap1\n      mstore\n        /* \"#utility.yul\":16402:16420   */\n      0x24\n      dup3\n      add\n        /* \"#utility.yul\":16395:16425   */\n      mstore\n        /* \"#utility.yul\":16461:16495   */\n      0x54686520656c656374696f6e206973206e6f742073746172746564207965742e\n        /* \"#utility.yul\":16441:16459   */\n      0x44\n      dup3\n      add\n        /* \"#utility.yul\":16434:16496   */\n      mstore\n        /* \"#utility.yul\":16513:16531   */\n      0x64\n      add\n        /* \"BlockChainElection.sol\":7451:7493  revert(\"The election is not started yet.\") */\n      tag_96\n        /* \"#utility.yul\":16181:16537   */\n      jump\n        /* \"BlockChainElection.sol\":3975:4614  function add_voter(string memory _voter_name, string memory _voter_address, uint8 _voter_age, string memory _voter_aadhaar_number) public OneTimeRegistrationVoter{... */\n    tag_53:\n        /* \"BlockChainElection.sol\":2467:2477  msg.sender */\n      caller\n        /* \"BlockChainElection.sol\":2452:2478  voterIdManager[msg.sender] */\n      0x00\n      swap1\n      dup2\n      mstore\n        /* \"BlockChainElection.sol\":2452:2466  voterIdManager */\n      0x08\n        /* \"BlockChainElection.sol\":2452:2478  voterIdManager[msg.sender] */\n      0x20\n      mstore\n      0x40\n      swap1\n      keccak256\n        /* \"BlockChainElection.sol\":2452:2481  voterIdManager[msg.sender].id */\n      sload\n        /* \"BlockChainElection.sol\":2452:2486  voterIdManager[msg.sender].id == 0 */\n      iszero\n        /* \"BlockChainElection.sol\":2444:2524  require(voterIdManager[msg.sender].id == 0, \"You have already been registered.\") */\n      tag_188\n      jumpi\n      mload(0x40)\n      shl(0xe5, 0x461bcd)\n      dup2\n      mstore\n      0x04\n      add\n      tag_96\n      swap1\n      tag_160\n      jump\t// in\n    tag_188:\n        /* \"BlockChainElection.sol\":4167:4252  Voters_List(id_voter, _voter_name, _voter_address, _voter_age, _voter_aadhaar_number) */\n      0x40\n      dup1\n      mload\n      0xa0\n      dup2\n      add\n      dup3\n      mstore\n        /* \"BlockChainElection.sol\":4179:4187  id_voter */\n      sload(0x03)\n        /* \"BlockChainElection.sol\":4167:4252  Voters_List(id_voter, _voter_name, _voter_address, _voter_age, _voter_aadhaar_number) */\n      dup1\n      dup3\n      mstore\n      0x20\n      dup1\n      dup4\n      add\n      dup9\n      dup2\n      mstore\n      dup4\n      dup6\n      add\n      dup9\n      swap1\n      mstore\n      0xff\n      dup8\n      and\n      0x60\n      dup6\n      add\n      mstore\n      0x80\n      dup5\n      add\n      dup7\n      swap1\n      mstore\n      0x00\n        /* \"BlockChainElection.sol\":4148:4164  voters[id_voter] */\n      swap3\n      dup4\n      mstore\n        /* \"BlockChainElection.sol\":4148:4154  voters */\n      0x07\n        /* \"BlockChainElection.sol\":4148:4164  voters[id_voter] */\n      swap1\n      swap2\n      mstore\n      swap3\n      swap1\n      keccak256\n        /* \"BlockChainElection.sol\":4148:4252  voters[id_voter] = Voters_List(id_voter, _voter_name, _voter_address, _voter_age, _voter_aadhaar_number) */\n      dup2\n      mload\n      dup2\n      sstore\n      swap2\n      mload\n        /* \"BlockChainElection.sol\":4167:4252  Voters_List(id_voter, _voter_name, _voter_address, _voter_age, _voter_aadhaar_number) */\n      swap1\n      swap2\n        /* \"BlockChainElection.sol\":4148:4164  voters[id_voter] */\n      swap1\n        /* \"BlockChainElection.sol\":4148:4252  voters[id_voter] = Voters_List(id_voter, _voter_name, _voter_address, _voter_age, _voter_aadhaar_number) */\n      0x01\n      dup3\n      add\n      swap1\n      tag_191\n      swap1\n      dup3\n      tag_163\n      jump\t// in\n    tag_191:\n      pop\n      0x40\n      dup3\n      add\n      mload\n      0x02\n      dup3\n      add\n      swap1\n      tag_192\n      swap1\n      dup3\n      tag_163\n      jump\t// in\n    tag_192:\n      pop\n      0x60\n      dup3\n      add\n      mload\n      0x03\n      dup3\n      add\n      dup1\n      sload\n      not(0xff)\n      and\n      0xff\n      swap1\n      swap3\n      and\n      swap2\n      swap1\n      swap2\n      or\n      swap1\n      sstore\n      0x80\n      dup3\n      add\n      mload\n      0x04\n      dup3\n      add\n      swap1\n      tag_193\n      swap1\n      dup3\n      tag_163\n      jump\t// in\n    tag_193:\n      pop\n      pop\n        /* \"BlockChainElection.sol\":4292:4318  Voter_Id_Manager(id_voter) */\n      0x40\n      dup1\n      mload\n      0x20\n      dup1\n      dup3\n      add\n      dup4\n      mstore\n        /* \"BlockChainElection.sol\":4309:4317  id_voter */\n      0x03\n      dup1\n      sload\n        /* \"BlockChainElection.sol\":4292:4318  Voter_Id_Manager(id_voter) */\n      dup4\n      mstore\n        /* \"BlockChainElection.sol\":4278:4288  msg.sender */\n      caller\n      0x00\n        /* \"BlockChainElection.sol\":4263:4289  voterIdManager[msg.sender] */\n      dup2\n      dup2\n      mstore\n        /* \"BlockChainElection.sol\":4263:4277  voterIdManager */\n      0x08\n        /* \"BlockChainElection.sol\":4263:4289  voterIdManager[msg.sender] */\n      dup5\n      mstore\n      dup6\n      dup2\n      keccak256\n        /* \"BlockChainElection.sol\":4263:4318  voterIdManager[msg.sender] = Voter_Id_Manager(id_voter) */\n      swap5\n      mload\n      swap1\n      swap5\n      sstore\n        /* \"BlockChainElection.sol\":4355:4377  Voter_Eligible (false) */\n      dup5\n      mload\n      dup1\n      dup5\n      add\n      dup7\n      mstore\n      dup5\n      dup2\n      mstore\n        /* \"BlockChainElection.sol\":4343:4351  id_voter */\n      dup3\n      sload\n        /* \"BlockChainElection.sol\":4329:4352  voterEligible[id_voter] */\n      dup6\n      mstore\n        /* \"BlockChainElection.sol\":4329:4342  voterEligible */\n      0x0d\n        /* \"BlockChainElection.sol\":4329:4352  voterEligible[id_voter] */\n      dup5\n      mstore\n      dup6\n      dup6\n      keccak256\n        /* \"BlockChainElection.sol\":4329:4377  voterEligible[id_voter] = Voter_Eligible (false) */\n      swap1\n      mload\n      dup2\n      sload\n      swap1\n      iszero\n      iszero\n      not(0xff)\n      swap2\n      dup3\n      and\n      or\n      swap1\n      swap2\n      sstore\n        /* \"BlockChainElection.sol\":4388:4408  is_voted[msg.sender] */\n      swap1\n      dup5\n      mstore\n        /* \"BlockChainElection.sol\":4388:4396  is_voted */\n      0x0b\n        /* \"BlockChainElection.sol\":4388:4408  is_voted[msg.sender] */\n      swap1\n      swap3\n      mstore\n      swap3\n      dup3\n      keccak256\n        /* \"BlockChainElection.sol\":4388:4422  is_voted[msg.sender].voted = false */\n      dup1\n      sload\n      swap1\n      swap2\n      and\n      swap1\n      sstore\n        /* \"BlockChainElection.sol\":4433:4443  id_voter++ */\n      dup2\n      sload\n      swap3\n      pop\n      tag_194\n      dup4\n      tag_101\n      jump\t// in\n    tag_194:\n      swap2\n      swap1\n      pop\n      sstore\n      pop\n        /* \"BlockChainElection.sol\":4459:4511  voter_registration(msg.sender, registration_message) */\n      0xe54fed3d6f8ea8d23d023956c25fefd884a7258386b09ac1c4783ef5d1c51b06\n        /* \"BlockChainElection.sol\":4478:4488  msg.sender */\n      caller\n        /* \"BlockChainElection.sol\":4490:4510  registration_message */\n      mload(0x40)\n      dup1\n      0x40\n      add\n      0x40\n      mstore\n      dup1\n      0x17\n      dup2\n      mstore\n      0x20\n      add\n      shl(0x4a, 0x149959da5cdd1c985d1a5bdb8814dd58d8d95cdcd99d5b)\n      dup2\n      mstore\n      pop\n        /* \"BlockChainElection.sol\":4459:4511  voter_registration(msg.sender, registration_message) */\n      mload(0x40)\n      tag_195\n      swap3\n      swap2\n      swap1\n      tag_175\n      jump\t// in\n    tag_195:\n      mload(0x40)\n      dup1\n      swap2\n      sub\n      swap1\n      log1\n        /* \"BlockChainElection.sol\":4552:4571  election_commission */\n      sload(0x02)\n        /* \"BlockChainElection.sol\":4527:4606  Request_For_Registration(election_commission, \"Request for Voter Registration\") */\n      0x40\n      dup1\n      mload\n      sub(shl(0xa0, 0x01), 0x01)\n        /* \"BlockChainElection.sol\":4552:4571  election_commission */\n      swap1\n      swap3\n      and\n        /* \"#utility.yul\":16754:16805   */\n      dup3\n      mstore\n        /* \"#utility.yul\":16836:16838   */\n      0x20\n        /* \"#utility.yul\":16821:16839   */\n      dup3\n      add\n        /* \"#utility.yul\":16814:16844   */\n      dup2\n      swap1\n      mstore\n        /* \"#utility.yul\":16880:16882   */\n      0x1e\n        /* \"#utility.yul\":16860:16878   */\n      swap1\n      dup3\n      add\n        /* \"#utility.yul\":16853:16883   */\n      mstore\n        /* \"#utility.yul\":16919:16951   */\n      0x5265717565737420666f7220566f74657220526567697374726174696f6e0000\n        /* \"#utility.yul\":16914:16916   */\n      0x60\n        /* \"#utility.yul\":16899:16917   */\n      dup3\n      add\n        /* \"#utility.yul\":16892:16952   */\n      mstore\n        /* \"BlockChainElection.sol\":4527:4606  Request_For_Registration(election_commission, \"Request for Voter Registration\") */\n      0x73ea8b385cde3d60501d54bccc28c7ccff4841ff66eae0201cbb1fafe237fce6\n      swap1\n        /* \"#utility.yul\":16984:16987   */\n      0x80\n        /* \"#utility.yul\":16969:16988   */\n      add\n        /* \"BlockChainElection.sol\":4527:4606  Request_For_Registration(election_commission, \"Request for Voter Registration\") */\n      tag_176\n        /* \"#utility.yul\":16542:16994   */\n      jump\n        /* \"BlockChainElection.sol\":7010:7240  function startElection() public onlyElectionCommission{... */\n    tag_55:\n        /* \"BlockChainElection.sol\":2329:2348  election_commission */\n      and(sub(shl(0xa0, 0x01), 0x01), sload(0x02))\n        /* \"BlockChainElection.sol\":2315:2325  msg.sender */\n      caller\n        /* \"BlockChainElection.sol\":2315:2348  msg.sender == election_commission */\n      eq\n        /* \"BlockChainElection.sol\":2307:2372  require(msg.sender == election_commission, \"Unauthorized access\") */\n      tag_199\n      jumpi\n      mload(0x40)\n      shl(0xe5, 0x461bcd)\n      dup2\n      mstore\n      0x04\n      add\n      tag_96\n      swap1\n      tag_97\n      jump\t// in\n    tag_199:\n        /* \"BlockChainElection.sol\":7079:7095  election_started */\n      and(0xff, sload(0x06))\n        /* \"BlockChainElection.sol\":7075:7233  if(!election_started){... */\n      tag_202\n      jumpi\n        /* \"BlockChainElection.sol\":7111:7127  election_started */\n      0x06\n        /* \"BlockChainElection.sol\":7111:7134  election_started = true */\n      dup1\n      sload\n      not(0xff)\n      and\n        /* \"BlockChainElection.sol\":7130:7134  true */\n      0x01\n        /* \"BlockChainElection.sol\":7111:7134  election_started = true */\n      or\n      swap1\n      sstore\n        /* \"BlockChainElection.sol\":7248:7512  function endElection() public onlyElectionCommission{... */\n      jump\t// out\n        /* \"BlockChainElection.sol\":7075:7233  if(!election_started){... */\n    tag_202:\n        /* \"BlockChainElection.sol\":7175:7221  revert(\"The election is already in progress.\") */\n      mload(0x40)\n      shl(0xe5, 0x461bcd)\n      dup2\n      mstore\n        /* \"#utility.yul\":17201:17203   */\n      0x20\n        /* \"BlockChainElection.sol\":7175:7221  revert(\"The election is already in progress.\") */\n      0x04\n      dup3\n      add\n        /* \"#utility.yul\":17183:17204   */\n      mstore\n        /* \"#utility.yul\":17240:17242   */\n      0x24\n        /* \"#utility.yul\":17220:17238   */\n      dup1\n      dup3\n      add\n        /* \"#utility.yul\":17213:17243   */\n      mstore\n        /* \"#utility.yul\":17279:17313   */\n      0x54686520656c656374696f6e20697320616c726561647920696e2070726f6772\n        /* \"#utility.yul\":17259:17277   */\n      0x44\n      dup3\n      add\n        /* \"#utility.yul\":17252:17314   */\n      mstore\n      shl(0xe1, 0x32b9b997)\n        /* \"#utility.yul\":17330:17348   */\n      0x64\n      dup3\n      add\n        /* \"#utility.yul\":17323:17357   */\n      mstore\n        /* \"#utility.yul\":17374:17393   */\n      0x84\n      add\n        /* \"BlockChainElection.sol\":7175:7221  revert(\"The election is already in progress.\") */\n      tag_96\n        /* \"#utility.yul\":16999:17399   */\n      jump\n        /* \"BlockChainElection.sol\":9108:9251  function get_candidate_detail(uint _candidate_id) public view returns (Candidate_List memory){... */\n    tag_58:\n        /* \"BlockChainElection.sol\":9179:9200  Candidate_List memory */\n      tag_206\n      mload(0x40)\n      dup1\n      0xa0\n      add\n      0x40\n      mstore\n      dup1\n      0x00\n      dup2\n      mstore\n      0x20\n      add\n      0x60\n      dup2\n      mstore\n      0x20\n      add\n      0x60\n      dup2\n      mstore\n      0x20\n      add\n      0x60\n      dup2\n      mstore\n      0x20\n      add\n      0x60\n      dup2\n      mstore\n      pop\n      swap1\n      jump\n    tag_206:\n        /* \"BlockChainElection.sol\":9219:9228  candidate */\n      0x09\n        /* \"BlockChainElection.sol\":9219:9243  candidate[_candidate_id] */\n      0x00\n        /* \"BlockChainElection.sol\":9229:9242  _candidate_id */\n      dup4\n        /* \"BlockChainElection.sol\":9219:9243  candidate[_candidate_id] */\n      dup2\n      mstore\n      0x20\n      add\n      swap1\n      dup2\n      mstore\n      0x20\n      add\n      0x00\n      keccak256\n        /* \"BlockChainElection.sol\":9212:9243  return candidate[_candidate_id] */\n      mload(0x40)\n      dup1\n      0xa0\n      add\n      0x40\n      mstore\n      swap1\n      dup2\n      0x00\n      dup3\n      add\n      sload\n      dup2\n      mstore\n      0x20\n      add\n      0x01\n      dup3\n      add\n      dup1\n      sload\n      tag_209\n      swap1\n      tag_210\n      jump\t// in\n    tag_209:\n      dup1\n      0x1f\n      add\n      0x20\n      dup1\n      swap2\n      div\n      mul\n      0x20\n      add\n      mload(0x40)\n      swap1\n      dup2\n      add\n      0x40\n      mstore\n      dup1\n      swap3\n      swap2\n      swap1\n      dup2\n      dup2\n      mstore\n      0x20\n      add\n      dup3\n      dup1\n      sload\n      tag_211\n      swap1\n      tag_210\n      jump\t// in\n    tag_211:\n      dup1\n      iszero\n      tag_212\n      jumpi\n      dup1\n      0x1f\n      lt\n      tag_213\n      jumpi\n      0x0100\n      dup1\n      dup4\n      sload\n      div\n      mul\n      dup4\n      mstore\n      swap2\n      0x20\n      add\n      swap2\n      jump(tag_212)\n    tag_213:\n      dup3\n      add\n      swap2\n      swap1\n      0x00\n      mstore\n      keccak256(0x00, 0x20)\n      swap1\n    tag_214:\n      dup2\n      sload\n      dup2\n      mstore\n      swap1\n      0x01\n      add\n      swap1\n      0x20\n      add\n      dup1\n      dup4\n      gt\n      tag_214\n      jumpi\n      dup3\n      swap1\n      sub\n      0x1f\n      and\n      dup3\n      add\n      swap2\n    tag_212:\n      pop\n      pop\n      pop\n      pop\n      pop\n      dup2\n      mstore\n      0x20\n      add\n      0x02\n      dup3\n      add\n      dup1\n      sload\n      tag_215\n      swap1\n      tag_210\n      jump\t// in\n    tag_215:\n      dup1\n      0x1f\n      add\n      0x20\n      dup1\n      swap2\n      div\n      mul\n      0x20\n      add\n      mload(0x40)\n      swap1\n      dup2\n      add\n      0x40\n      mstore\n      dup1\n      swap3\n      swap2\n      swap1\n      dup2\n      dup2\n      mstore\n      0x20\n      add\n      dup3\n      dup1\n      sload\n      tag_216\n      swap1\n      tag_210\n      jump\t// in\n    tag_216:\n      dup1\n      iszero\n      tag_217\n      jumpi\n      dup1\n      0x1f\n      lt\n      tag_218\n      jumpi\n      0x0100\n      dup1\n      dup4\n      sload\n      div\n      mul\n      dup4\n      mstore\n      swap2\n      0x20\n      add\n      swap2\n      jump(tag_217)\n    tag_218:\n      dup3\n      add\n      swap2\n      swap1\n      0x00\n      mstore\n      keccak256(0x00, 0x20)\n      swap1\n    tag_219:\n      dup2\n      sload\n      dup2\n      mstore\n      swap1\n      0x01\n      add\n      swap1\n      0x20\n      add\n      dup1\n      dup4\n      gt\n      tag_219\n      jumpi\n      dup3\n      swap1\n      sub\n      0x1f\n      and\n      dup3\n      add\n      swap2\n    tag_217:\n      pop\n      pop\n      pop\n      pop\n      pop\n      dup2\n      mstore\n      0x20\n      add\n      0x03\n      dup3\n      add\n      dup1\n      sload\n      tag_220\n      swap1\n      tag_210\n      jump\t// in\n    tag_220:\n      dup1\n      0x1f\n      add\n      0x20\n      dup1\n      swap2\n      div\n      mul\n      0x20\n      add\n      mload(0x40)\n      swap1\n      dup2\n      add\n      0x40\n      mstore\n      dup1\n      swap3\n      swap2\n      swap1\n      dup2\n      dup2\n      mstore\n      0x20\n      add\n      dup3\n      dup1\n      sload\n      tag_221\n      swap1\n      tag_210\n      jump\t// in\n    tag_221:\n      dup1\n      iszero\n      tag_222\n      jumpi\n      dup1\n      0x1f\n      lt\n      tag_223\n      jumpi\n      0x0100\n      dup1\n      dup4\n      sload\n      div\n      mul\n      dup4\n      mstore\n      swap2\n      0x20\n      add\n      swap2\n      jump(tag_222)\n    tag_223:\n      dup3\n      add\n      swap2\n      swap1\n      0x00\n      mstore\n      keccak256(0x00, 0x20)\n      swap1\n    tag_224:\n      dup2\n      sload\n      dup2\n      mstore\n      swap1\n      0x01\n      add\n      swap1\n      0x20\n      add\n      dup1\n      dup4\n      gt\n      tag_224\n      jumpi\n      dup3\n      swap1\n      sub\n      0x1f\n      and\n      dup3\n      add\n      swap2\n    tag_222:\n      pop\n      pop\n      pop\n      pop\n      pop\n      dup2\n      mstore\n      0x20\n      add\n      0x04\n      dup3\n      add\n      dup1\n      sload\n      tag_225\n      swap1\n      tag_210\n      jump\t// in\n    tag_225:\n      dup1\n      0x1f\n      add\n      0x20\n      dup1\n      swap2\n      div\n      mul\n      0x20\n      add\n      mload(0x40)\n      swap1\n      dup2\n      add\n      0x40\n      mstore\n      dup1\n      swap3\n      swap2\n      swap1\n      dup2\n      dup2\n      mstore\n      0x20\n      add\n      dup3\n      dup1\n      sload\n      tag_226\n      swap1\n      tag_210\n      jump\t// in\n    tag_226:\n      dup1\n      iszero\n      tag_227\n      jumpi\n      dup1\n      0x1f\n      lt\n      tag_228\n      jumpi\n      0x0100\n      dup1\n      dup4\n      sload\n      div\n      mul\n      dup4\n      mstore\n      swap2\n      0x20\n      add\n      swap2\n      jump(tag_227)\n    tag_228:\n      dup3\n      add\n      swap2\n      swap1\n      0x00\n      mstore\n      keccak256(0x00, 0x20)\n      swap1\n    tag_229:\n      dup2\n      sload\n      dup2\n      mstore\n      swap1\n      0x01\n      add\n      swap1\n      0x20\n      add\n      dup1\n      dup4\n      gt\n      tag_229\n      jumpi\n      dup3\n      swap1\n      sub\n      0x1f\n      and\n      dup3\n      add\n      swap2\n    tag_227:\n      pop\n      pop\n      pop\n      pop\n      pop\n      dup2\n      mstore\n      pop\n      pop\n      swap1\n      pop\n        /* \"BlockChainElection.sol\":9108:9251  function get_candidate_detail(uint _candidate_id) public view returns (Candidate_List memory){... */\n      swap2\n      swap1\n      pop\n      jump\t// out\n        /* \"BlockChainElection.sol\":4622:4986  function approve_or_unBan_voter(uint _voter_id) public onlyElectionCommission{... */\n    tag_63:\n        /* \"BlockChainElection.sol\":2329:2348  election_commission */\n      and(sub(shl(0xa0, 0x01), 0x01), sload(0x02))\n        /* \"BlockChainElection.sol\":2315:2325  msg.sender */\n      caller\n        /* \"BlockChainElection.sol\":2315:2348  msg.sender == election_commission */\n      eq\n        /* \"BlockChainElection.sol\":2307:2372  require(msg.sender == election_commission, \"Unauthorized access\") */\n      tag_231\n      jumpi\n      mload(0x40)\n      shl(0xe5, 0x461bcd)\n      dup2\n      mstore\n      0x04\n      add\n      tag_96\n      swap1\n      tag_97\n      jump\t// in\n    tag_231:\n        /* \"BlockChainElection.sol\":4714:4738  voterEligible[_voter_id] */\n      0x00\n      dup2\n      dup2\n      mstore\n        /* \"BlockChainElection.sol\":4714:4727  voterEligible */\n      0x0d\n        /* \"BlockChainElection.sol\":4714:4738  voterEligible[_voter_id] */\n      0x20\n      mstore\n      0x40\n      swap1\n      keccak256\n        /* \"BlockChainElection.sol\":4714:4753  voterEligible[_voter_id].voter_eligible */\n      sload\n      0xff\n      and\n        /* \"BlockChainElection.sol\":4710:4979  if(!voterEligible[_voter_id].voter_eligible){... */\n      tag_234\n      jumpi\n        /* \"BlockChainElection.sol\":4769:4793  voterEligible[_voter_id] */\n      0x00\n      dup2\n      dup2\n      mstore\n        /* \"BlockChainElection.sol\":4769:4782  voterEligible */\n      0x0d\n        /* \"BlockChainElection.sol\":4769:4793  voterEligible[_voter_id] */\n      0x20\n      mstore\n      0x40\n      dup2\n      keccak256\n        /* \"BlockChainElection.sol\":4769:4815  voterEligible[_voter_id].voter_eligible = true */\n      dup1\n      sload\n      not(0xff)\n      and\n        /* \"BlockChainElection.sol\":4811:4815  true */\n      0x01\n        /* \"BlockChainElection.sol\":4769:4815  voterEligible[_voter_id].voter_eligible = true */\n      or\n      swap1\n      sstore\n        /* \"BlockChainElection.sol\":4830:4851  total_active_voters++ */\n      dup1\n      sload\n      swap1\n        /* \"BlockChainElection.sol\":4769:4793  voterEligible[_voter_id] */\n      dup1\n        /* \"BlockChainElection.sol\":4830:4851  total_active_voters++ */\n      tag_100\n      dup4\n      tag_101\n      jump\t// in\n        /* \"BlockChainElection.sol\":4710:4979  if(!voterEligible[_voter_id].voter_eligible){... */\n    tag_234:\n        /* \"BlockChainElection.sol\":4921:4967  revert(\"The voter has already been approved.\") */\n      mload(0x40)\n      shl(0xe5, 0x461bcd)\n      dup2\n      mstore\n        /* \"#utility.yul\":17606:17608   */\n      0x20\n        /* \"BlockChainElection.sol\":4921:4967  revert(\"The voter has already been approved.\") */\n      0x04\n      dup3\n      add\n        /* \"#utility.yul\":17588:17609   */\n      mstore\n        /* \"#utility.yul\":17645:17647   */\n      0x24\n        /* \"#utility.yul\":17625:17643   */\n      dup1\n      dup3\n      add\n        /* \"#utility.yul\":17618:17648   */\n      mstore\n        /* \"#utility.yul\":17684:17718   */\n      0x54686520766f7465722068617320616c7265616479206265656e20617070726f\n        /* \"#utility.yul\":17664:17682   */\n      0x44\n      dup3\n      add\n        /* \"#utility.yul\":17657:17719   */\n      mstore\n      shl(0xe1, 0x3b32b217)\n        /* \"#utility.yul\":17735:17753   */\n      0x64\n      dup3\n      add\n        /* \"#utility.yul\":17728:17762   */\n      mstore\n        /* \"#utility.yul\":17779:17798   */\n      0x84\n      add\n        /* \"BlockChainElection.sol\":4921:4967  revert(\"The voter has already been approved.\") */\n      tag_96\n        /* \"#utility.yul\":17404:17804   */\n      jump\n        /* \"BlockChainElection.sol\":7520:7796  function delegate_my_vote(uint _voter_id, DelegatedRelationship _relationship) public delegateMyVote(_voter_id) {... */\n    tag_67:\n        /* \"BlockChainElection.sol\":3258:3268  msg.sender */\n      caller\n        /* \"BlockChainElection.sol\":3243:3269  voterIdManager[msg.sender] */\n      0x00\n      swap1\n      dup2\n      mstore\n        /* \"BlockChainElection.sol\":3243:3257  voterIdManager */\n      0x08\n        /* \"BlockChainElection.sol\":3243:3269  voterIdManager[msg.sender] */\n      0x20\n      mstore\n      0x40\n      dup2\n      keccak256\n        /* \"BlockChainElection.sol\":3243:3272  voterIdManager[msg.sender].id */\n      sload\n        /* \"BlockChainElection.sol\":7621:7630  _voter_id */\n      dup4\n      swap2\n        /* \"BlockChainElection.sol\":3243:3277  voterIdManager[msg.sender].id != 0 */\n      sub\n        /* \"BlockChainElection.sol\":3235:3314  require(voterIdManager[msg.sender].id != 0, \"You are not an authorized voter.\") */\n      tag_241\n      jumpi\n      mload(0x40)\n      shl(0xe5, 0x461bcd)\n      dup2\n      mstore\n        /* \"#utility.yul\":18011:18013   */\n      0x20\n        /* \"BlockChainElection.sol\":3235:3314  require(voterIdManager[msg.sender].id != 0, \"You are not an authorized voter.\") */\n      0x04\n      dup3\n      add\n        /* \"#utility.yul\":17993:18014   */\n      dup2\n      swap1\n      mstore\n        /* \"#utility.yul\":18030:18048   */\n      0x24\n      dup3\n      add\n        /* \"#utility.yul\":18023:18053   */\n      mstore\n        /* \"#utility.yul\":18089:18123   */\n      0x596f7520617265206e6f7420616e20617574686f72697a656420766f7465722e\n        /* \"#utility.yul\":18069:18087   */\n      0x44\n      dup3\n      add\n        /* \"#utility.yul\":18062:18124   */\n      mstore\n        /* \"#utility.yul\":18141:18159   */\n      0x64\n      add\n        /* \"BlockChainElection.sol\":3235:3314  require(voterIdManager[msg.sender].id != 0, \"You are not an authorized voter.\") */\n      tag_96\n        /* \"#utility.yul\":17809:18165   */\n      jump\n        /* \"BlockChainElection.sol\":3235:3314  require(voterIdManager[msg.sender].id != 0, \"You are not an authorized voter.\") */\n    tag_241:\n        /* \"BlockChainElection.sol\":3362:3372  msg.sender */\n      caller\n        /* \"BlockChainElection.sol\":3333:3377  voterEligible[voterIdManager[msg.sender].id] */\n      0x00\n        /* \"BlockChainElection.sol\":3347:3373  voterIdManager[msg.sender] */\n      swap1\n      dup2\n      mstore\n        /* \"BlockChainElection.sol\":3347:3361  voterIdManager */\n      0x08\n        /* \"BlockChainElection.sol\":3347:3373  voterIdManager[msg.sender] */\n      0x20\n      swap1\n      dup2\n      mstore\n      0x40\n      dup1\n      dup4\n      keccak256\n        /* \"BlockChainElection.sol\":3347:3376  voterIdManager[msg.sender].id */\n      sload\n        /* \"BlockChainElection.sol\":3333:3377  voterEligible[voterIdManager[msg.sender].id] */\n      dup4\n      mstore\n        /* \"BlockChainElection.sol\":3333:3346  voterEligible */\n      0x0d\n        /* \"BlockChainElection.sol\":3333:3377  voterEligible[voterIdManager[msg.sender].id] */\n      swap1\n      swap2\n      mstore\n      swap1\n      keccak256\n        /* \"BlockChainElection.sol\":3333:3392  voterEligible[voterIdManager[msg.sender].id].voter_eligible */\n      sload\n      0xff\n      and\n        /* \"BlockChainElection.sol\":3325:3429  require(voterEligible[voterIdManager[msg.sender].id].voter_eligible, \"You are not an authorized voter.\") */\n      tag_244\n      jumpi\n      mload(0x40)\n      shl(0xe5, 0x461bcd)\n      dup2\n      mstore\n        /* \"#utility.yul\":18011:18013   */\n      0x20\n        /* \"BlockChainElection.sol\":3325:3429  require(voterEligible[voterIdManager[msg.sender].id].voter_eligible, \"You are not an authorized voter.\") */\n      0x04\n      dup3\n      add\n        /* \"#utility.yul\":17993:18014   */\n      dup2\n      swap1\n      mstore\n        /* \"#utility.yul\":18030:18048   */\n      0x24\n      dup3\n      add\n        /* \"#utility.yul\":18023:18053   */\n      mstore\n        /* \"#utility.yul\":18089:18123   */\n      0x596f7520617265206e6f7420616e20617574686f72697a656420766f7465722e\n        /* \"#utility.yul\":18069:18087   */\n      0x44\n      dup3\n      add\n        /* \"#utility.yul\":18062:18124   */\n      mstore\n        /* \"#utility.yul\":18141:18159   */\n      0x64\n      add\n        /* \"BlockChainElection.sol\":3325:3429  require(voterEligible[voterIdManager[msg.sender].id].voter_eligible, \"You are not an authorized voter.\") */\n      tag_96\n        /* \"#utility.yul\":17809:18165   */\n      jump\n        /* \"BlockChainElection.sol\":3325:3429  require(voterEligible[voterIdManager[msg.sender].id].voter_eligible, \"You are not an authorized voter.\") */\n    tag_244:\n        /* \"BlockChainElection.sol\":3448:3472  voterEligible[_voter_id] */\n      0x00\n      dup2\n      dup2\n      mstore\n        /* \"BlockChainElection.sol\":3448:3461  voterEligible */\n      0x0d\n        /* \"BlockChainElection.sol\":3448:3472  voterEligible[_voter_id] */\n      0x20\n      mstore\n      0x40\n      swap1\n      keccak256\n        /* \"BlockChainElection.sol\":3448:3487  voterEligible[_voter_id].voter_eligible */\n      sload\n      0xff\n      and\n        /* \"BlockChainElection.sol\":3440:3525  require(voterEligible[_voter_id].voter_eligible, \"They are not an authorized voter.\") */\n      tag_246\n      jumpi\n      mload(0x40)\n      shl(0xe5, 0x461bcd)\n      dup2\n      mstore\n        /* \"#utility.yul\":18372:18374   */\n      0x20\n        /* \"BlockChainElection.sol\":3440:3525  require(voterEligible[_voter_id].voter_eligible, \"They are not an authorized voter.\") */\n      0x04\n      dup3\n      add\n        /* \"#utility.yul\":18354:18375   */\n      mstore\n        /* \"#utility.yul\":18411:18413   */\n      0x21\n        /* \"#utility.yul\":18391:18409   */\n      0x24\n      dup3\n      add\n        /* \"#utility.yul\":18384:18414   */\n      mstore\n        /* \"#utility.yul\":18450:18484   */\n      0x5468657920617265206e6f7420616e20617574686f72697a656420766f746572\n        /* \"#utility.yul\":18430:18448   */\n      0x44\n      dup3\n      add\n        /* \"#utility.yul\":18423:18485   */\n      mstore\n      shl(0xf9, 0x17)\n        /* \"#utility.yul\":18501:18519   */\n      0x64\n      dup3\n      add\n        /* \"#utility.yul\":18494:18525   */\n      mstore\n        /* \"#utility.yul\":18542:18561   */\n      0x84\n      add\n        /* \"BlockChainElection.sol\":3440:3525  require(voterEligible[_voter_id].voter_eligible, \"They are not an authorized voter.\") */\n      tag_96\n        /* \"#utility.yul\":18170:18567   */\n      jump\n        /* \"BlockChainElection.sol\":3440:3525  require(voterEligible[_voter_id].voter_eligible, \"They are not an authorized voter.\") */\n    tag_246:\n        /* \"BlockChainElection.sol\":7643:7668  delegatedVotes[_voter_id] */\n      0x00\n      dup4\n      dup2\n      mstore\n        /* \"BlockChainElection.sol\":7643:7657  delegatedVotes */\n      0x0f\n        /* \"BlockChainElection.sol\":7643:7668  delegatedVotes[_voter_id] */\n      0x20\n      swap1\n      dup2\n      mstore\n      0x40\n      dup1\n      dup4\n      keccak256\n        /* \"BlockChainElection.sol\":7675:7742  Delegated_Votes(voterIdManager[msg.sender].id, _relationship, true) */\n      dup2\n      mload\n      0x60\n      dup2\n      add\n      dup4\n      mstore\n        /* \"BlockChainElection.sol\":7706:7716  msg.sender */\n      caller\n        /* \"BlockChainElection.sol\":7691:7717  voterIdManager[msg.sender] */\n      dup6\n      mstore\n        /* \"BlockChainElection.sol\":7691:7705  voterIdManager */\n      0x08\n        /* \"BlockChainElection.sol\":7691:7717  voterIdManager[msg.sender] */\n      dup5\n      mstore\n      swap2\n      swap1\n      swap4\n      keccak256\n        /* \"BlockChainElection.sol\":7691:7720  voterIdManager[msg.sender].id */\n      sload\n        /* \"BlockChainElection.sol\":7675:7742  Delegated_Votes(voterIdManager[msg.sender].id, _relationship, true) */\n      dup2\n      mstore\n      swap1\n      dup2\n      add\n        /* \"BlockChainElection.sol\":7722:7735  _relationship */\n      dup5\n        /* \"BlockChainElection.sol\":7675:7742  Delegated_Votes(voterIdManager[msg.sender].id, _relationship, true) */\n      0x05\n      dup2\n      gt\n      iszero\n      tag_251\n      jumpi\n      tag_251\n      tag_252\n      jump\t// in\n    tag_251:\n      dup2\n      mstore\n        /* \"BlockChainElection.sol\":7737:7741  true */\n      0x01\n        /* \"BlockChainElection.sol\":7675:7742  Delegated_Votes(voterIdManager[msg.sender].id, _relationship, true) */\n      0x20\n      swap2\n      dup3\n      add\n      dup2\n      swap1\n      mstore\n        /* \"BlockChainElection.sol\":7643:7744  delegatedVotes[_voter_id].push( Delegated_Votes(voterIdManager[msg.sender].id, _relationship, true) ) */\n      dup4\n      sload\n      dup1\n      dup3\n      add\n      dup6\n      sstore\n        /* \"BlockChainElection.sol\":7675:7742  Delegated_Votes(voterIdManager[msg.sender].id, _relationship, true) */\n      0x00\n        /* \"BlockChainElection.sol\":7643:7744  delegatedVotes[_voter_id].push( Delegated_Votes(voterIdManager[msg.sender].id, _relationship, true) ) */\n      swap5\n      dup6\n      mstore\n      swap4\n      dup3\n      swap1\n      keccak256\n      dup4\n      mload\n      0x02\n      swap1\n      swap6\n      mul\n      add\n      swap4\n      dup5\n      sstore\n      swap1\n      dup3\n      add\n      mload\n      dup4\n      dup3\n      add\n      dup1\n      sload\n      swap4\n      swap5\n      swap4\n      swap2\n      swap3\n      swap1\n      swap2\n      not(0xff)\n      and\n      swap1\n      dup4\n      0x05\n      dup2\n      gt\n      iszero\n      tag_255\n      jumpi\n      tag_255\n      tag_252\n      jump\t// in\n    tag_255:\n      mul\n      or\n      swap1\n      sstore\n      pop\n      0x40\n      swap2\n      dup3\n      add\n      mload\n      0x01\n      swap2\n      dup3\n      add\n      dup1\n      sload\n      swap2\n      iszero\n      iszero\n      0x0100\n      mul\n      not(0xff00)\n      swap1\n      swap3\n      and\n      swap2\n      swap1\n      swap2\n      or\n      swap1\n      sstore\n        /* \"BlockChainElection.sol\":7764:7774  msg.sender */\n      caller\n      0x00\n        /* \"BlockChainElection.sol\":7755:7775  is_voted[msg.sender] */\n      swap1\n      dup2\n      mstore\n        /* \"BlockChainElection.sol\":7755:7763  is_voted */\n      0x0b\n        /* \"BlockChainElection.sol\":7755:7775  is_voted[msg.sender] */\n      0x20\n      mstore\n      swap2\n      swap1\n      swap2\n      keccak256\n        /* \"BlockChainElection.sol\":7755:7788  is_voted[msg.sender].voted = true */\n      dup1\n      sload\n      not(0xff)\n      and\n      swap1\n      swap2\n      or\n      swap1\n      sstore\n      pop\n      pop\n      pop\n        /* \"BlockChainElection.sol\":7520:7796  function delegate_my_vote(uint _voter_id, DelegatedRelationship _relationship) public delegateMyVote(_voter_id) {... */\n      jump\t// out\n        /* \"BlockChainElection.sol\":10245:10460  function get_candidate_result(uint _candidate_id) public view returns (uint){... */\n    tag_70:\n        /* \"BlockChainElection.sol\":10340:10354  election_ended */\n      sload(0x06)\n        /* \"BlockChainElection.sol\":10316:10320  uint */\n      0x00\n      swap1\n        /* \"BlockChainElection.sol\":10340:10354  election_ended */\n      0x0100\n      swap1\n      div\n      0xff\n      and\n        /* \"BlockChainElection.sol\":10332:10401  require(election_ended, \"You cannot view the results at the moment.\") */\n      tag_257\n      jumpi\n      mload(0x40)\n      shl(0xe5, 0x461bcd)\n      dup2\n      mstore\n      0x04\n      add\n      tag_96\n      swap1\n      tag_259\n      jump\t// in\n    tag_257:\n      pop\n        /* \"BlockChainElection.sol\":10419:10441  results[_candidate_id] */\n      0x00\n      swap1\n      dup2\n      mstore\n        /* \"BlockChainElection.sol\":10419:10426  results */\n      0x0c\n        /* \"BlockChainElection.sol\":10419:10441  results[_candidate_id] */\n      0x20\n      mstore\n      0x40\n      swap1\n      keccak256\n        /* \"BlockChainElection.sol\":10419:10452  results[_candidate_id].vote_count */\n      0x01\n      add\n      sload\n      swap1\n        /* \"BlockChainElection.sol\":10245:10460  function get_candidate_result(uint _candidate_id) public view returns (uint){... */\n      jump\t// out\n        /* \"BlockChainElection.sol\":6585:7002  function reject_or_ban_candidate(uint _candidate_id) public onlyElectionCommission{... */\n    tag_75:\n        /* \"BlockChainElection.sol\":2329:2348  election_commission */\n      and(sub(shl(0xa0, 0x01), 0x01), sload(0x02))\n        /* \"BlockChainElection.sol\":2315:2325  msg.sender */\n      caller\n        /* \"BlockChainElection.sol\":2315:2348  msg.sender == election_commission */\n      eq\n        /* \"BlockChainElection.sol\":2307:2372  require(msg.sender == election_commission, \"Unauthorized access\") */\n      tag_261\n      jumpi\n      mload(0x40)\n      shl(0xe5, 0x461bcd)\n      dup2\n      mstore\n      0x04\n      add\n      tag_96\n      swap1\n      tag_97\n      jump\t// in\n    tag_261:\n        /* \"BlockChainElection.sol\":6681:6713  candidateEligible[_candidate_id] */\n      0x00\n      dup2\n      dup2\n      mstore\n        /* \"BlockChainElection.sol\":6681:6698  candidateEligible */\n      0x0e\n        /* \"BlockChainElection.sol\":6681:6713  candidateEligible[_candidate_id] */\n      0x20\n      mstore\n      0x40\n      swap1\n      keccak256\n        /* \"BlockChainElection.sol\":6681:6731  candidateEligible[_candidate_id].candiate_eligible */\n      sload\n      0xff\n      and\n        /* \"BlockChainElection.sol\":6678:6995  if(candidateEligible[_candidate_id].candiate_eligible){... */\n      iszero\n      tag_264\n      jumpi\n        /* \"BlockChainElection.sol\":6800:6805  false */\n      0x00\n        /* \"BlockChainElection.sol\":6747:6779  candidateEligible[_candidate_id] */\n      dup2\n      dup2\n      mstore\n        /* \"BlockChainElection.sol\":6747:6764  candidateEligible */\n      0x0e\n        /* \"BlockChainElection.sol\":6747:6779  candidateEligible[_candidate_id] */\n      0x20\n      mstore\n      0x40\n      dup2\n      keccak256\n        /* \"BlockChainElection.sol\":6747:6805  candidateEligible[_candidate_id].candiate_eligible = false */\n      dup1\n      sload\n      not(0xff)\n      and\n      swap1\n      sstore\n      0x01\n        /* \"BlockChainElection.sol\":6820:6839  active_candidates-- */\n      dup1\n      sload\n      swap2\n      tag_265\n      dup4\n      tag_266\n      jump\t// in\n    tag_265:\n      swap1\n      swap2\n      sstore\n      pop\n      pop\n        /* \"BlockChainElection.sol\":6859:6892  Rejected_or_Banned(_candidate_id) */\n      mload(0x40)\n        /* \"#utility.yul\":5320:5345   */\n      dup2\n      dup2\n      mstore\n        /* \"BlockChainElection.sol\":6859:6892  Rejected_or_Banned(_candidate_id) */\n      0xfb0048bb5704410776033bb8355286fb6922cc0623412bd454152bac55397f35\n      swap1\n        /* \"#utility.yul\":5308:5310   */\n      0x20\n        /* \"#utility.yul\":5293:5311   */\n      add\n        /* \"BlockChainElection.sol\":6859:6892  Rejected_or_Banned(_candidate_id) */\n      tag_102\n        /* \"#utility.yul\":5174:5351   */\n      jump\n        /* \"BlockChainElection.sol\":6678:6995  if(candidateEligible[_candidate_id].candiate_eligible){... */\n    tag_264:\n        /* \"BlockChainElection.sol\":6923:6983  revert(\"The candidate has already been declined or banned.\") */\n      mload(0x40)\n      shl(0xe5, 0x461bcd)\n      dup2\n      mstore\n        /* \"#utility.yul\":19458:19460   */\n      0x20\n        /* \"BlockChainElection.sol\":6923:6983  revert(\"The candidate has already been declined or banned.\") */\n      0x04\n      dup3\n      add\n        /* \"#utility.yul\":19440:19461   */\n      mstore\n        /* \"#utility.yul\":19497:19499   */\n      0x32\n        /* \"#utility.yul\":19477:19495   */\n      0x24\n      dup3\n      add\n        /* \"#utility.yul\":19470:19500   */\n      mstore\n        /* \"#utility.yul\":19536:19570   */\n      0x5468652063616e6469646174652068617320616c7265616479206265656e2064\n        /* \"#utility.yul\":19516:19534   */\n      0x44\n      dup3\n      add\n        /* \"#utility.yul\":19509:19571   */\n      mstore\n      shl(0x71, 0x32b1b634b732b21037b9103130b73732b217)\n        /* \"#utility.yul\":19587:19605   */\n      0x64\n      dup3\n      add\n        /* \"#utility.yul\":19580:19628   */\n      mstore\n        /* \"#utility.yul\":19645:19664   */\n      0x84\n      add\n        /* \"BlockChainElection.sol\":6923:6983  revert(\"The candidate has already been declined or banned.\") */\n      tag_96\n        /* \"#utility.yul\":19256:19670   */\n      jump\n        /* \"BlockChainElection.sol\":9381:10237  function get_election_result() public view returns (string memory, uint, uint){... */\n    tag_77:\n        /* \"BlockChainElection.sol\":9433:9446  string memory */\n      0x60\n        /* \"BlockChainElection.sol\":9448:9452  uint */\n      0x00\n        /* \"BlockChainElection.sol\":9454:9458  uint */\n      dup1\n        /* \"BlockChainElection.sol\":9478:9492  election_ended */\n      0x06\n      0x01\n      swap1\n      sload\n      swap1\n      0x0100\n      exp\n      swap1\n      div\n      0xff\n      and\n        /* \"BlockChainElection.sol\":9470:9539  require(election_ended, \"You cannot view the results at the moment.\") */\n      tag_272\n      jumpi\n      mload(0x40)\n      shl(0xe5, 0x461bcd)\n      dup2\n      mstore\n      0x04\n      add\n      tag_96\n      swap1\n      tag_259\n      jump\t// in\n    tag_272:\n        /* \"BlockChainElection.sol\":9574:9575  1 */\n      0x01\n        /* \"BlockChainElection.sol\":9550:9563  uint max_vote */\n      0x00\n        /* \"BlockChainElection.sol\":9566:9576  results[1] */\n      swap1\n      dup2\n      mstore\n        /* \"BlockChainElection.sol\":9566:9587  results[1].vote_count */\n      sload(0xd421a5181c571bba3f01190c922c3b2a896fc1d84e86c9f17ac10e67ebef8b5d)\n        /* \"BlockChainElection.sol\":9639:9648  candidate */\n      0x09\n        /* \"BlockChainElection.sol\":9566:9576  results[1] */\n      0x20\n        /* \"BlockChainElection.sol\":9639:9651  candidate[1] */\n      mstore\n      0x92e85d02570a8092d09a6e3a57665bc3815a2699a4074001bf1ccabf660f5a36\n        /* \"BlockChainElection.sol\":9639:9664  candidate[1].candidate_id */\n      sload\n        /* \"BlockChainElection.sol\":9566:9587  results[1].vote_count */\n      swap1\n      swap2\n        /* \"BlockChainElection.sol\":9550:9563  uint max_vote */\n      swap1\n        /* \"BlockChainElection.sol\":9688:9689  2 */\n      0x02\n        /* \"BlockChainElection.sol\":9675:9988  for(uint i = 2; i <= active_candidates; i++){... */\n    tag_274:\n        /* \"BlockChainElection.sol\":9696:9713  active_candidates */\n      sload(0x01)\n        /* \"BlockChainElection.sol\":9691:9692  i */\n      dup2\n        /* \"BlockChainElection.sol\":9691:9713  i <= active_candidates */\n      gt\n        /* \"BlockChainElection.sol\":9675:9988  for(uint i = 2; i <= active_candidates; i++){... */\n      tag_275\n      jumpi\n        /* \"BlockChainElection.sol\":9737:9747  results[i] */\n      0x00\n      dup2\n      dup2\n      mstore\n        /* \"BlockChainElection.sol\":9737:9744  results */\n      0x0c\n        /* \"BlockChainElection.sol\":9737:9747  results[i] */\n      0x20\n      mstore\n      0x40\n      swap1\n      keccak256\n        /* \"BlockChainElection.sol\":9737:9758  results[i].vote_count */\n      0x01\n      add\n      sload\n        /* \"BlockChainElection.sol\":9737:9769  results[i].vote_count > max_vote */\n      dup5\n      lt\n        /* \"BlockChainElection.sol\":9734:9977  if(results[i].vote_count > max_vote){... */\n      iszero\n      tag_277\n      jumpi\n        /* \"BlockChainElection.sol\":9800:9810  results[i] */\n      0x00\n      dup2\n      dup2\n      mstore\n        /* \"BlockChainElection.sol\":9800:9807  results */\n      0x0c\n        /* \"BlockChainElection.sol\":9800:9810  results[i] */\n      0x20\n      swap1\n      dup2\n      mstore\n      0x40\n      dup1\n      dup4\n      keccak256\n        /* \"BlockChainElection.sol\":9800:9821  results[i].vote_count */\n      0x01\n      add\n      sload\n        /* \"BlockChainElection.sol\":9849:9858  candidate */\n      0x09\n        /* \"BlockChainElection.sol\":9849:9861  candidate[i] */\n      swap1\n      swap3\n      mstore\n      swap1\n      swap2\n      keccak256\n        /* \"BlockChainElection.sol\":9849:9874  candidate[i].candidate_id */\n      sload\n        /* \"BlockChainElection.sol\":9800:9821  results[i].vote_count */\n      swap1\n      swap5\n      pop\n        /* \"BlockChainElection.sol\":9849:9874  candidate[i].candidate_id */\n      swap2\n      pop\n        /* \"BlockChainElection.sol\":9734:9977  if(results[i].vote_count > max_vote){... */\n      jump(tag_279)\n    tag_277:\n        /* \"BlockChainElection.sol\":9898:9908  results[i] */\n      0x00\n      dup2\n      dup2\n      mstore\n        /* \"BlockChainElection.sol\":9898:9905  results */\n      0x0c\n        /* \"BlockChainElection.sol\":9898:9908  results[i] */\n      0x20\n      mstore\n      0x40\n      swap1\n      keccak256\n        /* \"BlockChainElection.sol\":9898:9919  results[i].vote_count */\n      0x01\n      add\n      sload\n        /* \"BlockChainElection.sol\":9898:9931  results[i].vote_count == max_vote */\n      dup5\n      swap1\n      sub\n        /* \"BlockChainElection.sol\":9895:9977  if(results[i].vote_count == max_vote){... */\n      tag_279\n      jumpi\n        /* \"BlockChainElection.sol\":9960:9961  i */\n      dup1\n        /* \"BlockChainElection.sol\":9951:9961  tie_id = i */\n      swap3\n      pop\n        /* \"BlockChainElection.sol\":9895:9977  if(results[i].vote_count == max_vote){... */\n    tag_279:\n        /* \"BlockChainElection.sol\":9715:9718  i++ */\n      dup1\n      tag_280\n      dup2\n      tag_101\n      jump\t// in\n    tag_280:\n      swap2\n      pop\n      pop\n        /* \"BlockChainElection.sol\":9675:9988  for(uint i = 2; i <= active_candidates; i++){... */\n      jump(tag_274)\n    tag_275:\n      pop\n        /* \"BlockChainElection.sol\":10001:10007  tie_id */\n      dup2\n        /* \"BlockChainElection.sol\":10011:10012  0 */\n      0x00\n        /* \"BlockChainElection.sol\":10001:10012  tie_id == 0 */\n      sub\n        /* \"BlockChainElection.sol\":9998:10230  if(tie_id == 0){... */\n      tag_281\n      jumpi\n        /* \"BlockChainElection.sol\":10077:10090  candidateList */\n      0x10\n        /* \"BlockChainElection.sol\":10091:10097  winner */\n      dup2\n        /* \"BlockChainElection.sol\":10077:10098  candidateList[winner] */\n      dup2\n      sload\n      dup2\n      lt\n      tag_283\n      jumpi\n      tag_283\n      tag_121\n      jump\t// in\n    tag_283:\n      swap1\n      0x00\n      mstore\n      keccak256(0x00, 0x20)\n      swap1\n      0x05\n      mul\n      add\n        /* \"BlockChainElection.sol\":10077:10113  candidateList[winner].candidate_name */\n      0x01\n      add\n        /* \"BlockChainElection.sol\":10042:10114  abi.encodePacked(\"The winner is \", candidateList[winner].candidate_name) */\n      add(0x20, mload(0x40))\n      tag_285\n      swap2\n      swap1\n      tag_286\n      jump\t// in\n    tag_285:\n      0x40\n      dup1\n      mload\n      not(0x1f)\n      dup2\n      dup5\n      sub\n      add\n      dup2\n      mstore\n      swap2\n      swap1\n      mstore\n      swap7\n        /* \"BlockChainElection.sol\":10117:10123  winner */\n      swap1\n      swap6\n      pop\n        /* \"BlockChainElection.sol\":10125:10133  max_vote */\n      swap2\n      swap4\n      pop\n        /* \"BlockChainElection.sol\":9381:10237  function get_election_result() public view returns (string memory, uint, uint){... */\n      swap1\n      swap2\n      pop\n      pop\n      jump\t// out\n        /* \"BlockChainElection.sol\":9998:10230  if(tie_id == 0){... */\n    tag_281:\n        /* \"BlockChainElection.sol\":10165:10218  return (\"The result is Tie Between\" ,winner,  tie_id) */\n      0x40\n      dup1\n      mload\n      dup1\n      dup3\n      add\n      swap1\n      swap2\n      mstore\n      0x19\n      dup2\n      mstore\n      0x54686520726573756c7420697320546965204265747765656e00000000000000\n      0x20\n      dup3\n      add\n      mstore\n      swap7\n        /* \"BlockChainElection.sol\":10202:10208  winner */\n      swap1\n      swap6\n      pop\n        /* \"BlockChainElection.sol\":10211:10217  tie_id */\n      swap1\n      swap4\n      pop\n        /* \"BlockChainElection.sol\":9381:10237  function get_election_result() public view returns (string memory, uint, uint){... */\n      swap2\n      pop\n      pop\n      jump\t// out\n        /* \"BlockChainElection.sol\":9259:9373  function get_candidate_list() public view returns (Candidate_List[] memory){... */\n    tag_81:\n        /* \"BlockChainElection.sol\":9310:9333  Candidate_List[] memory */\n      0x60\n        /* \"BlockChainElection.sol\":9352:9365  candidateList */\n      0x10\n        /* \"BlockChainElection.sol\":9345:9365  return candidateList */\n      dup1\n      sload\n      dup1\n      0x20\n      mul\n      0x20\n      add\n      mload(0x40)\n      swap1\n      dup2\n      add\n      0x40\n      mstore\n      dup1\n      swap3\n      swap2\n      swap1\n      dup2\n      dup2\n      mstore\n      0x20\n      add\n      0x00\n      swap1\n    tag_289:\n      dup3\n      dup3\n      lt\n      iszero\n      tag_290\n      jumpi\n      dup4\n      dup3\n      swap1\n      0x00\n      mstore\n      keccak256(0x00, 0x20)\n      swap1\n      0x05\n      mul\n      add\n      mload(0x40)\n      dup1\n      0xa0\n      add\n      0x40\n      mstore\n      swap1\n      dup2\n      0x00\n      dup3\n      add\n      sload\n      dup2\n      mstore\n      0x20\n      add\n      0x01\n      dup3\n      add\n      dup1\n      sload\n      tag_292\n      swap1\n      tag_210\n      jump\t// in\n    tag_292:\n      dup1\n      0x1f\n      add\n      0x20\n      dup1\n      swap2\n      div\n      mul\n      0x20\n      add\n      mload(0x40)\n      swap1\n      dup2\n      add\n      0x40\n      mstore\n      dup1\n      swap3\n      swap2\n      swap1\n      dup2\n      dup2\n      mstore\n      0x20\n      add\n      dup3\n      dup1\n      sload\n      tag_293\n      swap1\n      tag_210\n      jump\t// in\n    tag_293:\n      dup1\n      iszero\n      tag_294\n      jumpi\n      dup1\n      0x1f\n      lt\n      tag_295\n      jumpi\n      0x0100\n      dup1\n      dup4\n      sload\n      div\n      mul\n      dup4\n      mstore\n      swap2\n      0x20\n      add\n      swap2\n      jump(tag_294)\n    tag_295:\n      dup3\n      add\n      swap2\n      swap1\n      0x00\n      mstore\n      keccak256(0x00, 0x20)\n      swap1\n    tag_296:\n      dup2\n      sload\n      dup2\n      mstore\n      swap1\n      0x01\n      add\n      swap1\n      0x20\n      add\n      dup1\n      dup4\n      gt\n      tag_296\n      jumpi\n      dup3\n      swap1\n      sub\n      0x1f\n      and\n      dup3\n      add\n      swap2\n    tag_294:\n      pop\n      pop\n      pop\n      pop\n      pop\n      dup2\n      mstore\n      0x20\n      add\n      0x02\n      dup3\n      add\n      dup1\n      sload\n      tag_297\n      swap1\n      tag_210\n      jump\t// in\n    tag_297:\n      dup1\n      0x1f\n      add\n      0x20\n      dup1\n      swap2\n      div\n      mul\n      0x20\n      add\n      mload(0x40)\n      swap1\n      dup2\n      add\n      0x40\n      mstore\n      dup1\n      swap3\n      swap2\n      swap1\n      dup2\n      dup2\n      mstore\n      0x20\n      add\n      dup3\n      dup1\n      sload\n      tag_298\n      swap1\n      tag_210\n      jump\t// in\n    tag_298:\n      dup1\n      iszero\n      tag_299\n      jumpi\n      dup1\n      0x1f\n      lt\n      tag_300\n      jumpi\n      0x0100\n      dup1\n      dup4\n      sload\n      div\n      mul\n      dup4\n      mstore\n      swap2\n      0x20\n      add\n      swap2\n      jump(tag_299)\n    tag_300:\n      dup3\n      add\n      swap2\n      swap1\n      0x00\n      mstore\n      keccak256(0x00, 0x20)\n      swap1\n    tag_301:\n      dup2\n      sload\n      dup2\n      mstore\n      swap1\n      0x01\n      add\n      swap1\n      0x20\n      add\n      dup1\n      dup4\n      gt\n      tag_301\n      jumpi\n      dup3\n      swap1\n      sub\n      0x1f\n      and\n      dup3\n      add\n      swap2\n    tag_299:\n      pop\n      pop\n      pop\n      pop\n      pop\n      dup2\n      mstore\n      0x20\n      add\n      0x03\n      dup3\n      add\n      dup1\n      sload\n      tag_302\n      swap1\n      tag_210\n      jump\t// in\n    tag_302:\n      dup1\n      0x1f\n      add\n      0x20\n      dup1\n      swap2\n      div\n      mul\n      0x20\n      add\n      mload(0x40)\n      swap1\n      dup2\n      add\n      0x40\n      mstore\n      dup1\n      swap3\n      swap2\n      swap1\n      dup2\n      dup2\n      mstore\n      0x20\n      add\n      dup3\n      dup1\n      sload\n      tag_303\n      swap1\n      tag_210\n      jump\t// in\n    tag_303:\n      dup1\n      iszero\n      tag_304\n      jumpi\n      dup1\n      0x1f\n      lt\n      tag_305\n      jumpi\n      0x0100\n      dup1\n      dup4\n      sload\n      div\n      mul\n      dup4\n      mstore\n      swap2\n      0x20\n      add\n      swap2\n      jump(tag_304)\n    tag_305:\n      dup3\n      add\n      swap2\n      swap1\n      0x00\n      mstore\n      keccak256(0x00, 0x20)\n      swap1\n    tag_306:\n      dup2\n      sload\n      dup2\n      mstore\n      swap1\n      0x01\n      add\n      swap1\n      0x20\n      add\n      dup1\n      dup4\n      gt\n      tag_306\n      jumpi\n      dup3\n      swap1\n      sub\n      0x1f\n      and\n      dup3\n      add\n      swap2\n    tag_304:\n      pop\n      pop\n      pop\n      pop\n      pop\n      dup2\n      mstore\n      0x20\n      add\n      0x04\n      dup3\n      add\n      dup1\n      sload\n      tag_307\n      swap1\n      tag_210\n      jump\t// in\n    tag_307:\n      dup1\n      0x1f\n      add\n      0x20\n      dup1\n      swap2\n      div\n      mul\n      0x20\n      add\n      mload(0x40)\n      swap1\n      dup2\n      add\n      0x40\n      mstore\n      dup1\n      swap3\n      swap2\n      swap1\n      dup2\n      dup2\n      mstore\n      0x20\n      add\n      dup3\n      dup1\n      sload\n      tag_308\n      swap1\n      tag_210\n      jump\t// in\n    tag_308:\n      dup1\n      iszero\n      tag_309\n      jumpi\n      dup1\n      0x1f\n      lt\n      tag_310\n      jumpi\n      0x0100\n      dup1\n      dup4\n      sload\n      div\n      mul\n      dup4\n      mstore\n      swap2\n      0x20\n      add\n      swap2\n      jump(tag_309)\n    tag_310:\n      dup3\n      add\n      swap2\n      swap1\n      0x00\n      mstore\n      keccak256(0x00, 0x20)\n      swap1\n    tag_311:\n      dup2\n      sload\n      dup2\n      mstore\n      swap1\n      0x01\n      add\n      swap1\n      0x20\n      add\n      dup1\n      dup4\n      gt\n      tag_311\n      jumpi\n      dup3\n      swap1\n      sub\n      0x1f\n      and\n      dup3\n      add\n      swap2\n    tag_309:\n      pop\n      pop\n      pop\n      pop\n      pop\n      dup2\n      mstore\n      pop\n      pop\n      dup2\n      mstore\n      0x20\n      add\n      swap1\n      0x01\n      add\n      swap1\n      jump(tag_289)\n    tag_290:\n      pop\n      pop\n      pop\n      pop\n      swap1\n      pop\n        /* \"BlockChainElection.sol\":9259:9373  function get_candidate_list() public view returns (Candidate_List[] memory){... */\n      swap1\n      jump\t// out\n        /* \"BlockChainElection.sol\":4994:5375  function reject_or_ban_voter(uint _voter_id) public onlyElectionCommission{... */\n    tag_86:\n        /* \"BlockChainElection.sol\":2329:2348  election_commission */\n      and(sub(shl(0xa0, 0x01), 0x01), sload(0x02))\n        /* \"BlockChainElection.sol\":2315:2325  msg.sender */\n      caller\n        /* \"BlockChainElection.sol\":2315:2348  msg.sender == election_commission */\n      eq\n        /* \"BlockChainElection.sol\":2307:2372  require(msg.sender == election_commission, \"Unauthorized access\") */\n      tag_313\n      jumpi\n      mload(0x40)\n      shl(0xe5, 0x461bcd)\n      dup2\n      mstore\n      0x04\n      add\n      tag_96\n      swap1\n      tag_97\n      jump\t// in\n    tag_313:\n        /* \"BlockChainElection.sol\":5082:5106  voterEligible[_voter_id] */\n      0x00\n      dup2\n      dup2\n      mstore\n        /* \"BlockChainElection.sol\":5082:5095  voterEligible */\n      0x0d\n        /* \"BlockChainElection.sol\":5082:5106  voterEligible[_voter_id] */\n      0x20\n      mstore\n      0x40\n      swap1\n      keccak256\n        /* \"BlockChainElection.sol\":5082:5121  voterEligible[_voter_id].voter_eligible */\n      sload\n      0xff\n      and\n        /* \"BlockChainElection.sol\":5079:5368  if(voterEligible[_voter_id].voter_eligible){... */\n      iszero\n      tag_316\n      jumpi\n        /* \"BlockChainElection.sol\":5179:5184  false */\n      0x00\n        /* \"BlockChainElection.sol\":5137:5161  voterEligible[_voter_id] */\n      dup2\n      dup2\n      mstore\n        /* \"BlockChainElection.sol\":5137:5150  voterEligible */\n      0x0d\n        /* \"BlockChainElection.sol\":5137:5161  voterEligible[_voter_id] */\n      0x20\n      mstore\n      0x40\n      dup2\n      keccak256\n        /* \"BlockChainElection.sol\":5137:5184  voterEligible[_voter_id].voter_eligible = false */\n      dup1\n      sload\n      not(0xff)\n      and\n      swap1\n      sstore\n        /* \"BlockChainElection.sol\":5199:5220  total_active_voters-- */\n      dup1\n      sload\n      swap1\n        /* \"BlockChainElection.sol\":5179:5184  false */\n      dup1\n        /* \"BlockChainElection.sol\":5199:5220  total_active_voters-- */\n      tag_265\n      dup4\n      tag_266\n      jump\t// in\n        /* \"BlockChainElection.sol\":5079:5368  if(voterEligible[_voter_id].voter_eligible){... */\n    tag_316:\n        /* \"BlockChainElection.sol\":5300:5356  revert(\"The voter has already been declined or banned.\") */\n      mload(0x40)\n      shl(0xe5, 0x461bcd)\n      dup2\n      mstore\n        /* \"#utility.yul\":20920:20922   */\n      0x20\n        /* \"BlockChainElection.sol\":5300:5356  revert(\"The voter has already been declined or banned.\") */\n      0x04\n      dup3\n      add\n        /* \"#utility.yul\":20902:20923   */\n      mstore\n        /* \"#utility.yul\":20959:20961   */\n      0x2e\n        /* \"#utility.yul\":20939:20957   */\n      0x24\n      dup3\n      add\n        /* \"#utility.yul\":20932:20962   */\n      mstore\n        /* \"#utility.yul\":20998:21032   */\n      0x54686520766f7465722068617320616c7265616479206265656e206465636c69\n        /* \"#utility.yul\":20978:20996   */\n      0x44\n      dup3\n      add\n        /* \"#utility.yul\":20971:21033   */\n      mstore\n      shl(0x91, 0x3732b21037b9103130b73732b217)\n        /* \"#utility.yul\":21049:21067   */\n      0x64\n      dup3\n      add\n        /* \"#utility.yul\":21042:21086   */\n      mstore\n        /* \"#utility.yul\":21103:21122   */\n      0x84\n      add\n        /* \"BlockChainElection.sol\":5300:5356  revert(\"The voter has already been declined or banned.\") */\n      tag_96\n        /* \"#utility.yul\":20718:21128   */\n      jump\n        /* \"BlockChainElection.sol\":8975:9100  function get_voter_detail(uint _voter_id) public view returns (Voters_List memory){... */\n    tag_89:\n        /* \"BlockChainElection.sol\":9038:9056  Voters_List memory */\n      tag_322\n      mload(0x40)\n      dup1\n      0xa0\n      add\n      0x40\n      mstore\n      dup1\n      0x00\n      dup2\n      mstore\n      0x20\n      add\n      0x60\n      dup2\n      mstore\n      0x20\n      add\n      0x60\n      dup2\n      mstore\n      0x20\n      add\n      and(0xff, 0x00)\n      dup2\n      mstore\n      0x20\n      add\n      0x60\n      dup2\n      mstore\n      pop\n      swap1\n      jump\n    tag_322:\n        /* \"BlockChainElection.sol\":9075:9081  voters */\n      0x07\n        /* \"BlockChainElection.sol\":9075:9092  voters[_voter_id] */\n      0x00\n        /* \"BlockChainElection.sol\":9082:9091  _voter_id */\n      dup4\n        /* \"BlockChainElection.sol\":9075:9092  voters[_voter_id] */\n      dup2\n      mstore\n      0x20\n      add\n      swap1\n      dup2\n      mstore\n      0x20\n      add\n      0x00\n      keccak256\n        /* \"BlockChainElection.sol\":9068:9092  return voters[_voter_id] */\n      mload(0x40)\n      dup1\n      0xa0\n      add\n      0x40\n      mstore\n      swap1\n      dup2\n      0x00\n      dup3\n      add\n      sload\n      dup2\n      mstore\n      0x20\n      add\n      0x01\n      dup3\n      add\n      dup1\n      sload\n      tag_325\n      swap1\n      tag_210\n      jump\t// in\n    tag_325:\n      dup1\n      0x1f\n      add\n      0x20\n      dup1\n      swap2\n      div\n      mul\n      0x20\n      add\n      mload(0x40)\n      swap1\n      dup2\n      add\n      0x40\n      mstore\n      dup1\n      swap3\n      swap2\n      swap1\n      dup2\n      dup2\n      mstore\n      0x20\n      add\n      dup3\n      dup1\n      sload\n      tag_326\n      swap1\n      tag_210\n      jump\t// in\n    tag_326:\n      dup1\n      iszero\n      tag_327\n      jumpi\n      dup1\n      0x1f\n      lt\n      tag_328\n      jumpi\n      0x0100\n      dup1\n      dup4\n      sload\n      div\n      mul\n      dup4\n      mstore\n      swap2\n      0x20\n      add\n      swap2\n      jump(tag_327)\n    tag_328:\n      dup3\n      add\n      swap2\n      swap1\n      0x00\n      mstore\n      keccak256(0x00, 0x20)\n      swap1\n    tag_329:\n      dup2\n      sload\n      dup2\n      mstore\n      swap1\n      0x01\n      add\n      swap1\n      0x20\n      add\n      dup1\n      dup4\n      gt\n      tag_329\n      jumpi\n      dup3\n      swap1\n      sub\n      0x1f\n      and\n      dup3\n      add\n      swap2\n    tag_327:\n      pop\n      pop\n      pop\n      pop\n      pop\n      dup2\n      mstore\n      0x20\n      add\n      0x02\n      dup3\n      add\n      dup1\n      sload\n      tag_330\n      swap1\n      tag_210\n      jump\t// in\n    tag_330:\n      dup1\n      0x1f\n      add\n      0x20\n      dup1\n      swap2\n      div\n      mul\n      0x20\n      add\n      mload(0x40)\n      swap1\n      dup2\n      add\n      0x40\n      mstore\n      dup1\n      swap3\n      swap2\n      swap1\n      dup2\n      dup2\n      mstore\n      0x20\n      add\n      dup3\n      dup1\n      sload\n      tag_331\n      swap1\n      tag_210\n      jump\t// in\n    tag_331:\n      dup1\n      iszero\n      tag_332\n      jumpi\n      dup1\n      0x1f\n      lt\n      tag_333\n      jumpi\n      0x0100\n      dup1\n      dup4\n      sload\n      div\n      mul\n      dup4\n      mstore\n      swap2\n      0x20\n      add\n      swap2\n      jump(tag_332)\n    tag_333:\n      dup3\n      add\n      swap2\n      swap1\n      0x00\n      mstore\n      keccak256(0x00, 0x20)\n      swap1\n    tag_334:\n      dup2\n      sload\n      dup2\n      mstore\n      swap1\n      0x01\n      add\n      swap1\n      0x20\n      add\n      dup1\n      dup4\n      gt\n      tag_334\n      jumpi\n      dup3\n      swap1\n      sub\n      0x1f\n      and\n      dup3\n      add\n      swap2\n    tag_332:\n      pop\n      pop\n      pop\n      swap2\n      dup4\n      mstore\n      pop\n      pop\n      0x03\n      dup3\n      add\n      sload\n      0xff\n      and\n      0x20\n      dup3\n      add\n      mstore\n      0x04\n      dup3\n      add\n      dup1\n      sload\n      0x40\n      swap1\n      swap3\n      add\n      swap2\n      tag_225\n      swap1\n      tag_210\n      jump\t// in\n        /* \"#utility.yul\":14:194   */\n    tag_26:\n        /* \"#utility.yul\":73:79   */\n      0x00\n        /* \"#utility.yul\":126:128   */\n      0x20\n        /* \"#utility.yul\":114:123   */\n      dup3\n        /* \"#utility.yul\":105:112   */\n      dup5\n        /* \"#utility.yul\":101:124   */\n      sub\n        /* \"#utility.yul\":97:129   */\n      slt\n        /* \"#utility.yul\":94:146   */\n      iszero\n      tag_350\n      jumpi\n        /* \"#utility.yul\":142:143   */\n      0x00\n        /* \"#utility.yul\":139:140   */\n      dup1\n        /* \"#utility.yul\":132:144   */\n      revert\n        /* \"#utility.yul\":94:146   */\n    tag_350:\n      pop\n        /* \"#utility.yul\":165:188   */\n      calldataload\n      swap2\n        /* \"#utility.yul\":14:194   */\n      swap1\n      pop\n      jump\t// out\n        /* \"#utility.yul\":391:639   */\n    tag_39:\n        /* \"#utility.yul\":459:465   */\n      0x00\n        /* \"#utility.yul\":467:473   */\n      dup1\n        /* \"#utility.yul\":520:522   */\n      0x40\n        /* \"#utility.yul\":508:517   */\n      dup4\n        /* \"#utility.yul\":499:506   */\n      dup6\n        /* \"#utility.yul\":495:518   */\n      sub\n        /* \"#utility.yul\":491:523   */\n      slt\n        /* \"#utility.yul\":488:540   */\n      iszero\n      tag_353\n      jumpi\n        /* \"#utility.yul\":536:537   */\n      0x00\n        /* \"#utility.yul\":533:534   */\n      dup1\n        /* \"#utility.yul\":526:538   */\n      revert\n        /* \"#utility.yul\":488:540   */\n    tag_353:\n      pop\n      pop\n        /* \"#utility.yul\":559:582   */\n      dup1\n      calldataload\n      swap3\n        /* \"#utility.yul\":629:631   */\n      0x20\n        /* \"#utility.yul\":614:632   */\n      swap1\n      swap2\n      add\n        /* \"#utility.yul\":601:633   */\n      calldataload\n      swap2\n      pop\n        /* \"#utility.yul\":391:639   */\n      jump\t// out\n        /* \"#utility.yul\":644:771   */\n    tag_340:\n        /* \"#utility.yul\":705:715   */\n      0x4e487b71\n        /* \"#utility.yul\":700:703   */\n      0xe0\n        /* \"#utility.yul\":696:716   */\n      shl\n        /* \"#utility.yul\":693:694   */\n      0x00\n        /* \"#utility.yul\":686:717   */\n      mstore\n        /* \"#utility.yul\":736:740   */\n      0x41\n        /* \"#utility.yul\":733:734   */\n      0x04\n        /* \"#utility.yul\":726:741   */\n      mstore\n        /* \"#utility.yul\":760:764   */\n      0x24\n        /* \"#utility.yul\":757:758   */\n      0x00\n        /* \"#utility.yul\":750:765   */\n      revert\n        /* \"#utility.yul\":776:1495   */\n    tag_341:\n        /* \"#utility.yul\":819:824   */\n      0x00\n        /* \"#utility.yul\":872:875   */\n      dup3\n        /* \"#utility.yul\":865:869   */\n      0x1f\n        /* \"#utility.yul\":857:863   */\n      dup4\n        /* \"#utility.yul\":853:870   */\n      add\n        /* \"#utility.yul\":849:876   */\n      slt\n        /* \"#utility.yul\":839:894   */\n      tag_356\n      jumpi\n        /* \"#utility.yul\":890:891   */\n      0x00\n        /* \"#utility.yul\":887:888   */\n      dup1\n        /* \"#utility.yul\":880:892   */\n      revert\n        /* \"#utility.yul\":839:894   */\n    tag_356:\n        /* \"#utility.yul\":926:932   */\n      dup2\n        /* \"#utility.yul\":913:933   */\n      calldataload\n        /* \"#utility.yul\":952:970   */\n      0xffffffffffffffff\n        /* \"#utility.yul\":989:991   */\n      dup1\n        /* \"#utility.yul\":985:987   */\n      dup3\n        /* \"#utility.yul\":982:992   */\n      gt\n        /* \"#utility.yul\":979:1015   */\n      iszero\n      tag_358\n      jumpi\n        /* \"#utility.yul\":995:1013   */\n      tag_358\n      tag_340\n      jump\t// in\n    tag_358:\n        /* \"#utility.yul\":1070:1072   */\n      0x40\n        /* \"#utility.yul\":1064:1073   */\n      mload\n        /* \"#utility.yul\":1038:1040   */\n      0x1f\n        /* \"#utility.yul\":1124:1137   */\n      dup4\n      add\n      not(0x1f)\n        /* \"#utility.yul\":1120:1142   */\n      swap1\n      dup2\n      and\n        /* \"#utility.yul\":1144:1146   */\n      0x3f\n        /* \"#utility.yul\":1116:1147   */\n      add\n        /* \"#utility.yul\":1112:1152   */\n      and\n        /* \"#utility.yul\":1100:1153   */\n      dup2\n      add\n      swap1\n        /* \"#utility.yul\":1168:1186   */\n      dup3\n      dup3\n      gt\n        /* \"#utility.yul\":1188:1210   */\n      dup2\n      dup4\n      lt\n        /* \"#utility.yul\":1165:1211   */\n      or\n        /* \"#utility.yul\":1162:1234   */\n      iszero\n      tag_360\n      jumpi\n        /* \"#utility.yul\":1214:1232   */\n      tag_360\n      tag_340\n      jump\t// in\n    tag_360:\n        /* \"#utility.yul\":1254:1264   */\n      dup2\n        /* \"#utility.yul\":1250:1252   */\n      0x40\n        /* \"#utility.yul\":1243:1265   */\n      mstore\n        /* \"#utility.yul\":1289:1291   */\n      dup4\n        /* \"#utility.yul\":1281:1287   */\n      dup2\n        /* \"#utility.yul\":1274:1292   */\n      mstore\n        /* \"#utility.yul\":1335:1338   */\n      dup7\n        /* \"#utility.yul\":1328:1332   */\n      0x20\n        /* \"#utility.yul\":1323:1325   */\n      dup6\n        /* \"#utility.yul\":1315:1321   */\n      dup9\n        /* \"#utility.yul\":1311:1326   */\n      add\n        /* \"#utility.yul\":1307:1333   */\n      add\n        /* \"#utility.yul\":1304:1339   */\n      gt\n        /* \"#utility.yul\":1301:1356   */\n      iszero\n      tag_361\n      jumpi\n        /* \"#utility.yul\":1352:1353   */\n      0x00\n        /* \"#utility.yul\":1349:1350   */\n      dup1\n        /* \"#utility.yul\":1342:1354   */\n      revert\n        /* \"#utility.yul\":1301:1356   */\n    tag_361:\n        /* \"#utility.yul\":1416:1418   */\n      dup4\n        /* \"#utility.yul\":1409:1413   */\n      0x20\n        /* \"#utility.yul\":1401:1407   */\n      dup8\n        /* \"#utility.yul\":1397:1414   */\n      add\n        /* \"#utility.yul\":1390:1394   */\n      0x20\n        /* \"#utility.yul\":1382:1388   */\n      dup4\n        /* \"#utility.yul\":1378:1395   */\n      add\n        /* \"#utility.yul\":1365:1419   */\n      calldatacopy\n        /* \"#utility.yul\":1463:1464   */\n      0x00\n        /* \"#utility.yul\":1456:1460   */\n      0x20\n        /* \"#utility.yul\":1451:1453   */\n      dup6\n        /* \"#utility.yul\":1443:1449   */\n      dup4\n        /* \"#utility.yul\":1439:1454   */\n      add\n        /* \"#utility.yul\":1435:1461   */\n      add\n        /* \"#utility.yul\":1428:1465   */\n      mstore\n        /* \"#utility.yul\":1483:1489   */\n      dup1\n        /* \"#utility.yul\":1474:1489   */\n      swap5\n      pop\n      pop\n      pop\n      pop\n      pop\n        /* \"#utility.yul\":776:1495   */\n      swap3\n      swap2\n      pop\n      pop\n      jump\t// out\n        /* \"#utility.yul\":1500:2444   */\n    tag_46:\n        /* \"#utility.yul\":1626:1632   */\n      0x00\n        /* \"#utility.yul\":1634:1640   */\n      dup1\n        /* \"#utility.yul\":1642:1648   */\n      0x00\n        /* \"#utility.yul\":1650:1656   */\n      dup1\n        /* \"#utility.yul\":1703:1706   */\n      0x80\n        /* \"#utility.yul\":1691:1700   */\n      dup6\n        /* \"#utility.yul\":1682:1689   */\n      dup8\n        /* \"#utility.yul\":1678:1701   */\n      sub\n        /* \"#utility.yul\":1674:1707   */\n      slt\n        /* \"#utility.yul\":1671:1724   */\n      iszero\n      tag_363\n      jumpi\n        /* \"#utility.yul\":1720:1721   */\n      0x00\n        /* \"#utility.yul\":1717:1718   */\n      dup1\n        /* \"#utility.yul\":1710:1722   */\n      revert\n        /* \"#utility.yul\":1671:1724   */\n    tag_363:\n        /* \"#utility.yul\":1760:1769   */\n      dup5\n        /* \"#utility.yul\":1747:1770   */\n      calldataload\n        /* \"#utility.yul\":1789:1807   */\n      0xffffffffffffffff\n        /* \"#utility.yul\":1830:1832   */\n      dup1\n        /* \"#utility.yul\":1822:1828   */\n      dup3\n        /* \"#utility.yul\":1819:1833   */\n      gt\n        /* \"#utility.yul\":1816:1850   */\n      iszero\n      tag_364\n      jumpi\n        /* \"#utility.yul\":1846:1847   */\n      0x00\n        /* \"#utility.yul\":1843:1844   */\n      dup1\n        /* \"#utility.yul\":1836:1848   */\n      revert\n        /* \"#utility.yul\":1816:1850   */\n    tag_364:\n        /* \"#utility.yul\":1869:1919   */\n      tag_365\n        /* \"#utility.yul\":1911:1918   */\n      dup9\n        /* \"#utility.yul\":1902:1908   */\n      dup4\n        /* \"#utility.yul\":1891:1900   */\n      dup10\n        /* \"#utility.yul\":1887:1909   */\n      add\n        /* \"#utility.yul\":1869:1919   */\n      tag_341\n      jump\t// in\n    tag_365:\n        /* \"#utility.yul\":1859:1919   */\n      swap6\n      pop\n        /* \"#utility.yul\":1972:1974   */\n      0x20\n        /* \"#utility.yul\":1961:1970   */\n      dup8\n        /* \"#utility.yul\":1957:1975   */\n      add\n        /* \"#utility.yul\":1944:1976   */\n      calldataload\n        /* \"#utility.yul\":1928:1976   */\n      swap2\n      pop\n        /* \"#utility.yul\":2001:2003   */\n      dup1\n        /* \"#utility.yul\":1991:1999   */\n      dup3\n        /* \"#utility.yul\":1988:2004   */\n      gt\n        /* \"#utility.yul\":1985:2021   */\n      iszero\n      tag_366\n      jumpi\n        /* \"#utility.yul\":2017:2018   */\n      0x00\n        /* \"#utility.yul\":2014:2015   */\n      dup1\n        /* \"#utility.yul\":2007:2019   */\n      revert\n        /* \"#utility.yul\":1985:2021   */\n    tag_366:\n        /* \"#utility.yul\":2040:2092   */\n      tag_367\n        /* \"#utility.yul\":2084:2091   */\n      dup9\n        /* \"#utility.yul\":2073:2081   */\n      dup4\n        /* \"#utility.yul\":2062:2071   */\n      dup10\n        /* \"#utility.yul\":2058:2082   */\n      add\n        /* \"#utility.yul\":2040:2092   */\n      tag_341\n      jump\t// in\n    tag_367:\n        /* \"#utility.yul\":2030:2092   */\n      swap5\n      pop\n        /* \"#utility.yul\":2145:2147   */\n      0x40\n        /* \"#utility.yul\":2134:2143   */\n      dup8\n        /* \"#utility.yul\":2130:2148   */\n      add\n        /* \"#utility.yul\":2117:2149   */\n      calldataload\n        /* \"#utility.yul\":2101:2149   */\n      swap2\n      pop\n        /* \"#utility.yul\":2174:2176   */\n      dup1\n        /* \"#utility.yul\":2164:2172   */\n      dup3\n        /* \"#utility.yul\":2161:2177   */\n      gt\n        /* \"#utility.yul\":2158:2194   */\n      iszero\n      tag_368\n      jumpi\n        /* \"#utility.yul\":2190:2191   */\n      0x00\n        /* \"#utility.yul\":2187:2188   */\n      dup1\n        /* \"#utility.yul\":2180:2192   */\n      revert\n        /* \"#utility.yul\":2158:2194   */\n    tag_368:\n        /* \"#utility.yul\":2213:2265   */\n      tag_369\n        /* \"#utility.yul\":2257:2264   */\n      dup9\n        /* \"#utility.yul\":2246:2254   */\n      dup4\n        /* \"#utility.yul\":2235:2244   */\n      dup10\n        /* \"#utility.yul\":2231:2255   */\n      add\n        /* \"#utility.yul\":2213:2265   */\n      tag_341\n      jump\t// in\n    tag_369:\n        /* \"#utility.yul\":2203:2265   */\n      swap4\n      pop\n        /* \"#utility.yul\":2318:2320   */\n      0x60\n        /* \"#utility.yul\":2307:2316   */\n      dup8\n        /* \"#utility.yul\":2303:2321   */\n      add\n        /* \"#utility.yul\":2290:2322   */\n      calldataload\n        /* \"#utility.yul\":2274:2322   */\n      swap2\n      pop\n        /* \"#utility.yul\":2347:2349   */\n      dup1\n        /* \"#utility.yul\":2337:2345   */\n      dup3\n        /* \"#utility.yul\":2334:2350   */\n      gt\n        /* \"#utility.yul\":2331:2367   */\n      iszero\n      tag_370\n      jumpi\n        /* \"#utility.yul\":2363:2364   */\n      0x00\n        /* \"#utility.yul\":2360:2361   */\n      dup1\n        /* \"#utility.yul\":2353:2365   */\n      revert\n        /* \"#utility.yul\":2331:2367   */\n    tag_370:\n      pop\n        /* \"#utility.yul\":2386:2438   */\n      tag_371\n        /* \"#utility.yul\":2430:2437   */\n      dup8\n        /* \"#utility.yul\":2419:2427   */\n      dup3\n        /* \"#utility.yul\":2408:2417   */\n      dup9\n        /* \"#utility.yul\":2404:2428   */\n      add\n        /* \"#utility.yul\":2386:2438   */\n      tag_341\n      jump\t// in\n    tag_371:\n        /* \"#utility.yul\":2376:2438   */\n      swap2\n      pop\n      pop\n        /* \"#utility.yul\":1500:2444   */\n      swap3\n      swap6\n      swap2\n      swap5\n      pop\n      swap3\n      pop\n      jump\t// out\n        /* \"#utility.yul\":2449:3350   */\n    tag_52:\n        /* \"#utility.yul\":2563:2569   */\n      0x00\n        /* \"#utility.yul\":2571:2577   */\n      dup1\n        /* \"#utility.yul\":2579:2585   */\n      0x00\n        /* \"#utility.yul\":2587:2593   */\n      dup1\n        /* \"#utility.yul\":2640:2643   */\n      0x80\n        /* \"#utility.yul\":2628:2637   */\n      dup6\n        /* \"#utility.yul\":2619:2626   */\n      dup8\n        /* \"#utility.yul\":2615:2638   */\n      sub\n        /* \"#utility.yul\":2611:2644   */\n      slt\n        /* \"#utility.yul\":2608:2661   */\n      iszero\n      tag_373\n      jumpi\n        /* \"#utility.yul\":2657:2658   */\n      0x00\n        /* \"#utility.yul\":2654:2655   */\n      dup1\n        /* \"#utility.yul\":2647:2659   */\n      revert\n        /* \"#utility.yul\":2608:2661   */\n    tag_373:\n        /* \"#utility.yul\":2697:2706   */\n      dup5\n        /* \"#utility.yul\":2684:2707   */\n      calldataload\n        /* \"#utility.yul\":2726:2744   */\n      0xffffffffffffffff\n        /* \"#utility.yul\":2767:2769   */\n      dup1\n        /* \"#utility.yul\":2759:2765   */\n      dup3\n        /* \"#utility.yul\":2756:2770   */\n      gt\n        /* \"#utility.yul\":2753:2787   */\n      iszero\n      tag_374\n      jumpi\n        /* \"#utility.yul\":2783:2784   */\n      0x00\n        /* \"#utility.yul\":2780:2781   */\n      dup1\n        /* \"#utility.yul\":2773:2785   */\n      revert\n        /* \"#utility.yul\":2753:2787   */\n    tag_374:\n        /* \"#utility.yul\":2806:2856   */\n      tag_375\n        /* \"#utility.yul\":2848:2855   */\n      dup9\n        /* \"#utility.yul\":2839:2845   */\n      dup4\n        /* \"#utility.yul\":2828:2837   */\n      dup10\n        /* \"#utility.yul\":2824:2846   */\n      add\n        /* \"#utility.yul\":2806:2856   */\n      tag_341\n      jump\t// in\n    tag_375:\n        /* \"#utility.yul\":2796:2856   */\n      swap6\n      pop\n        /* \"#utility.yul\":2909:2911   */\n      0x20\n        /* \"#utility.yul\":2898:2907   */\n      dup8\n        /* \"#utility.yul\":2894:2912   */\n      add\n        /* \"#utility.yul\":2881:2913   */\n      calldataload\n        /* \"#utility.yul\":2865:2913   */\n      swap2\n      pop\n        /* \"#utility.yul\":2938:2940   */\n      dup1\n        /* \"#utility.yul\":2928:2936   */\n      dup3\n        /* \"#utility.yul\":2925:2941   */\n      gt\n        /* \"#utility.yul\":2922:2958   */\n      iszero\n      tag_376\n      jumpi\n        /* \"#utility.yul\":2954:2955   */\n      0x00\n        /* \"#utility.yul\":2951:2952   */\n      dup1\n        /* \"#utility.yul\":2944:2956   */\n      revert\n        /* \"#utility.yul\":2922:2958   */\n    tag_376:\n        /* \"#utility.yul\":2977:3029   */\n      tag_377\n        /* \"#utility.yul\":3021:3028   */\n      dup9\n        /* \"#utility.yul\":3010:3018   */\n      dup4\n        /* \"#utility.yul\":2999:3008   */\n      dup10\n        /* \"#utility.yul\":2995:3019   */\n      add\n        /* \"#utility.yul\":2977:3029   */\n      tag_341\n      jump\t// in\n    tag_377:\n        /* \"#utility.yul\":2967:3029   */\n      swap5\n      pop\n        /* \"#utility.yul\":3079:3081   */\n      0x40\n        /* \"#utility.yul\":3068:3077   */\n      dup8\n        /* \"#utility.yul\":3064:3082   */\n      add\n        /* \"#utility.yul\":3051:3083   */\n      calldataload\n        /* \"#utility.yul\":3038:3083   */\n      swap2\n      pop\n        /* \"#utility.yul\":3123:3127   */\n      0xff\n        /* \"#utility.yul\":3116:3121   */\n      dup3\n        /* \"#utility.yul\":3112:3128   */\n      and\n        /* \"#utility.yul\":3105:3110   */\n      dup3\n        /* \"#utility.yul\":3102:3129   */\n      eq\n        /* \"#utility.yul\":3092:3147   */\n      tag_378\n      jumpi\n        /* \"#utility.yul\":3143:3144   */\n      0x00\n        /* \"#utility.yul\":3140:3141   */\n      dup1\n        /* \"#utility.yul\":3133:3145   */\n      revert\n        /* \"#utility.yul\":3092:3147   */\n    tag_378:\n        /* \"#utility.yul\":3166:3171   */\n      swap1\n      swap3\n      pop\n        /* \"#utility.yul\":3224:3226   */\n      0x60\n        /* \"#utility.yul\":3209:3227   */\n      dup7\n      add\n        /* \"#utility.yul\":3196:3228   */\n      calldataload\n      swap1\n        /* \"#utility.yul\":3240:3256   */\n      dup1\n      dup3\n      gt\n        /* \"#utility.yul\":3237:3273   */\n      iszero\n      tag_370\n      jumpi\n        /* \"#utility.yul\":3269:3270   */\n      0x00\n        /* \"#utility.yul\":3266:3267   */\n      dup1\n        /* \"#utility.yul\":3259:3271   */\n      revert\n        /* \"#utility.yul\":3355:3778   */\n    tag_342:\n        /* \"#utility.yul\":3397:3400   */\n      0x00\n        /* \"#utility.yul\":3435:3440   */\n      dup2\n        /* \"#utility.yul\":3429:3441   */\n      mload\n        /* \"#utility.yul\":3462:3468   */\n      dup1\n        /* \"#utility.yul\":3457:3460   */\n      dup5\n        /* \"#utility.yul\":3450:3469   */\n      mstore\n        /* \"#utility.yul\":3487:3488   */\n      0x00\n        /* \"#utility.yul\":3497:3659   */\n    tag_382:\n        /* \"#utility.yul\":3511:3517   */\n      dup2\n        /* \"#utility.yul\":3508:3509   */\n      dup2\n        /* \"#utility.yul\":3505:3518   */\n      lt\n        /* \"#utility.yul\":3497:3659   */\n      iszero\n      tag_384\n      jumpi\n        /* \"#utility.yul\":3573:3577   */\n      0x20\n        /* \"#utility.yul\":3629:3642   */\n      dup2\n      dup6\n      add\n        /* \"#utility.yul\":3625:3647   */\n      dup2\n      add\n        /* \"#utility.yul\":3619:3648   */\n      mload\n        /* \"#utility.yul\":3601:3612   */\n      dup7\n      dup4\n      add\n        /* \"#utility.yul\":3597:3617   */\n      dup3\n      add\n        /* \"#utility.yul\":3590:3649   */\n      mstore\n        /* \"#utility.yul\":3526:3538   */\n      add\n        /* \"#utility.yul\":3497:3659   */\n      jump(tag_382)\n    tag_384:\n        /* \"#utility.yul\":3501:3504   */\n      pop\n        /* \"#utility.yul\":3704:3705   */\n      0x00\n        /* \"#utility.yul\":3697:3701   */\n      0x20\n        /* \"#utility.yul\":3688:3694   */\n      dup3\n        /* \"#utility.yul\":3683:3686   */\n      dup7\n        /* \"#utility.yul\":3679:3695   */\n      add\n        /* \"#utility.yul\":3675:3702   */\n      add\n        /* \"#utility.yul\":3668:3706   */\n      mstore\n        /* \"#utility.yul\":3767:3771   */\n      0x20\n        /* \"#utility.yul\":3760:3762   */\n      0x1f\n        /* \"#utility.yul\":3756:3763   */\n      not\n        /* \"#utility.yul\":3751:3753   */\n      0x1f\n        /* \"#utility.yul\":3743:3749   */\n      dup4\n        /* \"#utility.yul\":3739:3754   */\n      add\n        /* \"#utility.yul\":3735:3764   */\n      and\n        /* \"#utility.yul\":3730:3733   */\n      dup6\n        /* \"#utility.yul\":3726:3765   */\n      add\n        /* \"#utility.yul\":3722:3772   */\n      add\n        /* \"#utility.yul\":3715:3772   */\n      swap2\n      pop\n      pop\n        /* \"#utility.yul\":3355:3778   */\n      swap3\n      swap2\n      pop\n      pop\n      jump\t// out\n        /* \"#utility.yul\":3783:4536   */\n    tag_343:\n        /* \"#utility.yul\":3876:3881   */\n      dup1\n        /* \"#utility.yul\":3870:3882   */\n      mload\n        /* \"#utility.yul\":3865:3868   */\n      dup3\n        /* \"#utility.yul\":3858:3883   */\n      mstore\n        /* \"#utility.yul\":3840:3843   */\n      0x00\n        /* \"#utility.yul\":3929:3933   */\n      0x20\n        /* \"#utility.yul\":3922:3927   */\n      dup3\n        /* \"#utility.yul\":3918:3934   */\n      add\n        /* \"#utility.yul\":3912:3935   */\n      mload\n        /* \"#utility.yul\":3967:3971   */\n      0xa0\n        /* \"#utility.yul\":3960:3964   */\n      0x20\n        /* \"#utility.yul\":3955:3958   */\n      dup6\n        /* \"#utility.yul\":3951:3965   */\n      add\n        /* \"#utility.yul\":3944:3972   */\n      mstore\n        /* \"#utility.yul\":3993:4040   */\n      tag_386\n        /* \"#utility.yul\":4034:4038   */\n      0xa0\n        /* \"#utility.yul\":4029:4032   */\n      dup6\n        /* \"#utility.yul\":4025:4039   */\n      add\n        /* \"#utility.yul\":4011:4023   */\n      dup3\n        /* \"#utility.yul\":3993:4040   */\n      tag_342\n      jump\t// in\n    tag_386:\n        /* \"#utility.yul\":3981:4040   */\n      swap1\n      pop\n        /* \"#utility.yul\":4088:4092   */\n      0x40\n        /* \"#utility.yul\":4081:4086   */\n      dup4\n        /* \"#utility.yul\":4077:4093   */\n      add\n        /* \"#utility.yul\":4071:4094   */\n      mload\n        /* \"#utility.yul\":4136:4139   */\n      dup5\n        /* \"#utility.yul\":4130:4134   */\n      dup3\n        /* \"#utility.yul\":4126:4140   */\n      sub\n        /* \"#utility.yul\":4119:4123   */\n      0x40\n        /* \"#utility.yul\":4114:4117   */\n      dup7\n        /* \"#utility.yul\":4110:4124   */\n      add\n        /* \"#utility.yul\":4103:4141   */\n      mstore\n        /* \"#utility.yul\":4164:4203   */\n      tag_387\n        /* \"#utility.yul\":4198:4202   */\n      dup3\n        /* \"#utility.yul\":4182:4196   */\n      dup3\n        /* \"#utility.yul\":4164:4203   */\n      tag_342\n      jump\t// in\n    tag_387:\n        /* \"#utility.yul\":4150:4203   */\n      swap2\n      pop\n      pop\n        /* \"#utility.yul\":4251:4255   */\n      0x60\n        /* \"#utility.yul\":4244:4249   */\n      dup4\n        /* \"#utility.yul\":4240:4256   */\n      add\n        /* \"#utility.yul\":4234:4257   */\n      mload\n        /* \"#utility.yul\":4301:4304   */\n      dup5\n        /* \"#utility.yul\":4293:4299   */\n      dup3\n        /* \"#utility.yul\":4289:4305   */\n      sub\n        /* \"#utility.yul\":4282:4286   */\n      0x60\n        /* \"#utility.yul\":4277:4280   */\n      dup7\n        /* \"#utility.yul\":4273:4287   */\n      add\n        /* \"#utility.yul\":4266:4306   */\n      mstore\n        /* \"#utility.yul\":4329:4370   */\n      tag_388\n        /* \"#utility.yul\":4363:4369   */\n      dup3\n        /* \"#utility.yul\":4347:4361   */\n      dup3\n        /* \"#utility.yul\":4329:4370   */\n      tag_342\n      jump\t// in\n    tag_388:\n        /* \"#utility.yul\":4315:4370   */\n      swap2\n      pop\n      pop\n        /* \"#utility.yul\":4418:4422   */\n      0x80\n        /* \"#utility.yul\":4411:4416   */\n      dup4\n        /* \"#utility.yul\":4407:4423   */\n      add\n        /* \"#utility.yul\":4401:4424   */\n      mload\n        /* \"#utility.yul\":4468:4471   */\n      dup5\n        /* \"#utility.yul\":4460:4466   */\n      dup3\n        /* \"#utility.yul\":4456:4472   */\n      sub\n        /* \"#utility.yul\":4449:4453   */\n      0x80\n        /* \"#utility.yul\":4444:4447   */\n      dup7\n        /* \"#utility.yul\":4440:4454   */\n      add\n        /* \"#utility.yul\":4433:4473   */\n      mstore\n        /* \"#utility.yul\":4489:4530   */\n      tag_389\n        /* \"#utility.yul\":4523:4529   */\n      dup3\n        /* \"#utility.yul\":4507:4521   */\n      dup3\n        /* \"#utility.yul\":4489:4530   */\n      tag_342\n      jump\t// in\n    tag_389:\n        /* \"#utility.yul\":4482:4530   */\n      swap6\n        /* \"#utility.yul\":3783:4536   */\n      swap5\n      pop\n      pop\n      pop\n      pop\n      pop\n      jump\t// out\n        /* \"#utility.yul\":4541:4816   */\n    tag_60:\n        /* \"#utility.yul\":4730:4732   */\n      0x20\n        /* \"#utility.yul\":4719:4728   */\n      dup2\n        /* \"#utility.yul\":4712:4733   */\n      mstore\n        /* \"#utility.yul\":4693:4697   */\n      0x00\n        /* \"#utility.yul\":4750:4810   */\n      tag_391\n        /* \"#utility.yul\":4806:4808   */\n      0x20\n        /* \"#utility.yul\":4795:4804   */\n      dup4\n        /* \"#utility.yul\":4791:4809   */\n      add\n        /* \"#utility.yul\":4783:4789   */\n      dup5\n        /* \"#utility.yul\":4750:4810   */\n      tag_343\n      jump\t// in\n    tag_391:\n        /* \"#utility.yul\":4742:4810   */\n      swap4\n        /* \"#utility.yul\":4541:4816   */\n      swap3\n      pop\n      pop\n      pop\n      jump\t// out\n        /* \"#utility.yul\":4821:5169   */\n    tag_66:\n        /* \"#utility.yul\":4913:4919   */\n      0x00\n        /* \"#utility.yul\":4921:4927   */\n      dup1\n        /* \"#utility.yul\":4974:4976   */\n      0x40\n        /* \"#utility.yul\":4962:4971   */\n      dup4\n        /* \"#utility.yul\":4953:4960   */\n      dup6\n        /* \"#utility.yul\":4949:4972   */\n      sub\n        /* \"#utility.yul\":4945:4977   */\n      slt\n        /* \"#utility.yul\":4942:4994   */\n      iszero\n      tag_393\n      jumpi\n        /* \"#utility.yul\":4990:4991   */\n      0x00\n        /* \"#utility.yul\":4987:4988   */\n      dup1\n        /* \"#utility.yul\":4980:4992   */\n      revert\n        /* \"#utility.yul\":4942:4994   */\n    tag_393:\n        /* \"#utility.yul\":5026:5035   */\n      dup3\n        /* \"#utility.yul\":5013:5036   */\n      calldataload\n        /* \"#utility.yul\":5003:5036   */\n      swap2\n      pop\n        /* \"#utility.yul\":5086:5088   */\n      0x20\n        /* \"#utility.yul\":5075:5084   */\n      dup4\n        /* \"#utility.yul\":5071:5089   */\n      add\n        /* \"#utility.yul\":5058:5090   */\n      calldataload\n        /* \"#utility.yul\":5119:5120   */\n      0x06\n        /* \"#utility.yul\":5112:5117   */\n      dup2\n        /* \"#utility.yul\":5109:5121   */\n      lt\n        /* \"#utility.yul\":5099:5139   */\n      tag_394\n      jumpi\n        /* \"#utility.yul\":5135:5136   */\n      0x00\n        /* \"#utility.yul\":5132:5133   */\n      dup1\n        /* \"#utility.yul\":5125:5137   */\n      revert\n        /* \"#utility.yul\":5099:5139   */\n    tag_394:\n        /* \"#utility.yul\":5158:5163   */\n      dup1\n        /* \"#utility.yul\":5148:5163   */\n      swap2\n      pop\n      pop\n        /* \"#utility.yul\":4821:5169   */\n      swap3\n      pop\n      swap3\n      swap1\n      pop\n      jump\t// out\n        /* \"#utility.yul\":5356:5718   */\n    tag_79:\n        /* \"#utility.yul\":5561:5563   */\n      0x60\n        /* \"#utility.yul\":5550:5559   */\n      dup2\n        /* \"#utility.yul\":5543:5564   */\n      mstore\n        /* \"#utility.yul\":5524:5528   */\n      0x00\n        /* \"#utility.yul\":5581:5626   */\n      tag_397\n        /* \"#utility.yul\":5622:5624   */\n      0x60\n        /* \"#utility.yul\":5611:5620   */\n      dup4\n        /* \"#utility.yul\":5607:5625   */\n      add\n        /* \"#utility.yul\":5599:5605   */\n      dup7\n        /* \"#utility.yul\":5581:5626   */\n      tag_342\n      jump\t// in\n    tag_397:\n        /* \"#utility.yul\":5657:5659   */\n      0x20\n        /* \"#utility.yul\":5642:5660   */\n      dup4\n      add\n        /* \"#utility.yul\":5635:5669   */\n      swap5\n      swap1\n      swap5\n      mstore\n      pop\n        /* \"#utility.yul\":5700:5702   */\n      0x40\n        /* \"#utility.yul\":5685:5703   */\n      add\n        /* \"#utility.yul\":5678:5712   */\n      mstore\n        /* \"#utility.yul\":5573:5626   */\n      swap2\n        /* \"#utility.yul\":5356:5718   */\n      swap1\n      pop\n      jump\t// out\n        /* \"#utility.yul\":5723:6581   */\n    tag_83:\n        /* \"#utility.yul\":5925:5929   */\n      0x00\n        /* \"#utility.yul\":5954:5956   */\n      0x20\n        /* \"#utility.yul\":5994:5996   */\n      dup1\n        /* \"#utility.yul\":5983:5992   */\n      dup4\n        /* \"#utility.yul\":5979:5997   */\n      add\n        /* \"#utility.yul\":6024:6026   */\n      dup2\n        /* \"#utility.yul\":6013:6022   */\n      dup5\n        /* \"#utility.yul\":6006:6027   */\n      mstore\n        /* \"#utility.yul\":6047:6053   */\n      dup1\n        /* \"#utility.yul\":6082:6088   */\n      dup6\n        /* \"#utility.yul\":6076:6089   */\n      mload\n        /* \"#utility.yul\":6113:6119   */\n      dup1\n        /* \"#utility.yul\":6105:6111   */\n      dup4\n        /* \"#utility.yul\":6098:6120   */\n      mstore\n        /* \"#utility.yul\":6151:6153   */\n      0x40\n        /* \"#utility.yul\":6140:6149   */\n      dup7\n        /* \"#utility.yul\":6136:6154   */\n      add\n        /* \"#utility.yul\":6129:6154   */\n      swap2\n      pop\n        /* \"#utility.yul\":6213:6215   */\n      0x40\n        /* \"#utility.yul\":6203:6209   */\n      dup2\n        /* \"#utility.yul\":6200:6201   */\n      0x05\n        /* \"#utility.yul\":6196:6210   */\n      shl\n        /* \"#utility.yul\":6185:6194   */\n      dup8\n        /* \"#utility.yul\":6181:6211   */\n      add\n        /* \"#utility.yul\":6177:6216   */\n      add\n        /* \"#utility.yul\":6163:6216   */\n      swap3\n      pop\n        /* \"#utility.yul\":6251:6253   */\n      dup4\n        /* \"#utility.yul\":6243:6249   */\n      dup8\n        /* \"#utility.yul\":6239:6254   */\n      add\n        /* \"#utility.yul\":6272:6273   */\n      0x00\n        /* \"#utility.yul\":6282:6552   */\n    tag_399:\n        /* \"#utility.yul\":6296:6302   */\n      dup3\n        /* \"#utility.yul\":6293:6294   */\n      dup2\n        /* \"#utility.yul\":6290:6303   */\n      lt\n        /* \"#utility.yul\":6282:6552   */\n      iszero\n      tag_401\n      jumpi\n        /* \"#utility.yul\":6389:6391   */\n      0x3f\n        /* \"#utility.yul\":6385:6392   */\n      not\n        /* \"#utility.yul\":6373:6382   */\n      dup9\n        /* \"#utility.yul\":6365:6371   */\n      dup7\n        /* \"#utility.yul\":6361:6383   */\n      sub\n        /* \"#utility.yul\":6357:6393   */\n      add\n        /* \"#utility.yul\":6352:6355   */\n      dup5\n        /* \"#utility.yul\":6345:6394   */\n      mstore\n        /* \"#utility.yul\":6417:6472   */\n      tag_402\n        /* \"#utility.yul\":6465:6471   */\n      dup6\n        /* \"#utility.yul\":6456:6462   */\n      dup4\n        /* \"#utility.yul\":6450:6463   */\n      mload\n        /* \"#utility.yul\":6417:6472   */\n      tag_343\n      jump\t// in\n    tag_402:\n        /* \"#utility.yul\":6407:6472   */\n      swap5\n      pop\n        /* \"#utility.yul\":6530:6542   */\n      swap3\n      dup6\n      add\n      swap3\n        /* \"#utility.yul\":6495:6510   */\n      swap1\n      dup6\n      add\n      swap1\n        /* \"#utility.yul\":6318:6319   */\n      0x01\n        /* \"#utility.yul\":6311:6320   */\n      add\n        /* \"#utility.yul\":6282:6552   */\n      jump(tag_399)\n    tag_401:\n      pop\n        /* \"#utility.yul\":6569:6575   */\n      swap3\n      swap8\n        /* \"#utility.yul\":5723:6581   */\n      swap7\n      pop\n      pop\n      pop\n      pop\n      pop\n      pop\n      pop\n      jump\t// out\n        /* \"#utility.yul\":6586:7459   */\n    tag_91:\n        /* \"#utility.yul\":6769:6771   */\n      0x20\n        /* \"#utility.yul\":6758:6767   */\n      dup2\n        /* \"#utility.yul\":6751:6772   */\n      mstore\n        /* \"#utility.yul\":6814:6820   */\n      dup2\n        /* \"#utility.yul\":6808:6821   */\n      mload\n        /* \"#utility.yul\":6803:6805   */\n      0x20\n        /* \"#utility.yul\":6792:6801   */\n      dup3\n        /* \"#utility.yul\":6788:6806   */\n      add\n        /* \"#utility.yul\":6781:6822   */\n      mstore\n        /* \"#utility.yul\":6732:6736   */\n      0x00\n        /* \"#utility.yul\":6869:6871   */\n      0x20\n        /* \"#utility.yul\":6861:6867   */\n      dup4\n        /* \"#utility.yul\":6857:6872   */\n      add\n        /* \"#utility.yul\":6851:6873   */\n      mload\n        /* \"#utility.yul\":6909:6913   */\n      0xa0\n        /* \"#utility.yul\":6904:6906   */\n      0x40\n        /* \"#utility.yul\":6893:6902   */\n      dup5\n        /* \"#utility.yul\":6889:6907   */\n      add\n        /* \"#utility.yul\":6882:6914   */\n      mstore\n        /* \"#utility.yul\":6937:6989   */\n      tag_404\n        /* \"#utility.yul\":6984:6987   */\n      0xc0\n        /* \"#utility.yul\":6973:6982   */\n      dup5\n        /* \"#utility.yul\":6969:6988   */\n      add\n        /* \"#utility.yul\":6955:6967   */\n      dup3\n        /* \"#utility.yul\":6937:6989   */\n      tag_342\n      jump\t// in\n    tag_404:\n        /* \"#utility.yul\":6923:6989   */\n      swap1\n      pop\n        /* \"#utility.yul\":7038:7040   */\n      0x40\n        /* \"#utility.yul\":7030:7036   */\n      dup5\n        /* \"#utility.yul\":7026:7041   */\n      add\n        /* \"#utility.yul\":7020:7042   */\n      mload\n        /* \"#utility.yul\":7065:7067   */\n      0x1f\n        /* \"#utility.yul\":7061:7068   */\n      not\n        /* \"#utility.yul\":7132:7134   */\n      dup1\n        /* \"#utility.yul\":7120:7129   */\n      dup6\n        /* \"#utility.yul\":7112:7118   */\n      dup5\n        /* \"#utility.yul\":7108:7130   */\n      sub\n        /* \"#utility.yul\":7104:7135   */\n      add\n        /* \"#utility.yul\":7099:7101   */\n      0x60\n        /* \"#utility.yul\":7088:7097   */\n      dup7\n        /* \"#utility.yul\":7084:7102   */\n      add\n        /* \"#utility.yul\":7077:7136   */\n      mstore\n        /* \"#utility.yul\":7159:7200   */\n      tag_405\n        /* \"#utility.yul\":7193:7199   */\n      dup4\n        /* \"#utility.yul\":7177:7191   */\n      dup4\n        /* \"#utility.yul\":7159:7200   */\n      tag_342\n      jump\t// in\n    tag_405:\n        /* \"#utility.yul\":7145:7200   */\n      swap3\n      pop\n        /* \"#utility.yul\":7265:7269   */\n      0xff\n        /* \"#utility.yul\":7259:7261   */\n      0x60\n        /* \"#utility.yul\":7251:7257   */\n      dup8\n        /* \"#utility.yul\":7247:7262   */\n      add\n        /* \"#utility.yul\":7241:7263   */\n      mload\n        /* \"#utility.yul\":7237:7270   */\n      and\n        /* \"#utility.yul\":7231:7234   */\n      0x80\n        /* \"#utility.yul\":7220:7229   */\n      dup7\n        /* \"#utility.yul\":7216:7235   */\n      add\n        /* \"#utility.yul\":7209:7271   */\n      mstore\n        /* \"#utility.yul\":7320:7323   */\n      0x80\n        /* \"#utility.yul\":7312:7318   */\n      dup7\n        /* \"#utility.yul\":7308:7324   */\n      add\n        /* \"#utility.yul\":7302:7325   */\n      mload\n        /* \"#utility.yul\":7280:7325   */\n      swap2\n      pop\n        /* \"#utility.yul\":7391:7393   */\n      dup1\n        /* \"#utility.yul\":7379:7388   */\n      dup6\n        /* \"#utility.yul\":7371:7377   */\n      dup5\n        /* \"#utility.yul\":7367:7389   */\n      sub\n        /* \"#utility.yul\":7363:7394   */\n      add\n        /* \"#utility.yul\":7356:7360   */\n      0xa0\n        /* \"#utility.yul\":7345:7354   */\n      dup7\n        /* \"#utility.yul\":7341:7361   */\n      add\n        /* \"#utility.yul\":7334:7395   */\n      mstore\n      pop\n        /* \"#utility.yul\":7412:7453   */\n      tag_389\n        /* \"#utility.yul\":7446:7452   */\n      dup3\n        /* \"#utility.yul\":7430:7444   */\n      dup3\n        /* \"#utility.yul\":7412:7453   */\n      tag_342\n      jump\t// in\n        /* \"#utility.yul\":7464:7807   */\n    tag_97:\n        /* \"#utility.yul\":7666:7668   */\n      0x20\n        /* \"#utility.yul\":7648:7669   */\n      dup1\n      dup3\n      mstore\n        /* \"#utility.yul\":7705:7707   */\n      0x13\n        /* \"#utility.yul\":7685:7703   */\n      swap1\n      dup3\n      add\n        /* \"#utility.yul\":7678:7708   */\n      mstore\n      shl(0x68, 0x556e617574686f72697a656420616363657373)\n        /* \"#utility.yul\":7739:7741   */\n      0x40\n        /* \"#utility.yul\":7724:7742   */\n      dup3\n      add\n        /* \"#utility.yul\":7717:7766   */\n      mstore\n        /* \"#utility.yul\":7798:7800   */\n      0x60\n        /* \"#utility.yul\":7783:7801   */\n      add\n      swap1\n        /* \"#utility.yul\":7464:7807   */\n      jump\t// out\n        /* \"#utility.yul\":7812:7939   */\n    tag_344:\n        /* \"#utility.yul\":7873:7883   */\n      0x4e487b71\n        /* \"#utility.yul\":7868:7871   */\n      0xe0\n        /* \"#utility.yul\":7864:7884   */\n      shl\n        /* \"#utility.yul\":7861:7862   */\n      0x00\n        /* \"#utility.yul\":7854:7885   */\n      mstore\n        /* \"#utility.yul\":7904:7908   */\n      0x11\n        /* \"#utility.yul\":7901:7902   */\n      0x04\n        /* \"#utility.yul\":7894:7909   */\n      mstore\n        /* \"#utility.yul\":7928:7932   */\n      0x24\n        /* \"#utility.yul\":7925:7926   */\n      0x00\n        /* \"#utility.yul\":7918:7933   */\n      revert\n        /* \"#utility.yul\":7944:8079   */\n    tag_101:\n        /* \"#utility.yul\":7983:7986   */\n      0x00\n        /* \"#utility.yul\":8004:8021   */\n      0x01\n      dup3\n      add\n        /* \"#utility.yul\":8001:8044   */\n      tag_411\n      jumpi\n        /* \"#utility.yul\":8024:8042   */\n      tag_411\n      tag_344\n      jump\t// in\n    tag_411:\n      pop\n        /* \"#utility.yul\":8071:8072   */\n      0x01\n        /* \"#utility.yul\":8060:8073   */\n      add\n      swap1\n        /* \"#utility.yul\":7944:8079   */\n      jump\t// out\n        /* \"#utility.yul\":8493:8845   */\n    tag_109:\n        /* \"#utility.yul\":8695:8697   */\n      0x20\n        /* \"#utility.yul\":8677:8698   */\n      dup1\n      dup3\n      mstore\n        /* \"#utility.yul\":8734:8736   */\n      0x1c\n        /* \"#utility.yul\":8714:8732   */\n      swap1\n      dup3\n      add\n        /* \"#utility.yul\":8707:8737   */\n      mstore\n        /* \"#utility.yul\":8773:8803   */\n      0x456c656374696f6e206973206e6f7420696e2070726f67726573732e00000000\n        /* \"#utility.yul\":8768:8770   */\n      0x40\n        /* \"#utility.yul\":8753:8771   */\n      dup3\n      add\n        /* \"#utility.yul\":8746:8804   */\n      mstore\n        /* \"#utility.yul\":8836:8838   */\n      0x60\n        /* \"#utility.yul\":8821:8839   */\n      add\n      swap1\n        /* \"#utility.yul\":8493:8845   */\n      jump\t// out\n        /* \"#utility.yul\":9209:9336   */\n    tag_121:\n        /* \"#utility.yul\":9270:9280   */\n      0x4e487b71\n        /* \"#utility.yul\":9265:9268   */\n      0xe0\n        /* \"#utility.yul\":9261:9281   */\n      shl\n        /* \"#utility.yul\":9258:9259   */\n      0x00\n        /* \"#utility.yul\":9251:9282   */\n      mstore\n        /* \"#utility.yul\":9301:9305   */\n      0x32\n        /* \"#utility.yul\":9298:9299   */\n      0x04\n        /* \"#utility.yul\":9291:9306   */\n      mstore\n        /* \"#utility.yul\":9325:9329   */\n      0x24\n        /* \"#utility.yul\":9322:9323   */\n      0x00\n        /* \"#utility.yul\":9315:9330   */\n      revert\n        /* \"#utility.yul\":10931:11328   */\n    tag_160:\n        /* \"#utility.yul\":11133:11135   */\n      0x20\n        /* \"#utility.yul\":11115:11136   */\n      dup1\n      dup3\n      mstore\n        /* \"#utility.yul\":11172:11174   */\n      0x21\n        /* \"#utility.yul\":11152:11170   */\n      swap1\n      dup3\n      add\n        /* \"#utility.yul\":11145:11175   */\n      mstore\n        /* \"#utility.yul\":11211:11245   */\n      0x596f75206861766520616c7265616479206265656e2072656769737465726564\n        /* \"#utility.yul\":11206:11208   */\n      0x40\n        /* \"#utility.yul\":11191:11209   */\n      dup3\n      add\n        /* \"#utility.yul\":11184:11246   */\n      mstore\n      shl(0xf9, 0x17)\n        /* \"#utility.yul\":11277:11279   */\n      0x60\n        /* \"#utility.yul\":11262:11280   */\n      dup3\n      add\n        /* \"#utility.yul\":11255:11286   */\n      mstore\n        /* \"#utility.yul\":11318:11321   */\n      0x80\n        /* \"#utility.yul\":11303:11322   */\n      add\n      swap1\n        /* \"#utility.yul\":10931:11328   */\n      jump\t// out\n        /* \"#utility.yul\":11333:11713   */\n    tag_210:\n        /* \"#utility.yul\":11412:11413   */\n      0x01\n        /* \"#utility.yul\":11408:11420   */\n      dup2\n      dup2\n      shr\n      swap1\n        /* \"#utility.yul\":11455:11467   */\n      dup3\n      and\n      dup1\n        /* \"#utility.yul\":11476:11537   */\n      tag_422\n      jumpi\n        /* \"#utility.yul\":11530:11534   */\n      0x7f\n        /* \"#utility.yul\":11522:11528   */\n      dup3\n        /* \"#utility.yul\":11518:11535   */\n      and\n        /* \"#utility.yul\":11508:11535   */\n      swap2\n      pop\n        /* \"#utility.yul\":11476:11537   */\n    tag_422:\n        /* \"#utility.yul\":11583:11585   */\n      0x20\n        /* \"#utility.yul\":11575:11581   */\n      dup3\n        /* \"#utility.yul\":11572:11586   */\n      lt\n        /* \"#utility.yul\":11552:11570   */\n      dup2\n        /* \"#utility.yul\":11549:11587   */\n      sub\n        /* \"#utility.yul\":11546:11707   */\n      tag_423\n      jumpi\n        /* \"#utility.yul\":11629:11639   */\n      0x4e487b71\n        /* \"#utility.yul\":11624:11627   */\n      0xe0\n        /* \"#utility.yul\":11620:11640   */\n      shl\n        /* \"#utility.yul\":11617:11618   */\n      0x00\n        /* \"#utility.yul\":11610:11641   */\n      mstore\n        /* \"#utility.yul\":11664:11668   */\n      0x22\n        /* \"#utility.yul\":11661:11662   */\n      0x04\n        /* \"#utility.yul\":11654:11669   */\n      mstore\n        /* \"#utility.yul\":11692:11696   */\n      0x24\n        /* \"#utility.yul\":11689:11690   */\n      0x00\n        /* \"#utility.yul\":11682:11697   */\n      revert\n        /* \"#utility.yul\":11546:11707   */\n    tag_423:\n      pop\n        /* \"#utility.yul\":11333:11713   */\n      swap2\n      swap1\n      pop\n      jump\t// out\n        /* \"#utility.yul\":11844:12389   */\n    tag_346:\n        /* \"#utility.yul\":11946:11948   */\n      0x1f\n        /* \"#utility.yul\":11941:11944   */\n      dup3\n        /* \"#utility.yul\":11938:11949   */\n      gt\n        /* \"#utility.yul\":11935:12383   */\n      iszero\n      tag_130\n      jumpi\n        /* \"#utility.yul\":11982:11983   */\n      0x00\n        /* \"#utility.yul\":12007:12012   */\n      dup2\n        /* \"#utility.yul\":12003:12005   */\n      dup2\n        /* \"#utility.yul\":11996:12013   */\n      mstore\n        /* \"#utility.yul\":12052:12056   */\n      0x20\n        /* \"#utility.yul\":12048:12050   */\n      dup2\n        /* \"#utility.yul\":12038:12057   */\n      keccak256\n        /* \"#utility.yul\":12122:12124   */\n      0x1f\n        /* \"#utility.yul\":12110:12120   */\n      dup6\n        /* \"#utility.yul\":12106:12125   */\n      add\n        /* \"#utility.yul\":12103:12104   */\n      0x05\n        /* \"#utility.yul\":12099:12126   */\n      shr\n        /* \"#utility.yul\":12093:12097   */\n      dup2\n        /* \"#utility.yul\":12089:12127   */\n      add\n        /* \"#utility.yul\":12158:12162   */\n      0x20\n        /* \"#utility.yul\":12146:12156   */\n      dup7\n        /* \"#utility.yul\":12143:12163   */\n      lt\n        /* \"#utility.yul\":12140:12187   */\n      iszero\n      tag_427\n      jumpi\n      pop\n        /* \"#utility.yul\":12181:12185   */\n      dup1\n        /* \"#utility.yul\":12140:12187   */\n    tag_427:\n        /* \"#utility.yul\":12236:12238   */\n      0x1f\n        /* \"#utility.yul\":12231:12234   */\n      dup6\n        /* \"#utility.yul\":12227:12239   */\n      add\n        /* \"#utility.yul\":12224:12225   */\n      0x05\n        /* \"#utility.yul\":12220:12240   */\n      shr\n        /* \"#utility.yul\":12214:12218   */\n      dup3\n        /* \"#utility.yul\":12210:12241   */\n      add\n        /* \"#utility.yul\":12200:12241   */\n      swap2\n      pop\n        /* \"#utility.yul\":12291:12373   */\n    tag_428:\n        /* \"#utility.yul\":12309:12311   */\n      dup2\n        /* \"#utility.yul\":12302:12307   */\n      dup2\n        /* \"#utility.yul\":12299:12312   */\n      lt\n        /* \"#utility.yul\":12291:12373   */\n      iszero\n      tag_430\n      jumpi\n        /* \"#utility.yul\":12354:12371   */\n      dup3\n      dup2\n      sstore\n        /* \"#utility.yul\":12335:12336   */\n      0x01\n        /* \"#utility.yul\":12324:12337   */\n      add\n        /* \"#utility.yul\":12291:12373   */\n      jump(tag_428)\n    tag_430:\n        /* \"#utility.yul\":12295:12298   */\n      pop\n      pop\n      pop\n        /* \"#utility.yul\":11844:12389   */\n      pop\n      pop\n      pop\n      jump\t// out\n        /* \"#utility.yul\":12565:13917   */\n    tag_163:\n        /* \"#utility.yul\":12691:12694   */\n      dup2\n        /* \"#utility.yul\":12685:12695   */\n      mload\n        /* \"#utility.yul\":12718:12736   */\n      0xffffffffffffffff\n        /* \"#utility.yul\":12710:12716   */\n      dup2\n        /* \"#utility.yul\":12707:12737   */\n      gt\n        /* \"#utility.yul\":12704:12760   */\n      iszero\n      tag_434\n      jumpi\n        /* \"#utility.yul\":12740:12758   */\n      tag_434\n      tag_340\n      jump\t// in\n    tag_434:\n        /* \"#utility.yul\":12769:12866   */\n      tag_435\n        /* \"#utility.yul\":12859:12865   */\n      dup2\n        /* \"#utility.yul\":12819:12857   */\n      tag_436\n        /* \"#utility.yul\":12851:12855   */\n      dup5\n        /* \"#utility.yul\":12845:12856   */\n      sload\n        /* \"#utility.yul\":12819:12857   */\n      tag_210\n      jump\t// in\n    tag_436:\n        /* \"#utility.yul\":12813:12817   */\n      dup5\n        /* \"#utility.yul\":12769:12866   */\n      tag_346\n      jump\t// in\n    tag_435:\n        /* \"#utility.yul\":12921:12925   */\n      0x20\n      dup1\n        /* \"#utility.yul\":12985:12987   */\n      0x1f\n        /* \"#utility.yul\":12974:12988   */\n      dup4\n      gt\n        /* \"#utility.yul\":13002:13003   */\n      0x01\n        /* \"#utility.yul\":12997:13660   */\n      dup2\n      eq\n      tag_438\n      jumpi\n        /* \"#utility.yul\":13704:13705   */\n      0x00\n        /* \"#utility.yul\":13721:13727   */\n      dup5\n        /* \"#utility.yul\":13718:13807   */\n      iszero\n      tag_439\n      jumpi\n      pop\n        /* \"#utility.yul\":13773:13792   */\n      dup6\n      dup4\n      add\n        /* \"#utility.yul\":13767:13793   */\n      mload\n        /* \"#utility.yul\":13718:13807   */\n    tag_439:\n      not(0x00)\n        /* \"#utility.yul\":12522:12523   */\n      0x03\n        /* \"#utility.yul\":12518:12529   */\n      dup7\n      swap1\n      shl\n        /* \"#utility.yul\":12514:12538   */\n      shr\n        /* \"#utility.yul\":12510:12539   */\n      not\n        /* \"#utility.yul\":12500:12540   */\n      and\n        /* \"#utility.yul\":12546:12547   */\n      0x01\n        /* \"#utility.yul\":12542:12553   */\n      dup6\n      swap1\n      shl\n        /* \"#utility.yul\":12497:12554   */\n      or\n        /* \"#utility.yul\":13820:13901   */\n      dup6\n      sstore\n        /* \"#utility.yul\":12967:13911   */\n      jump(tag_430)\n        /* \"#utility.yul\":12997:13660   */\n    tag_438:\n        /* \"#utility.yul\":11791:11792   */\n      0x00\n        /* \"#utility.yul\":11784:11798   */\n      dup6\n      dup2\n      mstore\n        /* \"#utility.yul\":11828:11832   */\n      0x20\n        /* \"#utility.yul\":11815:11833   */\n      dup2\n      keccak256\n      not(0x1f)\n        /* \"#utility.yul\":13033:13053   */\n      dup7\n      and\n      swap2\n        /* \"#utility.yul\":13151:13387   */\n    tag_442:\n        /* \"#utility.yul\":13165:13172   */\n      dup3\n        /* \"#utility.yul\":13162:13163   */\n      dup2\n        /* \"#utility.yul\":13159:13173   */\n      lt\n        /* \"#utility.yul\":13151:13387   */\n      iszero\n      tag_444\n      jumpi\n        /* \"#utility.yul\":13254:13273   */\n      dup9\n      dup7\n      add\n        /* \"#utility.yul\":13248:13274   */\n      mload\n        /* \"#utility.yul\":13233:13275   */\n      dup3\n      sstore\n        /* \"#utility.yul\":13346:13373   */\n      swap5\n      dup5\n      add\n      swap5\n        /* \"#utility.yul\":13314:13315   */\n      0x01\n        /* \"#utility.yul\":13302:13316   */\n      swap1\n      swap2\n      add\n      swap1\n        /* \"#utility.yul\":13181:13200   */\n      dup5\n      add\n        /* \"#utility.yul\":13151:13387   */\n      jump(tag_442)\n    tag_444:\n        /* \"#utility.yul\":13155:13158   */\n      pop\n        /* \"#utility.yul\":13415:13421   */\n      dup6\n        /* \"#utility.yul\":13406:13413   */\n      dup3\n        /* \"#utility.yul\":13403:13422   */\n      lt\n        /* \"#utility.yul\":13400:13601   */\n      iszero\n      tag_445\n      jumpi\n        /* \"#utility.yul\":13476:13495   */\n      dup8\n      dup6\n      add\n        /* \"#utility.yul\":13470:13496   */\n      mload\n      not(0x00)\n        /* \"#utility.yul\":13559:13560   */\n      0x03\n        /* \"#utility.yul\":13555:13569   */\n      dup9\n      swap1\n      shl\n        /* \"#utility.yul\":13571:13574   */\n      0xf8\n        /* \"#utility.yul\":13551:13575   */\n      and\n        /* \"#utility.yul\":13547:13584   */\n      shr\n        /* \"#utility.yul\":13543:13585   */\n      not\n        /* \"#utility.yul\":13528:13586   */\n      and\n        /* \"#utility.yul\":13513:13587   */\n      dup2\n      sstore\n        /* \"#utility.yul\":13400:13601   */\n    tag_445:\n      pop\n      pop\n      pop\n      pop\n      pop\n        /* \"#utility.yul\":13647:13648   */\n      0x01\n        /* \"#utility.yul\":13631:13645   */\n      swap1\n      dup2\n      shl\n        /* \"#utility.yul\":13627:13649   */\n      add\n        /* \"#utility.yul\":13614:13650   */\n      swap1\n      sstore\n      pop\n        /* \"#utility.yul\":12565:13917   */\n      jump\t// out\n        /* \"#utility.yul\":13922:15353   */\n    tag_169:\n        /* \"#utility.yul\":14037:14040   */\n      dup2\n        /* \"#utility.yul\":14031:14035   */\n      dup2\n        /* \"#utility.yul\":14028:14041   */\n      sub\n        /* \"#utility.yul\":14025:14051   */\n      tag_447\n      jumpi\n        /* \"#utility.yul\":14044:14049   */\n      pop\n      pop\n        /* \"#utility.yul\":13922:15353   */\n      jump\t// out\n        /* \"#utility.yul\":14025:14051   */\n    tag_447:\n        /* \"#utility.yul\":14074:14111   */\n      tag_448\n        /* \"#utility.yul\":14106:14109   */\n      dup3\n        /* \"#utility.yul\":14100:14110   */\n      sload\n        /* \"#utility.yul\":14074:14111   */\n      tag_210\n      jump\t// in\n    tag_448:\n        /* \"#utility.yul\":14134:14152   */\n      0xffffffffffffffff\n        /* \"#utility.yul\":14126:14132   */\n      dup2\n        /* \"#utility.yul\":14123:14153   */\n      gt\n        /* \"#utility.yul\":14120:14176   */\n      iszero\n      tag_450\n      jumpi\n        /* \"#utility.yul\":14156:14174   */\n      tag_450\n      tag_340\n      jump\t// in\n    tag_450:\n        /* \"#utility.yul\":14185:14282   */\n      tag_451\n        /* \"#utility.yul\":14275:14281   */\n      dup2\n        /* \"#utility.yul\":14235:14273   */\n      tag_436\n        /* \"#utility.yul\":14267:14271   */\n      dup5\n        /* \"#utility.yul\":14261:14272   */\n      sload\n        /* \"#utility.yul\":14235:14273   */\n      tag_210\n      jump\t// in\n        /* \"#utility.yul\":14185:14282   */\n    tag_451:\n        /* \"#utility.yul\":14308:14309   */\n      0x00\n        /* \"#utility.yul\":14336:14338   */\n      0x1f\n        /* \"#utility.yul\":14328:14334   */\n      dup3\n        /* \"#utility.yul\":14325:14339   */\n      gt\n        /* \"#utility.yul\":14353:14354   */\n      0x01\n        /* \"#utility.yul\":14348:15096   */\n      dup2\n      eq\n      tag_454\n      jumpi\n        /* \"#utility.yul\":15140:15141   */\n      0x00\n        /* \"#utility.yul\":15157:15163   */\n      dup4\n        /* \"#utility.yul\":15154:15243   */\n      iszero\n      tag_455\n      jumpi\n      pop\n        /* \"#utility.yul\":15209:15228   */\n      dup5\n      dup3\n      add\n        /* \"#utility.yul\":15203:15229   */\n      sload\n        /* \"#utility.yul\":15154:15243   */\n    tag_455:\n      not(0x00)\n        /* \"#utility.yul\":12522:12523   */\n      0x03\n        /* \"#utility.yul\":12518:12529   */\n      dup6\n      swap1\n      shl\n        /* \"#utility.yul\":12514:12538   */\n      shr\n        /* \"#utility.yul\":12510:12539   */\n      not\n        /* \"#utility.yul\":12500:12540   */\n      and\n        /* \"#utility.yul\":12546:12547   */\n      0x01\n        /* \"#utility.yul\":12542:12553   */\n      dup5\n      swap1\n      shl\n        /* \"#utility.yul\":12497:12554   */\n      or\n        /* \"#utility.yul\":15256:15337   */\n      dup5\n      sstore\n        /* \"#utility.yul\":14318:15347   */\n      jump(tag_453)\n        /* \"#utility.yul\":14348:15096   */\n    tag_454:\n        /* \"#utility.yul\":11791:11792   */\n      0x00\n        /* \"#utility.yul\":11784:11798   */\n      dup6\n      dup2\n      mstore\n        /* \"#utility.yul\":11828:11832   */\n      0x20\n        /* \"#utility.yul\":11815:11833   */\n      swap1\n      keccak256\n      not(0x1f)\n        /* \"#utility.yul\":14384:14404   */\n      dup5\n      and\n      swap1\n        /* \"#utility.yul\":11791:11792   */\n      0x00\n        /* \"#utility.yul\":11784:11798   */\n      dup7\n      dup2\n      mstore\n        /* \"#utility.yul\":11828:11832   */\n      0x20\n        /* \"#utility.yul\":11815:11833   */\n      swap1\n      keccak256\n        /* \"#utility.yul\":14548:14557   */\n      dup5\n        /* \"#utility.yul\":14570:14821   */\n    tag_459:\n        /* \"#utility.yul\":14584:14591   */\n      dup4\n        /* \"#utility.yul\":14581:14582   */\n      dup2\n        /* \"#utility.yul\":14578:14592   */\n      lt\n        /* \"#utility.yul\":14570:14821   */\n      iszero\n      tag_461\n      jumpi\n        /* \"#utility.yul\":14666:14687   */\n      dup3\n      dup7\n      add\n        /* \"#utility.yul\":14660:14688   */\n      sload\n        /* \"#utility.yul\":14645:14689   */\n      dup3\n      sstore\n        /* \"#utility.yul\":14716:14717   */\n      0x01\n        /* \"#utility.yul\":14789:14807   */\n      swap6\n      dup7\n      add\n      swap6\n        /* \"#utility.yul\":14744:14759   */\n      swap1\n      swap2\n      add\n      swap1\n        /* \"#utility.yul\":14607:14611   */\n      0x20\n        /* \"#utility.yul\":14600:14612   */\n      add\n        /* \"#utility.yul\":14570:14821   */\n      jump(tag_459)\n    tag_461:\n        /* \"#utility.yul\":14574:14577   */\n      pop\n        /* \"#utility.yul\":14849:14855   */\n      dup6\n        /* \"#utility.yul\":14840:14847   */\n      dup4\n        /* \"#utility.yul\":14837:14856   */\n      lt\n        /* \"#utility.yul\":14834:15037   */\n      iszero\n      tag_462\n      jumpi\n        /* \"#utility.yul\":14910:14931   */\n      dup2\n      dup6\n      add\n        /* \"#utility.yul\":14904:14932   */\n      sload\n      not(0x00)\n        /* \"#utility.yul\":14995:14996   */\n      0x03\n        /* \"#utility.yul\":14991:15005   */\n      dup9\n      swap1\n      shl\n        /* \"#utility.yul\":15007:15010   */\n      0xf8\n        /* \"#utility.yul\":14987:15011   */\n      and\n        /* \"#utility.yul\":14983:15020   */\n      shr\n        /* \"#utility.yul\":14979:15021   */\n      not\n        /* \"#utility.yul\":14964:15022   */\n      and\n        /* \"#utility.yul\":14949:15023   */\n      dup2\n      sstore\n        /* \"#utility.yul\":14834:15037   */\n    tag_462:\n      pop\n      pop\n      pop\n        /* \"#utility.yul\":15083:15084   */\n      0x01\n        /* \"#utility.yul\":15074:15080   */\n      dup4\n        /* \"#utility.yul\":15071:15072   */\n      0x01\n        /* \"#utility.yul\":15067:15081   */\n      shl\n        /* \"#utility.yul\":15063:15085   */\n      add\n        /* \"#utility.yul\":15057:15061   */\n      dup5\n        /* \"#utility.yul\":15050:15086   */\n      sstore\n        /* \"#utility.yul\":14318:15347   */\n    tag_453:\n      pop\n      pop\n      pop\n        /* \"#utility.yul\":13922:15353   */\n      pop\n      pop\n      jump\t// out\n        /* \"#utility.yul\":15358:15675   */\n    tag_175:\n      sub(shl(0xa0, 0x01), 0x01)\n        /* \"#utility.yul\":15535:15567   */\n      dup4\n      and\n        /* \"#utility.yul\":15517:15568   */\n      dup2\n      mstore\n        /* \"#utility.yul\":15604:15606   */\n      0x40\n        /* \"#utility.yul\":15599:15601   */\n      0x20\n        /* \"#utility.yul\":15584:15602   */\n      dup3\n      add\n        /* \"#utility.yul\":15577:15607   */\n      dup2\n      swap1\n      mstore\n      0x00\n      swap1\n        /* \"#utility.yul\":15624:15669   */\n      tag_464\n      swap1\n        /* \"#utility.yul\":15650:15668   */\n      dup4\n      add\n        /* \"#utility.yul\":15642:15648   */\n      dup5\n        /* \"#utility.yul\":15624:15669   */\n      tag_342\n      jump\t// in\n    tag_464:\n        /* \"#utility.yul\":15616:15669   */\n      swap5\n        /* \"#utility.yul\":15358:15675   */\n      swap4\n      pop\n      pop\n      pop\n      pop\n      jump\t// out\n        /* \"#utility.yul\":18572:18699   */\n    tag_252:\n        /* \"#utility.yul\":18633:18643   */\n      0x4e487b71\n        /* \"#utility.yul\":18628:18631   */\n      0xe0\n        /* \"#utility.yul\":18624:18644   */\n      shl\n        /* \"#utility.yul\":18621:18622   */\n      0x00\n        /* \"#utility.yul\":18614:18645   */\n      mstore\n        /* \"#utility.yul\":18664:18668   */\n      0x21\n        /* \"#utility.yul\":18661:18662   */\n      0x04\n        /* \"#utility.yul\":18654:18669   */\n      mstore\n        /* \"#utility.yul\":18688:18692   */\n      0x24\n        /* \"#utility.yul\":18685:18686   */\n      0x00\n        /* \"#utility.yul\":18678:18693   */\n      revert\n        /* \"#utility.yul\":18704:19110   */\n    tag_259:\n        /* \"#utility.yul\":18906:18908   */\n      0x20\n        /* \"#utility.yul\":18888:18909   */\n      dup1\n      dup3\n      mstore\n        /* \"#utility.yul\":18945:18947   */\n      0x2a\n        /* \"#utility.yul\":18925:18943   */\n      swap1\n      dup3\n      add\n        /* \"#utility.yul\":18918:18948   */\n      mstore\n        /* \"#utility.yul\":18984:19018   */\n      0x596f752063616e6e6f7420766965772074686520726573756c74732061742074\n        /* \"#utility.yul\":18979:18981   */\n      0x40\n        /* \"#utility.yul\":18964:18982   */\n      dup3\n      add\n        /* \"#utility.yul\":18957:19019   */\n      mstore\n      shl(0xb1, 0x34329036b7b6b2b73a17)\n        /* \"#utility.yul\":19050:19052   */\n      0x60\n        /* \"#utility.yul\":19035:19053   */\n      dup3\n      add\n        /* \"#utility.yul\":19028:19068   */\n      mstore\n        /* \"#utility.yul\":19100:19103   */\n      0x80\n        /* \"#utility.yul\":19085:19104   */\n      add\n      swap1\n        /* \"#utility.yul\":18704:19110   */\n      jump\t// out\n        /* \"#utility.yul\":19115:19251   */\n    tag_266:\n        /* \"#utility.yul\":19154:19157   */\n      0x00\n        /* \"#utility.yul\":19182:19187   */\n      dup2\n        /* \"#utility.yul\":19172:19211   */\n      tag_476\n      jumpi\n        /* \"#utility.yul\":19191:19209   */\n      tag_476\n      tag_344\n      jump\t// in\n    tag_476:\n      pop\n      not(0x00)\n        /* \"#utility.yul\":19227:19245   */\n      add\n      swap1\n        /* \"#utility.yul\":19115:19251   */\n      jump\t// out\n        /* \"#utility.yul\":19675:20713   */\n    tag_286:\n      shl(0x95, 0x02a3432903bb4b73732b91034b99)\n        /* \"#utility.yul\":19929:19932   */\n      dup2\n        /* \"#utility.yul\":19922:19951   */\n      mstore\n        /* \"#utility.yul\":19904:19907   */\n      0x00\n        /* \"#utility.yul\":19970:19972   */\n      0x0e\n        /* \"#utility.yul\":19992:19993   */\n      0x00\n        /* \"#utility.yul\":20025:20031   */\n      dup5\n        /* \"#utility.yul\":20019:20032   */\n      sload\n        /* \"#utility.yul\":20055:20091   */\n      tag_479\n        /* \"#utility.yul\":20081:20090   */\n      dup2\n        /* \"#utility.yul\":20055:20091   */\n      tag_210\n      jump\t// in\n    tag_479:\n        /* \"#utility.yul\":20110:20111   */\n      0x01\n        /* \"#utility.yul\":20127:20145   */\n      dup3\n      dup2\n      and\n        /* \"#utility.yul\":20154:20305   */\n      dup1\n      iszero\n      tag_481\n      jumpi\n        /* \"#utility.yul\":20319:20320   */\n      0x01\n        /* \"#utility.yul\":20314:20688   */\n      dup2\n      eq\n      tag_482\n      jumpi\n        /* \"#utility.yul\":20120:20688   */\n      jump(tag_401)\n        /* \"#utility.yul\":20154:20305   */\n    tag_481:\n      not(0xff)\n        /* \"#utility.yul\":20196:20220   */\n      dup5\n      and\n        /* \"#utility.yul\":20182:20194   */\n      dup9\n      dup8\n      add\n        /* \"#utility.yul\":20175:20221   */\n      mstore\n        /* \"#utility.yul\":20273:20287   */\n      dup3\n      iszero\n        /* \"#utility.yul\":20266:20288   */\n      iszero\n        /* \"#utility.yul\":20254:20289   */\n      dup4\n      mul\n        /* \"#utility.yul\":20245:20290   */\n      dup9\n      add\n        /* \"#utility.yul\":20241:20295   */\n      dup7\n      add\n      swap5\n      pop\n        /* \"#utility.yul\":20154:20305   */\n      jump(tag_401)\n        /* \"#utility.yul\":20314:20688   */\n    tag_482:\n        /* \"#utility.yul\":20345:20351   */\n      dup9\n        /* \"#utility.yul\":20342:20343   */\n      0x00\n        /* \"#utility.yul\":20335:20352   */\n      mstore\n        /* \"#utility.yul\":20375:20379   */\n      0x20\n        /* \"#utility.yul\":20420:20422   */\n      dup1\n        /* \"#utility.yul\":20417:20418   */\n      0x00\n        /* \"#utility.yul\":20407:20423   */\n      keccak256\n        /* \"#utility.yul\":20445:20446   */\n      0x00\n        /* \"#utility.yul\":20459:20633   */\n    tag_483:\n        /* \"#utility.yul\":20473:20479   */\n      dup6\n        /* \"#utility.yul\":20470:20471   */\n      dup2\n        /* \"#utility.yul\":20467:20480   */\n      lt\n        /* \"#utility.yul\":20459:20633   */\n      iszero\n      tag_485\n      jumpi\n        /* \"#utility.yul\":20560:20574   */\n      dup2\n      sload\n        /* \"#utility.yul\":20542:20553   */\n      dup12\n      dup3\n      add\n        /* \"#utility.yul\":20538:20558   */\n      dup11\n      add\n        /* \"#utility.yul\":20531:20575   */\n      mstore\n        /* \"#utility.yul\":20603:20619   */\n      swap1\n      dup5\n      add\n      swap1\n        /* \"#utility.yul\":20488:20498   */\n      dup3\n      add\n        /* \"#utility.yul\":20459:20633   */\n      jump(tag_483)\n    tag_485:\n      pop\n      pop\n      pop\n      pop\n        /* \"#utility.yul\":20657:20673   */\n      swap6\n      add\n        /* \"#utility.yul\":20653:20678   */\n      swap1\n      swap3\n      add\n      swap6\n        /* \"#utility.yul\":20704:20707   */\n      swap5\n      pop\n      pop\n      pop\n      pop\n      pop\n        /* \"#utility.yul\":19675:20713   */\n      jump\t// out\n\n    auxdata: 0xa2646970667358221220cd68c441a8dccb123f03ddad7089649b048354daf78e12725c972de4a02dbfe664736f6c63430008120033\n}\n",
				"bytecode": {
					"linkReferences": {},
					"object": "608060405234801561001057600080fd5b50600280546001600160a01b031916331790556000808055600181815560038190556004556005556006805461ffff19169055612477806100526000396000f3fe608060405234801561001057600080fd5b50600436106101165760003560e01c8063a589ac5c116100a2578063cdd11b6411610071578063cdd11b641461024e578063d1b9fb3f14610261578063e9b5266814610278578063eca88ca61461028d578063fc864716146102a057600080fd5b8063a589ac5c146101e7578063bb30d88e14610207578063bd0c70091461021a578063c2b33e6e1461022d57600080fd5b8063464d4a92116100e9578063464d4a921461019e57806354155fbf146101b157806359f78468146101c45780635b8ebb64146101cc57806362d73eb8146101df57600080fd5b80630318e0ac1461011b5780630340851d146101535780631d529aa4146101765780632802ce591461018b575b600080fd5b61013e610129366004611bed565b6000908152600d602052604090205460ff1690565b60405190151581526020015b60405180910390f35b61013e610161366004611bed565b6000908152600e602052604090205460ff1690565b610189610184366004611bed565b6102c0565b005b610189610199366004611c06565b6103c6565b6101896101ac366004611bed565b6105e5565b6101896101bf366004611ccb565b610889565b610189610b5a565b6101896101da366004611d78565b610bf8565b610189610e04565b6101fa6101f5366004611bed565b610e9b565b60405161014a9190611ebd565b610189610215366004611bed565b611144565b610189610228366004611ed7565b6111fe565b61024061023b366004611bed565b611400565b60405190815260200161014a565b61018961025c366004611bed565b611440565b61026961153d565b60405161014a93929190611f0b565b6102806116d7565b60405161014a9190611f30565b61018961029b366004611bed565b611988565b6102b36102ae366004611bed565b611a4b565b60405161014a9190611f92565b6002546001600160a01b031633146102f35760405162461bcd60e51b81526004016102ea90612001565b60405180910390fd5b6000818152600e602052604090205460ff1661036d576000818152600e60205260408120805460ff1916600190811790915580549161033183612044565b90915550506040518181527f3ad93af63cb7967b23e4fb500b7d7d28b07516325dcf341f88bebf959d82c1cb906020015b60405180910390a150565b60405162461bcd60e51b815260206004820152602860248201527f5468652063616e6469646174652068617320616c7265616479206265656e206160448201526738383937bb32b21760c11b60648201526084016102ea565b60065460ff166103e85760405162461bcd60e51b81526004016102ea9061205d565b600654610100900460ff16156104105760405162461bcd60e51b81526004016102ea9061205d565b6000818152600e602052604090205460ff1661046e5760405162461bcd60e51b815260206004820152601e60248201527f5468652063616e646964617465206973206e6f7420656c696769626c652e000060448201526064016102ea565b6000805b336000908152600860209081526040808320548352600f90915290205481101561058657336000908152600860209081526040808320548352600f90915290208054859190839081106104c7576104c7612094565b90600052602060002090600202016000015403610574576000838152600c602052604081206001018054916104fb83612044565b90915550506005805490600061051083612044565b9091555050336000908152600860209081526040808320548352600f909152812080548390811061054357610543612094565b906000526020600020906002020160010160016101000a81548160ff02191690831515021790555060019150610586565b8061057e81612044565b915050610472565b50806105e05760405162461bcd60e51b8152602060048201526024808201527f596f7520617265206e6f742064656c65676174656420627920746869732070656044820152633939b7b760e11b60648201526084016102ea565b505050565b600654819060ff166106095760405162461bcd60e51b81526004016102ea9061205d565b600654610100900460ff16156106315760405162461bcd60e51b81526004016102ea9061205d565b33600090815260086020526040812054900361068f5760405162461bcd60e51b815260206004820152601d60248201527f596f7520617265206e6f7420656c696769626c6520746f20766f74652e00000060448201526064016102ea565b336000908152600b602052604090205460ff16156106ef5760405162461bcd60e51b815260206004820152601760248201527f596f75206861766520616c726561647920766f7465642e00000000000000000060448201526064016102ea565b6000818152600e602052604090205460ff1661074d5760405162461bcd60e51b815260206004820152601e60248201527f5468652063616e646964617465206973206e6f7420656c696769626c652e000060448201526064016102ea565b60065460ff1661076f5760405162461bcd60e51b81526004016102ea9061205d565b600654610100900460ff16156107975760405162461bcd60e51b81526004016102ea9061205d565b336000908152600860209081526040808320548352600d90915290205460ff166108345760405162461bcd60e51b815260206004820152604260248201527f596f7520617265206e6f7420617574686f72697a656420746f20766f74652e2060448201527f506c6561736520636f6e7461637420456c656374696f6e20436f6d6d6973736960648201526137b760f11b608482015260a4016102ea565b6000828152600c6020526040812060010180549161085183612044565b90915550506005805490600061086683612044565b9091555050336000908152600b60205260409020805460ff191660011790555050565b336000908152600a6020526040902054156108b65760405162461bcd60e51b81526004016102ea906120aa565b6040805160a081018252600454808252602080830188815283850188905260608401879052608084018690526000928352600990915292902081518155915190919060018201906109079082612173565b506040820151600282019061091c9082612173565b50606082015160038201906109319082612173565b50608082015160048201906109469082612173565b50506040805160208082018352600480548352336000908152600a835284812093519093558351808301855283815281548452600e83528484209051815460ff191690151517905580548352600c82528383206001908101849055905483526009909152918120601080548085018255925280547f1b6847dc741a1b0cd08d278845f9d819d87b734759afb55fe2de5cb82a9ae6726005909302928301908155909350917f1b6847dc741a1b0cd08d278845f9d819d87b734759afb55fe2de5cb82a9ae67390910190610a1b90840182612233565b50600281810190610a2e90840182612233565b50600381810190610a4190840182612233565b50600481810190610a5490840182612233565b50506004805491506000610a6783612044565b91905055507f11d7002257ca02e998e3d17112a6298cf2bb8b3b44ece5e8a02e1e78c7d2dc2b3360405180604001604052806017815260200176149959da5cdd1c985d1a5bdb8814dd58d8d95cdcd99d5b604a1b815250604051610acc92919061230e565b60405180910390a1600254604080516001600160a01b039092168252602082018190526022908201527f5265717565737420666f722043616e646964617465205265676973747261746960608201526137b760f11b60808201527f73ea8b385cde3d60501d54bccc28c7ccff4841ff66eae0201cbb1fafe237fce69060a0015b60405180910390a150505050565b6002546001600160a01b03163314610b845760405162461bcd60e51b81526004016102ea90612001565b60065460ff1615610bb057600654610100900460ff16610bae576006805461ff0019166101001790555b565b60405162461bcd60e51b815260206004820181905260248201527f54686520656c656374696f6e206973206e6f742073746172746564207965742e60448201526064016102ea565b3360009081526008602052604090205415610c255760405162461bcd60e51b81526004016102ea906120aa565b6040805160a081018252600354808252602080830188815283850188905260ff8716606085015260808401869052600092835260079091529290208151815591519091906001820190610c789082612173565b5060408201516002820190610c8d9082612173565b50606082015160038201805460ff191660ff90921691909117905560808201516004820190610cbc9082612173565b505060408051602080820183526003805483523360008181526008845285812094519094558451808401865284815282548552600d84528585209051815490151560ff1991821617909155908452600b9092529282208054909116905581549250610d2683612044565b91905055507fe54fed3d6f8ea8d23d023956c25fefd884a7258386b09ac1c4783ef5d1c51b063360405180604001604052806017815260200176149959da5cdd1c985d1a5bdb8814dd58d8d95cdcd99d5b604a1b815250604051610d8b92919061230e565b60405180910390a1600254604080516001600160a01b03909216825260208201819052601e908201527f5265717565737420666f7220566f74657220526567697374726174696f6e000060608201527f73ea8b385cde3d60501d54bccc28c7ccff4841ff66eae0201cbb1fafe237fce690608001610b4c565b6002546001600160a01b03163314610e2e5760405162461bcd60e51b81526004016102ea90612001565b60065460ff16610e47576006805460ff19166001179055565b60405162461bcd60e51b8152602060048201526024808201527f54686520656c656374696f6e20697320616c726561647920696e2070726f677260448201526332b9b99760e11b60648201526084016102ea565b610ecd6040518060a0016040528060008152602001606081526020016060815260200160608152602001606081525090565b600960008381526020019081526020016000206040518060a001604052908160008201548152602001600182018054610f05906120eb565b80601f0160208091040260200160405190810160405280929190818152602001828054610f31906120eb565b8015610f7e5780601f10610f5357610100808354040283529160200191610f7e565b820191906000526020600020905b815481529060010190602001808311610f6157829003601f168201915b50505050508152602001600282018054610f97906120eb565b80601f0160208091040260200160405190810160405280929190818152602001828054610fc3906120eb565b80156110105780601f10610fe557610100808354040283529160200191611010565b820191906000526020600020905b815481529060010190602001808311610ff357829003601f168201915b50505050508152602001600382018054611029906120eb565b80601f0160208091040260200160405190810160405280929190818152602001828054611055906120eb565b80156110a25780601f10611077576101008083540402835291602001916110a2565b820191906000526020600020905b81548152906001019060200180831161108557829003601f168201915b505050505081526020016004820180546110bb906120eb565b80601f01602080910402602001604051908101604052809291908181526020018280546110e7906120eb565b80156111345780601f1061110957610100808354040283529160200191611134565b820191906000526020600020905b81548152906001019060200180831161111757829003601f168201915b5050505050815250509050919050565b6002546001600160a01b0316331461116e5760405162461bcd60e51b81526004016102ea90612001565b6000818152600d602052604090205460ff166111aa576000818152600d60205260408120805460ff191660011790558054908061033183612044565b60405162461bcd60e51b8152602060048201526024808201527f54686520766f7465722068617320616c7265616479206265656e20617070726f6044820152633b32b21760e11b60648201526084016102ea565b3360009081526008602052604081205483910361125d5760405162461bcd60e51b815260206004820181905260248201527f596f7520617265206e6f7420616e20617574686f72697a656420766f7465722e60448201526064016102ea565b336000908152600860209081526040808320548352600d90915290205460ff166112c95760405162461bcd60e51b815260206004820181905260248201527f596f7520617265206e6f7420616e20617574686f72697a656420766f7465722e60448201526064016102ea565b6000818152600d602052604090205460ff166113315760405162461bcd60e51b815260206004820152602160248201527f5468657920617265206e6f7420616e20617574686f72697a656420766f7465726044820152601760f91b60648201526084016102ea565b6000838152600f602090815260408083208151606081018352338552600884529190932054815290810184600581111561136d5761136d61233a565b8152600160209182018190528354808201855560009485529382902083516002909502019384559082015183820180549394939192909160ff1916908360058111156113bb576113bb61233a565b0217905550604091820151600191820180549115156101000261ff0019909216919091179055336000908152600b60205291909120805460ff19169091179055505050565b600654600090610100900460ff1661142a5760405162461bcd60e51b81526004016102ea90612350565b506000908152600c602052604090206001015490565b6002546001600160a01b0316331461146a5760405162461bcd60e51b81526004016102ea90612001565b6000818152600e602052604090205460ff16156114da576000818152600e60205260408120805460ff1916905560018054916114a58361239a565b90915550506040518181527ffb0048bb5704410776033bb8355286fb6922cc0623412bd454152bac55397f3590602001610362565b60405162461bcd60e51b815260206004820152603260248201527f5468652063616e6469646174652068617320616c7265616479206265656e206460448201527132b1b634b732b21037b9103130b73732b21760711b60648201526084016102ea565b6060600080600660019054906101000a900460ff1661156e5760405162461bcd60e51b81526004016102ea90612350565b600160009081527fd421a5181c571bba3f01190c922c3b2a896fc1d84e86c9f17ac10e67ebef8b5d5460096020527f92e85d02570a8092d09a6e3a57665bc3815a2699a4074001bf1ccabf660f5a365490919060025b600154811161163d576000818152600c602052604090206001015484101561160e576000818152600c6020908152604080832060010154600990925290912054909450915061162b565b6000818152600c602052604090206001015484900361162b578092505b8061163581612044565b9150506115c4565b5081600003611697576010818154811061165957611659612094565b906000526020600020906005020160010160405160200161167a91906123b1565b60408051601f198184030181529190529690955091935090915050565b60408051808201909152601981527f54686520726573756c7420697320546965204265747765656e00000000000000602082015296909550909350915050565b60606010805480602002602001604051908101604052809291908181526020016000905b8282101561197f57838290600052602060002090600502016040518060a001604052908160008201548152602001600182018054611738906120eb565b80601f0160208091040260200160405190810160405280929190818152602001828054611764906120eb565b80156117b15780601f10611786576101008083540402835291602001916117b1565b820191906000526020600020905b81548152906001019060200180831161179457829003601f168201915b505050505081526020016002820180546117ca906120eb565b80601f01602080910402602001604051908101604052809291908181526020018280546117f6906120eb565b80156118435780601f1061181857610100808354040283529160200191611843565b820191906000526020600020905b81548152906001019060200180831161182657829003601f168201915b5050505050815260200160038201805461185c906120eb565b80601f0160208091040260200160405190810160405280929190818152602001828054611888906120eb565b80156118d55780601f106118aa576101008083540402835291602001916118d5565b820191906000526020600020905b8154815290600101906020018083116118b857829003601f168201915b505050505081526020016004820180546118ee906120eb565b80601f016020809104026020016040519081016040528092919081815260200182805461191a906120eb565b80156119675780601f1061193c57610100808354040283529160200191611967565b820191906000526020600020905b81548152906001019060200180831161194a57829003601f168201915b505050505081525050815260200190600101906116fb565b50505050905090565b6002546001600160a01b031633146119b25760405162461bcd60e51b81526004016102ea90612001565b6000818152600d602052604090205460ff16156119ec576000818152600d60205260408120805460ff19169055805490806114a58361239a565b60405162461bcd60e51b815260206004820152602e60248201527f54686520766f7465722068617320616c7265616479206265656e206465636c6960448201526d3732b21037b9103130b73732b21760911b60648201526084016102ea565b611a806040518060a00160405280600081526020016060815260200160608152602001600060ff168152602001606081525090565b600760008381526020019081526020016000206040518060a001604052908160008201548152602001600182018054611ab8906120eb565b80601f0160208091040260200160405190810160405280929190818152602001828054611ae4906120eb565b8015611b315780601f10611b0657610100808354040283529160200191611b31565b820191906000526020600020905b815481529060010190602001808311611b1457829003601f168201915b50505050508152602001600282018054611b4a906120eb565b80601f0160208091040260200160405190810160405280929190818152602001828054611b76906120eb565b8015611bc35780601f10611b9857610100808354040283529160200191611bc3565b820191906000526020600020905b815481529060010190602001808311611ba657829003601f168201915b5050509183525050600382015460ff1660208201526004820180546040909201916110bb906120eb565b600060208284031215611bff57600080fd5b5035919050565b60008060408385031215611c1957600080fd5b50508035926020909101359150565b634e487b7160e01b600052604160045260246000fd5b600082601f830112611c4f57600080fd5b813567ffffffffffffffff80821115611c6a57611c6a611c28565b604051601f8301601f19908116603f01168101908282118183101715611c9257611c92611c28565b81604052838152866020858801011115611cab57600080fd5b836020870160208301376000602085830101528094505050505092915050565b60008060008060808587031215611ce157600080fd5b843567ffffffffffffffff80821115611cf957600080fd5b611d0588838901611c3e565b95506020870135915080821115611d1b57600080fd5b611d2788838901611c3e565b94506040870135915080821115611d3d57600080fd5b611d4988838901611c3e565b93506060870135915080821115611d5f57600080fd5b50611d6c87828801611c3e565b91505092959194509250565b60008060008060808587031215611d8e57600080fd5b843567ffffffffffffffff80821115611da657600080fd5b611db288838901611c3e565b95506020870135915080821115611dc857600080fd5b611dd488838901611c3e565b94506040870135915060ff82168214611dec57600080fd5b90925060608601359080821115611d5f57600080fd5b6000815180845260005b81811015611e2857602081850181015186830182015201611e0c565b506000602082860101526020601f19601f83011685010191505092915050565b805182526000602082015160a06020850152611e6760a0850182611e02565b905060408301518482036040860152611e808282611e02565b91505060608301518482036060860152611e9a8282611e02565b91505060808301518482036080860152611eb48282611e02565b95945050505050565b602081526000611ed06020830184611e48565b9392505050565b60008060408385031215611eea57600080fd5b82359150602083013560068110611f0057600080fd5b809150509250929050565b606081526000611f1e6060830186611e02565b60208301949094525060400152919050565b6000602080830181845280855180835260408601915060408160051b870101925083870160005b82811015611f8557603f19888603018452611f73858351611e48565b94509285019290850190600101611f57565b5092979650505050505050565b60208152815160208201526000602083015160a06040840152611fb860c0840182611e02565b90506040840151601f1980858403016060860152611fd68383611e02565b925060ff606087015116608086015260808601519150808584030160a086015250611eb48282611e02565b602080825260139082015272556e617574686f72697a65642061636365737360681b604082015260600190565b634e487b7160e01b600052601160045260246000fd5b6000600182016120565761205661202e565b5060010190565b6020808252601c908201527f456c656374696f6e206973206e6f7420696e2070726f67726573732e00000000604082015260600190565b634e487b7160e01b600052603260045260246000fd5b60208082526021908201527f596f75206861766520616c7265616479206265656e20726567697374657265646040820152601760f91b606082015260800190565b600181811c908216806120ff57607f821691505b60208210810361211f57634e487b7160e01b600052602260045260246000fd5b50919050565b601f8211156105e057600081815260208120601f850160051c8101602086101561214c5750805b601f850160051c820191505b8181101561216b57828155600101612158565b505050505050565b815167ffffffffffffffff81111561218d5761218d611c28565b6121a18161219b84546120eb565b84612125565b602080601f8311600181146121d657600084156121be5750858301515b600019600386901b1c1916600185901b17855561216b565b600085815260208120601f198616915b82811015612205578886015182559484019460019091019084016121e6565b50858210156122235787850151600019600388901b60f8161c191681555b5050505050600190811b01905550565b81810361223e575050565b61224882546120eb565b67ffffffffffffffff81111561226057612260611c28565b61226e8161219b84546120eb565b6000601f8211600181146122a2576000831561228a5750848201545b600019600385901b1c1916600184901b178455612307565b600085815260209020601f19841690600086815260209020845b838110156122dc57828601548255600195860195909101906020016122bc565b50858310156122fa5781850154600019600388901b60f8161c191681555b50505060018360011b0184555b5050505050565b6001600160a01b038316815260406020820181905260009061233290830184611e02565b949350505050565b634e487b7160e01b600052602160045260246000fd5b6020808252602a908201527f596f752063616e6e6f7420766965772074686520726573756c7473206174207460408201526934329036b7b6b2b73a1760b11b606082015260800190565b6000816123a9576123a961202e565b506000190190565b6d02a3432903bb4b73732b91034b9960951b81526000600e600084546123d6816120eb565b600182811680156123ee576001811461240757611f85565b60ff198416888701528215158302880186019450611f85565b8860005260208060002060005b8581101561242f5781548b82018a0152908401908201612414565b5050505095019092019594505050505056fea2646970667358221220cd68c441a8dccb123f03ddad7089649b048354daf78e12725c972de4a02dbfe664736f6c63430008120033",
					"opcodes": "PUSH1 0x80 PUSH1 0x40 MSTORE CALLVALUE DUP1 ISZERO PUSH2 0x10 JUMPI PUSH1 0x0 DUP1 REVERT JUMPDEST POP PUSH1 0x2 DUP1 SLOAD PUSH1 0x1 PUSH1 0x1 PUSH1 0xA0 SHL SUB NOT AND CALLER OR SWAP1 SSTORE PUSH1 0x0 DUP1 DUP1 SSTORE PUSH1 0x1 DUP2 DUP2 SSTORE PUSH1 0x3 DUP2 SWAP1 SSTORE PUSH1 0x4 SSTORE PUSH1 0x5 SSTORE PUSH1 0x6 DUP1 SLOAD PUSH2 0xFFFF NOT AND SWAP1 SSTORE PUSH2 0x2477 DUP1 PUSH2 0x52 PUSH1 0x0 CODECOPY PUSH1 0x0 RETURN INVALID PUSH1 0x80 PUSH1 0x40 MSTORE CALLVALUE DUP1 ISZERO PUSH2 0x10 JUMPI PUSH1 0x0 DUP1 REVERT JUMPDEST POP PUSH1 0x4 CALLDATASIZE LT PUSH2 0x116 JUMPI PUSH1 0x0 CALLDATALOAD PUSH1 0xE0 SHR DUP1 PUSH4 0xA589AC5C GT PUSH2 0xA2 JUMPI DUP1 PUSH4 0xCDD11B64 GT PUSH2 0x71 JUMPI DUP1 PUSH4 0xCDD11B64 EQ PUSH2 0x24E JUMPI DUP1 PUSH4 0xD1B9FB3F EQ PUSH2 0x261 JUMPI DUP1 PUSH4 0xE9B52668 EQ PUSH2 0x278 JUMPI DUP1 PUSH4 0xECA88CA6 EQ PUSH2 0x28D JUMPI DUP1 PUSH4 0xFC864716 EQ PUSH2 0x2A0 JUMPI PUSH1 0x0 DUP1 REVERT JUMPDEST DUP1 PUSH4 0xA589AC5C EQ PUSH2 0x1E7 JUMPI DUP1 PUSH4 0xBB30D88E EQ PUSH2 0x207 JUMPI DUP1 PUSH4 0xBD0C7009 EQ PUSH2 0x21A JUMPI DUP1 PUSH4 0xC2B33E6E EQ PUSH2 0x22D JUMPI PUSH1 0x0 DUP1 REVERT JUMPDEST DUP1 PUSH4 0x464D4A92 GT PUSH2 0xE9 JUMPI DUP1 PUSH4 0x464D4A92 EQ PUSH2 0x19E JUMPI DUP1 PUSH4 0x54155FBF EQ PUSH2 0x1B1 JUMPI DUP1 PUSH4 0x59F78468 EQ PUSH2 0x1C4 JUMPI DUP1 PUSH4 0x5B8EBB64 EQ PUSH2 0x1CC JUMPI DUP1 PUSH4 0x62D73EB8 EQ PUSH2 0x1DF JUMPI PUSH1 0x0 DUP1 REVERT JUMPDEST DUP1 PUSH4 0x318E0AC EQ PUSH2 0x11B JUMPI DUP1 PUSH4 0x340851D EQ PUSH2 0x153 JUMPI DUP1 PUSH4 0x1D529AA4 EQ PUSH2 0x176 JUMPI DUP1 PUSH4 0x2802CE59 EQ PUSH2 0x18B JUMPI JUMPDEST PUSH1 0x0 DUP1 REVERT JUMPDEST PUSH2 0x13E PUSH2 0x129 CALLDATASIZE PUSH1 0x4 PUSH2 0x1BED JUMP JUMPDEST PUSH1 0x0 SWAP1 DUP2 MSTORE PUSH1 0xD PUSH1 0x20 MSTORE PUSH1 0x40 SWAP1 KECCAK256 SLOAD PUSH1 0xFF AND SWAP1 JUMP JUMPDEST PUSH1 0x40 MLOAD SWAP1 ISZERO ISZERO DUP2 MSTORE PUSH1 0x20 ADD JUMPDEST PUSH1 0x40 MLOAD DUP1 SWAP2 SUB SWAP1 RETURN JUMPDEST PUSH2 0x13E PUSH2 0x161 CALLDATASIZE PUSH1 0x4 PUSH2 0x1BED JUMP JUMPDEST PUSH1 0x0 SWAP1 DUP2 MSTORE PUSH1 0xE PUSH1 0x20 MSTORE PUSH1 0x40 SWAP1 KECCAK256 SLOAD PUSH1 0xFF AND SWAP1 JUMP JUMPDEST PUSH2 0x189 PUSH2 0x184 CALLDATASIZE PUSH1 0x4 PUSH2 0x1BED JUMP JUMPDEST PUSH2 0x2C0 JUMP JUMPDEST STOP JUMPDEST PUSH2 0x189 PUSH2 0x199 CALLDATASIZE PUSH1 0x4 PUSH2 0x1C06 JUMP JUMPDEST PUSH2 0x3C6 JUMP JUMPDEST PUSH2 0x189 PUSH2 0x1AC CALLDATASIZE PUSH1 0x4 PUSH2 0x1BED JUMP JUMPDEST PUSH2 0x5E5 JUMP JUMPDEST PUSH2 0x189 PUSH2 0x1BF CALLDATASIZE PUSH1 0x4 PUSH2 0x1CCB JUMP JUMPDEST PUSH2 0x889 JUMP JUMPDEST PUSH2 0x189 PUSH2 0xB5A JUMP JUMPDEST PUSH2 0x189 PUSH2 0x1DA CALLDATASIZE PUSH1 0x4 PUSH2 0x1D78 JUMP JUMPDEST PUSH2 0xBF8 JUMP JUMPDEST PUSH2 0x189 PUSH2 0xE04 JUMP JUMPDEST PUSH2 0x1FA PUSH2 0x1F5 CALLDATASIZE PUSH1 0x4 PUSH2 0x1BED JUMP JUMPDEST PUSH2 0xE9B JUMP JUMPDEST PUSH1 0x40 MLOAD PUSH2 0x14A SWAP2 SWAP1 PUSH2 0x1EBD JUMP JUMPDEST PUSH2 0x189 PUSH2 0x215 CALLDATASIZE PUSH1 0x4 PUSH2 0x1BED JUMP JUMPDEST PUSH2 0x1144 JUMP JUMPDEST PUSH2 0x189 PUSH2 0x228 CALLDATASIZE PUSH1 0x4 PUSH2 0x1ED7 JUMP JUMPDEST PUSH2 0x11FE JUMP JUMPDEST PUSH2 0x240 PUSH2 0x23B CALLDATASIZE PUSH1 0x4 PUSH2 0x1BED JUMP JUMPDEST PUSH2 0x1400 JUMP JUMPDEST PUSH1 0x40 MLOAD SWAP1 DUP2 MSTORE PUSH1 0x20 ADD PUSH2 0x14A JUMP JUMPDEST PUSH2 0x189 PUSH2 0x25C CALLDATASIZE PUSH1 0x4 PUSH2 0x1BED JUMP JUMPDEST PUSH2 0x1440 JUMP JUMPDEST PUSH2 0x269 PUSH2 0x153D JUMP JUMPDEST PUSH1 0x40 MLOAD PUSH2 0x14A SWAP4 SWAP3 SWAP2 SWAP1 PUSH2 0x1F0B JUMP JUMPDEST PUSH2 0x280 PUSH2 0x16D7 JUMP JUMPDEST PUSH1 0x40 MLOAD PUSH2 0x14A SWAP2 SWAP1 PUSH2 0x1F30 JUMP JUMPDEST PUSH2 0x189 PUSH2 0x29B CALLDATASIZE PUSH1 0x4 PUSH2 0x1BED JUMP JUMPDEST PUSH2 0x1988 JUMP JUMPDEST PUSH2 0x2B3 PUSH2 0x2AE CALLDATASIZE PUSH1 0x4 PUSH2 0x1BED JUMP JUMPDEST PUSH2 0x1A4B JUMP JUMPDEST PUSH1 0x40 MLOAD PUSH2 0x14A SWAP2 SWAP1 PUSH2 0x1F92 JUMP JUMPDEST PUSH1 0x2 SLOAD PUSH1 0x1 PUSH1 0x1 PUSH1 0xA0 SHL SUB AND CALLER EQ PUSH2 0x2F3 JUMPI PUSH1 0x40 MLOAD PUSH3 0x461BCD PUSH1 0xE5 SHL DUP2 MSTORE PUSH1 0x4 ADD PUSH2 0x2EA SWAP1 PUSH2 0x2001 JUMP JUMPDEST PUSH1 0x40 MLOAD DUP1 SWAP2 SUB SWAP1 REVERT JUMPDEST PUSH1 0x0 DUP2 DUP2 MSTORE PUSH1 0xE PUSH1 0x20 MSTORE PUSH1 0x40 SWAP1 KECCAK256 SLOAD PUSH1 0xFF AND PUSH2 0x36D JUMPI PUSH1 0x0 DUP2 DUP2 MSTORE PUSH1 0xE PUSH1 0x20 MSTORE PUSH1 0x40 DUP2 KECCAK256 DUP1 SLOAD PUSH1 0xFF NOT AND PUSH1 0x1 SWAP1 DUP2 OR SWAP1 SWAP2 SSTORE DUP1 SLOAD SWAP2 PUSH2 0x331 DUP4 PUSH2 0x2044 JUMP JUMPDEST SWAP1 SWAP2 SSTORE POP POP PUSH1 0x40 MLOAD DUP2 DUP2 MSTORE PUSH32 0x3AD93AF63CB7967B23E4FB500B7D7D28B07516325DCF341F88BEBF959D82C1CB SWAP1 PUSH1 0x20 ADD JUMPDEST PUSH1 0x40 MLOAD DUP1 SWAP2 SUB SWAP1 LOG1 POP JUMP JUMPDEST PUSH1 0x40 MLOAD PUSH3 0x461BCD PUSH1 0xE5 SHL DUP2 MSTORE PUSH1 0x20 PUSH1 0x4 DUP3 ADD MSTORE PUSH1 0x28 PUSH1 0x24 DUP3 ADD MSTORE PUSH32 0x5468652063616E6469646174652068617320616C7265616479206265656E2061 PUSH1 0x44 DUP3 ADD MSTORE PUSH8 0x38383937BB32B217 PUSH1 0xC1 SHL PUSH1 0x64 DUP3 ADD MSTORE PUSH1 0x84 ADD PUSH2 0x2EA JUMP JUMPDEST PUSH1 0x6 SLOAD PUSH1 0xFF AND PUSH2 0x3E8 JUMPI PUSH1 0x40 MLOAD PUSH3 0x461BCD PUSH1 0xE5 SHL DUP2 MSTORE PUSH1 0x4 ADD PUSH2 0x2EA SWAP1 PUSH2 0x205D JUMP JUMPDEST PUSH1 0x6 SLOAD PUSH2 0x100 SWAP1 DIV PUSH1 0xFF AND ISZERO PUSH2 0x410 JUMPI PUSH1 0x40 MLOAD PUSH3 0x461BCD PUSH1 0xE5 SHL DUP2 MSTORE PUSH1 0x4 ADD PUSH2 0x2EA SWAP1 PUSH2 0x205D JUMP JUMPDEST PUSH1 0x0 DUP2 DUP2 MSTORE PUSH1 0xE PUSH1 0x20 MSTORE PUSH1 0x40 SWAP1 KECCAK256 SLOAD PUSH1 0xFF AND PUSH2 0x46E JUMPI PUSH1 0x40 MLOAD PUSH3 0x461BCD PUSH1 0xE5 SHL DUP2 MSTORE PUSH1 0x20 PUSH1 0x4 DUP3 ADD MSTORE PUSH1 0x1E PUSH1 0x24 DUP3 ADD MSTORE PUSH32 0x5468652063616E646964617465206973206E6F7420656C696769626C652E0000 PUSH1 0x44 DUP3 ADD MSTORE PUSH1 0x64 ADD PUSH2 0x2EA JUMP JUMPDEST PUSH1 0x0 DUP1 JUMPDEST CALLER PUSH1 0x0 SWAP1 DUP2 MSTORE PUSH1 0x8 PUSH1 0x20 SWAP1 DUP2 MSTORE PUSH1 0x40 DUP1 DUP4 KECCAK256 SLOAD DUP4 MSTORE PUSH1 0xF SWAP1 SWAP2 MSTORE SWAP1 KECCAK256 SLOAD DUP2 LT ISZERO PUSH2 0x586 JUMPI CALLER PUSH1 0x0 SWAP1 DUP2 MSTORE PUSH1 0x8 PUSH1 0x20 SWAP1 DUP2 MSTORE PUSH1 0x40 DUP1 DUP4 KECCAK256 SLOAD DUP4 MSTORE PUSH1 0xF SWAP1 SWAP2 MSTORE SWAP1 KECCAK256 DUP1 SLOAD DUP6 SWAP2 SWAP1 DUP4 SWAP1 DUP2 LT PUSH2 0x4C7 JUMPI PUSH2 0x4C7 PUSH2 0x2094 JUMP JUMPDEST SWAP1 PUSH1 0x0 MSTORE PUSH1 0x20 PUSH1 0x0 KECCAK256 SWAP1 PUSH1 0x2 MUL ADD PUSH1 0x0 ADD SLOAD SUB PUSH2 0x574 JUMPI PUSH1 0x0 DUP4 DUP2 MSTORE PUSH1 0xC PUSH1 0x20 MSTORE PUSH1 0x40 DUP2 KECCAK256 PUSH1 0x1 ADD DUP1 SLOAD SWAP2 PUSH2 0x4FB DUP4 PUSH2 0x2044 JUMP JUMPDEST SWAP1 SWAP2 SSTORE POP POP PUSH1 0x5 DUP1 SLOAD SWAP1 PUSH1 0x0 PUSH2 0x510 DUP4 PUSH2 0x2044 JUMP JUMPDEST SWAP1 SWAP2 SSTORE POP POP CALLER PUSH1 0x0 SWAP1 DUP2 MSTORE PUSH1 0x8 PUSH1 0x20 SWAP1 DUP2 MSTORE PUSH1 0x40 DUP1 DUP4 KECCAK256 SLOAD DUP4 MSTORE PUSH1 0xF SWAP1 SWAP2 MSTORE DUP2 KECCAK256 DUP1 SLOAD DUP4 SWAP1 DUP2 LT PUSH2 0x543 JUMPI PUSH2 0x543 PUSH2 0x2094 JUMP JUMPDEST SWAP1 PUSH1 0x0 MSTORE PUSH1 0x20 PUSH1 0x0 KECCAK256 SWAP1 PUSH1 0x2 MUL ADD PUSH1 0x1 ADD PUSH1 0x1 PUSH2 0x100 EXP DUP2 SLOAD DUP2 PUSH1 0xFF MUL NOT AND SWAP1 DUP4 ISZERO ISZERO MUL OR SWAP1 SSTORE POP PUSH1 0x1 SWAP2 POP PUSH2 0x586 JUMP JUMPDEST DUP1 PUSH2 0x57E DUP2 PUSH2 0x2044 JUMP JUMPDEST SWAP2 POP POP PUSH2 0x472 JUMP JUMPDEST POP DUP1 PUSH2 0x5E0 JUMPI PUSH1 0x40 MLOAD PUSH3 0x461BCD PUSH1 0xE5 SHL DUP2 MSTORE PUSH1 0x20 PUSH1 0x4 DUP3 ADD MSTORE PUSH1 0x24 DUP1 DUP3 ADD MSTORE PUSH32 0x596F7520617265206E6F742064656C6567617465642062792074686973207065 PUSH1 0x44 DUP3 ADD MSTORE PUSH4 0x3939B7B7 PUSH1 0xE1 SHL PUSH1 0x64 DUP3 ADD MSTORE PUSH1 0x84 ADD PUSH2 0x2EA JUMP JUMPDEST POP POP POP JUMP JUMPDEST PUSH1 0x6 SLOAD DUP2 SWAP1 PUSH1 0xFF AND PUSH2 0x609 JUMPI PUSH1 0x40 MLOAD PUSH3 0x461BCD PUSH1 0xE5 SHL DUP2 MSTORE PUSH1 0x4 ADD PUSH2 0x2EA SWAP1 PUSH2 0x205D JUMP JUMPDEST PUSH1 0x6 SLOAD PUSH2 0x100 SWAP1 DIV PUSH1 0xFF AND ISZERO PUSH2 0x631 JUMPI PUSH1 0x40 MLOAD PUSH3 0x461BCD PUSH1 0xE5 SHL DUP2 MSTORE PUSH1 0x4 ADD PUSH2 0x2EA SWAP1 PUSH2 0x205D JUMP JUMPDEST CALLER PUSH1 0x0 SWAP1 DUP2 MSTORE PUSH1 0x8 PUSH1 0x20 MSTORE PUSH1 0x40 DUP2 KECCAK256 SLOAD SWAP1 SUB PUSH2 0x68F JUMPI PUSH1 0x40 MLOAD PUSH3 0x461BCD PUSH1 0xE5 SHL DUP2 MSTORE PUSH1 0x20 PUSH1 0x4 DUP3 ADD MSTORE PUSH1 0x1D PUSH1 0x24 DUP3 ADD MSTORE PUSH32 0x596F7520617265206E6F7420656C696769626C6520746F20766F74652E000000 PUSH1 0x44 DUP3 ADD MSTORE PUSH1 0x64 ADD PUSH2 0x2EA JUMP JUMPDEST CALLER PUSH1 0x0 SWAP1 DUP2 MSTORE PUSH1 0xB PUSH1 0x20 MSTORE PUSH1 0x40 SWAP1 KECCAK256 SLOAD PUSH1 0xFF AND ISZERO PUSH2 0x6EF JUMPI PUSH1 0x40 MLOAD PUSH3 0x461BCD PUSH1 0xE5 SHL DUP2 MSTORE PUSH1 0x20 PUSH1 0x4 DUP3 ADD MSTORE PUSH1 0x17 PUSH1 0x24 DUP3 ADD MSTORE PUSH32 0x596F75206861766520616C726561647920766F7465642E000000000000000000 PUSH1 0x44 DUP3 ADD MSTORE PUSH1 0x64 ADD PUSH2 0x2EA JUMP JUMPDEST PUSH1 0x0 DUP2 DUP2 MSTORE PUSH1 0xE PUSH1 0x20 MSTORE PUSH1 0x40 SWAP1 KECCAK256 SLOAD PUSH1 0xFF AND PUSH2 0x74D JUMPI PUSH1 0x40 MLOAD PUSH3 0x461BCD PUSH1 0xE5 SHL DUP2 MSTORE PUSH1 0x20 PUSH1 0x4 DUP3 ADD MSTORE PUSH1 0x1E PUSH1 0x24 DUP3 ADD MSTORE PUSH32 0x5468652063616E646964617465206973206E6F7420656C696769626C652E0000 PUSH1 0x44 DUP3 ADD MSTORE PUSH1 0x64 ADD PUSH2 0x2EA JUMP JUMPDEST PUSH1 0x6 SLOAD PUSH1 0xFF AND PUSH2 0x76F JUMPI PUSH1 0x40 MLOAD PUSH3 0x461BCD PUSH1 0xE5 SHL DUP2 MSTORE PUSH1 0x4 ADD PUSH2 0x2EA SWAP1 PUSH2 0x205D JUMP JUMPDEST PUSH1 0x6 SLOAD PUSH2 0x100 SWAP1 DIV PUSH1 0xFF AND ISZERO PUSH2 0x797 JUMPI PUSH1 0x40 MLOAD PUSH3 0x461BCD PUSH1 0xE5 SHL DUP2 MSTORE PUSH1 0x4 ADD PUSH2 0x2EA SWAP1 PUSH2 0x205D JUMP JUMPDEST CALLER PUSH1 0x0 SWAP1 DUP2 MSTORE PUSH1 0x8 PUSH1 0x20 SWAP1 DUP2 MSTORE PUSH1 0x40 DUP1 DUP4 KECCAK256 SLOAD DUP4 MSTORE PUSH1 0xD SWAP1 SWAP2 MSTORE SWAP1 KECCAK256 SLOAD PUSH1 0xFF AND PUSH2 0x834 JUMPI PUSH1 0x40 MLOAD PUSH3 0x461BCD PUSH1 0xE5 SHL DUP2 MSTORE PUSH1 0x20 PUSH1 0x4 DUP3 ADD MSTORE PUSH1 0x42 PUSH1 0x24 DUP3 ADD MSTORE PUSH32 0x596F7520617265206E6F7420617574686F72697A656420746F20766F74652E20 PUSH1 0x44 DUP3 ADD MSTORE PUSH32 0x506C6561736520636F6E7461637420456C656374696F6E20436F6D6D69737369 PUSH1 0x64 DUP3 ADD MSTORE PUSH2 0x37B7 PUSH1 0xF1 SHL PUSH1 0x84 DUP3 ADD MSTORE PUSH1 0xA4 ADD PUSH2 0x2EA JUMP JUMPDEST PUSH1 0x0 DUP3 DUP2 MSTORE PUSH1 0xC PUSH1 0x20 MSTORE PUSH1 0x40 DUP2 KECCAK256 PUSH1 0x1 ADD DUP1 SLOAD SWAP2 PUSH2 0x851 DUP4 PUSH2 0x2044 JUMP JUMPDEST SWAP1 SWAP2 SSTORE POP POP PUSH1 0x5 DUP1 SLOAD SWAP1 PUSH1 0x0 PUSH2 0x866 DUP4 PUSH2 0x2044 JUMP JUMPDEST SWAP1 SWAP2 SSTORE POP POP CALLER PUSH1 0x0 SWAP1 DUP2 MSTORE PUSH1 0xB PUSH1 0x20 MSTORE PUSH1 0x40 SWAP1 KECCAK256 DUP1 SLOAD PUSH1 0xFF NOT AND PUSH1 0x1 OR SWAP1 SSTORE POP POP JUMP JUMPDEST CALLER PUSH1 0x0 SWAP1 DUP2 MSTORE PUSH1 0xA PUSH1 0x20 MSTORE PUSH1 0x40 SWAP1 KECCAK256 SLOAD ISZERO PUSH2 0x8B6 JUMPI PUSH1 0x40 MLOAD PUSH3 0x461BCD PUSH1 0xE5 SHL DUP2 MSTORE PUSH1 0x4 ADD PUSH2 0x2EA SWAP1 PUSH2 0x20AA JUMP JUMPDEST PUSH1 0x40 DUP1 MLOAD PUSH1 0xA0 DUP2 ADD DUP3 MSTORE PUSH1 0x4 SLOAD DUP1 DUP3 MSTORE PUSH1 0x20 DUP1 DUP4 ADD DUP9 DUP2 MSTORE DUP4 DUP6 ADD DUP9 SWAP1 MSTORE PUSH1 0x60 DUP5 ADD DUP8 SWAP1 MSTORE PUSH1 0x80 DUP5 ADD DUP7 SWAP1 MSTORE PUSH1 0x0 SWAP3 DUP4 MSTORE PUSH1 0x9 SWAP1 SWAP2 MSTORE SWAP3 SWAP1 KECCAK256 DUP2 MLOAD DUP2 SSTORE SWAP2 MLOAD SWAP1 SWAP2 SWAP1 PUSH1 0x1 DUP3 ADD SWAP1 PUSH2 0x907 SWAP1 DUP3 PUSH2 0x2173 JUMP JUMPDEST POP PUSH1 0x40 DUP3 ADD MLOAD PUSH1 0x2 DUP3 ADD SWAP1 PUSH2 0x91C SWAP1 DUP3 PUSH2 0x2173 JUMP JUMPDEST POP PUSH1 0x60 DUP3 ADD MLOAD PUSH1 0x3 DUP3 ADD SWAP1 PUSH2 0x931 SWAP1 DUP3 PUSH2 0x2173 JUMP JUMPDEST POP PUSH1 0x80 DUP3 ADD MLOAD PUSH1 0x4 DUP3 ADD SWAP1 PUSH2 0x946 SWAP1 DUP3 PUSH2 0x2173 JUMP JUMPDEST POP POP PUSH1 0x40 DUP1 MLOAD PUSH1 0x20 DUP1 DUP3 ADD DUP4 MSTORE PUSH1 0x4 DUP1 SLOAD DUP4 MSTORE CALLER PUSH1 0x0 SWAP1 DUP2 MSTORE PUSH1 0xA DUP4 MSTORE DUP5 DUP2 KECCAK256 SWAP4 MLOAD SWAP1 SWAP4 SSTORE DUP4 MLOAD DUP1 DUP4 ADD DUP6 MSTORE DUP4 DUP2 MSTORE DUP2 SLOAD DUP5 MSTORE PUSH1 0xE DUP4 MSTORE DUP5 DUP5 KECCAK256 SWAP1 MLOAD DUP2 SLOAD PUSH1 0xFF NOT AND SWAP1 ISZERO ISZERO OR SWAP1 SSTORE DUP1 SLOAD DUP4 MSTORE PUSH1 0xC DUP3 MSTORE DUP4 DUP4 KECCAK256 PUSH1 0x1 SWAP1 DUP2 ADD DUP5 SWAP1 SSTORE SWAP1 SLOAD DUP4 MSTORE PUSH1 0x9 SWAP1 SWAP2 MSTORE SWAP2 DUP2 KECCAK256 PUSH1 0x10 DUP1 SLOAD DUP1 DUP6 ADD DUP3 SSTORE SWAP3 MSTORE DUP1 SLOAD PUSH32 0x1B6847DC741A1B0CD08D278845F9D819D87B734759AFB55FE2DE5CB82A9AE672 PUSH1 0x5 SWAP1 SWAP4 MUL SWAP3 DUP4 ADD SWAP1 DUP2 SSTORE SWAP1 SWAP4 POP SWAP2 PUSH32 0x1B6847DC741A1B0CD08D278845F9D819D87B734759AFB55FE2DE5CB82A9AE673 SWAP1 SWAP2 ADD SWAP1 PUSH2 0xA1B SWAP1 DUP5 ADD DUP3 PUSH2 0x2233 JUMP JUMPDEST POP PUSH1 0x2 DUP2 DUP2 ADD SWAP1 PUSH2 0xA2E SWAP1 DUP5 ADD DUP3 PUSH2 0x2233 JUMP JUMPDEST POP PUSH1 0x3 DUP2 DUP2 ADD SWAP1 PUSH2 0xA41 SWAP1 DUP5 ADD DUP3 PUSH2 0x2233 JUMP JUMPDEST POP PUSH1 0x4 DUP2 DUP2 ADD SWAP1 PUSH2 0xA54 SWAP1 DUP5 ADD DUP3 PUSH2 0x2233 JUMP JUMPDEST POP POP PUSH1 0x4 DUP1 SLOAD SWAP2 POP PUSH1 0x0 PUSH2 0xA67 DUP4 PUSH2 0x2044 JUMP JUMPDEST SWAP2 SWAP1 POP SSTORE POP PUSH32 0x11D7002257CA02E998E3D17112A6298CF2BB8B3B44ECE5E8A02E1E78C7D2DC2B CALLER PUSH1 0x40 MLOAD DUP1 PUSH1 0x40 ADD PUSH1 0x40 MSTORE DUP1 PUSH1 0x17 DUP2 MSTORE PUSH1 0x20 ADD PUSH23 0x149959DA5CDD1C985D1A5BDB8814DD58D8D95CDCD99D5B PUSH1 0x4A SHL DUP2 MSTORE POP PUSH1 0x40 MLOAD PUSH2 0xACC SWAP3 SWAP2 SWAP1 PUSH2 0x230E JUMP JUMPDEST PUSH1 0x40 MLOAD DUP1 SWAP2 SUB SWAP1 LOG1 PUSH1 0x2 SLOAD PUSH1 0x40 DUP1 MLOAD PUSH1 0x1 PUSH1 0x1 PUSH1 0xA0 SHL SUB SWAP1 SWAP3 AND DUP3 MSTORE PUSH1 0x20 DUP3 ADD DUP2 SWAP1 MSTORE PUSH1 0x22 SWAP1 DUP3 ADD MSTORE PUSH32 0x5265717565737420666F722043616E6469646174652052656769737472617469 PUSH1 0x60 DUP3 ADD MSTORE PUSH2 0x37B7 PUSH1 0xF1 SHL PUSH1 0x80 DUP3 ADD MSTORE PUSH32 0x73EA8B385CDE3D60501D54BCCC28C7CCFF4841FF66EAE0201CBB1FAFE237FCE6 SWAP1 PUSH1 0xA0 ADD JUMPDEST PUSH1 0x40 MLOAD DUP1 SWAP2 SUB SWAP1 LOG1 POP POP POP POP JUMP JUMPDEST PUSH1 0x2 SLOAD PUSH1 0x1 PUSH1 0x1 PUSH1 0xA0 SHL SUB AND CALLER EQ PUSH2 0xB84 JUMPI PUSH1 0x40 MLOAD PUSH3 0x461BCD PUSH1 0xE5 SHL DUP2 MSTORE PUSH1 0x4 ADD PUSH2 0x2EA SWAP1 PUSH2 0x2001 JUMP JUMPDEST PUSH1 0x6 SLOAD PUSH1 0xFF AND ISZERO PUSH2 0xBB0 JUMPI PUSH1 0x6 SLOAD PUSH2 0x100 SWAP1 DIV PUSH1 0xFF AND PUSH2 0xBAE JUMPI PUSH1 0x6 DUP1 SLOAD PUSH2 0xFF00 NOT AND PUSH2 0x100 OR SWAP1 SSTORE JUMPDEST JUMP JUMPDEST PUSH1 0x40 MLOAD PUSH3 0x461BCD PUSH1 0xE5 SHL DUP2 MSTORE PUSH1 0x20 PUSH1 0x4 DUP3 ADD DUP2 SWAP1 MSTORE PUSH1 0x24 DUP3 ADD MSTORE PUSH32 0x54686520656C656374696F6E206973206E6F742073746172746564207965742E PUSH1 0x44 DUP3 ADD MSTORE PUSH1 0x64 ADD PUSH2 0x2EA JUMP JUMPDEST CALLER PUSH1 0x0 SWAP1 DUP2 MSTORE PUSH1 0x8 PUSH1 0x20 MSTORE PUSH1 0x40 SWAP1 KECCAK256 SLOAD ISZERO PUSH2 0xC25 JUMPI PUSH1 0x40 MLOAD PUSH3 0x461BCD PUSH1 0xE5 SHL DUP2 MSTORE PUSH1 0x4 ADD PUSH2 0x2EA SWAP1 PUSH2 0x20AA JUMP JUMPDEST PUSH1 0x40 DUP1 MLOAD PUSH1 0xA0 DUP2 ADD DUP3 MSTORE PUSH1 0x3 SLOAD DUP1 DUP3 MSTORE PUSH1 0x20 DUP1 DUP4 ADD DUP9 DUP2 MSTORE DUP4 DUP6 ADD DUP9 SWAP1 MSTORE PUSH1 0xFF DUP8 AND PUSH1 0x60 DUP6 ADD MSTORE PUSH1 0x80 DUP5 ADD DUP7 SWAP1 MSTORE PUSH1 0x0 SWAP3 DUP4 MSTORE PUSH1 0x7 SWAP1 SWAP2 MSTORE SWAP3 SWAP1 KECCAK256 DUP2 MLOAD DUP2 SSTORE SWAP2 MLOAD SWAP1 SWAP2 SWAP1 PUSH1 0x1 DUP3 ADD SWAP1 PUSH2 0xC78 SWAP1 DUP3 PUSH2 0x2173 JUMP JUMPDEST POP PUSH1 0x40 DUP3 ADD MLOAD PUSH1 0x2 DUP3 ADD SWAP1 PUSH2 0xC8D SWAP1 DUP3 PUSH2 0x2173 JUMP JUMPDEST POP PUSH1 0x60 DUP3 ADD MLOAD PUSH1 0x3 DUP3 ADD DUP1 SLOAD PUSH1 0xFF NOT AND PUSH1 0xFF SWAP1 SWAP3 AND SWAP2 SWAP1 SWAP2 OR SWAP1 SSTORE PUSH1 0x80 DUP3 ADD MLOAD PUSH1 0x4 DUP3 ADD SWAP1 PUSH2 0xCBC SWAP1 DUP3 PUSH2 0x2173 JUMP JUMPDEST POP POP PUSH1 0x40 DUP1 MLOAD PUSH1 0x20 DUP1 DUP3 ADD DUP4 MSTORE PUSH1 0x3 DUP1 SLOAD DUP4 MSTORE CALLER PUSH1 0x0 DUP2 DUP2 MSTORE PUSH1 0x8 DUP5 MSTORE DUP6 DUP2 KECCAK256 SWAP5 MLOAD SWAP1 SWAP5 SSTORE DUP5 MLOAD DUP1 DUP5 ADD DUP7 MSTORE DUP5 DUP2 MSTORE DUP3 SLOAD DUP6 MSTORE PUSH1 0xD DUP5 MSTORE DUP6 DUP6 KECCAK256 SWAP1 MLOAD DUP2 SLOAD SWAP1 ISZERO ISZERO PUSH1 0xFF NOT SWAP2 DUP3 AND OR SWAP1 SWAP2 SSTORE SWAP1 DUP5 MSTORE PUSH1 0xB SWAP1 SWAP3 MSTORE SWAP3 DUP3 KECCAK256 DUP1 SLOAD SWAP1 SWAP2 AND SWAP1 SSTORE DUP2 SLOAD SWAP3 POP PUSH2 0xD26 DUP4 PUSH2 0x2044 JUMP JUMPDEST SWAP2 SWAP1 POP SSTORE POP PUSH32 0xE54FED3D6F8EA8D23D023956C25FEFD884A7258386B09AC1C4783EF5D1C51B06 CALLER PUSH1 0x40 MLOAD DUP1 PUSH1 0x40 ADD PUSH1 0x40 MSTORE DUP1 PUSH1 0x17 DUP2 MSTORE PUSH1 0x20 ADD PUSH23 0x149959DA5CDD1C985D1A5BDB8814DD58D8D95CDCD99D5B PUSH1 0x4A SHL DUP2 MSTORE POP PUSH1 0x40 MLOAD PUSH2 0xD8B SWAP3 SWAP2 SWAP1 PUSH2 0x230E JUMP JUMPDEST PUSH1 0x40 MLOAD DUP1 SWAP2 SUB SWAP1 LOG1 PUSH1 0x2 SLOAD PUSH1 0x40 DUP1 MLOAD PUSH1 0x1 PUSH1 0x1 PUSH1 0xA0 SHL SUB SWAP1 SWAP3 AND DUP3 MSTORE PUSH1 0x20 DUP3 ADD DUP2 SWAP1 MSTORE PUSH1 0x1E SWAP1 DUP3 ADD MSTORE PUSH32 0x5265717565737420666F7220566F74657220526567697374726174696F6E0000 PUSH1 0x60 DUP3 ADD MSTORE PUSH32 0x73EA8B385CDE3D60501D54BCCC28C7CCFF4841FF66EAE0201CBB1FAFE237FCE6 SWAP1 PUSH1 0x80 ADD PUSH2 0xB4C JUMP JUMPDEST PUSH1 0x2 SLOAD PUSH1 0x1 PUSH1 0x1 PUSH1 0xA0 SHL SUB AND CALLER EQ PUSH2 0xE2E JUMPI PUSH1 0x40 MLOAD PUSH3 0x461BCD PUSH1 0xE5 SHL DUP2 MSTORE PUSH1 0x4 ADD PUSH2 0x2EA SWAP1 PUSH2 0x2001 JUMP JUMPDEST PUSH1 0x6 SLOAD PUSH1 0xFF AND PUSH2 0xE47 JUMPI PUSH1 0x6 DUP1 SLOAD PUSH1 0xFF NOT AND PUSH1 0x1 OR SWAP1 SSTORE JUMP JUMPDEST PUSH1 0x40 MLOAD PUSH3 0x461BCD PUSH1 0xE5 SHL DUP2 MSTORE PUSH1 0x20 PUSH1 0x4 DUP3 ADD MSTORE PUSH1 0x24 DUP1 DUP3 ADD MSTORE PUSH32 0x54686520656C656374696F6E20697320616C726561647920696E2070726F6772 PUSH1 0x44 DUP3 ADD MSTORE PUSH4 0x32B9B997 PUSH1 0xE1 SHL PUSH1 0x64 DUP3 ADD MSTORE PUSH1 0x84 ADD PUSH2 0x2EA JUMP JUMPDEST PUSH2 0xECD PUSH1 0x40 MLOAD DUP1 PUSH1 0xA0 ADD PUSH1 0x40 MSTORE DUP1 PUSH1 0x0 DUP2 MSTORE PUSH1 0x20 ADD PUSH1 0x60 DUP2 MSTORE PUSH1 0x20 ADD PUSH1 0x60 DUP2 MSTORE PUSH1 0x20 ADD PUSH1 0x60 DUP2 MSTORE PUSH1 0x20 ADD PUSH1 0x60 DUP2 MSTORE POP SWAP1 JUMP JUMPDEST PUSH1 0x9 PUSH1 0x0 DUP4 DUP2 MSTORE PUSH1 0x20 ADD SWAP1 DUP2 MSTORE PUSH1 0x20 ADD PUSH1 0x0 KECCAK256 PUSH1 0x40 MLOAD DUP1 PUSH1 0xA0 ADD PUSH1 0x40 MSTORE SWAP1 DUP2 PUSH1 0x0 DUP3 ADD SLOAD DUP2 MSTORE PUSH1 0x20 ADD PUSH1 0x1 DUP3 ADD DUP1 SLOAD PUSH2 0xF05 SWAP1 PUSH2 0x20EB JUMP JUMPDEST DUP1 PUSH1 0x1F ADD PUSH1 0x20 DUP1 SWAP2 DIV MUL PUSH1 0x20 ADD PUSH1 0x40 MLOAD SWAP1 DUP2 ADD PUSH1 0x40 MSTORE DUP1 SWAP3 SWAP2 SWAP1 DUP2 DUP2 MSTORE PUSH1 0x20 ADD DUP3 DUP1 SLOAD PUSH2 0xF31 SWAP1 PUSH2 0x20EB JUMP JUMPDEST DUP1 ISZERO PUSH2 0xF7E JUMPI DUP1 PUSH1 0x1F LT PUSH2 0xF53 JUMPI PUSH2 0x100 DUP1 DUP4 SLOAD DIV MUL DUP4 MSTORE SWAP2 PUSH1 0x20 ADD SWAP2 PUSH2 0xF7E JUMP JUMPDEST DUP3 ADD SWAP2 SWAP1 PUSH1 0x0 MSTORE PUSH1 0x20 PUSH1 0x0 KECCAK256 SWAP1 JUMPDEST DUP2 SLOAD DUP2 MSTORE SWAP1 PUSH1 0x1 ADD SWAP1 PUSH1 0x20 ADD DUP1 DUP4 GT PUSH2 0xF61 JUMPI DUP3 SWAP1 SUB PUSH1 0x1F AND DUP3 ADD SWAP2 JUMPDEST POP POP POP POP POP DUP2 MSTORE PUSH1 0x20 ADD PUSH1 0x2 DUP3 ADD DUP1 SLOAD PUSH2 0xF97 SWAP1 PUSH2 0x20EB JUMP JUMPDEST DUP1 PUSH1 0x1F ADD PUSH1 0x20 DUP1 SWAP2 DIV MUL PUSH1 0x20 ADD PUSH1 0x40 MLOAD SWAP1 DUP2 ADD PUSH1 0x40 MSTORE DUP1 SWAP3 SWAP2 SWAP1 DUP2 DUP2 MSTORE PUSH1 0x20 ADD DUP3 DUP1 SLOAD PUSH2 0xFC3 SWAP1 PUSH2 0x20EB JUMP JUMPDEST DUP1 ISZERO PUSH2 0x1010 JUMPI DUP1 PUSH1 0x1F LT PUSH2 0xFE5 JUMPI PUSH2 0x100 DUP1 DUP4 SLOAD DIV MUL DUP4 MSTORE SWAP2 PUSH1 0x20 ADD SWAP2 PUSH2 0x1010 JUMP JUMPDEST DUP3 ADD SWAP2 SWAP1 PUSH1 0x0 MSTORE PUSH1 0x20 PUSH1 0x0 KECCAK256 SWAP1 JUMPDEST DUP2 SLOAD DUP2 MSTORE SWAP1 PUSH1 0x1 ADD SWAP1 PUSH1 0x20 ADD DUP1 DUP4 GT PUSH2 0xFF3 JUMPI DUP3 SWAP1 SUB PUSH1 0x1F AND DUP3 ADD SWAP2 JUMPDEST POP POP POP POP POP DUP2 MSTORE PUSH1 0x20 ADD PUSH1 0x3 DUP3 ADD DUP1 SLOAD PUSH2 0x1029 SWAP1 PUSH2 0x20EB JUMP JUMPDEST DUP1 PUSH1 0x1F ADD PUSH1 0x20 DUP1 SWAP2 DIV MUL PUSH1 0x20 ADD PUSH1 0x40 MLOAD SWAP1 DUP2 ADD PUSH1 0x40 MSTORE DUP1 SWAP3 SWAP2 SWAP1 DUP2 DUP2 MSTORE PUSH1 0x20 ADD DUP3 DUP1 SLOAD PUSH2 0x1055 SWAP1 PUSH2 0x20EB JUMP JUMPDEST DUP1 ISZERO PUSH2 0x10A2 JUMPI DUP1 PUSH1 0x1F LT PUSH2 0x1077 JUMPI PUSH2 0x100 DUP1 DUP4 SLOAD DIV MUL DUP4 MSTORE SWAP2 PUSH1 0x20 ADD SWAP2 PUSH2 0x10A2 JUMP JUMPDEST DUP3 ADD SWAP2 SWAP1 PUSH1 0x0 MSTORE PUSH1 0x20 PUSH1 0x0 KECCAK256 SWAP1 JUMPDEST DUP2 SLOAD DUP2 MSTORE SWAP1 PUSH1 0x1 ADD SWAP1 PUSH1 0x20 ADD DUP1 DUP4 GT PUSH2 0x1085 JUMPI DUP3 SWAP1 SUB PUSH1 0x1F AND DUP3 ADD SWAP2 JUMPDEST POP POP POP POP POP DUP2 MSTORE PUSH1 0x20 ADD PUSH1 0x4 DUP3 ADD DUP1 SLOAD PUSH2 0x10BB SWAP1 PUSH2 0x20EB JUMP JUMPDEST DUP1 PUSH1 0x1F ADD PUSH1 0x20 DUP1 SWAP2 DIV MUL PUSH1 0x20 ADD PUSH1 0x40 MLOAD SWAP1 DUP2 ADD PUSH1 0x40 MSTORE DUP1 SWAP3 SWAP2 SWAP1 DUP2 DUP2 MSTORE PUSH1 0x20 ADD DUP3 DUP1 SLOAD PUSH2 0x10E7 SWAP1 PUSH2 0x20EB JUMP JUMPDEST DUP1 ISZERO PUSH2 0x1134 JUMPI DUP1 PUSH1 0x1F LT PUSH2 0x1109 JUMPI PUSH2 0x100 DUP1 DUP4 SLOAD DIV MUL DUP4 MSTORE SWAP2 PUSH1 0x20 ADD SWAP2 PUSH2 0x1134 JUMP JUMPDEST DUP3 ADD SWAP2 SWAP1 PUSH1 0x0 MSTORE PUSH1 0x20 PUSH1 0x0 KECCAK256 SWAP1 JUMPDEST DUP2 SLOAD DUP2 MSTORE SWAP1 PUSH1 0x1 ADD SWAP1 PUSH1 0x20 ADD DUP1 DUP4 GT PUSH2 0x1117 JUMPI DUP3 SWAP1 SUB PUSH1 0x1F AND DUP3 ADD SWAP2 JUMPDEST POP POP POP POP POP DUP2 MSTORE POP POP SWAP1 POP SWAP2 SWAP1 POP JUMP JUMPDEST PUSH1 0x2 SLOAD PUSH1 0x1 PUSH1 0x1 PUSH1 0xA0 SHL SUB AND CALLER EQ PUSH2 0x116E JUMPI PUSH1 0x40 MLOAD PUSH3 0x461BCD PUSH1 0xE5 SHL DUP2 MSTORE PUSH1 0x4 ADD PUSH2 0x2EA SWAP1 PUSH2 0x2001 JUMP JUMPDEST PUSH1 0x0 DUP2 DUP2 MSTORE PUSH1 0xD PUSH1 0x20 MSTORE PUSH1 0x40 SWAP1 KECCAK256 SLOAD PUSH1 0xFF AND PUSH2 0x11AA JUMPI PUSH1 0x0 DUP2 DUP2 MSTORE PUSH1 0xD PUSH1 0x20 MSTORE PUSH1 0x40 DUP2 KECCAK256 DUP1 SLOAD PUSH1 0xFF NOT AND PUSH1 0x1 OR SWAP1 SSTORE DUP1 SLOAD SWAP1 DUP1 PUSH2 0x331 DUP4 PUSH2 0x2044 JUMP JUMPDEST PUSH1 0x40 MLOAD PUSH3 0x461BCD PUSH1 0xE5 SHL DUP2 MSTORE PUSH1 0x20 PUSH1 0x4 DUP3 ADD MSTORE PUSH1 0x24 DUP1 DUP3 ADD MSTORE PUSH32 0x54686520766F7465722068617320616C7265616479206265656E20617070726F PUSH1 0x44 DUP3 ADD MSTORE PUSH4 0x3B32B217 PUSH1 0xE1 SHL PUSH1 0x64 DUP3 ADD MSTORE PUSH1 0x84 ADD PUSH2 0x2EA JUMP JUMPDEST CALLER PUSH1 0x0 SWAP1 DUP2 MSTORE PUSH1 0x8 PUSH1 0x20 MSTORE PUSH1 0x40 DUP2 KECCAK256 SLOAD DUP4 SWAP2 SUB PUSH2 0x125D JUMPI PUSH1 0x40 MLOAD PUSH3 0x461BCD PUSH1 0xE5 SHL DUP2 MSTORE PUSH1 0x20 PUSH1 0x4 DUP3 ADD DUP2 SWAP1 MSTORE PUSH1 0x24 DUP3 ADD MSTORE PUSH32 0x596F7520617265206E6F7420616E20617574686F72697A656420766F7465722E PUSH1 0x44 DUP3 ADD MSTORE PUSH1 0x64 ADD PUSH2 0x2EA JUMP JUMPDEST CALLER PUSH1 0x0 SWAP1 DUP2 MSTORE PUSH1 0x8 PUSH1 0x20 SWAP1 DUP2 MSTORE PUSH1 0x40 DUP1 DUP4 KECCAK256 SLOAD DUP4 MSTORE PUSH1 0xD SWAP1 SWAP2 MSTORE SWAP1 KECCAK256 SLOAD PUSH1 0xFF AND PUSH2 0x12C9 JUMPI PUSH1 0x40 MLOAD PUSH3 0x461BCD PUSH1 0xE5 SHL DUP2 MSTORE PUSH1 0x20 PUSH1 0x4 DUP3 ADD DUP2 SWAP1 MSTORE PUSH1 0x24 DUP3 ADD MSTORE PUSH32 0x596F7520617265206E6F7420616E20617574686F72697A656420766F7465722E PUSH1 0x44 DUP3 ADD MSTORE PUSH1 0x64 ADD PUSH2 0x2EA JUMP JUMPDEST PUSH1 0x0 DUP2 DUP2 MSTORE PUSH1 0xD PUSH1 0x20 MSTORE PUSH1 0x40 SWAP1 KECCAK256 SLOAD PUSH1 0xFF AND PUSH2 0x1331 JUMPI PUSH1 0x40 MLOAD PUSH3 0x461BCD PUSH1 0xE5 SHL DUP2 MSTORE PUSH1 0x20 PUSH1 0x4 DUP3 ADD MSTORE PUSH1 0x21 PUSH1 0x24 DUP3 ADD MSTORE PUSH32 0x5468657920617265206E6F7420616E20617574686F72697A656420766F746572 PUSH1 0x44 DUP3 ADD MSTORE PUSH1 0x17 PUSH1 0xF9 SHL PUSH1 0x64 DUP3 ADD MSTORE PUSH1 0x84 ADD PUSH2 0x2EA JUMP JUMPDEST PUSH1 0x0 DUP4 DUP2 MSTORE PUSH1 0xF PUSH1 0x20 SWAP1 DUP2 MSTORE PUSH1 0x40 DUP1 DUP4 KECCAK256 DUP2 MLOAD PUSH1 0x60 DUP2 ADD DUP4 MSTORE CALLER DUP6 MSTORE PUSH1 0x8 DUP5 MSTORE SWAP2 SWAP1 SWAP4 KECCAK256 SLOAD DUP2 MSTORE SWAP1 DUP2 ADD DUP5 PUSH1 0x5 DUP2 GT ISZERO PUSH2 0x136D JUMPI PUSH2 0x136D PUSH2 0x233A JUMP JUMPDEST DUP2 MSTORE PUSH1 0x1 PUSH1 0x20 SWAP2 DUP3 ADD DUP2 SWAP1 MSTORE DUP4 SLOAD DUP1 DUP3 ADD DUP6 SSTORE PUSH1 0x0 SWAP5 DUP6 MSTORE SWAP4 DUP3 SWAP1 KECCAK256 DUP4 MLOAD PUSH1 0x2 SWAP1 SWAP6 MUL ADD SWAP4 DUP5 SSTORE SWAP1 DUP3 ADD MLOAD DUP4 DUP3 ADD DUP1 SLOAD SWAP4 SWAP5 SWAP4 SWAP2 SWAP3 SWAP1 SWAP2 PUSH1 0xFF NOT AND SWAP1 DUP4 PUSH1 0x5 DUP2 GT ISZERO PUSH2 0x13BB JUMPI PUSH2 0x13BB PUSH2 0x233A JUMP JUMPDEST MUL OR SWAP1 SSTORE POP PUSH1 0x40 SWAP2 DUP3 ADD MLOAD PUSH1 0x1 SWAP2 DUP3 ADD DUP1 SLOAD SWAP2 ISZERO ISZERO PUSH2 0x100 MUL PUSH2 0xFF00 NOT SWAP1 SWAP3 AND SWAP2 SWAP1 SWAP2 OR SWAP1 SSTORE CALLER PUSH1 0x0 SWAP1 DUP2 MSTORE PUSH1 0xB PUSH1 0x20 MSTORE SWAP2 SWAP1 SWAP2 KECCAK256 DUP1 SLOAD PUSH1 0xFF NOT AND SWAP1 SWAP2 OR SWAP1 SSTORE POP POP POP JUMP JUMPDEST PUSH1 0x6 SLOAD PUSH1 0x0 SWAP1 PUSH2 0x100 SWAP1 DIV PUSH1 0xFF AND PUSH2 0x142A JUMPI PUSH1 0x40 MLOAD PUSH3 0x461BCD PUSH1 0xE5 SHL DUP2 MSTORE PUSH1 0x4 ADD PUSH2 0x2EA SWAP1 PUSH2 0x2350 JUMP JUMPDEST POP PUSH1 0x0 SWAP1 DUP2 MSTORE PUSH1 0xC PUSH1 0x20 MSTORE PUSH1 0x40 SWAP1 KECCAK256 PUSH1 0x1 ADD SLOAD SWAP1 JUMP JUMPDEST PUSH1 0x2 SLOAD PUSH1 0x1 PUSH1 0x1 PUSH1 0xA0 SHL SUB AND CALLER EQ PUSH2 0x146A JUMPI PUSH1 0x40 MLOAD PUSH3 0x461BCD PUSH1 0xE5 SHL DUP2 MSTORE PUSH1 0x4 ADD PUSH2 0x2EA SWAP1 PUSH2 0x2001 JUMP JUMPDEST PUSH1 0x0 DUP2 DUP2 MSTORE PUSH1 0xE PUSH1 0x20 MSTORE PUSH1 0x40 SWAP1 KECCAK256 SLOAD PUSH1 0xFF AND ISZERO PUSH2 0x14DA JUMPI PUSH1 0x0 DUP2 DUP2 MSTORE PUSH1 0xE PUSH1 0x20 MSTORE PUSH1 0x40 DUP2 KECCAK256 DUP1 SLOAD PUSH1 0xFF NOT AND SWAP1 SSTORE PUSH1 0x1 DUP1 SLOAD SWAP2 PUSH2 0x14A5 DUP4 PUSH2 0x239A JUMP JUMPDEST SWAP1 SWAP2 SSTORE POP POP PUSH1 0x40 MLOAD DUP2 DUP2 MSTORE PUSH32 0xFB0048BB5704410776033BB8355286FB6922CC0623412BD454152BAC55397F35 SWAP1 PUSH1 0x20 ADD PUSH2 0x362 JUMP JUMPDEST PUSH1 0x40 MLOAD PUSH3 0x461BCD PUSH1 0xE5 SHL DUP2 MSTORE PUSH1 0x20 PUSH1 0x4 DUP3 ADD MSTORE PUSH1 0x32 PUSH1 0x24 DUP3 ADD MSTORE PUSH32 0x5468652063616E6469646174652068617320616C7265616479206265656E2064 PUSH1 0x44 DUP3 ADD MSTORE PUSH18 0x32B1B634B732B21037B9103130B73732B217 PUSH1 0x71 SHL PUSH1 0x64 DUP3 ADD MSTORE PUSH1 0x84 ADD PUSH2 0x2EA JUMP JUMPDEST PUSH1 0x60 PUSH1 0x0 DUP1 PUSH1 0x6 PUSH1 0x1 SWAP1 SLOAD SWAP1 PUSH2 0x100 EXP SWAP1 DIV PUSH1 0xFF AND PUSH2 0x156E JUMPI PUSH1 0x40 MLOAD PUSH3 0x461BCD PUSH1 0xE5 SHL DUP2 MSTORE PUSH1 0x4 ADD PUSH2 0x2EA SWAP1 PUSH2 0x2350 JUMP JUMPDEST PUSH1 0x1 PUSH1 0x0 SWAP1 DUP2 MSTORE PUSH32 0xD421A5181C571BBA3F01190C922C3B2A896FC1D84E86C9F17AC10E67EBEF8B5D SLOAD PUSH1 0x9 PUSH1 0x20 MSTORE PUSH32 0x92E85D02570A8092D09A6E3A57665BC3815A2699A4074001BF1CCABF660F5A36 SLOAD SWAP1 SWAP2 SWAP1 PUSH1 0x2 JUMPDEST PUSH1 0x1 SLOAD DUP2 GT PUSH2 0x163D JUMPI PUSH1 0x0 DUP2 DUP2 MSTORE PUSH1 0xC PUSH1 0x20 MSTORE PUSH1 0x40 SWAP1 KECCAK256 PUSH1 0x1 ADD SLOAD DUP5 LT ISZERO PUSH2 0x160E JUMPI PUSH1 0x0 DUP2 DUP2 MSTORE PUSH1 0xC PUSH1 0x20 SWAP1 DUP2 MSTORE PUSH1 0x40 DUP1 DUP4 KECCAK256 PUSH1 0x1 ADD SLOAD PUSH1 0x9 SWAP1 SWAP3 MSTORE SWAP1 SWAP2 KECCAK256 SLOAD SWAP1 SWAP5 POP SWAP2 POP PUSH2 0x162B JUMP JUMPDEST PUSH1 0x0 DUP2 DUP2 MSTORE PUSH1 0xC PUSH1 0x20 MSTORE PUSH1 0x40 SWAP1 KECCAK256 PUSH1 0x1 ADD SLOAD DUP5 SWAP1 SUB PUSH2 0x162B JUMPI DUP1 SWAP3 POP JUMPDEST DUP1 PUSH2 0x1635 DUP2 PUSH2 0x2044 JUMP JUMPDEST SWAP2 POP POP PUSH2 0x15C4 JUMP JUMPDEST POP DUP2 PUSH1 0x0 SUB PUSH2 0x1697 JUMPI PUSH1 0x10 DUP2 DUP2 SLOAD DUP2 LT PUSH2 0x1659 JUMPI PUSH2 0x1659 PUSH2 0x2094 JUMP JUMPDEST SWAP1 PUSH1 0x0 MSTORE PUSH1 0x20 PUSH1 0x0 KECCAK256 SWAP1 PUSH1 0x5 MUL ADD PUSH1 0x1 ADD PUSH1 0x40 MLOAD PUSH1 0x20 ADD PUSH2 0x167A SWAP2 SWAP1 PUSH2 0x23B1 JUMP JUMPDEST PUSH1 0x40 DUP1 MLOAD PUSH1 0x1F NOT DUP2 DUP5 SUB ADD DUP2 MSTORE SWAP2 SWAP1 MSTORE SWAP7 SWAP1 SWAP6 POP SWAP2 SWAP4 POP SWAP1 SWAP2 POP POP JUMP JUMPDEST PUSH1 0x40 DUP1 MLOAD DUP1 DUP3 ADD SWAP1 SWAP2 MSTORE PUSH1 0x19 DUP2 MSTORE PUSH32 0x54686520726573756C7420697320546965204265747765656E00000000000000 PUSH1 0x20 DUP3 ADD MSTORE SWAP7 SWAP1 SWAP6 POP SWAP1 SWAP4 POP SWAP2 POP POP JUMP JUMPDEST PUSH1 0x60 PUSH1 0x10 DUP1 SLOAD DUP1 PUSH1 0x20 MUL PUSH1 0x20 ADD PUSH1 0x40 MLOAD SWAP1 DUP2 ADD PUSH1 0x40 MSTORE DUP1 SWAP3 SWAP2 SWAP1 DUP2 DUP2 MSTORE PUSH1 0x20 ADD PUSH1 0x0 SWAP1 JUMPDEST DUP3 DUP3 LT ISZERO PUSH2 0x197F JUMPI DUP4 DUP3 SWAP1 PUSH1 0x0 MSTORE PUSH1 0x20 PUSH1 0x0 KECCAK256 SWAP1 PUSH1 0x5 MUL ADD PUSH1 0x40 MLOAD DUP1 PUSH1 0xA0 ADD PUSH1 0x40 MSTORE SWAP1 DUP2 PUSH1 0x0 DUP3 ADD SLOAD DUP2 MSTORE PUSH1 0x20 ADD PUSH1 0x1 DUP3 ADD DUP1 SLOAD PUSH2 0x1738 SWAP1 PUSH2 0x20EB JUMP JUMPDEST DUP1 PUSH1 0x1F ADD PUSH1 0x20 DUP1 SWAP2 DIV MUL PUSH1 0x20 ADD PUSH1 0x40 MLOAD SWAP1 DUP2 ADD PUSH1 0x40 MSTORE DUP1 SWAP3 SWAP2 SWAP1 DUP2 DUP2 MSTORE PUSH1 0x20 ADD DUP3 DUP1 SLOAD PUSH2 0x1764 SWAP1 PUSH2 0x20EB JUMP JUMPDEST DUP1 ISZERO PUSH2 0x17B1 JUMPI DUP1 PUSH1 0x1F LT PUSH2 0x1786 JUMPI PUSH2 0x100 DUP1 DUP4 SLOAD DIV MUL DUP4 MSTORE SWAP2 PUSH1 0x20 ADD SWAP2 PUSH2 0x17B1 JUMP JUMPDEST DUP3 ADD SWAP2 SWAP1 PUSH1 0x0 MSTORE PUSH1 0x20 PUSH1 0x0 KECCAK256 SWAP1 JUMPDEST DUP2 SLOAD DUP2 MSTORE SWAP1 PUSH1 0x1 ADD SWAP1 PUSH1 0x20 ADD DUP1 DUP4 GT PUSH2 0x1794 JUMPI DUP3 SWAP1 SUB PUSH1 0x1F AND DUP3 ADD SWAP2 JUMPDEST POP POP POP POP POP DUP2 MSTORE PUSH1 0x20 ADD PUSH1 0x2 DUP3 ADD DUP1 SLOAD PUSH2 0x17CA SWAP1 PUSH2 0x20EB JUMP JUMPDEST DUP1 PUSH1 0x1F ADD PUSH1 0x20 DUP1 SWAP2 DIV MUL PUSH1 0x20 ADD PUSH1 0x40 MLOAD SWAP1 DUP2 ADD PUSH1 0x40 MSTORE DUP1 SWAP3 SWAP2 SWAP1 DUP2 DUP2 MSTORE PUSH1 0x20 ADD DUP3 DUP1 SLOAD PUSH2 0x17F6 SWAP1 PUSH2 0x20EB JUMP JUMPDEST DUP1 ISZERO PUSH2 0x1843 JUMPI DUP1 PUSH1 0x1F LT PUSH2 0x1818 JUMPI PUSH2 0x100 DUP1 DUP4 SLOAD DIV MUL DUP4 MSTORE SWAP2 PUSH1 0x20 ADD SWAP2 PUSH2 0x1843 JUMP JUMPDEST DUP3 ADD SWAP2 SWAP1 PUSH1 0x0 MSTORE PUSH1 0x20 PUSH1 0x0 KECCAK256 SWAP1 JUMPDEST DUP2 SLOAD DUP2 MSTORE SWAP1 PUSH1 0x1 ADD SWAP1 PUSH1 0x20 ADD DUP1 DUP4 GT PUSH2 0x1826 JUMPI DUP3 SWAP1 SUB PUSH1 0x1F AND DUP3 ADD SWAP2 JUMPDEST POP POP POP POP POP DUP2 MSTORE PUSH1 0x20 ADD PUSH1 0x3 DUP3 ADD DUP1 SLOAD PUSH2 0x185C SWAP1 PUSH2 0x20EB JUMP JUMPDEST DUP1 PUSH1 0x1F ADD PUSH1 0x20 DUP1 SWAP2 DIV MUL PUSH1 0x20 ADD PUSH1 0x40 MLOAD SWAP1 DUP2 ADD PUSH1 0x40 MSTORE DUP1 SWAP3 SWAP2 SWAP1 DUP2 DUP2 MSTORE PUSH1 0x20 ADD DUP3 DUP1 SLOAD PUSH2 0x1888 SWAP1 PUSH2 0x20EB JUMP JUMPDEST DUP1 ISZERO PUSH2 0x18D5 JUMPI DUP1 PUSH1 0x1F LT PUSH2 0x18AA JUMPI PUSH2 0x100 DUP1 DUP4 SLOAD DIV MUL DUP4 MSTORE SWAP2 PUSH1 0x20 ADD SWAP2 PUSH2 0x18D5 JUMP JUMPDEST DUP3 ADD SWAP2 SWAP1 PUSH1 0x0 MSTORE PUSH1 0x20 PUSH1 0x0 KECCAK256 SWAP1 JUMPDEST DUP2 SLOAD DUP2 MSTORE SWAP1 PUSH1 0x1 ADD SWAP1 PUSH1 0x20 ADD DUP1 DUP4 GT PUSH2 0x18B8 JUMPI DUP3 SWAP1 SUB PUSH1 0x1F AND DUP3 ADD SWAP2 JUMPDEST POP POP POP POP POP DUP2 MSTORE PUSH1 0x20 ADD PUSH1 0x4 DUP3 ADD DUP1 SLOAD PUSH2 0x18EE SWAP1 PUSH2 0x20EB JUMP JUMPDEST DUP1 PUSH1 0x1F ADD PUSH1 0x20 DUP1 SWAP2 DIV MUL PUSH1 0x20 ADD PUSH1 0x40 MLOAD SWAP1 DUP2 ADD PUSH1 0x40 MSTORE DUP1 SWAP3 SWAP2 SWAP1 DUP2 DUP2 MSTORE PUSH1 0x20 ADD DUP3 DUP1 SLOAD PUSH2 0x191A SWAP1 PUSH2 0x20EB JUMP JUMPDEST DUP1 ISZERO PUSH2 0x1967 JUMPI DUP1 PUSH1 0x1F LT PUSH2 0x193C JUMPI PUSH2 0x100 DUP1 DUP4 SLOAD DIV MUL DUP4 MSTORE SWAP2 PUSH1 0x20 ADD SWAP2 PUSH2 0x1967 JUMP JUMPDEST DUP3 ADD SWAP2 SWAP1 PUSH1 0x0 MSTORE PUSH1 0x20 PUSH1 0x0 KECCAK256 SWAP1 JUMPDEST DUP2 SLOAD DUP2 MSTORE SWAP1 PUSH1 0x1 ADD SWAP1 PUSH1 0x20 ADD DUP1 DUP4 GT PUSH2 0x194A JUMPI DUP3 SWAP1 SUB PUSH1 0x1F AND DUP3 ADD SWAP2 JUMPDEST POP POP POP POP POP DUP2 MSTORE POP POP DUP2 MSTORE PUSH1 0x20 ADD SWAP1 PUSH1 0x1 ADD SWAP1 PUSH2 0x16FB JUMP JUMPDEST POP POP POP POP SWAP1 POP SWAP1 JUMP JUMPDEST PUSH1 0x2 SLOAD PUSH1 0x1 PUSH1 0x1 PUSH1 0xA0 SHL SUB AND CALLER EQ PUSH2 0x19B2 JUMPI PUSH1 0x40 MLOAD PUSH3 0x461BCD PUSH1 0xE5 SHL DUP2 MSTORE PUSH1 0x4 ADD PUSH2 0x2EA SWAP1 PUSH2 0x2001 JUMP JUMPDEST PUSH1 0x0 DUP2 DUP2 MSTORE PUSH1 0xD PUSH1 0x20 MSTORE PUSH1 0x40 SWAP1 KECCAK256 SLOAD PUSH1 0xFF AND ISZERO PUSH2 0x19EC JUMPI PUSH1 0x0 DUP2 DUP2 MSTORE PUSH1 0xD PUSH1 0x20 MSTORE PUSH1 0x40 DUP2 KECCAK256 DUP1 SLOAD PUSH1 0xFF NOT AND SWAP1 SSTORE DUP1 SLOAD SWAP1 DUP1 PUSH2 0x14A5 DUP4 PUSH2 0x239A JUMP JUMPDEST PUSH1 0x40 MLOAD PUSH3 0x461BCD PUSH1 0xE5 SHL DUP2 MSTORE PUSH1 0x20 PUSH1 0x4 DUP3 ADD MSTORE PUSH1 0x2E PUSH1 0x24 DUP3 ADD MSTORE PUSH32 0x54686520766F7465722068617320616C7265616479206265656E206465636C69 PUSH1 0x44 DUP3 ADD MSTORE PUSH14 0x3732B21037B9103130B73732B217 PUSH1 0x91 SHL PUSH1 0x64 DUP3 ADD MSTORE PUSH1 0x84 ADD PUSH2 0x2EA JUMP JUMPDEST PUSH2 0x1A80 PUSH1 0x40 MLOAD DUP1 PUSH1 0xA0 ADD PUSH1 0x40 MSTORE DUP1 PUSH1 0x0 DUP2 MSTORE PUSH1 0x20 ADD PUSH1 0x60 DUP2 MSTORE PUSH1 0x20 ADD PUSH1 0x60 DUP2 MSTORE PUSH1 0x20 ADD PUSH1 0x0 PUSH1 0xFF AND DUP2 MSTORE PUSH1 0x20 ADD PUSH1 0x60 DUP2 MSTORE POP SWAP1 JUMP JUMPDEST PUSH1 0x7 PUSH1 0x0 DUP4 DUP2 MSTORE PUSH1 0x20 ADD SWAP1 DUP2 MSTORE PUSH1 0x20 ADD PUSH1 0x0 KECCAK256 PUSH1 0x40 MLOAD DUP1 PUSH1 0xA0 ADD PUSH1 0x40 MSTORE SWAP1 DUP2 PUSH1 0x0 DUP3 ADD SLOAD DUP2 MSTORE PUSH1 0x20 ADD PUSH1 0x1 DUP3 ADD DUP1 SLOAD PUSH2 0x1AB8 SWAP1 PUSH2 0x20EB JUMP JUMPDEST DUP1 PUSH1 0x1F ADD PUSH1 0x20 DUP1 SWAP2 DIV MUL PUSH1 0x20 ADD PUSH1 0x40 MLOAD SWAP1 DUP2 ADD PUSH1 0x40 MSTORE DUP1 SWAP3 SWAP2 SWAP1 DUP2 DUP2 MSTORE PUSH1 0x20 ADD DUP3 DUP1 SLOAD PUSH2 0x1AE4 SWAP1 PUSH2 0x20EB JUMP JUMPDEST DUP1 ISZERO PUSH2 0x1B31 JUMPI DUP1 PUSH1 0x1F LT PUSH2 0x1B06 JUMPI PUSH2 0x100 DUP1 DUP4 SLOAD DIV MUL DUP4 MSTORE SWAP2 PUSH1 0x20 ADD SWAP2 PUSH2 0x1B31 JUMP JUMPDEST DUP3 ADD SWAP2 SWAP1 PUSH1 0x0 MSTORE PUSH1 0x20 PUSH1 0x0 KECCAK256 SWAP1 JUMPDEST DUP2 SLOAD DUP2 MSTORE SWAP1 PUSH1 0x1 ADD SWAP1 PUSH1 0x20 ADD DUP1 DUP4 GT PUSH2 0x1B14 JUMPI DUP3 SWAP1 SUB PUSH1 0x1F AND DUP3 ADD SWAP2 JUMPDEST POP POP POP POP POP DUP2 MSTORE PUSH1 0x20 ADD PUSH1 0x2 DUP3 ADD DUP1 SLOAD PUSH2 0x1B4A SWAP1 PUSH2 0x20EB JUMP JUMPDEST DUP1 PUSH1 0x1F ADD PUSH1 0x20 DUP1 SWAP2 DIV MUL PUSH1 0x20 ADD PUSH1 0x40 MLOAD SWAP1 DUP2 ADD PUSH1 0x40 MSTORE DUP1 SWAP3 SWAP2 SWAP1 DUP2 DUP2 MSTORE PUSH1 0x20 ADD DUP3 DUP1 SLOAD PUSH2 0x1B76 SWAP1 PUSH2 0x20EB JUMP JUMPDEST DUP1 ISZERO PUSH2 0x1BC3 JUMPI DUP1 PUSH1 0x1F LT PUSH2 0x1B98 JUMPI PUSH2 0x100 DUP1 DUP4 SLOAD DIV MUL DUP4 MSTORE SWAP2 PUSH1 0x20 ADD SWAP2 PUSH2 0x1BC3 JUMP JUMPDEST DUP3 ADD SWAP2 SWAP1 PUSH1 0x0 MSTORE PUSH1 0x20 PUSH1 0x0 KECCAK256 SWAP1 JUMPDEST DUP2 SLOAD DUP2 MSTORE SWAP1 PUSH1 0x1 ADD SWAP1 PUSH1 0x20 ADD DUP1 DUP4 GT PUSH2 0x1BA6 JUMPI DUP3 SWAP1 SUB PUSH1 0x1F AND DUP3 ADD SWAP2 JUMPDEST POP POP POP SWAP2 DUP4 MSTORE POP POP PUSH1 0x3 DUP3 ADD SLOAD PUSH1 0xFF AND PUSH1 0x20 DUP3 ADD MSTORE PUSH1 0x4 DUP3 ADD DUP1 SLOAD PUSH1 0x40 SWAP1 SWAP3 ADD SWAP2 PUSH2 0x10BB SWAP1 PUSH2 0x20EB JUMP JUMPDEST PUSH1 0x0 PUSH1 0x20 DUP3 DUP5 SUB SLT ISZERO PUSH2 0x1BFF JUMPI PUSH1 0x0 DUP1 REVERT JUMPDEST POP CALLDATALOAD SWAP2 SWAP1 POP JUMP JUMPDEST PUSH1 0x0 DUP1 PUSH1 0x40 DUP4 DUP6 SUB SLT ISZERO PUSH2 0x1C19 JUMPI PUSH1 0x0 DUP1 REVERT JUMPDEST POP POP DUP1 CALLDATALOAD SWAP3 PUSH1 0x20 SWAP1 SWAP2 ADD CALLDATALOAD SWAP2 POP JUMP JUMPDEST PUSH4 0x4E487B71 PUSH1 0xE0 SHL PUSH1 0x0 MSTORE PUSH1 0x41 PUSH1 0x4 MSTORE PUSH1 0x24 PUSH1 0x0 REVERT JUMPDEST PUSH1 0x0 DUP3 PUSH1 0x1F DUP4 ADD SLT PUSH2 0x1C4F JUMPI PUSH1 0x0 DUP1 REVERT JUMPDEST DUP2 CALLDATALOAD PUSH8 0xFFFFFFFFFFFFFFFF DUP1 DUP3 GT ISZERO PUSH2 0x1C6A JUMPI PUSH2 0x1C6A PUSH2 0x1C28 JUMP JUMPDEST PUSH1 0x40 MLOAD PUSH1 0x1F DUP4 ADD PUSH1 0x1F NOT SWAP1 DUP2 AND PUSH1 0x3F ADD AND DUP2 ADD SWAP1 DUP3 DUP3 GT DUP2 DUP4 LT OR ISZERO PUSH2 0x1C92 JUMPI PUSH2 0x1C92 PUSH2 0x1C28 JUMP JUMPDEST DUP2 PUSH1 0x40 MSTORE DUP4 DUP2 MSTORE DUP7 PUSH1 0x20 DUP6 DUP9 ADD ADD GT ISZERO PUSH2 0x1CAB JUMPI PUSH1 0x0 DUP1 REVERT JUMPDEST DUP4 PUSH1 0x20 DUP8 ADD PUSH1 0x20 DUP4 ADD CALLDATACOPY PUSH1 0x0 PUSH1 0x20 DUP6 DUP4 ADD ADD MSTORE DUP1 SWAP5 POP POP POP POP POP SWAP3 SWAP2 POP POP JUMP JUMPDEST PUSH1 0x0 DUP1 PUSH1 0x0 DUP1 PUSH1 0x80 DUP6 DUP8 SUB SLT ISZERO PUSH2 0x1CE1 JUMPI PUSH1 0x0 DUP1 REVERT JUMPDEST DUP5 CALLDATALOAD PUSH8 0xFFFFFFFFFFFFFFFF DUP1 DUP3 GT ISZERO PUSH2 0x1CF9 JUMPI PUSH1 0x0 DUP1 REVERT JUMPDEST PUSH2 0x1D05 DUP9 DUP4 DUP10 ADD PUSH2 0x1C3E JUMP JUMPDEST SWAP6 POP PUSH1 0x20 DUP8 ADD CALLDATALOAD SWAP2 POP DUP1 DUP3 GT ISZERO PUSH2 0x1D1B JUMPI PUSH1 0x0 DUP1 REVERT JUMPDEST PUSH2 0x1D27 DUP9 DUP4 DUP10 ADD PUSH2 0x1C3E JUMP JUMPDEST SWAP5 POP PUSH1 0x40 DUP8 ADD CALLDATALOAD SWAP2 POP DUP1 DUP3 GT ISZERO PUSH2 0x1D3D JUMPI PUSH1 0x0 DUP1 REVERT JUMPDEST PUSH2 0x1D49 DUP9 DUP4 DUP10 ADD PUSH2 0x1C3E JUMP JUMPDEST SWAP4 POP PUSH1 0x60 DUP8 ADD CALLDATALOAD SWAP2 POP DUP1 DUP3 GT ISZERO PUSH2 0x1D5F JUMPI PUSH1 0x0 DUP1 REVERT JUMPDEST POP PUSH2 0x1D6C DUP8 DUP3 DUP9 ADD PUSH2 0x1C3E JUMP JUMPDEST SWAP2 POP POP SWAP3 SWAP6 SWAP2 SWAP5 POP SWAP3 POP JUMP JUMPDEST PUSH1 0x0 DUP1 PUSH1 0x0 DUP1 PUSH1 0x80 DUP6 DUP8 SUB SLT ISZERO PUSH2 0x1D8E JUMPI PUSH1 0x0 DUP1 REVERT JUMPDEST DUP5 CALLDATALOAD PUSH8 0xFFFFFFFFFFFFFFFF DUP1 DUP3 GT ISZERO PUSH2 0x1DA6 JUMPI PUSH1 0x0 DUP1 REVERT JUMPDEST PUSH2 0x1DB2 DUP9 DUP4 DUP10 ADD PUSH2 0x1C3E JUMP JUMPDEST SWAP6 POP PUSH1 0x20 DUP8 ADD CALLDATALOAD SWAP2 POP DUP1 DUP3 GT ISZERO PUSH2 0x1DC8 JUMPI PUSH1 0x0 DUP1 REVERT JUMPDEST PUSH2 0x1DD4 DUP9 DUP4 DUP10 ADD PUSH2 0x1C3E JUMP JUMPDEST SWAP5 POP PUSH1 0x40 DUP8 ADD CALLDATALOAD SWAP2 POP PUSH1 0xFF DUP3 AND DUP3 EQ PUSH2 0x1DEC JUMPI PUSH1 0x0 DUP1 REVERT JUMPDEST SWAP1 SWAP3 POP PUSH1 0x60 DUP7 ADD CALLDATALOAD SWAP1 DUP1 DUP3 GT ISZERO PUSH2 0x1D5F JUMPI PUSH1 0x0 DUP1 REVERT JUMPDEST PUSH1 0x0 DUP2 MLOAD DUP1 DUP5 MSTORE PUSH1 0x0 JUMPDEST DUP2 DUP2 LT ISZERO PUSH2 0x1E28 JUMPI PUSH1 0x20 DUP2 DUP6 ADD DUP2 ADD MLOAD DUP7 DUP4 ADD DUP3 ADD MSTORE ADD PUSH2 0x1E0C JUMP JUMPDEST POP PUSH1 0x0 PUSH1 0x20 DUP3 DUP7 ADD ADD MSTORE PUSH1 0x20 PUSH1 0x1F NOT PUSH1 0x1F DUP4 ADD AND DUP6 ADD ADD SWAP2 POP POP SWAP3 SWAP2 POP POP JUMP JUMPDEST DUP1 MLOAD DUP3 MSTORE PUSH1 0x0 PUSH1 0x20 DUP3 ADD MLOAD PUSH1 0xA0 PUSH1 0x20 DUP6 ADD MSTORE PUSH2 0x1E67 PUSH1 0xA0 DUP6 ADD DUP3 PUSH2 0x1E02 JUMP JUMPDEST SWAP1 POP PUSH1 0x40 DUP4 ADD MLOAD DUP5 DUP3 SUB PUSH1 0x40 DUP7 ADD MSTORE PUSH2 0x1E80 DUP3 DUP3 PUSH2 0x1E02 JUMP JUMPDEST SWAP2 POP POP PUSH1 0x60 DUP4 ADD MLOAD DUP5 DUP3 SUB PUSH1 0x60 DUP7 ADD MSTORE PUSH2 0x1E9A DUP3 DUP3 PUSH2 0x1E02 JUMP JUMPDEST SWAP2 POP POP PUSH1 0x80 DUP4 ADD MLOAD DUP5 DUP3 SUB PUSH1 0x80 DUP7 ADD MSTORE PUSH2 0x1EB4 DUP3 DUP3 PUSH2 0x1E02 JUMP JUMPDEST SWAP6 SWAP5 POP POP POP POP POP JUMP JUMPDEST PUSH1 0x20 DUP2 MSTORE PUSH1 0x0 PUSH2 0x1ED0 PUSH1 0x20 DUP4 ADD DUP5 PUSH2 0x1E48 JUMP JUMPDEST SWAP4 SWAP3 POP POP POP JUMP JUMPDEST PUSH1 0x0 DUP1 PUSH1 0x40 DUP4 DUP6 SUB SLT ISZERO PUSH2 0x1EEA JUMPI PUSH1 0x0 DUP1 REVERT JUMPDEST DUP3 CALLDATALOAD SWAP2 POP PUSH1 0x20 DUP4 ADD CALLDATALOAD PUSH1 0x6 DUP2 LT PUSH2 0x1F00 JUMPI PUSH1 0x0 DUP1 REVERT JUMPDEST DUP1 SWAP2 POP POP SWAP3 POP SWAP3 SWAP1 POP JUMP JUMPDEST PUSH1 0x60 DUP2 MSTORE PUSH1 0x0 PUSH2 0x1F1E PUSH1 0x60 DUP4 ADD DUP7 PUSH2 0x1E02 JUMP JUMPDEST PUSH1 0x20 DUP4 ADD SWAP5 SWAP1 SWAP5 MSTORE POP PUSH1 0x40 ADD MSTORE SWAP2 SWAP1 POP JUMP JUMPDEST PUSH1 0x0 PUSH1 0x20 DUP1 DUP4 ADD DUP2 DUP5 MSTORE DUP1 DUP6 MLOAD DUP1 DUP4 MSTORE PUSH1 0x40 DUP7 ADD SWAP2 POP PUSH1 0x40 DUP2 PUSH1 0x5 SHL DUP8 ADD ADD SWAP3 POP DUP4 DUP8 ADD PUSH1 0x0 JUMPDEST DUP3 DUP2 LT ISZERO PUSH2 0x1F85 JUMPI PUSH1 0x3F NOT DUP9 DUP7 SUB ADD DUP5 MSTORE PUSH2 0x1F73 DUP6 DUP4 MLOAD PUSH2 0x1E48 JUMP JUMPDEST SWAP5 POP SWAP3 DUP6 ADD SWAP3 SWAP1 DUP6 ADD SWAP1 PUSH1 0x1 ADD PUSH2 0x1F57 JUMP JUMPDEST POP SWAP3 SWAP8 SWAP7 POP POP POP POP POP POP POP JUMP JUMPDEST PUSH1 0x20 DUP2 MSTORE DUP2 MLOAD PUSH1 0x20 DUP3 ADD MSTORE PUSH1 0x0 PUSH1 0x20 DUP4 ADD MLOAD PUSH1 0xA0 PUSH1 0x40 DUP5 ADD MSTORE PUSH2 0x1FB8 PUSH1 0xC0 DUP5 ADD DUP3 PUSH2 0x1E02 JUMP JUMPDEST SWAP1 POP PUSH1 0x40 DUP5 ADD MLOAD PUSH1 0x1F NOT DUP1 DUP6 DUP5 SUB ADD PUSH1 0x60 DUP7 ADD MSTORE PUSH2 0x1FD6 DUP4 DUP4 PUSH2 0x1E02 JUMP JUMPDEST SWAP3 POP PUSH1 0xFF PUSH1 0x60 DUP8 ADD MLOAD AND PUSH1 0x80 DUP7 ADD MSTORE PUSH1 0x80 DUP7 ADD MLOAD SWAP2 POP DUP1 DUP6 DUP5 SUB ADD PUSH1 0xA0 DUP7 ADD MSTORE POP PUSH2 0x1EB4 DUP3 DUP3 PUSH2 0x1E02 JUMP JUMPDEST PUSH1 0x20 DUP1 DUP3 MSTORE PUSH1 0x13 SWAP1 DUP3 ADD MSTORE PUSH19 0x556E617574686F72697A656420616363657373 PUSH1 0x68 SHL PUSH1 0x40 DUP3 ADD MSTORE PUSH1 0x60 ADD SWAP1 JUMP JUMPDEST PUSH4 0x4E487B71 PUSH1 0xE0 SHL PUSH1 0x0 MSTORE PUSH1 0x11 PUSH1 0x4 MSTORE PUSH1 0x24 PUSH1 0x0 REVERT JUMPDEST PUSH1 0x0 PUSH1 0x1 DUP3 ADD PUSH2 0x2056 JUMPI PUSH2 0x2056 PUSH2 0x202E JUMP JUMPDEST POP PUSH1 0x1 ADD SWAP1 JUMP JUMPDEST PUSH1 0x20 DUP1 DUP3 MSTORE PUSH1 0x1C SWAP1 DUP3 ADD MSTORE PUSH32 0x456C656374696F6E206973206E6F7420696E2070726F67726573732E00000000 PUSH1 0x40 DUP3 ADD MSTORE PUSH1 0x60 ADD SWAP1 JUMP JUMPDEST PUSH4 0x4E487B71 PUSH1 0xE0 SHL PUSH1 0x0 MSTORE PUSH1 0x32 PUSH1 0x4 MSTORE PUSH1 0x24 PUSH1 0x0 REVERT JUMPDEST PUSH1 0x20 DUP1 DUP3 MSTORE PUSH1 0x21 SWAP1 DUP3 ADD MSTORE PUSH32 0x596F75206861766520616C7265616479206265656E2072656769737465726564 PUSH1 0x40 DUP3 ADD MSTORE PUSH1 0x17 PUSH1 0xF9 SHL PUSH1 0x60 DUP3 ADD MSTORE PUSH1 0x80 ADD SWAP1 JUMP JUMPDEST PUSH1 0x1 DUP2 DUP2 SHR SWAP1 DUP3 AND DUP1 PUSH2 0x20FF JUMPI PUSH1 0x7F DUP3 AND SWAP2 POP JUMPDEST PUSH1 0x20 DUP3 LT DUP2 SUB PUSH2 0x211F JUMPI PUSH4 0x4E487B71 PUSH1 0xE0 SHL PUSH1 0x0 MSTORE PUSH1 0x22 PUSH1 0x4 MSTORE PUSH1 0x24 PUSH1 0x0 REVERT JUMPDEST POP SWAP2 SWAP1 POP JUMP JUMPDEST PUSH1 0x1F DUP3 GT ISZERO PUSH2 0x5E0 JUMPI PUSH1 0x0 DUP2 DUP2 MSTORE PUSH1 0x20 DUP2 KECCAK256 PUSH1 0x1F DUP6 ADD PUSH1 0x5 SHR DUP2 ADD PUSH1 0x20 DUP7 LT ISZERO PUSH2 0x214C JUMPI POP DUP1 JUMPDEST PUSH1 0x1F DUP6 ADD PUSH1 0x5 SHR DUP3 ADD SWAP2 POP JUMPDEST DUP2 DUP2 LT ISZERO PUSH2 0x216B JUMPI DUP3 DUP2 SSTORE PUSH1 0x1 ADD PUSH2 0x2158 JUMP JUMPDEST POP POP POP POP POP POP JUMP JUMPDEST DUP2 MLOAD PUSH8 0xFFFFFFFFFFFFFFFF DUP2 GT ISZERO PUSH2 0x218D JUMPI PUSH2 0x218D PUSH2 0x1C28 JUMP JUMPDEST PUSH2 0x21A1 DUP2 PUSH2 0x219B DUP5 SLOAD PUSH2 0x20EB JUMP JUMPDEST DUP5 PUSH2 0x2125 JUMP JUMPDEST PUSH1 0x20 DUP1 PUSH1 0x1F DUP4 GT PUSH1 0x1 DUP2 EQ PUSH2 0x21D6 JUMPI PUSH1 0x0 DUP5 ISZERO PUSH2 0x21BE JUMPI POP DUP6 DUP4 ADD MLOAD JUMPDEST PUSH1 0x0 NOT PUSH1 0x3 DUP7 SWAP1 SHL SHR NOT AND PUSH1 0x1 DUP6 SWAP1 SHL OR DUP6 SSTORE PUSH2 0x216B JUMP JUMPDEST PUSH1 0x0 DUP6 DUP2 MSTORE PUSH1 0x20 DUP2 KECCAK256 PUSH1 0x1F NOT DUP7 AND SWAP2 JUMPDEST DUP3 DUP2 LT ISZERO PUSH2 0x2205 JUMPI DUP9 DUP7 ADD MLOAD DUP3 SSTORE SWAP5 DUP5 ADD SWAP5 PUSH1 0x1 SWAP1 SWAP2 ADD SWAP1 DUP5 ADD PUSH2 0x21E6 JUMP JUMPDEST POP DUP6 DUP3 LT ISZERO PUSH2 0x2223 JUMPI DUP8 DUP6 ADD MLOAD PUSH1 0x0 NOT PUSH1 0x3 DUP9 SWAP1 SHL PUSH1 0xF8 AND SHR NOT AND DUP2 SSTORE JUMPDEST POP POP POP POP POP PUSH1 0x1 SWAP1 DUP2 SHL ADD SWAP1 SSTORE POP JUMP JUMPDEST DUP2 DUP2 SUB PUSH2 0x223E JUMPI POP POP JUMP JUMPDEST PUSH2 0x2248 DUP3 SLOAD PUSH2 0x20EB JUMP JUMPDEST PUSH8 0xFFFFFFFFFFFFFFFF DUP2 GT ISZERO PUSH2 0x2260 JUMPI PUSH2 0x2260 PUSH2 0x1C28 JUMP JUMPDEST PUSH2 0x226E DUP2 PUSH2 0x219B DUP5 SLOAD PUSH2 0x20EB JUMP JUMPDEST PUSH1 0x0 PUSH1 0x1F DUP3 GT PUSH1 0x1 DUP2 EQ PUSH2 0x22A2 JUMPI PUSH1 0x0 DUP4 ISZERO PUSH2 0x228A JUMPI POP DUP5 DUP3 ADD SLOAD JUMPDEST PUSH1 0x0 NOT PUSH1 0x3 DUP6 SWAP1 SHL SHR NOT AND PUSH1 0x1 DUP5 SWAP1 SHL OR DUP5 SSTORE PUSH2 0x2307 JUMP JUMPDEST PUSH1 0x0 DUP6 DUP2 MSTORE PUSH1 0x20 SWAP1 KECCAK256 PUSH1 0x1F NOT DUP5 AND SWAP1 PUSH1 0x0 DUP7 DUP2 MSTORE PUSH1 0x20 SWAP1 KECCAK256 DUP5 JUMPDEST DUP4 DUP2 LT ISZERO PUSH2 0x22DC JUMPI DUP3 DUP7 ADD SLOAD DUP3 SSTORE PUSH1 0x1 SWAP6 DUP7 ADD SWAP6 SWAP1 SWAP2 ADD SWAP1 PUSH1 0x20 ADD PUSH2 0x22BC JUMP JUMPDEST POP DUP6 DUP4 LT ISZERO PUSH2 0x22FA JUMPI DUP2 DUP6 ADD SLOAD PUSH1 0x0 NOT PUSH1 0x3 DUP9 SWAP1 SHL PUSH1 0xF8 AND SHR NOT AND DUP2 SSTORE JUMPDEST POP POP POP PUSH1 0x1 DUP4 PUSH1 0x1 SHL ADD DUP5 SSTORE JUMPDEST POP POP POP POP POP JUMP JUMPDEST PUSH1 0x1 PUSH1 0x1 PUSH1 0xA0 SHL SUB DUP4 AND DUP2 MSTORE PUSH1 0x40 PUSH1 0x20 DUP3 ADD DUP2 SWAP1 MSTORE PUSH1 0x0 SWAP1 PUSH2 0x2332 SWAP1 DUP4 ADD DUP5 PUSH2 0x1E02 JUMP JUMPDEST SWAP5 SWAP4 POP POP POP POP JUMP JUMPDEST PUSH4 0x4E487B71 PUSH1 0xE0 SHL PUSH1 0x0 MSTORE PUSH1 0x21 PUSH1 0x4 MSTORE PUSH1 0x24 PUSH1 0x0 REVERT JUMPDEST PUSH1 0x20 DUP1 DUP3 MSTORE PUSH1 0x2A SWAP1 DUP3 ADD MSTORE PUSH32 0x596F752063616E6E6F7420766965772074686520726573756C74732061742074 PUSH1 0x40 DUP3 ADD MSTORE PUSH10 0x34329036B7B6B2B73A17 PUSH1 0xB1 SHL PUSH1 0x60 DUP3 ADD MSTORE PUSH1 0x80 ADD SWAP1 JUMP JUMPDEST PUSH1 0x0 DUP2 PUSH2 0x23A9 JUMPI PUSH2 0x23A9 PUSH2 0x202E JUMP JUMPDEST POP PUSH1 0x0 NOT ADD SWAP1 JUMP JUMPDEST PUSH14 0x2A3432903BB4B73732B91034B99 PUSH1 0x95 SHL DUP2 MSTORE PUSH1 0x0 PUSH1 0xE PUSH1 0x0 DUP5 SLOAD PUSH2 0x23D6 DUP2 PUSH2 0x20EB JUMP JUMPDEST PUSH1 0x1 DUP3 DUP2 AND DUP1 ISZERO PUSH2 0x23EE JUMPI PUSH1 0x1 DUP2 EQ PUSH2 0x2407 JUMPI PUSH2 0x1F85 JUMP JUMPDEST PUSH1 0xFF NOT DUP5 AND DUP9 DUP8 ADD MSTORE DUP3 ISZERO ISZERO DUP4 MUL DUP9 ADD DUP7 ADD SWAP5 POP PUSH2 0x1F85 JUMP JUMPDEST DUP9 PUSH1 0x0 MSTORE PUSH1 0x20 DUP1 PUSH1 0x0 KECCAK256 PUSH1 0x0 JUMPDEST DUP6 DUP2 LT ISZERO PUSH2 0x242F JUMPI DUP2 SLOAD DUP12 DUP3 ADD DUP11 ADD MSTORE SWAP1 DUP5 ADD SWAP1 DUP3 ADD PUSH2 0x2414 JUMP JUMPDEST POP POP POP POP SWAP6 ADD SWAP1 SWAP3 ADD SWAP6 SWAP5 POP POP POP POP POP JUMP INVALID LOG2 PUSH5 0x6970667358 0x22 SLT KECCAK256 0xCD PUSH9 0xC441A8DCCB123F03DD 0xAD PUSH17 0x89649B048354DAF78E12725C972DE4A02D 0xBF 0xE6 PUSH5 0x736F6C6343 STOP ADDMOD SLT STOP CALLER "
				},
				"gasEstimates": {
					"creation": {
						"codeDepositCost": "1867000",
						"executionCost": "109655",
						"totalCost": "1976655"
					},
					"external": {
						"add_voter(string,string,uint8,string)": "infinite",
						"approve_or_unBan_candidate(uint256)": "54256",
						"approve_or_unBan_voter(uint256)": "54227",
						"delegate_my_vote(uint256,uint8)": "130727",
						"endElection()": "30834",
						"get_candidate_detail(uint256)": "infinite",
						"get_candidate_eligibility(uint256)": "2485",
						"get_candidate_list()": "infinite",
						"get_candidate_result(uint256)": "4687",
						"get_election_result()": "infinite",
						"get_voter_detail(uint256)": "infinite",
						"get_voter_eligibility(uint256)": "2463",
						"registerVote(uint256)": "infinite",
						"register_candidate(string,string,string,string)": "infinite",
						"register_delegated_vote(uint256,uint256)": "infinite",
						"reject_or_ban_candidate(uint256)": "54209",
						"reject_or_ban_voter(uint256)": "54275",
						"startElection()": "28741"
					}
				},
				"methodIdentifiers": {
					"add_voter(string,string,uint8,string)": "5b8ebb64",
					"approve_or_unBan_candidate(uint256)": "1d529aa4",
					"approve_or_unBan_voter(uint256)": "bb30d88e",
					"delegate_my_vote(uint256,uint8)": "bd0c7009",
					"endElection()": "59f78468",
					"get_candidate_detail(uint256)": "a589ac5c",
					"get_candidate_eligibility(uint256)": "0340851d",
					"get_candidate_list()": "e9b52668",
					"get_candidate_result(uint256)": "c2b33e6e",
					"get_election_result()": "d1b9fb3f",
					"get_voter_detail(uint256)": "fc864716",
					"get_voter_eligibility(uint256)": "0318e0ac",
					"registerVote(uint256)": "464d4a92",
					"register_candidate(string,string,string,string)": "54155fbf",
					"register_delegated_vote(uint256,uint256)": "2802ce59",
					"reject_or_ban_candidate(uint256)": "cdd11b64",
					"reject_or_ban_voter(uint256)": "eca88ca6",
					"startElection()": "62d73eb8"
				}
			},
			"storageLayout": {
				"storage": [
					{
						"astId": 3,
						"contract": "BlockChainElection.sol:Voting",
						"label": "total_active_voters",
						"offset": 0,
						"slot": "0",
						"type": "t_uint256"
					},
					{
						"astId": 5,
						"contract": "BlockChainElection.sol:Voting",
						"label": "active_candidates",
						"offset": 0,
						"slot": "1",
						"type": "t_uint256"
					},
					{
						"astId": 7,
						"contract": "BlockChainElection.sol:Voting",
						"label": "election_commission",
						"offset": 0,
						"slot": "2",
						"type": "t_address"
					},
					{
						"astId": 9,
						"contract": "BlockChainElection.sol:Voting",
						"label": "id_voter",
						"offset": 0,
						"slot": "3",
						"type": "t_uint256"
					},
					{
						"astId": 11,
						"contract": "BlockChainElection.sol:Voting",
						"label": "id_candidate",
						"offset": 0,
						"slot": "4",
						"type": "t_uint256"
					},
					{
						"astId": 16,
						"contract": "BlockChainElection.sol:Voting",
						"label": "total_votes",
						"offset": 0,
						"slot": "5",
						"type": "t_uint256"
					},
					{
						"astId": 18,
						"contract": "BlockChainElection.sol:Voting",
						"label": "election_started",
						"offset": 0,
						"slot": "6",
						"type": "t_bool"
					},
					{
						"astId": 20,
						"contract": "BlockChainElection.sol:Voting",
						"label": "election_ended",
						"offset": 1,
						"slot": "6",
						"type": "t_bool"
					},
					{
						"astId": 82,
						"contract": "BlockChainElection.sol:Voting",
						"label": "voters",
						"offset": 0,
						"slot": "7",
						"type": "t_mapping(t_uint256,t_struct(Voters_List)31_storage)"
					},
					{
						"astId": 87,
						"contract": "BlockChainElection.sol:Voting",
						"label": "voterIdManager",
						"offset": 0,
						"slot": "8",
						"type": "t_mapping(t_address,t_struct(Voter_Id_Manager)40_storage)"
					},
					{
						"astId": 92,
						"contract": "BlockChainElection.sol:Voting",
						"label": "candidate",
						"offset": 0,
						"slot": "9",
						"type": "t_mapping(t_uint256,t_struct(Candidate_List)51_storage)"
					},
					{
						"astId": 97,
						"contract": "BlockChainElection.sol:Voting",
						"label": "candidateIdManager",
						"offset": 0,
						"slot": "10",
						"type": "t_mapping(t_address,t_struct(Candidate_Id_Manager)57_storage)"
					},
					{
						"astId": 102,
						"contract": "BlockChainElection.sol:Voting",
						"label": "is_voted",
						"offset": 0,
						"slot": "11",
						"type": "t_mapping(t_address,t_struct(Voted)37_storage)"
					},
					{
						"astId": 107,
						"contract": "BlockChainElection.sol:Voting",
						"label": "results",
						"offset": 0,
						"slot": "12",
						"type": "t_mapping(t_uint256,t_struct(Votes)62_storage)"
					},
					{
						"astId": 112,
						"contract": "BlockChainElection.sol:Voting",
						"label": "voterEligible",
						"offset": 0,
						"slot": "13",
						"type": "t_mapping(t_uint256,t_struct(Voter_Eligible)34_storage)"
					},
					{
						"astId": 117,
						"contract": "BlockChainElection.sol:Voting",
						"label": "candidateEligible",
						"offset": 0,
						"slot": "14",
						"type": "t_mapping(t_uint256,t_struct(Candidate_Eligible)54_storage)"
					},
					{
						"astId": 123,
						"contract": "BlockChainElection.sol:Voting",
						"label": "delegatedVotes",
						"offset": 0,
						"slot": "15",
						"type": "t_mapping(t_uint256,t_array(t_struct(Delegated_Votes)70_storage)dyn_storage)"
					},
					{
						"astId": 127,
						"contract": "BlockChainElection.sol:Voting",
						"label": "candidateList",
						"offset": 0,
						"slot": "16",
						"type": "t_array(t_struct(Candidate_List)51_storage)dyn_storage"
					}
				],
				"types": {
					"t_address": {
						"encoding": "inplace",
						"label": "address",
						"numberOfBytes": "20"
					},
					"t_array(t_struct(Candidate_List)51_storage)dyn_storage": {
						"base": "t_struct(Candidate_List)51_storage",
						"encoding": "dynamic_array",
						"label": "struct Voting.Candidate_List[]",
						"numberOfBytes": "32"
					},
					"t_array(t_struct(Delegated_Votes)70_storage)dyn_storage": {
						"base": "t_struct(Delegated_Votes)70_storage",
						"encoding": "dynamic_array",
						"label": "struct Voting.Delegated_Votes[]",
						"numberOfBytes": "32"
					},
					"t_bool": {
						"encoding": "inplace",
						"label": "bool",
						"numberOfBytes": "1"
					},
					"t_enum(DelegatedRelationship)77": {
						"encoding": "inplace",
						"label": "enum Voting.DelegatedRelationship",
						"numberOfBytes": "1"
					},
					"t_mapping(t_address,t_struct(Candidate_Id_Manager)57_storage)": {
						"encoding": "mapping",
						"key": "t_address",
						"label": "mapping(address => struct Voting.Candidate_Id_Manager)",
						"numberOfBytes": "32",
						"value": "t_struct(Candidate_Id_Manager)57_storage"
					},
					"t_mapping(t_address,t_struct(Voted)37_storage)": {
						"encoding": "mapping",
						"key": "t_address",
						"label": "mapping(address => struct Voting.Voted)",
						"numberOfBytes": "32",
						"value": "t_struct(Voted)37_storage"
					},
					"t_mapping(t_address,t_struct(Voter_Id_Manager)40_storage)": {
						"encoding": "mapping",
						"key": "t_address",
						"label": "mapping(address => struct Voting.Voter_Id_Manager)",
						"numberOfBytes": "32",
						"value": "t_struct(Voter_Id_Manager)40_storage"
					},
					"t_mapping(t_uint256,t_array(t_struct(Delegated_Votes)70_storage)dyn_storage)": {
						"encoding": "mapping",
						"key": "t_uint256",
						"label": "mapping(uint256 => struct Voting.Delegated_Votes[])",
						"numberOfBytes": "32",
						"value": "t_array(t_struct(Delegated_Votes)70_storage)dyn_storage"
					},
					"t_mapping(t_uint256,t_struct(Candidate_Eligible)54_storage)": {
						"encoding": "mapping",
						"key": "t_uint256",
						"label": "mapping(uint256 => struct Voting.Candidate_Eligible)",
						"numberOfBytes": "32",
						"value": "t_struct(Candidate_Eligible)54_storage"
					},
					"t_mapping(t_uint256,t_struct(Candidate_List)51_storage)": {
						"encoding": "mapping",
						"key": "t_uint256",
						"label": "mapping(uint256 => struct Voting.Candidate_List)",
						"numberOfBytes": "32",
						"value": "t_struct(Candidate_List)51_storage"
					},
					"t_mapping(t_uint256,t_struct(Voter_Eligible)34_storage)": {
						"encoding": "mapping",
						"key": "t_uint256",
						"label": "mapping(uint256 => struct Voting.Voter_Eligible)",
						"numberOfBytes": "32",
						"value": "t_struct(Voter_Eligible)34_storage"
					},
					"t_mapping(t_uint256,t_struct(Voters_List)31_storage)": {
						"encoding": "mapping",
						"key": "t_uint256",
						"label": "mapping(uint256 => struct Voting.Voters_List)",
						"numberOfBytes": "32",
						"value": "t_struct(Voters_List)31_storage"
					},
					"t_mapping(t_uint256,t_struct(Votes)62_storage)": {
						"encoding": "mapping",
						"key": "t_uint256",
						"label": "mapping(uint256 => struct Voting.Votes)",
						"numberOfBytes": "32",
						"value": "t_struct(Votes)62_storage"
					},
					"t_string_storage": {
						"encoding": "bytes",
						"label": "string",
						"numberOfBytes": "32"
					},
					"t_struct(Candidate_Eligible)54_storage": {
						"encoding": "inplace",
						"label": "struct Voting.Candidate_Eligible",
						"members": [
							{
								"astId": 53,
								"contract": "BlockChainElection.sol:Voting",
								"label": "candiate_eligible",
								"offset": 0,
								"slot": "0",
								"type": "t_bool"
							}
						],
						"numberOfBytes": "32"
					},
					"t_struct(Candidate_Id_Manager)57_storage": {
						"encoding": "inplace",
						"label": "struct Voting.Candidate_Id_Manager",
						"members": [
							{
								"astId": 56,
								"contract": "BlockChainElection.sol:Voting",
								"label": "id",
								"offset": 0,
								"slot": "0",
								"type": "t_uint256"
							}
						],
						"numberOfBytes": "32"
					},
					"t_struct(Candidate_List)51_storage": {
						"encoding": "inplace",
						"label": "struct Voting.Candidate_List",
						"members": [
							{
								"astId": 42,
								"contract": "BlockChainElection.sol:Voting",
								"label": "candidate_id",
								"offset": 0,
								"slot": "0",
								"type": "t_uint256"
							},
							{
								"astId": 44,
								"contract": "BlockChainElection.sol:Voting",
								"label": "candidate_name",
								"offset": 0,
								"slot": "1",
								"type": "t_string_storage"
							},
							{
								"astId": 46,
								"contract": "BlockChainElection.sol:Voting",
								"label": "candidate_address",
								"offset": 0,
								"slot": "2",
								"type": "t_string_storage"
							},
							{
								"astId": 48,
								"contract": "BlockChainElection.sol:Voting",
								"label": "candidate_age",
								"offset": 0,
								"slot": "3",
								"type": "t_string_storage"
							},
							{
								"astId": 50,
								"contract": "BlockChainElection.sol:Voting",
								"label": "candidate_promise",
								"offset": 0,
								"slot": "4",
								"type": "t_string_storage"
							}
						],
						"numberOfBytes": "160"
					},
					"t_struct(Delegated_Votes)70_storage": {
						"encoding": "inplace",
						"label": "struct Voting.Delegated_Votes",
						"members": [
							{
								"astId": 64,
								"contract": "BlockChainElection.sol:Voting",
								"label": "delegated_voter_id",
								"offset": 0,
								"slot": "0",
								"type": "t_uint256"
							},
							{
								"astId": 67,
								"contract": "BlockChainElection.sol:Voting",
								"label": "delegated_voter_relationship",
								"offset": 0,
								"slot": "1",
								"type": "t_enum(DelegatedRelationship)77"
							},
							{
								"astId": 69,
								"contract": "BlockChainElection.sol:Voting",
								"label": "can_vote",
								"offset": 1,
								"slot": "1",
								"type": "t_bool"
							}
						],
						"numberOfBytes": "64"
					},
					"t_struct(Voted)37_storage": {
						"encoding": "inplace",
						"label": "struct Voting.Voted",
						"members": [
							{
								"astId": 36,
								"contract": "BlockChainElection.sol:Voting",
								"label": "voted",
								"offset": 0,
								"slot": "0",
								"type": "t_bool"
							}
						],
						"numberOfBytes": "32"
					},
					"t_struct(Voter_Eligible)34_storage": {
						"encoding": "inplace",
						"label": "struct Voting.Voter_Eligible",
						"members": [
							{
								"astId": 33,
								"contract": "BlockChainElection.sol:Voting",
								"label": "voter_eligible",
								"offset": 0,
								"slot": "0",
								"type": "t_bool"
							}
						],
						"numberOfBytes": "32"
					},
					"t_struct(Voter_Id_Manager)40_storage": {
						"encoding": "inplace",
						"label": "struct Voting.Voter_Id_Manager",
						"members": [
							{
								"astId": 39,
								"contract": "BlockChainElection.sol:Voting",
								"label": "id",
								"offset": 0,
								"slot": "0",
								"type": "t_uint256"
							}
						],
						"numberOfBytes": "32"
					},
					"t_struct(Voters_List)31_storage": {
						"encoding": "inplace",
						"label": "struct Voting.Voters_List",
						"members": [
							{
								"astId": 22,
								"contract": "BlockChainElection.sol:Voting",
								"label": "voter_id",
								"offset": 0,
								"slot": "0",
								"type": "t_uint256"
							},
							{
								"astId": 24,
								"contract": "BlockChainElection.sol:Voting",
								"label": "voter_name",
								"offset": 0,
								"slot": "1",
								"type": "t_string_storage"
							},
							{
								"astId": 26,
								"contract": "BlockChainElection.sol:Voting",
								"label": "voter_address",
								"offset": 0,
								"slot": "2",
								"type": "t_string_storage"
							},
							{
								"astId": 28,
								"contract": "BlockChainElection.sol:Voting",
								"label": "voter_age",
								"offset": 0,
								"slot": "3",
								"type": "t_uint8"
							},
							{
								"astId": 30,
								"contract": "BlockChainElection.sol:Voting",
								"label": "voter_aadhaar_number",
								"offset": 0,
								"slot": "4",
								"type": "t_string_storage"
							}
						],
						"numberOfBytes": "160"
					},
					"t_struct(Votes)62_storage": {
						"encoding": "inplace",
						"label": "struct Voting.Votes",
						"members": [
							{
								"astId": 59,
								"contract": "BlockChainElection.sol:Voting",
								"label": "id",
								"offset": 0,
								"slot": "0",
								"type": "t_uint256"
							},
							{
								"astId": 61,
								"contract": "BlockChainElection.sol:Voting",
								"label": "vote_count",
								"offset": 0,
								"slot": "1",
								"type": "t_uint256"
							}
						],
						"numberOfBytes": "64"
					},
					"t_uint256": {
						"encoding": "inplace",
						"label": "uint256",
						"numberOfBytes": "32"
					},
					"t_uint8": {
						"encoding": "inplace",
						"label": "uint8",
						"numberOfBytes": "1"
					}
				}
			},
			"userdoc": {
				"kind": "user",
				"methods": {},
				"version": 1
			}
		}
	}
}