{
	"data": {
		"bytecode": {
			"linkReferences": {},
			"object": "608060405234801561001057600080fd5b50600280546001600160a01b031916331790556000808055600181815560038190556004556005556006805461ffff19169055612477806100526000396000f3fe608060405234801561001057600080fd5b50600436106101165760003560e01c8063a589ac5c116100a2578063cdd11b6411610071578063cdd11b641461024e578063d1b9fb3f14610261578063e9b5266814610278578063eca88ca61461028d578063fc864716146102a057600080fd5b8063a589ac5c146101e7578063bb30d88e14610207578063bd0c70091461021a578063c2b33e6e1461022d57600080fd5b8063464d4a92116100e9578063464d4a921461019e57806354155fbf146101b157806359f78468146101c45780635b8ebb64146101cc57806362d73eb8146101df57600080fd5b80630318e0ac1461011b5780630340851d146101535780631d529aa4146101765780632802ce591461018b575b600080fd5b61013e610129366004611bed565b6000908152600d602052604090205460ff1690565b60405190151581526020015b60405180910390f35b61013e610161366004611bed565b6000908152600e602052604090205460ff1690565b610189610184366004611bed565b6102c0565b005b610189610199366004611c06565b6103c6565b6101896101ac366004611bed565b6105e5565b6101896101bf366004611ccb565b610889565b610189610b5a565b6101896101da366004611d78565b610bf8565b610189610e04565b6101fa6101f5366004611bed565b610e9b565b60405161014a9190611ebd565b610189610215366004611bed565b611144565b610189610228366004611ed7565b6111fe565b61024061023b366004611bed565b611400565b60405190815260200161014a565b61018961025c366004611bed565b611440565b61026961153d565b60405161014a93929190611f0b565b6102806116d7565b60405161014a9190611f30565b61018961029b366004611bed565b611988565b6102b36102ae366004611bed565b611a4b565b60405161014a9190611f92565b6002546001600160a01b031633146102f35760405162461bcd60e51b81526004016102ea90612001565b60405180910390fd5b6000818152600e602052604090205460ff1661036d576000818152600e60205260408120805460ff1916600190811790915580549161033183612044565b90915550506040518181527f3ad93af63cb7967b23e4fb500b7d7d28b07516325dcf341f88bebf959d82c1cb906020015b60405180910390a150565b60405162461bcd60e51b815260206004820152602860248201527f5468652063616e6469646174652068617320616c7265616479206265656e206160448201526738383937bb32b21760c11b60648201526084016102ea565b60065460ff166103e85760405162461bcd60e51b81526004016102ea9061205d565b600654610100900460ff16156104105760405162461bcd60e51b81526004016102ea9061205d565b6000818152600e602052604090205460ff1661046e5760405162461bcd60e51b815260206004820152601e60248201527f5468652063616e646964617465206973206e6f7420656c696769626c652e000060448201526064016102ea565b6000805b336000908152600860209081526040808320548352600f90915290205481101561058657336000908152600860209081526040808320548352600f90915290208054859190839081106104c7576104c7612094565b90600052602060002090600202016000015403610574576000838152600c602052604081206001018054916104fb83612044565b90915550506005805490600061051083612044565b9091555050336000908152600860209081526040808320548352600f909152812080548390811061054357610543612094565b906000526020600020906002020160010160016101000a81548160ff02191690831515021790555060019150610586565b8061057e81612044565b915050610472565b50806105e05760405162461bcd60e51b8152602060048201526024808201527f596f7520617265206e6f742064656c65676174656420627920746869732070656044820152633939b7b760e11b60648201526084016102ea565b505050565b600654819060ff166106095760405162461bcd60e51b81526004016102ea9061205d565b600654610100900460ff16156106315760405162461bcd60e51b81526004016102ea9061205d565b33600090815260086020526040812054900361068f5760405162461bcd60e51b815260206004820152601d60248201527f596f7520617265206e6f7420656c696769626c6520746f20766f74652e00000060448201526064016102ea565b336000908152600b602052604090205460ff16156106ef5760405162461bcd60e51b815260206004820152601760248201527f596f75206861766520616c726561647920766f7465642e00000000000000000060448201526064016102ea565b6000818152600e602052604090205460ff1661074d5760405162461bcd60e51b815260206004820152601e60248201527f5468652063616e646964617465206973206e6f7420656c696769626c652e000060448201526064016102ea565b60065460ff1661076f5760405162461bcd60e51b81526004016102ea9061205d565b600654610100900460ff16156107975760405162461bcd60e51b81526004016102ea9061205d565b336000908152600860209081526040808320548352600d90915290205460ff166108345760405162461bcd60e51b815260206004820152604260248201527f596f7520617265206e6f7420617574686f72697a656420746f20766f74652e2060448201527f506c6561736520636f6e7461637420456c656374696f6e20436f6d6d6973736960648201526137b760f11b608482015260a4016102ea565b6000828152600c6020526040812060010180549161085183612044565b90915550506005805490600061086683612044565b9091555050336000908152600b60205260409020805460ff191660011790555050565b336000908152600a6020526040902054156108b65760405162461bcd60e51b81526004016102ea906120aa565b6040805160a081018252600454808252602080830188815283850188905260608401879052608084018690526000928352600990915292902081518155915190919060018201906109079082612173565b506040820151600282019061091c9082612173565b50606082015160038201906109319082612173565b50608082015160048201906109469082612173565b50506040805160208082018352600480548352336000908152600a835284812093519093558351808301855283815281548452600e83528484209051815460ff191690151517905580548352600c82528383206001908101849055905483526009909152918120601080548085018255925280547f1b6847dc741a1b0cd08d278845f9d819d87b734759afb55fe2de5cb82a9ae6726005909302928301908155909350917f1b6847dc741a1b0cd08d278845f9d819d87b734759afb55fe2de5cb82a9ae67390910190610a1b90840182612233565b50600281810190610a2e90840182612233565b50600381810190610a4190840182612233565b50600481810190610a5490840182612233565b50506004805491506000610a6783612044565b91905055507f11d7002257ca02e998e3d17112a6298cf2bb8b3b44ece5e8a02e1e78c7d2dc2b3360405180604001604052806017815260200176149959da5cdd1c985d1a5bdb8814dd58d8d95cdcd99d5b604a1b815250604051610acc92919061230e565b60405180910390a1600254604080516001600160a01b039092168252602082018190526022908201527f5265717565737420666f722043616e646964617465205265676973747261746960608201526137b760f11b60808201527f73ea8b385cde3d60501d54bccc28c7ccff4841ff66eae0201cbb1fafe237fce69060a0015b60405180910390a150505050565b6002546001600160a01b03163314610b845760405162461bcd60e51b81526004016102ea90612001565b60065460ff1615610bb057600654610100900460ff16610bae576006805461ff0019166101001790555b565b60405162461bcd60e51b815260206004820181905260248201527f54686520656c656374696f6e206973206e6f742073746172746564207965742e60448201526064016102ea565b3360009081526008602052604090205415610c255760405162461bcd60e51b81526004016102ea906120aa565b6040805160a081018252600354808252602080830188815283850188905260ff8716606085015260808401869052600092835260079091529290208151815591519091906001820190610c789082612173565b5060408201516002820190610c8d9082612173565b50606082015160038201805460ff191660ff90921691909117905560808201516004820190610cbc9082612173565b505060408051602080820183526003805483523360008181526008845285812094519094558451808401865284815282548552600d84528585209051815490151560ff1991821617909155908452600b9092529282208054909116905581549250610d2683612044565b91905055507fe54fed3d6f8ea8d23d023956c25fefd884a7258386b09ac1c4783ef5d1c51b063360405180604001604052806017815260200176149959da5cdd1c985d1a5bdb8814dd58d8d95cdcd99d5b604a1b815250604051610d8b92919061230e565b60405180910390a1600254604080516001600160a01b03909216825260208201819052601e908201527f5265717565737420666f7220566f74657220526567697374726174696f6e000060608201527f73ea8b385cde3d60501d54bccc28c7ccff4841ff66eae0201cbb1fafe237fce690608001610b4c565b6002546001600160a01b03163314610e2e5760405162461bcd60e51b81526004016102ea90612001565b60065460ff16610e47576006805460ff19166001179055565b60405162461bcd60e51b8152602060048201526024808201527f54686520656c656374696f6e20697320616c726561647920696e2070726f677260448201526332b9b99760e11b60648201526084016102ea565b610ecd6040518060a0016040528060008152602001606081526020016060815260200160608152602001606081525090565b600960008381526020019081526020016000206040518060a001604052908160008201548152602001600182018054610f05906120eb565b80601f0160208091040260200160405190810160405280929190818152602001828054610f31906120eb565b8015610f7e5780601f10610f5357610100808354040283529160200191610f7e565b820191906000526020600020905b815481529060010190602001808311610f6157829003601f168201915b50505050508152602001600282018054610f97906120eb565b80601f0160208091040260200160405190810160405280929190818152602001828054610fc3906120eb565b80156110105780601f10610fe557610100808354040283529160200191611010565b820191906000526020600020905b815481529060010190602001808311610ff357829003601f168201915b50505050508152602001600382018054611029906120eb565b80601f0160208091040260200160405190810160405280929190818152602001828054611055906120eb565b80156110a25780601f10611077576101008083540402835291602001916110a2565b820191906000526020600020905b81548152906001019060200180831161108557829003601f168201915b505050505081526020016004820180546110bb906120eb565b80601f01602080910402602001604051908101604052809291908181526020018280546110e7906120eb565b80156111345780601f1061110957610100808354040283529160200191611134565b820191906000526020600020905b81548152906001019060200180831161111757829003601f168201915b5050505050815250509050919050565b6002546001600160a01b0316331461116e5760405162461bcd60e51b81526004016102ea90612001565b6000818152600d602052604090205460ff166111aa576000818152600d60205260408120805460ff191660011790558054908061033183612044565b60405162461bcd60e51b8152602060048201526024808201527f54686520766f7465722068617320616c7265616479206265656e20617070726f6044820152633b32b21760e11b60648201526084016102ea565b3360009081526008602052604081205483910361125d5760405162461bcd60e51b815260206004820181905260248201527f596f7520617265206e6f7420616e20617574686f72697a656420766f7465722e60448201526064016102ea565b336000908152600860209081526040808320548352600d90915290205460ff166112c95760405162461bcd60e51b815260206004820181905260248201527f596f7520617265206e6f7420616e20617574686f72697a656420766f7465722e60448201526064016102ea565b6000818152600d602052604090205460ff166113315760405162461bcd60e51b815260206004820152602160248201527f5468657920617265206e6f7420616e20617574686f72697a656420766f7465726044820152601760f91b60648201526084016102ea565b6000838152600f602090815260408083208151606081018352338552600884529190932054815290810184600581111561136d5761136d61233a565b8152600160209182018190528354808201855560009485529382902083516002909502019384559082015183820180549394939192909160ff1916908360058111156113bb576113bb61233a565b0217905550604091820151600191820180549115156101000261ff0019909216919091179055336000908152600b60205291909120805460ff19169091179055505050565b600654600090610100900460ff1661142a5760405162461bcd60e51b81526004016102ea90612350565b506000908152600c602052604090206001015490565b6002546001600160a01b0316331461146a5760405162461bcd60e51b81526004016102ea90612001565b6000818152600e602052604090205460ff16156114da576000818152600e60205260408120805460ff1916905560018054916114a58361239a565b90915550506040518181527ffb0048bb5704410776033bb8355286fb6922cc0623412bd454152bac55397f3590602001610362565b60405162461bcd60e51b815260206004820152603260248201527f5468652063616e6469646174652068617320616c7265616479206265656e206460448201527132b1b634b732b21037b9103130b73732b21760711b60648201526084016102ea565b6060600080600660019054906101000a900460ff1661156e5760405162461bcd60e51b81526004016102ea90612350565b600160009081527fd421a5181c571bba3f01190c922c3b2a896fc1d84e86c9f17ac10e67ebef8b5d5460096020527f92e85d02570a8092d09a6e3a57665bc3815a2699a4074001bf1ccabf660f5a365490919060025b600154811161163d576000818152600c602052604090206001015484101561160e576000818152600c6020908152604080832060010154600990925290912054909450915061162b565b6000818152600c602052604090206001015484900361162b578092505b8061163581612044565b9150506115c4565b5081600003611697576010818154811061165957611659612094565b906000526020600020906005020160010160405160200161167a91906123b1565b60408051601f198184030181529190529690955091935090915050565b60408051808201909152601981527f54686520726573756c7420697320546965204265747765656e00000000000000602082015296909550909350915050565b60606010805480602002602001604051908101604052809291908181526020016000905b8282101561197f57838290600052602060002090600502016040518060a001604052908160008201548152602001600182018054611738906120eb565b80601f0160208091040260200160405190810160405280929190818152602001828054611764906120eb565b80156117b15780601f10611786576101008083540402835291602001916117b1565b820191906000526020600020905b81548152906001019060200180831161179457829003601f168201915b505050505081526020016002820180546117ca906120eb565b80601f01602080910402602001604051908101604052809291908181526020018280546117f6906120eb565b80156118435780601f1061181857610100808354040283529160200191611843565b820191906000526020600020905b81548152906001019060200180831161182657829003601f168201915b5050505050815260200160038201805461185c906120eb565b80601f0160208091040260200160405190810160405280929190818152602001828054611888906120eb565b80156118d55780601f106118aa576101008083540402835291602001916118d5565b820191906000526020600020905b8154815290600101906020018083116118b857829003601f168201915b505050505081526020016004820180546118ee906120eb565b80601f016020809104026020016040519081016040528092919081815260200182805461191a906120eb565b80156119675780601f1061193c57610100808354040283529160200191611967565b820191906000526020600020905b81548152906001019060200180831161194a57829003601f168201915b505050505081525050815260200190600101906116fb565b50505050905090565b6002546001600160a01b031633146119b25760405162461bcd60e51b81526004016102ea90612001565b6000818152600d602052604090205460ff16156119ec576000818152600d60205260408120805460ff19169055805490806114a58361239a565b60405162461bcd60e51b815260206004820152602e60248201527f54686520766f7465722068617320616c7265616479206265656e206465636c6960448201526d3732b21037b9103130b73732b21760911b60648201526084016102ea565b611a806040518060a00160405280600081526020016060815260200160608152602001600060ff168152602001606081525090565b600760008381526020019081526020016000206040518060a001604052908160008201548152602001600182018054611ab8906120eb565b80601f0160208091040260200160405190810160405280929190818152602001828054611ae4906120eb565b8015611b315780601f10611b0657610100808354040283529160200191611b31565b820191906000526020600020905b815481529060010190602001808311611b1457829003601f168201915b50505050508152602001600282018054611b4a906120eb565b80601f0160208091040260200160405190810160405280929190818152602001828054611b76906120eb565b8015611bc35780601f10611b9857610100808354040283529160200191611bc3565b820191906000526020600020905b815481529060010190602001808311611ba657829003601f168201915b5050509183525050600382015460ff1660208201526004820180546040909201916110bb906120eb565b600060208284031215611bff57600080fd5b5035919050565b60008060408385031215611c1957600080fd5b50508035926020909101359150565b634e487b7160e01b600052604160045260246000fd5b600082601f830112611c4f57600080fd5b813567ffffffffffffffff80821115611c6a57611c6a611c28565b604051601f8301601f19908116603f01168101908282118183101715611c9257611c92611c28565b81604052838152866020858801011115611cab57600080fd5b836020870160208301376000602085830101528094505050505092915050565b60008060008060808587031215611ce157600080fd5b843567ffffffffffffffff80821115611cf957600080fd5b611d0588838901611c3e565b95506020870135915080821115611d1b57600080fd5b611d2788838901611c3e565b94506040870135915080821115611d3d57600080fd5b611d4988838901611c3e565b93506060870135915080821115611d5f57600080fd5b50611d6c87828801611c3e565b91505092959194509250565b60008060008060808587031215611d8e57600080fd5b843567ffffffffffffffff80821115611da657600080fd5b611db288838901611c3e565b95506020870135915080821115611dc857600080fd5b611dd488838901611c3e565b94506040870135915060ff82168214611dec57600080fd5b90925060608601359080821115611d5f57600080fd5b6000815180845260005b81811015611e2857602081850181015186830182015201611e0c565b506000602082860101526020601f19601f83011685010191505092915050565b805182526000602082015160a06020850152611e6760a0850182611e02565b905060408301518482036040860152611e808282611e02565b91505060608301518482036060860152611e9a8282611e02565b91505060808301518482036080860152611eb48282611e02565b95945050505050565b602081526000611ed06020830184611e48565b9392505050565b60008060408385031215611eea57600080fd5b82359150602083013560068110611f0057600080fd5b809150509250929050565b606081526000611f1e6060830186611e02565b60208301949094525060400152919050565b6000602080830181845280855180835260408601915060408160051b870101925083870160005b82811015611f8557603f19888603018452611f73858351611e48565b94509285019290850190600101611f57565b5092979650505050505050565b60208152815160208201526000602083015160a06040840152611fb860c0840182611e02565b90506040840151601f1980858403016060860152611fd68383611e02565b925060ff606087015116608086015260808601519150808584030160a086015250611eb48282611e02565b602080825260139082015272556e617574686f72697a65642061636365737360681b604082015260600190565b634e487b7160e01b600052601160045260246000fd5b6000600182016120565761205661202e565b5060010190565b6020808252601c908201527f456c656374696f6e206973206e6f7420696e2070726f67726573732e00000000604082015260600190565b634e487b7160e01b600052603260045260246000fd5b60208082526021908201527f596f75206861766520616c7265616479206265656e20726567697374657265646040820152601760f91b606082015260800190565b600181811c908216806120ff57607f821691505b60208210810361211f57634e487b7160e01b600052602260045260246000fd5b50919050565b601f8211156105e057600081815260208120601f850160051c8101602086101561214c5750805b601f850160051c820191505b8181101561216b57828155600101612158565b505050505050565b815167ffffffffffffffff81111561218d5761218d611c28565b6121a18161219b84546120eb565b84612125565b602080601f8311600181146121d657600084156121be5750858301515b600019600386901b1c1916600185901b17855561216b565b600085815260208120601f198616915b82811015612205578886015182559484019460019091019084016121e6565b50858210156122235787850151600019600388901b60f8161c191681555b5050505050600190811b01905550565b81810361223e575050565b61224882546120eb565b67ffffffffffffffff81111561226057612260611c28565b61226e8161219b84546120eb565b6000601f8211600181146122a2576000831561228a5750848201545b600019600385901b1c1916600184901b178455612307565b600085815260209020601f19841690600086815260209020845b838110156122dc57828601548255600195860195909101906020016122bc565b50858310156122fa5781850154600019600388901b60f8161c191681555b50505060018360011b0184555b5050505050565b6001600160a01b038316815260406020820181905260009061233290830184611e02565b949350505050565b634e487b7160e01b600052602160045260246000fd5b6020808252602a908201527f596f752063616e6e6f7420766965772074686520726573756c7473206174207460408201526934329036b7b6b2b73a1760b11b606082015260800190565b6000816123a9576123a961202e565b506000190190565b6d02a3432903bb4b73732b91034b9960951b81526000600e600084546123d6816120eb565b600182811680156123ee576001811461240757611f85565b60ff198416888701528215158302880186019450611f85565b8860005260208060002060005b8581101561242f5781548b82018a0152908401908201612414565b5050505095019092019594505050505056fea2646970667358221220cd68c441a8dccb123f03ddad7089649b048354daf78e12725c972de4a02dbfe664736f6c63430008120033",
			"opcodes": "PUSH1 0x80 PUSH1 0x40 MSTORE CALLVALUE DUP1 ISZERO PUSH2 0x10 JUMPI PUSH1 0x0 DUP1 REVERT JUMPDEST POP PUSH1 0x2 DUP1 SLOAD PUSH1 0x1 PUSH1 0x1 PUSH1 0xA0 SHL SUB NOT AND CALLER OR SWAP1 SSTORE PUSH1 0x0 DUP1 DUP1 SSTORE PUSH1 0x1 DUP2 DUP2 SSTORE PUSH1 0x3 DUP2 SWAP1 SSTORE PUSH1 0x4 SSTORE PUSH1 0x5 SSTORE PUSH1 0x6 DUP1 SLOAD PUSH2 0xFFFF NOT AND SWAP1 SSTORE PUSH2 0x2477 DUP1 PUSH2 0x52 PUSH1 0x0 CODECOPY PUSH1 0x0 RETURN INVALID PUSH1 0x80 PUSH1 0x40 MSTORE CALLVALUE DUP1 ISZERO PUSH2 0x10 JUMPI PUSH1 0x0 DUP1 REVERT JUMPDEST POP PUSH1 0x4 CALLDATASIZE LT PUSH2 0x116 JUMPI PUSH1 0x0 CALLDATALOAD PUSH1 0xE0 SHR DUP1 PUSH4 0xA589AC5C GT PUSH2 0xA2 JUMPI DUP1 PUSH4 0xCDD11B64 GT PUSH2 0x71 JUMPI DUP1 PUSH4 0xCDD11B64 EQ PUSH2 0x24E JUMPI DUP1 PUSH4 0xD1B9FB3F EQ PUSH2 0x261 JUMPI DUP1 PUSH4 0xE9B52668 EQ PUSH2 0x278 JUMPI DUP1 PUSH4 0xECA88CA6 EQ PUSH2 0x28D JUMPI DUP1 PUSH4 0xFC864716 EQ PUSH2 0x2A0 JUMPI PUSH1 0x0 DUP1 REVERT JUMPDEST DUP1 PUSH4 0xA589AC5C EQ PUSH2 0x1E7 JUMPI DUP1 PUSH4 0xBB30D88E EQ PUSH2 0x207 JUMPI DUP1 PUSH4 0xBD0C7009 EQ PUSH2 0x21A JUMPI DUP1 PUSH4 0xC2B33E6E EQ PUSH2 0x22D JUMPI PUSH1 0x0 DUP1 REVERT JUMPDEST DUP1 PUSH4 0x464D4A92 GT PUSH2 0xE9 JUMPI DUP1 PUSH4 0x464D4A92 EQ PUSH2 0x19E JUMPI DUP1 PUSH4 0x54155FBF EQ PUSH2 0x1B1 JUMPI DUP1 PUSH4 0x59F78468 EQ PUSH2 0x1C4 JUMPI DUP1 PUSH4 0x5B8EBB64 EQ PUSH2 0x1CC JUMPI DUP1 PUSH4 0x62D73EB8 EQ PUSH2 0x1DF JUMPI PUSH1 0x0 DUP1 REVERT JUMPDEST DUP1 PUSH4 0x318E0AC EQ PUSH2 0x11B JUMPI DUP1 PUSH4 0x340851D EQ PUSH2 0x153 JUMPI DUP1 PUSH4 0x1D529AA4 EQ PUSH2 0x176 JUMPI DUP1 PUSH4 0x2802CE59 EQ PUSH2 0x18B JUMPI JUMPDEST PUSH1 0x0 DUP1 REVERT JUMPDEST PUSH2 0x13E PUSH2 0x129 CALLDATASIZE PUSH1 0x4 PUSH2 0x1BED JUMP JUMPDEST PUSH1 0x0 SWAP1 DUP2 MSTORE PUSH1 0xD PUSH1 0x20 MSTORE PUSH1 0x40 SWAP1 KECCAK256 SLOAD PUSH1 0xFF AND SWAP1 JUMP JUMPDEST PUSH1 0x40 MLOAD SWAP1 ISZERO ISZERO DUP2 MSTORE PUSH1 0x20 ADD JUMPDEST PUSH1 0x40 MLOAD DUP1 SWAP2 SUB SWAP1 RETURN JUMPDEST PUSH2 0x13E PUSH2 0x161 CALLDATASIZE PUSH1 0x4 PUSH2 0x1BED JUMP JUMPDEST PUSH1 0x0 SWAP1 DUP2 MSTORE PUSH1 0xE PUSH1 0x20 MSTORE PUSH1 0x40 SWAP1 KECCAK256 SLOAD PUSH1 0xFF AND SWAP1 JUMP JUMPDEST PUSH2 0x189 PUSH2 0x184 CALLDATASIZE PUSH1 0x4 PUSH2 0x1BED JUMP JUMPDEST PUSH2 0x2C0 JUMP JUMPDEST STOP JUMPDEST PUSH2 0x189 PUSH2 0x199 CALLDATASIZE PUSH1 0x4 PUSH2 0x1C06 JUMP JUMPDEST PUSH2 0x3C6 JUMP JUMPDEST PUSH2 0x189 PUSH2 0x1AC CALLDATASIZE PUSH1 0x4 PUSH2 0x1BED JUMP JUMPDEST PUSH2 0x5E5 JUMP JUMPDEST PUSH2 0x189 PUSH2 0x1BF CALLDATASIZE PUSH1 0x4 PUSH2 0x1CCB JUMP JUMPDEST PUSH2 0x889 JUMP JUMPDEST PUSH2 0x189 PUSH2 0xB5A JUMP JUMPDEST PUSH2 0x189 PUSH2 0x1DA CALLDATASIZE PUSH1 0x4 PUSH2 0x1D78 JUMP JUMPDEST PUSH2 0xBF8 JUMP JUMPDEST PUSH2 0x189 PUSH2 0xE04 JUMP JUMPDEST PUSH2 0x1FA PUSH2 0x1F5 CALLDATASIZE PUSH1 0x4 PUSH2 0x1BED JUMP JUMPDEST PUSH2 0xE9B JUMP JUMPDEST PUSH1 0x40 MLOAD PUSH2 0x14A SWAP2 SWAP1 PUSH2 0x1EBD JUMP JUMPDEST PUSH2 0x189 PUSH2 0x215 CALLDATASIZE PUSH1 0x4 PUSH2 0x1BED JUMP JUMPDEST PUSH2 0x1144 JUMP JUMPDEST PUSH2 0x189 PUSH2 0x228 CALLDATASIZE PUSH1 0x4 PUSH2 0x1ED7 JUMP JUMPDEST PUSH2 0x11FE JUMP JUMPDEST PUSH2 0x240 PUSH2 0x23B CALLDATASIZE PUSH1 0x4 PUSH2 0x1BED JUMP JUMPDEST PUSH2 0x1400 JUMP JUMPDEST PUSH1 0x40 MLOAD SWAP1 DUP2 MSTORE PUSH1 0x20 ADD PUSH2 0x14A JUMP JUMPDEST PUSH2 0x189 PUSH2 0x25C CALLDATASIZE PUSH1 0x4 PUSH2 0x1BED JUMP JUMPDEST PUSH2 0x1440 JUMP JUMPDEST PUSH2 0x269 PUSH2 0x153D JUMP JUMPDEST PUSH1 0x40 MLOAD PUSH2 0x14A SWAP4 SWAP3 SWAP2 SWAP1 PUSH2 0x1F0B JUMP JUMPDEST PUSH2 0x280 PUSH2 0x16D7 JUMP JUMPDEST PUSH1 0x40 MLOAD PUSH2 0x14A SWAP2 SWAP1 PUSH2 0x1F30 JUMP JUMPDEST PUSH2 0x189 PUSH2 0x29B CALLDATASIZE PUSH1 0x4 PUSH2 0x1BED JUMP JUMPDEST PUSH2 0x1988 JUMP JUMPDEST PUSH2 0x2B3 PUSH2 0x2AE CALLDATASIZE PUSH1 0x4 PUSH2 0x1BED JUMP JUMPDEST PUSH2 0x1A4B JUMP JUMPDEST PUSH1 0x40 MLOAD PUSH2 0x14A SWAP2 SWAP1 PUSH2 0x1F92 JUMP JUMPDEST PUSH1 0x2 SLOAD PUSH1 0x1 PUSH1 0x1 PUSH1 0xA0 SHL SUB AND CALLER EQ PUSH2 0x2F3 JUMPI PUSH1 0x40 MLOAD PUSH3 0x461BCD PUSH1 0xE5 SHL DUP2 MSTORE PUSH1 0x4 ADD PUSH2 0x2EA SWAP1 PUSH2 0x2001 JUMP JUMPDEST PUSH1 0x40 MLOAD DUP1 SWAP2 SUB SWAP1 REVERT JUMPDEST PUSH1 0x0 DUP2 DUP2 MSTORE PUSH1 0xE PUSH1 0x20 MSTORE PUSH1 0x40 SWAP1 KECCAK256 SLOAD PUSH1 0xFF AND PUSH2 0x36D JUMPI PUSH1 0x0 DUP2 DUP2 MSTORE PUSH1 0xE PUSH1 0x20 MSTORE PUSH1 0x40 DUP2 KECCAK256 DUP1 SLOAD PUSH1 0xFF NOT AND PUSH1 0x1 SWAP1 DUP2 OR SWAP1 SWAP2 SSTORE DUP1 SLOAD SWAP2 PUSH2 0x331 DUP4 PUSH2 0x2044 JUMP JUMPDEST SWAP1 SWAP2 SSTORE POP POP PUSH1 0x40 MLOAD DUP2 DUP2 MSTORE PUSH32 0x3AD93AF63CB7967B23E4FB500B7D7D28B07516325DCF341F88BEBF959D82C1CB SWAP1 PUSH1 0x20 ADD JUMPDEST PUSH1 0x40 MLOAD DUP1 SWAP2 SUB SWAP1 LOG1 POP JUMP JUMPDEST PUSH1 0x40 MLOAD PUSH3 0x461BCD PUSH1 0xE5 SHL DUP2 MSTORE PUSH1 0x20 PUSH1 0x4 DUP3 ADD MSTORE PUSH1 0x28 PUSH1 0x24 DUP3 ADD MSTORE PUSH32 0x5468652063616E6469646174652068617320616C7265616479206265656E2061 PUSH1 0x44 DUP3 ADD MSTORE PUSH8 0x38383937BB32B217 PUSH1 0xC1 SHL PUSH1 0x64 DUP3 ADD MSTORE PUSH1 0x84 ADD PUSH2 0x2EA JUMP JUMPDEST PUSH1 0x6 SLOAD PUSH1 0xFF AND PUSH2 0x3E8 JUMPI PUSH1 0x40 MLOAD PUSH3 0x461BCD PUSH1 0xE5 SHL DUP2 MSTORE PUSH1 0x4 ADD PUSH2 0x2EA SWAP1 PUSH2 0x205D JUMP JUMPDEST PUSH1 0x6 SLOAD PUSH2 0x100 SWAP1 DIV PUSH1 0xFF AND ISZERO PUSH2 0x410 JUMPI PUSH1 0x40 MLOAD PUSH3 0x461BCD PUSH1 0xE5 SHL DUP2 MSTORE PUSH1 0x4 ADD PUSH2 0x2EA SWAP1 PUSH2 0x205D JUMP JUMPDEST PUSH1 0x0 DUP2 DUP2 MSTORE PUSH1 0xE PUSH1 0x20 MSTORE PUSH1 0x40 SWAP1 KECCAK256 SLOAD PUSH1 0xFF AND PUSH2 0x46E JUMPI PUSH1 0x40 MLOAD PUSH3 0x461BCD PUSH1 0xE5 SHL DUP2 MSTORE PUSH1 0x20 PUSH1 0x4 DUP3 ADD MSTORE PUSH1 0x1E PUSH1 0x24 DUP3 ADD MSTORE PUSH32 0x5468652063616E646964617465206973206E6F7420656C696769626C652E0000 PUSH1 0x44 DUP3 ADD MSTORE PUSH1 0x64 ADD PUSH2 0x2EA JUMP JUMPDEST PUSH1 0x0 DUP1 JUMPDEST CALLER PUSH1 0x0 SWAP1 DUP2 MSTORE PUSH1 0x8 PUSH1 0x20 SWAP1 DUP2 MSTORE PUSH1 0x40 DUP1 DUP4 KECCAK256 SLOAD DUP4 MSTORE PUSH1 0xF SWAP1 SWAP2 MSTORE SWAP1 KECCAK256 SLOAD DUP2 LT ISZERO PUSH2 0x586 JUMPI CALLER PUSH1 0x0 SWAP1 DUP2 MSTORE PUSH1 0x8 PUSH1 0x20 SWAP1 DUP2 MSTORE PUSH1 0x40 DUP1 DUP4 KECCAK256 SLOAD DUP4 MSTORE PUSH1 0xF SWAP1 SWAP2 MSTORE SWAP1 KECCAK256 DUP1 SLOAD DUP6 SWAP2 SWAP1 DUP4 SWAP1 DUP2 LT PUSH2 0x4C7 JUMPI PUSH2 0x4C7 PUSH2 0x2094 JUMP JUMPDEST SWAP1 PUSH1 0x0 MSTORE PUSH1 0x20 PUSH1 0x0 KECCAK256 SWAP1 PUSH1 0x2 MUL ADD PUSH1 0x0 ADD SLOAD SUB PUSH2 0x574 JUMPI PUSH1 0x0 DUP4 DUP2 MSTORE PUSH1 0xC PUSH1 0x20 MSTORE PUSH1 0x40 DUP2 KECCAK256 PUSH1 0x1 ADD DUP1 SLOAD SWAP2 PUSH2 0x4FB DUP4 PUSH2 0x2044 JUMP JUMPDEST SWAP1 SWAP2 SSTORE POP POP PUSH1 0x5 DUP1 SLOAD SWAP1 PUSH1 0x0 PUSH2 0x510 DUP4 PUSH2 0x2044 JUMP JUMPDEST SWAP1 SWAP2 SSTORE POP POP CALLER PUSH1 0x0 SWAP1 DUP2 MSTORE PUSH1 0x8 PUSH1 0x20 SWAP1 DUP2 MSTORE PUSH1 0x40 DUP1 DUP4 KECCAK256 SLOAD DUP4 MSTORE PUSH1 0xF SWAP1 SWAP2 MSTORE DUP2 KECCAK256 DUP1 SLOAD DUP4 SWAP1 DUP2 LT PUSH2 0x543 JUMPI PUSH2 0x543 PUSH2 0x2094 JUMP JUMPDEST SWAP1 PUSH1 0x0 MSTORE PUSH1 0x20 PUSH1 0x0 KECCAK256 SWAP1 PUSH1 0x2 MUL ADD PUSH1 0x1 ADD PUSH1 0x1 PUSH2 0x100 EXP DUP2 SLOAD DUP2 PUSH1 0xFF MUL NOT AND SWAP1 DUP4 ISZERO ISZERO MUL OR SWAP1 SSTORE POP PUSH1 0x1 SWAP2 POP PUSH2 0x586 JUMP JUMPDEST DUP1 PUSH2 0x57E DUP2 PUSH2 0x2044 JUMP JUMPDEST SWAP2 POP POP PUSH2 0x472 JUMP JUMPDEST POP DUP1 PUSH2 0x5E0 JUMPI PUSH1 0x40 MLOAD PUSH3 0x461BCD PUSH1 0xE5 SHL DUP2 MSTORE PUSH1 0x20 PUSH1 0x4 DUP3 ADD MSTORE PUSH1 0x24 DUP1 DUP3 ADD MSTORE PUSH32 0x596F7520617265206E6F742064656C6567617465642062792074686973207065 PUSH1 0x44 DUP3 ADD MSTORE PUSH4 0x3939B7B7 PUSH1 0xE1 SHL PUSH1 0x64 DUP3 ADD MSTORE PUSH1 0x84 ADD PUSH2 0x2EA JUMP JUMPDEST POP POP POP JUMP JUMPDEST PUSH1 0x6 SLOAD DUP2 SWAP1 PUSH1 0xFF AND PUSH2 0x609 JUMPI PUSH1 0x40 MLOAD PUSH3 0x461BCD PUSH1 0xE5 SHL DUP2 MSTORE PUSH1 0x4 ADD PUSH2 0x2EA SWAP1 PUSH2 0x205D JUMP JUMPDEST PUSH1 0x6 SLOAD PUSH2 0x100 SWAP1 DIV PUSH1 0xFF AND ISZERO PUSH2 0x631 JUMPI PUSH1 0x40 MLOAD PUSH3 0x461BCD PUSH1 0xE5 SHL DUP2 MSTORE PUSH1 0x4 ADD PUSH2 0x2EA SWAP1 PUSH2 0x205D JUMP JUMPDEST CALLER PUSH1 0x0 SWAP1 DUP2 MSTORE PUSH1 0x8 PUSH1 0x20 MSTORE PUSH1 0x40 DUP2 KECCAK256 SLOAD SWAP1 SUB PUSH2 0x68F JUMPI PUSH1 0x40 MLOAD PUSH3 0x461BCD PUSH1 0xE5 SHL DUP2 MSTORE PUSH1 0x20 PUSH1 0x4 DUP3 ADD MSTORE PUSH1 0x1D PUSH1 0x24 DUP3 ADD MSTORE PUSH32 0x596F7520617265206E6F7420656C696769626C6520746F20766F74652E000000 PUSH1 0x44 DUP3 ADD MSTORE PUSH1 0x64 ADD PUSH2 0x2EA JUMP JUMPDEST CALLER PUSH1 0x0 SWAP1 DUP2 MSTORE PUSH1 0xB PUSH1 0x20 MSTORE PUSH1 0x40 SWAP1 KECCAK256 SLOAD PUSH1 0xFF AND ISZERO PUSH2 0x6EF JUMPI PUSH1 0x40 MLOAD PUSH3 0x461BCD PUSH1 0xE5 SHL DUP2 MSTORE PUSH1 0x20 PUSH1 0x4 DUP3 ADD MSTORE PUSH1 0x17 PUSH1 0x24 DUP3 ADD MSTORE PUSH32 0x596F75206861766520616C726561647920766F7465642E000000000000000000 PUSH1 0x44 DUP3 ADD MSTORE PUSH1 0x64 ADD PUSH2 0x2EA JUMP JUMPDEST PUSH1 0x0 DUP2 DUP2 MSTORE PUSH1 0xE PUSH1 0x20 MSTORE PUSH1 0x40 SWAP1 KECCAK256 SLOAD PUSH1 0xFF AND PUSH2 0x74D JUMPI PUSH1 0x40 MLOAD PUSH3 0x461BCD PUSH1 0xE5 SHL DUP2 MSTORE PUSH1 0x20 PUSH1 0x4 DUP3 ADD MSTORE PUSH1 0x1E PUSH1 0x24 DUP3 ADD MSTORE PUSH32 0x5468652063616E646964617465206973206E6F7420656C696769626C652E0000 PUSH1 0x44 DUP3 ADD MSTORE PUSH1 0x64 ADD PUSH2 0x2EA JUMP JUMPDEST PUSH1 0x6 SLOAD PUSH1 0xFF AND PUSH2 0x76F JUMPI PUSH1 0x40 MLOAD PUSH3 0x461BCD PUSH1 0xE5 SHL DUP2 MSTORE PUSH1 0x4 ADD PUSH2 0x2EA SWAP1 PUSH2 0x205D JUMP JUMPDEST PUSH1 0x6 SLOAD PUSH2 0x100 SWAP1 DIV PUSH1 0xFF AND ISZERO PUSH2 0x797 JUMPI PUSH1 0x40 MLOAD PUSH3 0x461BCD PUSH1 0xE5 SHL DUP2 MSTORE PUSH1 0x4 ADD PUSH2 0x2EA SWAP1 PUSH2 0x205D JUMP JUMPDEST CALLER PUSH1 0x0 SWAP1 DUP2 MSTORE PUSH1 0x8 PUSH1 0x20 SWAP1 DUP2 MSTORE PUSH1 0x40 DUP1 DUP4 KECCAK256 SLOAD DUP4 MSTORE PUSH1 0xD SWAP1 SWAP2 MSTORE SWAP1 KECCAK256 SLOAD PUSH1 0xFF AND PUSH2 0x834 JUMPI PUSH1 0x40 MLOAD PUSH3 0x461BCD PUSH1 0xE5 SHL DUP2 MSTORE PUSH1 0x20 PUSH1 0x4 DUP3 ADD MSTORE PUSH1 0x42 PUSH1 0x24 DUP3 ADD MSTORE PUSH32 0x596F7520617265206E6F7420617574686F72697A656420746F20766F74652E20 PUSH1 0x44 DUP3 ADD MSTORE PUSH32 0x506C6561736520636F6E7461637420456C656374696F6E20436F6D6D69737369 PUSH1 0x64 DUP3 ADD MSTORE PUSH2 0x37B7 PUSH1 0xF1 SHL PUSH1 0x84 DUP3 ADD MSTORE PUSH1 0xA4 ADD PUSH2 0x2EA JUMP JUMPDEST PUSH1 0x0 DUP3 DUP2 MSTORE PUSH1 0xC PUSH1 0x20 MSTORE PUSH1 0x40 DUP2 KECCAK256 PUSH1 0x1 ADD DUP1 SLOAD SWAP2 PUSH2 0x851 DUP4 PUSH2 0x2044 JUMP JUMPDEST SWAP1 SWAP2 SSTORE POP POP PUSH1 0x5 DUP1 SLOAD SWAP1 PUSH1 0x0 PUSH2 0x866 DUP4 PUSH2 0x2044 JUMP JUMPDEST SWAP1 SWAP2 SSTORE POP POP CALLER PUSH1 0x0 SWAP1 DUP2 MSTORE PUSH1 0xB PUSH1 0x20 MSTORE PUSH1 0x40 SWAP1 KECCAK256 DUP1 SLOAD PUSH1 0xFF NOT AND PUSH1 0x1 OR SWAP1 SSTORE POP POP JUMP JUMPDEST CALLER PUSH1 0x0 SWAP1 DUP2 MSTORE PUSH1 0xA PUSH1 0x20 MSTORE PUSH1 0x40 SWAP1 KECCAK256 SLOAD ISZERO PUSH2 0x8B6 JUMPI PUSH1 0x40 MLOAD PUSH3 0x461BCD PUSH1 0xE5 SHL DUP2 MSTORE PUSH1 0x4 ADD PUSH2 0x2EA SWAP1 PUSH2 0x20AA JUMP JUMPDEST PUSH1 0x40 DUP1 MLOAD PUSH1 0xA0 DUP2 ADD DUP3 MSTORE PUSH1 0x4 SLOAD DUP1 DUP3 MSTORE PUSH1 0x20 DUP1 DUP4 ADD DUP9 DUP2 MSTORE DUP4 DUP6 ADD DUP9 SWAP1 MSTORE PUSH1 0x60 DUP5 ADD DUP8 SWAP1 MSTORE PUSH1 0x80 DUP5 ADD DUP7 SWAP1 MSTORE PUSH1 0x0 SWAP3 DUP4 MSTORE PUSH1 0x9 SWAP1 SWAP2 MSTORE SWAP3 SWAP1 KECCAK256 DUP2 MLOAD DUP2 SSTORE SWAP2 MLOAD SWAP1 SWAP2 SWAP1 PUSH1 0x1 DUP3 ADD SWAP1 PUSH2 0x907 SWAP1 DUP3 PUSH2 0x2173 JUMP JUMPDEST POP PUSH1 0x40 DUP3 ADD MLOAD PUSH1 0x2 DUP3 ADD SWAP1 PUSH2 0x91C SWAP1 DUP3 PUSH2 0x2173 JUMP JUMPDEST POP PUSH1 0x60 DUP3 ADD MLOAD PUSH1 0x3 DUP3 ADD SWAP1 PUSH2 0x931 SWAP1 DUP3 PUSH2 0x2173 JUMP JUMPDEST POP PUSH1 0x80 DUP3 ADD MLOAD PUSH1 0x4 DUP3 ADD SWAP1 PUSH2 0x946 SWAP1 DUP3 PUSH2 0x2173 JUMP JUMPDEST POP POP PUSH1 0x40 DUP1 MLOAD PUSH1 0x20 DUP1 DUP3 ADD DUP4 MSTORE PUSH1 0x4 DUP1 SLOAD DUP4 MSTORE CALLER PUSH1 0x0 SWAP1 DUP2 MSTORE PUSH1 0xA DUP4 MSTORE DUP5 DUP2 KECCAK256 SWAP4 MLOAD SWAP1 SWAP4 SSTORE DUP4 MLOAD DUP1 DUP4 ADD DUP6 MSTORE DUP4 DUP2 MSTORE DUP2 SLOAD DUP5 MSTORE PUSH1 0xE DUP4 MSTORE DUP5 DUP5 KECCAK256 SWAP1 MLOAD DUP2 SLOAD PUSH1 0xFF NOT AND SWAP1 ISZERO ISZERO OR SWAP1 SSTORE DUP1 SLOAD DUP4 MSTORE PUSH1 0xC DUP3 MSTORE DUP4 DUP4 KECCAK256 PUSH1 0x1 SWAP1 DUP2 ADD DUP5 SWAP1 SSTORE SWAP1 SLOAD DUP4 MSTORE PUSH1 0x9 SWAP1 SWAP2 MSTORE SWAP2 DUP2 KECCAK256 PUSH1 0x10 DUP1 SLOAD DUP1 DUP6 ADD DUP3 SSTORE SWAP3 MSTORE DUP1 SLOAD PUSH32 0x1B6847DC741A1B0CD08D278845F9D819D87B734759AFB55FE2DE5CB82A9AE672 PUSH1 0x5 SWAP1 SWAP4 MUL SWAP3 DUP4 ADD SWAP1 DUP2 SSTORE SWAP1 SWAP4 POP SWAP2 PUSH32 0x1B6847DC741A1B0CD08D278845F9D819D87B734759AFB55FE2DE5CB82A9AE673 SWAP1 SWAP2 ADD SWAP1 PUSH2 0xA1B SWAP1 DUP5 ADD DUP3 PUSH2 0x2233 JUMP JUMPDEST POP PUSH1 0x2 DUP2 DUP2 ADD SWAP1 PUSH2 0xA2E SWAP1 DUP5 ADD DUP3 PUSH2 0x2233 JUMP JUMPDEST POP PUSH1 0x3 DUP2 DUP2 ADD SWAP1 PUSH2 0xA41 SWAP1 DUP5 ADD DUP3 PUSH2 0x2233 JUMP JUMPDEST POP PUSH1 0x4 DUP2 DUP2 ADD SWAP1 PUSH2 0xA54 SWAP1 DUP5 ADD DUP3 PUSH2 0x2233 JUMP JUMPDEST POP POP PUSH1 0x4 DUP1 SLOAD SWAP2 POP PUSH1 0x0 PUSH2 0xA67 DUP4 PUSH2 0x2044 JUMP JUMPDEST SWAP2 SWAP1 POP SSTORE POP PUSH32 0x11D7002257CA02E998E3D17112A6298CF2BB8B3B44ECE5E8A02E1E78C7D2DC2B CALLER PUSH1 0x40 MLOAD DUP1 PUSH1 0x40 ADD PUSH1 0x40 MSTORE DUP1 PUSH1 0x17 DUP2 MSTORE PUSH1 0x20 ADD PUSH23 0x149959DA5CDD1C985D1A5BDB8814DD58D8D95CDCD99D5B PUSH1 0x4A SHL DUP2 MSTORE POP PUSH1 0x40 MLOAD PUSH2 0xACC SWAP3 SWAP2 SWAP1 PUSH2 0x230E JUMP JUMPDEST PUSH1 0x40 MLOAD DUP1 SWAP2 SUB SWAP1 LOG1 PUSH1 0x2 SLOAD PUSH1 0x40 DUP1 MLOAD PUSH1 0x1 PUSH1 0x1 PUSH1 0xA0 SHL SUB SWAP1 SWAP3 AND DUP3 MSTORE PUSH1 0x20 DUP3 ADD DUP2 SWAP1 MSTORE PUSH1 0x22 SWAP1 DUP3 ADD MSTORE PUSH32 0x5265717565737420666F722043616E6469646174652052656769737472617469 PUSH1 0x60 DUP3 ADD MSTORE PUSH2 0x37B7 PUSH1 0xF1 SHL PUSH1 0x80 DUP3 ADD MSTORE PUSH32 0x73EA8B385CDE3D60501D54BCCC28C7CCFF4841FF66EAE0201CBB1FAFE237FCE6 SWAP1 PUSH1 0xA0 ADD JUMPDEST PUSH1 0x40 MLOAD DUP1 SWAP2 SUB SWAP1 LOG1 POP POP POP POP JUMP JUMPDEST PUSH1 0x2 SLOAD PUSH1 0x1 PUSH1 0x1 PUSH1 0xA0 SHL SUB AND CALLER EQ PUSH2 0xB84 JUMPI PUSH1 0x40 MLOAD PUSH3 0x461BCD PUSH1 0xE5 SHL DUP2 MSTORE PUSH1 0x4 ADD PUSH2 0x2EA SWAP1 PUSH2 0x2001 JUMP JUMPDEST PUSH1 0x6 SLOAD PUSH1 0xFF AND ISZERO PUSH2 0xBB0 JUMPI PUSH1 0x6 SLOAD PUSH2 0x100 SWAP1 DIV PUSH1 0xFF AND PUSH2 0xBAE JUMPI PUSH1 0x6 DUP1 SLOAD PUSH2 0xFF00 NOT AND PUSH2 0x100 OR SWAP1 SSTORE JUMPDEST JUMP JUMPDEST PUSH1 0x40 MLOAD PUSH3 0x461BCD PUSH1 0xE5 SHL DUP2 MSTORE PUSH1 0x20 PUSH1 0x4 DUP3 ADD DUP2 SWAP1 MSTORE PUSH1 0x24 DUP3 ADD MSTORE PUSH32 0x54686520656C656374696F6E206973206E6F742073746172746564207965742E PUSH1 0x44 DUP3 ADD MSTORE PUSH1 0x64 ADD PUSH2 0x2EA JUMP JUMPDEST CALLER PUSH1 0x0 SWAP1 DUP2 MSTORE PUSH1 0x8 PUSH1 0x20 MSTORE PUSH1 0x40 SWAP1 KECCAK256 SLOAD ISZERO PUSH2 0xC25 JUMPI PUSH1 0x40 MLOAD PUSH3 0x461BCD PUSH1 0xE5 SHL DUP2 MSTORE PUSH1 0x4 ADD PUSH2 0x2EA SWAP1 PUSH2 0x20AA JUMP JUMPDEST PUSH1 0x40 DUP1 MLOAD PUSH1 0xA0 DUP2 ADD DUP3 MSTORE PUSH1 0x3 SLOAD DUP1 DUP3 MSTORE PUSH1 0x20 DUP1 DUP4 ADD DUP9 DUP2 MSTORE DUP4 DUP6 ADD DUP9 SWAP1 MSTORE PUSH1 0xFF DUP8 AND PUSH1 0x60 DUP6 ADD MSTORE PUSH1 0x80 DUP5 ADD DUP7 SWAP1 MSTORE PUSH1 0x0 SWAP3 DUP4 MSTORE PUSH1 0x7 SWAP1 SWAP2 MSTORE SWAP3 SWAP1 KECCAK256 DUP2 MLOAD DUP2 SSTORE SWAP2 MLOAD SWAP1 SWAP2 SWAP1 PUSH1 0x1 DUP3 ADD SWAP1 PUSH2 0xC78 SWAP1 DUP3 PUSH2 0x2173 JUMP JUMPDEST POP PUSH1 0x40 DUP3 ADD MLOAD PUSH1 0x2 DUP3 ADD SWAP1 PUSH2 0xC8D SWAP1 DUP3 PUSH2 0x2173 JUMP JUMPDEST POP PUSH1 0x60 DUP3 ADD MLOAD PUSH1 0x3 DUP3 ADD DUP1 SLOAD PUSH1 0xFF NOT AND PUSH1 0xFF SWAP1 SWAP3 AND SWAP2 SWAP1 SWAP2 OR SWAP1 SSTORE PUSH1 0x80 DUP3 ADD MLOAD PUSH1 0x4 DUP3 ADD SWAP1 PUSH2 0xCBC SWAP1 DUP3 PUSH2 0x2173 JUMP JUMPDEST POP POP PUSH1 0x40 DUP1 MLOAD PUSH1 0x20 DUP1 DUP3 ADD DUP4 MSTORE PUSH1 0x3 DUP1 SLOAD DUP4 MSTORE CALLER PUSH1 0x0 DUP2 DUP2 MSTORE PUSH1 0x8 DUP5 MSTORE DUP6 DUP2 KECCAK256 SWAP5 MLOAD SWAP1 SWAP5 SSTORE DUP5 MLOAD DUP1 DUP5 ADD DUP7 MSTORE DUP5 DUP2 MSTORE DUP3 SLOAD DUP6 MSTORE PUSH1 0xD DUP5 MSTORE DUP6 DUP6 KECCAK256 SWAP1 MLOAD DUP2 SLOAD SWAP1 ISZERO ISZERO PUSH1 0xFF NOT SWAP2 DUP3 AND OR SWAP1 SWAP2 SSTORE SWAP1 DUP5 MSTORE PUSH1 0xB SWAP1 SWAP3 MSTORE SWAP3 DUP3 KECCAK256 DUP1 SLOAD SWAP1 SWAP2 AND SWAP1 SSTORE DUP2 SLOAD SWAP3 POP PUSH2 0xD26 DUP4 PUSH2 0x2044 JUMP JUMPDEST SWAP2 SWAP1 POP SSTORE POP PUSH32 0xE54FED3D6F8EA8D23D023956C25FEFD884A7258386B09AC1C4783EF5D1C51B06 CALLER PUSH1 0x40 MLOAD DUP1 PUSH1 0x40 ADD PUSH1 0x40 MSTORE DUP1 PUSH1 0x17 DUP2 MSTORE PUSH1 0x20 ADD PUSH23 0x149959DA5CDD1C985D1A5BDB8814DD58D8D95CDCD99D5B PUSH1 0x4A SHL DUP2 MSTORE POP PUSH1 0x40 MLOAD PUSH2 0xD8B SWAP3 SWAP2 SWAP1 PUSH2 0x230E JUMP JUMPDEST PUSH1 0x40 MLOAD DUP1 SWAP2 SUB SWAP1 LOG1 PUSH1 0x2 SLOAD PUSH1 0x40 DUP1 MLOAD PUSH1 0x1 PUSH1 0x1 PUSH1 0xA0 SHL SUB SWAP1 SWAP3 AND DUP3 MSTORE PUSH1 0x20 DUP3 ADD DUP2 SWAP1 MSTORE PUSH1 0x1E SWAP1 DUP3 ADD MSTORE PUSH32 0x5265717565737420666F7220566F74657220526567697374726174696F6E0000 PUSH1 0x60 DUP3 ADD MSTORE PUSH32 0x73EA8B385CDE3D60501D54BCCC28C7CCFF4841FF66EAE0201CBB1FAFE237FCE6 SWAP1 PUSH1 0x80 ADD PUSH2 0xB4C JUMP JUMPDEST PUSH1 0x2 SLOAD PUSH1 0x1 PUSH1 0x1 PUSH1 0xA0 SHL SUB AND CALLER EQ PUSH2 0xE2E JUMPI PUSH1 0x40 MLOAD PUSH3 0x461BCD PUSH1 0xE5 SHL DUP2 MSTORE PUSH1 0x4 ADD PUSH2 0x2EA SWAP1 PUSH2 0x2001 JUMP JUMPDEST PUSH1 0x6 SLOAD PUSH1 0xFF AND PUSH2 0xE47 JUMPI PUSH1 0x6 DUP1 SLOAD PUSH1 0xFF NOT AND PUSH1 0x1 OR SWAP1 SSTORE JUMP JUMPDEST PUSH1 0x40 MLOAD PUSH3 0x461BCD PUSH1 0xE5 SHL DUP2 MSTORE PUSH1 0x20 PUSH1 0x4 DUP3 ADD MSTORE PUSH1 0x24 DUP1 DUP3 ADD MSTORE PUSH32 0x54686520656C656374696F6E20697320616C726561647920696E2070726F6772 PUSH1 0x44 DUP3 ADD MSTORE PUSH4 0x32B9B997 PUSH1 0xE1 SHL PUSH1 0x64 DUP3 ADD MSTORE PUSH1 0x84 ADD PUSH2 0x2EA JUMP JUMPDEST PUSH2 0xECD PUSH1 0x40 MLOAD DUP1 PUSH1 0xA0 ADD PUSH1 0x40 MSTORE DUP1 PUSH1 0x0 DUP2 MSTORE PUSH1 0x20 ADD PUSH1 0x60 DUP2 MSTORE PUSH1 0x20 ADD PUSH1 0x60 DUP2 MSTORE PUSH1 0x20 ADD PUSH1 0x60 DUP2 MSTORE PUSH1 0x20 ADD PUSH1 0x60 DUP2 MSTORE POP SWAP1 JUMP JUMPDEST PUSH1 0x9 PUSH1 0x0 DUP4 DUP2 MSTORE PUSH1 0x20 ADD SWAP1 DUP2 MSTORE PUSH1 0x20 ADD PUSH1 0x0 KECCAK256 PUSH1 0x40 MLOAD DUP1 PUSH1 0xA0 ADD PUSH1 0x40 MSTORE SWAP1 DUP2 PUSH1 0x0 DUP3 ADD SLOAD DUP2 MSTORE PUSH1 0x20 ADD PUSH1 0x1 DUP3 ADD DUP1 SLOAD PUSH2 0xF05 SWAP1 PUSH2 0x20EB JUMP JUMPDEST DUP1 PUSH1 0x1F ADD PUSH1 0x20 DUP1 SWAP2 DIV MUL PUSH1 0x20 ADD PUSH1 0x40 MLOAD SWAP1 DUP2 ADD PUSH1 0x40 MSTORE DUP1 SWAP3 SWAP2 SWAP1 DUP2 DUP2 MSTORE PUSH1 0x20 ADD DUP3 DUP1 SLOAD PUSH2 0xF31 SWAP1 PUSH2 0x20EB JUMP JUMPDEST DUP1 ISZERO PUSH2 0xF7E JUMPI DUP1 PUSH1 0x1F LT PUSH2 0xF53 JUMPI PUSH2 0x100 DUP1 DUP4 SLOAD DIV MUL DUP4 MSTORE SWAP2 PUSH1 0x20 ADD SWAP2 PUSH2 0xF7E JUMP JUMPDEST DUP3 ADD SWAP2 SWAP1 PUSH1 0x0 MSTORE PUSH1 0x20 PUSH1 0x0 KECCAK256 SWAP1 JUMPDEST DUP2 SLOAD DUP2 MSTORE SWAP1 PUSH1 0x1 ADD SWAP1 PUSH1 0x20 ADD DUP1 DUP4 GT PUSH2 0xF61 JUMPI DUP3 SWAP1 SUB PUSH1 0x1F AND DUP3 ADD SWAP2 JUMPDEST POP POP POP POP POP DUP2 MSTORE PUSH1 0x20 ADD PUSH1 0x2 DUP3 ADD DUP1 SLOAD PUSH2 0xF97 SWAP1 PUSH2 0x20EB JUMP JUMPDEST DUP1 PUSH1 0x1F ADD PUSH1 0x20 DUP1 SWAP2 DIV MUL PUSH1 0x20 ADD PUSH1 0x40 MLOAD SWAP1 DUP2 ADD PUSH1 0x40 MSTORE DUP1 SWAP3 SWAP2 SWAP1 DUP2 DUP2 MSTORE PUSH1 0x20 ADD DUP3 DUP1 SLOAD PUSH2 0xFC3 SWAP1 PUSH2 0x20EB JUMP JUMPDEST DUP1 ISZERO PUSH2 0x1010 JUMPI DUP1 PUSH1 0x1F LT PUSH2 0xFE5 JUMPI PUSH2 0x100 DUP1 DUP4 SLOAD DIV MUL DUP4 MSTORE SWAP2 PUSH1 0x20 ADD SWAP2 PUSH2 0x1010 JUMP JUMPDEST DUP3 ADD SWAP2 SWAP1 PUSH1 0x0 MSTORE PUSH1 0x20 PUSH1 0x0 KECCAK256 SWAP1 JUMPDEST DUP2 SLOAD DUP2 MSTORE SWAP1 PUSH1 0x1 ADD SWAP1 PUSH1 0x20 ADD DUP1 DUP4 GT PUSH2 0xFF3 JUMPI DUP3 SWAP1 SUB PUSH1 0x1F AND DUP3 ADD SWAP2 JUMPDEST POP POP POP POP POP DUP2 MSTORE PUSH1 0x20 ADD PUSH1 0x3 DUP3 ADD DUP1 SLOAD PUSH2 0x1029 SWAP1 PUSH2 0x20EB JUMP JUMPDEST DUP1 PUSH1 0x1F ADD PUSH1 0x20 DUP1 SWAP2 DIV MUL PUSH1 0x20 ADD PUSH1 0x40 MLOAD SWAP1 DUP2 ADD PUSH1 0x40 MSTORE DUP1 SWAP3 SWAP2 SWAP1 DUP2 DUP2 MSTORE PUSH1 0x20 ADD DUP3 DUP1 SLOAD PUSH2 0x1055 SWAP1 PUSH2 0x20EB JUMP JUMPDEST DUP1 ISZERO PUSH2 0x10A2 JUMPI DUP1 PUSH1 0x1F LT PUSH2 0x1077 JUMPI PUSH2 0x100 DUP1 DUP4 SLOAD DIV MUL DUP4 MSTORE SWAP2 PUSH1 0x20 ADD SWAP2 PUSH2 0x10A2 JUMP JUMPDEST DUP3 ADD SWAP2 SWAP1 PUSH1 0x0 MSTORE PUSH1 0x20 PUSH1 0x0 KECCAK256 SWAP1 JUMPDEST DUP2 SLOAD DUP2 MSTORE SWAP1 PUSH1 0x1 ADD SWAP1 PUSH1 0x20 ADD DUP1 DUP4 GT PUSH2 0x1085 JUMPI DUP3 SWAP1 SUB PUSH1 0x1F AND DUP3 ADD SWAP2 JUMPDEST POP POP POP POP POP DUP2 MSTORE PUSH1 0x20 ADD PUSH1 0x4 DUP3 ADD DUP1 SLOAD PUSH2 0x10BB SWAP1 PUSH2 0x20EB JUMP JUMPDEST DUP1 PUSH1 0x1F ADD PUSH1 0x20 DUP1 SWAP2 DIV MUL PUSH1 0x20 ADD PUSH1 0x40 MLOAD SWAP1 DUP2 ADD PUSH1 0x40 MSTORE DUP1 SWAP3 SWAP2 SWAP1 DUP2 DUP2 MSTORE PUSH1 0x20 ADD DUP3 DUP1 SLOAD PUSH2 0x10E7 SWAP1 PUSH2 0x20EB JUMP JUMPDEST DUP1 ISZERO PUSH2 0x1134 JUMPI DUP1 PUSH1 0x1F LT PUSH2 0x1109 JUMPI PUSH2 0x100 DUP1 DUP4 SLOAD DIV MUL DUP4 MSTORE SWAP2 PUSH1 0x20 ADD SWAP2 PUSH2 0x1134 JUMP JUMPDEST DUP3 ADD SWAP2 SWAP1 PUSH1 0x0 MSTORE PUSH1 0x20 PUSH1 0x0 KECCAK256 SWAP1 JUMPDEST DUP2 SLOAD DUP2 MSTORE SWAP1 PUSH1 0x1 ADD SWAP1 PUSH1 0x20 ADD DUP1 DUP4 GT PUSH2 0x1117 JUMPI DUP3 SWAP1 SUB PUSH1 0x1F AND DUP3 ADD SWAP2 JUMPDEST POP POP POP POP POP DUP2 MSTORE POP POP SWAP1 POP SWAP2 SWAP1 POP JUMP JUMPDEST PUSH1 0x2 SLOAD PUSH1 0x1 PUSH1 0x1 PUSH1 0xA0 SHL SUB AND CALLER EQ PUSH2 0x116E JUMPI PUSH1 0x40 MLOAD PUSH3 0x461BCD PUSH1 0xE5 SHL DUP2 MSTORE PUSH1 0x4 ADD PUSH2 0x2EA SWAP1 PUSH2 0x2001 JUMP JUMPDEST PUSH1 0x0 DUP2 DUP2 MSTORE PUSH1 0xD PUSH1 0x20 MSTORE PUSH1 0x40 SWAP1 KECCAK256 SLOAD PUSH1 0xFF AND PUSH2 0x11AA JUMPI PUSH1 0x0 DUP2 DUP2 MSTORE PUSH1 0xD PUSH1 0x20 MSTORE PUSH1 0x40 DUP2 KECCAK256 DUP1 SLOAD PUSH1 0xFF NOT AND PUSH1 0x1 OR SWAP1 SSTORE DUP1 SLOAD SWAP1 DUP1 PUSH2 0x331 DUP4 PUSH2 0x2044 JUMP JUMPDEST PUSH1 0x40 MLOAD PUSH3 0x461BCD PUSH1 0xE5 SHL DUP2 MSTORE PUSH1 0x20 PUSH1 0x4 DUP3 ADD MSTORE PUSH1 0x24 DUP1 DUP3 ADD MSTORE PUSH32 0x54686520766F7465722068617320616C7265616479206265656E20617070726F PUSH1 0x44 DUP3 ADD MSTORE PUSH4 0x3B32B217 PUSH1 0xE1 SHL PUSH1 0x64 DUP3 ADD MSTORE PUSH1 0x84 ADD PUSH2 0x2EA JUMP JUMPDEST CALLER PUSH1 0x0 SWAP1 DUP2 MSTORE PUSH1 0x8 PUSH1 0x20 MSTORE PUSH1 0x40 DUP2 KECCAK256 SLOAD DUP4 SWAP2 SUB PUSH2 0x125D JUMPI PUSH1 0x40 MLOAD PUSH3 0x461BCD PUSH1 0xE5 SHL DUP2 MSTORE PUSH1 0x20 PUSH1 0x4 DUP3 ADD DUP2 SWAP1 MSTORE PUSH1 0x24 DUP3 ADD MSTORE PUSH32 0x596F7520617265206E6F7420616E20617574686F72697A656420766F7465722E PUSH1 0x44 DUP3 ADD MSTORE PUSH1 0x64 ADD PUSH2 0x2EA JUMP JUMPDEST CALLER PUSH1 0x0 SWAP1 DUP2 MSTORE PUSH1 0x8 PUSH1 0x20 SWAP1 DUP2 MSTORE PUSH1 0x40 DUP1 DUP4 KECCAK256 SLOAD DUP4 MSTORE PUSH1 0xD SWAP1 SWAP2 MSTORE SWAP1 KECCAK256 SLOAD PUSH1 0xFF AND PUSH2 0x12C9 JUMPI PUSH1 0x40 MLOAD PUSH3 0x461BCD PUSH1 0xE5 SHL DUP2 MSTORE PUSH1 0x20 PUSH1 0x4 DUP3 ADD DUP2 SWAP1 MSTORE PUSH1 0x24 DUP3 ADD MSTORE PUSH32 0x596F7520617265206E6F7420616E20617574686F72697A656420766F7465722E PUSH1 0x44 DUP3 ADD MSTORE PUSH1 0x64 ADD PUSH2 0x2EA JUMP JUMPDEST PUSH1 0x0 DUP2 DUP2 MSTORE PUSH1 0xD PUSH1 0x20 MSTORE PUSH1 0x40 SWAP1 KECCAK256 SLOAD PUSH1 0xFF AND PUSH2 0x1331 JUMPI PUSH1 0x40 MLOAD PUSH3 0x461BCD PUSH1 0xE5 SHL DUP2 MSTORE PUSH1 0x20 PUSH1 0x4 DUP3 ADD MSTORE PUSH1 0x21 PUSH1 0x24 DUP3 ADD MSTORE PUSH32 0x5468657920617265206E6F7420616E20617574686F72697A656420766F746572 PUSH1 0x44 DUP3 ADD MSTORE PUSH1 0x17 PUSH1 0xF9 SHL PUSH1 0x64 DUP3 ADD MSTORE PUSH1 0x84 ADD PUSH2 0x2EA JUMP JUMPDEST PUSH1 0x0 DUP4 DUP2 MSTORE PUSH1 0xF PUSH1 0x20 SWAP1 DUP2 MSTORE PUSH1 0x40 DUP1 DUP4 KECCAK256 DUP2 MLOAD PUSH1 0x60 DUP2 ADD DUP4 MSTORE CALLER DUP6 MSTORE PUSH1 0x8 DUP5 MSTORE SWAP2 SWAP1 SWAP4 KECCAK256 SLOAD DUP2 MSTORE SWAP1 DUP2 ADD DUP5 PUSH1 0x5 DUP2 GT ISZERO PUSH2 0x136D JUMPI PUSH2 0x136D PUSH2 0x233A JUMP JUMPDEST DUP2 MSTORE PUSH1 0x1 PUSH1 0x20 SWAP2 DUP3 ADD DUP2 SWAP1 MSTORE DUP4 SLOAD DUP1 DUP3 ADD DUP6 SSTORE PUSH1 0x0 SWAP5 DUP6 MSTORE SWAP4 DUP3 SWAP1 KECCAK256 DUP4 MLOAD PUSH1 0x2 SWAP1 SWAP6 MUL ADD SWAP4 DUP5 SSTORE SWAP1 DUP3 ADD MLOAD DUP4 DUP3 ADD DUP1 SLOAD SWAP4 SWAP5 SWAP4 SWAP2 SWAP3 SWAP1 SWAP2 PUSH1 0xFF NOT AND SWAP1 DUP4 PUSH1 0x5 DUP2 GT ISZERO PUSH2 0x13BB JUMPI PUSH2 0x13BB PUSH2 0x233A JUMP JUMPDEST MUL OR SWAP1 SSTORE POP PUSH1 0x40 SWAP2 DUP3 ADD MLOAD PUSH1 0x1 SWAP2 DUP3 ADD DUP1 SLOAD SWAP2 ISZERO ISZERO PUSH2 0x100 MUL PUSH2 0xFF00 NOT SWAP1 SWAP3 AND SWAP2 SWAP1 SWAP2 OR SWAP1 SSTORE CALLER PUSH1 0x0 SWAP1 DUP2 MSTORE PUSH1 0xB PUSH1 0x20 MSTORE SWAP2 SWAP1 SWAP2 KECCAK256 DUP1 SLOAD PUSH1 0xFF NOT AND SWAP1 SWAP2 OR SWAP1 SSTORE POP POP POP JUMP JUMPDEST PUSH1 0x6 SLOAD PUSH1 0x0 SWAP1 PUSH2 0x100 SWAP1 DIV PUSH1 0xFF AND PUSH2 0x142A JUMPI PUSH1 0x40 MLOAD PUSH3 0x461BCD PUSH1 0xE5 SHL DUP2 MSTORE PUSH1 0x4 ADD PUSH2 0x2EA SWAP1 PUSH2 0x2350 JUMP JUMPDEST POP PUSH1 0x0 SWAP1 DUP2 MSTORE PUSH1 0xC PUSH1 0x20 MSTORE PUSH1 0x40 SWAP1 KECCAK256 PUSH1 0x1 ADD SLOAD SWAP1 JUMP JUMPDEST PUSH1 0x2 SLOAD PUSH1 0x1 PUSH1 0x1 PUSH1 0xA0 SHL SUB AND CALLER EQ PUSH2 0x146A JUMPI PUSH1 0x40 MLOAD PUSH3 0x461BCD PUSH1 0xE5 SHL DUP2 MSTORE PUSH1 0x4 ADD PUSH2 0x2EA SWAP1 PUSH2 0x2001 JUMP JUMPDEST PUSH1 0x0 DUP2 DUP2 MSTORE PUSH1 0xE PUSH1 0x20 MSTORE PUSH1 0x40 SWAP1 KECCAK256 SLOAD PUSH1 0xFF AND ISZERO PUSH2 0x14DA JUMPI PUSH1 0x0 DUP2 DUP2 MSTORE PUSH1 0xE PUSH1 0x20 MSTORE PUSH1 0x40 DUP2 KECCAK256 DUP1 SLOAD PUSH1 0xFF NOT AND SWAP1 SSTORE PUSH1 0x1 DUP1 SLOAD SWAP2 PUSH2 0x14A5 DUP4 PUSH2 0x239A JUMP JUMPDEST SWAP1 SWAP2 SSTORE POP POP PUSH1 0x40 MLOAD DUP2 DUP2 MSTORE PUSH32 0xFB0048BB5704410776033BB8355286FB6922CC0623412BD454152BAC55397F35 SWAP1 PUSH1 0x20 ADD PUSH2 0x362 JUMP JUMPDEST PUSH1 0x40 MLOAD PUSH3 0x461BCD PUSH1 0xE5 SHL DUP2 MSTORE PUSH1 0x20 PUSH1 0x4 DUP3 ADD MSTORE PUSH1 0x32 PUSH1 0x24 DUP3 ADD MSTORE PUSH32 0x5468652063616E6469646174652068617320616C7265616479206265656E2064 PUSH1 0x44 DUP3 ADD MSTORE PUSH18 0x32B1B634B732B21037B9103130B73732B217 PUSH1 0x71 SHL PUSH1 0x64 DUP3 ADD MSTORE PUSH1 0x84 ADD PUSH2 0x2EA JUMP JUMPDEST PUSH1 0x60 PUSH1 0x0 DUP1 PUSH1 0x6 PUSH1 0x1 SWAP1 SLOAD SWAP1 PUSH2 0x100 EXP SWAP1 DIV PUSH1 0xFF AND PUSH2 0x156E JUMPI PUSH1 0x40 MLOAD PUSH3 0x461BCD PUSH1 0xE5 SHL DUP2 MSTORE PUSH1 0x4 ADD PUSH2 0x2EA SWAP1 PUSH2 0x2350 JUMP JUMPDEST PUSH1 0x1 PUSH1 0x0 SWAP1 DUP2 MSTORE PUSH32 0xD421A5181C571BBA3F01190C922C3B2A896FC1D84E86C9F17AC10E67EBEF8B5D SLOAD PUSH1 0x9 PUSH1 0x20 MSTORE PUSH32 0x92E85D02570A8092D09A6E3A57665BC3815A2699A4074001BF1CCABF660F5A36 SLOAD SWAP1 SWAP2 SWAP1 PUSH1 0x2 JUMPDEST PUSH1 0x1 SLOAD DUP2 GT PUSH2 0x163D JUMPI PUSH1 0x0 DUP2 DUP2 MSTORE PUSH1 0xC PUSH1 0x20 MSTORE PUSH1 0x40 SWAP1 KECCAK256 PUSH1 0x1 ADD SLOAD DUP5 LT ISZERO PUSH2 0x160E JUMPI PUSH1 0x0 DUP2 DUP2 MSTORE PUSH1 0xC PUSH1 0x20 SWAP1 DUP2 MSTORE PUSH1 0x40 DUP1 DUP4 KECCAK256 PUSH1 0x1 ADD SLOAD PUSH1 0x9 SWAP1 SWAP3 MSTORE SWAP1 SWAP2 KECCAK256 SLOAD SWAP1 SWAP5 POP SWAP2 POP PUSH2 0x162B JUMP JUMPDEST PUSH1 0x0 DUP2 DUP2 MSTORE PUSH1 0xC PUSH1 0x20 MSTORE PUSH1 0x40 SWAP1 KECCAK256 PUSH1 0x1 ADD SLOAD DUP5 SWAP1 SUB PUSH2 0x162B JUMPI DUP1 SWAP3 POP JUMPDEST DUP1 PUSH2 0x1635 DUP2 PUSH2 0x2044 JUMP JUMPDEST SWAP2 POP POP PUSH2 0x15C4 JUMP JUMPDEST POP DUP2 PUSH1 0x0 SUB PUSH2 0x1697 JUMPI PUSH1 0x10 DUP2 DUP2 SLOAD DUP2 LT PUSH2 0x1659 JUMPI PUSH2 0x1659 PUSH2 0x2094 JUMP JUMPDEST SWAP1 PUSH1 0x0 MSTORE PUSH1 0x20 PUSH1 0x0 KECCAK256 SWAP1 PUSH1 0x5 MUL ADD PUSH1 0x1 ADD PUSH1 0x40 MLOAD PUSH1 0x20 ADD PUSH2 0x167A SWAP2 SWAP1 PUSH2 0x23B1 JUMP JUMPDEST PUSH1 0x40 DUP1 MLOAD PUSH1 0x1F NOT DUP2 DUP5 SUB ADD DUP2 MSTORE SWAP2 SWAP1 MSTORE SWAP7 SWAP1 SWAP6 POP SWAP2 SWAP4 POP SWAP1 SWAP2 POP POP JUMP JUMPDEST PUSH1 0x40 DUP1 MLOAD DUP1 DUP3 ADD SWAP1 SWAP2 MSTORE PUSH1 0x19 DUP2 MSTORE PUSH32 0x54686520726573756C7420697320546965204265747765656E00000000000000 PUSH1 0x20 DUP3 ADD MSTORE SWAP7 SWAP1 SWAP6 POP SWAP1 SWAP4 POP SWAP2 POP POP JUMP JUMPDEST PUSH1 0x60 PUSH1 0x10 DUP1 SLOAD DUP1 PUSH1 0x20 MUL PUSH1 0x20 ADD PUSH1 0x40 MLOAD SWAP1 DUP2 ADD PUSH1 0x40 MSTORE DUP1 SWAP3 SWAP2 SWAP1 DUP2 DUP2 MSTORE PUSH1 0x20 ADD PUSH1 0x0 SWAP1 JUMPDEST DUP3 DUP3 LT ISZERO PUSH2 0x197F JUMPI DUP4 DUP3 SWAP1 PUSH1 0x0 MSTORE PUSH1 0x20 PUSH1 0x0 KECCAK256 SWAP1 PUSH1 0x5 MUL ADD PUSH1 0x40 MLOAD DUP1 PUSH1 0xA0 ADD PUSH1 0x40 MSTORE SWAP1 DUP2 PUSH1 0x0 DUP3 ADD SLOAD DUP2 MSTORE PUSH1 0x20 ADD PUSH1 0x1 DUP3 ADD DUP1 SLOAD PUSH2 0x1738 SWAP1 PUSH2 0x20EB JUMP JUMPDEST DUP1 PUSH1 0x1F ADD PUSH1 0x20 DUP1 SWAP2 DIV MUL PUSH1 0x20 ADD PUSH1 0x40 MLOAD SWAP1 DUP2 ADD PUSH1 0x40 MSTORE DUP1 SWAP3 SWAP2 SWAP1 DUP2 DUP2 MSTORE PUSH1 0x20 ADD DUP3 DUP1 SLOAD PUSH2 0x1764 SWAP1 PUSH2 0x20EB JUMP JUMPDEST DUP1 ISZERO PUSH2 0x17B1 JUMPI DUP1 PUSH1 0x1F LT PUSH2 0x1786 JUMPI PUSH2 0x100 DUP1 DUP4 SLOAD DIV MUL DUP4 MSTORE SWAP2 PUSH1 0x20 ADD SWAP2 PUSH2 0x17B1 JUMP JUMPDEST DUP3 ADD SWAP2 SWAP1 PUSH1 0x0 MSTORE PUSH1 0x20 PUSH1 0x0 KECCAK256 SWAP1 JUMPDEST DUP2 SLOAD DUP2 MSTORE SWAP1 PUSH1 0x1 ADD SWAP1 PUSH1 0x20 ADD DUP1 DUP4 GT PUSH2 0x1794 JUMPI DUP3 SWAP1 SUB PUSH1 0x1F AND DUP3 ADD SWAP2 JUMPDEST POP POP POP POP POP DUP2 MSTORE PUSH1 0x20 ADD PUSH1 0x2 DUP3 ADD DUP1 SLOAD PUSH2 0x17CA SWAP1 PUSH2 0x20EB JUMP JUMPDEST DUP1 PUSH1 0x1F ADD PUSH1 0x20 DUP1 SWAP2 DIV MUL PUSH1 0x20 ADD PUSH1 0x40 MLOAD SWAP1 DUP2 ADD PUSH1 0x40 MSTORE DUP1 SWAP3 SWAP2 SWAP1 DUP2 DUP2 MSTORE PUSH1 0x20 ADD DUP3 DUP1 SLOAD PUSH2 0x17F6 SWAP1 PUSH2 0x20EB JUMP JUMPDEST DUP1 ISZERO PUSH2 0x1843 JUMPI DUP1 PUSH1 0x1F LT PUSH2 0x1818 JUMPI PUSH2 0x100 DUP1 DUP4 SLOAD DIV MUL DUP4 MSTORE SWAP2 PUSH1 0x20 ADD SWAP2 PUSH2 0x1843 JUMP JUMPDEST DUP3 ADD SWAP2 SWAP1 PUSH1 0x0 MSTORE PUSH1 0x20 PUSH1 0x0 KECCAK256 SWAP1 JUMPDEST DUP2 SLOAD DUP2 MSTORE SWAP1 PUSH1 0x1 ADD SWAP1 PUSH1 0x20 ADD DUP1 DUP4 GT PUSH2 0x1826 JUMPI DUP3 SWAP1 SUB PUSH1 0x1F AND DUP3 ADD SWAP2 JUMPDEST POP POP POP POP POP DUP2 MSTORE PUSH1 0x20 ADD PUSH1 0x3 DUP3 ADD DUP1 SLOAD PUSH2 0x185C SWAP1 PUSH2 0x20EB JUMP JUMPDEST DUP1 PUSH1 0x1F ADD PUSH1 0x20 DUP1 SWAP2 DIV MUL PUSH1 0x20 ADD PUSH1 0x40 MLOAD SWAP1 DUP2 ADD PUSH1 0x40 MSTORE DUP1 SWAP3 SWAP2 SWAP1 DUP2 DUP2 MSTORE PUSH1 0x20 ADD DUP3 DUP1 SLOAD PUSH2 0x1888 SWAP1 PUSH2 0x20EB JUMP JUMPDEST DUP1 ISZERO PUSH2 0x18D5 JUMPI DUP1 PUSH1 0x1F LT PUSH2 0x18AA JUMPI PUSH2 0x100 DUP1 DUP4 SLOAD DIV MUL DUP4 MSTORE SWAP2 PUSH1 0x20 ADD SWAP2 PUSH2 0x18D5 JUMP JUMPDEST DUP3 ADD SWAP2 SWAP1 PUSH1 0x0 MSTORE PUSH1 0x20 PUSH1 0x0 KECCAK256 SWAP1 JUMPDEST DUP2 SLOAD DUP2 MSTORE SWAP1 PUSH1 0x1 ADD SWAP1 PUSH1 0x20 ADD DUP1 DUP4 GT PUSH2 0x18B8 JUMPI DUP3 SWAP1 SUB PUSH1 0x1F AND DUP3 ADD SWAP2 JUMPDEST POP POP POP POP POP DUP2 MSTORE PUSH1 0x20 ADD PUSH1 0x4 DUP3 ADD DUP1 SLOAD PUSH2 0x18EE SWAP1 PUSH2 0x20EB JUMP JUMPDEST DUP1 PUSH1 0x1F ADD PUSH1 0x20 DUP1 SWAP2 DIV MUL PUSH1 0x20 ADD PUSH1 0x40 MLOAD SWAP1 DUP2 ADD PUSH1 0x40 MSTORE DUP1 SWAP3 SWAP2 SWAP1 DUP2 DUP2 MSTORE PUSH1 0x20 ADD DUP3 DUP1 SLOAD PUSH2 0x191A SWAP1 PUSH2 0x20EB JUMP JUMPDEST DUP1 ISZERO PUSH2 0x1967 JUMPI DUP1 PUSH1 0x1F LT PUSH2 0x193C JUMPI PUSH2 0x100 DUP1 DUP4 SLOAD DIV MUL DUP4 MSTORE SWAP2 PUSH1 0x20 ADD SWAP2 PUSH2 0x1967 JUMP JUMPDEST DUP3 ADD SWAP2 SWAP1 PUSH1 0x0 MSTORE PUSH1 0x20 PUSH1 0x0 KECCAK256 SWAP1 JUMPDEST DUP2 SLOAD DUP2 MSTORE SWAP1 PUSH1 0x1 ADD SWAP1 PUSH1 0x20 ADD DUP1 DUP4 GT PUSH2 0x194A JUMPI DUP3 SWAP1 SUB PUSH1 0x1F AND DUP3 ADD SWAP2 JUMPDEST POP POP POP POP POP DUP2 MSTORE POP POP DUP2 MSTORE PUSH1 0x20 ADD SWAP1 PUSH1 0x1 ADD SWAP1 PUSH2 0x16FB JUMP JUMPDEST POP POP POP POP SWAP1 POP SWAP1 JUMP JUMPDEST PUSH1 0x2 SLOAD PUSH1 0x1 PUSH1 0x1 PUSH1 0xA0 SHL SUB AND CALLER EQ PUSH2 0x19B2 JUMPI PUSH1 0x40 MLOAD PUSH3 0x461BCD PUSH1 0xE5 SHL DUP2 MSTORE PUSH1 0x4 ADD PUSH2 0x2EA SWAP1 PUSH2 0x2001 JUMP JUMPDEST PUSH1 0x0 DUP2 DUP2 MSTORE PUSH1 0xD PUSH1 0x20 MSTORE PUSH1 0x40 SWAP1 KECCAK256 SLOAD PUSH1 0xFF AND ISZERO PUSH2 0x19EC JUMPI PUSH1 0x0 DUP2 DUP2 MSTORE PUSH1 0xD PUSH1 0x20 MSTORE PUSH1 0x40 DUP2 KECCAK256 DUP1 SLOAD PUSH1 0xFF NOT AND SWAP1 SSTORE DUP1 SLOAD SWAP1 DUP1 PUSH2 0x14A5 DUP4 PUSH2 0x239A JUMP JUMPDEST PUSH1 0x40 MLOAD PUSH3 0x461BCD PUSH1 0xE5 SHL DUP2 MSTORE PUSH1 0x20 PUSH1 0x4 DUP3 ADD MSTORE PUSH1 0x2E PUSH1 0x24 DUP3 ADD MSTORE PUSH32 0x54686520766F7465722068617320616C7265616479206265656E206465636C69 PUSH1 0x44 DUP3 ADD MSTORE PUSH14 0x3732B21037B9103130B73732B217 PUSH1 0x91 SHL PUSH1 0x64 DUP3 ADD MSTORE PUSH1 0x84 ADD PUSH2 0x2EA JUMP JUMPDEST PUSH2 0x1A80 PUSH1 0x40 MLOAD DUP1 PUSH1 0xA0 ADD PUSH1 0x40 MSTORE DUP1 PUSH1 0x0 DUP2 MSTORE PUSH1 0x20 ADD PUSH1 0x60 DUP2 MSTORE PUSH1 0x20 ADD PUSH1 0x60 DUP2 MSTORE PUSH1 0x20 ADD PUSH1 0x0 PUSH1 0xFF AND DUP2 MSTORE PUSH1 0x20 ADD PUSH1 0x60 DUP2 MSTORE POP SWAP1 JUMP JUMPDEST PUSH1 0x7 PUSH1 0x0 DUP4 DUP2 MSTORE PUSH1 0x20 ADD SWAP1 DUP2 MSTORE PUSH1 0x20 ADD PUSH1 0x0 KECCAK256 PUSH1 0x40 MLOAD DUP1 PUSH1 0xA0 ADD PUSH1 0x40 MSTORE SWAP1 DUP2 PUSH1 0x0 DUP3 ADD SLOAD DUP2 MSTORE PUSH1 0x20 ADD PUSH1 0x1 DUP3 ADD DUP1 SLOAD PUSH2 0x1AB8 SWAP1 PUSH2 0x20EB JUMP JUMPDEST DUP1 PUSH1 0x1F ADD PUSH1 0x20 DUP1 SWAP2 DIV MUL PUSH1 0x20 ADD PUSH1 0x40 MLOAD SWAP1 DUP2 ADD PUSH1 0x40 MSTORE DUP1 SWAP3 SWAP2 SWAP1 DUP2 DUP2 MSTORE PUSH1 0x20 ADD DUP3 DUP1 SLOAD PUSH2 0x1AE4 SWAP1 PUSH2 0x20EB JUMP JUMPDEST DUP1 ISZERO PUSH2 0x1B31 JUMPI DUP1 PUSH1 0x1F LT PUSH2 0x1B06 JUMPI PUSH2 0x100 DUP1 DUP4 SLOAD DIV MUL DUP4 MSTORE SWAP2 PUSH1 0x20 ADD SWAP2 PUSH2 0x1B31 JUMP JUMPDEST DUP3 ADD SWAP2 SWAP1 PUSH1 0x0 MSTORE PUSH1 0x20 PUSH1 0x0 KECCAK256 SWAP1 JUMPDEST DUP2 SLOAD DUP2 MSTORE SWAP1 PUSH1 0x1 ADD SWAP1 PUSH1 0x20 ADD DUP1 DUP4 GT PUSH2 0x1B14 JUMPI DUP3 SWAP1 SUB PUSH1 0x1F AND DUP3 ADD SWAP2 JUMPDEST POP POP POP POP POP DUP2 MSTORE PUSH1 0x20 ADD PUSH1 0x2 DUP3 ADD DUP1 SLOAD PUSH2 0x1B4A SWAP1 PUSH2 0x20EB JUMP JUMPDEST DUP1 PUSH1 0x1F ADD PUSH1 0x20 DUP1 SWAP2 DIV MUL PUSH1 0x20 ADD PUSH1 0x40 MLOAD SWAP1 DUP2 ADD PUSH1 0x40 MSTORE DUP1 SWAP3 SWAP2 SWAP1 DUP2 DUP2 MSTORE PUSH1 0x20 ADD DUP3 DUP1 SLOAD PUSH2 0x1B76 SWAP1 PUSH2 0x20EB JUMP JUMPDEST DUP1 ISZERO PUSH2 0x1BC3 JUMPI DUP1 PUSH1 0x1F LT PUSH2 0x1B98 JUMPI PUSH2 0x100 DUP1 DUP4 SLOAD DIV MUL DUP4 MSTORE SWAP2 PUSH1 0x20 ADD SWAP2 PUSH2 0x1BC3 JUMP JUMPDEST DUP3 ADD SWAP2 SWAP1 PUSH1 0x0 MSTORE PUSH1 0x20 PUSH1 0x0 KECCAK256 SWAP1 JUMPDEST DUP2 SLOAD DUP2 MSTORE SWAP1 PUSH1 0x1 ADD SWAP1 PUSH1 0x20 ADD DUP1 DUP4 GT PUSH2 0x1BA6 JUMPI DUP3 SWAP1 SUB PUSH1 0x1F AND DUP3 ADD SWAP2 JUMPDEST POP POP POP SWAP2 DUP4 MSTORE POP POP PUSH1 0x3 DUP3 ADD SLOAD PUSH1 0xFF AND PUSH1 0x20 DUP3 ADD MSTORE PUSH1 0x4 DUP3 ADD DUP1 SLOAD PUSH1 0x40 SWAP1 SWAP3 ADD SWAP2 PUSH2 0x10BB SWAP1 PUSH2 0x20EB JUMP JUMPDEST PUSH1 0x0 PUSH1 0x20 DUP3 DUP5 SUB SLT ISZERO PUSH2 0x1BFF JUMPI PUSH1 0x0 DUP1 REVERT JUMPDEST POP CALLDATALOAD SWAP2 SWAP1 POP JUMP JUMPDEST PUSH1 0x0 DUP1 PUSH1 0x40 DUP4 DUP6 SUB SLT ISZERO PUSH2 0x1C19 JUMPI PUSH1 0x0 DUP1 REVERT JUMPDEST POP POP DUP1 CALLDATALOAD SWAP3 PUSH1 0x20 SWAP1 SWAP2 ADD CALLDATALOAD SWAP2 POP JUMP JUMPDEST PUSH4 0x4E487B71 PUSH1 0xE0 SHL PUSH1 0x0 MSTORE PUSH1 0x41 PUSH1 0x4 MSTORE PUSH1 0x24 PUSH1 0x0 REVERT JUMPDEST PUSH1 0x0 DUP3 PUSH1 0x1F DUP4 ADD SLT PUSH2 0x1C4F JUMPI PUSH1 0x0 DUP1 REVERT JUMPDEST DUP2 CALLDATALOAD PUSH8 0xFFFFFFFFFFFFFFFF DUP1 DUP3 GT ISZERO PUSH2 0x1C6A JUMPI PUSH2 0x1C6A PUSH2 0x1C28 JUMP JUMPDEST PUSH1 0x40 MLOAD PUSH1 0x1F DUP4 ADD PUSH1 0x1F NOT SWAP1 DUP2 AND PUSH1 0x3F ADD AND DUP2 ADD SWAP1 DUP3 DUP3 GT DUP2 DUP4 LT OR ISZERO PUSH2 0x1C92 JUMPI PUSH2 0x1C92 PUSH2 0x1C28 JUMP JUMPDEST DUP2 PUSH1 0x40 MSTORE DUP4 DUP2 MSTORE DUP7 PUSH1 0x20 DUP6 DUP9 ADD ADD GT ISZERO PUSH2 0x1CAB JUMPI PUSH1 0x0 DUP1 REVERT JUMPDEST DUP4 PUSH1 0x20 DUP8 ADD PUSH1 0x20 DUP4 ADD CALLDATACOPY PUSH1 0x0 PUSH1 0x20 DUP6 DUP4 ADD ADD MSTORE DUP1 SWAP5 POP POP POP POP POP SWAP3 SWAP2 POP POP JUMP JUMPDEST PUSH1 0x0 DUP1 PUSH1 0x0 DUP1 PUSH1 0x80 DUP6 DUP8 SUB SLT ISZERO PUSH2 0x1CE1 JUMPI PUSH1 0x0 DUP1 REVERT JUMPDEST DUP5 CALLDATALOAD PUSH8 0xFFFFFFFFFFFFFFFF DUP1 DUP3 GT ISZERO PUSH2 0x1CF9 JUMPI PUSH1 0x0 DUP1 REVERT JUMPDEST PUSH2 0x1D05 DUP9 DUP4 DUP10 ADD PUSH2 0x1C3E JUMP JUMPDEST SWAP6 POP PUSH1 0x20 DUP8 ADD CALLDATALOAD SWAP2 POP DUP1 DUP3 GT ISZERO PUSH2 0x1D1B JUMPI PUSH1 0x0 DUP1 REVERT JUMPDEST PUSH2 0x1D27 DUP9 DUP4 DUP10 ADD PUSH2 0x1C3E JUMP JUMPDEST SWAP5 POP PUSH1 0x40 DUP8 ADD CALLDATALOAD SWAP2 POP DUP1 DUP3 GT ISZERO PUSH2 0x1D3D JUMPI PUSH1 0x0 DUP1 REVERT JUMPDEST PUSH2 0x1D49 DUP9 DUP4 DUP10 ADD PUSH2 0x1C3E JUMP JUMPDEST SWAP4 POP PUSH1 0x60 DUP8 ADD CALLDATALOAD SWAP2 POP DUP1 DUP3 GT ISZERO PUSH2 0x1D5F JUMPI PUSH1 0x0 DUP1 REVERT JUMPDEST POP PUSH2 0x1D6C DUP8 DUP3 DUP9 ADD PUSH2 0x1C3E JUMP JUMPDEST SWAP2 POP POP SWAP3 SWAP6 SWAP2 SWAP5 POP SWAP3 POP JUMP JUMPDEST PUSH1 0x0 DUP1 PUSH1 0x0 DUP1 PUSH1 0x80 DUP6 DUP8 SUB SLT ISZERO PUSH2 0x1D8E JUMPI PUSH1 0x0 DUP1 REVERT JUMPDEST DUP5 CALLDATALOAD PUSH8 0xFFFFFFFFFFFFFFFF DUP1 DUP3 GT ISZERO PUSH2 0x1DA6 JUMPI PUSH1 0x0 DUP1 REVERT JUMPDEST PUSH2 0x1DB2 DUP9 DUP4 DUP10 ADD PUSH2 0x1C3E JUMP JUMPDEST SWAP6 POP PUSH1 0x20 DUP8 ADD CALLDATALOAD SWAP2 POP DUP1 DUP3 GT ISZERO PUSH2 0x1DC8 JUMPI PUSH1 0x0 DUP1 REVERT JUMPDEST PUSH2 0x1DD4 DUP9 DUP4 DUP10 ADD PUSH2 0x1C3E JUMP JUMPDEST SWAP5 POP PUSH1 0x40 DUP8 ADD CALLDATALOAD SWAP2 POP PUSH1 0xFF DUP3 AND DUP3 EQ PUSH2 0x1DEC JUMPI PUSH1 0x0 DUP1 REVERT JUMPDEST SWAP1 SWAP3 POP PUSH1 0x60 DUP7 ADD CALLDATALOAD SWAP1 DUP1 DUP3 GT ISZERO PUSH2 0x1D5F JUMPI PUSH1 0x0 DUP1 REVERT JUMPDEST PUSH1 0x0 DUP2 MLOAD DUP1 DUP5 MSTORE PUSH1 0x0 JUMPDEST DUP2 DUP2 LT ISZERO PUSH2 0x1E28 JUMPI PUSH1 0x20 DUP2 DUP6 ADD DUP2 ADD MLOAD DUP7 DUP4 ADD DUP3 ADD MSTORE ADD PUSH2 0x1E0C JUMP JUMPDEST POP PUSH1 0x0 PUSH1 0x20 DUP3 DUP7 ADD ADD MSTORE PUSH1 0x20 PUSH1 0x1F NOT PUSH1 0x1F DUP4 ADD AND DUP6 ADD ADD SWAP2 POP POP SWAP3 SWAP2 POP POP JUMP JUMPDEST DUP1 MLOAD DUP3 MSTORE PUSH1 0x0 PUSH1 0x20 DUP3 ADD MLOAD PUSH1 0xA0 PUSH1 0x20 DUP6 ADD MSTORE PUSH2 0x1E67 PUSH1 0xA0 DUP6 ADD DUP3 PUSH2 0x1E02 JUMP JUMPDEST SWAP1 POP PUSH1 0x40 DUP4 ADD MLOAD DUP5 DUP3 SUB PUSH1 0x40 DUP7 ADD MSTORE PUSH2 0x1E80 DUP3 DUP3 PUSH2 0x1E02 JUMP JUMPDEST SWAP2 POP POP PUSH1 0x60 DUP4 ADD MLOAD DUP5 DUP3 SUB PUSH1 0x60 DUP7 ADD MSTORE PUSH2 0x1E9A DUP3 DUP3 PUSH2 0x1E02 JUMP JUMPDEST SWAP2 POP POP PUSH1 0x80 DUP4 ADD MLOAD DUP5 DUP3 SUB PUSH1 0x80 DUP7 ADD MSTORE PUSH2 0x1EB4 DUP3 DUP3 PUSH2 0x1E02 JUMP JUMPDEST SWAP6 SWAP5 POP POP POP POP POP JUMP JUMPDEST PUSH1 0x20 DUP2 MSTORE PUSH1 0x0 PUSH2 0x1ED0 PUSH1 0x20 DUP4 ADD DUP5 PUSH2 0x1E48 JUMP JUMPDEST SWAP4 SWAP3 POP POP POP JUMP JUMPDEST PUSH1 0x0 DUP1 PUSH1 0x40 DUP4 DUP6 SUB SLT ISZERO PUSH2 0x1EEA JUMPI PUSH1 0x0 DUP1 REVERT JUMPDEST DUP3 CALLDATALOAD SWAP2 POP PUSH1 0x20 DUP4 ADD CALLDATALOAD PUSH1 0x6 DUP2 LT PUSH2 0x1F00 JUMPI PUSH1 0x0 DUP1 REVERT JUMPDEST DUP1 SWAP2 POP POP SWAP3 POP SWAP3 SWAP1 POP JUMP JUMPDEST PUSH1 0x60 DUP2 MSTORE PUSH1 0x0 PUSH2 0x1F1E PUSH1 0x60 DUP4 ADD DUP7 PUSH2 0x1E02 JUMP JUMPDEST PUSH1 0x20 DUP4 ADD SWAP5 SWAP1 SWAP5 MSTORE POP PUSH1 0x40 ADD MSTORE SWAP2 SWAP1 POP JUMP JUMPDEST PUSH1 0x0 PUSH1 0x20 DUP1 DUP4 ADD DUP2 DUP5 MSTORE DUP1 DUP6 MLOAD DUP1 DUP4 MSTORE PUSH1 0x40 DUP7 ADD SWAP2 POP PUSH1 0x40 DUP2 PUSH1 0x5 SHL DUP8 ADD ADD SWAP3 POP DUP4 DUP8 ADD PUSH1 0x0 JUMPDEST DUP3 DUP2 LT ISZERO PUSH2 0x1F85 JUMPI PUSH1 0x3F NOT DUP9 DUP7 SUB ADD DUP5 MSTORE PUSH2 0x1F73 DUP6 DUP4 MLOAD PUSH2 0x1E48 JUMP JUMPDEST SWAP5 POP SWAP3 DUP6 ADD SWAP3 SWAP1 DUP6 ADD SWAP1 PUSH1 0x1 ADD PUSH2 0x1F57 JUMP JUMPDEST POP SWAP3 SWAP8 SWAP7 POP POP POP POP POP POP POP JUMP JUMPDEST PUSH1 0x20 DUP2 MSTORE DUP2 MLOAD PUSH1 0x20 DUP3 ADD MSTORE PUSH1 0x0 PUSH1 0x20 DUP4 ADD MLOAD PUSH1 0xA0 PUSH1 0x40 DUP5 ADD MSTORE PUSH2 0x1FB8 PUSH1 0xC0 DUP5 ADD DUP3 PUSH2 0x1E02 JUMP JUMPDEST SWAP1 POP PUSH1 0x40 DUP5 ADD MLOAD PUSH1 0x1F NOT DUP1 DUP6 DUP5 SUB ADD PUSH1 0x60 DUP7 ADD MSTORE PUSH2 0x1FD6 DUP4 DUP4 PUSH2 0x1E02 JUMP JUMPDEST SWAP3 POP PUSH1 0xFF PUSH1 0x60 DUP8 ADD MLOAD AND PUSH1 0x80 DUP7 ADD MSTORE PUSH1 0x80 DUP7 ADD MLOAD SWAP2 POP DUP1 DUP6 DUP5 SUB ADD PUSH1 0xA0 DUP7 ADD MSTORE POP PUSH2 0x1EB4 DUP3 DUP3 PUSH2 0x1E02 JUMP JUMPDEST PUSH1 0x20 DUP1 DUP3 MSTORE PUSH1 0x13 SWAP1 DUP3 ADD MSTORE PUSH19 0x556E617574686F72697A656420616363657373 PUSH1 0x68 SHL PUSH1 0x40 DUP3 ADD MSTORE PUSH1 0x60 ADD SWAP1 JUMP JUMPDEST PUSH4 0x4E487B71 PUSH1 0xE0 SHL PUSH1 0x0 MSTORE PUSH1 0x11 PUSH1 0x4 MSTORE PUSH1 0x24 PUSH1 0x0 REVERT JUMPDEST PUSH1 0x0 PUSH1 0x1 DUP3 ADD PUSH2 0x2056 JUMPI PUSH2 0x2056 PUSH2 0x202E JUMP JUMPDEST POP PUSH1 0x1 ADD SWAP1 JUMP JUMPDEST PUSH1 0x20 DUP1 DUP3 MSTORE PUSH1 0x1C SWAP1 DUP3 ADD MSTORE PUSH32 0x456C656374696F6E206973206E6F7420696E2070726F67726573732E00000000 PUSH1 0x40 DUP3 ADD MSTORE PUSH1 0x60 ADD SWAP1 JUMP JUMPDEST PUSH4 0x4E487B71 PUSH1 0xE0 SHL PUSH1 0x0 MSTORE PUSH1 0x32 PUSH1 0x4 MSTORE PUSH1 0x24 PUSH1 0x0 REVERT JUMPDEST PUSH1 0x20 DUP1 DUP3 MSTORE PUSH1 0x21 SWAP1 DUP3 ADD MSTORE PUSH32 0x596F75206861766520616C7265616479206265656E2072656769737465726564 PUSH1 0x40 DUP3 ADD MSTORE PUSH1 0x17 PUSH1 0xF9 SHL PUSH1 0x60 DUP3 ADD MSTORE PUSH1 0x80 ADD SWAP1 JUMP JUMPDEST PUSH1 0x1 DUP2 DUP2 SHR SWAP1 DUP3 AND DUP1 PUSH2 0x20FF JUMPI PUSH1 0x7F DUP3 AND SWAP2 POP JUMPDEST PUSH1 0x20 DUP3 LT DUP2 SUB PUSH2 0x211F JUMPI PUSH4 0x4E487B71 PUSH1 0xE0 SHL PUSH1 0x0 MSTORE PUSH1 0x22 PUSH1 0x4 MSTORE PUSH1 0x24 PUSH1 0x0 REVERT JUMPDEST POP SWAP2 SWAP1 POP JUMP JUMPDEST PUSH1 0x1F DUP3 GT ISZERO PUSH2 0x5E0 JUMPI PUSH1 0x0 DUP2 DUP2 MSTORE PUSH1 0x20 DUP2 KECCAK256 PUSH1 0x1F DUP6 ADD PUSH1 0x5 SHR DUP2 ADD PUSH1 0x20 DUP7 LT ISZERO PUSH2 0x214C JUMPI POP DUP1 JUMPDEST PUSH1 0x1F DUP6 ADD PUSH1 0x5 SHR DUP3 ADD SWAP2 POP JUMPDEST DUP2 DUP2 LT ISZERO PUSH2 0x216B JUMPI DUP3 DUP2 SSTORE PUSH1 0x1 ADD PUSH2 0x2158 JUMP JUMPDEST POP POP POP POP POP POP JUMP JUMPDEST DUP2 MLOAD PUSH8 0xFFFFFFFFFFFFFFFF DUP2 GT ISZERO PUSH2 0x218D JUMPI PUSH2 0x218D PUSH2 0x1C28 JUMP JUMPDEST PUSH2 0x21A1 DUP2 PUSH2 0x219B DUP5 SLOAD PUSH2 0x20EB JUMP JUMPDEST DUP5 PUSH2 0x2125 JUMP JUMPDEST PUSH1 0x20 DUP1 PUSH1 0x1F DUP4 GT PUSH1 0x1 DUP2 EQ PUSH2 0x21D6 JUMPI PUSH1 0x0 DUP5 ISZERO PUSH2 0x21BE JUMPI POP DUP6 DUP4 ADD MLOAD JUMPDEST PUSH1 0x0 NOT PUSH1 0x3 DUP7 SWAP1 SHL SHR NOT AND PUSH1 0x1 DUP6 SWAP1 SHL OR DUP6 SSTORE PUSH2 0x216B JUMP JUMPDEST PUSH1 0x0 DUP6 DUP2 MSTORE PUSH1 0x20 DUP2 KECCAK256 PUSH1 0x1F NOT DUP7 AND SWAP2 JUMPDEST DUP3 DUP2 LT ISZERO PUSH2 0x2205 JUMPI DUP9 DUP7 ADD MLOAD DUP3 SSTORE SWAP5 DUP5 ADD SWAP5 PUSH1 0x1 SWAP1 SWAP2 ADD SWAP1 DUP5 ADD PUSH2 0x21E6 JUMP JUMPDEST POP DUP6 DUP3 LT ISZERO PUSH2 0x2223 JUMPI DUP8 DUP6 ADD MLOAD PUSH1 0x0 NOT PUSH1 0x3 DUP9 SWAP1 SHL PUSH1 0xF8 AND SHR NOT AND DUP2 SSTORE JUMPDEST POP POP POP POP POP PUSH1 0x1 SWAP1 DUP2 SHL ADD SWAP1 SSTORE POP JUMP JUMPDEST DUP2 DUP2 SUB PUSH2 0x223E JUMPI POP POP JUMP JUMPDEST PUSH2 0x2248 DUP3 SLOAD PUSH2 0x20EB JUMP JUMPDEST PUSH8 0xFFFFFFFFFFFFFFFF DUP2 GT ISZERO PUSH2 0x2260 JUMPI PUSH2 0x2260 PUSH2 0x1C28 JUMP JUMPDEST PUSH2 0x226E DUP2 PUSH2 0x219B DUP5 SLOAD PUSH2 0x20EB JUMP JUMPDEST PUSH1 0x0 PUSH1 0x1F DUP3 GT PUSH1 0x1 DUP2 EQ PUSH2 0x22A2 JUMPI PUSH1 0x0 DUP4 ISZERO PUSH2 0x228A JUMPI POP DUP5 DUP3 ADD SLOAD JUMPDEST PUSH1 0x0 NOT PUSH1 0x3 DUP6 SWAP1 SHL SHR NOT AND PUSH1 0x1 DUP5 SWAP1 SHL OR DUP5 SSTORE PUSH2 0x2307 JUMP JUMPDEST PUSH1 0x0 DUP6 DUP2 MSTORE PUSH1 0x20 SWAP1 KECCAK256 PUSH1 0x1F NOT DUP5 AND SWAP1 PUSH1 0x0 DUP7 DUP2 MSTORE PUSH1 0x20 SWAP1 KECCAK256 DUP5 JUMPDEST DUP4 DUP2 LT ISZERO PUSH2 0x22DC JUMPI DUP3 DUP7 ADD SLOAD DUP3 SSTORE PUSH1 0x1 SWAP6 DUP7 ADD SWAP6 SWAP1 SWAP2 ADD SWAP1 PUSH1 0x20 ADD PUSH2 0x22BC JUMP JUMPDEST POP DUP6 DUP4 LT ISZERO PUSH2 0x22FA JUMPI DUP2 DUP6 ADD SLOAD PUSH1 0x0 NOT PUSH1 0x3 DUP9 SWAP1 SHL PUSH1 0xF8 AND SHR NOT AND DUP2 SSTORE JUMPDEST POP POP POP PUSH1 0x1 DUP4 PUSH1 0x1 SHL ADD DUP5 SSTORE JUMPDEST POP POP POP POP POP JUMP JUMPDEST PUSH1 0x1 PUSH1 0x1 PUSH1 0xA0 SHL SUB DUP4 AND DUP2 MSTORE PUSH1 0x40 PUSH1 0x20 DUP3 ADD DUP2 SWAP1 MSTORE PUSH1 0x0 SWAP1 PUSH2 0x2332 SWAP1 DUP4 ADD DUP5 PUSH2 0x1E02 JUMP JUMPDEST SWAP5 SWAP4 POP POP POP POP JUMP JUMPDEST PUSH4 0x4E487B71 PUSH1 0xE0 SHL PUSH1 0x0 MSTORE PUSH1 0x21 PUSH1 0x4 MSTORE PUSH1 0x24 PUSH1 0x0 REVERT JUMPDEST PUSH1 0x20 DUP1 DUP3 MSTORE PUSH1 0x2A SWAP1 DUP3 ADD MSTORE PUSH32 0x596F752063616E6E6F7420766965772074686520726573756C74732061742074 PUSH1 0x40 DUP3 ADD MSTORE PUSH10 0x34329036B7B6B2B73A17 PUSH1 0xB1 SHL PUSH1 0x60 DUP3 ADD MSTORE PUSH1 0x80 ADD SWAP1 JUMP JUMPDEST PUSH1 0x0 DUP2 PUSH2 0x23A9 JUMPI PUSH2 0x23A9 PUSH2 0x202E JUMP JUMPDEST POP PUSH1 0x0 NOT ADD SWAP1 JUMP JUMPDEST PUSH14 0x2A3432903BB4B73732B91034B99 PUSH1 0x95 SHL DUP2 MSTORE PUSH1 0x0 PUSH1 0xE PUSH1 0x0 DUP5 SLOAD PUSH2 0x23D6 DUP2 PUSH2 0x20EB JUMP JUMPDEST PUSH1 0x1 DUP3 DUP2 AND DUP1 ISZERO PUSH2 0x23EE JUMPI PUSH1 0x1 DUP2 EQ PUSH2 0x2407 JUMPI PUSH2 0x1F85 JUMP JUMPDEST PUSH1 0xFF NOT DUP5 AND DUP9 DUP8 ADD MSTORE DUP3 ISZERO ISZERO DUP4 MUL DUP9 ADD DUP7 ADD SWAP5 POP PUSH2 0x1F85 JUMP JUMPDEST DUP9 PUSH1 0x0 MSTORE PUSH1 0x20 DUP1 PUSH1 0x0 KECCAK256 PUSH1 0x0 JUMPDEST DUP6 DUP2 LT ISZERO PUSH2 0x242F JUMPI DUP2 SLOAD DUP12 DUP3 ADD DUP11 ADD MSTORE SWAP1 DUP5 ADD SWAP1 DUP3 ADD PUSH2 0x2414 JUMP JUMPDEST POP POP POP POP SWAP6 ADD SWAP1 SWAP3 ADD SWAP6 SWAP5 POP POP POP POP POP JUMP INVALID LOG2 PUSH5 0x6970667358 0x22 SLT KECCAK256 0xCD PUSH9 0xC441A8DCCB123F03DD 0xAD PUSH17 0x89649B048354DAF78E12725C972DE4A02D 0xBF 0xE6 PUSH5 0x736F6C6343 STOP ADDMOD SLT STOP CALLER "
		},
		"gasEstimates": {
			"creation": {
				"codeDepositCost": "1867000",
				"executionCost": "109655",
				"totalCost": "1976655"
			},
			"external": {
				"add_voter(string,string,uint8,string)": "infinite",
				"approve_or_unBan_candidate(uint256)": "54256",
				"approve_or_unBan_voter(uint256)": "54227",
				"delegate_my_vote(uint256,uint8)": "130727",
				"endElection()": "30834",
				"get_candidate_detail(uint256)": "infinite",
				"get_candidate_eligibility(uint256)": "2485",
				"get_candidate_list()": "infinite",
				"get_candidate_result(uint256)": "4687",
				"get_election_result()": "infinite",
				"get_voter_detail(uint256)": "infinite",
				"get_voter_eligibility(uint256)": "2463",
				"registerVote(uint256)": "infinite",
				"register_candidate(string,string,string,string)": "infinite",
				"register_delegated_vote(uint256,uint256)": "infinite",
				"reject_or_ban_candidate(uint256)": "54209",
				"reject_or_ban_voter(uint256)": "54275",
				"startElection()": "28741"
			}
		},
		"methodIdentifiers": {
			"add_voter(string,string,uint8,string)": "5b8ebb64",
			"approve_or_unBan_candidate(uint256)": "1d529aa4",
			"approve_or_unBan_voter(uint256)": "bb30d88e",
			"delegate_my_vote(uint256,uint8)": "bd0c7009",
			"endElection()": "59f78468",
			"get_candidate_detail(uint256)": "a589ac5c",
			"get_candidate_eligibility(uint256)": "0340851d",
			"get_candidate_list()": "e9b52668",
			"get_candidate_result(uint256)": "c2b33e6e",
			"get_election_result()": "d1b9fb3f",
			"get_voter_detail(uint256)": "fc864716",
			"get_voter_eligibility(uint256)": "0318e0ac",
			"registerVote(uint256)": "464d4a92",
			"register_candidate(string,string,string,string)": "54155fbf",
			"register_delegated_vote(uint256,uint256)": "2802ce59",
			"reject_or_ban_candidate(uint256)": "cdd11b64",
			"reject_or_ban_voter(uint256)": "eca88ca6",
			"startElection()": "62d73eb8"
		}
	},
	"abi": [
		{
			"inputs": [],
			"stateMutability": "nonpayable",
			"type": "constructor"
		},
		{
			"anonymous": false,
			"inputs": [
				{
					"indexed": false,
					"internalType": "uint256",
					"name": "",
					"type": "uint256"
				}
			],
			"name": "Approved",
			"type": "event"
		},
		{
			"anonymous": false,
			"inputs": [
				{
					"indexed": false,
					"internalType": "uint256",
					"name": "",
					"type": "uint256"
				}
			],
			"name": "Rejected_or_Banned",
			"type": "event"
		},
		{
			"anonymous": false,
			"inputs": [
				{
					"indexed": false,
					"internalType": "address",
					"name": "",
					"type": "address"
				},
				{
					"indexed": false,
					"internalType": "string",
					"name": "",
					"type": "string"
				}
			],
			"name": "Request_For_Registration",
			"type": "event"
		},
		{
			"anonymous": false,
			"inputs": [
				{
					"indexed": false,
					"internalType": "address",
					"name": "",
					"type": "address"
				},
				{
					"indexed": false,
					"internalType": "string",
					"name": "",
					"type": "string"
				}
			],
			"name": "candidate_registration",
			"type": "event"
		},
		{
			"anonymous": false,
			"inputs": [
				{
					"indexed": false,
					"internalType": "address",
					"name": "",
					"type": "address"
				},
				{
					"indexed": false,
					"internalType": "string",
					"name": "",
					"type": "string"
				}
			],
			"name": "voter_registration",
			"type": "event"
		},
		{
			"inputs": [
				{
					"internalType": "string",
					"name": "_voter_name",
					"type": "string"
				},
				{
					"internalType": "string",
					"name": "_voter_address",
					"type": "string"
				},
				{
					"internalType": "uint8",
					"name": "_voter_age",
					"type": "uint8"
				},
				{
					"internalType": "string",
					"name": "_voter_aadhaar_number",
					"type": "string"
				}
			],
			"name": "add_voter",
			"outputs": [],
			"stateMutability": "nonpayable",
			"type": "function"
		},
		{
			"inputs": [
				{
					"internalType": "uint256",
					"name": "_candidate_id",
					"type": "uint256"
				}
			],
			"name": "approve_or_unBan_candidate",
			"outputs": [],
			"stateMutability": "nonpayable",
			"type": "function"
		},
		{
			"inputs": [
				{
					"internalType": "uint256",
					"name": "_voter_id",
					"type": "uint256"
				}
			],
			"name": "approve_or_unBan_voter",
			"outputs": [],
			"stateMutability": "nonpayable",
			"type": "function"
		},
		{
			"inputs": [
				{
					"internalType": "uint256",
					"name": "_voter_id",
					"type": "uint256"
				},
				{
					"internalType": "enum Voting.DelegatedRelationship",
					"name": "_relationship",
					"type": "uint8"
				}
			],
			"name": "delegate_my_vote",
			"outputs": [],
			"stateMutability": "nonpayable",
			"type": "function"
		},
		{
			"inputs": [],
			"name": "endElection",
			"outputs": [],
			"stateMutability": "nonpayable",
			"type": "function"
		},
		{
			"inputs": [
				{
					"internalType": "uint256",
					"name": "_candidate_id",
					"type": "uint256"
				}
			],
			"name": "get_candidate_detail",
			"outputs": [
				{
					"components": [
						{
							"internalType": "uint256",
							"name": "candidate_id",
							"type": "uint256"
						},
						{
							"internalType": "string",
							"name": "candidate_name",
							"type": "string"
						},
						{
							"internalType": "string",
							"name": "candidate_address",
							"type": "string"
						},
						{
							"internalType": "string",
							"name": "candidate_age",
							"type": "string"
						},
						{
							"internalType": "string",
							"name": "candidate_promise",
							"type": "string"
						}
					],
					"internalType": "struct Voting.Candidate_List",
					"name": "",
					"type": "tuple"
				}
			],
			"stateMutability": "view",
			"type": "function"
		},
		{
			"inputs": [
				{
					"internalType": "uint256",
					"name": "_candidate_id",
					"type": "uint256"
				}
			],
			"name": "get_candidate_eligibility",
			"outputs": [
				{
					"internalType": "bool",
					"name": "",
					"type": "bool"
				}
			],
			"stateMutability": "view",
			"type": "function"
		},
		{
			"inputs": [],
			"name": "get_candidate_list",
			"outputs": [
				{
					"components": [
						{
							"internalType": "uint256",
							"name": "candidate_id",
							"type": "uint256"
						},
						{
							"internalType": "string",
							"name": "candidate_name",
							"type": "string"
						},
						{
							"internalType": "string",
							"name": "candidate_address",
							"type": "string"
						},
						{
							"internalType": "string",
							"name": "candidate_age",
							"type": "string"
						},
						{
							"internalType": "string",
							"name": "candidate_promise",
							"type": "string"
						}
					],
					"internalType": "struct Voting.Candidate_List[]",
					"name": "",
					"type": "tuple[]"
				}
			],
			"stateMutability": "view",
			"type": "function"
		},
		{
			"inputs": [
				{
					"internalType": "uint256",
					"name": "_candidate_id",
					"type": "uint256"
				}
			],
			"name": "get_candidate_result",
			"outputs": [
				{
					"internalType": "uint256",
					"name": "",
					"type": "uint256"
				}
			],
			"stateMutability": "view",
			"type": "function"
		},
		{
			"inputs": [],
			"name": "get_election_result",
			"outputs": [
				{
					"internalType": "string",
					"name": "",
					"type": "string"
				},
				{
					"internalType": "uint256",
					"name": "",
					"type": "uint256"
				},
				{
					"internalType": "uint256",
					"name": "",
					"type": "uint256"
				}
			],
			"stateMutability": "view",
			"type": "function"
		},
		{
			"inputs": [
				{
					"internalType": "uint256",
					"name": "_voter_id",
					"type": "uint256"
				}
			],
			"name": "get_voter_detail",
			"outputs": [
				{
					"components": [
						{
							"internalType": "uint256",
							"name": "voter_id",
							"type": "uint256"
						},
						{
							"internalType": "string",
							"name": "voter_name",
							"type": "string"
						},
						{
							"internalType": "string",
							"name": "voter_address",
							"type": "string"
						},
						{
							"internalType": "uint8",
							"name": "voter_age",
							"type": "uint8"
						},
						{
							"internalType": "string",
							"name": "voter_aadhaar_number",
							"type": "string"
						}
					],
					"internalType": "struct Voting.Voters_List",
					"name": "",
					"type": "tuple"
				}
			],
			"stateMutability": "view",
			"type": "function"
		},
		{
			"inputs": [
				{
					"internalType": "uint256",
					"name": "_voter_id",
					"type": "uint256"
				}
			],
			"name": "get_voter_eligibility",
			"outputs": [
				{
					"internalType": "bool",
					"name": "",
					"type": "bool"
				}
			],
			"stateMutability": "view",
			"type": "function"
		},
		{
			"inputs": [
				{
					"internalType": "uint256",
					"name": "_candidate_id",
					"type": "uint256"
				}
			],
			"name": "registerVote",
			"outputs": [],
			"stateMutability": "nonpayable",
			"type": "function"
		},
		{
			"inputs": [
				{
					"internalType": "string",
					"name": "_candidate_name",
					"type": "string"
				},
				{
					"internalType": "string",
					"name": "_candidate_address",
					"type": "string"
				},
				{
					"internalType": "string",
					"name": "_candidate_age",
					"type": "string"
				},
				{
					"internalType": "string",
					"name": "_candidate_promise",
					"type": "string"
				}
			],
			"name": "register_candidate",
			"outputs": [],
			"stateMutability": "nonpayable",
			"type": "function"
		},
		{
			"inputs": [
				{
					"internalType": "uint256",
					"name": "_delegated_voter_id",
					"type": "uint256"
				},
				{
					"internalType": "uint256",
					"name": "_candidate_id",
					"type": "uint256"
				}
			],
			"name": "register_delegated_vote",
			"outputs": [],
			"stateMutability": "nonpayable",
			"type": "function"
		},
		{
			"inputs": [
				{
					"internalType": "uint256",
					"name": "_candidate_id",
					"type": "uint256"
				}
			],
			"name": "reject_or_ban_candidate",
			"outputs": [],
			"stateMutability": "nonpayable",
			"type": "function"
		},
		{
			"inputs": [
				{
					"internalType": "uint256",
					"name": "_voter_id",
					"type": "uint256"
				}
			],
			"name": "reject_or_ban_voter",
			"outputs": [],
			"stateMutability": "nonpayable",
			"type": "function"
		},
		{
			"inputs": [],
			"name": "startElection",
			"outputs": [],
			"stateMutability": "nonpayable",
			"type": "function"
		}
	]
}